{
	"Time.sol": {
		"Time": {
			"abi": [
				{
					"inputs": [],
					"stateMutability": "payable",
					"type": "constructor"
				},
				{
					"inputs": [],
					"name": "contractBalance",
					"outputs": [
						{
							"internalType": "uint256",
							"name": "",
							"type": "uint256"
						}
					],
					"stateMutability": "view",
					"type": "function"
				},
				{
					"inputs": [],
					"name": "daysPassedSinceLaunch",
					"outputs": [
						{
							"internalType": "bool",
							"name": "",
							"type": "bool"
						}
					],
					"stateMutability": "view",
					"type": "function"
				},
				{
					"inputs": [],
					"name": "deployedDay",
					"outputs": [
						{
							"internalType": "uint256",
							"name": "",
							"type": "uint256"
						}
					],
					"stateMutability": "view",
					"type": "function"
				},
				{
					"inputs": [],
					"name": "donate",
					"outputs": [],
					"stateMutability": "payable",
					"type": "function"
				},
				{
					"inputs": [
						{
							"internalType": "uint256",
							"name": "time",
							"type": "uint256"
						}
					],
					"name": "getSecondsTime",
					"outputs": [
						{
							"internalType": "uint256",
							"name": "",
							"type": "uint256"
						}
					],
					"stateMutability": "view",
					"type": "function"
				},
				{
					"inputs": [
						{
							"internalType": "address",
							"name": "userAddress",
							"type": "address"
						}
					],
					"name": "myBalance",
					"outputs": [
						{
							"internalType": "uint256",
							"name": "",
							"type": "uint256"
						}
					],
					"stateMutability": "view",
					"type": "function"
				},
				{
					"inputs": [],
					"name": "nowTime",
					"outputs": [
						{
							"internalType": "uint256",
							"name": "",
							"type": "uint256"
						}
					],
					"stateMutability": "view",
					"type": "function"
				},
				{
					"inputs": [],
					"name": "oneMinute",
					"outputs": [
						{
							"internalType": "uint256",
							"name": "",
							"type": "uint256"
						}
					],
					"stateMutability": "view",
					"type": "function"
				},
				{
					"inputs": [],
					"name": "oneSecond",
					"outputs": [
						{
							"internalType": "uint256",
							"name": "",
							"type": "uint256"
						}
					],
					"stateMutability": "view",
					"type": "function"
				},
				{
					"inputs": [],
					"name": "threeHours",
					"outputs": [
						{
							"internalType": "uint256",
							"name": "",
							"type": "uint256"
						}
					],
					"stateMutability": "view",
					"type": "function"
				},
				{
					"stateMutability": "payable",
					"type": "receive"
				}
			],
			"devdoc": {
				"kind": "dev",
				"methods": {},
				"version": 1
			},
			"evm": {
				"assembly": "    /* \"Time.sol\":72:1221  contract Time {... */\n  mstore(0x40, 0x80)\n    /* \"Time.sol\":118:125  3 hours */\n  0x2a30\n    /* \"Time.sol\":93:125  uint public threeHours = 3 hours */\n  0x00\n  sstore\n    /* \"Time.sol\":155:164  1 minutes */\n  0x3c\n    /* \"Time.sol\":131:164  uint public oneMinute = 1 minutes */\n  0x01\n  sstore\n    /* \"Time.sol\":194:203  1 seconds */\n  0x01\n    /* \"Time.sol\":170:203  uint public oneSecond = 1 seconds */\n  0x02\n  sstore\n    /* \"Time.sol\":328:343  block.timestamp */\n  timestamp\n    /* \"Time.sol\":314:325  deployedDay */\n  0x03\n    /* \"Time.sol\":314:343  deployedDay = block.timestamp */\n  dup2\n  swap1\n  sstore\n  pop\n    /* \"Time.sol\":72:1221  contract Time {... */\n  dataSize(sub_0)\n  dup1\n  dataOffset(sub_0)\n  0x00\n  codecopy\n  0x00\n  return\nstop\n\nsub_0: assembly {\n        /* \"Time.sol\":72:1221  contract Time {... */\n      mstore(0x40, 0x80)\n      jumpi(tag_1, lt(calldatasize, 0x04))\n      shr(0xe0, calldataload(0x00))\n      dup1\n      0x817a5e14\n      gt\n      tag_13\n      jumpi\n      dup1\n      0x817a5e14\n      eq\n      tag_8\n      jumpi\n      dup1\n      0x8b7afe2e\n      eq\n      tag_9\n      jumpi\n      dup1\n      0x9e2b5a2f\n      eq\n      tag_10\n      jumpi\n      dup1\n      0xcc44b07d\n      eq\n      tag_11\n      jumpi\n      dup1\n      0xed88c68e\n      eq\n      tag_12\n      jumpi\n      jump(tag_2)\n    tag_13:\n      dup1\n      0x21ed4b27\n      eq\n      tag_3\n      jumpi\n      dup1\n      0x335f1b37\n      eq\n      tag_4\n      jumpi\n      dup1\n      0x3f16ae34\n      eq\n      tag_5\n      jumpi\n      dup1\n      0x469df505\n      eq\n      tag_6\n      jumpi\n      dup1\n      0x525f6e1d\n      eq\n      tag_7\n      jumpi\n      jump(tag_2)\n    tag_1:\n      jumpi(tag_2, calldatasize)\n      stop\n    tag_2:\n      0x00\n      dup1\n      revert\n        /* \"Time.sol\":170:203  uint public oneSecond = 1 seconds */\n    tag_3:\n      callvalue\n      dup1\n      iszero\n      tag_16\n      jumpi\n      0x00\n      dup1\n      revert\n    tag_16:\n      pop\n      tag_17\n      tag_18\n      jump\t// in\n    tag_17:\n      mload(0x40)\n      tag_19\n      swap2\n      swap1\n      tag_20\n      jump\t// in\n    tag_19:\n      mload(0x40)\n      dup1\n      swap2\n      sub\n      swap1\n      return\n        /* \"Time.sol\":357:441  function nowTime() view public returns(uint) {... */\n    tag_4:\n      callvalue\n      dup1\n      iszero\n      tag_21\n      jumpi\n      0x00\n      dup1\n      revert\n    tag_21:\n      pop\n      tag_22\n      tag_23\n      jump\t// in\n    tag_22:\n      mload(0x40)\n      tag_24\n      swap2\n      swap1\n      tag_20\n      jump\t// in\n    tag_24:\n      mload(0x40)\n      dup1\n      swap2\n      sub\n      swap1\n      return\n        /* \"Time.sol\":555:783  function daysPassedSinceLaunch() view public returns(bool) {... */\n    tag_5:\n      callvalue\n      dup1\n      iszero\n      tag_25\n      jumpi\n      0x00\n      dup1\n      revert\n    tag_25:\n      pop\n      tag_26\n      tag_27\n      jump\t// in\n    tag_26:\n      mload(0x40)\n      tag_28\n      swap2\n      swap1\n      tag_29\n      jump\t// in\n    tag_28:\n      mload(0x40)\n      dup1\n      swap2\n      sub\n      swap1\n      return\n        /* \"Time.sol\":131:164  uint public oneMinute = 1 minutes */\n    tag_6:\n      callvalue\n      dup1\n      iszero\n      tag_30\n      jumpi\n      0x00\n      dup1\n      revert\n    tag_30:\n      pop\n      tag_31\n      tag_32\n      jump\t// in\n    tag_31:\n      mload(0x40)\n      tag_33\n      swap2\n      swap1\n      tag_20\n      jump\t// in\n    tag_33:\n      mload(0x40)\n      dup1\n      swap2\n      sub\n      swap1\n      return\n        /* \"Time.sol\":210:233  uint public deployedDay */\n    tag_7:\n      callvalue\n      dup1\n      iszero\n      tag_34\n      jumpi\n      0x00\n      dup1\n      revert\n    tag_34:\n      pop\n      tag_35\n      tag_36\n      jump\t// in\n    tag_35:\n      mload(0x40)\n      tag_37\n      swap2\n      swap1\n      tag_20\n      jump\t// in\n    tag_37:\n      mload(0x40)\n      dup1\n      swap2\n      sub\n      swap1\n      return\n        /* \"Time.sol\":789:907  function myBalance(address userAddress) public view returns(uint) {... */\n    tag_8:\n      callvalue\n      dup1\n      iszero\n      tag_38\n      jumpi\n      0x00\n      dup1\n      revert\n    tag_38:\n      pop\n      tag_39\n      0x04\n      dup1\n      calldatasize\n      sub\n      dup2\n      add\n      swap1\n      tag_40\n      swap2\n      swap1\n      tag_41\n      jump\t// in\n    tag_40:\n      tag_42\n      jump\t// in\n    tag_39:\n      mload(0x40)\n      tag_43\n      swap2\n      swap1\n      tag_20\n      jump\t// in\n    tag_43:\n      mload(0x40)\n      dup1\n      swap2\n      sub\n      swap1\n      return\n        /* \"Time.sol\":913:1011  function contractBalance() public view returns(uint) {... */\n    tag_9:\n      callvalue\n      dup1\n      iszero\n      tag_44\n      jumpi\n      0x00\n      dup1\n      revert\n    tag_44:\n      pop\n      tag_45\n      tag_46\n      jump\t// in\n    tag_45:\n      mload(0x40)\n      tag_47\n      swap2\n      swap1\n      tag_20\n      jump\t// in\n    tag_47:\n      mload(0x40)\n      dup1\n      swap2\n      sub\n      swap1\n      return\n        /* \"Time.sol\":447:549  function getSecondsTime(uint time) view public returns(uint) {... */\n    tag_10:\n      callvalue\n      dup1\n      iszero\n      tag_48\n      jumpi\n      0x00\n      dup1\n      revert\n    tag_48:\n      pop\n      tag_49\n      0x04\n      dup1\n      calldatasize\n      sub\n      dup2\n      add\n      swap1\n      tag_50\n      swap2\n      swap1\n      tag_51\n      jump\t// in\n    tag_50:\n      tag_52\n      jump\t// in\n    tag_49:\n      mload(0x40)\n      tag_53\n      swap2\n      swap1\n      tag_20\n      jump\t// in\n    tag_53:\n      mload(0x40)\n      dup1\n      swap2\n      sub\n      swap1\n      return\n        /* \"Time.sol\":93:125  uint public threeHours = 3 hours */\n    tag_11:\n      callvalue\n      dup1\n      iszero\n      tag_54\n      jumpi\n      0x00\n      dup1\n      revert\n    tag_54:\n      pop\n      tag_55\n      tag_56\n      jump\t// in\n    tag_55:\n      mload(0x40)\n      tag_57\n      swap2\n      swap1\n      tag_20\n      jump\t// in\n    tag_57:\n      mload(0x40)\n      dup1\n      swap2\n      sub\n      swap1\n      return\n        /* \"Time.sol\":1017:1184  function donate() payable external {... */\n    tag_12:\n      tag_58\n      tag_59\n      jump\t// in\n    tag_58:\n      stop\n        /* \"Time.sol\":170:203  uint public oneSecond = 1 seconds */\n    tag_18:\n      sload(0x02)\n      dup2\n      jump\t// out\n        /* \"Time.sol\":357:441  function nowTime() view public returns(uint) {... */\n    tag_23:\n        /* \"Time.sol\":396:400  uint */\n      0x00\n        /* \"Time.sol\":419:434  block.timestamp */\n      timestamp\n        /* \"Time.sol\":412:434  return block.timestamp */\n      swap1\n      pop\n        /* \"Time.sol\":357:441  function nowTime() view public returns(uint) {... */\n      swap1\n      jump\t// out\n        /* \"Time.sol\":555:783  function daysPassedSinceLaunch() view public returns(bool) {... */\n    tag_27:\n        /* \"Time.sol\":608:612  bool */\n      0x00\n        /* \"Time.sol\":624:635  uint date_1 */\n      dup1\n        /* \"Time.sol\":638:648  1638352800 */\n      0x61a747a0\n        /* \"Time.sol\":624:648  uint date_1 = 1638352800 */\n      swap1\n      pop\n        /* \"Time.sol\":681:692  uint date_2 */\n      0x00\n        /* \"Time.sol\":713:719  1 days */\n      0x015180\n        /* \"Time.sol\":695:710  block.timestamp */\n      timestamp\n        /* \"Time.sol\":695:719  block.timestamp + 1 days */\n      tag_62\n      swap2\n      swap1\n      tag_63\n      jump\t// in\n    tag_62:\n        /* \"Time.sol\":681:719  uint date_2 = block.timestamp + 1 days */\n      swap1\n      pop\n        /* \"Time.sol\":769:775  date_2 */\n      dup1\n        /* \"Time.sol\":760:766  date_1 */\n      dup3\n        /* \"Time.sol\":760:775  date_1 > date_2 */\n      gt\n        /* \"Time.sol\":752:776  return (date_1 > date_2) */\n      swap3\n      pop\n      pop\n      pop\n        /* \"Time.sol\":555:783  function daysPassedSinceLaunch() view public returns(bool) {... */\n      swap1\n      jump\t// out\n        /* \"Time.sol\":131:164  uint public oneMinute = 1 minutes */\n    tag_32:\n      sload(0x01)\n      dup2\n      jump\t// out\n        /* \"Time.sol\":210:233  uint public deployedDay */\n    tag_36:\n      sload(0x03)\n      dup2\n      jump\t// out\n        /* \"Time.sol\":789:907  function myBalance(address userAddress) public view returns(uint) {... */\n    tag_42:\n        /* \"Time.sol\":849:853  uint */\n      0x00\n        /* \"Time.sol\":880:891  userAddress */\n      dup2\n        /* \"Time.sol\":872:900  address(userAddress).balance */\n      0xffffffffffffffffffffffffffffffffffffffff\n      and\n      balance\n        /* \"Time.sol\":865:900  return address(userAddress).balance */\n      swap1\n      pop\n        /* \"Time.sol\":789:907  function myBalance(address userAddress) public view returns(uint) {... */\n      swap2\n      swap1\n      pop\n      jump\t// out\n        /* \"Time.sol\":913:1011  function contractBalance() public view returns(uint) {... */\n    tag_46:\n        /* \"Time.sol\":960:964  uint */\n      0x00\n        /* \"Time.sol\":983:1004  address(this).balance */\n      selfbalance\n        /* \"Time.sol\":976:1004  return address(this).balance */\n      swap1\n      pop\n        /* \"Time.sol\":913:1011  function contractBalance() public view returns(uint) {... */\n      swap1\n      jump\t// out\n        /* \"Time.sol\":447:549  function getSecondsTime(uint time) view public returns(uint) {... */\n    tag_52:\n        /* \"Time.sol\":502:506  uint */\n      0x00\n        /* \"Time.sol\":532:542  threeHours */\n      dup1\n      sload\n        /* \"Time.sol\":525:529  time */\n      dup3\n        /* \"Time.sol\":525:542  time * threeHours */\n      tag_67\n      swap2\n      swap1\n      tag_68\n      jump\t// in\n    tag_67:\n        /* \"Time.sol\":518:542  return time * threeHours */\n      swap1\n      pop\n        /* \"Time.sol\":447:549  function getSecondsTime(uint time) view public returns(uint) {... */\n      swap2\n      swap1\n      pop\n      jump\t// out\n        /* \"Time.sol\":93:125  uint public threeHours = 3 hours */\n    tag_56:\n      sload(0x00)\n      dup2\n      jump\t// out\n        /* \"Time.sol\":1017:1184  function donate() payable external {... */\n    tag_59:\n        /* \"Time.sol\":1083:1090  1 ether */\n      0x0de0b6b3a7640000\n        /* \"Time.sol\":1070:1079  msg.value */\n      callvalue\n        /* \"Time.sol\":1070:1090  msg.value >= 1 ether */\n      lt\n      iszero\n        /* \"Time.sol\":1062:1133  require(msg.value >= 1 ether, \"We only accept donations up to 1 ether\") */\n      tag_70\n      jumpi\n      mload(0x40)\n      0x08c379a000000000000000000000000000000000000000000000000000000000\n      dup2\n      mstore\n      0x04\n      add\n      tag_71\n      swap1\n      tag_72\n      jump\t// in\n    tag_71:\n      mload(0x40)\n      dup1\n      swap2\n      sub\n      swap1\n      revert\n    tag_70:\n        /* \"Time.sol\":1168:1177  msg.value */\n      callvalue\n        /* \"Time.sol\":1143:1152  donations */\n      0x04\n        /* \"Time.sol\":1143:1164  donations[msg.sender] */\n      0x00\n        /* \"Time.sol\":1153:1163  msg.sender */\n      caller\n        /* \"Time.sol\":1143:1164  donations[msg.sender] */\n      0xffffffffffffffffffffffffffffffffffffffff\n      and\n      0xffffffffffffffffffffffffffffffffffffffff\n      and\n      dup2\n      mstore\n      0x20\n      add\n      swap1\n      dup2\n      mstore\n      0x20\n      add\n      0x00\n      keccak256\n      0x00\n        /* \"Time.sol\":1143:1177  donations[msg.sender] += msg.value */\n      dup3\n      dup3\n      sload\n      tag_73\n      swap2\n      swap1\n      tag_63\n      jump\t// in\n    tag_73:\n      swap3\n      pop\n      pop\n      dup2\n      swap1\n      sstore\n      pop\n        /* \"Time.sol\":1017:1184  function donate() payable external {... */\n      jump\t// out\n        /* \"#utility.yul\":7:146   */\n    tag_75:\n        /* \"#utility.yul\":53:58   */\n      0x00\n        /* \"#utility.yul\":91:97   */\n      dup2\n        /* \"#utility.yul\":78:98   */\n      calldataload\n        /* \"#utility.yul\":69:98   */\n      swap1\n      pop\n        /* \"#utility.yul\":107:140   */\n      tag_77\n        /* \"#utility.yul\":134:139   */\n      dup2\n        /* \"#utility.yul\":107:140   */\n      tag_78\n      jump\t// in\n    tag_77:\n        /* \"#utility.yul\":7:146   */\n      swap3\n      swap2\n      pop\n      pop\n      jump\t// out\n        /* \"#utility.yul\":152:291   */\n    tag_79:\n        /* \"#utility.yul\":198:203   */\n      0x00\n        /* \"#utility.yul\":236:242   */\n      dup2\n        /* \"#utility.yul\":223:243   */\n      calldataload\n        /* \"#utility.yul\":214:243   */\n      swap1\n      pop\n        /* \"#utility.yul\":252:285   */\n      tag_81\n        /* \"#utility.yul\":279:284   */\n      dup2\n        /* \"#utility.yul\":252:285   */\n      tag_82\n      jump\t// in\n    tag_81:\n        /* \"#utility.yul\":152:291   */\n      swap3\n      swap2\n      pop\n      pop\n      jump\t// out\n        /* \"#utility.yul\":297:626   */\n    tag_41:\n        /* \"#utility.yul\":356:362   */\n      0x00\n        /* \"#utility.yul\":405:407   */\n      0x20\n        /* \"#utility.yul\":393:402   */\n      dup3\n        /* \"#utility.yul\":384:391   */\n      dup5\n        /* \"#utility.yul\":380:403   */\n      sub\n        /* \"#utility.yul\":376:408   */\n      slt\n        /* \"#utility.yul\":373:492   */\n      iszero\n      tag_84\n      jumpi\n        /* \"#utility.yul\":411:490   */\n      tag_85\n      tag_86\n      jump\t// in\n    tag_85:\n        /* \"#utility.yul\":373:492   */\n    tag_84:\n        /* \"#utility.yul\":531:532   */\n      0x00\n        /* \"#utility.yul\":556:609   */\n      tag_87\n        /* \"#utility.yul\":601:608   */\n      dup5\n        /* \"#utility.yul\":592:598   */\n      dup3\n        /* \"#utility.yul\":581:590   */\n      dup6\n        /* \"#utility.yul\":577:599   */\n      add\n        /* \"#utility.yul\":556:609   */\n      tag_75\n      jump\t// in\n    tag_87:\n        /* \"#utility.yul\":546:609   */\n      swap2\n      pop\n        /* \"#utility.yul\":502:619   */\n      pop\n        /* \"#utility.yul\":297:626   */\n      swap3\n      swap2\n      pop\n      pop\n      jump\t// out\n        /* \"#utility.yul\":632:961   */\n    tag_51:\n        /* \"#utility.yul\":691:697   */\n      0x00\n        /* \"#utility.yul\":740:742   */\n      0x20\n        /* \"#utility.yul\":728:737   */\n      dup3\n        /* \"#utility.yul\":719:726   */\n      dup5\n        /* \"#utility.yul\":715:738   */\n      sub\n        /* \"#utility.yul\":711:743   */\n      slt\n        /* \"#utility.yul\":708:827   */\n      iszero\n      tag_89\n      jumpi\n        /* \"#utility.yul\":746:825   */\n      tag_90\n      tag_86\n      jump\t// in\n    tag_90:\n        /* \"#utility.yul\":708:827   */\n    tag_89:\n        /* \"#utility.yul\":866:867   */\n      0x00\n        /* \"#utility.yul\":891:944   */\n      tag_91\n        /* \"#utility.yul\":936:943   */\n      dup5\n        /* \"#utility.yul\":927:933   */\n      dup3\n        /* \"#utility.yul\":916:925   */\n      dup6\n        /* \"#utility.yul\":912:934   */\n      add\n        /* \"#utility.yul\":891:944   */\n      tag_79\n      jump\t// in\n    tag_91:\n        /* \"#utility.yul\":881:944   */\n      swap2\n      pop\n        /* \"#utility.yul\":837:954   */\n      pop\n        /* \"#utility.yul\":632:961   */\n      swap3\n      swap2\n      pop\n      pop\n      jump\t// out\n        /* \"#utility.yul\":967:1076   */\n    tag_92:\n        /* \"#utility.yul\":1048:1069   */\n      tag_94\n        /* \"#utility.yul\":1063:1068   */\n      dup2\n        /* \"#utility.yul\":1048:1069   */\n      tag_95\n      jump\t// in\n    tag_94:\n        /* \"#utility.yul\":1043:1046   */\n      dup3\n        /* \"#utility.yul\":1036:1070   */\n      mstore\n        /* \"#utility.yul\":967:1076   */\n      pop\n      pop\n      jump\t// out\n        /* \"#utility.yul\":1082:1448   */\n    tag_96:\n        /* \"#utility.yul\":1224:1227   */\n      0x00\n        /* \"#utility.yul\":1245:1312   */\n      tag_98\n        /* \"#utility.yul\":1309:1311   */\n      0x26\n        /* \"#utility.yul\":1304:1307   */\n      dup4\n        /* \"#utility.yul\":1245:1312   */\n      tag_99\n      jump\t// in\n    tag_98:\n        /* \"#utility.yul\":1238:1312   */\n      swap2\n      pop\n        /* \"#utility.yul\":1321:1414   */\n      tag_100\n        /* \"#utility.yul\":1410:1413   */\n      dup3\n        /* \"#utility.yul\":1321:1414   */\n      tag_101\n      jump\t// in\n    tag_100:\n        /* \"#utility.yul\":1439:1441   */\n      0x40\n        /* \"#utility.yul\":1434:1437   */\n      dup3\n        /* \"#utility.yul\":1430:1442   */\n      add\n        /* \"#utility.yul\":1423:1442   */\n      swap1\n      pop\n        /* \"#utility.yul\":1082:1448   */\n      swap2\n      swap1\n      pop\n      jump\t// out\n        /* \"#utility.yul\":1454:1572   */\n    tag_102:\n        /* \"#utility.yul\":1541:1565   */\n      tag_104\n        /* \"#utility.yul\":1559:1564   */\n      dup2\n        /* \"#utility.yul\":1541:1565   */\n      tag_105\n      jump\t// in\n    tag_104:\n        /* \"#utility.yul\":1536:1539   */\n      dup3\n        /* \"#utility.yul\":1529:1566   */\n      mstore\n        /* \"#utility.yul\":1454:1572   */\n      pop\n      pop\n      jump\t// out\n        /* \"#utility.yul\":1578:1788   */\n    tag_29:\n        /* \"#utility.yul\":1665:1669   */\n      0x00\n        /* \"#utility.yul\":1703:1705   */\n      0x20\n        /* \"#utility.yul\":1692:1701   */\n      dup3\n        /* \"#utility.yul\":1688:1706   */\n      add\n        /* \"#utility.yul\":1680:1706   */\n      swap1\n      pop\n        /* \"#utility.yul\":1716:1781   */\n      tag_107\n        /* \"#utility.yul\":1778:1779   */\n      0x00\n        /* \"#utility.yul\":1767:1776   */\n      dup4\n        /* \"#utility.yul\":1763:1780   */\n      add\n        /* \"#utility.yul\":1754:1760   */\n      dup5\n        /* \"#utility.yul\":1716:1781   */\n      tag_92\n      jump\t// in\n    tag_107:\n        /* \"#utility.yul\":1578:1788   */\n      swap3\n      swap2\n      pop\n      pop\n      jump\t// out\n        /* \"#utility.yul\":1794:2213   */\n    tag_72:\n        /* \"#utility.yul\":1960:1964   */\n      0x00\n        /* \"#utility.yul\":1998:2000   */\n      0x20\n        /* \"#utility.yul\":1987:1996   */\n      dup3\n        /* \"#utility.yul\":1983:2001   */\n      add\n        /* \"#utility.yul\":1975:2001   */\n      swap1\n      pop\n        /* \"#utility.yul\":2047:2056   */\n      dup2\n        /* \"#utility.yul\":2041:2045   */\n      dup2\n        /* \"#utility.yul\":2037:2057   */\n      sub\n        /* \"#utility.yul\":2033:2034   */\n      0x00\n        /* \"#utility.yul\":2022:2031   */\n      dup4\n        /* \"#utility.yul\":2018:2035   */\n      add\n        /* \"#utility.yul\":2011:2058   */\n      mstore\n        /* \"#utility.yul\":2075:2206   */\n      tag_109\n        /* \"#utility.yul\":2201:2205   */\n      dup2\n        /* \"#utility.yul\":2075:2206   */\n      tag_96\n      jump\t// in\n    tag_109:\n        /* \"#utility.yul\":2067:2206   */\n      swap1\n      pop\n        /* \"#utility.yul\":1794:2213   */\n      swap2\n      swap1\n      pop\n      jump\t// out\n        /* \"#utility.yul\":2219:2441   */\n    tag_20:\n        /* \"#utility.yul\":2312:2316   */\n      0x00\n        /* \"#utility.yul\":2350:2352   */\n      0x20\n        /* \"#utility.yul\":2339:2348   */\n      dup3\n        /* \"#utility.yul\":2335:2353   */\n      add\n        /* \"#utility.yul\":2327:2353   */\n      swap1\n      pop\n        /* \"#utility.yul\":2363:2434   */\n      tag_111\n        /* \"#utility.yul\":2431:2432   */\n      0x00\n        /* \"#utility.yul\":2420:2429   */\n      dup4\n        /* \"#utility.yul\":2416:2433   */\n      add\n        /* \"#utility.yul\":2407:2413   */\n      dup5\n        /* \"#utility.yul\":2363:2434   */\n      tag_102\n      jump\t// in\n    tag_111:\n        /* \"#utility.yul\":2219:2441   */\n      swap3\n      swap2\n      pop\n      pop\n      jump\t// out\n        /* \"#utility.yul\":2528:2697   */\n    tag_99:\n        /* \"#utility.yul\":2612:2623   */\n      0x00\n        /* \"#utility.yul\":2646:2652   */\n      dup3\n        /* \"#utility.yul\":2641:2644   */\n      dup3\n        /* \"#utility.yul\":2634:2653   */\n      mstore\n        /* \"#utility.yul\":2686:2690   */\n      0x20\n        /* \"#utility.yul\":2681:2684   */\n      dup3\n        /* \"#utility.yul\":2677:2691   */\n      add\n        /* \"#utility.yul\":2662:2691   */\n      swap1\n      pop\n        /* \"#utility.yul\":2528:2697   */\n      swap3\n      swap2\n      pop\n      pop\n      jump\t// out\n        /* \"#utility.yul\":2703:3008   */\n    tag_63:\n        /* \"#utility.yul\":2743:2746   */\n      0x00\n        /* \"#utility.yul\":2762:2782   */\n      tag_116\n        /* \"#utility.yul\":2780:2781   */\n      dup3\n        /* \"#utility.yul\":2762:2782   */\n      tag_105\n      jump\t// in\n    tag_116:\n        /* \"#utility.yul\":2757:2782   */\n      swap2\n      pop\n        /* \"#utility.yul\":2796:2816   */\n      tag_117\n        /* \"#utility.yul\":2814:2815   */\n      dup4\n        /* \"#utility.yul\":2796:2816   */\n      tag_105\n      jump\t// in\n    tag_117:\n        /* \"#utility.yul\":2791:2816   */\n      swap3\n      pop\n        /* \"#utility.yul\":2950:2951   */\n      dup3\n        /* \"#utility.yul\":2882:2948   */\n      0xffffffffffffffffffffffffffffffffffffffffffffffffffffffffffffffff\n        /* \"#utility.yul\":2878:2952   */\n      sub\n        /* \"#utility.yul\":2875:2876   */\n      dup3\n        /* \"#utility.yul\":2872:2953   */\n      gt\n        /* \"#utility.yul\":2869:2976   */\n      iszero\n      tag_118\n      jumpi\n        /* \"#utility.yul\":2956:2974   */\n      tag_119\n      tag_120\n      jump\t// in\n    tag_119:\n        /* \"#utility.yul\":2869:2976   */\n    tag_118:\n        /* \"#utility.yul\":3000:3001   */\n      dup3\n        /* \"#utility.yul\":2997:2998   */\n      dup3\n        /* \"#utility.yul\":2993:3002   */\n      add\n        /* \"#utility.yul\":2986:3002   */\n      swap1\n      pop\n        /* \"#utility.yul\":2703:3008   */\n      swap3\n      swap2\n      pop\n      pop\n      jump\t// out\n        /* \"#utility.yul\":3014:3362   */\n    tag_68:\n        /* \"#utility.yul\":3054:3061   */\n      0x00\n        /* \"#utility.yul\":3077:3097   */\n      tag_122\n        /* \"#utility.yul\":3095:3096   */\n      dup3\n        /* \"#utility.yul\":3077:3097   */\n      tag_105\n      jump\t// in\n    tag_122:\n        /* \"#utility.yul\":3072:3097   */\n      swap2\n      pop\n        /* \"#utility.yul\":3111:3131   */\n      tag_123\n        /* \"#utility.yul\":3129:3130   */\n      dup4\n        /* \"#utility.yul\":3111:3131   */\n      tag_105\n      jump\t// in\n    tag_123:\n        /* \"#utility.yul\":3106:3131   */\n      swap3\n      pop\n        /* \"#utility.yul\":3299:3300   */\n      dup2\n        /* \"#utility.yul\":3231:3297   */\n      0xffffffffffffffffffffffffffffffffffffffffffffffffffffffffffffffff\n        /* \"#utility.yul\":3227:3301   */\n      div\n        /* \"#utility.yul\":3224:3225   */\n      dup4\n        /* \"#utility.yul\":3221:3302   */\n      gt\n        /* \"#utility.yul\":3216:3217   */\n      dup3\n        /* \"#utility.yul\":3209:3218   */\n      iszero\n        /* \"#utility.yul\":3202:3219   */\n      iszero\n        /* \"#utility.yul\":3198:3303   */\n      and\n        /* \"#utility.yul\":3195:3326   */\n      iszero\n      tag_124\n      jumpi\n        /* \"#utility.yul\":3306:3324   */\n      tag_125\n      tag_120\n      jump\t// in\n    tag_125:\n        /* \"#utility.yul\":3195:3326   */\n    tag_124:\n        /* \"#utility.yul\":3354:3355   */\n      dup3\n        /* \"#utility.yul\":3351:3352   */\n      dup3\n        /* \"#utility.yul\":3347:3356   */\n      mul\n        /* \"#utility.yul\":3336:3356   */\n      swap1\n      pop\n        /* \"#utility.yul\":3014:3362   */\n      swap3\n      swap2\n      pop\n      pop\n      jump\t// out\n        /* \"#utility.yul\":3368:3464   */\n    tag_126:\n        /* \"#utility.yul\":3405:3412   */\n      0x00\n        /* \"#utility.yul\":3434:3458   */\n      tag_128\n        /* \"#utility.yul\":3452:3457   */\n      dup3\n        /* \"#utility.yul\":3434:3458   */\n      tag_129\n      jump\t// in\n    tag_128:\n        /* \"#utility.yul\":3423:3458   */\n      swap1\n      pop\n        /* \"#utility.yul\":3368:3464   */\n      swap2\n      swap1\n      pop\n      jump\t// out\n        /* \"#utility.yul\":3470:3560   */\n    tag_95:\n        /* \"#utility.yul\":3504:3511   */\n      0x00\n        /* \"#utility.yul\":3547:3552   */\n      dup2\n        /* \"#utility.yul\":3540:3553   */\n      iszero\n        /* \"#utility.yul\":3533:3554   */\n      iszero\n        /* \"#utility.yul\":3522:3554   */\n      swap1\n      pop\n        /* \"#utility.yul\":3470:3560   */\n      swap2\n      swap1\n      pop\n      jump\t// out\n        /* \"#utility.yul\":3566:3692   */\n    tag_129:\n        /* \"#utility.yul\":3603:3610   */\n      0x00\n        /* \"#utility.yul\":3643:3685   */\n      0xffffffffffffffffffffffffffffffffffffffff\n        /* \"#utility.yul\":3636:3641   */\n      dup3\n        /* \"#utility.yul\":3632:3686   */\n      and\n        /* \"#utility.yul\":3621:3686   */\n      swap1\n      pop\n        /* \"#utility.yul\":3566:3692   */\n      swap2\n      swap1\n      pop\n      jump\t// out\n        /* \"#utility.yul\":3698:3775   */\n    tag_105:\n        /* \"#utility.yul\":3735:3742   */\n      0x00\n        /* \"#utility.yul\":3764:3769   */\n      dup2\n        /* \"#utility.yul\":3753:3769   */\n      swap1\n      pop\n        /* \"#utility.yul\":3698:3775   */\n      swap2\n      swap1\n      pop\n      jump\t// out\n        /* \"#utility.yul\":3781:3961   */\n    tag_120:\n        /* \"#utility.yul\":3829:3906   */\n      0x4e487b7100000000000000000000000000000000000000000000000000000000\n        /* \"#utility.yul\":3826:3827   */\n      0x00\n        /* \"#utility.yul\":3819:3907   */\n      mstore\n        /* \"#utility.yul\":3926:3930   */\n      0x11\n        /* \"#utility.yul\":3923:3924   */\n      0x04\n        /* \"#utility.yul\":3916:3931   */\n      mstore\n        /* \"#utility.yul\":3950:3954   */\n      0x24\n        /* \"#utility.yul\":3947:3948   */\n      0x00\n        /* \"#utility.yul\":3940:3955   */\n      revert\n        /* \"#utility.yul\":4090:4207   */\n    tag_86:\n        /* \"#utility.yul\":4199:4200   */\n      0x00\n        /* \"#utility.yul\":4196:4197   */\n      dup1\n        /* \"#utility.yul\":4189:4201   */\n      revert\n        /* \"#utility.yul\":4213:4438   */\n    tag_101:\n        /* \"#utility.yul\":4353:4387   */\n      0x5765206f6e6c792061636365707420646f6e6174696f6e7320757020746f2031\n        /* \"#utility.yul\":4349:4350   */\n      0x00\n        /* \"#utility.yul\":4341:4347   */\n      dup3\n        /* \"#utility.yul\":4337:4351   */\n      add\n        /* \"#utility.yul\":4330:4388   */\n      mstore\n        /* \"#utility.yul\":4422:4430   */\n      0x2065746865720000000000000000000000000000000000000000000000000000\n        /* \"#utility.yul\":4417:4419   */\n      0x20\n        /* \"#utility.yul\":4409:4415   */\n      dup3\n        /* \"#utility.yul\":4405:4420   */\n      add\n        /* \"#utility.yul\":4398:4431   */\n      mstore\n        /* \"#utility.yul\":4213:4438   */\n      pop\n      jump\t// out\n        /* \"#utility.yul\":4444:4566   */\n    tag_78:\n        /* \"#utility.yul\":4517:4541   */\n      tag_139\n        /* \"#utility.yul\":4535:4540   */\n      dup2\n        /* \"#utility.yul\":4517:4541   */\n      tag_126\n      jump\t// in\n    tag_139:\n        /* \"#utility.yul\":4510:4515   */\n      dup2\n        /* \"#utility.yul\":4507:4542   */\n      eq\n        /* \"#utility.yul\":4497:4560   */\n      tag_140\n      jumpi\n        /* \"#utility.yul\":4556:4557   */\n      0x00\n        /* \"#utility.yul\":4553:4554   */\n      dup1\n        /* \"#utility.yul\":4546:4558   */\n      revert\n        /* \"#utility.yul\":4497:4560   */\n    tag_140:\n        /* \"#utility.yul\":4444:4566   */\n      pop\n      jump\t// out\n        /* \"#utility.yul\":4572:4694   */\n    tag_82:\n        /* \"#utility.yul\":4645:4669   */\n      tag_142\n        /* \"#utility.yul\":4663:4668   */\n      dup2\n        /* \"#utility.yul\":4645:4669   */\n      tag_105\n      jump\t// in\n    tag_142:\n        /* \"#utility.yul\":4638:4643   */\n      dup2\n        /* \"#utility.yul\":4635:4670   */\n      eq\n        /* \"#utility.yul\":4625:4688   */\n      tag_143\n      jumpi\n        /* \"#utility.yul\":4684:4685   */\n      0x00\n        /* \"#utility.yul\":4681:4682   */\n      dup1\n        /* \"#utility.yul\":4674:4686   */\n      revert\n        /* \"#utility.yul\":4625:4688   */\n    tag_143:\n        /* \"#utility.yul\":4572:4694   */\n      pop\n      jump\t// out\n\n    auxdata: 0xa26469706673582212201fadf82be4b6eef0a975c1385e683cbe363641e1dc49c843e5448fc8009c741564736f6c63430008070033\n}\n",
				"bytecode": {
					"linkReferences": {},
					"object": "6080604052612a30600055603c6001556001600255426003819055506106868061002a6000396000f3fe6080604052600436106100955760003560e01c8063817a5e1411610059578063817a5e14146101785780638b7afe2e146101b55780639e2b5a2f146101e0578063cc44b07d1461021d578063ed88c68e146102485761009c565b806321ed4b27146100a1578063335f1b37146100cc5780633f16ae34146100f7578063469df50514610122578063525f6e1d1461014d5761009c565b3661009c57005b600080fd5b3480156100ad57600080fd5b506100b6610252565b6040516100c3919061047b565b60405180910390f35b3480156100d857600080fd5b506100e1610258565b6040516100ee919061047b565b60405180910390f35b34801561010357600080fd5b5061010c610260565b6040516101199190610440565b60405180910390f35b34801561012e57600080fd5b50610137610287565b604051610144919061047b565b60405180910390f35b34801561015957600080fd5b5061016261028d565b60405161016f919061047b565b60405180910390f35b34801561018457600080fd5b5061019f600480360381019061019a91906103a5565b610293565b6040516101ac919061047b565b60405180910390f35b3480156101c157600080fd5b506101ca6102b4565b6040516101d7919061047b565b60405180910390f35b3480156101ec57600080fd5b50610207600480360381019061020291906103d2565b6102bc565b604051610214919061047b565b60405180910390f35b34801561022957600080fd5b506102326102d2565b60405161023f919061047b565b60405180910390f35b6102506102d8565b005b60025481565b600042905090565b6000806361a747a090506000620151804261027b91906104a7565b90508082119250505090565b60015481565b60035481565b60008173ffffffffffffffffffffffffffffffffffffffff16319050919050565b600047905090565b60008054826102cb91906104fd565b9050919050565b60005481565b670de0b6b3a7640000341015610323576040517f08c379a000000000000000000000000000000000000000000000000000000000815260040161031a9061045b565b60405180910390fd5b34600460003373ffffffffffffffffffffffffffffffffffffffff1673ffffffffffffffffffffffffffffffffffffffff168152602001908152602001600020600082825461037291906104a7565b92505081905550565b60008135905061038a81610622565b92915050565b60008135905061039f81610639565b92915050565b6000602082840312156103bb576103ba6105ce565b5b60006103c98482850161037b565b91505092915050565b6000602082840312156103e8576103e76105ce565b5b60006103f684828501610390565b91505092915050565b61040881610569565b82525050565b600061041b602683610496565b9150610426826105d3565b604082019050919050565b61043a81610595565b82525050565b600060208201905061045560008301846103ff565b92915050565b600060208201905081810360008301526104748161040e565b9050919050565b60006020820190506104906000830184610431565b92915050565b600082825260208201905092915050565b60006104b282610595565b91506104bd83610595565b9250827fffffffffffffffffffffffffffffffffffffffffffffffffffffffffffffffff038211156104f2576104f161059f565b5b828201905092915050565b600061050882610595565b915061051383610595565b9250817fffffffffffffffffffffffffffffffffffffffffffffffffffffffffffffffff048311821515161561054c5761054b61059f565b5b828202905092915050565b600061056282610575565b9050919050565b60008115159050919050565b600073ffffffffffffffffffffffffffffffffffffffff82169050919050565b6000819050919050565b7f4e487b7100000000000000000000000000000000000000000000000000000000600052601160045260246000fd5b600080fd5b7f5765206f6e6c792061636365707420646f6e6174696f6e7320757020746f203160008201527f2065746865720000000000000000000000000000000000000000000000000000602082015250565b61062b81610557565b811461063657600080fd5b50565b61064281610595565b811461064d57600080fd5b5056fea26469706673582212201fadf82be4b6eef0a975c1385e683cbe363641e1dc49c843e5448fc8009c741564736f6c63430008070033",
					"opcodes": "PUSH1 0x80 PUSH1 0x40 MSTORE PUSH2 0x2A30 PUSH1 0x0 SSTORE PUSH1 0x3C PUSH1 0x1 SSTORE PUSH1 0x1 PUSH1 0x2 SSTORE TIMESTAMP PUSH1 0x3 DUP2 SWAP1 SSTORE POP PUSH2 0x686 DUP1 PUSH2 0x2A PUSH1 0x0 CODECOPY PUSH1 0x0 RETURN INVALID PUSH1 0x80 PUSH1 0x40 MSTORE PUSH1 0x4 CALLDATASIZE LT PUSH2 0x95 JUMPI PUSH1 0x0 CALLDATALOAD PUSH1 0xE0 SHR DUP1 PUSH4 0x817A5E14 GT PUSH2 0x59 JUMPI DUP1 PUSH4 0x817A5E14 EQ PUSH2 0x178 JUMPI DUP1 PUSH4 0x8B7AFE2E EQ PUSH2 0x1B5 JUMPI DUP1 PUSH4 0x9E2B5A2F EQ PUSH2 0x1E0 JUMPI DUP1 PUSH4 0xCC44B07D EQ PUSH2 0x21D JUMPI DUP1 PUSH4 0xED88C68E EQ PUSH2 0x248 JUMPI PUSH2 0x9C JUMP JUMPDEST DUP1 PUSH4 0x21ED4B27 EQ PUSH2 0xA1 JUMPI DUP1 PUSH4 0x335F1B37 EQ PUSH2 0xCC JUMPI DUP1 PUSH4 0x3F16AE34 EQ PUSH2 0xF7 JUMPI DUP1 PUSH4 0x469DF505 EQ PUSH2 0x122 JUMPI DUP1 PUSH4 0x525F6E1D EQ PUSH2 0x14D JUMPI PUSH2 0x9C JUMP JUMPDEST CALLDATASIZE PUSH2 0x9C JUMPI STOP JUMPDEST PUSH1 0x0 DUP1 REVERT JUMPDEST CALLVALUE DUP1 ISZERO PUSH2 0xAD JUMPI PUSH1 0x0 DUP1 REVERT JUMPDEST POP PUSH2 0xB6 PUSH2 0x252 JUMP JUMPDEST PUSH1 0x40 MLOAD PUSH2 0xC3 SWAP2 SWAP1 PUSH2 0x47B JUMP JUMPDEST PUSH1 0x40 MLOAD DUP1 SWAP2 SUB SWAP1 RETURN JUMPDEST CALLVALUE DUP1 ISZERO PUSH2 0xD8 JUMPI PUSH1 0x0 DUP1 REVERT JUMPDEST POP PUSH2 0xE1 PUSH2 0x258 JUMP JUMPDEST PUSH1 0x40 MLOAD PUSH2 0xEE SWAP2 SWAP1 PUSH2 0x47B JUMP JUMPDEST PUSH1 0x40 MLOAD DUP1 SWAP2 SUB SWAP1 RETURN JUMPDEST CALLVALUE DUP1 ISZERO PUSH2 0x103 JUMPI PUSH1 0x0 DUP1 REVERT JUMPDEST POP PUSH2 0x10C PUSH2 0x260 JUMP JUMPDEST PUSH1 0x40 MLOAD PUSH2 0x119 SWAP2 SWAP1 PUSH2 0x440 JUMP JUMPDEST PUSH1 0x40 MLOAD DUP1 SWAP2 SUB SWAP1 RETURN JUMPDEST CALLVALUE DUP1 ISZERO PUSH2 0x12E JUMPI PUSH1 0x0 DUP1 REVERT JUMPDEST POP PUSH2 0x137 PUSH2 0x287 JUMP JUMPDEST PUSH1 0x40 MLOAD PUSH2 0x144 SWAP2 SWAP1 PUSH2 0x47B JUMP JUMPDEST PUSH1 0x40 MLOAD DUP1 SWAP2 SUB SWAP1 RETURN JUMPDEST CALLVALUE DUP1 ISZERO PUSH2 0x159 JUMPI PUSH1 0x0 DUP1 REVERT JUMPDEST POP PUSH2 0x162 PUSH2 0x28D JUMP JUMPDEST PUSH1 0x40 MLOAD PUSH2 0x16F SWAP2 SWAP1 PUSH2 0x47B JUMP JUMPDEST PUSH1 0x40 MLOAD DUP1 SWAP2 SUB SWAP1 RETURN JUMPDEST CALLVALUE DUP1 ISZERO PUSH2 0x184 JUMPI PUSH1 0x0 DUP1 REVERT JUMPDEST POP PUSH2 0x19F PUSH1 0x4 DUP1 CALLDATASIZE SUB DUP2 ADD SWAP1 PUSH2 0x19A SWAP2 SWAP1 PUSH2 0x3A5 JUMP JUMPDEST PUSH2 0x293 JUMP JUMPDEST PUSH1 0x40 MLOAD PUSH2 0x1AC SWAP2 SWAP1 PUSH2 0x47B JUMP JUMPDEST PUSH1 0x40 MLOAD DUP1 SWAP2 SUB SWAP1 RETURN JUMPDEST CALLVALUE DUP1 ISZERO PUSH2 0x1C1 JUMPI PUSH1 0x0 DUP1 REVERT JUMPDEST POP PUSH2 0x1CA PUSH2 0x2B4 JUMP JUMPDEST PUSH1 0x40 MLOAD PUSH2 0x1D7 SWAP2 SWAP1 PUSH2 0x47B JUMP JUMPDEST PUSH1 0x40 MLOAD DUP1 SWAP2 SUB SWAP1 RETURN JUMPDEST CALLVALUE DUP1 ISZERO PUSH2 0x1EC JUMPI PUSH1 0x0 DUP1 REVERT JUMPDEST POP PUSH2 0x207 PUSH1 0x4 DUP1 CALLDATASIZE SUB DUP2 ADD SWAP1 PUSH2 0x202 SWAP2 SWAP1 PUSH2 0x3D2 JUMP JUMPDEST PUSH2 0x2BC JUMP JUMPDEST PUSH1 0x40 MLOAD PUSH2 0x214 SWAP2 SWAP1 PUSH2 0x47B JUMP JUMPDEST PUSH1 0x40 MLOAD DUP1 SWAP2 SUB SWAP1 RETURN JUMPDEST CALLVALUE DUP1 ISZERO PUSH2 0x229 JUMPI PUSH1 0x0 DUP1 REVERT JUMPDEST POP PUSH2 0x232 PUSH2 0x2D2 JUMP JUMPDEST PUSH1 0x40 MLOAD PUSH2 0x23F SWAP2 SWAP1 PUSH2 0x47B JUMP JUMPDEST PUSH1 0x40 MLOAD DUP1 SWAP2 SUB SWAP1 RETURN JUMPDEST PUSH2 0x250 PUSH2 0x2D8 JUMP JUMPDEST STOP JUMPDEST PUSH1 0x2 SLOAD DUP2 JUMP JUMPDEST PUSH1 0x0 TIMESTAMP SWAP1 POP SWAP1 JUMP JUMPDEST PUSH1 0x0 DUP1 PUSH4 0x61A747A0 SWAP1 POP PUSH1 0x0 PUSH3 0x15180 TIMESTAMP PUSH2 0x27B SWAP2 SWAP1 PUSH2 0x4A7 JUMP JUMPDEST SWAP1 POP DUP1 DUP3 GT SWAP3 POP POP POP SWAP1 JUMP JUMPDEST PUSH1 0x1 SLOAD DUP2 JUMP JUMPDEST PUSH1 0x3 SLOAD DUP2 JUMP JUMPDEST PUSH1 0x0 DUP2 PUSH20 0xFFFFFFFFFFFFFFFFFFFFFFFFFFFFFFFFFFFFFFFF AND BALANCE SWAP1 POP SWAP2 SWAP1 POP JUMP JUMPDEST PUSH1 0x0 SELFBALANCE SWAP1 POP SWAP1 JUMP JUMPDEST PUSH1 0x0 DUP1 SLOAD DUP3 PUSH2 0x2CB SWAP2 SWAP1 PUSH2 0x4FD JUMP JUMPDEST SWAP1 POP SWAP2 SWAP1 POP JUMP JUMPDEST PUSH1 0x0 SLOAD DUP2 JUMP JUMPDEST PUSH8 0xDE0B6B3A7640000 CALLVALUE LT ISZERO PUSH2 0x323 JUMPI PUSH1 0x40 MLOAD PUSH32 0x8C379A000000000000000000000000000000000000000000000000000000000 DUP2 MSTORE PUSH1 0x4 ADD PUSH2 0x31A SWAP1 PUSH2 0x45B JUMP JUMPDEST PUSH1 0x40 MLOAD DUP1 SWAP2 SUB SWAP1 REVERT JUMPDEST CALLVALUE PUSH1 0x4 PUSH1 0x0 CALLER PUSH20 0xFFFFFFFFFFFFFFFFFFFFFFFFFFFFFFFFFFFFFFFF AND PUSH20 0xFFFFFFFFFFFFFFFFFFFFFFFFFFFFFFFFFFFFFFFF AND DUP2 MSTORE PUSH1 0x20 ADD SWAP1 DUP2 MSTORE PUSH1 0x20 ADD PUSH1 0x0 KECCAK256 PUSH1 0x0 DUP3 DUP3 SLOAD PUSH2 0x372 SWAP2 SWAP1 PUSH2 0x4A7 JUMP JUMPDEST SWAP3 POP POP DUP2 SWAP1 SSTORE POP JUMP JUMPDEST PUSH1 0x0 DUP2 CALLDATALOAD SWAP1 POP PUSH2 0x38A DUP2 PUSH2 0x622 JUMP JUMPDEST SWAP3 SWAP2 POP POP JUMP JUMPDEST PUSH1 0x0 DUP2 CALLDATALOAD SWAP1 POP PUSH2 0x39F DUP2 PUSH2 0x639 JUMP JUMPDEST SWAP3 SWAP2 POP POP JUMP JUMPDEST PUSH1 0x0 PUSH1 0x20 DUP3 DUP5 SUB SLT ISZERO PUSH2 0x3BB JUMPI PUSH2 0x3BA PUSH2 0x5CE JUMP JUMPDEST JUMPDEST PUSH1 0x0 PUSH2 0x3C9 DUP5 DUP3 DUP6 ADD PUSH2 0x37B JUMP JUMPDEST SWAP2 POP POP SWAP3 SWAP2 POP POP JUMP JUMPDEST PUSH1 0x0 PUSH1 0x20 DUP3 DUP5 SUB SLT ISZERO PUSH2 0x3E8 JUMPI PUSH2 0x3E7 PUSH2 0x5CE JUMP JUMPDEST JUMPDEST PUSH1 0x0 PUSH2 0x3F6 DUP5 DUP3 DUP6 ADD PUSH2 0x390 JUMP JUMPDEST SWAP2 POP POP SWAP3 SWAP2 POP POP JUMP JUMPDEST PUSH2 0x408 DUP2 PUSH2 0x569 JUMP JUMPDEST DUP3 MSTORE POP POP JUMP JUMPDEST PUSH1 0x0 PUSH2 0x41B PUSH1 0x26 DUP4 PUSH2 0x496 JUMP JUMPDEST SWAP2 POP PUSH2 0x426 DUP3 PUSH2 0x5D3 JUMP JUMPDEST PUSH1 0x40 DUP3 ADD SWAP1 POP SWAP2 SWAP1 POP JUMP JUMPDEST PUSH2 0x43A DUP2 PUSH2 0x595 JUMP JUMPDEST DUP3 MSTORE POP POP JUMP JUMPDEST PUSH1 0x0 PUSH1 0x20 DUP3 ADD SWAP1 POP PUSH2 0x455 PUSH1 0x0 DUP4 ADD DUP5 PUSH2 0x3FF JUMP JUMPDEST SWAP3 SWAP2 POP POP JUMP JUMPDEST PUSH1 0x0 PUSH1 0x20 DUP3 ADD SWAP1 POP DUP2 DUP2 SUB PUSH1 0x0 DUP4 ADD MSTORE PUSH2 0x474 DUP2 PUSH2 0x40E JUMP JUMPDEST SWAP1 POP SWAP2 SWAP1 POP JUMP JUMPDEST PUSH1 0x0 PUSH1 0x20 DUP3 ADD SWAP1 POP PUSH2 0x490 PUSH1 0x0 DUP4 ADD DUP5 PUSH2 0x431 JUMP JUMPDEST SWAP3 SWAP2 POP POP JUMP JUMPDEST PUSH1 0x0 DUP3 DUP3 MSTORE PUSH1 0x20 DUP3 ADD SWAP1 POP SWAP3 SWAP2 POP POP JUMP JUMPDEST PUSH1 0x0 PUSH2 0x4B2 DUP3 PUSH2 0x595 JUMP JUMPDEST SWAP2 POP PUSH2 0x4BD DUP4 PUSH2 0x595 JUMP JUMPDEST SWAP3 POP DUP3 PUSH32 0xFFFFFFFFFFFFFFFFFFFFFFFFFFFFFFFFFFFFFFFFFFFFFFFFFFFFFFFFFFFFFFFF SUB DUP3 GT ISZERO PUSH2 0x4F2 JUMPI PUSH2 0x4F1 PUSH2 0x59F JUMP JUMPDEST JUMPDEST DUP3 DUP3 ADD SWAP1 POP SWAP3 SWAP2 POP POP JUMP JUMPDEST PUSH1 0x0 PUSH2 0x508 DUP3 PUSH2 0x595 JUMP JUMPDEST SWAP2 POP PUSH2 0x513 DUP4 PUSH2 0x595 JUMP JUMPDEST SWAP3 POP DUP2 PUSH32 0xFFFFFFFFFFFFFFFFFFFFFFFFFFFFFFFFFFFFFFFFFFFFFFFFFFFFFFFFFFFFFFFF DIV DUP4 GT DUP3 ISZERO ISZERO AND ISZERO PUSH2 0x54C JUMPI PUSH2 0x54B PUSH2 0x59F JUMP JUMPDEST JUMPDEST DUP3 DUP3 MUL SWAP1 POP SWAP3 SWAP2 POP POP JUMP JUMPDEST PUSH1 0x0 PUSH2 0x562 DUP3 PUSH2 0x575 JUMP JUMPDEST SWAP1 POP SWAP2 SWAP1 POP JUMP JUMPDEST PUSH1 0x0 DUP2 ISZERO ISZERO SWAP1 POP SWAP2 SWAP1 POP JUMP JUMPDEST PUSH1 0x0 PUSH20 0xFFFFFFFFFFFFFFFFFFFFFFFFFFFFFFFFFFFFFFFF DUP3 AND SWAP1 POP SWAP2 SWAP1 POP JUMP JUMPDEST PUSH1 0x0 DUP2 SWAP1 POP SWAP2 SWAP1 POP JUMP JUMPDEST PUSH32 0x4E487B7100000000000000000000000000000000000000000000000000000000 PUSH1 0x0 MSTORE PUSH1 0x11 PUSH1 0x4 MSTORE PUSH1 0x24 PUSH1 0x0 REVERT JUMPDEST PUSH1 0x0 DUP1 REVERT JUMPDEST PUSH32 0x5765206F6E6C792061636365707420646F6E6174696F6E7320757020746F2031 PUSH1 0x0 DUP3 ADD MSTORE PUSH32 0x2065746865720000000000000000000000000000000000000000000000000000 PUSH1 0x20 DUP3 ADD MSTORE POP JUMP JUMPDEST PUSH2 0x62B DUP2 PUSH2 0x557 JUMP JUMPDEST DUP2 EQ PUSH2 0x636 JUMPI PUSH1 0x0 DUP1 REVERT JUMPDEST POP JUMP JUMPDEST PUSH2 0x642 DUP2 PUSH2 0x595 JUMP JUMPDEST DUP2 EQ PUSH2 0x64D JUMPI PUSH1 0x0 DUP1 REVERT JUMPDEST POP JUMP INVALID LOG2 PUSH5 0x6970667358 0x22 SLT KECCAK256 0x1F 0xAD 0xF8 0x2B 0xE4 0xB6 0xEE CREATE 0xA9 PUSH22 0xC1385E683CBE363641E1DC49C843E5448FC8009C7415 PUSH5 0x736F6C6343 STOP ADDMOD SMOD STOP CALLER "
				},
				"gasEstimates": {
					"creation": {
						"codeDepositCost": "334000",
						"executionCost": "88781",
						"totalCost": "422781"
					},
					"external": {
						"contractBalance()": "361",
						"daysPassedSinceLaunch()": "infinite",
						"deployedDay()": "2518",
						"donate()": "infinite",
						"getSecondsTime(uint256)": "infinite",
						"myBalance(address)": "3257",
						"nowTime()": "359",
						"oneMinute()": "2496",
						"oneSecond()": "2430",
						"threeHours()": "2495"
					}
				},
				"methodIdentifiers": {
					"contractBalance()": "8b7afe2e",
					"daysPassedSinceLaunch()": "3f16ae34",
					"deployedDay()": "525f6e1d",
					"donate()": "ed88c68e",
					"getSecondsTime(uint256)": "9e2b5a2f",
					"myBalance(address)": "817a5e14",
					"nowTime()": "335f1b37",
					"oneMinute()": "469df505",
					"oneSecond()": "21ed4b27",
					"threeHours()": "cc44b07d"
				}
			},
			"storageLayout": {
				"storage": [
					{
						"astId": 4,
						"contract": "Time.sol:Time",
						"label": "threeHours",
						"offset": 0,
						"slot": "0",
						"type": "t_uint256"
					},
					{
						"astId": 7,
						"contract": "Time.sol:Time",
						"label": "oneMinute",
						"offset": 0,
						"slot": "1",
						"type": "t_uint256"
					},
					{
						"astId": 10,
						"contract": "Time.sol:Time",
						"label": "oneSecond",
						"offset": 0,
						"slot": "2",
						"type": "t_uint256"
					},
					{
						"astId": 12,
						"contract": "Time.sol:Time",
						"label": "deployedDay",
						"offset": 0,
						"slot": "3",
						"type": "t_uint256"
					},
					{
						"astId": 16,
						"contract": "Time.sol:Time",
						"label": "donations",
						"offset": 0,
						"slot": "4",
						"type": "t_mapping(t_address,t_uint256)"
					}
				],
				"types": {
					"t_address": {
						"encoding": "inplace",
						"label": "address",
						"numberOfBytes": "20"
					},
					"t_mapping(t_address,t_uint256)": {
						"encoding": "mapping",
						"key": "t_address",
						"label": "mapping(address => uint256)",
						"numberOfBytes": "32",
						"value": "t_uint256"
					},
					"t_uint256": {
						"encoding": "inplace",
						"label": "uint256",
						"numberOfBytes": "32"
					}
				}
			},
			"userdoc": {
				"kind": "user",
				"methods": {},
				"version": 1
			}
		}
	}
}