{
	"Donation.sol": {
		"Donation": {
			"abi": [
				{
					"inputs": [
						{
							"internalType": "string",
							"name": "name",
							"type": "string"
						},
						{
							"internalType": "uint256",
							"name": "minAmount",
							"type": "uint256"
						},
						{
							"internalType": "bool",
							"name": "accept",
							"type": "bool"
						},
						{
							"internalType": "uint256",
							"name": "amountNeeded",
							"type": "uint256"
						}
					],
					"stateMutability": "nonpayable",
					"type": "constructor"
				},
				{
					"inputs": [],
					"name": "donate",
					"outputs": [],
					"stateMutability": "payable",
					"type": "function"
				}
			],
			"devdoc": {
				"kind": "dev",
				"methods": {},
				"version": 1
			},
			"evm": {
				"assembly": "    /* \"Donation.sol\":72:561  contract Donation {... */\n  mstore(0x40, 0x80)\n    /* \"Donation.sol\":201:427  constructor(string memory name, uint minAmount, bool accept, uint amountNeeded) {... */\n  callvalue\n  dup1\n  iszero\n  tag_1\n  jumpi\n  0x00\n  dup1\n  revert\ntag_1:\n  pop\n  mload(0x40)\n  sub(codesize, bytecodeSize)\n  dup1\n  bytecodeSize\n  dup4\n  codecopy\n  dup2\n  dup2\n  add\n  0x40\n  mstore\n  dup2\n  add\n  swap1\n  tag_2\n  swap2\n  swap1\n  tag_3\n  jump\t// in\ntag_2:\n    /* \"Donation.sol\":299:303  name */\n  dup4\n    /* \"Donation.sol\":291:296  _name */\n  0x00\n    /* \"Donation.sol\":291:303  _name = name */\n  swap1\n  dup1\n  mload\n  swap1\n  0x20\n  add\n  swap1\n  tag_6\n  swap3\n  swap2\n  swap1\n  tag_7\n  jump\t// in\ntag_6:\n  pop\n    /* \"Donation.sol\":326:335  minAmount */\n  dup3\n    /* \"Donation.sol\":313:323  _minAmount */\n  0x01\n    /* \"Donation.sol\":313:335  _minAmount = minAmount */\n  dup2\n  swap1\n  sstore\n  pop\n    /* \"Donation.sol\":376:382  accept */\n  dup2\n    /* \"Donation.sol\":345:373  _acceptPaymentAfterAmountMet */\n  0x03\n  0x00\n    /* \"Donation.sol\":345:382  _acceptPaymentAfterAmountMet = accept */\n  0x0100\n  exp\n  dup2\n  sload\n  dup2\n  0xff\n  mul\n  not\n  and\n  swap1\n  dup4\n  iszero\n  iszero\n  mul\n  or\n  swap1\n  sstore\n  pop\n    /* \"Donation.sol\":408:420  amountNeeded */\n  dup1\n    /* \"Donation.sol\":392:405  _amountNeeded */\n  0x02\n    /* \"Donation.sol\":392:420  _amountNeeded = amountNeeded */\n  dup2\n  swap1\n  sstore\n  pop\n    /* \"Donation.sol\":201:427  constructor(string memory name, uint minAmount, bool accept, uint amountNeeded) {... */\n  pop\n  pop\n  pop\n  pop\n    /* \"Donation.sol\":72:561  contract Donation {... */\n  jump(tag_8)\ntag_7:\n  dup3\n  dup1\n  sload\n  tag_9\n  swap1\n  tag_10\n  jump\t// in\ntag_9:\n  swap1\n  0x00\n  mstore\n  keccak256(0x00, 0x20)\n  swap1\n  0x1f\n  add\n  0x20\n  swap1\n  div\n  dup2\n  add\n  swap3\n  dup3\n  tag_12\n  jumpi\n  0x00\n  dup6\n  sstore\n  jump(tag_11)\ntag_12:\n  dup3\n  0x1f\n  lt\n  tag_13\n  jumpi\n  dup1\n  mload\n  not(0xff)\n  and\n  dup4\n  dup1\n  add\n  or\n  dup6\n  sstore\n  jump(tag_11)\ntag_13:\n  dup3\n  dup1\n  add\n  0x01\n  add\n  dup6\n  sstore\n  dup3\n  iszero\n  tag_11\n  jumpi\n  swap2\n  dup3\n  add\ntag_14:\n  dup3\n  dup2\n  gt\n  iszero\n  tag_15\n  jumpi\n  dup3\n  mload\n  dup3\n  sstore\n  swap2\n  0x20\n  add\n  swap2\n  swap1\n  0x01\n  add\n  swap1\n  jump(tag_14)\ntag_15:\ntag_11:\n  pop\n  swap1\n  pop\n  tag_16\n  swap2\n  swap1\n  tag_17\n  jump\t// in\ntag_16:\n  pop\n  swap1\n  jump\t// out\ntag_17:\ntag_18:\n  dup1\n  dup3\n  gt\n  iszero\n  tag_19\n  jumpi\n  0x00\n  dup2\n  0x00\n  swap1\n  sstore\n  pop\n  0x01\n  add\n  jump(tag_18)\ntag_19:\n  pop\n  swap1\n  jump\t// out\n    /* \"#utility.yul\":7:428   */\ntag_21:\n    /* \"#utility.yul\":96:101   */\n  0x00\n    /* \"#utility.yul\":121:187   */\n  tag_23\n    /* \"#utility.yul\":137:186   */\n  tag_24\n    /* \"#utility.yul\":179:185   */\n  dup5\n    /* \"#utility.yul\":137:186   */\n  tag_25\n  jump\t// in\ntag_24:\n    /* \"#utility.yul\":121:187   */\n  tag_26\n  jump\t// in\ntag_23:\n    /* \"#utility.yul\":112:187   */\n  swap1\n  pop\n    /* \"#utility.yul\":210:216   */\n  dup3\n    /* \"#utility.yul\":203:208   */\n  dup2\n    /* \"#utility.yul\":196:217   */\n  mstore\n    /* \"#utility.yul\":248:252   */\n  0x20\n    /* \"#utility.yul\":241:246   */\n  dup2\n    /* \"#utility.yul\":237:253   */\n  add\n    /* \"#utility.yul\":286:289   */\n  dup5\n    /* \"#utility.yul\":277:283   */\n  dup5\n    /* \"#utility.yul\":272:275   */\n  dup5\n    /* \"#utility.yul\":268:284   */\n  add\n    /* \"#utility.yul\":265:290   */\n  gt\n    /* \"#utility.yul\":262:374   */\n  iszero\n  tag_27\n  jumpi\n    /* \"#utility.yul\":293:372   */\n  tag_28\n  tag_29\n  jump\t// in\ntag_28:\n    /* \"#utility.yul\":262:374   */\ntag_27:\n    /* \"#utility.yul\":383:422   */\n  tag_30\n    /* \"#utility.yul\":415:421   */\n  dup5\n    /* \"#utility.yul\":410:413   */\n  dup3\n    /* \"#utility.yul\":405:408   */\n  dup6\n    /* \"#utility.yul\":383:422   */\n  tag_31\n  jump\t// in\ntag_30:\n    /* \"#utility.yul\":102:428   */\n  pop\n    /* \"#utility.yul\":7:428   */\n  swap4\n  swap3\n  pop\n  pop\n  pop\n  jump\t// out\n    /* \"#utility.yul\":434:571   */\ntag_32:\n    /* \"#utility.yul\":488:493   */\n  0x00\n    /* \"#utility.yul\":519:525   */\n  dup2\n    /* \"#utility.yul\":513:526   */\n  mload\n    /* \"#utility.yul\":504:526   */\n  swap1\n  pop\n    /* \"#utility.yul\":535:565   */\n  tag_34\n    /* \"#utility.yul\":559:564   */\n  dup2\n    /* \"#utility.yul\":535:565   */\n  tag_35\n  jump\t// in\ntag_34:\n    /* \"#utility.yul\":434:571   */\n  swap3\n  swap2\n  pop\n  pop\n  jump\t// out\n    /* \"#utility.yul\":591:946   */\ntag_36:\n    /* \"#utility.yul\":658:663   */\n  0x00\n    /* \"#utility.yul\":707:710   */\n  dup3\n    /* \"#utility.yul\":700:704   */\n  0x1f\n    /* \"#utility.yul\":692:698   */\n  dup4\n    /* \"#utility.yul\":688:705   */\n  add\n    /* \"#utility.yul\":684:711   */\n  slt\n    /* \"#utility.yul\":674:796   */\n  tag_38\n  jumpi\n    /* \"#utility.yul\":715:794   */\n  tag_39\n  tag_40\n  jump\t// in\ntag_39:\n    /* \"#utility.yul\":674:796   */\ntag_38:\n    /* \"#utility.yul\":825:831   */\n  dup2\n    /* \"#utility.yul\":819:832   */\n  mload\n    /* \"#utility.yul\":850:940   */\n  tag_41\n    /* \"#utility.yul\":936:939   */\n  dup5\n    /* \"#utility.yul\":928:934   */\n  dup3\n    /* \"#utility.yul\":921:925   */\n  0x20\n    /* \"#utility.yul\":913:919   */\n  dup7\n    /* \"#utility.yul\":909:926   */\n  add\n    /* \"#utility.yul\":850:940   */\n  tag_21\n  jump\t// in\ntag_41:\n    /* \"#utility.yul\":841:940   */\n  swap2\n  pop\n    /* \"#utility.yul\":664:946   */\n  pop\n    /* \"#utility.yul\":591:946   */\n  swap3\n  swap2\n  pop\n  pop\n  jump\t// out\n    /* \"#utility.yul\":952:1095   */\ntag_42:\n    /* \"#utility.yul\":1009:1014   */\n  0x00\n    /* \"#utility.yul\":1040:1046   */\n  dup2\n    /* \"#utility.yul\":1034:1047   */\n  mload\n    /* \"#utility.yul\":1025:1047   */\n  swap1\n  pop\n    /* \"#utility.yul\":1056:1089   */\n  tag_44\n    /* \"#utility.yul\":1083:1088   */\n  dup2\n    /* \"#utility.yul\":1056:1089   */\n  tag_45\n  jump\t// in\ntag_44:\n    /* \"#utility.yul\":952:1095   */\n  swap3\n  swap2\n  pop\n  pop\n  jump\t// out\n    /* \"#utility.yul\":1101:2088   */\ntag_3:\n    /* \"#utility.yul\":1205:1211   */\n  0x00\n    /* \"#utility.yul\":1213:1219   */\n  dup1\n    /* \"#utility.yul\":1221:1227   */\n  0x00\n    /* \"#utility.yul\":1229:1235   */\n  dup1\n    /* \"#utility.yul\":1278:1281   */\n  0x80\n    /* \"#utility.yul\":1266:1275   */\n  dup6\n    /* \"#utility.yul\":1257:1264   */\n  dup8\n    /* \"#utility.yul\":1253:1276   */\n  sub\n    /* \"#utility.yul\":1249:1282   */\n  slt\n    /* \"#utility.yul\":1246:1366   */\n  iszero\n  tag_47\n  jumpi\n    /* \"#utility.yul\":1285:1364   */\n  tag_48\n  tag_49\n  jump\t// in\ntag_48:\n    /* \"#utility.yul\":1246:1366   */\ntag_47:\n    /* \"#utility.yul\":1426:1427   */\n  0x00\n    /* \"#utility.yul\":1415:1424   */\n  dup6\n    /* \"#utility.yul\":1411:1428   */\n  add\n    /* \"#utility.yul\":1405:1429   */\n  mload\n    /* \"#utility.yul\":1456:1474   */\n  0xffffffffffffffff\n    /* \"#utility.yul\":1448:1454   */\n  dup2\n    /* \"#utility.yul\":1445:1475   */\n  gt\n    /* \"#utility.yul\":1442:1559   */\n  iszero\n  tag_50\n  jumpi\n    /* \"#utility.yul\":1478:1557   */\n  tag_51\n  tag_52\n  jump\t// in\ntag_51:\n    /* \"#utility.yul\":1442:1559   */\ntag_50:\n    /* \"#utility.yul\":1583:1657   */\n  tag_53\n    /* \"#utility.yul\":1649:1656   */\n  dup8\n    /* \"#utility.yul\":1640:1646   */\n  dup3\n    /* \"#utility.yul\":1629:1638   */\n  dup9\n    /* \"#utility.yul\":1625:1647   */\n  add\n    /* \"#utility.yul\":1583:1657   */\n  tag_36\n  jump\t// in\ntag_53:\n    /* \"#utility.yul\":1573:1657   */\n  swap5\n  pop\n    /* \"#utility.yul\":1376:1667   */\n  pop\n    /* \"#utility.yul\":1706:1708   */\n  0x20\n    /* \"#utility.yul\":1732:1796   */\n  tag_54\n    /* \"#utility.yul\":1788:1795   */\n  dup8\n    /* \"#utility.yul\":1779:1785   */\n  dup3\n    /* \"#utility.yul\":1768:1777   */\n  dup9\n    /* \"#utility.yul\":1764:1786   */\n  add\n    /* \"#utility.yul\":1732:1796   */\n  tag_42\n  jump\t// in\ntag_54:\n    /* \"#utility.yul\":1722:1796   */\n  swap4\n  pop\n    /* \"#utility.yul\":1677:1806   */\n  pop\n    /* \"#utility.yul\":1845:1847   */\n  0x40\n    /* \"#utility.yul\":1871:1932   */\n  tag_55\n    /* \"#utility.yul\":1924:1931   */\n  dup8\n    /* \"#utility.yul\":1915:1921   */\n  dup3\n    /* \"#utility.yul\":1904:1913   */\n  dup9\n    /* \"#utility.yul\":1900:1922   */\n  add\n    /* \"#utility.yul\":1871:1932   */\n  tag_32\n  jump\t// in\ntag_55:\n    /* \"#utility.yul\":1861:1932   */\n  swap3\n  pop\n    /* \"#utility.yul\":1816:1942   */\n  pop\n    /* \"#utility.yul\":1981:1983   */\n  0x60\n    /* \"#utility.yul\":2007:2071   */\n  tag_56\n    /* \"#utility.yul\":2063:2070   */\n  dup8\n    /* \"#utility.yul\":2054:2060   */\n  dup3\n    /* \"#utility.yul\":2043:2052   */\n  dup9\n    /* \"#utility.yul\":2039:2061   */\n  add\n    /* \"#utility.yul\":2007:2071   */\n  tag_42\n  jump\t// in\ntag_56:\n    /* \"#utility.yul\":1997:2071   */\n  swap2\n  pop\n    /* \"#utility.yul\":1952:2081   */\n  pop\n    /* \"#utility.yul\":1101:2088   */\n  swap3\n  swap6\n  swap2\n  swap5\n  pop\n  swap3\n  pop\n  jump\t// out\n    /* \"#utility.yul\":2094:2223   */\ntag_26:\n    /* \"#utility.yul\":2128:2134   */\n  0x00\n    /* \"#utility.yul\":2155:2175   */\n  tag_58\n  tag_59\n  jump\t// in\ntag_58:\n    /* \"#utility.yul\":2145:2175   */\n  swap1\n  pop\n    /* \"#utility.yul\":2184:2217   */\n  tag_60\n    /* \"#utility.yul\":2212:2216   */\n  dup3\n    /* \"#utility.yul\":2204:2210   */\n  dup3\n    /* \"#utility.yul\":2184:2217   */\n  tag_61\n  jump\t// in\ntag_60:\n    /* \"#utility.yul\":2094:2223   */\n  swap2\n  swap1\n  pop\n  jump\t// out\n    /* \"#utility.yul\":2229:2304   */\ntag_59:\n    /* \"#utility.yul\":2262:2268   */\n  0x00\n    /* \"#utility.yul\":2295:2297   */\n  0x40\n    /* \"#utility.yul\":2289:2298   */\n  mload\n    /* \"#utility.yul\":2279:2298   */\n  swap1\n  pop\n    /* \"#utility.yul\":2229:2304   */\n  swap1\n  jump\t// out\n    /* \"#utility.yul\":2310:2618   */\ntag_25:\n    /* \"#utility.yul\":2372:2376   */\n  0x00\n    /* \"#utility.yul\":2462:2480   */\n  0xffffffffffffffff\n    /* \"#utility.yul\":2454:2460   */\n  dup3\n    /* \"#utility.yul\":2451:2481   */\n  gt\n    /* \"#utility.yul\":2448:2504   */\n  iszero\n  tag_64\n  jumpi\n    /* \"#utility.yul\":2484:2502   */\n  tag_65\n  tag_66\n  jump\t// in\ntag_65:\n    /* \"#utility.yul\":2448:2504   */\ntag_64:\n    /* \"#utility.yul\":2522:2551   */\n  tag_67\n    /* \"#utility.yul\":2544:2550   */\n  dup3\n    /* \"#utility.yul\":2522:2551   */\n  tag_68\n  jump\t// in\ntag_67:\n    /* \"#utility.yul\":2514:2551   */\n  swap1\n  pop\n    /* \"#utility.yul\":2606:2610   */\n  0x20\n    /* \"#utility.yul\":2600:2604   */\n  dup2\n    /* \"#utility.yul\":2596:2611   */\n  add\n    /* \"#utility.yul\":2588:2611   */\n  swap1\n  pop\n    /* \"#utility.yul\":2310:2618   */\n  swap2\n  swap1\n  pop\n  jump\t// out\n    /* \"#utility.yul\":2624:2714   */\ntag_69:\n    /* \"#utility.yul\":2658:2665   */\n  0x00\n    /* \"#utility.yul\":2701:2706   */\n  dup2\n    /* \"#utility.yul\":2694:2707   */\n  iszero\n    /* \"#utility.yul\":2687:2708   */\n  iszero\n    /* \"#utility.yul\":2676:2708   */\n  swap1\n  pop\n    /* \"#utility.yul\":2624:2714   */\n  swap2\n  swap1\n  pop\n  jump\t// out\n    /* \"#utility.yul\":2720:2797   */\ntag_71:\n    /* \"#utility.yul\":2757:2764   */\n  0x00\n    /* \"#utility.yul\":2786:2791   */\n  dup2\n    /* \"#utility.yul\":2775:2791   */\n  swap1\n  pop\n    /* \"#utility.yul\":2720:2797   */\n  swap2\n  swap1\n  pop\n  jump\t// out\n    /* \"#utility.yul\":2803:3110   */\ntag_31:\n    /* \"#utility.yul\":2871:2872   */\n  0x00\n    /* \"#utility.yul\":2881:2994   */\ntag_74:\n    /* \"#utility.yul\":2895:2901   */\n  dup4\n    /* \"#utility.yul\":2892:2893   */\n  dup2\n    /* \"#utility.yul\":2889:2902   */\n  lt\n    /* \"#utility.yul\":2881:2994   */\n  iszero\n  tag_76\n  jumpi\n    /* \"#utility.yul\":2980:2981   */\n  dup1\n    /* \"#utility.yul\":2975:2978   */\n  dup3\n    /* \"#utility.yul\":2971:2982   */\n  add\n    /* \"#utility.yul\":2965:2983   */\n  mload\n    /* \"#utility.yul\":2961:2962   */\n  dup2\n    /* \"#utility.yul\":2956:2959   */\n  dup5\n    /* \"#utility.yul\":2952:2963   */\n  add\n    /* \"#utility.yul\":2945:2984   */\n  mstore\n    /* \"#utility.yul\":2917:2919   */\n  0x20\n    /* \"#utility.yul\":2914:2915   */\n  dup2\n    /* \"#utility.yul\":2910:2920   */\n  add\n    /* \"#utility.yul\":2905:2920   */\n  swap1\n  pop\n    /* \"#utility.yul\":2881:2994   */\n  jump(tag_74)\ntag_76:\n    /* \"#utility.yul\":3012:3018   */\n  dup4\n    /* \"#utility.yul\":3009:3010   */\n  dup2\n    /* \"#utility.yul\":3006:3019   */\n  gt\n    /* \"#utility.yul\":3003:3104   */\n  iszero\n  tag_77\n  jumpi\n    /* \"#utility.yul\":3092:3093   */\n  0x00\n    /* \"#utility.yul\":3083:3089   */\n  dup5\n    /* \"#utility.yul\":3078:3081   */\n  dup5\n    /* \"#utility.yul\":3074:3090   */\n  add\n    /* \"#utility.yul\":3067:3094   */\n  mstore\n    /* \"#utility.yul\":3003:3104   */\ntag_77:\n    /* \"#utility.yul\":2852:3110   */\n  pop\n    /* \"#utility.yul\":2803:3110   */\n  pop\n  pop\n  pop\n  jump\t// out\n    /* \"#utility.yul\":3116:3436   */\ntag_10:\n    /* \"#utility.yul\":3160:3166   */\n  0x00\n    /* \"#utility.yul\":3197:3198   */\n  0x02\n    /* \"#utility.yul\":3191:3195   */\n  dup3\n    /* \"#utility.yul\":3187:3199   */\n  div\n    /* \"#utility.yul\":3177:3199   */\n  swap1\n  pop\n    /* \"#utility.yul\":3244:3245   */\n  0x01\n    /* \"#utility.yul\":3238:3242   */\n  dup3\n    /* \"#utility.yul\":3234:3246   */\n  and\n    /* \"#utility.yul\":3265:3283   */\n  dup1\n    /* \"#utility.yul\":3255:3336   */\n  tag_79\n  jumpi\n    /* \"#utility.yul\":3321:3325   */\n  0x7f\n    /* \"#utility.yul\":3313:3319   */\n  dup3\n    /* \"#utility.yul\":3309:3326   */\n  and\n    /* \"#utility.yul\":3299:3326   */\n  swap2\n  pop\n    /* \"#utility.yul\":3255:3336   */\ntag_79:\n    /* \"#utility.yul\":3383:3385   */\n  0x20\n    /* \"#utility.yul\":3375:3381   */\n  dup3\n    /* \"#utility.yul\":3372:3386   */\n  lt\n    /* \"#utility.yul\":3352:3370   */\n  dup2\n    /* \"#utility.yul\":3349:3387   */\n  eq\n    /* \"#utility.yul\":3346:3430   */\n  iszero\n  tag_80\n  jumpi\n    /* \"#utility.yul\":3402:3420   */\n  tag_81\n  tag_82\n  jump\t// in\ntag_81:\n    /* \"#utility.yul\":3346:3430   */\ntag_80:\n    /* \"#utility.yul\":3167:3436   */\n  pop\n    /* \"#utility.yul\":3116:3436   */\n  swap2\n  swap1\n  pop\n  jump\t// out\n    /* \"#utility.yul\":3442:3723   */\ntag_61:\n    /* \"#utility.yul\":3525:3552   */\n  tag_84\n    /* \"#utility.yul\":3547:3551   */\n  dup3\n    /* \"#utility.yul\":3525:3552   */\n  tag_68\n  jump\t// in\ntag_84:\n    /* \"#utility.yul\":3517:3523   */\n  dup2\n    /* \"#utility.yul\":3513:3553   */\n  add\n    /* \"#utility.yul\":3655:3661   */\n  dup2\n    /* \"#utility.yul\":3643:3653   */\n  dup2\n    /* \"#utility.yul\":3640:3662   */\n  lt\n    /* \"#utility.yul\":3619:3637   */\n  0xffffffffffffffff\n    /* \"#utility.yul\":3607:3617   */\n  dup3\n    /* \"#utility.yul\":3604:3638   */\n  gt\n    /* \"#utility.yul\":3601:3663   */\n  or\n    /* \"#utility.yul\":3598:3686   */\n  iszero\n  tag_85\n  jumpi\n    /* \"#utility.yul\":3666:3684   */\n  tag_86\n  tag_66\n  jump\t// in\ntag_86:\n    /* \"#utility.yul\":3598:3686   */\ntag_85:\n    /* \"#utility.yul\":3706:3716   */\n  dup1\n    /* \"#utility.yul\":3702:3704   */\n  0x40\n    /* \"#utility.yul\":3695:3717   */\n  mstore\n    /* \"#utility.yul\":3485:3723   */\n  pop\n    /* \"#utility.yul\":3442:3723   */\n  pop\n  pop\n  jump\t// out\n    /* \"#utility.yul\":3729:3909   */\ntag_82:\n    /* \"#utility.yul\":3777:3854   */\n  0x4e487b7100000000000000000000000000000000000000000000000000000000\n    /* \"#utility.yul\":3774:3775   */\n  0x00\n    /* \"#utility.yul\":3767:3855   */\n  mstore\n    /* \"#utility.yul\":3874:3878   */\n  0x22\n    /* \"#utility.yul\":3871:3872   */\n  0x04\n    /* \"#utility.yul\":3864:3879   */\n  mstore\n    /* \"#utility.yul\":3898:3902   */\n  0x24\n    /* \"#utility.yul\":3895:3896   */\n  0x00\n    /* \"#utility.yul\":3888:3903   */\n  revert\n    /* \"#utility.yul\":3915:4095   */\ntag_66:\n    /* \"#utility.yul\":3963:4040   */\n  0x4e487b7100000000000000000000000000000000000000000000000000000000\n    /* \"#utility.yul\":3960:3961   */\n  0x00\n    /* \"#utility.yul\":3953:4041   */\n  mstore\n    /* \"#utility.yul\":4060:4064   */\n  0x41\n    /* \"#utility.yul\":4057:4058   */\n  0x04\n    /* \"#utility.yul\":4050:4065   */\n  mstore\n    /* \"#utility.yul\":4084:4088   */\n  0x24\n    /* \"#utility.yul\":4081:4082   */\n  0x00\n    /* \"#utility.yul\":4074:4089   */\n  revert\n    /* \"#utility.yul\":4101:4218   */\ntag_40:\n    /* \"#utility.yul\":4210:4211   */\n  0x00\n    /* \"#utility.yul\":4207:4208   */\n  dup1\n    /* \"#utility.yul\":4200:4212   */\n  revert\n    /* \"#utility.yul\":4224:4341   */\ntag_29:\n    /* \"#utility.yul\":4333:4334   */\n  0x00\n    /* \"#utility.yul\":4330:4331   */\n  dup1\n    /* \"#utility.yul\":4323:4335   */\n  revert\n    /* \"#utility.yul\":4347:4464   */\ntag_52:\n    /* \"#utility.yul\":4456:4457   */\n  0x00\n    /* \"#utility.yul\":4453:4454   */\n  dup1\n    /* \"#utility.yul\":4446:4458   */\n  revert\n    /* \"#utility.yul\":4470:4587   */\ntag_49:\n    /* \"#utility.yul\":4579:4580   */\n  0x00\n    /* \"#utility.yul\":4576:4577   */\n  dup1\n    /* \"#utility.yul\":4569:4581   */\n  revert\n    /* \"#utility.yul\":4593:4695   */\ntag_68:\n    /* \"#utility.yul\":4634:4640   */\n  0x00\n    /* \"#utility.yul\":4685:4687   */\n  0x1f\n    /* \"#utility.yul\":4681:4688   */\n  not\n    /* \"#utility.yul\":4676:4678   */\n  0x1f\n    /* \"#utility.yul\":4669:4674   */\n  dup4\n    /* \"#utility.yul\":4665:4679   */\n  add\n    /* \"#utility.yul\":4661:4689   */\n  and\n    /* \"#utility.yul\":4651:4689   */\n  swap1\n  pop\n    /* \"#utility.yul\":4593:4695   */\n  swap2\n  swap1\n  pop\n  jump\t// out\n    /* \"#utility.yul\":4701:4817   */\ntag_35:\n    /* \"#utility.yul\":4771:4792   */\n  tag_95\n    /* \"#utility.yul\":4786:4791   */\n  dup2\n    /* \"#utility.yul\":4771:4792   */\n  tag_69\n  jump\t// in\ntag_95:\n    /* \"#utility.yul\":4764:4769   */\n  dup2\n    /* \"#utility.yul\":4761:4793   */\n  eq\n    /* \"#utility.yul\":4751:4811   */\n  tag_96\n  jumpi\n    /* \"#utility.yul\":4807:4808   */\n  0x00\n    /* \"#utility.yul\":4804:4805   */\n  dup1\n    /* \"#utility.yul\":4797:4809   */\n  revert\n    /* \"#utility.yul\":4751:4811   */\ntag_96:\n    /* \"#utility.yul\":4701:4817   */\n  pop\n  jump\t// out\n    /* \"#utility.yul\":4823:4945   */\ntag_45:\n    /* \"#utility.yul\":4896:4920   */\n  tag_98\n    /* \"#utility.yul\":4914:4919   */\n  dup2\n    /* \"#utility.yul\":4896:4920   */\n  tag_71\n  jump\t// in\ntag_98:\n    /* \"#utility.yul\":4889:4894   */\n  dup2\n    /* \"#utility.yul\":4886:4921   */\n  eq\n    /* \"#utility.yul\":4876:4939   */\n  tag_99\n  jumpi\n    /* \"#utility.yul\":4935:4936   */\n  0x00\n    /* \"#utility.yul\":4932:4933   */\n  dup1\n    /* \"#utility.yul\":4925:4937   */\n  revert\n    /* \"#utility.yul\":4876:4939   */\ntag_99:\n    /* \"#utility.yul\":4823:4945   */\n  pop\n  jump\t// out\n    /* \"Donation.sol\":72:561  contract Donation {... */\ntag_8:\n  dataSize(sub_0)\n  dup1\n  dataOffset(sub_0)\n  0x00\n  codecopy\n  0x00\n  return\nstop\n\nsub_0: assembly {\n        /* \"Donation.sol\":72:561  contract Donation {... */\n      mstore(0x40, 0x80)\n      jumpi(tag_1, lt(calldatasize, 0x04))\n      shr(0xe0, calldataload(0x00))\n      dup1\n      0xed88c68e\n      eq\n      tag_2\n      jumpi\n    tag_1:\n      0x00\n      dup1\n      revert\n        /* \"Donation.sol\":434:559  function donate() payable external {... */\n    tag_2:\n      tag_3\n      tag_4\n      jump\t// in\n    tag_3:\n      stop\n    tag_4:\n        /* \"Donation.sol\":500:510  _minAmount */\n      sload(0x01)\n        /* \"Donation.sol\":487:496  msg.value */\n      callvalue\n        /* \"Donation.sol\":487:510  msg.value >= _minAmount */\n      lt\n      iszero\n        /* \"Donation.sol\":479:552  require(msg.value >= _minAmount, \"You cannot donate below ${_minAmount}\") */\n      tag_6\n      jumpi\n      mload(0x40)\n      0x08c379a000000000000000000000000000000000000000000000000000000000\n      dup2\n      mstore\n      0x04\n      add\n      tag_7\n      swap1\n      tag_8\n      jump\t// in\n    tag_7:\n      mload(0x40)\n      dup1\n      swap2\n      sub\n      swap1\n      revert\n    tag_6:\n        /* \"Donation.sol\":434:559  function donate() payable external {... */\n      jump\t// out\n        /* \"#utility.yul\":7:373   */\n    tag_10:\n        /* \"#utility.yul\":149:152   */\n      0x00\n        /* \"#utility.yul\":170:237   */\n      tag_12\n        /* \"#utility.yul\":234:236   */\n      0x25\n        /* \"#utility.yul\":229:232   */\n      dup4\n        /* \"#utility.yul\":170:237   */\n      tag_13\n      jump\t// in\n    tag_12:\n        /* \"#utility.yul\":163:237   */\n      swap2\n      pop\n        /* \"#utility.yul\":246:339   */\n      tag_14\n        /* \"#utility.yul\":335:338   */\n      dup3\n        /* \"#utility.yul\":246:339   */\n      tag_15\n      jump\t// in\n    tag_14:\n        /* \"#utility.yul\":364:366   */\n      0x40\n        /* \"#utility.yul\":359:362   */\n      dup3\n        /* \"#utility.yul\":355:367   */\n      add\n        /* \"#utility.yul\":348:367   */\n      swap1\n      pop\n        /* \"#utility.yul\":7:373   */\n      swap2\n      swap1\n      pop\n      jump\t// out\n        /* \"#utility.yul\":379:798   */\n    tag_8:\n        /* \"#utility.yul\":545:549   */\n      0x00\n        /* \"#utility.yul\":583:585   */\n      0x20\n        /* \"#utility.yul\":572:581   */\n      dup3\n        /* \"#utility.yul\":568:586   */\n      add\n        /* \"#utility.yul\":560:586   */\n      swap1\n      pop\n        /* \"#utility.yul\":632:641   */\n      dup2\n        /* \"#utility.yul\":626:630   */\n      dup2\n        /* \"#utility.yul\":622:642   */\n      sub\n        /* \"#utility.yul\":618:619   */\n      0x00\n        /* \"#utility.yul\":607:616   */\n      dup4\n        /* \"#utility.yul\":603:620   */\n      add\n        /* \"#utility.yul\":596:643   */\n      mstore\n        /* \"#utility.yul\":660:791   */\n      tag_17\n        /* \"#utility.yul\":786:790   */\n      dup2\n        /* \"#utility.yul\":660:791   */\n      tag_10\n      jump\t// in\n    tag_17:\n        /* \"#utility.yul\":652:791   */\n      swap1\n      pop\n        /* \"#utility.yul\":379:798   */\n      swap2\n      swap1\n      pop\n      jump\t// out\n        /* \"#utility.yul\":804:973   */\n    tag_13:\n        /* \"#utility.yul\":888:899   */\n      0x00\n        /* \"#utility.yul\":922:928   */\n      dup3\n        /* \"#utility.yul\":917:920   */\n      dup3\n        /* \"#utility.yul\":910:929   */\n      mstore\n        /* \"#utility.yul\":962:966   */\n      0x20\n        /* \"#utility.yul\":957:960   */\n      dup3\n        /* \"#utility.yul\":953:967   */\n      add\n        /* \"#utility.yul\":938:967   */\n      swap1\n      pop\n        /* \"#utility.yul\":804:973   */\n      swap3\n      swap2\n      pop\n      pop\n      jump\t// out\n        /* \"#utility.yul\":979:1203   */\n    tag_15:\n        /* \"#utility.yul\":1119:1153   */\n      0x596f752063616e6e6f7420646f6e6174652062656c6f7720247b5f6d696e416d\n        /* \"#utility.yul\":1115:1116   */\n      0x00\n        /* \"#utility.yul\":1107:1113   */\n      dup3\n        /* \"#utility.yul\":1103:1117   */\n      add\n        /* \"#utility.yul\":1096:1154   */\n      mstore\n        /* \"#utility.yul\":1188:1195   */\n      0x6f756e747d000000000000000000000000000000000000000000000000000000\n        /* \"#utility.yul\":1183:1185   */\n      0x20\n        /* \"#utility.yul\":1175:1181   */\n      dup3\n        /* \"#utility.yul\":1171:1186   */\n      add\n        /* \"#utility.yul\":1164:1196   */\n      mstore\n        /* \"#utility.yul\":979:1203   */\n      pop\n      jump\t// out\n\n    auxdata: 0xa26469706673582212208d212a091760a6758490a50b35d46f3e392d0b5cb074f97236f0d5ee1d00859964736f6c63430008070033\n}\n",
				"bytecode": {
					"linkReferences": {},
					"object": "608060405234801561001057600080fd5b50604051610549380380610549833981810160405281019061003291906101b7565b836000908051906020019061004892919061007a565b508260018190555081600360006101000a81548160ff02191690831515021790555080600281905550505050506103ed565b828054610086906102d9565b90600052602060002090601f0160209004810192826100a857600085556100ef565b82601f106100c157805160ff19168380011785556100ef565b828001600101855582156100ef579182015b828111156100ee5782518255916020019190600101906100d3565b5b5090506100fc9190610100565b5090565b5b80821115610119576000816000905550600101610101565b5090565b600061013061012b8461025f565b61023a565b90508281526020810184848401111561014c5761014b61039f565b5b6101578482856102a6565b509392505050565b60008151905061016e816103bf565b92915050565b600082601f8301126101895761018861039a565b5b815161019984826020860161011d565b91505092915050565b6000815190506101b1816103d6565b92915050565b600080600080608085870312156101d1576101d06103a9565b5b600085015167ffffffffffffffff8111156101ef576101ee6103a4565b5b6101fb87828801610174565b945050602061020c878288016101a2565b935050604061021d8782880161015f565b925050606061022e878288016101a2565b91505092959194509250565b6000610244610255565b9050610250828261030b565b919050565b6000604051905090565b600067ffffffffffffffff82111561027a5761027961036b565b5b610283826103ae565b9050602081019050919050565b60008115159050919050565b6000819050919050565b60005b838110156102c45780820151818401526020810190506102a9565b838111156102d3576000848401525b50505050565b600060028204905060018216806102f157607f821691505b602082108114156103055761030461033c565b5b50919050565b610314826103ae565b810181811067ffffffffffffffff821117156103335761033261036b565b5b80604052505050565b7f4e487b7100000000000000000000000000000000000000000000000000000000600052602260045260246000fd5b7f4e487b7100000000000000000000000000000000000000000000000000000000600052604160045260246000fd5b600080fd5b600080fd5b600080fd5b600080fd5b6000601f19601f8301169050919050565b6103c881610290565b81146103d357600080fd5b50565b6103df8161029c565b81146103ea57600080fd5b50565b61014d806103fc6000396000f3fe60806040526004361061001e5760003560e01c8063ed88c68e14610023575b600080fd5b61002b61002d565b005b600154341015610072576040517f08c379a000000000000000000000000000000000000000000000000000000000815260040161006990610097565b60405180910390fd5b565b60006100816025836100b7565b915061008c826100c8565b604082019050919050565b600060208201905081810360008301526100b081610074565b9050919050565b600082825260208201905092915050565b7f596f752063616e6e6f7420646f6e6174652062656c6f7720247b5f6d696e416d60008201527f6f756e747d00000000000000000000000000000000000000000000000000000060208201525056fea26469706673582212208d212a091760a6758490a50b35d46f3e392d0b5cb074f97236f0d5ee1d00859964736f6c63430008070033",
					"opcodes": "PUSH1 0x80 PUSH1 0x40 MSTORE CALLVALUE DUP1 ISZERO PUSH2 0x10 JUMPI PUSH1 0x0 DUP1 REVERT JUMPDEST POP PUSH1 0x40 MLOAD PUSH2 0x549 CODESIZE SUB DUP1 PUSH2 0x549 DUP4 CODECOPY DUP2 DUP2 ADD PUSH1 0x40 MSTORE DUP2 ADD SWAP1 PUSH2 0x32 SWAP2 SWAP1 PUSH2 0x1B7 JUMP JUMPDEST DUP4 PUSH1 0x0 SWAP1 DUP1 MLOAD SWAP1 PUSH1 0x20 ADD SWAP1 PUSH2 0x48 SWAP3 SWAP2 SWAP1 PUSH2 0x7A JUMP JUMPDEST POP DUP3 PUSH1 0x1 DUP2 SWAP1 SSTORE POP DUP2 PUSH1 0x3 PUSH1 0x0 PUSH2 0x100 EXP DUP2 SLOAD DUP2 PUSH1 0xFF MUL NOT AND SWAP1 DUP4 ISZERO ISZERO MUL OR SWAP1 SSTORE POP DUP1 PUSH1 0x2 DUP2 SWAP1 SSTORE POP POP POP POP POP PUSH2 0x3ED JUMP JUMPDEST DUP3 DUP1 SLOAD PUSH2 0x86 SWAP1 PUSH2 0x2D9 JUMP JUMPDEST SWAP1 PUSH1 0x0 MSTORE PUSH1 0x20 PUSH1 0x0 KECCAK256 SWAP1 PUSH1 0x1F ADD PUSH1 0x20 SWAP1 DIV DUP2 ADD SWAP3 DUP3 PUSH2 0xA8 JUMPI PUSH1 0x0 DUP6 SSTORE PUSH2 0xEF JUMP JUMPDEST DUP3 PUSH1 0x1F LT PUSH2 0xC1 JUMPI DUP1 MLOAD PUSH1 0xFF NOT AND DUP4 DUP1 ADD OR DUP6 SSTORE PUSH2 0xEF JUMP JUMPDEST DUP3 DUP1 ADD PUSH1 0x1 ADD DUP6 SSTORE DUP3 ISZERO PUSH2 0xEF JUMPI SWAP2 DUP3 ADD JUMPDEST DUP3 DUP2 GT ISZERO PUSH2 0xEE JUMPI DUP3 MLOAD DUP3 SSTORE SWAP2 PUSH1 0x20 ADD SWAP2 SWAP1 PUSH1 0x1 ADD SWAP1 PUSH2 0xD3 JUMP JUMPDEST JUMPDEST POP SWAP1 POP PUSH2 0xFC SWAP2 SWAP1 PUSH2 0x100 JUMP JUMPDEST POP SWAP1 JUMP JUMPDEST JUMPDEST DUP1 DUP3 GT ISZERO PUSH2 0x119 JUMPI PUSH1 0x0 DUP2 PUSH1 0x0 SWAP1 SSTORE POP PUSH1 0x1 ADD PUSH2 0x101 JUMP JUMPDEST POP SWAP1 JUMP JUMPDEST PUSH1 0x0 PUSH2 0x130 PUSH2 0x12B DUP5 PUSH2 0x25F JUMP JUMPDEST PUSH2 0x23A JUMP JUMPDEST SWAP1 POP DUP3 DUP2 MSTORE PUSH1 0x20 DUP2 ADD DUP5 DUP5 DUP5 ADD GT ISZERO PUSH2 0x14C JUMPI PUSH2 0x14B PUSH2 0x39F JUMP JUMPDEST JUMPDEST PUSH2 0x157 DUP5 DUP3 DUP6 PUSH2 0x2A6 JUMP JUMPDEST POP SWAP4 SWAP3 POP POP POP JUMP JUMPDEST PUSH1 0x0 DUP2 MLOAD SWAP1 POP PUSH2 0x16E DUP2 PUSH2 0x3BF JUMP JUMPDEST SWAP3 SWAP2 POP POP JUMP JUMPDEST PUSH1 0x0 DUP3 PUSH1 0x1F DUP4 ADD SLT PUSH2 0x189 JUMPI PUSH2 0x188 PUSH2 0x39A JUMP JUMPDEST JUMPDEST DUP2 MLOAD PUSH2 0x199 DUP5 DUP3 PUSH1 0x20 DUP7 ADD PUSH2 0x11D JUMP JUMPDEST SWAP2 POP POP SWAP3 SWAP2 POP POP JUMP JUMPDEST PUSH1 0x0 DUP2 MLOAD SWAP1 POP PUSH2 0x1B1 DUP2 PUSH2 0x3D6 JUMP JUMPDEST SWAP3 SWAP2 POP POP JUMP JUMPDEST PUSH1 0x0 DUP1 PUSH1 0x0 DUP1 PUSH1 0x80 DUP6 DUP8 SUB SLT ISZERO PUSH2 0x1D1 JUMPI PUSH2 0x1D0 PUSH2 0x3A9 JUMP JUMPDEST JUMPDEST PUSH1 0x0 DUP6 ADD MLOAD PUSH8 0xFFFFFFFFFFFFFFFF DUP2 GT ISZERO PUSH2 0x1EF JUMPI PUSH2 0x1EE PUSH2 0x3A4 JUMP JUMPDEST JUMPDEST PUSH2 0x1FB DUP8 DUP3 DUP9 ADD PUSH2 0x174 JUMP JUMPDEST SWAP5 POP POP PUSH1 0x20 PUSH2 0x20C DUP8 DUP3 DUP9 ADD PUSH2 0x1A2 JUMP JUMPDEST SWAP4 POP POP PUSH1 0x40 PUSH2 0x21D DUP8 DUP3 DUP9 ADD PUSH2 0x15F JUMP JUMPDEST SWAP3 POP POP PUSH1 0x60 PUSH2 0x22E DUP8 DUP3 DUP9 ADD PUSH2 0x1A2 JUMP JUMPDEST SWAP2 POP POP SWAP3 SWAP6 SWAP2 SWAP5 POP SWAP3 POP JUMP JUMPDEST PUSH1 0x0 PUSH2 0x244 PUSH2 0x255 JUMP JUMPDEST SWAP1 POP PUSH2 0x250 DUP3 DUP3 PUSH2 0x30B JUMP JUMPDEST SWAP2 SWAP1 POP JUMP JUMPDEST PUSH1 0x0 PUSH1 0x40 MLOAD SWAP1 POP SWAP1 JUMP JUMPDEST PUSH1 0x0 PUSH8 0xFFFFFFFFFFFFFFFF DUP3 GT ISZERO PUSH2 0x27A JUMPI PUSH2 0x279 PUSH2 0x36B JUMP JUMPDEST JUMPDEST PUSH2 0x283 DUP3 PUSH2 0x3AE JUMP JUMPDEST SWAP1 POP PUSH1 0x20 DUP2 ADD SWAP1 POP SWAP2 SWAP1 POP JUMP JUMPDEST PUSH1 0x0 DUP2 ISZERO ISZERO SWAP1 POP SWAP2 SWAP1 POP JUMP JUMPDEST PUSH1 0x0 DUP2 SWAP1 POP SWAP2 SWAP1 POP JUMP JUMPDEST PUSH1 0x0 JUMPDEST DUP4 DUP2 LT ISZERO PUSH2 0x2C4 JUMPI DUP1 DUP3 ADD MLOAD DUP2 DUP5 ADD MSTORE PUSH1 0x20 DUP2 ADD SWAP1 POP PUSH2 0x2A9 JUMP JUMPDEST DUP4 DUP2 GT ISZERO PUSH2 0x2D3 JUMPI PUSH1 0x0 DUP5 DUP5 ADD MSTORE JUMPDEST POP POP POP POP JUMP JUMPDEST PUSH1 0x0 PUSH1 0x2 DUP3 DIV SWAP1 POP PUSH1 0x1 DUP3 AND DUP1 PUSH2 0x2F1 JUMPI PUSH1 0x7F DUP3 AND SWAP2 POP JUMPDEST PUSH1 0x20 DUP3 LT DUP2 EQ ISZERO PUSH2 0x305 JUMPI PUSH2 0x304 PUSH2 0x33C JUMP JUMPDEST JUMPDEST POP SWAP2 SWAP1 POP JUMP JUMPDEST PUSH2 0x314 DUP3 PUSH2 0x3AE JUMP JUMPDEST DUP2 ADD DUP2 DUP2 LT PUSH8 0xFFFFFFFFFFFFFFFF DUP3 GT OR ISZERO PUSH2 0x333 JUMPI PUSH2 0x332 PUSH2 0x36B JUMP JUMPDEST JUMPDEST DUP1 PUSH1 0x40 MSTORE POP POP POP JUMP JUMPDEST PUSH32 0x4E487B7100000000000000000000000000000000000000000000000000000000 PUSH1 0x0 MSTORE PUSH1 0x22 PUSH1 0x4 MSTORE PUSH1 0x24 PUSH1 0x0 REVERT JUMPDEST PUSH32 0x4E487B7100000000000000000000000000000000000000000000000000000000 PUSH1 0x0 MSTORE PUSH1 0x41 PUSH1 0x4 MSTORE PUSH1 0x24 PUSH1 0x0 REVERT JUMPDEST PUSH1 0x0 DUP1 REVERT JUMPDEST PUSH1 0x0 DUP1 REVERT JUMPDEST PUSH1 0x0 DUP1 REVERT JUMPDEST PUSH1 0x0 DUP1 REVERT JUMPDEST PUSH1 0x0 PUSH1 0x1F NOT PUSH1 0x1F DUP4 ADD AND SWAP1 POP SWAP2 SWAP1 POP JUMP JUMPDEST PUSH2 0x3C8 DUP2 PUSH2 0x290 JUMP JUMPDEST DUP2 EQ PUSH2 0x3D3 JUMPI PUSH1 0x0 DUP1 REVERT JUMPDEST POP JUMP JUMPDEST PUSH2 0x3DF DUP2 PUSH2 0x29C JUMP JUMPDEST DUP2 EQ PUSH2 0x3EA JUMPI PUSH1 0x0 DUP1 REVERT JUMPDEST POP JUMP JUMPDEST PUSH2 0x14D DUP1 PUSH2 0x3FC PUSH1 0x0 CODECOPY PUSH1 0x0 RETURN INVALID PUSH1 0x80 PUSH1 0x40 MSTORE PUSH1 0x4 CALLDATASIZE LT PUSH2 0x1E JUMPI PUSH1 0x0 CALLDATALOAD PUSH1 0xE0 SHR DUP1 PUSH4 0xED88C68E EQ PUSH2 0x23 JUMPI JUMPDEST PUSH1 0x0 DUP1 REVERT JUMPDEST PUSH2 0x2B PUSH2 0x2D JUMP JUMPDEST STOP JUMPDEST PUSH1 0x1 SLOAD CALLVALUE LT ISZERO PUSH2 0x72 JUMPI PUSH1 0x40 MLOAD PUSH32 0x8C379A000000000000000000000000000000000000000000000000000000000 DUP2 MSTORE PUSH1 0x4 ADD PUSH2 0x69 SWAP1 PUSH2 0x97 JUMP JUMPDEST PUSH1 0x40 MLOAD DUP1 SWAP2 SUB SWAP1 REVERT JUMPDEST JUMP JUMPDEST PUSH1 0x0 PUSH2 0x81 PUSH1 0x25 DUP4 PUSH2 0xB7 JUMP JUMPDEST SWAP2 POP PUSH2 0x8C DUP3 PUSH2 0xC8 JUMP JUMPDEST PUSH1 0x40 DUP3 ADD SWAP1 POP SWAP2 SWAP1 POP JUMP JUMPDEST PUSH1 0x0 PUSH1 0x20 DUP3 ADD SWAP1 POP DUP2 DUP2 SUB PUSH1 0x0 DUP4 ADD MSTORE PUSH2 0xB0 DUP2 PUSH2 0x74 JUMP JUMPDEST SWAP1 POP SWAP2 SWAP1 POP JUMP JUMPDEST PUSH1 0x0 DUP3 DUP3 MSTORE PUSH1 0x20 DUP3 ADD SWAP1 POP SWAP3 SWAP2 POP POP JUMP JUMPDEST PUSH32 0x596F752063616E6E6F7420646F6E6174652062656C6F7720247B5F6D696E416D PUSH1 0x0 DUP3 ADD MSTORE PUSH32 0x6F756E747D000000000000000000000000000000000000000000000000000000 PUSH1 0x20 DUP3 ADD MSTORE POP JUMP INVALID LOG2 PUSH5 0x6970667358 0x22 SLT KECCAK256 DUP14 0x21 0x2A MULMOD OR PUSH1 0xA6 PUSH22 0x8490A50B35D46F3E392D0B5CB074F97236F0D5EE1D00 DUP6 SWAP10 PUSH5 0x736F6C6343 STOP ADDMOD SMOD STOP CALLER "
				},
				"gasEstimates": {
					"creation": {
						"codeDepositCost": "66600",
						"executionCost": "infinite",
						"totalCost": "infinite"
					},
					"external": {
						"donate()": "2530"
					}
				},
				"methodIdentifiers": {
					"donate()": "ed88c68e"
				}
			},
			"storageLayout": {
				"storage": [
					{
						"astId": 3,
						"contract": "Donation.sol:Donation",
						"label": "_name",
						"offset": 0,
						"slot": "0",
						"type": "t_string_storage"
					},
					{
						"astId": 5,
						"contract": "Donation.sol:Donation",
						"label": "_minAmount",
						"offset": 0,
						"slot": "1",
						"type": "t_uint256"
					},
					{
						"astId": 7,
						"contract": "Donation.sol:Donation",
						"label": "_amountNeeded",
						"offset": 0,
						"slot": "2",
						"type": "t_uint256"
					},
					{
						"astId": 9,
						"contract": "Donation.sol:Donation",
						"label": "_acceptPaymentAfterAmountMet",
						"offset": 0,
						"slot": "3",
						"type": "t_bool"
					}
				],
				"types": {
					"t_bool": {
						"encoding": "inplace",
						"label": "bool",
						"numberOfBytes": "1"
					},
					"t_string_storage": {
						"encoding": "bytes",
						"label": "string",
						"numberOfBytes": "32"
					},
					"t_uint256": {
						"encoding": "inplace",
						"label": "uint256",
						"numberOfBytes": "32"
					}
				}
			},
			"userdoc": {
				"kind": "user",
				"methods": {},
				"version": 1
			}
		}
	}
}