{
	"Campaign.sol": {
		"Campaign": {
			"abi": [
				{
					"inputs": [
						{
							"internalType": "string",
							"name": "name",
							"type": "string"
						},
						{
							"internalType": "uint256",
							"name": "amountNeeded",
							"type": "uint256"
						},
						{
							"internalType": "bool",
							"name": "accept",
							"type": "bool"
						},
						{
							"internalType": "uint256",
							"name": "minAMount",
							"type": "uint256"
						}
					],
					"name": "createToken",
					"outputs": [
						{
							"internalType": "address",
							"name": "",
							"type": "address"
						}
					],
					"stateMutability": "nonpayable",
					"type": "function"
				},
				{
					"inputs": [
						{
							"internalType": "address",
							"name": "campaignAddress",
							"type": "address"
						}
					],
					"name": "donateToCampaign",
					"outputs": [],
					"stateMutability": "payable",
					"type": "function"
				},
				{
					"inputs": [],
					"name": "getCampaigns",
					"outputs": [
						{
							"internalType": "contract Donation[]",
							"name": "",
							"type": "address[]"
						}
					],
					"stateMutability": "view",
					"type": "function"
				},
				{
					"inputs": [
						{
							"internalType": "address",
							"name": "campaignAddress",
							"type": "address"
						}
					],
					"name": "getCampainBalance",
					"outputs": [
						{
							"internalType": "uint256",
							"name": "",
							"type": "uint256"
						}
					],
					"stateMutability": "view",
					"type": "function"
				},
				{
					"inputs": [
						{
							"internalType": "address",
							"name": "campaignAddress",
							"type": "address"
						}
					],
					"name": "getCampainName",
					"outputs": [
						{
							"internalType": "string",
							"name": "",
							"type": "string"
						}
					],
					"stateMutability": "view",
					"type": "function"
				},
				{
					"inputs": [
						{
							"internalType": "address",
							"name": "campaignAddress",
							"type": "address"
						}
					],
					"name": "withdrawFromCampaign",
					"outputs": [],
					"stateMutability": "nonpayable",
					"type": "function"
				}
			],
			"devdoc": {
				"kind": "dev",
				"methods": {},
				"version": 1
			},
			"evm": {
				"assembly": "    /* \"Campaign.sol\":96:1265  contract Campaign {... */\n  mstore(0x40, 0x80)\n  callvalue\n  dup1\n  iszero\n  tag_1\n  jumpi\n  0x00\n  dup1\n  revert\ntag_1:\n  pop\n  dataSize(sub_0)\n  dup1\n  dataOffset(sub_0)\n  0x00\n  codecopy\n  0x00\n  return\nstop\n\nsub_0: assembly {\n        /* \"Campaign.sol\":96:1265  contract Campaign {... */\n      mstore(0x40, 0x80)\n      jumpi(tag_1, lt(calldatasize, 0x04))\n      shr(0xe0, calldataload(0x00))\n      dup1\n      0x615d1f03\n      eq\n      tag_2\n      jumpi\n      dup1\n      0x767d78b2\n      eq\n      tag_3\n      jumpi\n      dup1\n      0x7c6abc82\n      eq\n      tag_4\n      jumpi\n      dup1\n      0xa6b03633\n      eq\n      tag_5\n      jumpi\n      dup1\n      0xe5482153\n      eq\n      tag_6\n      jumpi\n      dup1\n      0xf4139c58\n      eq\n      tag_7\n      jumpi\n    tag_1:\n      0x00\n      dup1\n      revert\n        /* \"Campaign.sol\":148:439  function createToken(string memory name, uint amountNeeded, bool accept, uint minAMount) public returns(address) {... */\n    tag_2:\n      callvalue\n      dup1\n      iszero\n      tag_8\n      jumpi\n      0x00\n      dup1\n      revert\n    tag_8:\n      pop\n      tag_9\n      0x04\n      dup1\n      calldatasize\n      sub\n      dup2\n      add\n      swap1\n      tag_10\n      swap2\n      swap1\n      tag_11\n      jump\t// in\n    tag_10:\n      tag_12\n      jump\t// in\n    tag_9:\n      mload(0x40)\n      tag_13\n      swap2\n      swap1\n      tag_14\n      jump\t// in\n    tag_13:\n      mload(0x40)\n      dup1\n      swap2\n      sub\n      swap1\n      return\n        /* \"Campaign.sol\":640:823  function getCampainBalance(address campaignAddress) public view returns(uint) {... */\n    tag_3:\n      callvalue\n      dup1\n      iszero\n      tag_15\n      jumpi\n      0x00\n      dup1\n      revert\n    tag_15:\n      pop\n      tag_16\n      0x04\n      dup1\n      calldatasize\n      sub\n      dup2\n      add\n      swap1\n      tag_17\n      swap2\n      swap1\n      tag_18\n      jump\t// in\n    tag_17:\n      tag_19\n      jump\t// in\n    tag_16:\n      mload(0x40)\n      tag_20\n      swap2\n      swap1\n      tag_21\n      jump\t// in\n    tag_20:\n      mload(0x40)\n      dup1\n      swap2\n      sub\n      swap1\n      return\n        /* \"Campaign.sol\":931:1104  function donateToCampaign(address campaignAddress) payable public {... */\n    tag_4:\n      tag_22\n      0x04\n      dup1\n      calldatasize\n      sub\n      dup2\n      add\n      swap1\n      tag_23\n      swap2\n      swap1\n      tag_18\n      jump\t// in\n    tag_23:\n      tag_24\n      jump\t// in\n    tag_22:\n      stop\n        /* \"Campaign.sol\":829:925  function getCampaigns() view public returns(Donation[] memory) {... */\n    tag_5:\n      callvalue\n      dup1\n      iszero\n      tag_25\n      jumpi\n      0x00\n      dup1\n      revert\n    tag_25:\n      pop\n      tag_26\n      tag_27\n      jump\t// in\n    tag_26:\n      mload(0x40)\n      tag_28\n      swap2\n      swap1\n      tag_29\n      jump\t// in\n    tag_28:\n      mload(0x40)\n      dup1\n      swap2\n      sub\n      swap1\n      return\n        /* \"Campaign.sol\":1110:1263  function withdrawFromCampaign(address campaignAddress) public {... */\n    tag_6:\n      callvalue\n      dup1\n      iszero\n      tag_30\n      jumpi\n      0x00\n      dup1\n      revert\n    tag_30:\n      pop\n      tag_31\n      0x04\n      dup1\n      calldatasize\n      sub\n      dup2\n      add\n      swap1\n      tag_32\n      swap2\n      swap1\n      tag_18\n      jump\t// in\n    tag_32:\n      tag_33\n      jump\t// in\n    tag_31:\n      stop\n        /* \"Campaign.sol\":445:634  function getCampainName(address campaignAddress) public view returns(string memory) {... */\n    tag_7:\n      callvalue\n      dup1\n      iszero\n      tag_34\n      jumpi\n      0x00\n      dup1\n      revert\n    tag_34:\n      pop\n      tag_35\n      0x04\n      dup1\n      calldatasize\n      sub\n      dup2\n      add\n      swap1\n      tag_36\n      swap2\n      swap1\n      tag_18\n      jump\t// in\n    tag_36:\n      tag_37\n      jump\t// in\n    tag_35:\n      mload(0x40)\n      tag_38\n      swap2\n      swap1\n      tag_39\n      jump\t// in\n    tag_38:\n      mload(0x40)\n      dup1\n      swap2\n      sub\n      swap1\n      return\n        /* \"Campaign.sol\":148:439  function createToken(string memory name, uint amountNeeded, bool accept, uint minAMount) public returns(address) {... */\n    tag_12:\n        /* \"Campaign.sol\":252:259  address */\n      0x00\n        /* \"Campaign.sol\":271:288  Donation donation */\n      dup1\n        /* \"Campaign.sol\":317:321  name */\n      dup6\n        /* \"Campaign.sol\":323:332  minAMount */\n      dup4\n        /* \"Campaign.sol\":334:340  accept */\n      dup6\n        /* \"Campaign.sol\":342:354  amountNeeded */\n      dup8\n        /* \"Campaign.sol\":291:364  new Donation(... */\n      mload(0x40)\n      tag_41\n      swap1\n      tag_42\n      jump\t// in\n    tag_41:\n      tag_43\n      swap5\n      swap4\n      swap3\n      swap2\n      swap1\n      tag_44\n      jump\t// in\n    tag_43:\n      mload(0x40)\n      dup1\n      swap2\n      sub\n      swap1\n      0x00\n      create\n      dup1\n      iszero\n      dup1\n      iszero\n      tag_45\n      jumpi\n      returndatasize\n      0x00\n      dup1\n      returndatacopy\n      revert(0x00, returndatasize)\n    tag_45:\n      pop\n        /* \"Campaign.sol\":271:364  Donation donation = new Donation(... */\n      swap1\n      pop\n        /* \"Campaign.sol\":374:383  donations */\n      0x00\n        /* \"Campaign.sol\":389:397  donation */\n      dup2\n        /* \"Campaign.sol\":374:398  donations.push(donation) */\n      swap1\n      dup1\n      0x01\n      dup2\n      sload\n      add\n      dup1\n      dup3\n      sstore\n      dup1\n      swap2\n      pop\n      pop\n      0x01\n      swap1\n      sub\n      swap1\n      0x00\n      mstore\n      keccak256(0x00, 0x20)\n      add\n      0x00\n      swap1\n      swap2\n      swap1\n      swap2\n      swap1\n      swap2\n      0x0100\n      exp\n      dup2\n      sload\n      dup2\n      0xffffffffffffffffffffffffffffffffffffffff\n      mul\n      not\n      and\n      swap1\n      dup4\n      0xffffffffffffffffffffffffffffffffffffffff\n      and\n      mul\n      or\n      swap1\n      sstore\n      pop\n        /* \"Campaign.sol\":423:431  donation */\n      dup1\n        /* \"Campaign.sol\":408:432  return address(donation) */\n      swap2\n      pop\n      pop\n        /* \"Campaign.sol\":148:439  function createToken(string memory name, uint amountNeeded, bool accept, uint minAMount) public returns(address) {... */\n      swap5\n      swap4\n      pop\n      pop\n      pop\n      pop\n      jump\t// out\n        /* \"Campaign.sol\":640:823  function getCampainBalance(address campaignAddress) public view returns(uint) {... */\n    tag_19:\n        /* \"Campaign.sol\":712:716  uint */\n      0x00\n        /* \"Campaign.sol\":728:745  Donation donation */\n      dup1\n        /* \"Campaign.sol\":757:772  campaignAddress */\n      dup3\n        /* \"Campaign.sol\":728:773  Donation donation = Donation(campaignAddress) */\n      swap1\n      pop\n        /* \"Campaign.sol\":790:798  donation */\n      dup1\n        /* \"Campaign.sol\":790:814  donation.donationBalance */\n      0xffffffffffffffffffffffffffffffffffffffff\n      and\n      0xed11f46a\n        /* \"Campaign.sol\":790:816  donation.donationBalance() */\n      mload(0x40)\n      dup2\n      0xffffffff\n      and\n      0xe0\n      shl\n      dup2\n      mstore\n      0x04\n      add\n      0x20\n      mload(0x40)\n      dup1\n      dup4\n      sub\n      dup2\n      dup7\n      dup1\n      extcodesize\n      iszero\n      dup1\n      iszero\n      tag_48\n      jumpi\n      0x00\n      dup1\n      revert\n    tag_48:\n      pop\n      gas\n      staticcall\n      iszero\n      dup1\n      iszero\n      tag_50\n      jumpi\n      returndatasize\n      0x00\n      dup1\n      returndatacopy\n      revert(0x00, returndatasize)\n    tag_50:\n      pop\n      pop\n      pop\n      pop\n      mload(0x40)\n      returndatasize\n      not(0x1f)\n      0x1f\n      dup3\n      add\n      and\n      dup3\n      add\n      dup1\n      0x40\n      mstore\n      pop\n      dup2\n      add\n      swap1\n      tag_51\n      swap2\n      swap1\n      tag_52\n      jump\t// in\n    tag_51:\n        /* \"Campaign.sol\":783:816  return donation.donationBalance() */\n      swap2\n      pop\n      pop\n        /* \"Campaign.sol\":640:823  function getCampainBalance(address campaignAddress) public view returns(uint) {... */\n      swap2\n      swap1\n      pop\n      jump\t// out\n        /* \"Campaign.sol\":931:1104  function donateToCampaign(address campaignAddress) payable public {... */\n    tag_24:\n        /* \"Campaign.sol\":1007:1024  Donation donation */\n      0x00\n        /* \"Campaign.sol\":1036:1051  campaignAddress */\n      dup2\n        /* \"Campaign.sol\":1007:1052  Donation donation = Donation(campaignAddress) */\n      swap1\n      pop\n        /* \"Campaign.sol\":1062:1070  donation */\n      dup1\n        /* \"Campaign.sol\":1062:1077  donation.donate */\n      0xffffffffffffffffffffffffffffffffffffffff\n      and\n      0xed88c68e\n        /* \"Campaign.sol\":1085:1094  msg.value */\n      callvalue\n        /* \"Campaign.sol\":1062:1097  donation.donate{value: msg.value}() */\n      mload(0x40)\n      dup3\n      0xffffffff\n      and\n      0xe0\n      shl\n      dup2\n      mstore\n      0x04\n      add\n      0x00\n      mload(0x40)\n      dup1\n      dup4\n      sub\n      dup2\n      dup6\n      dup9\n      dup1\n      extcodesize\n      iszero\n      dup1\n      iszero\n      tag_54\n      jumpi\n      0x00\n      dup1\n      revert\n    tag_54:\n      pop\n      gas\n      call\n      iszero\n      dup1\n      iszero\n      tag_56\n      jumpi\n      returndatasize\n      0x00\n      dup1\n      returndatacopy\n      revert(0x00, returndatasize)\n    tag_56:\n      pop\n      pop\n      pop\n      pop\n      pop\n        /* \"Campaign.sol\":997:1104  {... */\n      pop\n        /* \"Campaign.sol\":931:1104  function donateToCampaign(address campaignAddress) payable public {... */\n      pop\n      jump\t// out\n        /* \"Campaign.sol\":829:925  function getCampaigns() view public returns(Donation[] memory) {... */\n    tag_27:\n        /* \"Campaign.sol\":873:890  Donation[] memory */\n      0x60\n        /* \"Campaign.sol\":909:918  donations */\n      0x00\n        /* \"Campaign.sol\":902:918  return donations */\n      dup1\n      sload\n      dup1\n      0x20\n      mul\n      0x20\n      add\n      mload(0x40)\n      swap1\n      dup2\n      add\n      0x40\n      mstore\n      dup1\n      swap3\n      swap2\n      swap1\n      dup2\n      dup2\n      mstore\n      0x20\n      add\n      dup3\n      dup1\n      sload\n      dup1\n      iszero\n      tag_58\n      jumpi\n      0x20\n      mul\n      dup3\n      add\n      swap2\n      swap1\n      0x00\n      mstore\n      keccak256(0x00, 0x20)\n      swap1\n    tag_59:\n      dup2\n      0x00\n      swap1\n      sload\n      swap1\n      0x0100\n      exp\n      swap1\n      div\n      0xffffffffffffffffffffffffffffffffffffffff\n      and\n      0xffffffffffffffffffffffffffffffffffffffff\n      and\n      dup2\n      mstore\n      0x20\n      add\n      swap1\n      0x01\n      add\n      swap1\n      dup1\n      dup4\n      gt\n      tag_59\n      jumpi\n    tag_58:\n      pop\n      pop\n      pop\n      pop\n      pop\n      swap1\n      pop\n        /* \"Campaign.sol\":829:925  function getCampaigns() view public returns(Donation[] memory) {... */\n      swap1\n      jump\t// out\n        /* \"Campaign.sol\":1110:1263  function withdrawFromCampaign(address campaignAddress) public {... */\n    tag_33:\n        /* \"Campaign.sol\":1182:1199  Donation donation */\n      0x00\n        /* \"Campaign.sol\":1211:1226  campaignAddress */\n      dup2\n        /* \"Campaign.sol\":1182:1227  Donation donation = Donation(campaignAddress) */\n      swap1\n      pop\n        /* \"Campaign.sol\":1237:1245  donation */\n      dup1\n        /* \"Campaign.sol\":1237:1254  donation.withdraw */\n      0xffffffffffffffffffffffffffffffffffffffff\n      and\n      0x3ccfd60b\n        /* \"Campaign.sol\":1237:1256  donation.withdraw() */\n      mload(0x40)\n      dup2\n      0xffffffff\n      and\n      0xe0\n      shl\n      dup2\n      mstore\n      0x04\n      add\n      0x00\n      mload(0x40)\n      dup1\n      dup4\n      sub\n      dup2\n      0x00\n      dup8\n      dup1\n      extcodesize\n      iszero\n      dup1\n      iszero\n      tag_61\n      jumpi\n      0x00\n      dup1\n      revert\n    tag_61:\n      pop\n      gas\n      call\n      iszero\n      dup1\n      iszero\n      tag_63\n      jumpi\n      returndatasize\n      0x00\n      dup1\n      returndatacopy\n      revert(0x00, returndatasize)\n    tag_63:\n      pop\n      pop\n      pop\n      pop\n        /* \"Campaign.sol\":1172:1263  {... */\n      pop\n        /* \"Campaign.sol\":1110:1263  function withdrawFromCampaign(address campaignAddress) public {... */\n      pop\n      jump\t// out\n        /* \"Campaign.sol\":445:634  function getCampainName(address campaignAddress) public view returns(string memory) {... */\n    tag_37:\n        /* \"Campaign.sol\":514:527  string memory */\n      0x60\n        /* \"Campaign.sol\":539:556  Donation donation */\n      0x00\n        /* \"Campaign.sol\":568:583  campaignAddress */\n      dup3\n        /* \"Campaign.sol\":539:584  Donation donation = Donation(campaignAddress) */\n      swap1\n      pop\n        /* \"Campaign.sol\":601:609  donation */\n      dup1\n        /* \"Campaign.sol\":601:625  donation.getDonationName */\n      0xffffffffffffffffffffffffffffffffffffffff\n      and\n      0xeae3f764\n        /* \"Campaign.sol\":601:627  donation.getDonationName() */\n      mload(0x40)\n      dup2\n      0xffffffff\n      and\n      0xe0\n      shl\n      dup2\n      mstore\n      0x04\n      add\n      0x00\n      mload(0x40)\n      dup1\n      dup4\n      sub\n      dup2\n      dup7\n      dup1\n      extcodesize\n      iszero\n      dup1\n      iszero\n      tag_65\n      jumpi\n      0x00\n      dup1\n      revert\n    tag_65:\n      pop\n      gas\n      staticcall\n      iszero\n      dup1\n      iszero\n      tag_67\n      jumpi\n      returndatasize\n      0x00\n      dup1\n      returndatacopy\n      revert(0x00, returndatasize)\n    tag_67:\n      pop\n      pop\n      pop\n      pop\n      mload(0x40)\n      returndatasize\n      0x00\n      dup3\n      returndatacopy\n      returndatasize\n      not(0x1f)\n      0x1f\n      dup3\n      add\n      and\n      dup3\n      add\n      dup1\n      0x40\n      mstore\n      pop\n      dup2\n      add\n      swap1\n      tag_68\n      swap2\n      swap1\n      tag_69\n      jump\t// in\n    tag_68:\n        /* \"Campaign.sol\":594:627  return donation.getDonationName() */\n      swap2\n      pop\n      pop\n        /* \"Campaign.sol\":445:634  function getCampainName(address campaignAddress) public view returns(string memory) {... */\n      swap2\n      swap1\n      pop\n      jump\t// out\n    tag_42:\n      dataSize(sub_0)\n      dup1\n      dataOffset(sub_0)\n      dup4\n      codecopy\n      add\n      swap1\n      jump\t// out\n        /* \"#utility.yul\":7:419   */\n    tag_71:\n        /* \"#utility.yul\":85:90   */\n      0x00\n        /* \"#utility.yul\":110:176   */\n      tag_73\n        /* \"#utility.yul\":126:175   */\n      tag_74\n        /* \"#utility.yul\":168:174   */\n      dup5\n        /* \"#utility.yul\":126:175   */\n      tag_75\n      jump\t// in\n    tag_74:\n        /* \"#utility.yul\":110:176   */\n      tag_76\n      jump\t// in\n    tag_73:\n        /* \"#utility.yul\":101:176   */\n      swap1\n      pop\n        /* \"#utility.yul\":199:205   */\n      dup3\n        /* \"#utility.yul\":192:197   */\n      dup2\n        /* \"#utility.yul\":185:206   */\n      mstore\n        /* \"#utility.yul\":237:241   */\n      0x20\n        /* \"#utility.yul\":230:235   */\n      dup2\n        /* \"#utility.yul\":226:242   */\n      add\n        /* \"#utility.yul\":275:278   */\n      dup5\n        /* \"#utility.yul\":266:272   */\n      dup5\n        /* \"#utility.yul\":261:264   */\n      dup5\n        /* \"#utility.yul\":257:273   */\n      add\n        /* \"#utility.yul\":254:279   */\n      gt\n        /* \"#utility.yul\":251:363   */\n      iszero\n      tag_77\n      jumpi\n        /* \"#utility.yul\":282:361   */\n      tag_78\n      tag_79\n      jump\t// in\n    tag_78:\n        /* \"#utility.yul\":251:363   */\n    tag_77:\n        /* \"#utility.yul\":372:413   */\n      tag_80\n        /* \"#utility.yul\":406:412   */\n      dup5\n        /* \"#utility.yul\":401:404   */\n      dup3\n        /* \"#utility.yul\":396:399   */\n      dup6\n        /* \"#utility.yul\":372:413   */\n      tag_81\n      jump\t// in\n    tag_80:\n        /* \"#utility.yul\":91:419   */\n      pop\n        /* \"#utility.yul\":7:419   */\n      swap4\n      swap3\n      pop\n      pop\n      pop\n      jump\t// out\n        /* \"#utility.yul\":425:846   */\n    tag_82:\n        /* \"#utility.yul\":514:519   */\n      0x00\n        /* \"#utility.yul\":539:605   */\n      tag_84\n        /* \"#utility.yul\":555:604   */\n      tag_85\n        /* \"#utility.yul\":597:603   */\n      dup5\n        /* \"#utility.yul\":555:604   */\n      tag_75\n      jump\t// in\n    tag_85:\n        /* \"#utility.yul\":539:605   */\n      tag_76\n      jump\t// in\n    tag_84:\n        /* \"#utility.yul\":530:605   */\n      swap1\n      pop\n        /* \"#utility.yul\":628:634   */\n      dup3\n        /* \"#utility.yul\":621:626   */\n      dup2\n        /* \"#utility.yul\":614:635   */\n      mstore\n        /* \"#utility.yul\":666:670   */\n      0x20\n        /* \"#utility.yul\":659:664   */\n      dup2\n        /* \"#utility.yul\":655:671   */\n      add\n        /* \"#utility.yul\":704:707   */\n      dup5\n        /* \"#utility.yul\":695:701   */\n      dup5\n        /* \"#utility.yul\":690:693   */\n      dup5\n        /* \"#utility.yul\":686:702   */\n      add\n        /* \"#utility.yul\":683:708   */\n      gt\n        /* \"#utility.yul\":680:792   */\n      iszero\n      tag_86\n      jumpi\n        /* \"#utility.yul\":711:790   */\n      tag_87\n      tag_79\n      jump\t// in\n    tag_87:\n        /* \"#utility.yul\":680:792   */\n    tag_86:\n        /* \"#utility.yul\":801:840   */\n      tag_88\n        /* \"#utility.yul\":833:839   */\n      dup5\n        /* \"#utility.yul\":828:831   */\n      dup3\n        /* \"#utility.yul\":823:826   */\n      dup6\n        /* \"#utility.yul\":801:840   */\n      tag_89\n      jump\t// in\n    tag_88:\n        /* \"#utility.yul\":520:846   */\n      pop\n        /* \"#utility.yul\":425:846   */\n      swap4\n      swap3\n      pop\n      pop\n      pop\n      jump\t// out\n        /* \"#utility.yul\":852:991   */\n    tag_90:\n        /* \"#utility.yul\":898:903   */\n      0x00\n        /* \"#utility.yul\":936:942   */\n      dup2\n        /* \"#utility.yul\":923:943   */\n      calldataload\n        /* \"#utility.yul\":914:943   */\n      swap1\n      pop\n        /* \"#utility.yul\":952:985   */\n      tag_92\n        /* \"#utility.yul\":979:984   */\n      dup2\n        /* \"#utility.yul\":952:985   */\n      tag_93\n      jump\t// in\n    tag_92:\n        /* \"#utility.yul\":852:991   */\n      swap3\n      swap2\n      pop\n      pop\n      jump\t// out\n        /* \"#utility.yul\":997:1130   */\n    tag_94:\n        /* \"#utility.yul\":1040:1045   */\n      0x00\n        /* \"#utility.yul\":1078:1084   */\n      dup2\n        /* \"#utility.yul\":1065:1085   */\n      calldataload\n        /* \"#utility.yul\":1056:1085   */\n      swap1\n      pop\n        /* \"#utility.yul\":1094:1124   */\n      tag_96\n        /* \"#utility.yul\":1118:1123   */\n      dup2\n        /* \"#utility.yul\":1094:1124   */\n      tag_97\n      jump\t// in\n    tag_96:\n        /* \"#utility.yul\":997:1130   */\n      swap3\n      swap2\n      pop\n      pop\n      jump\t// out\n        /* \"#utility.yul\":1150:1490   */\n    tag_98:\n        /* \"#utility.yul\":1206:1211   */\n      0x00\n        /* \"#utility.yul\":1255:1258   */\n      dup3\n        /* \"#utility.yul\":1248:1252   */\n      0x1f\n        /* \"#utility.yul\":1240:1246   */\n      dup4\n        /* \"#utility.yul\":1236:1253   */\n      add\n        /* \"#utility.yul\":1232:1259   */\n      slt\n        /* \"#utility.yul\":1222:1344   */\n      tag_100\n      jumpi\n        /* \"#utility.yul\":1263:1342   */\n      tag_101\n      tag_102\n      jump\t// in\n    tag_101:\n        /* \"#utility.yul\":1222:1344   */\n    tag_100:\n        /* \"#utility.yul\":1380:1386   */\n      dup2\n        /* \"#utility.yul\":1367:1387   */\n      calldataload\n        /* \"#utility.yul\":1405:1484   */\n      tag_103\n        /* \"#utility.yul\":1480:1483   */\n      dup5\n        /* \"#utility.yul\":1472:1478   */\n      dup3\n        /* \"#utility.yul\":1465:1469   */\n      0x20\n        /* \"#utility.yul\":1457:1463   */\n      dup7\n        /* \"#utility.yul\":1453:1470   */\n      add\n        /* \"#utility.yul\":1405:1484   */\n      tag_71\n      jump\t// in\n    tag_103:\n        /* \"#utility.yul\":1396:1484   */\n      swap2\n      pop\n        /* \"#utility.yul\":1212:1490   */\n      pop\n        /* \"#utility.yul\":1150:1490   */\n      swap3\n      swap2\n      pop\n      pop\n      jump\t// out\n        /* \"#utility.yul\":1510:1865   */\n    tag_104:\n        /* \"#utility.yul\":1577:1582   */\n      0x00\n        /* \"#utility.yul\":1626:1629   */\n      dup3\n        /* \"#utility.yul\":1619:1623   */\n      0x1f\n        /* \"#utility.yul\":1611:1617   */\n      dup4\n        /* \"#utility.yul\":1607:1624   */\n      add\n        /* \"#utility.yul\":1603:1630   */\n      slt\n        /* \"#utility.yul\":1593:1715   */\n      tag_106\n      jumpi\n        /* \"#utility.yul\":1634:1713   */\n      tag_107\n      tag_102\n      jump\t// in\n    tag_107:\n        /* \"#utility.yul\":1593:1715   */\n    tag_106:\n        /* \"#utility.yul\":1744:1750   */\n      dup2\n        /* \"#utility.yul\":1738:1751   */\n      mload\n        /* \"#utility.yul\":1769:1859   */\n      tag_108\n        /* \"#utility.yul\":1855:1858   */\n      dup5\n        /* \"#utility.yul\":1847:1853   */\n      dup3\n        /* \"#utility.yul\":1840:1844   */\n      0x20\n        /* \"#utility.yul\":1832:1838   */\n      dup7\n        /* \"#utility.yul\":1828:1845   */\n      add\n        /* \"#utility.yul\":1769:1859   */\n      tag_82\n      jump\t// in\n    tag_108:\n        /* \"#utility.yul\":1760:1859   */\n      swap2\n      pop\n        /* \"#utility.yul\":1583:1865   */\n      pop\n        /* \"#utility.yul\":1510:1865   */\n      swap3\n      swap2\n      pop\n      pop\n      jump\t// out\n        /* \"#utility.yul\":1871:2010   */\n    tag_109:\n        /* \"#utility.yul\":1917:1922   */\n      0x00\n        /* \"#utility.yul\":1955:1961   */\n      dup2\n        /* \"#utility.yul\":1942:1962   */\n      calldataload\n        /* \"#utility.yul\":1933:1962   */\n      swap1\n      pop\n        /* \"#utility.yul\":1971:2004   */\n      tag_111\n        /* \"#utility.yul\":1998:2003   */\n      dup2\n        /* \"#utility.yul\":1971:2004   */\n      tag_112\n      jump\t// in\n    tag_111:\n        /* \"#utility.yul\":1871:2010   */\n      swap3\n      swap2\n      pop\n      pop\n      jump\t// out\n        /* \"#utility.yul\":2016:2159   */\n    tag_113:\n        /* \"#utility.yul\":2073:2078   */\n      0x00\n        /* \"#utility.yul\":2104:2110   */\n      dup2\n        /* \"#utility.yul\":2098:2111   */\n      mload\n        /* \"#utility.yul\":2089:2111   */\n      swap1\n      pop\n        /* \"#utility.yul\":2120:2153   */\n      tag_115\n        /* \"#utility.yul\":2147:2152   */\n      dup2\n        /* \"#utility.yul\":2120:2153   */\n      tag_112\n      jump\t// in\n    tag_115:\n        /* \"#utility.yul\":2016:2159   */\n      swap3\n      swap2\n      pop\n      pop\n      jump\t// out\n        /* \"#utility.yul\":2165:2494   */\n    tag_18:\n        /* \"#utility.yul\":2224:2230   */\n      0x00\n        /* \"#utility.yul\":2273:2275   */\n      0x20\n        /* \"#utility.yul\":2261:2270   */\n      dup3\n        /* \"#utility.yul\":2252:2259   */\n      dup5\n        /* \"#utility.yul\":2248:2271   */\n      sub\n        /* \"#utility.yul\":2244:2276   */\n      slt\n        /* \"#utility.yul\":2241:2360   */\n      iszero\n      tag_117\n      jumpi\n        /* \"#utility.yul\":2279:2358   */\n      tag_118\n      tag_119\n      jump\t// in\n    tag_118:\n        /* \"#utility.yul\":2241:2360   */\n    tag_117:\n        /* \"#utility.yul\":2399:2400   */\n      0x00\n        /* \"#utility.yul\":2424:2477   */\n      tag_120\n        /* \"#utility.yul\":2469:2476   */\n      dup5\n        /* \"#utility.yul\":2460:2466   */\n      dup3\n        /* \"#utility.yul\":2449:2458   */\n      dup6\n        /* \"#utility.yul\":2445:2467   */\n      add\n        /* \"#utility.yul\":2424:2477   */\n      tag_90\n      jump\t// in\n    tag_120:\n        /* \"#utility.yul\":2414:2477   */\n      swap2\n      pop\n        /* \"#utility.yul\":2370:2487   */\n      pop\n        /* \"#utility.yul\":2165:2494   */\n      swap3\n      swap2\n      pop\n      pop\n      jump\t// out\n        /* \"#utility.yul\":2500:3024   */\n    tag_69:\n        /* \"#utility.yul\":2580:2586   */\n      0x00\n        /* \"#utility.yul\":2629:2631   */\n      0x20\n        /* \"#utility.yul\":2617:2626   */\n      dup3\n        /* \"#utility.yul\":2608:2615   */\n      dup5\n        /* \"#utility.yul\":2604:2627   */\n      sub\n        /* \"#utility.yul\":2600:2632   */\n      slt\n        /* \"#utility.yul\":2597:2716   */\n      iszero\n      tag_122\n      jumpi\n        /* \"#utility.yul\":2635:2714   */\n      tag_123\n      tag_119\n      jump\t// in\n    tag_123:\n        /* \"#utility.yul\":2597:2716   */\n    tag_122:\n        /* \"#utility.yul\":2776:2777   */\n      0x00\n        /* \"#utility.yul\":2765:2774   */\n      dup3\n        /* \"#utility.yul\":2761:2778   */\n      add\n        /* \"#utility.yul\":2755:2779   */\n      mload\n        /* \"#utility.yul\":2806:2824   */\n      0xffffffffffffffff\n        /* \"#utility.yul\":2798:2804   */\n      dup2\n        /* \"#utility.yul\":2795:2825   */\n      gt\n        /* \"#utility.yul\":2792:2909   */\n      iszero\n      tag_124\n      jumpi\n        /* \"#utility.yul\":2828:2907   */\n      tag_125\n      tag_126\n      jump\t// in\n    tag_125:\n        /* \"#utility.yul\":2792:2909   */\n    tag_124:\n        /* \"#utility.yul\":2933:3007   */\n      tag_127\n        /* \"#utility.yul\":2999:3006   */\n      dup5\n        /* \"#utility.yul\":2990:2996   */\n      dup3\n        /* \"#utility.yul\":2979:2988   */\n      dup6\n        /* \"#utility.yul\":2975:2997   */\n      add\n        /* \"#utility.yul\":2933:3007   */\n      tag_104\n      jump\t// in\n    tag_127:\n        /* \"#utility.yul\":2923:3007   */\n      swap2\n      pop\n        /* \"#utility.yul\":2726:3017   */\n      pop\n        /* \"#utility.yul\":2500:3024   */\n      swap3\n      swap2\n      pop\n      pop\n      jump\t// out\n        /* \"#utility.yul\":3030:3969   */\n    tag_11:\n        /* \"#utility.yul\":3123:3129   */\n      0x00\n        /* \"#utility.yul\":3131:3137   */\n      dup1\n        /* \"#utility.yul\":3139:3145   */\n      0x00\n        /* \"#utility.yul\":3147:3153   */\n      dup1\n        /* \"#utility.yul\":3196:3199   */\n      0x80\n        /* \"#utility.yul\":3184:3193   */\n      dup6\n        /* \"#utility.yul\":3175:3182   */\n      dup8\n        /* \"#utility.yul\":3171:3194   */\n      sub\n        /* \"#utility.yul\":3167:3200   */\n      slt\n        /* \"#utility.yul\":3164:3284   */\n      iszero\n      tag_129\n      jumpi\n        /* \"#utility.yul\":3203:3282   */\n      tag_130\n      tag_119\n      jump\t// in\n    tag_130:\n        /* \"#utility.yul\":3164:3284   */\n    tag_129:\n        /* \"#utility.yul\":3351:3352   */\n      0x00\n        /* \"#utility.yul\":3340:3349   */\n      dup6\n        /* \"#utility.yul\":3336:3353   */\n      add\n        /* \"#utility.yul\":3323:3354   */\n      calldataload\n        /* \"#utility.yul\":3381:3399   */\n      0xffffffffffffffff\n        /* \"#utility.yul\":3373:3379   */\n      dup2\n        /* \"#utility.yul\":3370:3400   */\n      gt\n        /* \"#utility.yul\":3367:3484   */\n      iszero\n      tag_131\n      jumpi\n        /* \"#utility.yul\":3403:3482   */\n      tag_132\n      tag_126\n      jump\t// in\n    tag_132:\n        /* \"#utility.yul\":3367:3484   */\n    tag_131:\n        /* \"#utility.yul\":3508:3571   */\n      tag_133\n        /* \"#utility.yul\":3563:3570   */\n      dup8\n        /* \"#utility.yul\":3554:3560   */\n      dup3\n        /* \"#utility.yul\":3543:3552   */\n      dup9\n        /* \"#utility.yul\":3539:3561   */\n      add\n        /* \"#utility.yul\":3508:3571   */\n      tag_98\n      jump\t// in\n    tag_133:\n        /* \"#utility.yul\":3498:3571   */\n      swap5\n      pop\n        /* \"#utility.yul\":3294:3581   */\n      pop\n        /* \"#utility.yul\":3620:3622   */\n      0x20\n        /* \"#utility.yul\":3646:3699   */\n      tag_134\n        /* \"#utility.yul\":3691:3698   */\n      dup8\n        /* \"#utility.yul\":3682:3688   */\n      dup3\n        /* \"#utility.yul\":3671:3680   */\n      dup9\n        /* \"#utility.yul\":3667:3689   */\n      add\n        /* \"#utility.yul\":3646:3699   */\n      tag_109\n      jump\t// in\n    tag_134:\n        /* \"#utility.yul\":3636:3699   */\n      swap4\n      pop\n        /* \"#utility.yul\":3591:3709   */\n      pop\n        /* \"#utility.yul\":3748:3750   */\n      0x40\n        /* \"#utility.yul\":3774:3824   */\n      tag_135\n        /* \"#utility.yul\":3816:3823   */\n      dup8\n        /* \"#utility.yul\":3807:3813   */\n      dup3\n        /* \"#utility.yul\":3796:3805   */\n      dup9\n        /* \"#utility.yul\":3792:3814   */\n      add\n        /* \"#utility.yul\":3774:3824   */\n      tag_94\n      jump\t// in\n    tag_135:\n        /* \"#utility.yul\":3764:3824   */\n      swap3\n      pop\n        /* \"#utility.yul\":3719:3834   */\n      pop\n        /* \"#utility.yul\":3873:3875   */\n      0x60\n        /* \"#utility.yul\":3899:3952   */\n      tag_136\n        /* \"#utility.yul\":3944:3951   */\n      dup8\n        /* \"#utility.yul\":3935:3941   */\n      dup3\n        /* \"#utility.yul\":3924:3933   */\n      dup9\n        /* \"#utility.yul\":3920:3942   */\n      add\n        /* \"#utility.yul\":3899:3952   */\n      tag_109\n      jump\t// in\n    tag_136:\n        /* \"#utility.yul\":3889:3952   */\n      swap2\n      pop\n        /* \"#utility.yul\":3844:3962   */\n      pop\n        /* \"#utility.yul\":3030:3969   */\n      swap3\n      swap6\n      swap2\n      swap5\n      pop\n      swap3\n      pop\n      jump\t// out\n        /* \"#utility.yul\":3975:4326   */\n    tag_52:\n        /* \"#utility.yul\":4045:4051   */\n      0x00\n        /* \"#utility.yul\":4094:4096   */\n      0x20\n        /* \"#utility.yul\":4082:4091   */\n      dup3\n        /* \"#utility.yul\":4073:4080   */\n      dup5\n        /* \"#utility.yul\":4069:4092   */\n      sub\n        /* \"#utility.yul\":4065:4097   */\n      slt\n        /* \"#utility.yul\":4062:4181   */\n      iszero\n      tag_138\n      jumpi\n        /* \"#utility.yul\":4100:4179   */\n      tag_139\n      tag_119\n      jump\t// in\n    tag_139:\n        /* \"#utility.yul\":4062:4181   */\n    tag_138:\n        /* \"#utility.yul\":4220:4221   */\n      0x00\n        /* \"#utility.yul\":4245:4309   */\n      tag_140\n        /* \"#utility.yul\":4301:4308   */\n      dup5\n        /* \"#utility.yul\":4292:4298   */\n      dup3\n        /* \"#utility.yul\":4281:4290   */\n      dup6\n        /* \"#utility.yul\":4277:4299   */\n      add\n        /* \"#utility.yul\":4245:4309   */\n      tag_113\n      jump\t// in\n    tag_140:\n        /* \"#utility.yul\":4235:4309   */\n      swap2\n      pop\n        /* \"#utility.yul\":4191:4319   */\n      pop\n        /* \"#utility.yul\":3975:4326   */\n      swap3\n      swap2\n      pop\n      pop\n      jump\t// out\n        /* \"#utility.yul\":4332:4543   */\n    tag_141:\n        /* \"#utility.yul\":4417:4427   */\n      0x00\n        /* \"#utility.yul\":4438:4500   */\n      tag_143\n        /* \"#utility.yul\":4496:4499   */\n      dup4\n        /* \"#utility.yul\":4488:4494   */\n      dup4\n        /* \"#utility.yul\":4438:4500   */\n      tag_144\n      jump\t// in\n    tag_143:\n        /* \"#utility.yul\":4532:4536   */\n      0x20\n        /* \"#utility.yul\":4527:4530   */\n      dup4\n        /* \"#utility.yul\":4523:4537   */\n      add\n        /* \"#utility.yul\":4509:4537   */\n      swap1\n      pop\n        /* \"#utility.yul\":4332:4543   */\n      swap3\n      swap2\n      pop\n      pop\n      jump\t// out\n        /* \"#utility.yul\":4549:4667   */\n    tag_145:\n        /* \"#utility.yul\":4636:4660   */\n      tag_147\n        /* \"#utility.yul\":4654:4659   */\n      dup2\n        /* \"#utility.yul\":4636:4660   */\n      tag_148\n      jump\t// in\n    tag_147:\n        /* \"#utility.yul\":4631:4634   */\n      dup3\n        /* \"#utility.yul\":4624:4661   */\n      mstore\n        /* \"#utility.yul\":4549:4667   */\n      pop\n      pop\n      jump\t// out\n        /* \"#utility.yul\":4713:5525   */\n    tag_149:\n        /* \"#utility.yul\":4848:4851   */\n      0x00\n        /* \"#utility.yul\":4877:4947   */\n      tag_151\n        /* \"#utility.yul\":4941:4946   */\n      dup3\n        /* \"#utility.yul\":4877:4947   */\n      tag_152\n      jump\t// in\n    tag_151:\n        /* \"#utility.yul\":4963:5049   */\n      tag_153\n        /* \"#utility.yul\":5042:5048   */\n      dup2\n        /* \"#utility.yul\":5037:5040   */\n      dup6\n        /* \"#utility.yul\":4963:5049   */\n      tag_154\n      jump\t// in\n    tag_153:\n        /* \"#utility.yul\":4956:5049   */\n      swap4\n      pop\n        /* \"#utility.yul\":5073:5145   */\n      tag_155\n        /* \"#utility.yul\":5139:5144   */\n      dup4\n        /* \"#utility.yul\":5073:5145   */\n      tag_156\n      jump\t// in\n    tag_155:\n        /* \"#utility.yul\":5168:5175   */\n      dup1\n        /* \"#utility.yul\":5199:5200   */\n      0x00\n        /* \"#utility.yul\":5184:5500   */\n    tag_157:\n        /* \"#utility.yul\":5209:5215   */\n      dup4\n        /* \"#utility.yul\":5206:5207   */\n      dup2\n        /* \"#utility.yul\":5203:5216   */\n      lt\n        /* \"#utility.yul\":5184:5500   */\n      iszero\n      tag_159\n      jumpi\n        /* \"#utility.yul\":5285:5291   */\n      dup2\n        /* \"#utility.yul\":5279:5292   */\n      mload\n        /* \"#utility.yul\":5312:5391   */\n      tag_160\n        /* \"#utility.yul\":5387:5390   */\n      dup9\n        /* \"#utility.yul\":5372:5385   */\n      dup3\n        /* \"#utility.yul\":5312:5391   */\n      tag_141\n      jump\t// in\n    tag_160:\n        /* \"#utility.yul\":5305:5391   */\n      swap8\n      pop\n        /* \"#utility.yul\":5414:5490   */\n      tag_161\n        /* \"#utility.yul\":5483:5489   */\n      dup4\n        /* \"#utility.yul\":5414:5490   */\n      tag_162\n      jump\t// in\n    tag_161:\n        /* \"#utility.yul\":5404:5490   */\n      swap3\n      pop\n        /* \"#utility.yul\":5244:5500   */\n      pop\n        /* \"#utility.yul\":5231:5232   */\n      0x01\n        /* \"#utility.yul\":5228:5229   */\n      dup2\n        /* \"#utility.yul\":5224:5233   */\n      add\n        /* \"#utility.yul\":5219:5233   */\n      swap1\n      pop\n        /* \"#utility.yul\":5184:5500   */\n      jump(tag_157)\n    tag_159:\n        /* \"#utility.yul\":5188:5202   */\n      pop\n        /* \"#utility.yul\":5516:5519   */\n      dup6\n        /* \"#utility.yul\":5509:5519   */\n      swap4\n      pop\n        /* \"#utility.yul\":4853:5525   */\n      pop\n      pop\n      pop\n        /* \"#utility.yul\":4713:5525   */\n      swap3\n      swap2\n      pop\n      pop\n      jump\t// out\n        /* \"#utility.yul\":5531:5640   */\n    tag_163:\n        /* \"#utility.yul\":5612:5633   */\n      tag_165\n        /* \"#utility.yul\":5627:5632   */\n      dup2\n        /* \"#utility.yul\":5612:5633   */\n      tag_166\n      jump\t// in\n    tag_165:\n        /* \"#utility.yul\":5607:5610   */\n      dup3\n        /* \"#utility.yul\":5600:5634   */\n      mstore\n        /* \"#utility.yul\":5531:5640   */\n      pop\n      pop\n      jump\t// out\n        /* \"#utility.yul\":5646:5799   */\n    tag_144:\n        /* \"#utility.yul\":5739:5792   */\n      tag_168\n        /* \"#utility.yul\":5786:5791   */\n      dup2\n        /* \"#utility.yul\":5739:5792   */\n      tag_169\n      jump\t// in\n    tag_168:\n        /* \"#utility.yul\":5734:5737   */\n      dup3\n        /* \"#utility.yul\":5727:5793   */\n      mstore\n        /* \"#utility.yul\":5646:5799   */\n      pop\n      pop\n      jump\t// out\n        /* \"#utility.yul\":5805:6169   */\n    tag_170:\n        /* \"#utility.yul\":5893:5896   */\n      0x00\n        /* \"#utility.yul\":5921:5960   */\n      tag_172\n        /* \"#utility.yul\":5954:5959   */\n      dup3\n        /* \"#utility.yul\":5921:5960   */\n      tag_173\n      jump\t// in\n    tag_172:\n        /* \"#utility.yul\":5976:6047   */\n      tag_174\n        /* \"#utility.yul\":6040:6046   */\n      dup2\n        /* \"#utility.yul\":6035:6038   */\n      dup6\n        /* \"#utility.yul\":5976:6047   */\n      tag_175\n      jump\t// in\n    tag_174:\n        /* \"#utility.yul\":5969:6047   */\n      swap4\n      pop\n        /* \"#utility.yul\":6056:6108   */\n      tag_176\n        /* \"#utility.yul\":6101:6107   */\n      dup2\n        /* \"#utility.yul\":6096:6099   */\n      dup6\n        /* \"#utility.yul\":6089:6093   */\n      0x20\n        /* \"#utility.yul\":6082:6087   */\n      dup7\n        /* \"#utility.yul\":6078:6094   */\n      add\n        /* \"#utility.yul\":6056:6108   */\n      tag_89\n      jump\t// in\n    tag_176:\n        /* \"#utility.yul\":6133:6162   */\n      tag_177\n        /* \"#utility.yul\":6155:6161   */\n      dup2\n        /* \"#utility.yul\":6133:6162   */\n      tag_178\n      jump\t// in\n    tag_177:\n        /* \"#utility.yul\":6128:6131   */\n      dup5\n        /* \"#utility.yul\":6124:6163   */\n      add\n        /* \"#utility.yul\":6117:6163   */\n      swap2\n      pop\n        /* \"#utility.yul\":5897:6169   */\n      pop\n        /* \"#utility.yul\":5805:6169   */\n      swap3\n      swap2\n      pop\n      pop\n      jump\t// out\n        /* \"#utility.yul\":6175:6293   */\n    tag_179:\n        /* \"#utility.yul\":6262:6286   */\n      tag_181\n        /* \"#utility.yul\":6280:6285   */\n      dup2\n        /* \"#utility.yul\":6262:6286   */\n      tag_182\n      jump\t// in\n    tag_181:\n        /* \"#utility.yul\":6257:6260   */\n      dup3\n        /* \"#utility.yul\":6250:6287   */\n      mstore\n        /* \"#utility.yul\":6175:6293   */\n      pop\n      pop\n      jump\t// out\n        /* \"#utility.yul\":6299:6521   */\n    tag_14:\n        /* \"#utility.yul\":6392:6396   */\n      0x00\n        /* \"#utility.yul\":6430:6432   */\n      0x20\n        /* \"#utility.yul\":6419:6428   */\n      dup3\n        /* \"#utility.yul\":6415:6433   */\n      add\n        /* \"#utility.yul\":6407:6433   */\n      swap1\n      pop\n        /* \"#utility.yul\":6443:6514   */\n      tag_184\n        /* \"#utility.yul\":6511:6512   */\n      0x00\n        /* \"#utility.yul\":6500:6509   */\n      dup4\n        /* \"#utility.yul\":6496:6513   */\n      add\n        /* \"#utility.yul\":6487:6493   */\n      dup5\n        /* \"#utility.yul\":6443:6514   */\n      tag_145\n      jump\t// in\n    tag_184:\n        /* \"#utility.yul\":6299:6521   */\n      swap3\n      swap2\n      pop\n      pop\n      jump\t// out\n        /* \"#utility.yul\":6527:6932   */\n    tag_29:\n        /* \"#utility.yul\":6686:6690   */\n      0x00\n        /* \"#utility.yul\":6724:6726   */\n      0x20\n        /* \"#utility.yul\":6713:6722   */\n      dup3\n        /* \"#utility.yul\":6709:6727   */\n      add\n        /* \"#utility.yul\":6701:6727   */\n      swap1\n      pop\n        /* \"#utility.yul\":6773:6782   */\n      dup2\n        /* \"#utility.yul\":6767:6771   */\n      dup2\n        /* \"#utility.yul\":6763:6783   */\n      sub\n        /* \"#utility.yul\":6759:6760   */\n      0x00\n        /* \"#utility.yul\":6748:6757   */\n      dup4\n        /* \"#utility.yul\":6744:6761   */\n      add\n        /* \"#utility.yul\":6737:6784   */\n      mstore\n        /* \"#utility.yul\":6801:6925   */\n      tag_186\n        /* \"#utility.yul\":6920:6924   */\n      dup2\n        /* \"#utility.yul\":6911:6917   */\n      dup5\n        /* \"#utility.yul\":6801:6925   */\n      tag_149\n      jump\t// in\n    tag_186:\n        /* \"#utility.yul\":6793:6925   */\n      swap1\n      pop\n        /* \"#utility.yul\":6527:6932   */\n      swap3\n      swap2\n      pop\n      pop\n      jump\t// out\n        /* \"#utility.yul\":6938:7251   */\n    tag_39:\n        /* \"#utility.yul\":7051:7055   */\n      0x00\n        /* \"#utility.yul\":7089:7091   */\n      0x20\n        /* \"#utility.yul\":7078:7087   */\n      dup3\n        /* \"#utility.yul\":7074:7092   */\n      add\n        /* \"#utility.yul\":7066:7092   */\n      swap1\n      pop\n        /* \"#utility.yul\":7138:7147   */\n      dup2\n        /* \"#utility.yul\":7132:7136   */\n      dup2\n        /* \"#utility.yul\":7128:7148   */\n      sub\n        /* \"#utility.yul\":7124:7125   */\n      0x00\n        /* \"#utility.yul\":7113:7122   */\n      dup4\n        /* \"#utility.yul\":7109:7126   */\n      add\n        /* \"#utility.yul\":7102:7149   */\n      mstore\n        /* \"#utility.yul\":7166:7244   */\n      tag_188\n        /* \"#utility.yul\":7239:7243   */\n      dup2\n        /* \"#utility.yul\":7230:7236   */\n      dup5\n        /* \"#utility.yul\":7166:7244   */\n      tag_170\n      jump\t// in\n    tag_188:\n        /* \"#utility.yul\":7158:7244   */\n      swap1\n      pop\n        /* \"#utility.yul\":6938:7251   */\n      swap3\n      swap2\n      pop\n      pop\n      jump\t// out\n        /* \"#utility.yul\":7257:7889   */\n    tag_44:\n        /* \"#utility.yul\":7448:7452   */\n      0x00\n        /* \"#utility.yul\":7486:7489   */\n      0x80\n        /* \"#utility.yul\":7475:7484   */\n      dup3\n        /* \"#utility.yul\":7471:7490   */\n      add\n        /* \"#utility.yul\":7463:7490   */\n      swap1\n      pop\n        /* \"#utility.yul\":7536:7545   */\n      dup2\n        /* \"#utility.yul\":7530:7534   */\n      dup2\n        /* \"#utility.yul\":7526:7546   */\n      sub\n        /* \"#utility.yul\":7522:7523   */\n      0x00\n        /* \"#utility.yul\":7511:7520   */\n      dup4\n        /* \"#utility.yul\":7507:7524   */\n      add\n        /* \"#utility.yul\":7500:7547   */\n      mstore\n        /* \"#utility.yul\":7564:7642   */\n      tag_190\n        /* \"#utility.yul\":7637:7641   */\n      dup2\n        /* \"#utility.yul\":7628:7634   */\n      dup8\n        /* \"#utility.yul\":7564:7642   */\n      tag_170\n      jump\t// in\n    tag_190:\n        /* \"#utility.yul\":7556:7642   */\n      swap1\n      pop\n        /* \"#utility.yul\":7652:7724   */\n      tag_191\n        /* \"#utility.yul\":7720:7722   */\n      0x20\n        /* \"#utility.yul\":7709:7718   */\n      dup4\n        /* \"#utility.yul\":7705:7723   */\n      add\n        /* \"#utility.yul\":7696:7702   */\n      dup7\n        /* \"#utility.yul\":7652:7724   */\n      tag_179\n      jump\t// in\n    tag_191:\n        /* \"#utility.yul\":7734:7800   */\n      tag_192\n        /* \"#utility.yul\":7796:7798   */\n      0x40\n        /* \"#utility.yul\":7785:7794   */\n      dup4\n        /* \"#utility.yul\":7781:7799   */\n      add\n        /* \"#utility.yul\":7772:7778   */\n      dup6\n        /* \"#utility.yul\":7734:7800   */\n      tag_163\n      jump\t// in\n    tag_192:\n        /* \"#utility.yul\":7810:7882   */\n      tag_193\n        /* \"#utility.yul\":7878:7880   */\n      0x60\n        /* \"#utility.yul\":7867:7876   */\n      dup4\n        /* \"#utility.yul\":7863:7881   */\n      add\n        /* \"#utility.yul\":7854:7860   */\n      dup5\n        /* \"#utility.yul\":7810:7882   */\n      tag_179\n      jump\t// in\n    tag_193:\n        /* \"#utility.yul\":7257:7889   */\n      swap6\n      swap5\n      pop\n      pop\n      pop\n      pop\n      pop\n      jump\t// out\n        /* \"#utility.yul\":7895:8117   */\n    tag_21:\n        /* \"#utility.yul\":7988:7992   */\n      0x00\n        /* \"#utility.yul\":8026:8028   */\n      0x20\n        /* \"#utility.yul\":8015:8024   */\n      dup3\n        /* \"#utility.yul\":8011:8029   */\n      add\n        /* \"#utility.yul\":8003:8029   */\n      swap1\n      pop\n        /* \"#utility.yul\":8039:8110   */\n      tag_195\n        /* \"#utility.yul\":8107:8108   */\n      0x00\n        /* \"#utility.yul\":8096:8105   */\n      dup4\n        /* \"#utility.yul\":8092:8109   */\n      add\n        /* \"#utility.yul\":8083:8089   */\n      dup5\n        /* \"#utility.yul\":8039:8110   */\n      tag_179\n      jump\t// in\n    tag_195:\n        /* \"#utility.yul\":7895:8117   */\n      swap3\n      swap2\n      pop\n      pop\n      jump\t// out\n        /* \"#utility.yul\":8123:8252   */\n    tag_76:\n        /* \"#utility.yul\":8157:8163   */\n      0x00\n        /* \"#utility.yul\":8184:8204   */\n      tag_197\n      tag_198\n      jump\t// in\n    tag_197:\n        /* \"#utility.yul\":8174:8204   */\n      swap1\n      pop\n        /* \"#utility.yul\":8213:8246   */\n      tag_199\n        /* \"#utility.yul\":8241:8245   */\n      dup3\n        /* \"#utility.yul\":8233:8239   */\n      dup3\n        /* \"#utility.yul\":8213:8246   */\n      tag_200\n      jump\t// in\n    tag_199:\n        /* \"#utility.yul\":8123:8252   */\n      swap2\n      swap1\n      pop\n      jump\t// out\n        /* \"#utility.yul\":8258:8333   */\n    tag_198:\n        /* \"#utility.yul\":8291:8297   */\n      0x00\n        /* \"#utility.yul\":8324:8326   */\n      0x40\n        /* \"#utility.yul\":8318:8327   */\n      mload\n        /* \"#utility.yul\":8308:8327   */\n      swap1\n      pop\n        /* \"#utility.yul\":8258:8333   */\n      swap1\n      jump\t// out\n        /* \"#utility.yul\":8339:8647   */\n    tag_75:\n        /* \"#utility.yul\":8401:8405   */\n      0x00\n        /* \"#utility.yul\":8491:8509   */\n      0xffffffffffffffff\n        /* \"#utility.yul\":8483:8489   */\n      dup3\n        /* \"#utility.yul\":8480:8510   */\n      gt\n        /* \"#utility.yul\":8477:8533   */\n      iszero\n      tag_203\n      jumpi\n        /* \"#utility.yul\":8513:8531   */\n      tag_204\n      tag_205\n      jump\t// in\n    tag_204:\n        /* \"#utility.yul\":8477:8533   */\n    tag_203:\n        /* \"#utility.yul\":8551:8580   */\n      tag_206\n        /* \"#utility.yul\":8573:8579   */\n      dup3\n        /* \"#utility.yul\":8551:8580   */\n      tag_178\n      jump\t// in\n    tag_206:\n        /* \"#utility.yul\":8543:8580   */\n      swap1\n      pop\n        /* \"#utility.yul\":8635:8639   */\n      0x20\n        /* \"#utility.yul\":8629:8633   */\n      dup2\n        /* \"#utility.yul\":8625:8640   */\n      add\n        /* \"#utility.yul\":8617:8640   */\n      swap1\n      pop\n        /* \"#utility.yul\":8339:8647   */\n      swap2\n      swap1\n      pop\n      jump\t// out\n        /* \"#utility.yul\":8653:8801   */\n    tag_156:\n        /* \"#utility.yul\":8736:8740   */\n      0x00\n        /* \"#utility.yul\":8759:8762   */\n      dup2\n        /* \"#utility.yul\":8751:8762   */\n      swap1\n      pop\n        /* \"#utility.yul\":8789:8793   */\n      0x20\n        /* \"#utility.yul\":8784:8787   */\n      dup3\n        /* \"#utility.yul\":8780:8794   */\n      add\n        /* \"#utility.yul\":8772:8794   */\n      swap1\n      pop\n        /* \"#utility.yul\":8653:8801   */\n      swap2\n      swap1\n      pop\n      jump\t// out\n        /* \"#utility.yul\":8807:8937   */\n    tag_152:\n        /* \"#utility.yul\":8890:8896   */\n      0x00\n        /* \"#utility.yul\":8924:8929   */\n      dup2\n        /* \"#utility.yul\":8918:8930   */\n      mload\n        /* \"#utility.yul\":8908:8930   */\n      swap1\n      pop\n        /* \"#utility.yul\":8807:8937   */\n      swap2\n      swap1\n      pop\n      jump\t// out\n        /* \"#utility.yul\":8943:9042   */\n    tag_173:\n        /* \"#utility.yul\":8995:9001   */\n      0x00\n        /* \"#utility.yul\":9029:9034   */\n      dup2\n        /* \"#utility.yul\":9023:9035   */\n      mload\n        /* \"#utility.yul\":9013:9035   */\n      swap1\n      pop\n        /* \"#utility.yul\":8943:9042   */\n      swap2\n      swap1\n      pop\n      jump\t// out\n        /* \"#utility.yul\":9048:9177   */\n    tag_162:\n        /* \"#utility.yul\":9134:9138   */\n      0x00\n        /* \"#utility.yul\":9166:9170   */\n      0x20\n        /* \"#utility.yul\":9161:9164   */\n      dup3\n        /* \"#utility.yul\":9157:9171   */\n      add\n        /* \"#utility.yul\":9149:9171   */\n      swap1\n      pop\n        /* \"#utility.yul\":9048:9177   */\n      swap2\n      swap1\n      pop\n      jump\t// out\n        /* \"#utility.yul\":9183:9367   */\n    tag_154:\n        /* \"#utility.yul\":9282:9293   */\n      0x00\n        /* \"#utility.yul\":9316:9322   */\n      dup3\n        /* \"#utility.yul\":9311:9314   */\n      dup3\n        /* \"#utility.yul\":9304:9323   */\n      mstore\n        /* \"#utility.yul\":9356:9360   */\n      0x20\n        /* \"#utility.yul\":9351:9354   */\n      dup3\n        /* \"#utility.yul\":9347:9361   */\n      add\n        /* \"#utility.yul\":9332:9361   */\n      swap1\n      pop\n        /* \"#utility.yul\":9183:9367   */\n      swap3\n      swap2\n      pop\n      pop\n      jump\t// out\n        /* \"#utility.yul\":9373:9542   */\n    tag_175:\n        /* \"#utility.yul\":9457:9468   */\n      0x00\n        /* \"#utility.yul\":9491:9497   */\n      dup3\n        /* \"#utility.yul\":9486:9489   */\n      dup3\n        /* \"#utility.yul\":9479:9498   */\n      mstore\n        /* \"#utility.yul\":9531:9535   */\n      0x20\n        /* \"#utility.yul\":9526:9529   */\n      dup3\n        /* \"#utility.yul\":9522:9536   */\n      add\n        /* \"#utility.yul\":9507:9536   */\n      swap1\n      pop\n        /* \"#utility.yul\":9373:9542   */\n      swap3\n      swap2\n      pop\n      pop\n      jump\t// out\n        /* \"#utility.yul\":9548:9644   */\n    tag_148:\n        /* \"#utility.yul\":9585:9592   */\n      0x00\n        /* \"#utility.yul\":9614:9638   */\n      tag_214\n        /* \"#utility.yul\":9632:9637   */\n      dup3\n        /* \"#utility.yul\":9614:9638   */\n      tag_215\n      jump\t// in\n    tag_214:\n        /* \"#utility.yul\":9603:9638   */\n      swap1\n      pop\n        /* \"#utility.yul\":9548:9644   */\n      swap2\n      swap1\n      pop\n      jump\t// out\n        /* \"#utility.yul\":9650:9740   */\n    tag_166:\n        /* \"#utility.yul\":9684:9691   */\n      0x00\n        /* \"#utility.yul\":9727:9732   */\n      dup2\n        /* \"#utility.yul\":9720:9733   */\n      iszero\n        /* \"#utility.yul\":9713:9734   */\n      iszero\n        /* \"#utility.yul\":9702:9734   */\n      swap1\n      pop\n        /* \"#utility.yul\":9650:9740   */\n      swap2\n      swap1\n      pop\n      jump\t// out\n        /* \"#utility.yul\":9746:9872   */\n    tag_215:\n        /* \"#utility.yul\":9783:9790   */\n      0x00\n        /* \"#utility.yul\":9823:9865   */\n      0xffffffffffffffffffffffffffffffffffffffff\n        /* \"#utility.yul\":9816:9821   */\n      dup3\n        /* \"#utility.yul\":9812:9866   */\n      and\n        /* \"#utility.yul\":9801:9866   */\n      swap1\n      pop\n        /* \"#utility.yul\":9746:9872   */\n      swap2\n      swap1\n      pop\n      jump\t// out\n        /* \"#utility.yul\":9878:9955   */\n    tag_182:\n        /* \"#utility.yul\":9915:9922   */\n      0x00\n        /* \"#utility.yul\":9944:9949   */\n      dup2\n        /* \"#utility.yul\":9933:9949   */\n      swap1\n      pop\n        /* \"#utility.yul\":9878:9955   */\n      swap2\n      swap1\n      pop\n      jump\t// out\n        /* \"#utility.yul\":9961:10103   */\n    tag_169:\n        /* \"#utility.yul\":10027:10036   */\n      0x00\n        /* \"#utility.yul\":10060:10097   */\n      tag_220\n        /* \"#utility.yul\":10091:10096   */\n      dup3\n        /* \"#utility.yul\":10060:10097   */\n      tag_221\n      jump\t// in\n    tag_220:\n        /* \"#utility.yul\":10047:10097   */\n      swap1\n      pop\n        /* \"#utility.yul\":9961:10103   */\n      swap2\n      swap1\n      pop\n      jump\t// out\n        /* \"#utility.yul\":10109:10235   */\n    tag_221:\n        /* \"#utility.yul\":10159:10168   */\n      0x00\n        /* \"#utility.yul\":10192:10229   */\n      tag_223\n        /* \"#utility.yul\":10223:10228   */\n      dup3\n        /* \"#utility.yul\":10192:10229   */\n      tag_224\n      jump\t// in\n    tag_223:\n        /* \"#utility.yul\":10179:10229   */\n      swap1\n      pop\n        /* \"#utility.yul\":10109:10235   */\n      swap2\n      swap1\n      pop\n      jump\t// out\n        /* \"#utility.yul\":10241:10354   */\n    tag_224:\n        /* \"#utility.yul\":10291:10300   */\n      0x00\n        /* \"#utility.yul\":10324:10348   */\n      tag_226\n        /* \"#utility.yul\":10342:10347   */\n      dup3\n        /* \"#utility.yul\":10324:10348   */\n      tag_215\n      jump\t// in\n    tag_226:\n        /* \"#utility.yul\":10311:10348   */\n      swap1\n      pop\n        /* \"#utility.yul\":10241:10354   */\n      swap2\n      swap1\n      pop\n      jump\t// out\n        /* \"#utility.yul\":10360:10514   */\n    tag_81:\n        /* \"#utility.yul\":10444:10450   */\n      dup3\n        /* \"#utility.yul\":10439:10442   */\n      dup2\n        /* \"#utility.yul\":10434:10437   */\n      dup4\n        /* \"#utility.yul\":10421:10451   */\n      calldatacopy\n        /* \"#utility.yul\":10506:10507   */\n      0x00\n        /* \"#utility.yul\":10497:10503   */\n      dup4\n        /* \"#utility.yul\":10492:10495   */\n      dup4\n        /* \"#utility.yul\":10488:10504   */\n      add\n        /* \"#utility.yul\":10481:10508   */\n      mstore\n        /* \"#utility.yul\":10360:10514   */\n      pop\n      pop\n      pop\n      jump\t// out\n        /* \"#utility.yul\":10520:10827   */\n    tag_89:\n        /* \"#utility.yul\":10588:10589   */\n      0x00\n        /* \"#utility.yul\":10598:10711   */\n    tag_229:\n        /* \"#utility.yul\":10612:10618   */\n      dup4\n        /* \"#utility.yul\":10609:10610   */\n      dup2\n        /* \"#utility.yul\":10606:10619   */\n      lt\n        /* \"#utility.yul\":10598:10711   */\n      iszero\n      tag_231\n      jumpi\n        /* \"#utility.yul\":10697:10698   */\n      dup1\n        /* \"#utility.yul\":10692:10695   */\n      dup3\n        /* \"#utility.yul\":10688:10699   */\n      add\n        /* \"#utility.yul\":10682:10700   */\n      mload\n        /* \"#utility.yul\":10678:10679   */\n      dup2\n        /* \"#utility.yul\":10673:10676   */\n      dup5\n        /* \"#utility.yul\":10669:10680   */\n      add\n        /* \"#utility.yul\":10662:10701   */\n      mstore\n        /* \"#utility.yul\":10634:10636   */\n      0x20\n        /* \"#utility.yul\":10631:10632   */\n      dup2\n        /* \"#utility.yul\":10627:10637   */\n      add\n        /* \"#utility.yul\":10622:10637   */\n      swap1\n      pop\n        /* \"#utility.yul\":10598:10711   */\n      jump(tag_229)\n    tag_231:\n        /* \"#utility.yul\":10729:10735   */\n      dup4\n        /* \"#utility.yul\":10726:10727   */\n      dup2\n        /* \"#utility.yul\":10723:10736   */\n      gt\n        /* \"#utility.yul\":10720:10821   */\n      iszero\n      tag_232\n      jumpi\n        /* \"#utility.yul\":10809:10810   */\n      0x00\n        /* \"#utility.yul\":10800:10806   */\n      dup5\n        /* \"#utility.yul\":10795:10798   */\n      dup5\n        /* \"#utility.yul\":10791:10807   */\n      add\n        /* \"#utility.yul\":10784:10811   */\n      mstore\n        /* \"#utility.yul\":10720:10821   */\n    tag_232:\n        /* \"#utility.yul\":10569:10827   */\n      pop\n        /* \"#utility.yul\":10520:10827   */\n      pop\n      pop\n      pop\n      jump\t// out\n        /* \"#utility.yul\":10833:11114   */\n    tag_200:\n        /* \"#utility.yul\":10916:10943   */\n      tag_234\n        /* \"#utility.yul\":10938:10942   */\n      dup3\n        /* \"#utility.yul\":10916:10943   */\n      tag_178\n      jump\t// in\n    tag_234:\n        /* \"#utility.yul\":10908:10914   */\n      dup2\n        /* \"#utility.yul\":10904:10944   */\n      add\n        /* \"#utility.yul\":11046:11052   */\n      dup2\n        /* \"#utility.yul\":11034:11044   */\n      dup2\n        /* \"#utility.yul\":11031:11053   */\n      lt\n        /* \"#utility.yul\":11010:11028   */\n      0xffffffffffffffff\n        /* \"#utility.yul\":10998:11008   */\n      dup3\n        /* \"#utility.yul\":10995:11029   */\n      gt\n        /* \"#utility.yul\":10992:11054   */\n      or\n        /* \"#utility.yul\":10989:11077   */\n      iszero\n      tag_235\n      jumpi\n        /* \"#utility.yul\":11057:11075   */\n      tag_236\n      tag_205\n      jump\t// in\n    tag_236:\n        /* \"#utility.yul\":10989:11077   */\n    tag_235:\n        /* \"#utility.yul\":11097:11107   */\n      dup1\n        /* \"#utility.yul\":11093:11095   */\n      0x40\n        /* \"#utility.yul\":11086:11108   */\n      mstore\n        /* \"#utility.yul\":10876:11114   */\n      pop\n        /* \"#utility.yul\":10833:11114   */\n      pop\n      pop\n      jump\t// out\n        /* \"#utility.yul\":11120:11300   */\n    tag_205:\n        /* \"#utility.yul\":11168:11245   */\n      0x4e487b7100000000000000000000000000000000000000000000000000000000\n        /* \"#utility.yul\":11165:11166   */\n      0x00\n        /* \"#utility.yul\":11158:11246   */\n      mstore\n        /* \"#utility.yul\":11265:11269   */\n      0x41\n        /* \"#utility.yul\":11262:11263   */\n      0x04\n        /* \"#utility.yul\":11255:11270   */\n      mstore\n        /* \"#utility.yul\":11289:11293   */\n      0x24\n        /* \"#utility.yul\":11286:11287   */\n      0x00\n        /* \"#utility.yul\":11279:11294   */\n      revert\n        /* \"#utility.yul\":11306:11423   */\n    tag_102:\n        /* \"#utility.yul\":11415:11416   */\n      0x00\n        /* \"#utility.yul\":11412:11413   */\n      dup1\n        /* \"#utility.yul\":11405:11417   */\n      revert\n        /* \"#utility.yul\":11429:11546   */\n    tag_79:\n        /* \"#utility.yul\":11538:11539   */\n      0x00\n        /* \"#utility.yul\":11535:11536   */\n      dup1\n        /* \"#utility.yul\":11528:11540   */\n      revert\n        /* \"#utility.yul\":11552:11669   */\n    tag_126:\n        /* \"#utility.yul\":11661:11662   */\n      0x00\n        /* \"#utility.yul\":11658:11659   */\n      dup1\n        /* \"#utility.yul\":11651:11663   */\n      revert\n        /* \"#utility.yul\":11675:11792   */\n    tag_119:\n        /* \"#utility.yul\":11784:11785   */\n      0x00\n        /* \"#utility.yul\":11781:11782   */\n      dup1\n        /* \"#utility.yul\":11774:11786   */\n      revert\n        /* \"#utility.yul\":11798:11900   */\n    tag_178:\n        /* \"#utility.yul\":11839:11845   */\n      0x00\n        /* \"#utility.yul\":11890:11892   */\n      0x1f\n        /* \"#utility.yul\":11886:11893   */\n      not\n        /* \"#utility.yul\":11881:11883   */\n      0x1f\n        /* \"#utility.yul\":11874:11879   */\n      dup4\n        /* \"#utility.yul\":11870:11884   */\n      add\n        /* \"#utility.yul\":11866:11894   */\n      and\n        /* \"#utility.yul\":11856:11894   */\n      swap1\n      pop\n        /* \"#utility.yul\":11798:11900   */\n      swap2\n      swap1\n      pop\n      jump\t// out\n        /* \"#utility.yul\":11906:12028   */\n    tag_93:\n        /* \"#utility.yul\":11979:12003   */\n      tag_244\n        /* \"#utility.yul\":11997:12002   */\n      dup2\n        /* \"#utility.yul\":11979:12003   */\n      tag_148\n      jump\t// in\n    tag_244:\n        /* \"#utility.yul\":11972:11977   */\n      dup2\n        /* \"#utility.yul\":11969:12004   */\n      eq\n        /* \"#utility.yul\":11959:12022   */\n      tag_245\n      jumpi\n        /* \"#utility.yul\":12018:12019   */\n      0x00\n        /* \"#utility.yul\":12015:12016   */\n      dup1\n        /* \"#utility.yul\":12008:12020   */\n      revert\n        /* \"#utility.yul\":11959:12022   */\n    tag_245:\n        /* \"#utility.yul\":11906:12028   */\n      pop\n      jump\t// out\n        /* \"#utility.yul\":12034:12150   */\n    tag_97:\n        /* \"#utility.yul\":12104:12125   */\n      tag_247\n        /* \"#utility.yul\":12119:12124   */\n      dup2\n        /* \"#utility.yul\":12104:12125   */\n      tag_166\n      jump\t// in\n    tag_247:\n        /* \"#utility.yul\":12097:12102   */\n      dup2\n        /* \"#utility.yul\":12094:12126   */\n      eq\n        /* \"#utility.yul\":12084:12144   */\n      tag_248\n      jumpi\n        /* \"#utility.yul\":12140:12141   */\n      0x00\n        /* \"#utility.yul\":12137:12138   */\n      dup1\n        /* \"#utility.yul\":12130:12142   */\n      revert\n        /* \"#utility.yul\":12084:12144   */\n    tag_248:\n        /* \"#utility.yul\":12034:12150   */\n      pop\n      jump\t// out\n        /* \"#utility.yul\":12156:12278   */\n    tag_112:\n        /* \"#utility.yul\":12229:12253   */\n      tag_250\n        /* \"#utility.yul\":12247:12252   */\n      dup2\n        /* \"#utility.yul\":12229:12253   */\n      tag_182\n      jump\t// in\n    tag_250:\n        /* \"#utility.yul\":12222:12227   */\n      dup2\n        /* \"#utility.yul\":12219:12254   */\n      eq\n        /* \"#utility.yul\":12209:12272   */\n      tag_251\n      jumpi\n        /* \"#utility.yul\":12268:12269   */\n      0x00\n        /* \"#utility.yul\":12265:12266   */\n      dup1\n        /* \"#utility.yul\":12258:12270   */\n      revert\n        /* \"#utility.yul\":12209:12272   */\n    tag_251:\n        /* \"#utility.yul\":12156:12278   */\n      pop\n      jump\t// out\n    stop\n\n    sub_0: assembly {\n            /* \"Donation.sol\":280:1610  contract Donation {... */\n          mstore(0x40, 0x80)\n            /* \"Donation.sol\":479:755  constructor(string memory name, uint minAmount, bool accept, uint amountNeeded) {... */\n          callvalue\n          dup1\n          iszero\n          tag_1\n          jumpi\n          0x00\n          dup1\n          revert\n        tag_1:\n          pop\n          mload(0x40)\n          sub(codesize, bytecodeSize)\n          dup1\n          bytecodeSize\n          dup4\n          codecopy\n          dup2\n          dup2\n          add\n          0x40\n          mstore\n          dup2\n          add\n          swap1\n          tag_2\n          swap2\n          swap1\n          tag_3\n          jump\t// in\n        tag_2:\n            /* \"Donation.sol\":585:589  name */\n          dup4\n            /* \"Donation.sol\":569:582  _donationName */\n          0x00\n            /* \"Donation.sol\":569:589  _donationName = name */\n          swap1\n          dup1\n          mload\n          swap1\n          0x20\n          add\n          swap1\n          tag_6\n          swap3\n          swap2\n          swap1\n          tag_7\n          jump\t// in\n        tag_6:\n          pop\n            /* \"Donation.sol\":619:628  minAmount */\n          dup3\n            /* \"Donation.sol\":599:616  donationMinAmount */\n          0x01\n            /* \"Donation.sol\":599:628  donationMinAmount = minAmount */\n          dup2\n          swap1\n          sstore\n          pop\n            /* \"Donation.sol\":668:674  accept */\n          dup2\n            /* \"Donation.sol\":638:665  acceptPaymentAfterAmountMet */\n          0x03\n          0x00\n            /* \"Donation.sol\":638:674  acceptPaymentAfterAmountMet = accept */\n          0x0100\n          exp\n          dup2\n          sload\n          dup2\n          0xff\n          mul\n          not\n          and\n          swap1\n          dup4\n          iszero\n          iszero\n          mul\n          or\n          swap1\n          sstore\n          pop\n            /* \"Donation.sol\":707:719  amountNeeded */\n          dup1\n            /* \"Donation.sol\":684:704  donationAmountNeeded */\n          0x02\n            /* \"Donation.sol\":684:719  donationAmountNeeded = amountNeeded */\n          dup2\n          swap1\n          sstore\n          pop\n            /* \"Donation.sol\":738:748  msg.sender */\n          caller\n            /* \"Donation.sol\":729:735  _owner */\n          0x03\n          0x01\n            /* \"Donation.sol\":729:748  _owner = msg.sender */\n          0x0100\n          exp\n          dup2\n          sload\n          dup2\n          0xffffffffffffffffffffffffffffffffffffffff\n          mul\n          not\n          and\n          swap1\n          dup4\n          0xffffffffffffffffffffffffffffffffffffffff\n          and\n          mul\n          or\n          swap1\n          sstore\n          pop\n            /* \"Donation.sol\":479:755  constructor(string memory name, uint minAmount, bool accept, uint amountNeeded) {... */\n          pop\n          pop\n          pop\n          pop\n            /* \"Donation.sol\":280:1610  contract Donation {... */\n          jump(tag_8)\n        tag_7:\n          dup3\n          dup1\n          sload\n          tag_9\n          swap1\n          tag_10\n          jump\t// in\n        tag_9:\n          swap1\n          0x00\n          mstore\n          keccak256(0x00, 0x20)\n          swap1\n          0x1f\n          add\n          0x20\n          swap1\n          div\n          dup2\n          add\n          swap3\n          dup3\n          tag_12\n          jumpi\n          0x00\n          dup6\n          sstore\n          jump(tag_11)\n        tag_12:\n          dup3\n          0x1f\n          lt\n          tag_13\n          jumpi\n          dup1\n          mload\n          not(0xff)\n          and\n          dup4\n          dup1\n          add\n          or\n          dup6\n          sstore\n          jump(tag_11)\n        tag_13:\n          dup3\n          dup1\n          add\n          0x01\n          add\n          dup6\n          sstore\n          dup3\n          iszero\n          tag_11\n          jumpi\n          swap2\n          dup3\n          add\n        tag_14:\n          dup3\n          dup2\n          gt\n          iszero\n          tag_15\n          jumpi\n          dup3\n          mload\n          dup3\n          sstore\n          swap2\n          0x20\n          add\n          swap2\n          swap1\n          0x01\n          add\n          swap1\n          jump(tag_14)\n        tag_15:\n        tag_11:\n          pop\n          swap1\n          pop\n          tag_16\n          swap2\n          swap1\n          tag_17\n          jump\t// in\n        tag_16:\n          pop\n          swap1\n          jump\t// out\n        tag_17:\n        tag_18:\n          dup1\n          dup3\n          gt\n          iszero\n          tag_19\n          jumpi\n          0x00\n          dup2\n          0x00\n          swap1\n          sstore\n          pop\n          0x01\n          add\n          jump(tag_18)\n        tag_19:\n          pop\n          swap1\n          jump\t// out\n            /* \"#utility.yul\":7:428   */\n        tag_21:\n            /* \"#utility.yul\":96:101   */\n          0x00\n            /* \"#utility.yul\":121:187   */\n          tag_23\n            /* \"#utility.yul\":137:186   */\n          tag_24\n            /* \"#utility.yul\":179:185   */\n          dup5\n            /* \"#utility.yul\":137:186   */\n          tag_25\n          jump\t// in\n        tag_24:\n            /* \"#utility.yul\":121:187   */\n          tag_26\n          jump\t// in\n        tag_23:\n            /* \"#utility.yul\":112:187   */\n          swap1\n          pop\n            /* \"#utility.yul\":210:216   */\n          dup3\n            /* \"#utility.yul\":203:208   */\n          dup2\n            /* \"#utility.yul\":196:217   */\n          mstore\n            /* \"#utility.yul\":248:252   */\n          0x20\n            /* \"#utility.yul\":241:246   */\n          dup2\n            /* \"#utility.yul\":237:253   */\n          add\n            /* \"#utility.yul\":286:289   */\n          dup5\n            /* \"#utility.yul\":277:283   */\n          dup5\n            /* \"#utility.yul\":272:275   */\n          dup5\n            /* \"#utility.yul\":268:284   */\n          add\n            /* \"#utility.yul\":265:290   */\n          gt\n            /* \"#utility.yul\":262:374   */\n          iszero\n          tag_27\n          jumpi\n            /* \"#utility.yul\":293:372   */\n          tag_28\n          tag_29\n          jump\t// in\n        tag_28:\n            /* \"#utility.yul\":262:374   */\n        tag_27:\n            /* \"#utility.yul\":383:422   */\n          tag_30\n            /* \"#utility.yul\":415:421   */\n          dup5\n            /* \"#utility.yul\":410:413   */\n          dup3\n            /* \"#utility.yul\":405:408   */\n          dup6\n            /* \"#utility.yul\":383:422   */\n          tag_31\n          jump\t// in\n        tag_30:\n            /* \"#utility.yul\":102:428   */\n          pop\n            /* \"#utility.yul\":7:428   */\n          swap4\n          swap3\n          pop\n          pop\n          pop\n          jump\t// out\n            /* \"#utility.yul\":434:571   */\n        tag_32:\n            /* \"#utility.yul\":488:493   */\n          0x00\n            /* \"#utility.yul\":519:525   */\n          dup2\n            /* \"#utility.yul\":513:526   */\n          mload\n            /* \"#utility.yul\":504:526   */\n          swap1\n          pop\n            /* \"#utility.yul\":535:565   */\n          tag_34\n            /* \"#utility.yul\":559:564   */\n          dup2\n            /* \"#utility.yul\":535:565   */\n          tag_35\n          jump\t// in\n        tag_34:\n            /* \"#utility.yul\":434:571   */\n          swap3\n          swap2\n          pop\n          pop\n          jump\t// out\n            /* \"#utility.yul\":591:946   */\n        tag_36:\n            /* \"#utility.yul\":658:663   */\n          0x00\n            /* \"#utility.yul\":707:710   */\n          dup3\n            /* \"#utility.yul\":700:704   */\n          0x1f\n            /* \"#utility.yul\":692:698   */\n          dup4\n            /* \"#utility.yul\":688:705   */\n          add\n            /* \"#utility.yul\":684:711   */\n          slt\n            /* \"#utility.yul\":674:796   */\n          tag_38\n          jumpi\n            /* \"#utility.yul\":715:794   */\n          tag_39\n          tag_40\n          jump\t// in\n        tag_39:\n            /* \"#utility.yul\":674:796   */\n        tag_38:\n            /* \"#utility.yul\":825:831   */\n          dup2\n            /* \"#utility.yul\":819:832   */\n          mload\n            /* \"#utility.yul\":850:940   */\n          tag_41\n            /* \"#utility.yul\":936:939   */\n          dup5\n            /* \"#utility.yul\":928:934   */\n          dup3\n            /* \"#utility.yul\":921:925   */\n          0x20\n            /* \"#utility.yul\":913:919   */\n          dup7\n            /* \"#utility.yul\":909:926   */\n          add\n            /* \"#utility.yul\":850:940   */\n          tag_21\n          jump\t// in\n        tag_41:\n            /* \"#utility.yul\":841:940   */\n          swap2\n          pop\n            /* \"#utility.yul\":664:946   */\n          pop\n            /* \"#utility.yul\":591:946   */\n          swap3\n          swap2\n          pop\n          pop\n          jump\t// out\n            /* \"#utility.yul\":952:1095   */\n        tag_42:\n            /* \"#utility.yul\":1009:1014   */\n          0x00\n            /* \"#utility.yul\":1040:1046   */\n          dup2\n            /* \"#utility.yul\":1034:1047   */\n          mload\n            /* \"#utility.yul\":1025:1047   */\n          swap1\n          pop\n            /* \"#utility.yul\":1056:1089   */\n          tag_44\n            /* \"#utility.yul\":1083:1088   */\n          dup2\n            /* \"#utility.yul\":1056:1089   */\n          tag_45\n          jump\t// in\n        tag_44:\n            /* \"#utility.yul\":952:1095   */\n          swap3\n          swap2\n          pop\n          pop\n          jump\t// out\n            /* \"#utility.yul\":1101:2088   */\n        tag_3:\n            /* \"#utility.yul\":1205:1211   */\n          0x00\n            /* \"#utility.yul\":1213:1219   */\n          dup1\n            /* \"#utility.yul\":1221:1227   */\n          0x00\n            /* \"#utility.yul\":1229:1235   */\n          dup1\n            /* \"#utility.yul\":1278:1281   */\n          0x80\n            /* \"#utility.yul\":1266:1275   */\n          dup6\n            /* \"#utility.yul\":1257:1264   */\n          dup8\n            /* \"#utility.yul\":1253:1276   */\n          sub\n            /* \"#utility.yul\":1249:1282   */\n          slt\n            /* \"#utility.yul\":1246:1366   */\n          iszero\n          tag_47\n          jumpi\n            /* \"#utility.yul\":1285:1364   */\n          tag_48\n          tag_49\n          jump\t// in\n        tag_48:\n            /* \"#utility.yul\":1246:1366   */\n        tag_47:\n            /* \"#utility.yul\":1426:1427   */\n          0x00\n            /* \"#utility.yul\":1415:1424   */\n          dup6\n            /* \"#utility.yul\":1411:1428   */\n          add\n            /* \"#utility.yul\":1405:1429   */\n          mload\n            /* \"#utility.yul\":1456:1474   */\n          0xffffffffffffffff\n            /* \"#utility.yul\":1448:1454   */\n          dup2\n            /* \"#utility.yul\":1445:1475   */\n          gt\n            /* \"#utility.yul\":1442:1559   */\n          iszero\n          tag_50\n          jumpi\n            /* \"#utility.yul\":1478:1557   */\n          tag_51\n          tag_52\n          jump\t// in\n        tag_51:\n            /* \"#utility.yul\":1442:1559   */\n        tag_50:\n            /* \"#utility.yul\":1583:1657   */\n          tag_53\n            /* \"#utility.yul\":1649:1656   */\n          dup8\n            /* \"#utility.yul\":1640:1646   */\n          dup3\n            /* \"#utility.yul\":1629:1638   */\n          dup9\n            /* \"#utility.yul\":1625:1647   */\n          add\n            /* \"#utility.yul\":1583:1657   */\n          tag_36\n          jump\t// in\n        tag_53:\n            /* \"#utility.yul\":1573:1657   */\n          swap5\n          pop\n            /* \"#utility.yul\":1376:1667   */\n          pop\n            /* \"#utility.yul\":1706:1708   */\n          0x20\n            /* \"#utility.yul\":1732:1796   */\n          tag_54\n            /* \"#utility.yul\":1788:1795   */\n          dup8\n            /* \"#utility.yul\":1779:1785   */\n          dup3\n            /* \"#utility.yul\":1768:1777   */\n          dup9\n            /* \"#utility.yul\":1764:1786   */\n          add\n            /* \"#utility.yul\":1732:1796   */\n          tag_42\n          jump\t// in\n        tag_54:\n            /* \"#utility.yul\":1722:1796   */\n          swap4\n          pop\n            /* \"#utility.yul\":1677:1806   */\n          pop\n            /* \"#utility.yul\":1845:1847   */\n          0x40\n            /* \"#utility.yul\":1871:1932   */\n          tag_55\n            /* \"#utility.yul\":1924:1931   */\n          dup8\n            /* \"#utility.yul\":1915:1921   */\n          dup3\n            /* \"#utility.yul\":1904:1913   */\n          dup9\n            /* \"#utility.yul\":1900:1922   */\n          add\n            /* \"#utility.yul\":1871:1932   */\n          tag_32\n          jump\t// in\n        tag_55:\n            /* \"#utility.yul\":1861:1932   */\n          swap3\n          pop\n            /* \"#utility.yul\":1816:1942   */\n          pop\n            /* \"#utility.yul\":1981:1983   */\n          0x60\n            /* \"#utility.yul\":2007:2071   */\n          tag_56\n            /* \"#utility.yul\":2063:2070   */\n          dup8\n            /* \"#utility.yul\":2054:2060   */\n          dup3\n            /* \"#utility.yul\":2043:2052   */\n          dup9\n            /* \"#utility.yul\":2039:2061   */\n          add\n            /* \"#utility.yul\":2007:2071   */\n          tag_42\n          jump\t// in\n        tag_56:\n            /* \"#utility.yul\":1997:2071   */\n          swap2\n          pop\n            /* \"#utility.yul\":1952:2081   */\n          pop\n            /* \"#utility.yul\":1101:2088   */\n          swap3\n          swap6\n          swap2\n          swap5\n          pop\n          swap3\n          pop\n          jump\t// out\n            /* \"#utility.yul\":2094:2223   */\n        tag_26:\n            /* \"#utility.yul\":2128:2134   */\n          0x00\n            /* \"#utility.yul\":2155:2175   */\n          tag_58\n          tag_59\n          jump\t// in\n        tag_58:\n            /* \"#utility.yul\":2145:2175   */\n          swap1\n          pop\n            /* \"#utility.yul\":2184:2217   */\n          tag_60\n            /* \"#utility.yul\":2212:2216   */\n          dup3\n            /* \"#utility.yul\":2204:2210   */\n          dup3\n            /* \"#utility.yul\":2184:2217   */\n          tag_61\n          jump\t// in\n        tag_60:\n            /* \"#utility.yul\":2094:2223   */\n          swap2\n          swap1\n          pop\n          jump\t// out\n            /* \"#utility.yul\":2229:2304   */\n        tag_59:\n            /* \"#utility.yul\":2262:2268   */\n          0x00\n            /* \"#utility.yul\":2295:2297   */\n          0x40\n            /* \"#utility.yul\":2289:2298   */\n          mload\n            /* \"#utility.yul\":2279:2298   */\n          swap1\n          pop\n            /* \"#utility.yul\":2229:2304   */\n          swap1\n          jump\t// out\n            /* \"#utility.yul\":2310:2618   */\n        tag_25:\n            /* \"#utility.yul\":2372:2376   */\n          0x00\n            /* \"#utility.yul\":2462:2480   */\n          0xffffffffffffffff\n            /* \"#utility.yul\":2454:2460   */\n          dup3\n            /* \"#utility.yul\":2451:2481   */\n          gt\n            /* \"#utility.yul\":2448:2504   */\n          iszero\n          tag_64\n          jumpi\n            /* \"#utility.yul\":2484:2502   */\n          tag_65\n          tag_66\n          jump\t// in\n        tag_65:\n            /* \"#utility.yul\":2448:2504   */\n        tag_64:\n            /* \"#utility.yul\":2522:2551   */\n          tag_67\n            /* \"#utility.yul\":2544:2550   */\n          dup3\n            /* \"#utility.yul\":2522:2551   */\n          tag_68\n          jump\t// in\n        tag_67:\n            /* \"#utility.yul\":2514:2551   */\n          swap1\n          pop\n            /* \"#utility.yul\":2606:2610   */\n          0x20\n            /* \"#utility.yul\":2600:2604   */\n          dup2\n            /* \"#utility.yul\":2596:2611   */\n          add\n            /* \"#utility.yul\":2588:2611   */\n          swap1\n          pop\n            /* \"#utility.yul\":2310:2618   */\n          swap2\n          swap1\n          pop\n          jump\t// out\n            /* \"#utility.yul\":2624:2714   */\n        tag_69:\n            /* \"#utility.yul\":2658:2665   */\n          0x00\n            /* \"#utility.yul\":2701:2706   */\n          dup2\n            /* \"#utility.yul\":2694:2707   */\n          iszero\n            /* \"#utility.yul\":2687:2708   */\n          iszero\n            /* \"#utility.yul\":2676:2708   */\n          swap1\n          pop\n            /* \"#utility.yul\":2624:2714   */\n          swap2\n          swap1\n          pop\n          jump\t// out\n            /* \"#utility.yul\":2720:2797   */\n        tag_71:\n            /* \"#utility.yul\":2757:2764   */\n          0x00\n            /* \"#utility.yul\":2786:2791   */\n          dup2\n            /* \"#utility.yul\":2775:2791   */\n          swap1\n          pop\n            /* \"#utility.yul\":2720:2797   */\n          swap2\n          swap1\n          pop\n          jump\t// out\n            /* \"#utility.yul\":2803:3110   */\n        tag_31:\n            /* \"#utility.yul\":2871:2872   */\n          0x00\n            /* \"#utility.yul\":2881:2994   */\n        tag_74:\n            /* \"#utility.yul\":2895:2901   */\n          dup4\n            /* \"#utility.yul\":2892:2893   */\n          dup2\n            /* \"#utility.yul\":2889:2902   */\n          lt\n            /* \"#utility.yul\":2881:2994   */\n          iszero\n          tag_76\n          jumpi\n            /* \"#utility.yul\":2980:2981   */\n          dup1\n            /* \"#utility.yul\":2975:2978   */\n          dup3\n            /* \"#utility.yul\":2971:2982   */\n          add\n            /* \"#utility.yul\":2965:2983   */\n          mload\n            /* \"#utility.yul\":2961:2962   */\n          dup2\n            /* \"#utility.yul\":2956:2959   */\n          dup5\n            /* \"#utility.yul\":2952:2963   */\n          add\n            /* \"#utility.yul\":2945:2984   */\n          mstore\n            /* \"#utility.yul\":2917:2919   */\n          0x20\n            /* \"#utility.yul\":2914:2915   */\n          dup2\n            /* \"#utility.yul\":2910:2920   */\n          add\n            /* \"#utility.yul\":2905:2920   */\n          swap1\n          pop\n            /* \"#utility.yul\":2881:2994   */\n          jump(tag_74)\n        tag_76:\n            /* \"#utility.yul\":3012:3018   */\n          dup4\n            /* \"#utility.yul\":3009:3010   */\n          dup2\n            /* \"#utility.yul\":3006:3019   */\n          gt\n            /* \"#utility.yul\":3003:3104   */\n          iszero\n          tag_77\n          jumpi\n            /* \"#utility.yul\":3092:3093   */\n          0x00\n            /* \"#utility.yul\":3083:3089   */\n          dup5\n            /* \"#utility.yul\":3078:3081   */\n          dup5\n            /* \"#utility.yul\":3074:3090   */\n          add\n            /* \"#utility.yul\":3067:3094   */\n          mstore\n            /* \"#utility.yul\":3003:3104   */\n        tag_77:\n            /* \"#utility.yul\":2852:3110   */\n          pop\n            /* \"#utility.yul\":2803:3110   */\n          pop\n          pop\n          pop\n          jump\t// out\n            /* \"#utility.yul\":3116:3436   */\n        tag_10:\n            /* \"#utility.yul\":3160:3166   */\n          0x00\n            /* \"#utility.yul\":3197:3198   */\n          0x02\n            /* \"#utility.yul\":3191:3195   */\n          dup3\n            /* \"#utility.yul\":3187:3199   */\n          div\n            /* \"#utility.yul\":3177:3199   */\n          swap1\n          pop\n            /* \"#utility.yul\":3244:3245   */\n          0x01\n            /* \"#utility.yul\":3238:3242   */\n          dup3\n            /* \"#utility.yul\":3234:3246   */\n          and\n            /* \"#utility.yul\":3265:3283   */\n          dup1\n            /* \"#utility.yul\":3255:3336   */\n          tag_79\n          jumpi\n            /* \"#utility.yul\":3321:3325   */\n          0x7f\n            /* \"#utility.yul\":3313:3319   */\n          dup3\n            /* \"#utility.yul\":3309:3326   */\n          and\n            /* \"#utility.yul\":3299:3326   */\n          swap2\n          pop\n            /* \"#utility.yul\":3255:3336   */\n        tag_79:\n            /* \"#utility.yul\":3383:3385   */\n          0x20\n            /* \"#utility.yul\":3375:3381   */\n          dup3\n            /* \"#utility.yul\":3372:3386   */\n          lt\n            /* \"#utility.yul\":3352:3370   */\n          dup2\n            /* \"#utility.yul\":3349:3387   */\n          eq\n            /* \"#utility.yul\":3346:3430   */\n          iszero\n          tag_80\n          jumpi\n            /* \"#utility.yul\":3402:3420   */\n          tag_81\n          tag_82\n          jump\t// in\n        tag_81:\n            /* \"#utility.yul\":3346:3430   */\n        tag_80:\n            /* \"#utility.yul\":3167:3436   */\n          pop\n            /* \"#utility.yul\":3116:3436   */\n          swap2\n          swap1\n          pop\n          jump\t// out\n            /* \"#utility.yul\":3442:3723   */\n        tag_61:\n            /* \"#utility.yul\":3525:3552   */\n          tag_84\n            /* \"#utility.yul\":3547:3551   */\n          dup3\n            /* \"#utility.yul\":3525:3552   */\n          tag_68\n          jump\t// in\n        tag_84:\n            /* \"#utility.yul\":3517:3523   */\n          dup2\n            /* \"#utility.yul\":3513:3553   */\n          add\n            /* \"#utility.yul\":3655:3661   */\n          dup2\n            /* \"#utility.yul\":3643:3653   */\n          dup2\n            /* \"#utility.yul\":3640:3662   */\n          lt\n            /* \"#utility.yul\":3619:3637   */\n          0xffffffffffffffff\n            /* \"#utility.yul\":3607:3617   */\n          dup3\n            /* \"#utility.yul\":3604:3638   */\n          gt\n            /* \"#utility.yul\":3601:3663   */\n          or\n            /* \"#utility.yul\":3598:3686   */\n          iszero\n          tag_85\n          jumpi\n            /* \"#utility.yul\":3666:3684   */\n          tag_86\n          tag_66\n          jump\t// in\n        tag_86:\n            /* \"#utility.yul\":3598:3686   */\n        tag_85:\n            /* \"#utility.yul\":3706:3716   */\n          dup1\n            /* \"#utility.yul\":3702:3704   */\n          0x40\n            /* \"#utility.yul\":3695:3717   */\n          mstore\n            /* \"#utility.yul\":3485:3723   */\n          pop\n            /* \"#utility.yul\":3442:3723   */\n          pop\n          pop\n          jump\t// out\n            /* \"#utility.yul\":3729:3909   */\n        tag_82:\n            /* \"#utility.yul\":3777:3854   */\n          0x4e487b7100000000000000000000000000000000000000000000000000000000\n            /* \"#utility.yul\":3774:3775   */\n          0x00\n            /* \"#utility.yul\":3767:3855   */\n          mstore\n            /* \"#utility.yul\":3874:3878   */\n          0x22\n            /* \"#utility.yul\":3871:3872   */\n          0x04\n            /* \"#utility.yul\":3864:3879   */\n          mstore\n            /* \"#utility.yul\":3898:3902   */\n          0x24\n            /* \"#utility.yul\":3895:3896   */\n          0x00\n            /* \"#utility.yul\":3888:3903   */\n          revert\n            /* \"#utility.yul\":3915:4095   */\n        tag_66:\n            /* \"#utility.yul\":3963:4040   */\n          0x4e487b7100000000000000000000000000000000000000000000000000000000\n            /* \"#utility.yul\":3960:3961   */\n          0x00\n            /* \"#utility.yul\":3953:4041   */\n          mstore\n            /* \"#utility.yul\":4060:4064   */\n          0x41\n            /* \"#utility.yul\":4057:4058   */\n          0x04\n            /* \"#utility.yul\":4050:4065   */\n          mstore\n            /* \"#utility.yul\":4084:4088   */\n          0x24\n            /* \"#utility.yul\":4081:4082   */\n          0x00\n            /* \"#utility.yul\":4074:4089   */\n          revert\n            /* \"#utility.yul\":4101:4218   */\n        tag_40:\n            /* \"#utility.yul\":4210:4211   */\n          0x00\n            /* \"#utility.yul\":4207:4208   */\n          dup1\n            /* \"#utility.yul\":4200:4212   */\n          revert\n            /* \"#utility.yul\":4224:4341   */\n        tag_29:\n            /* \"#utility.yul\":4333:4334   */\n          0x00\n            /* \"#utility.yul\":4330:4331   */\n          dup1\n            /* \"#utility.yul\":4323:4335   */\n          revert\n            /* \"#utility.yul\":4347:4464   */\n        tag_52:\n            /* \"#utility.yul\":4456:4457   */\n          0x00\n            /* \"#utility.yul\":4453:4454   */\n          dup1\n            /* \"#utility.yul\":4446:4458   */\n          revert\n            /* \"#utility.yul\":4470:4587   */\n        tag_49:\n            /* \"#utility.yul\":4579:4580   */\n          0x00\n            /* \"#utility.yul\":4576:4577   */\n          dup1\n            /* \"#utility.yul\":4569:4581   */\n          revert\n            /* \"#utility.yul\":4593:4695   */\n        tag_68:\n            /* \"#utility.yul\":4634:4640   */\n          0x00\n            /* \"#utility.yul\":4685:4687   */\n          0x1f\n            /* \"#utility.yul\":4681:4688   */\n          not\n            /* \"#utility.yul\":4676:4678   */\n          0x1f\n            /* \"#utility.yul\":4669:4674   */\n          dup4\n            /* \"#utility.yul\":4665:4679   */\n          add\n            /* \"#utility.yul\":4661:4689   */\n          and\n            /* \"#utility.yul\":4651:4689   */\n          swap1\n          pop\n            /* \"#utility.yul\":4593:4695   */\n          swap2\n          swap1\n          pop\n          jump\t// out\n            /* \"#utility.yul\":4701:4817   */\n        tag_35:\n            /* \"#utility.yul\":4771:4792   */\n          tag_95\n            /* \"#utility.yul\":4786:4791   */\n          dup2\n            /* \"#utility.yul\":4771:4792   */\n          tag_69\n          jump\t// in\n        tag_95:\n            /* \"#utility.yul\":4764:4769   */\n          dup2\n            /* \"#utility.yul\":4761:4793   */\n          eq\n            /* \"#utility.yul\":4751:4811   */\n          tag_96\n          jumpi\n            /* \"#utility.yul\":4807:4808   */\n          0x00\n            /* \"#utility.yul\":4804:4805   */\n          dup1\n            /* \"#utility.yul\":4797:4809   */\n          revert\n            /* \"#utility.yul\":4751:4811   */\n        tag_96:\n            /* \"#utility.yul\":4701:4817   */\n          pop\n          jump\t// out\n            /* \"#utility.yul\":4823:4945   */\n        tag_45:\n            /* \"#utility.yul\":4896:4920   */\n          tag_98\n            /* \"#utility.yul\":4914:4919   */\n          dup2\n            /* \"#utility.yul\":4896:4920   */\n          tag_71\n          jump\t// in\n        tag_98:\n            /* \"#utility.yul\":4889:4894   */\n          dup2\n            /* \"#utility.yul\":4886:4921   */\n          eq\n            /* \"#utility.yul\":4876:4939   */\n          tag_99\n          jumpi\n            /* \"#utility.yul\":4935:4936   */\n          0x00\n            /* \"#utility.yul\":4932:4933   */\n          dup1\n            /* \"#utility.yul\":4925:4937   */\n          revert\n            /* \"#utility.yul\":4876:4939   */\n        tag_99:\n            /* \"#utility.yul\":4823:4945   */\n          pop\n          jump\t// out\n            /* \"Donation.sol\":280:1610  contract Donation {... */\n        tag_8:\n          dataSize(sub_0)\n          dup1\n          dataOffset(sub_0)\n          0x00\n          codecopy\n          0x00\n          return\n        stop\n\n        sub_0: assembly {\n                /* \"Donation.sol\":280:1610  contract Donation {... */\n              mstore(0x40, 0x80)\n              jumpi(tag_1, lt(calldatasize, 0x04))\n              shr(0xe0, calldataload(0x00))\n              dup1\n              0x893d20e8\n              gt\n              tag_11\n              jumpi\n              dup1\n              0x893d20e8\n              eq\n              tag_6\n              jumpi\n              dup1\n              0xb383bf2d\n              eq\n              tag_7\n              jumpi\n              dup1\n              0xeae3f764\n              eq\n              tag_8\n              jumpi\n              dup1\n              0xed11f46a\n              eq\n              tag_9\n              jumpi\n              dup1\n              0xed88c68e\n              eq\n              tag_10\n              jumpi\n              jump(tag_1)\n            tag_11:\n              dup1\n              0x354ecc85\n              eq\n              tag_2\n              jumpi\n              dup1\n              0x3ccfd60b\n              eq\n              tag_3\n              jumpi\n              dup1\n              0x798be230\n              eq\n              tag_4\n              jumpi\n              dup1\n              0x80fdef1b\n              eq\n              tag_5\n              jumpi\n            tag_1:\n              0x00\n              dup1\n              revert\n                /* \"Donation.sol\":305:332  string public _donationName */\n            tag_2:\n              callvalue\n              dup1\n              iszero\n              tag_12\n              jumpi\n              0x00\n              dup1\n              revert\n            tag_12:\n              pop\n              tag_13\n              tag_14\n              jump\t// in\n            tag_13:\n              mload(0x40)\n              tag_15\n              swap2\n              swap1\n              tag_16\n              jump\t// in\n            tag_15:\n              mload(0x40)\n              dup1\n              swap2\n              sub\n              swap1\n              return\n                /* \"Donation.sol\":1223:1418  function withdraw() public {... */\n            tag_3:\n              callvalue\n              dup1\n              iszero\n              tag_17\n              jumpi\n              0x00\n              dup1\n              revert\n            tag_17:\n              pop\n              tag_18\n              tag_19\n              jump\t// in\n            tag_18:\n              stop\n                /* \"Donation.sol\":411:450  bool public acceptPaymentAfterAmountMet */\n            tag_4:\n              callvalue\n              dup1\n              iszero\n              tag_20\n              jumpi\n              0x00\n              dup1\n              revert\n            tag_20:\n              pop\n              tag_21\n              tag_22\n              jump\t// in\n            tag_21:\n              mload(0x40)\n              tag_23\n              swap2\n              swap1\n              tag_24\n              jump\t// in\n            tag_23:\n              mload(0x40)\n              dup1\n              swap2\n              sub\n              swap1\n              return\n                /* \"Donation.sol\":373:405  uint public donationAmountNeeded */\n            tag_5:\n              callvalue\n              dup1\n              iszero\n              tag_25\n              jumpi\n              0x00\n              dup1\n              revert\n            tag_25:\n              pop\n              tag_26\n              tag_27\n              jump\t// in\n            tag_26:\n              mload(0x40)\n              tag_28\n              swap2\n              swap1\n              tag_29\n              jump\t// in\n            tag_28:\n              mload(0x40)\n              dup1\n              swap2\n              sub\n              swap1\n              return\n                /* \"Donation.sol\":1529:1608  function getOwner() public view returns(address) {... */\n            tag_6:\n              callvalue\n              dup1\n              iszero\n              tag_30\n              jumpi\n              0x00\n              dup1\n              revert\n            tag_30:\n              pop\n              tag_31\n              tag_32\n              jump\t// in\n            tag_31:\n              mload(0x40)\n              tag_33\n              swap2\n              swap1\n              tag_34\n              jump\t// in\n            tag_33:\n              mload(0x40)\n              dup1\n              swap2\n              sub\n              swap1\n              return\n                /* \"Donation.sol\":338:367  uint public donationMinAmount */\n            tag_7:\n              callvalue\n              dup1\n              iszero\n              tag_35\n              jumpi\n              0x00\n              dup1\n              revert\n            tag_35:\n              pop\n              tag_36\n              tag_37\n              jump\t// in\n            tag_36:\n              mload(0x40)\n              tag_38\n              swap2\n              swap1\n              tag_29\n              jump\t// in\n            tag_38:\n              mload(0x40)\n              dup1\n              swap2\n              sub\n              swap1\n              return\n                /* \"Donation.sol\":1424:1523  function getDonationName() public view returns (string memory){... */\n            tag_8:\n              callvalue\n              dup1\n              iszero\n              tag_39\n              jumpi\n              0x00\n              dup1\n              revert\n            tag_39:\n              pop\n              tag_40\n              tag_41\n              jump\t// in\n            tag_40:\n              mload(0x40)\n              tag_42\n              swap2\n              swap1\n              tag_16\n              jump\t// in\n            tag_42:\n              mload(0x40)\n              dup1\n              swap2\n              sub\n              swap1\n              return\n                /* \"Donation.sol\":1116:1217  function donationBalance() view external returns (uint) {... */\n            tag_9:\n              callvalue\n              dup1\n              iszero\n              tag_43\n              jumpi\n              0x00\n              dup1\n              revert\n            tag_43:\n              pop\n              tag_44\n              tag_45\n              jump\t// in\n            tag_44:\n              mload(0x40)\n              tag_46\n              swap2\n              swap1\n              tag_29\n              jump\t// in\n            tag_46:\n              mload(0x40)\n              dup1\n              swap2\n              sub\n              swap1\n              return\n                /* \"Donation.sol\":762:1110  function donate() payable external {... */\n            tag_10:\n              tag_47\n              tag_48\n              jump\t// in\n            tag_47:\n              stop\n                /* \"Donation.sol\":305:332  string public _donationName */\n            tag_14:\n              0x00\n              dup1\n              sload\n              tag_49\n              swap1\n              tag_50\n              jump\t// in\n            tag_49:\n              dup1\n              0x1f\n              add\n              0x20\n              dup1\n              swap2\n              div\n              mul\n              0x20\n              add\n              mload(0x40)\n              swap1\n              dup2\n              add\n              0x40\n              mstore\n              dup1\n              swap3\n              swap2\n              swap1\n              dup2\n              dup2\n              mstore\n              0x20\n              add\n              dup3\n              dup1\n              sload\n              tag_51\n              swap1\n              tag_50\n              jump\t// in\n            tag_51:\n              dup1\n              iszero\n              tag_52\n              jumpi\n              dup1\n              0x1f\n              lt\n              tag_53\n              jumpi\n              0x0100\n              dup1\n              dup4\n              sload\n              div\n              mul\n              dup4\n              mstore\n              swap2\n              0x20\n              add\n              swap2\n              jump(tag_52)\n            tag_53:\n              dup3\n              add\n              swap2\n              swap1\n              0x00\n              mstore\n              keccak256(0x00, 0x20)\n              swap1\n            tag_54:\n              dup2\n              sload\n              dup2\n              mstore\n              swap1\n              0x01\n              add\n              swap1\n              0x20\n              add\n              dup1\n              dup4\n              gt\n              tag_54\n              jumpi\n              dup3\n              swap1\n              sub\n              0x1f\n              and\n              dup3\n              add\n              swap2\n            tag_52:\n              pop\n              pop\n              pop\n              pop\n              pop\n              dup2\n              jump\t// out\n                /* \"Donation.sol\":1223:1418  function withdraw() public {... */\n            tag_19:\n                /* \"Donation.sol\":1278:1288  msg.sender */\n              caller\n                /* \"Donation.sol\":1268:1288  _owner == msg.sender */\n              0xffffffffffffffffffffffffffffffffffffffff\n              and\n                /* \"Donation.sol\":1268:1274  _owner */\n              0x03\n              0x01\n              swap1\n              sload\n              swap1\n              0x0100\n              exp\n              swap1\n              div\n              0xffffffffffffffffffffffffffffffffffffffff\n              and\n                /* \"Donation.sol\":1268:1288  _owner == msg.sender */\n              0xffffffffffffffffffffffffffffffffffffffff\n              and\n              eq\n                /* \"Donation.sol\":1260:1341  require(_owner == msg.sender, \"Only owner of this donation can withdraw from it\") */\n              tag_56\n              jumpi\n              mload(0x40)\n              0x08c379a000000000000000000000000000000000000000000000000000000000\n              dup2\n              mstore\n              0x04\n              add\n              tag_57\n              swap1\n              tag_58\n              jump\t// in\n            tag_57:\n              mload(0x40)\n              dup1\n              swap2\n              sub\n              swap1\n              revert\n            tag_56:\n                /* \"Donation.sol\":1359:1369  msg.sender */\n              caller\n                /* \"Donation.sol\":1351:1375  payable(msg.sender).call */\n              0xffffffffffffffffffffffffffffffffffffffff\n              and\n                /* \"Donation.sol\":1384:1405  address(this).balance */\n              selfbalance\n                /* \"Donation.sol\":1351:1411  payable(msg.sender).call{value: (address(this).balance)}(\"\") */\n              mload(0x40)\n              tag_59\n              swap1\n              tag_60\n              jump\t// in\n            tag_59:\n              0x00\n              mload(0x40)\n              dup1\n              dup4\n              sub\n              dup2\n              dup6\n              dup8\n              gas\n              call\n              swap3\n              pop\n              pop\n              pop\n              returndatasize\n              dup1\n              0x00\n              dup2\n              eq\n              tag_63\n              jumpi\n              mload(0x40)\n              swap2\n              pop\n              and(add(returndatasize, 0x3f), not(0x1f))\n              dup3\n              add\n              0x40\n              mstore\n              returndatasize\n              dup3\n              mstore\n              returndatasize\n              0x00\n              0x20\n              dup5\n              add\n              returndatacopy\n              jump(tag_62)\n            tag_63:\n              0x60\n              swap2\n              pop\n            tag_62:\n              pop\n              pop\n              pop\n                /* \"Donation.sol\":1223:1418  function withdraw() public {... */\n              jump\t// out\n                /* \"Donation.sol\":411:450  bool public acceptPaymentAfterAmountMet */\n            tag_22:\n              0x03\n              0x00\n              swap1\n              sload\n              swap1\n              0x0100\n              exp\n              swap1\n              div\n              0xff\n              and\n              dup2\n              jump\t// out\n                /* \"Donation.sol\":373:405  uint public donationAmountNeeded */\n            tag_27:\n              sload(0x02)\n              dup2\n              jump\t// out\n                /* \"Donation.sol\":1529:1608  function getOwner() public view returns(address) {... */\n            tag_32:\n                /* \"Donation.sol\":1569:1576  address */\n              0x00\n                /* \"Donation.sol\":1595:1601  _owner */\n              0x03\n              0x01\n              swap1\n              sload\n              swap1\n              0x0100\n              exp\n              swap1\n              div\n              0xffffffffffffffffffffffffffffffffffffffff\n              and\n                /* \"Donation.sol\":1588:1601  return _owner */\n              swap1\n              pop\n                /* \"Donation.sol\":1529:1608  function getOwner() public view returns(address) {... */\n              swap1\n              jump\t// out\n                /* \"Donation.sol\":338:367  uint public donationMinAmount */\n            tag_37:\n              sload(0x01)\n              dup2\n              jump\t// out\n                /* \"Donation.sol\":1424:1523  function getDonationName() public view returns (string memory){... */\n            tag_41:\n                /* \"Donation.sol\":1472:1485  string memory */\n              0x60\n                /* \"Donation.sol\":1503:1516  _donationName */\n              0x00\n                /* \"Donation.sol\":1496:1516  return _donationName */\n              dup1\n              sload\n              tag_66\n              swap1\n              tag_50\n              jump\t// in\n            tag_66:\n              dup1\n              0x1f\n              add\n              0x20\n              dup1\n              swap2\n              div\n              mul\n              0x20\n              add\n              mload(0x40)\n              swap1\n              dup2\n              add\n              0x40\n              mstore\n              dup1\n              swap3\n              swap2\n              swap1\n              dup2\n              dup2\n              mstore\n              0x20\n              add\n              dup3\n              dup1\n              sload\n              tag_67\n              swap1\n              tag_50\n              jump\t// in\n            tag_67:\n              dup1\n              iszero\n              tag_68\n              jumpi\n              dup1\n              0x1f\n              lt\n              tag_69\n              jumpi\n              0x0100\n              dup1\n              dup4\n              sload\n              div\n              mul\n              dup4\n              mstore\n              swap2\n              0x20\n              add\n              swap2\n              jump(tag_68)\n            tag_69:\n              dup3\n              add\n              swap2\n              swap1\n              0x00\n              mstore\n              keccak256(0x00, 0x20)\n              swap1\n            tag_70:\n              dup2\n              sload\n              dup2\n              mstore\n              swap1\n              0x01\n              add\n              swap1\n              0x20\n              add\n              dup1\n              dup4\n              gt\n              tag_70\n              jumpi\n              dup3\n              swap1\n              sub\n              0x1f\n              and\n              dup3\n              add\n              swap2\n            tag_68:\n              pop\n              pop\n              pop\n              pop\n              pop\n              swap1\n              pop\n                /* \"Donation.sol\":1424:1523  function getDonationName() public view returns (string memory){... */\n              swap1\n              jump\t// out\n                /* \"Donation.sol\":1116:1217  function donationBalance() view external returns (uint) {... */\n            tag_45:\n                /* \"Donation.sol\":1166:1170  uint */\n              0x00\n                /* \"Donation.sol\":1189:1210  address(this).balance */\n              selfbalance\n                /* \"Donation.sol\":1182:1210  return address(this).balance */\n              swap1\n              pop\n                /* \"Donation.sol\":1116:1217  function donationBalance() view external returns (uint) {... */\n              swap1\n              jump\t// out\n                /* \"Donation.sol\":762:1110  function donate() payable external {... */\n            tag_48:\n                /* \"Donation.sol\":828:845  donationMinAmount */\n              sload(0x01)\n                /* \"Donation.sol\":815:824  msg.value */\n              callvalue\n                /* \"Donation.sol\":815:845  msg.value >= donationMinAmount */\n              lt\n              iszero\n                /* \"Donation.sol\":807:887  require(msg.value >= donationMinAmount, \"You cannot donate below ${_minAmount}\") */\n              tag_73\n              jumpi\n              mload(0x40)\n              0x08c379a000000000000000000000000000000000000000000000000000000000\n              dup2\n              mstore\n              0x04\n              add\n              tag_74\n              swap1\n              tag_75\n              jump\t// in\n            tag_74:\n              mload(0x40)\n              dup1\n              swap2\n              sub\n              swap1\n              revert\n            tag_73:\n                /* \"Donation.sol\":902:929  acceptPaymentAfterAmountMet */\n              0x03\n              0x00\n              swap1\n              sload\n              swap1\n              0x0100\n              exp\n              swap1\n              div\n              0xff\n              and\n                /* \"Donation.sol\":897:1104  if (!acceptPaymentAfterAmountMet) {... */\n              tag_76\n              jumpi\n                /* \"Donation.sol\":945:957  uint balance */\n              0x00\n                /* \"Donation.sol\":960:981  address(this).balance */\n              selfbalance\n                /* \"Donation.sol\":945:981  uint balance = address(this).balance */\n              swap1\n              pop\n                /* \"Donation.sol\":1026:1046  donationAmountNeeded */\n              sload(0x02)\n                /* \"Donation.sol\":1013:1022  msg.value */\n              callvalue\n                /* \"Donation.sol\":1003:1010  balance */\n              dup3\n                /* \"Donation.sol\":1003:1022  balance + msg.value */\n              tag_77\n              swap2\n              swap1\n              tag_78\n              jump\t// in\n            tag_77:\n                /* \"Donation.sol\":1003:1046  balance + msg.value <= donationAmountNeeded */\n              gt\n              iszero\n                /* \"Donation.sol\":995:1093  require(balance + msg.value <= donationAmountNeeded, \"Your donation will cross the amount needed\") */\n              tag_79\n              jumpi\n              mload(0x40)\n              0x08c379a000000000000000000000000000000000000000000000000000000000\n              dup2\n              mstore\n              0x04\n              add\n              tag_80\n              swap1\n              tag_81\n              jump\t// in\n            tag_80:\n              mload(0x40)\n              dup1\n              swap2\n              sub\n              swap1\n              revert\n            tag_79:\n                /* \"Donation.sol\":931:1104  {... */\n              pop\n                /* \"Donation.sol\":897:1104  if (!acceptPaymentAfterAmountMet) {... */\n            tag_76:\n                /* \"Donation.sol\":762:1110  function donate() payable external {... */\n              jump\t// out\n                /* \"#utility.yul\":7:125   */\n            tag_83:\n                /* \"#utility.yul\":94:118   */\n              tag_85\n                /* \"#utility.yul\":112:117   */\n              dup2\n                /* \"#utility.yul\":94:118   */\n              tag_86\n              jump\t// in\n            tag_85:\n                /* \"#utility.yul\":89:92   */\n              dup3\n                /* \"#utility.yul\":82:119   */\n              mstore\n                /* \"#utility.yul\":7:125   */\n              pop\n              pop\n              jump\t// out\n                /* \"#utility.yul\":131:240   */\n            tag_87:\n                /* \"#utility.yul\":212:233   */\n              tag_89\n                /* \"#utility.yul\":227:232   */\n              dup2\n                /* \"#utility.yul\":212:233   */\n              tag_90\n              jump\t// in\n            tag_89:\n                /* \"#utility.yul\":207:210   */\n              dup3\n                /* \"#utility.yul\":200:234   */\n              mstore\n                /* \"#utility.yul\":131:240   */\n              pop\n              pop\n              jump\t// out\n                /* \"#utility.yul\":246:610   */\n            tag_91:\n                /* \"#utility.yul\":334:337   */\n              0x00\n                /* \"#utility.yul\":362:401   */\n              tag_93\n                /* \"#utility.yul\":395:400   */\n              dup3\n                /* \"#utility.yul\":362:401   */\n              tag_94\n              jump\t// in\n            tag_93:\n                /* \"#utility.yul\":417:488   */\n              tag_95\n                /* \"#utility.yul\":481:487   */\n              dup2\n                /* \"#utility.yul\":476:479   */\n              dup6\n                /* \"#utility.yul\":417:488   */\n              tag_96\n              jump\t// in\n            tag_95:\n                /* \"#utility.yul\":410:488   */\n              swap4\n              pop\n                /* \"#utility.yul\":497:549   */\n              tag_97\n                /* \"#utility.yul\":542:548   */\n              dup2\n                /* \"#utility.yul\":537:540   */\n              dup6\n                /* \"#utility.yul\":530:534   */\n              0x20\n                /* \"#utility.yul\":523:528   */\n              dup7\n                /* \"#utility.yul\":519:535   */\n              add\n                /* \"#utility.yul\":497:549   */\n              tag_98\n              jump\t// in\n            tag_97:\n                /* \"#utility.yul\":574:603   */\n              tag_99\n                /* \"#utility.yul\":596:602   */\n              dup2\n                /* \"#utility.yul\":574:603   */\n              tag_100\n              jump\t// in\n            tag_99:\n                /* \"#utility.yul\":569:572   */\n              dup5\n                /* \"#utility.yul\":565:604   */\n              add\n                /* \"#utility.yul\":558:604   */\n              swap2\n              pop\n                /* \"#utility.yul\":338:610   */\n              pop\n                /* \"#utility.yul\":246:610   */\n              swap3\n              swap2\n              pop\n              pop\n              jump\t// out\n                /* \"#utility.yul\":616:982   */\n            tag_101:\n                /* \"#utility.yul\":758:761   */\n              0x00\n                /* \"#utility.yul\":779:846   */\n              tag_103\n                /* \"#utility.yul\":843:845   */\n              0x25\n                /* \"#utility.yul\":838:841   */\n              dup4\n                /* \"#utility.yul\":779:846   */\n              tag_96\n              jump\t// in\n            tag_103:\n                /* \"#utility.yul\":772:846   */\n              swap2\n              pop\n                /* \"#utility.yul\":855:948   */\n              tag_104\n                /* \"#utility.yul\":944:947   */\n              dup3\n                /* \"#utility.yul\":855:948   */\n              tag_105\n              jump\t// in\n            tag_104:\n                /* \"#utility.yul\":973:975   */\n              0x40\n                /* \"#utility.yul\":968:971   */\n              dup3\n                /* \"#utility.yul\":964:976   */\n              add\n                /* \"#utility.yul\":957:976   */\n              swap1\n              pop\n                /* \"#utility.yul\":616:982   */\n              swap2\n              swap1\n              pop\n              jump\t// out\n                /* \"#utility.yul\":988:1354   */\n            tag_106:\n                /* \"#utility.yul\":1130:1133   */\n              0x00\n                /* \"#utility.yul\":1151:1218   */\n              tag_108\n                /* \"#utility.yul\":1215:1217   */\n              0x30\n                /* \"#utility.yul\":1210:1213   */\n              dup4\n                /* \"#utility.yul\":1151:1218   */\n              tag_96\n              jump\t// in\n            tag_108:\n                /* \"#utility.yul\":1144:1218   */\n              swap2\n              pop\n                /* \"#utility.yul\":1227:1320   */\n              tag_109\n                /* \"#utility.yul\":1316:1319   */\n              dup3\n                /* \"#utility.yul\":1227:1320   */\n              tag_110\n              jump\t// in\n            tag_109:\n                /* \"#utility.yul\":1345:1347   */\n              0x40\n                /* \"#utility.yul\":1340:1343   */\n              dup3\n                /* \"#utility.yul\":1336:1348   */\n              add\n                /* \"#utility.yul\":1329:1348   */\n              swap1\n              pop\n                /* \"#utility.yul\":988:1354   */\n              swap2\n              swap1\n              pop\n              jump\t// out\n                /* \"#utility.yul\":1360:1726   */\n            tag_111:\n                /* \"#utility.yul\":1502:1505   */\n              0x00\n                /* \"#utility.yul\":1523:1590   */\n              tag_113\n                /* \"#utility.yul\":1587:1589   */\n              0x2a\n                /* \"#utility.yul\":1582:1585   */\n              dup4\n                /* \"#utility.yul\":1523:1590   */\n              tag_96\n              jump\t// in\n            tag_113:\n                /* \"#utility.yul\":1516:1590   */\n              swap2\n              pop\n                /* \"#utility.yul\":1599:1692   */\n              tag_114\n                /* \"#utility.yul\":1688:1691   */\n              dup3\n                /* \"#utility.yul\":1599:1692   */\n              tag_115\n              jump\t// in\n            tag_114:\n                /* \"#utility.yul\":1717:1719   */\n              0x40\n                /* \"#utility.yul\":1712:1715   */\n              dup3\n                /* \"#utility.yul\":1708:1720   */\n              add\n                /* \"#utility.yul\":1701:1720   */\n              swap1\n              pop\n                /* \"#utility.yul\":1360:1726   */\n              swap2\n              swap1\n              pop\n              jump\t// out\n                /* \"#utility.yul\":1732:2130   */\n            tag_116:\n                /* \"#utility.yul\":1891:1894   */\n              0x00\n                /* \"#utility.yul\":1912:1995   */\n              tag_118\n                /* \"#utility.yul\":1993:1994   */\n              0x00\n                /* \"#utility.yul\":1988:1991   */\n              dup4\n                /* \"#utility.yul\":1912:1995   */\n              tag_119\n              jump\t// in\n            tag_118:\n                /* \"#utility.yul\":1905:1995   */\n              swap2\n              pop\n                /* \"#utility.yul\":2004:2097   */\n              tag_120\n                /* \"#utility.yul\":2093:2096   */\n              dup3\n                /* \"#utility.yul\":2004:2097   */\n              tag_121\n              jump\t// in\n            tag_120:\n                /* \"#utility.yul\":2122:2123   */\n              0x00\n                /* \"#utility.yul\":2117:2120   */\n              dup3\n                /* \"#utility.yul\":2113:2124   */\n              add\n                /* \"#utility.yul\":2106:2124   */\n              swap1\n              pop\n                /* \"#utility.yul\":1732:2130   */\n              swap2\n              swap1\n              pop\n              jump\t// out\n                /* \"#utility.yul\":2136:2254   */\n            tag_122:\n                /* \"#utility.yul\":2223:2247   */\n              tag_124\n                /* \"#utility.yul\":2241:2246   */\n              dup2\n                /* \"#utility.yul\":2223:2247   */\n              tag_125\n              jump\t// in\n            tag_124:\n                /* \"#utility.yul\":2218:2221   */\n              dup3\n                /* \"#utility.yul\":2211:2248   */\n              mstore\n                /* \"#utility.yul\":2136:2254   */\n              pop\n              pop\n              jump\t// out\n                /* \"#utility.yul\":2260:2639   */\n            tag_60:\n                /* \"#utility.yul\":2444:2447   */\n              0x00\n                /* \"#utility.yul\":2466:2613   */\n              tag_127\n                /* \"#utility.yul\":2609:2612   */\n              dup3\n                /* \"#utility.yul\":2466:2613   */\n              tag_116\n              jump\t// in\n            tag_127:\n                /* \"#utility.yul\":2459:2613   */\n              swap2\n              pop\n                /* \"#utility.yul\":2630:2633   */\n              dup2\n                /* \"#utility.yul\":2623:2633   */\n              swap1\n              pop\n                /* \"#utility.yul\":2260:2639   */\n              swap2\n              swap1\n              pop\n              jump\t// out\n                /* \"#utility.yul\":2645:2867   */\n            tag_34:\n                /* \"#utility.yul\":2738:2742   */\n              0x00\n                /* \"#utility.yul\":2776:2778   */\n              0x20\n                /* \"#utility.yul\":2765:2774   */\n              dup3\n                /* \"#utility.yul\":2761:2779   */\n              add\n                /* \"#utility.yul\":2753:2779   */\n              swap1\n              pop\n                /* \"#utility.yul\":2789:2860   */\n              tag_129\n                /* \"#utility.yul\":2857:2858   */\n              0x00\n                /* \"#utility.yul\":2846:2855   */\n              dup4\n                /* \"#utility.yul\":2842:2859   */\n              add\n                /* \"#utility.yul\":2833:2839   */\n              dup5\n                /* \"#utility.yul\":2789:2860   */\n              tag_83\n              jump\t// in\n            tag_129:\n                /* \"#utility.yul\":2645:2867   */\n              swap3\n              swap2\n              pop\n              pop\n              jump\t// out\n                /* \"#utility.yul\":2873:3083   */\n            tag_24:\n                /* \"#utility.yul\":2960:2964   */\n              0x00\n                /* \"#utility.yul\":2998:3000   */\n              0x20\n                /* \"#utility.yul\":2987:2996   */\n              dup3\n                /* \"#utility.yul\":2983:3001   */\n              add\n                /* \"#utility.yul\":2975:3001   */\n              swap1\n              pop\n                /* \"#utility.yul\":3011:3076   */\n              tag_131\n                /* \"#utility.yul\":3073:3074   */\n              0x00\n                /* \"#utility.yul\":3062:3071   */\n              dup4\n                /* \"#utility.yul\":3058:3075   */\n              add\n                /* \"#utility.yul\":3049:3055   */\n              dup5\n                /* \"#utility.yul\":3011:3076   */\n              tag_87\n              jump\t// in\n            tag_131:\n                /* \"#utility.yul\":2873:3083   */\n              swap3\n              swap2\n              pop\n              pop\n              jump\t// out\n                /* \"#utility.yul\":3089:3402   */\n            tag_16:\n                /* \"#utility.yul\":3202:3206   */\n              0x00\n                /* \"#utility.yul\":3240:3242   */\n              0x20\n                /* \"#utility.yul\":3229:3238   */\n              dup3\n                /* \"#utility.yul\":3225:3243   */\n              add\n                /* \"#utility.yul\":3217:3243   */\n              swap1\n              pop\n                /* \"#utility.yul\":3289:3298   */\n              dup2\n                /* \"#utility.yul\":3283:3287   */\n              dup2\n                /* \"#utility.yul\":3279:3299   */\n              sub\n                /* \"#utility.yul\":3275:3276   */\n              0x00\n                /* \"#utility.yul\":3264:3273   */\n              dup4\n                /* \"#utility.yul\":3260:3277   */\n              add\n                /* \"#utility.yul\":3253:3300   */\n              mstore\n                /* \"#utility.yul\":3317:3395   */\n              tag_133\n                /* \"#utility.yul\":3390:3394   */\n              dup2\n                /* \"#utility.yul\":3381:3387   */\n              dup5\n                /* \"#utility.yul\":3317:3395   */\n              tag_91\n              jump\t// in\n            tag_133:\n                /* \"#utility.yul\":3309:3395   */\n              swap1\n              pop\n                /* \"#utility.yul\":3089:3402   */\n              swap3\n              swap2\n              pop\n              pop\n              jump\t// out\n                /* \"#utility.yul\":3408:3827   */\n            tag_75:\n                /* \"#utility.yul\":3574:3578   */\n              0x00\n                /* \"#utility.yul\":3612:3614   */\n              0x20\n                /* \"#utility.yul\":3601:3610   */\n              dup3\n                /* \"#utility.yul\":3597:3615   */\n              add\n                /* \"#utility.yul\":3589:3615   */\n              swap1\n              pop\n                /* \"#utility.yul\":3661:3670   */\n              dup2\n                /* \"#utility.yul\":3655:3659   */\n              dup2\n                /* \"#utility.yul\":3651:3671   */\n              sub\n                /* \"#utility.yul\":3647:3648   */\n              0x00\n                /* \"#utility.yul\":3636:3645   */\n              dup4\n                /* \"#utility.yul\":3632:3649   */\n              add\n                /* \"#utility.yul\":3625:3672   */\n              mstore\n                /* \"#utility.yul\":3689:3820   */\n              tag_135\n                /* \"#utility.yul\":3815:3819   */\n              dup2\n                /* \"#utility.yul\":3689:3820   */\n              tag_101\n              jump\t// in\n            tag_135:\n                /* \"#utility.yul\":3681:3820   */\n              swap1\n              pop\n                /* \"#utility.yul\":3408:3827   */\n              swap2\n              swap1\n              pop\n              jump\t// out\n                /* \"#utility.yul\":3833:4252   */\n            tag_58:\n                /* \"#utility.yul\":3999:4003   */\n              0x00\n                /* \"#utility.yul\":4037:4039   */\n              0x20\n                /* \"#utility.yul\":4026:4035   */\n              dup3\n                /* \"#utility.yul\":4022:4040   */\n              add\n                /* \"#utility.yul\":4014:4040   */\n              swap1\n              pop\n                /* \"#utility.yul\":4086:4095   */\n              dup2\n                /* \"#utility.yul\":4080:4084   */\n              dup2\n                /* \"#utility.yul\":4076:4096   */\n              sub\n                /* \"#utility.yul\":4072:4073   */\n              0x00\n                /* \"#utility.yul\":4061:4070   */\n              dup4\n                /* \"#utility.yul\":4057:4074   */\n              add\n                /* \"#utility.yul\":4050:4097   */\n              mstore\n                /* \"#utility.yul\":4114:4245   */\n              tag_137\n                /* \"#utility.yul\":4240:4244   */\n              dup2\n                /* \"#utility.yul\":4114:4245   */\n              tag_106\n              jump\t// in\n            tag_137:\n                /* \"#utility.yul\":4106:4245   */\n              swap1\n              pop\n                /* \"#utility.yul\":3833:4252   */\n              swap2\n              swap1\n              pop\n              jump\t// out\n                /* \"#utility.yul\":4258:4677   */\n            tag_81:\n                /* \"#utility.yul\":4424:4428   */\n              0x00\n                /* \"#utility.yul\":4462:4464   */\n              0x20\n                /* \"#utility.yul\":4451:4460   */\n              dup3\n                /* \"#utility.yul\":4447:4465   */\n              add\n                /* \"#utility.yul\":4439:4465   */\n              swap1\n              pop\n                /* \"#utility.yul\":4511:4520   */\n              dup2\n                /* \"#utility.yul\":4505:4509   */\n              dup2\n                /* \"#utility.yul\":4501:4521   */\n              sub\n                /* \"#utility.yul\":4497:4498   */\n              0x00\n                /* \"#utility.yul\":4486:4495   */\n              dup4\n                /* \"#utility.yul\":4482:4499   */\n              add\n                /* \"#utility.yul\":4475:4522   */\n              mstore\n                /* \"#utility.yul\":4539:4670   */\n              tag_139\n                /* \"#utility.yul\":4665:4669   */\n              dup2\n                /* \"#utility.yul\":4539:4670   */\n              tag_111\n              jump\t// in\n            tag_139:\n                /* \"#utility.yul\":4531:4670   */\n              swap1\n              pop\n                /* \"#utility.yul\":4258:4677   */\n              swap2\n              swap1\n              pop\n              jump\t// out\n                /* \"#utility.yul\":4683:4905   */\n            tag_29:\n                /* \"#utility.yul\":4776:4780   */\n              0x00\n                /* \"#utility.yul\":4814:4816   */\n              0x20\n                /* \"#utility.yul\":4803:4812   */\n              dup3\n                /* \"#utility.yul\":4799:4817   */\n              add\n                /* \"#utility.yul\":4791:4817   */\n              swap1\n              pop\n                /* \"#utility.yul\":4827:4898   */\n              tag_141\n                /* \"#utility.yul\":4895:4896   */\n              0x00\n                /* \"#utility.yul\":4884:4893   */\n              dup4\n                /* \"#utility.yul\":4880:4897   */\n              add\n                /* \"#utility.yul\":4871:4877   */\n              dup5\n                /* \"#utility.yul\":4827:4898   */\n              tag_122\n              jump\t// in\n            tag_141:\n                /* \"#utility.yul\":4683:4905   */\n              swap3\n              swap2\n              pop\n              pop\n              jump\t// out\n                /* \"#utility.yul\":4911:5010   */\n            tag_94:\n                /* \"#utility.yul\":4963:4969   */\n              0x00\n                /* \"#utility.yul\":4997:5002   */\n              dup2\n                /* \"#utility.yul\":4991:5003   */\n              mload\n                /* \"#utility.yul\":4981:5003   */\n              swap1\n              pop\n                /* \"#utility.yul\":4911:5010   */\n              swap2\n              swap1\n              pop\n              jump\t// out\n                /* \"#utility.yul\":5016:5163   */\n            tag_119:\n                /* \"#utility.yul\":5117:5128   */\n              0x00\n                /* \"#utility.yul\":5154:5157   */\n              dup2\n                /* \"#utility.yul\":5139:5157   */\n              swap1\n              pop\n                /* \"#utility.yul\":5016:5163   */\n              swap3\n              swap2\n              pop\n              pop\n              jump\t// out\n                /* \"#utility.yul\":5169:5338   */\n            tag_96:\n                /* \"#utility.yul\":5253:5264   */\n              0x00\n                /* \"#utility.yul\":5287:5293   */\n              dup3\n                /* \"#utility.yul\":5282:5285   */\n              dup3\n                /* \"#utility.yul\":5275:5294   */\n              mstore\n                /* \"#utility.yul\":5327:5331   */\n              0x20\n                /* \"#utility.yul\":5322:5325   */\n              dup3\n                /* \"#utility.yul\":5318:5332   */\n              add\n                /* \"#utility.yul\":5303:5332   */\n              swap1\n              pop\n                /* \"#utility.yul\":5169:5338   */\n              swap3\n              swap2\n              pop\n              pop\n              jump\t// out\n                /* \"#utility.yul\":5344:5649   */\n            tag_78:\n                /* \"#utility.yul\":5384:5387   */\n              0x00\n                /* \"#utility.yul\":5403:5423   */\n              tag_146\n                /* \"#utility.yul\":5421:5422   */\n              dup3\n                /* \"#utility.yul\":5403:5423   */\n              tag_125\n              jump\t// in\n            tag_146:\n                /* \"#utility.yul\":5398:5423   */\n              swap2\n              pop\n                /* \"#utility.yul\":5437:5457   */\n              tag_147\n                /* \"#utility.yul\":5455:5456   */\n              dup4\n                /* \"#utility.yul\":5437:5457   */\n              tag_125\n              jump\t// in\n            tag_147:\n                /* \"#utility.yul\":5432:5457   */\n              swap3\n              pop\n                /* \"#utility.yul\":5591:5592   */\n              dup3\n                /* \"#utility.yul\":5523:5589   */\n              0xffffffffffffffffffffffffffffffffffffffffffffffffffffffffffffffff\n                /* \"#utility.yul\":5519:5593   */\n              sub\n                /* \"#utility.yul\":5516:5517   */\n              dup3\n                /* \"#utility.yul\":5513:5594   */\n              gt\n                /* \"#utility.yul\":5510:5617   */\n              iszero\n              tag_148\n              jumpi\n                /* \"#utility.yul\":5597:5615   */\n              tag_149\n              tag_150\n              jump\t// in\n            tag_149:\n                /* \"#utility.yul\":5510:5617   */\n            tag_148:\n                /* \"#utility.yul\":5641:5642   */\n              dup3\n                /* \"#utility.yul\":5638:5639   */\n              dup3\n                /* \"#utility.yul\":5634:5643   */\n              add\n                /* \"#utility.yul\":5627:5643   */\n              swap1\n              pop\n                /* \"#utility.yul\":5344:5649   */\n              swap3\n              swap2\n              pop\n              pop\n              jump\t// out\n                /* \"#utility.yul\":5655:5751   */\n            tag_86:\n                /* \"#utility.yul\":5692:5699   */\n              0x00\n                /* \"#utility.yul\":5721:5745   */\n              tag_152\n                /* \"#utility.yul\":5739:5744   */\n              dup3\n                /* \"#utility.yul\":5721:5745   */\n              tag_153\n              jump\t// in\n            tag_152:\n                /* \"#utility.yul\":5710:5745   */\n              swap1\n              pop\n                /* \"#utility.yul\":5655:5751   */\n              swap2\n              swap1\n              pop\n              jump\t// out\n                /* \"#utility.yul\":5757:5847   */\n            tag_90:\n                /* \"#utility.yul\":5791:5798   */\n              0x00\n                /* \"#utility.yul\":5834:5839   */\n              dup2\n                /* \"#utility.yul\":5827:5840   */\n              iszero\n                /* \"#utility.yul\":5820:5841   */\n              iszero\n                /* \"#utility.yul\":5809:5841   */\n              swap1\n              pop\n                /* \"#utility.yul\":5757:5847   */\n              swap2\n              swap1\n              pop\n              jump\t// out\n                /* \"#utility.yul\":5853:5979   */\n            tag_153:\n                /* \"#utility.yul\":5890:5897   */\n              0x00\n                /* \"#utility.yul\":5930:5972   */\n              0xffffffffffffffffffffffffffffffffffffffff\n                /* \"#utility.yul\":5923:5928   */\n              dup3\n                /* \"#utility.yul\":5919:5973   */\n              and\n                /* \"#utility.yul\":5908:5973   */\n              swap1\n              pop\n                /* \"#utility.yul\":5853:5979   */\n              swap2\n              swap1\n              pop\n              jump\t// out\n                /* \"#utility.yul\":5985:6062   */\n            tag_125:\n                /* \"#utility.yul\":6022:6029   */\n              0x00\n                /* \"#utility.yul\":6051:6056   */\n              dup2\n                /* \"#utility.yul\":6040:6056   */\n              swap1\n              pop\n                /* \"#utility.yul\":5985:6062   */\n              swap2\n              swap1\n              pop\n              jump\t// out\n                /* \"#utility.yul\":6068:6375   */\n            tag_98:\n                /* \"#utility.yul\":6136:6137   */\n              0x00\n                /* \"#utility.yul\":6146:6259   */\n            tag_158:\n                /* \"#utility.yul\":6160:6166   */\n              dup4\n                /* \"#utility.yul\":6157:6158   */\n              dup2\n                /* \"#utility.yul\":6154:6167   */\n              lt\n                /* \"#utility.yul\":6146:6259   */\n              iszero\n              tag_160\n              jumpi\n                /* \"#utility.yul\":6245:6246   */\n              dup1\n                /* \"#utility.yul\":6240:6243   */\n              dup3\n                /* \"#utility.yul\":6236:6247   */\n              add\n                /* \"#utility.yul\":6230:6248   */\n              mload\n                /* \"#utility.yul\":6226:6227   */\n              dup2\n                /* \"#utility.yul\":6221:6224   */\n              dup5\n                /* \"#utility.yul\":6217:6228   */\n              add\n                /* \"#utility.yul\":6210:6249   */\n              mstore\n                /* \"#utility.yul\":6182:6184   */\n              0x20\n                /* \"#utility.yul\":6179:6180   */\n              dup2\n                /* \"#utility.yul\":6175:6185   */\n              add\n                /* \"#utility.yul\":6170:6185   */\n              swap1\n              pop\n                /* \"#utility.yul\":6146:6259   */\n              jump(tag_158)\n            tag_160:\n                /* \"#utility.yul\":6277:6283   */\n              dup4\n                /* \"#utility.yul\":6274:6275   */\n              dup2\n                /* \"#utility.yul\":6271:6284   */\n              gt\n                /* \"#utility.yul\":6268:6369   */\n              iszero\n              tag_161\n              jumpi\n                /* \"#utility.yul\":6357:6358   */\n              0x00\n                /* \"#utility.yul\":6348:6354   */\n              dup5\n                /* \"#utility.yul\":6343:6346   */\n              dup5\n                /* \"#utility.yul\":6339:6355   */\n              add\n                /* \"#utility.yul\":6332:6359   */\n              mstore\n                /* \"#utility.yul\":6268:6369   */\n            tag_161:\n                /* \"#utility.yul\":6117:6375   */\n              pop\n                /* \"#utility.yul\":6068:6375   */\n              pop\n              pop\n              pop\n              jump\t// out\n                /* \"#utility.yul\":6381:6701   */\n            tag_50:\n                /* \"#utility.yul\":6425:6431   */\n              0x00\n                /* \"#utility.yul\":6462:6463   */\n              0x02\n                /* \"#utility.yul\":6456:6460   */\n              dup3\n                /* \"#utility.yul\":6452:6464   */\n              div\n                /* \"#utility.yul\":6442:6464   */\n              swap1\n              pop\n                /* \"#utility.yul\":6509:6510   */\n              0x01\n                /* \"#utility.yul\":6503:6507   */\n              dup3\n                /* \"#utility.yul\":6499:6511   */\n              and\n                /* \"#utility.yul\":6530:6548   */\n              dup1\n                /* \"#utility.yul\":6520:6601   */\n              tag_163\n              jumpi\n                /* \"#utility.yul\":6586:6590   */\n              0x7f\n                /* \"#utility.yul\":6578:6584   */\n              dup3\n                /* \"#utility.yul\":6574:6591   */\n              and\n                /* \"#utility.yul\":6564:6591   */\n              swap2\n              pop\n                /* \"#utility.yul\":6520:6601   */\n            tag_163:\n                /* \"#utility.yul\":6648:6650   */\n              0x20\n                /* \"#utility.yul\":6640:6646   */\n              dup3\n                /* \"#utility.yul\":6637:6651   */\n              lt\n                /* \"#utility.yul\":6617:6635   */\n              dup2\n                /* \"#utility.yul\":6614:6652   */\n              eq\n                /* \"#utility.yul\":6611:6695   */\n              iszero\n              tag_164\n              jumpi\n                /* \"#utility.yul\":6667:6685   */\n              tag_165\n              tag_166\n              jump\t// in\n            tag_165:\n                /* \"#utility.yul\":6611:6695   */\n            tag_164:\n                /* \"#utility.yul\":6432:6701   */\n              pop\n                /* \"#utility.yul\":6381:6701   */\n              swap2\n              swap1\n              pop\n              jump\t// out\n                /* \"#utility.yul\":6707:6887   */\n            tag_150:\n                /* \"#utility.yul\":6755:6832   */\n              0x4e487b7100000000000000000000000000000000000000000000000000000000\n                /* \"#utility.yul\":6752:6753   */\n              0x00\n                /* \"#utility.yul\":6745:6833   */\n              mstore\n                /* \"#utility.yul\":6852:6856   */\n              0x11\n                /* \"#utility.yul\":6849:6850   */\n              0x04\n                /* \"#utility.yul\":6842:6857   */\n              mstore\n                /* \"#utility.yul\":6876:6880   */\n              0x24\n                /* \"#utility.yul\":6873:6874   */\n              0x00\n                /* \"#utility.yul\":6866:6881   */\n              revert\n                /* \"#utility.yul\":6893:7073   */\n            tag_166:\n                /* \"#utility.yul\":6941:7018   */\n              0x4e487b7100000000000000000000000000000000000000000000000000000000\n                /* \"#utility.yul\":6938:6939   */\n              0x00\n                /* \"#utility.yul\":6931:7019   */\n              mstore\n                /* \"#utility.yul\":7038:7042   */\n              0x22\n                /* \"#utility.yul\":7035:7036   */\n              0x04\n                /* \"#utility.yul\":7028:7043   */\n              mstore\n                /* \"#utility.yul\":7062:7066   */\n              0x24\n                /* \"#utility.yul\":7059:7060   */\n              0x00\n                /* \"#utility.yul\":7052:7067   */\n              revert\n                /* \"#utility.yul\":7079:7181   */\n            tag_100:\n                /* \"#utility.yul\":7120:7126   */\n              0x00\n                /* \"#utility.yul\":7171:7173   */\n              0x1f\n                /* \"#utility.yul\":7167:7174   */\n              not\n                /* \"#utility.yul\":7162:7164   */\n              0x1f\n                /* \"#utility.yul\":7155:7160   */\n              dup4\n                /* \"#utility.yul\":7151:7165   */\n              add\n                /* \"#utility.yul\":7147:7175   */\n              and\n                /* \"#utility.yul\":7137:7175   */\n              swap1\n              pop\n                /* \"#utility.yul\":7079:7181   */\n              swap2\n              swap1\n              pop\n              jump\t// out\n                /* \"#utility.yul\":7187:7411   */\n            tag_105:\n                /* \"#utility.yul\":7327:7361   */\n              0x596f752063616e6e6f7420646f6e6174652062656c6f7720247b5f6d696e416d\n                /* \"#utility.yul\":7323:7324   */\n              0x00\n                /* \"#utility.yul\":7315:7321   */\n              dup3\n                /* \"#utility.yul\":7311:7325   */\n              add\n                /* \"#utility.yul\":7304:7362   */\n              mstore\n                /* \"#utility.yul\":7396:7403   */\n              0x6f756e747d000000000000000000000000000000000000000000000000000000\n                /* \"#utility.yul\":7391:7393   */\n              0x20\n                /* \"#utility.yul\":7383:7389   */\n              dup3\n                /* \"#utility.yul\":7379:7394   */\n              add\n                /* \"#utility.yul\":7372:7404   */\n              mstore\n                /* \"#utility.yul\":7187:7411   */\n              pop\n              jump\t// out\n                /* \"#utility.yul\":7417:7652   */\n            tag_110:\n                /* \"#utility.yul\":7557:7591   */\n              0x4f6e6c79206f776e6572206f66207468697320646f6e6174696f6e2063616e20\n                /* \"#utility.yul\":7553:7554   */\n              0x00\n                /* \"#utility.yul\":7545:7551   */\n              dup3\n                /* \"#utility.yul\":7541:7555   */\n              add\n                /* \"#utility.yul\":7534:7592   */\n              mstore\n                /* \"#utility.yul\":7626:7644   */\n              0x77697468647261772066726f6d20697400000000000000000000000000000000\n                /* \"#utility.yul\":7621:7623   */\n              0x20\n                /* \"#utility.yul\":7613:7619   */\n              dup3\n                /* \"#utility.yul\":7609:7624   */\n              add\n                /* \"#utility.yul\":7602:7645   */\n              mstore\n                /* \"#utility.yul\":7417:7652   */\n              pop\n              jump\t// out\n                /* \"#utility.yul\":7658:7887   */\n            tag_115:\n                /* \"#utility.yul\":7798:7832   */\n              0x596f757220646f6e6174696f6e2077696c6c2063726f73732074686520616d6f\n                /* \"#utility.yul\":7794:7795   */\n              0x00\n                /* \"#utility.yul\":7786:7792   */\n              dup3\n                /* \"#utility.yul\":7782:7796   */\n              add\n                /* \"#utility.yul\":7775:7833   */\n              mstore\n                /* \"#utility.yul\":7867:7879   */\n              0x756e74206e656564656400000000000000000000000000000000000000000000\n                /* \"#utility.yul\":7862:7864   */\n              0x20\n                /* \"#utility.yul\":7854:7860   */\n              dup3\n                /* \"#utility.yul\":7850:7865   */\n              add\n                /* \"#utility.yul\":7843:7880   */\n              mstore\n                /* \"#utility.yul\":7658:7887   */\n              pop\n              jump\t// out\n                /* \"#utility.yul\":7893:8007   */\n            tag_121:\n              pop\n              jump\t// out\n\n            auxdata: 0xa26469706673582212203f0bf659a1794662cec930203011942e4b80f261848fef6be0a031e9087926c964736f6c63430008070033\n        }\n    }\n\n    auxdata: 0xa26469706673582212201947a6f306c937a778be34f40771e837c980708f12ae63a0c528a9655303c8a664736f6c63430008070033\n}\n",
				"bytecode": {
					"linkReferences": {},
					"object": "608060405234801561001057600080fd5b50611a21806100206000396000f3fe6080604052600436106200005c5760003560e01c8063615d1f031462000061578063767d78b214620000a55780637c6abc8214620000e9578063a6b036331462000109578063e54821531462000139578063f4139c581462000167575b600080fd5b3480156200006e57600080fd5b506200008d6004803603810190620000879190620006d4565b620001ab565b6040516200009c9190620008a0565b60405180910390f35b348015620000b257600080fd5b50620000d16004803603810190620000cb919062000651565b6200025e565b604051620000e0919062000959565b60405180910390f35b62000107600480360381019062000101919062000651565b620002ee565b005b3480156200011657600080fd5b50620001216200035a565b604051620001309190620008bd565b60405180910390f35b3480156200014657600080fd5b506200016560048036038101906200015f919062000651565b620003ea565b005b3480156200017457600080fd5b506200019360048036038101906200018d919062000651565b62000455565b604051620001a29190620008e1565b60405180910390f35b60008085838587604051620001c090620004eb565b620001cf949392919062000905565b604051809103906000f080158015620001ec573d6000803e3d6000fd5b5090506000819080600181540180825580915050600190039060005260206000200160009091909190916101000a81548173ffffffffffffffffffffffffffffffffffffffff021916908373ffffffffffffffffffffffffffffffffffffffff16021790555080915050949350505050565b6000808290508073ffffffffffffffffffffffffffffffffffffffff1663ed11f46a6040518163ffffffff1660e01b815260040160206040518083038186803b158015620002ab57600080fd5b505afa158015620002c0573d6000803e3d6000fd5b505050506040513d601f19601f82011682018060405250810190620002e6919062000765565b915050919050565b60008190508073ffffffffffffffffffffffffffffffffffffffff1663ed88c68e346040518263ffffffff1660e01b81526004016000604051808303818588803b1580156200033c57600080fd5b505af115801562000351573d6000803e3d6000fd5b50505050505050565b60606000805480602002602001604051908101604052809291908181526020018280548015620003e057602002820191906000526020600020905b8160009054906101000a900473ffffffffffffffffffffffffffffffffffffffff1673ffffffffffffffffffffffffffffffffffffffff168152602001906001019080831162000395575b5050505050905090565b60008190508073ffffffffffffffffffffffffffffffffffffffff16633ccfd60b6040518163ffffffff1660e01b8152600401600060405180830381600087803b1580156200043857600080fd5b505af11580156200044d573d6000803e3d6000fd5b505050505050565b606060008290508073ffffffffffffffffffffffffffffffffffffffff1663eae3f7646040518163ffffffff1660e01b815260040160006040518083038186803b158015620004a357600080fd5b505afa158015620004b8573d6000803e3d6000fd5b505050506040513d6000823e3d601f19601f82011682018060405250810190620004e3919062000683565b915050919050565b610e1e8062000bce83390190565b6000620005106200050a846200099f565b62000976565b9050828152602081018484840111156200052f576200052e62000b5f565b5b6200053c84828562000ab0565b509392505050565b60006200055b62000555846200099f565b62000976565b9050828152602081018484840111156200057a576200057962000b5f565b5b6200058784828562000abf565b509392505050565b600081359050620005a08162000b7f565b92915050565b600081359050620005b78162000b99565b92915050565b600082601f830112620005d557620005d462000b5a565b5b8135620005e7848260208601620004f9565b91505092915050565b600082601f83011262000608576200060762000b5a565b5b81516200061a84826020860162000544565b91505092915050565b600081359050620006348162000bb3565b92915050565b6000815190506200064b8162000bb3565b92915050565b6000602082840312156200066a576200066962000b69565b5b60006200067a848285016200058f565b91505092915050565b6000602082840312156200069c576200069b62000b69565b5b600082015167ffffffffffffffff811115620006bd57620006bc62000b64565b5b620006cb84828501620005f0565b91505092915050565b60008060008060808587031215620006f157620006f062000b69565b5b600085013567ffffffffffffffff81111562000712576200071162000b64565b5b6200072087828801620005bd565b9450506020620007338782880162000623565b93505060406200074687828801620005a6565b9250506060620007598782880162000623565b91505092959194509250565b6000602082840312156200077e576200077d62000b69565b5b60006200078e848285016200063a565b91505092915050565b6000620007a583836200083d565b60208301905092915050565b620007bc8162000a2a565b82525050565b6000620007cf82620009e5565b620007db818562000a08565b9350620007e883620009d5565b8060005b838110156200081f57815162000803888262000797565b97506200081083620009fb565b925050600181019050620007ec565b5085935050505092915050565b620008378162000a3e565b82525050565b620008488162000a74565b82525050565b60006200085b82620009f0565b62000867818562000a19565b93506200087981856020860162000abf565b620008848162000b6e565b840191505092915050565b6200089a8162000a6a565b82525050565b6000602082019050620008b76000830184620007b1565b92915050565b60006020820190508181036000830152620008d98184620007c2565b905092915050565b60006020820190508181036000830152620008fd81846200084e565b905092915050565b600060808201905081810360008301526200092181876200084e565b90506200093260208301866200088f565b6200094160408301856200082c565b6200095060608301846200088f565b95945050505050565b60006020820190506200097060008301846200088f565b92915050565b60006200098262000995565b905062000990828262000af5565b919050565b6000604051905090565b600067ffffffffffffffff821115620009bd57620009bc62000b2b565b5b620009c88262000b6e565b9050602081019050919050565b6000819050602082019050919050565b600081519050919050565b600081519050919050565b6000602082019050919050565b600082825260208201905092915050565b600082825260208201905092915050565b600062000a378262000a4a565b9050919050565b60008115159050919050565b600073ffffffffffffffffffffffffffffffffffffffff82169050919050565b6000819050919050565b600062000a818262000a88565b9050919050565b600062000a958262000a9c565b9050919050565b600062000aa98262000a4a565b9050919050565b82818337600083830152505050565b60005b8381101562000adf57808201518184015260208101905062000ac2565b8381111562000aef576000848401525b50505050565b62000b008262000b6e565b810181811067ffffffffffffffff8211171562000b225762000b2162000b2b565b5b80604052505050565b7f4e487b7100000000000000000000000000000000000000000000000000000000600052604160045260246000fd5b600080fd5b600080fd5b600080fd5b600080fd5b6000601f19601f8301169050919050565b62000b8a8162000a2a565b811462000b9657600080fd5b50565b62000ba48162000a3e565b811462000bb057600080fd5b50565b62000bbe8162000a6a565b811462000bca57600080fd5b5056fe60806040523480156200001157600080fd5b5060405162000e1e38038062000e1e83398181016040528101906200003791906200021f565b83600090805190602001906200004f929190620000c3565b508260018190555081600360006101000a81548160ff0219169083151502179055508060028190555033600360016101000a81548173ffffffffffffffffffffffffffffffffffffffff021916908373ffffffffffffffffffffffffffffffffffffffff160217905550505050506200047e565b828054620000d1906200035b565b90600052602060002090601f016020900481019282620000f5576000855562000141565b82601f106200011057805160ff191683800117855562000141565b8280016001018555821562000141579182015b828111156200014057825182559160200191906001019062000123565b5b50905062000150919062000154565b5090565b5b808211156200016f57600081600090555060010162000155565b5090565b60006200018a6200018484620002d9565b620002b0565b905082815260208101848484011115620001a957620001a86200042a565b5b620001b684828562000325565b509392505050565b600081519050620001cf816200044a565b92915050565b600082601f830112620001ed57620001ec62000425565b5b8151620001ff84826020860162000173565b91505092915050565b600081519050620002198162000464565b92915050565b600080600080608085870312156200023c576200023b62000434565b5b600085015167ffffffffffffffff8111156200025d576200025c6200042f565b5b6200026b87828801620001d5565b94505060206200027e8782880162000208565b93505060406200029187828801620001be565b9250506060620002a48782880162000208565b91505092959194509250565b6000620002bc620002cf565b9050620002ca828262000391565b919050565b6000604051905090565b600067ffffffffffffffff821115620002f757620002f6620003f6565b5b620003028262000439565b9050602081019050919050565b60008115159050919050565b6000819050919050565b60005b838110156200034557808201518184015260208101905062000328565b8381111562000355576000848401525b50505050565b600060028204905060018216806200037457607f821691505b602082108114156200038b576200038a620003c7565b5b50919050565b6200039c8262000439565b810181811067ffffffffffffffff82111715620003be57620003bd620003f6565b5b80604052505050565b7f4e487b7100000000000000000000000000000000000000000000000000000000600052602260045260246000fd5b7f4e487b7100000000000000000000000000000000000000000000000000000000600052604160045260246000fd5b600080fd5b600080fd5b600080fd5b600080fd5b6000601f19601f8301169050919050565b62000455816200030f565b81146200046157600080fd5b50565b6200046f816200031b565b81146200047b57600080fd5b50565b610990806200048e6000396000f3fe6080604052600436106100865760003560e01c8063893d20e811610059578063893d20e814610123578063b383bf2d1461014e578063eae3f76414610179578063ed11f46a146101a4578063ed88c68e146101cf57610086565b8063354ecc851461008b5780633ccfd60b146100b6578063798be230146100cd57806380fdef1b146100f8575b600080fd5b34801561009757600080fd5b506100a06101d9565b6040516100ad9190610634565b60405180910390f35b3480156100c257600080fd5b506100cb610267565b005b3480156100d957600080fd5b506100e2610362565b6040516100ef9190610619565b60405180910390f35b34801561010457600080fd5b5061010d610375565b60405161011a91906106b6565b60405180910390f35b34801561012f57600080fd5b5061013861037b565b60405161014591906105fe565b60405180910390f35b34801561015a57600080fd5b506101636103a5565b60405161017091906106b6565b60405180910390f35b34801561018557600080fd5b5061018e6103ab565b60405161019b9190610634565b60405180910390f35b3480156101b057600080fd5b506101b961043d565b6040516101c691906106b6565b60405180910390f35b6101d7610445565b005b600080546101e6906107c9565b80601f0160208091040260200160405190810160405280929190818152602001828054610212906107c9565b801561025f5780601f106102345761010080835404028352916020019161025f565b820191906000526020600020905b81548152906001019060200180831161024257829003601f168201915b505050505081565b3373ffffffffffffffffffffffffffffffffffffffff16600360019054906101000a900473ffffffffffffffffffffffffffffffffffffffff1673ffffffffffffffffffffffffffffffffffffffff16146102f7576040517f08c379a00000000000000000000000000000000000000000000000000000000081526004016102ee90610676565b60405180910390fd5b3373ffffffffffffffffffffffffffffffffffffffff164760405161031b906105e9565b60006040518083038185875af1925050503d8060008114610358576040519150601f19603f3d011682016040523d82523d6000602084013e61035d565b606091505b505050565b600360009054906101000a900460ff1681565b60025481565b6000600360019054906101000a900473ffffffffffffffffffffffffffffffffffffffff16905090565b60015481565b6060600080546103ba906107c9565b80601f01602080910402602001604051908101604052809291908181526020018280546103e6906107c9565b80156104335780601f1061040857610100808354040283529160200191610433565b820191906000526020600020905b81548152906001019060200180831161041657829003601f168201915b5050505050905090565b600047905090565b60015434101561048a576040517f08c379a000000000000000000000000000000000000000000000000000000000815260040161048190610656565b60405180910390fd5b600360009054906101000a900460ff166104f557600047905060025434826104b291906106f8565b11156104f3576040517f08c379a00000000000000000000000000000000000000000000000000000000081526004016104ea90610696565b60405180910390fd5b505b565b6105008161074e565b82525050565b61050f81610760565b82525050565b6000610520826106d1565b61052a81856106e7565b935061053a818560208601610796565b61054381610859565b840191505092915050565b600061055b6025836106e7565b91506105668261086a565b604082019050919050565b600061057e6030836106e7565b9150610589826108b9565b604082019050919050565b60006105a1602a836106e7565b91506105ac82610908565b604082019050919050565b60006105c46000836106dc565b91506105cf82610957565b600082019050919050565b6105e38161078c565b82525050565b60006105f4826105b7565b9150819050919050565b600060208201905061061360008301846104f7565b92915050565b600060208201905061062e6000830184610506565b92915050565b6000602082019050818103600083015261064e8184610515565b905092915050565b6000602082019050818103600083015261066f8161054e565b9050919050565b6000602082019050818103600083015261068f81610571565b9050919050565b600060208201905081810360008301526106af81610594565b9050919050565b60006020820190506106cb60008301846105da565b92915050565b600081519050919050565b600081905092915050565b600082825260208201905092915050565b60006107038261078c565b915061070e8361078c565b9250827fffffffffffffffffffffffffffffffffffffffffffffffffffffffffffffffff03821115610743576107426107fb565b5b828201905092915050565b60006107598261076c565b9050919050565b60008115159050919050565b600073ffffffffffffffffffffffffffffffffffffffff82169050919050565b6000819050919050565b60005b838110156107b4578082015181840152602081019050610799565b838111156107c3576000848401525b50505050565b600060028204905060018216806107e157607f821691505b602082108114156107f5576107f461082a565b5b50919050565b7f4e487b7100000000000000000000000000000000000000000000000000000000600052601160045260246000fd5b7f4e487b7100000000000000000000000000000000000000000000000000000000600052602260045260246000fd5b6000601f19601f8301169050919050565b7f596f752063616e6e6f7420646f6e6174652062656c6f7720247b5f6d696e416d60008201527f6f756e747d000000000000000000000000000000000000000000000000000000602082015250565b7f4f6e6c79206f776e6572206f66207468697320646f6e6174696f6e2063616e2060008201527f77697468647261772066726f6d20697400000000000000000000000000000000602082015250565b7f596f757220646f6e6174696f6e2077696c6c2063726f73732074686520616d6f60008201527f756e74206e656564656400000000000000000000000000000000000000000000602082015250565b5056fea26469706673582212203f0bf659a1794662cec930203011942e4b80f261848fef6be0a031e9087926c964736f6c63430008070033a26469706673582212201947a6f306c937a778be34f40771e837c980708f12ae63a0c528a9655303c8a664736f6c63430008070033",
					"opcodes": "PUSH1 0x80 PUSH1 0x40 MSTORE CALLVALUE DUP1 ISZERO PUSH2 0x10 JUMPI PUSH1 0x0 DUP1 REVERT JUMPDEST POP PUSH2 0x1A21 DUP1 PUSH2 0x20 PUSH1 0x0 CODECOPY PUSH1 0x0 RETURN INVALID PUSH1 0x80 PUSH1 0x40 MSTORE PUSH1 0x4 CALLDATASIZE LT PUSH3 0x5C JUMPI PUSH1 0x0 CALLDATALOAD PUSH1 0xE0 SHR DUP1 PUSH4 0x615D1F03 EQ PUSH3 0x61 JUMPI DUP1 PUSH4 0x767D78B2 EQ PUSH3 0xA5 JUMPI DUP1 PUSH4 0x7C6ABC82 EQ PUSH3 0xE9 JUMPI DUP1 PUSH4 0xA6B03633 EQ PUSH3 0x109 JUMPI DUP1 PUSH4 0xE5482153 EQ PUSH3 0x139 JUMPI DUP1 PUSH4 0xF4139C58 EQ PUSH3 0x167 JUMPI JUMPDEST PUSH1 0x0 DUP1 REVERT JUMPDEST CALLVALUE DUP1 ISZERO PUSH3 0x6E JUMPI PUSH1 0x0 DUP1 REVERT JUMPDEST POP PUSH3 0x8D PUSH1 0x4 DUP1 CALLDATASIZE SUB DUP2 ADD SWAP1 PUSH3 0x87 SWAP2 SWAP1 PUSH3 0x6D4 JUMP JUMPDEST PUSH3 0x1AB JUMP JUMPDEST PUSH1 0x40 MLOAD PUSH3 0x9C SWAP2 SWAP1 PUSH3 0x8A0 JUMP JUMPDEST PUSH1 0x40 MLOAD DUP1 SWAP2 SUB SWAP1 RETURN JUMPDEST CALLVALUE DUP1 ISZERO PUSH3 0xB2 JUMPI PUSH1 0x0 DUP1 REVERT JUMPDEST POP PUSH3 0xD1 PUSH1 0x4 DUP1 CALLDATASIZE SUB DUP2 ADD SWAP1 PUSH3 0xCB SWAP2 SWAP1 PUSH3 0x651 JUMP JUMPDEST PUSH3 0x25E JUMP JUMPDEST PUSH1 0x40 MLOAD PUSH3 0xE0 SWAP2 SWAP1 PUSH3 0x959 JUMP JUMPDEST PUSH1 0x40 MLOAD DUP1 SWAP2 SUB SWAP1 RETURN JUMPDEST PUSH3 0x107 PUSH1 0x4 DUP1 CALLDATASIZE SUB DUP2 ADD SWAP1 PUSH3 0x101 SWAP2 SWAP1 PUSH3 0x651 JUMP JUMPDEST PUSH3 0x2EE JUMP JUMPDEST STOP JUMPDEST CALLVALUE DUP1 ISZERO PUSH3 0x116 JUMPI PUSH1 0x0 DUP1 REVERT JUMPDEST POP PUSH3 0x121 PUSH3 0x35A JUMP JUMPDEST PUSH1 0x40 MLOAD PUSH3 0x130 SWAP2 SWAP1 PUSH3 0x8BD JUMP JUMPDEST PUSH1 0x40 MLOAD DUP1 SWAP2 SUB SWAP1 RETURN JUMPDEST CALLVALUE DUP1 ISZERO PUSH3 0x146 JUMPI PUSH1 0x0 DUP1 REVERT JUMPDEST POP PUSH3 0x165 PUSH1 0x4 DUP1 CALLDATASIZE SUB DUP2 ADD SWAP1 PUSH3 0x15F SWAP2 SWAP1 PUSH3 0x651 JUMP JUMPDEST PUSH3 0x3EA JUMP JUMPDEST STOP JUMPDEST CALLVALUE DUP1 ISZERO PUSH3 0x174 JUMPI PUSH1 0x0 DUP1 REVERT JUMPDEST POP PUSH3 0x193 PUSH1 0x4 DUP1 CALLDATASIZE SUB DUP2 ADD SWAP1 PUSH3 0x18D SWAP2 SWAP1 PUSH3 0x651 JUMP JUMPDEST PUSH3 0x455 JUMP JUMPDEST PUSH1 0x40 MLOAD PUSH3 0x1A2 SWAP2 SWAP1 PUSH3 0x8E1 JUMP JUMPDEST PUSH1 0x40 MLOAD DUP1 SWAP2 SUB SWAP1 RETURN JUMPDEST PUSH1 0x0 DUP1 DUP6 DUP4 DUP6 DUP8 PUSH1 0x40 MLOAD PUSH3 0x1C0 SWAP1 PUSH3 0x4EB JUMP JUMPDEST PUSH3 0x1CF SWAP5 SWAP4 SWAP3 SWAP2 SWAP1 PUSH3 0x905 JUMP JUMPDEST PUSH1 0x40 MLOAD DUP1 SWAP2 SUB SWAP1 PUSH1 0x0 CREATE DUP1 ISZERO DUP1 ISZERO PUSH3 0x1EC JUMPI RETURNDATASIZE PUSH1 0x0 DUP1 RETURNDATACOPY RETURNDATASIZE PUSH1 0x0 REVERT JUMPDEST POP SWAP1 POP PUSH1 0x0 DUP2 SWAP1 DUP1 PUSH1 0x1 DUP2 SLOAD ADD DUP1 DUP3 SSTORE DUP1 SWAP2 POP POP PUSH1 0x1 SWAP1 SUB SWAP1 PUSH1 0x0 MSTORE PUSH1 0x20 PUSH1 0x0 KECCAK256 ADD PUSH1 0x0 SWAP1 SWAP2 SWAP1 SWAP2 SWAP1 SWAP2 PUSH2 0x100 EXP DUP2 SLOAD DUP2 PUSH20 0xFFFFFFFFFFFFFFFFFFFFFFFFFFFFFFFFFFFFFFFF MUL NOT AND SWAP1 DUP4 PUSH20 0xFFFFFFFFFFFFFFFFFFFFFFFFFFFFFFFFFFFFFFFF AND MUL OR SWAP1 SSTORE POP DUP1 SWAP2 POP POP SWAP5 SWAP4 POP POP POP POP JUMP JUMPDEST PUSH1 0x0 DUP1 DUP3 SWAP1 POP DUP1 PUSH20 0xFFFFFFFFFFFFFFFFFFFFFFFFFFFFFFFFFFFFFFFF AND PUSH4 0xED11F46A PUSH1 0x40 MLOAD DUP2 PUSH4 0xFFFFFFFF AND PUSH1 0xE0 SHL DUP2 MSTORE PUSH1 0x4 ADD PUSH1 0x20 PUSH1 0x40 MLOAD DUP1 DUP4 SUB DUP2 DUP7 DUP1 EXTCODESIZE ISZERO DUP1 ISZERO PUSH3 0x2AB JUMPI PUSH1 0x0 DUP1 REVERT JUMPDEST POP GAS STATICCALL ISZERO DUP1 ISZERO PUSH3 0x2C0 JUMPI RETURNDATASIZE PUSH1 0x0 DUP1 RETURNDATACOPY RETURNDATASIZE PUSH1 0x0 REVERT JUMPDEST POP POP POP POP PUSH1 0x40 MLOAD RETURNDATASIZE PUSH1 0x1F NOT PUSH1 0x1F DUP3 ADD AND DUP3 ADD DUP1 PUSH1 0x40 MSTORE POP DUP2 ADD SWAP1 PUSH3 0x2E6 SWAP2 SWAP1 PUSH3 0x765 JUMP JUMPDEST SWAP2 POP POP SWAP2 SWAP1 POP JUMP JUMPDEST PUSH1 0x0 DUP2 SWAP1 POP DUP1 PUSH20 0xFFFFFFFFFFFFFFFFFFFFFFFFFFFFFFFFFFFFFFFF AND PUSH4 0xED88C68E CALLVALUE PUSH1 0x40 MLOAD DUP3 PUSH4 0xFFFFFFFF AND PUSH1 0xE0 SHL DUP2 MSTORE PUSH1 0x4 ADD PUSH1 0x0 PUSH1 0x40 MLOAD DUP1 DUP4 SUB DUP2 DUP6 DUP9 DUP1 EXTCODESIZE ISZERO DUP1 ISZERO PUSH3 0x33C JUMPI PUSH1 0x0 DUP1 REVERT JUMPDEST POP GAS CALL ISZERO DUP1 ISZERO PUSH3 0x351 JUMPI RETURNDATASIZE PUSH1 0x0 DUP1 RETURNDATACOPY RETURNDATASIZE PUSH1 0x0 REVERT JUMPDEST POP POP POP POP POP POP POP JUMP JUMPDEST PUSH1 0x60 PUSH1 0x0 DUP1 SLOAD DUP1 PUSH1 0x20 MUL PUSH1 0x20 ADD PUSH1 0x40 MLOAD SWAP1 DUP2 ADD PUSH1 0x40 MSTORE DUP1 SWAP3 SWAP2 SWAP1 DUP2 DUP2 MSTORE PUSH1 0x20 ADD DUP3 DUP1 SLOAD DUP1 ISZERO PUSH3 0x3E0 JUMPI PUSH1 0x20 MUL DUP3 ADD SWAP2 SWAP1 PUSH1 0x0 MSTORE PUSH1 0x20 PUSH1 0x0 KECCAK256 SWAP1 JUMPDEST DUP2 PUSH1 0x0 SWAP1 SLOAD SWAP1 PUSH2 0x100 EXP SWAP1 DIV PUSH20 0xFFFFFFFFFFFFFFFFFFFFFFFFFFFFFFFFFFFFFFFF AND PUSH20 0xFFFFFFFFFFFFFFFFFFFFFFFFFFFFFFFFFFFFFFFF AND DUP2 MSTORE PUSH1 0x20 ADD SWAP1 PUSH1 0x1 ADD SWAP1 DUP1 DUP4 GT PUSH3 0x395 JUMPI JUMPDEST POP POP POP POP POP SWAP1 POP SWAP1 JUMP JUMPDEST PUSH1 0x0 DUP2 SWAP1 POP DUP1 PUSH20 0xFFFFFFFFFFFFFFFFFFFFFFFFFFFFFFFFFFFFFFFF AND PUSH4 0x3CCFD60B PUSH1 0x40 MLOAD DUP2 PUSH4 0xFFFFFFFF AND PUSH1 0xE0 SHL DUP2 MSTORE PUSH1 0x4 ADD PUSH1 0x0 PUSH1 0x40 MLOAD DUP1 DUP4 SUB DUP2 PUSH1 0x0 DUP8 DUP1 EXTCODESIZE ISZERO DUP1 ISZERO PUSH3 0x438 JUMPI PUSH1 0x0 DUP1 REVERT JUMPDEST POP GAS CALL ISZERO DUP1 ISZERO PUSH3 0x44D JUMPI RETURNDATASIZE PUSH1 0x0 DUP1 RETURNDATACOPY RETURNDATASIZE PUSH1 0x0 REVERT JUMPDEST POP POP POP POP POP POP JUMP JUMPDEST PUSH1 0x60 PUSH1 0x0 DUP3 SWAP1 POP DUP1 PUSH20 0xFFFFFFFFFFFFFFFFFFFFFFFFFFFFFFFFFFFFFFFF AND PUSH4 0xEAE3F764 PUSH1 0x40 MLOAD DUP2 PUSH4 0xFFFFFFFF AND PUSH1 0xE0 SHL DUP2 MSTORE PUSH1 0x4 ADD PUSH1 0x0 PUSH1 0x40 MLOAD DUP1 DUP4 SUB DUP2 DUP7 DUP1 EXTCODESIZE ISZERO DUP1 ISZERO PUSH3 0x4A3 JUMPI PUSH1 0x0 DUP1 REVERT JUMPDEST POP GAS STATICCALL ISZERO DUP1 ISZERO PUSH3 0x4B8 JUMPI RETURNDATASIZE PUSH1 0x0 DUP1 RETURNDATACOPY RETURNDATASIZE PUSH1 0x0 REVERT JUMPDEST POP POP POP POP PUSH1 0x40 MLOAD RETURNDATASIZE PUSH1 0x0 DUP3 RETURNDATACOPY RETURNDATASIZE PUSH1 0x1F NOT PUSH1 0x1F DUP3 ADD AND DUP3 ADD DUP1 PUSH1 0x40 MSTORE POP DUP2 ADD SWAP1 PUSH3 0x4E3 SWAP2 SWAP1 PUSH3 0x683 JUMP JUMPDEST SWAP2 POP POP SWAP2 SWAP1 POP JUMP JUMPDEST PUSH2 0xE1E DUP1 PUSH3 0xBCE DUP4 CODECOPY ADD SWAP1 JUMP JUMPDEST PUSH1 0x0 PUSH3 0x510 PUSH3 0x50A DUP5 PUSH3 0x99F JUMP JUMPDEST PUSH3 0x976 JUMP JUMPDEST SWAP1 POP DUP3 DUP2 MSTORE PUSH1 0x20 DUP2 ADD DUP5 DUP5 DUP5 ADD GT ISZERO PUSH3 0x52F JUMPI PUSH3 0x52E PUSH3 0xB5F JUMP JUMPDEST JUMPDEST PUSH3 0x53C DUP5 DUP3 DUP6 PUSH3 0xAB0 JUMP JUMPDEST POP SWAP4 SWAP3 POP POP POP JUMP JUMPDEST PUSH1 0x0 PUSH3 0x55B PUSH3 0x555 DUP5 PUSH3 0x99F JUMP JUMPDEST PUSH3 0x976 JUMP JUMPDEST SWAP1 POP DUP3 DUP2 MSTORE PUSH1 0x20 DUP2 ADD DUP5 DUP5 DUP5 ADD GT ISZERO PUSH3 0x57A JUMPI PUSH3 0x579 PUSH3 0xB5F JUMP JUMPDEST JUMPDEST PUSH3 0x587 DUP5 DUP3 DUP6 PUSH3 0xABF JUMP JUMPDEST POP SWAP4 SWAP3 POP POP POP JUMP JUMPDEST PUSH1 0x0 DUP2 CALLDATALOAD SWAP1 POP PUSH3 0x5A0 DUP2 PUSH3 0xB7F JUMP JUMPDEST SWAP3 SWAP2 POP POP JUMP JUMPDEST PUSH1 0x0 DUP2 CALLDATALOAD SWAP1 POP PUSH3 0x5B7 DUP2 PUSH3 0xB99 JUMP JUMPDEST SWAP3 SWAP2 POP POP JUMP JUMPDEST PUSH1 0x0 DUP3 PUSH1 0x1F DUP4 ADD SLT PUSH3 0x5D5 JUMPI PUSH3 0x5D4 PUSH3 0xB5A JUMP JUMPDEST JUMPDEST DUP2 CALLDATALOAD PUSH3 0x5E7 DUP5 DUP3 PUSH1 0x20 DUP7 ADD PUSH3 0x4F9 JUMP JUMPDEST SWAP2 POP POP SWAP3 SWAP2 POP POP JUMP JUMPDEST PUSH1 0x0 DUP3 PUSH1 0x1F DUP4 ADD SLT PUSH3 0x608 JUMPI PUSH3 0x607 PUSH3 0xB5A JUMP JUMPDEST JUMPDEST DUP2 MLOAD PUSH3 0x61A DUP5 DUP3 PUSH1 0x20 DUP7 ADD PUSH3 0x544 JUMP JUMPDEST SWAP2 POP POP SWAP3 SWAP2 POP POP JUMP JUMPDEST PUSH1 0x0 DUP2 CALLDATALOAD SWAP1 POP PUSH3 0x634 DUP2 PUSH3 0xBB3 JUMP JUMPDEST SWAP3 SWAP2 POP POP JUMP JUMPDEST PUSH1 0x0 DUP2 MLOAD SWAP1 POP PUSH3 0x64B DUP2 PUSH3 0xBB3 JUMP JUMPDEST SWAP3 SWAP2 POP POP JUMP JUMPDEST PUSH1 0x0 PUSH1 0x20 DUP3 DUP5 SUB SLT ISZERO PUSH3 0x66A JUMPI PUSH3 0x669 PUSH3 0xB69 JUMP JUMPDEST JUMPDEST PUSH1 0x0 PUSH3 0x67A DUP5 DUP3 DUP6 ADD PUSH3 0x58F JUMP JUMPDEST SWAP2 POP POP SWAP3 SWAP2 POP POP JUMP JUMPDEST PUSH1 0x0 PUSH1 0x20 DUP3 DUP5 SUB SLT ISZERO PUSH3 0x69C JUMPI PUSH3 0x69B PUSH3 0xB69 JUMP JUMPDEST JUMPDEST PUSH1 0x0 DUP3 ADD MLOAD PUSH8 0xFFFFFFFFFFFFFFFF DUP2 GT ISZERO PUSH3 0x6BD JUMPI PUSH3 0x6BC PUSH3 0xB64 JUMP JUMPDEST JUMPDEST PUSH3 0x6CB DUP5 DUP3 DUP6 ADD PUSH3 0x5F0 JUMP JUMPDEST SWAP2 POP POP SWAP3 SWAP2 POP POP JUMP JUMPDEST PUSH1 0x0 DUP1 PUSH1 0x0 DUP1 PUSH1 0x80 DUP6 DUP8 SUB SLT ISZERO PUSH3 0x6F1 JUMPI PUSH3 0x6F0 PUSH3 0xB69 JUMP JUMPDEST JUMPDEST PUSH1 0x0 DUP6 ADD CALLDATALOAD PUSH8 0xFFFFFFFFFFFFFFFF DUP2 GT ISZERO PUSH3 0x712 JUMPI PUSH3 0x711 PUSH3 0xB64 JUMP JUMPDEST JUMPDEST PUSH3 0x720 DUP8 DUP3 DUP9 ADD PUSH3 0x5BD JUMP JUMPDEST SWAP5 POP POP PUSH1 0x20 PUSH3 0x733 DUP8 DUP3 DUP9 ADD PUSH3 0x623 JUMP JUMPDEST SWAP4 POP POP PUSH1 0x40 PUSH3 0x746 DUP8 DUP3 DUP9 ADD PUSH3 0x5A6 JUMP JUMPDEST SWAP3 POP POP PUSH1 0x60 PUSH3 0x759 DUP8 DUP3 DUP9 ADD PUSH3 0x623 JUMP JUMPDEST SWAP2 POP POP SWAP3 SWAP6 SWAP2 SWAP5 POP SWAP3 POP JUMP JUMPDEST PUSH1 0x0 PUSH1 0x20 DUP3 DUP5 SUB SLT ISZERO PUSH3 0x77E JUMPI PUSH3 0x77D PUSH3 0xB69 JUMP JUMPDEST JUMPDEST PUSH1 0x0 PUSH3 0x78E DUP5 DUP3 DUP6 ADD PUSH3 0x63A JUMP JUMPDEST SWAP2 POP POP SWAP3 SWAP2 POP POP JUMP JUMPDEST PUSH1 0x0 PUSH3 0x7A5 DUP4 DUP4 PUSH3 0x83D JUMP JUMPDEST PUSH1 0x20 DUP4 ADD SWAP1 POP SWAP3 SWAP2 POP POP JUMP JUMPDEST PUSH3 0x7BC DUP2 PUSH3 0xA2A JUMP JUMPDEST DUP3 MSTORE POP POP JUMP JUMPDEST PUSH1 0x0 PUSH3 0x7CF DUP3 PUSH3 0x9E5 JUMP JUMPDEST PUSH3 0x7DB DUP2 DUP6 PUSH3 0xA08 JUMP JUMPDEST SWAP4 POP PUSH3 0x7E8 DUP4 PUSH3 0x9D5 JUMP JUMPDEST DUP1 PUSH1 0x0 JUMPDEST DUP4 DUP2 LT ISZERO PUSH3 0x81F JUMPI DUP2 MLOAD PUSH3 0x803 DUP9 DUP3 PUSH3 0x797 JUMP JUMPDEST SWAP8 POP PUSH3 0x810 DUP4 PUSH3 0x9FB JUMP JUMPDEST SWAP3 POP POP PUSH1 0x1 DUP2 ADD SWAP1 POP PUSH3 0x7EC JUMP JUMPDEST POP DUP6 SWAP4 POP POP POP POP SWAP3 SWAP2 POP POP JUMP JUMPDEST PUSH3 0x837 DUP2 PUSH3 0xA3E JUMP JUMPDEST DUP3 MSTORE POP POP JUMP JUMPDEST PUSH3 0x848 DUP2 PUSH3 0xA74 JUMP JUMPDEST DUP3 MSTORE POP POP JUMP JUMPDEST PUSH1 0x0 PUSH3 0x85B DUP3 PUSH3 0x9F0 JUMP JUMPDEST PUSH3 0x867 DUP2 DUP6 PUSH3 0xA19 JUMP JUMPDEST SWAP4 POP PUSH3 0x879 DUP2 DUP6 PUSH1 0x20 DUP7 ADD PUSH3 0xABF JUMP JUMPDEST PUSH3 0x884 DUP2 PUSH3 0xB6E JUMP JUMPDEST DUP5 ADD SWAP2 POP POP SWAP3 SWAP2 POP POP JUMP JUMPDEST PUSH3 0x89A DUP2 PUSH3 0xA6A JUMP JUMPDEST DUP3 MSTORE POP POP JUMP JUMPDEST PUSH1 0x0 PUSH1 0x20 DUP3 ADD SWAP1 POP PUSH3 0x8B7 PUSH1 0x0 DUP4 ADD DUP5 PUSH3 0x7B1 JUMP JUMPDEST SWAP3 SWAP2 POP POP JUMP JUMPDEST PUSH1 0x0 PUSH1 0x20 DUP3 ADD SWAP1 POP DUP2 DUP2 SUB PUSH1 0x0 DUP4 ADD MSTORE PUSH3 0x8D9 DUP2 DUP5 PUSH3 0x7C2 JUMP JUMPDEST SWAP1 POP SWAP3 SWAP2 POP POP JUMP JUMPDEST PUSH1 0x0 PUSH1 0x20 DUP3 ADD SWAP1 POP DUP2 DUP2 SUB PUSH1 0x0 DUP4 ADD MSTORE PUSH3 0x8FD DUP2 DUP5 PUSH3 0x84E JUMP JUMPDEST SWAP1 POP SWAP3 SWAP2 POP POP JUMP JUMPDEST PUSH1 0x0 PUSH1 0x80 DUP3 ADD SWAP1 POP DUP2 DUP2 SUB PUSH1 0x0 DUP4 ADD MSTORE PUSH3 0x921 DUP2 DUP8 PUSH3 0x84E JUMP JUMPDEST SWAP1 POP PUSH3 0x932 PUSH1 0x20 DUP4 ADD DUP7 PUSH3 0x88F JUMP JUMPDEST PUSH3 0x941 PUSH1 0x40 DUP4 ADD DUP6 PUSH3 0x82C JUMP JUMPDEST PUSH3 0x950 PUSH1 0x60 DUP4 ADD DUP5 PUSH3 0x88F JUMP JUMPDEST SWAP6 SWAP5 POP POP POP POP POP JUMP JUMPDEST PUSH1 0x0 PUSH1 0x20 DUP3 ADD SWAP1 POP PUSH3 0x970 PUSH1 0x0 DUP4 ADD DUP5 PUSH3 0x88F JUMP JUMPDEST SWAP3 SWAP2 POP POP JUMP JUMPDEST PUSH1 0x0 PUSH3 0x982 PUSH3 0x995 JUMP JUMPDEST SWAP1 POP PUSH3 0x990 DUP3 DUP3 PUSH3 0xAF5 JUMP JUMPDEST SWAP2 SWAP1 POP JUMP JUMPDEST PUSH1 0x0 PUSH1 0x40 MLOAD SWAP1 POP SWAP1 JUMP JUMPDEST PUSH1 0x0 PUSH8 0xFFFFFFFFFFFFFFFF DUP3 GT ISZERO PUSH3 0x9BD JUMPI PUSH3 0x9BC PUSH3 0xB2B JUMP JUMPDEST JUMPDEST PUSH3 0x9C8 DUP3 PUSH3 0xB6E JUMP JUMPDEST SWAP1 POP PUSH1 0x20 DUP2 ADD SWAP1 POP SWAP2 SWAP1 POP JUMP JUMPDEST PUSH1 0x0 DUP2 SWAP1 POP PUSH1 0x20 DUP3 ADD SWAP1 POP SWAP2 SWAP1 POP JUMP JUMPDEST PUSH1 0x0 DUP2 MLOAD SWAP1 POP SWAP2 SWAP1 POP JUMP JUMPDEST PUSH1 0x0 DUP2 MLOAD SWAP1 POP SWAP2 SWAP1 POP JUMP JUMPDEST PUSH1 0x0 PUSH1 0x20 DUP3 ADD SWAP1 POP SWAP2 SWAP1 POP JUMP JUMPDEST PUSH1 0x0 DUP3 DUP3 MSTORE PUSH1 0x20 DUP3 ADD SWAP1 POP SWAP3 SWAP2 POP POP JUMP JUMPDEST PUSH1 0x0 DUP3 DUP3 MSTORE PUSH1 0x20 DUP3 ADD SWAP1 POP SWAP3 SWAP2 POP POP JUMP JUMPDEST PUSH1 0x0 PUSH3 0xA37 DUP3 PUSH3 0xA4A JUMP JUMPDEST SWAP1 POP SWAP2 SWAP1 POP JUMP JUMPDEST PUSH1 0x0 DUP2 ISZERO ISZERO SWAP1 POP SWAP2 SWAP1 POP JUMP JUMPDEST PUSH1 0x0 PUSH20 0xFFFFFFFFFFFFFFFFFFFFFFFFFFFFFFFFFFFFFFFF DUP3 AND SWAP1 POP SWAP2 SWAP1 POP JUMP JUMPDEST PUSH1 0x0 DUP2 SWAP1 POP SWAP2 SWAP1 POP JUMP JUMPDEST PUSH1 0x0 PUSH3 0xA81 DUP3 PUSH3 0xA88 JUMP JUMPDEST SWAP1 POP SWAP2 SWAP1 POP JUMP JUMPDEST PUSH1 0x0 PUSH3 0xA95 DUP3 PUSH3 0xA9C JUMP JUMPDEST SWAP1 POP SWAP2 SWAP1 POP JUMP JUMPDEST PUSH1 0x0 PUSH3 0xAA9 DUP3 PUSH3 0xA4A JUMP JUMPDEST SWAP1 POP SWAP2 SWAP1 POP JUMP JUMPDEST DUP3 DUP2 DUP4 CALLDATACOPY PUSH1 0x0 DUP4 DUP4 ADD MSTORE POP POP POP JUMP JUMPDEST PUSH1 0x0 JUMPDEST DUP4 DUP2 LT ISZERO PUSH3 0xADF JUMPI DUP1 DUP3 ADD MLOAD DUP2 DUP5 ADD MSTORE PUSH1 0x20 DUP2 ADD SWAP1 POP PUSH3 0xAC2 JUMP JUMPDEST DUP4 DUP2 GT ISZERO PUSH3 0xAEF JUMPI PUSH1 0x0 DUP5 DUP5 ADD MSTORE JUMPDEST POP POP POP POP JUMP JUMPDEST PUSH3 0xB00 DUP3 PUSH3 0xB6E JUMP JUMPDEST DUP2 ADD DUP2 DUP2 LT PUSH8 0xFFFFFFFFFFFFFFFF DUP3 GT OR ISZERO PUSH3 0xB22 JUMPI PUSH3 0xB21 PUSH3 0xB2B JUMP JUMPDEST JUMPDEST DUP1 PUSH1 0x40 MSTORE POP POP POP JUMP JUMPDEST PUSH32 0x4E487B7100000000000000000000000000000000000000000000000000000000 PUSH1 0x0 MSTORE PUSH1 0x41 PUSH1 0x4 MSTORE PUSH1 0x24 PUSH1 0x0 REVERT JUMPDEST PUSH1 0x0 DUP1 REVERT JUMPDEST PUSH1 0x0 DUP1 REVERT JUMPDEST PUSH1 0x0 DUP1 REVERT JUMPDEST PUSH1 0x0 DUP1 REVERT JUMPDEST PUSH1 0x0 PUSH1 0x1F NOT PUSH1 0x1F DUP4 ADD AND SWAP1 POP SWAP2 SWAP1 POP JUMP JUMPDEST PUSH3 0xB8A DUP2 PUSH3 0xA2A JUMP JUMPDEST DUP2 EQ PUSH3 0xB96 JUMPI PUSH1 0x0 DUP1 REVERT JUMPDEST POP JUMP JUMPDEST PUSH3 0xBA4 DUP2 PUSH3 0xA3E JUMP JUMPDEST DUP2 EQ PUSH3 0xBB0 JUMPI PUSH1 0x0 DUP1 REVERT JUMPDEST POP JUMP JUMPDEST PUSH3 0xBBE DUP2 PUSH3 0xA6A JUMP JUMPDEST DUP2 EQ PUSH3 0xBCA JUMPI PUSH1 0x0 DUP1 REVERT JUMPDEST POP JUMP INVALID PUSH1 0x80 PUSH1 0x40 MSTORE CALLVALUE DUP1 ISZERO PUSH3 0x11 JUMPI PUSH1 0x0 DUP1 REVERT JUMPDEST POP PUSH1 0x40 MLOAD PUSH3 0xE1E CODESIZE SUB DUP1 PUSH3 0xE1E DUP4 CODECOPY DUP2 DUP2 ADD PUSH1 0x40 MSTORE DUP2 ADD SWAP1 PUSH3 0x37 SWAP2 SWAP1 PUSH3 0x21F JUMP JUMPDEST DUP4 PUSH1 0x0 SWAP1 DUP1 MLOAD SWAP1 PUSH1 0x20 ADD SWAP1 PUSH3 0x4F SWAP3 SWAP2 SWAP1 PUSH3 0xC3 JUMP JUMPDEST POP DUP3 PUSH1 0x1 DUP2 SWAP1 SSTORE POP DUP2 PUSH1 0x3 PUSH1 0x0 PUSH2 0x100 EXP DUP2 SLOAD DUP2 PUSH1 0xFF MUL NOT AND SWAP1 DUP4 ISZERO ISZERO MUL OR SWAP1 SSTORE POP DUP1 PUSH1 0x2 DUP2 SWAP1 SSTORE POP CALLER PUSH1 0x3 PUSH1 0x1 PUSH2 0x100 EXP DUP2 SLOAD DUP2 PUSH20 0xFFFFFFFFFFFFFFFFFFFFFFFFFFFFFFFFFFFFFFFF MUL NOT AND SWAP1 DUP4 PUSH20 0xFFFFFFFFFFFFFFFFFFFFFFFFFFFFFFFFFFFFFFFF AND MUL OR SWAP1 SSTORE POP POP POP POP POP PUSH3 0x47E JUMP JUMPDEST DUP3 DUP1 SLOAD PUSH3 0xD1 SWAP1 PUSH3 0x35B JUMP JUMPDEST SWAP1 PUSH1 0x0 MSTORE PUSH1 0x20 PUSH1 0x0 KECCAK256 SWAP1 PUSH1 0x1F ADD PUSH1 0x20 SWAP1 DIV DUP2 ADD SWAP3 DUP3 PUSH3 0xF5 JUMPI PUSH1 0x0 DUP6 SSTORE PUSH3 0x141 JUMP JUMPDEST DUP3 PUSH1 0x1F LT PUSH3 0x110 JUMPI DUP1 MLOAD PUSH1 0xFF NOT AND DUP4 DUP1 ADD OR DUP6 SSTORE PUSH3 0x141 JUMP JUMPDEST DUP3 DUP1 ADD PUSH1 0x1 ADD DUP6 SSTORE DUP3 ISZERO PUSH3 0x141 JUMPI SWAP2 DUP3 ADD JUMPDEST DUP3 DUP2 GT ISZERO PUSH3 0x140 JUMPI DUP3 MLOAD DUP3 SSTORE SWAP2 PUSH1 0x20 ADD SWAP2 SWAP1 PUSH1 0x1 ADD SWAP1 PUSH3 0x123 JUMP JUMPDEST JUMPDEST POP SWAP1 POP PUSH3 0x150 SWAP2 SWAP1 PUSH3 0x154 JUMP JUMPDEST POP SWAP1 JUMP JUMPDEST JUMPDEST DUP1 DUP3 GT ISZERO PUSH3 0x16F JUMPI PUSH1 0x0 DUP2 PUSH1 0x0 SWAP1 SSTORE POP PUSH1 0x1 ADD PUSH3 0x155 JUMP JUMPDEST POP SWAP1 JUMP JUMPDEST PUSH1 0x0 PUSH3 0x18A PUSH3 0x184 DUP5 PUSH3 0x2D9 JUMP JUMPDEST PUSH3 0x2B0 JUMP JUMPDEST SWAP1 POP DUP3 DUP2 MSTORE PUSH1 0x20 DUP2 ADD DUP5 DUP5 DUP5 ADD GT ISZERO PUSH3 0x1A9 JUMPI PUSH3 0x1A8 PUSH3 0x42A JUMP JUMPDEST JUMPDEST PUSH3 0x1B6 DUP5 DUP3 DUP6 PUSH3 0x325 JUMP JUMPDEST POP SWAP4 SWAP3 POP POP POP JUMP JUMPDEST PUSH1 0x0 DUP2 MLOAD SWAP1 POP PUSH3 0x1CF DUP2 PUSH3 0x44A JUMP JUMPDEST SWAP3 SWAP2 POP POP JUMP JUMPDEST PUSH1 0x0 DUP3 PUSH1 0x1F DUP4 ADD SLT PUSH3 0x1ED JUMPI PUSH3 0x1EC PUSH3 0x425 JUMP JUMPDEST JUMPDEST DUP2 MLOAD PUSH3 0x1FF DUP5 DUP3 PUSH1 0x20 DUP7 ADD PUSH3 0x173 JUMP JUMPDEST SWAP2 POP POP SWAP3 SWAP2 POP POP JUMP JUMPDEST PUSH1 0x0 DUP2 MLOAD SWAP1 POP PUSH3 0x219 DUP2 PUSH3 0x464 JUMP JUMPDEST SWAP3 SWAP2 POP POP JUMP JUMPDEST PUSH1 0x0 DUP1 PUSH1 0x0 DUP1 PUSH1 0x80 DUP6 DUP8 SUB SLT ISZERO PUSH3 0x23C JUMPI PUSH3 0x23B PUSH3 0x434 JUMP JUMPDEST JUMPDEST PUSH1 0x0 DUP6 ADD MLOAD PUSH8 0xFFFFFFFFFFFFFFFF DUP2 GT ISZERO PUSH3 0x25D JUMPI PUSH3 0x25C PUSH3 0x42F JUMP JUMPDEST JUMPDEST PUSH3 0x26B DUP8 DUP3 DUP9 ADD PUSH3 0x1D5 JUMP JUMPDEST SWAP5 POP POP PUSH1 0x20 PUSH3 0x27E DUP8 DUP3 DUP9 ADD PUSH3 0x208 JUMP JUMPDEST SWAP4 POP POP PUSH1 0x40 PUSH3 0x291 DUP8 DUP3 DUP9 ADD PUSH3 0x1BE JUMP JUMPDEST SWAP3 POP POP PUSH1 0x60 PUSH3 0x2A4 DUP8 DUP3 DUP9 ADD PUSH3 0x208 JUMP JUMPDEST SWAP2 POP POP SWAP3 SWAP6 SWAP2 SWAP5 POP SWAP3 POP JUMP JUMPDEST PUSH1 0x0 PUSH3 0x2BC PUSH3 0x2CF JUMP JUMPDEST SWAP1 POP PUSH3 0x2CA DUP3 DUP3 PUSH3 0x391 JUMP JUMPDEST SWAP2 SWAP1 POP JUMP JUMPDEST PUSH1 0x0 PUSH1 0x40 MLOAD SWAP1 POP SWAP1 JUMP JUMPDEST PUSH1 0x0 PUSH8 0xFFFFFFFFFFFFFFFF DUP3 GT ISZERO PUSH3 0x2F7 JUMPI PUSH3 0x2F6 PUSH3 0x3F6 JUMP JUMPDEST JUMPDEST PUSH3 0x302 DUP3 PUSH3 0x439 JUMP JUMPDEST SWAP1 POP PUSH1 0x20 DUP2 ADD SWAP1 POP SWAP2 SWAP1 POP JUMP JUMPDEST PUSH1 0x0 DUP2 ISZERO ISZERO SWAP1 POP SWAP2 SWAP1 POP JUMP JUMPDEST PUSH1 0x0 DUP2 SWAP1 POP SWAP2 SWAP1 POP JUMP JUMPDEST PUSH1 0x0 JUMPDEST DUP4 DUP2 LT ISZERO PUSH3 0x345 JUMPI DUP1 DUP3 ADD MLOAD DUP2 DUP5 ADD MSTORE PUSH1 0x20 DUP2 ADD SWAP1 POP PUSH3 0x328 JUMP JUMPDEST DUP4 DUP2 GT ISZERO PUSH3 0x355 JUMPI PUSH1 0x0 DUP5 DUP5 ADD MSTORE JUMPDEST POP POP POP POP JUMP JUMPDEST PUSH1 0x0 PUSH1 0x2 DUP3 DIV SWAP1 POP PUSH1 0x1 DUP3 AND DUP1 PUSH3 0x374 JUMPI PUSH1 0x7F DUP3 AND SWAP2 POP JUMPDEST PUSH1 0x20 DUP3 LT DUP2 EQ ISZERO PUSH3 0x38B JUMPI PUSH3 0x38A PUSH3 0x3C7 JUMP JUMPDEST JUMPDEST POP SWAP2 SWAP1 POP JUMP JUMPDEST PUSH3 0x39C DUP3 PUSH3 0x439 JUMP JUMPDEST DUP2 ADD DUP2 DUP2 LT PUSH8 0xFFFFFFFFFFFFFFFF DUP3 GT OR ISZERO PUSH3 0x3BE JUMPI PUSH3 0x3BD PUSH3 0x3F6 JUMP JUMPDEST JUMPDEST DUP1 PUSH1 0x40 MSTORE POP POP POP JUMP JUMPDEST PUSH32 0x4E487B7100000000000000000000000000000000000000000000000000000000 PUSH1 0x0 MSTORE PUSH1 0x22 PUSH1 0x4 MSTORE PUSH1 0x24 PUSH1 0x0 REVERT JUMPDEST PUSH32 0x4E487B7100000000000000000000000000000000000000000000000000000000 PUSH1 0x0 MSTORE PUSH1 0x41 PUSH1 0x4 MSTORE PUSH1 0x24 PUSH1 0x0 REVERT JUMPDEST PUSH1 0x0 DUP1 REVERT JUMPDEST PUSH1 0x0 DUP1 REVERT JUMPDEST PUSH1 0x0 DUP1 REVERT JUMPDEST PUSH1 0x0 DUP1 REVERT JUMPDEST PUSH1 0x0 PUSH1 0x1F NOT PUSH1 0x1F DUP4 ADD AND SWAP1 POP SWAP2 SWAP1 POP JUMP JUMPDEST PUSH3 0x455 DUP2 PUSH3 0x30F JUMP JUMPDEST DUP2 EQ PUSH3 0x461 JUMPI PUSH1 0x0 DUP1 REVERT JUMPDEST POP JUMP JUMPDEST PUSH3 0x46F DUP2 PUSH3 0x31B JUMP JUMPDEST DUP2 EQ PUSH3 0x47B JUMPI PUSH1 0x0 DUP1 REVERT JUMPDEST POP JUMP JUMPDEST PUSH2 0x990 DUP1 PUSH3 0x48E PUSH1 0x0 CODECOPY PUSH1 0x0 RETURN INVALID PUSH1 0x80 PUSH1 0x40 MSTORE PUSH1 0x4 CALLDATASIZE LT PUSH2 0x86 JUMPI PUSH1 0x0 CALLDATALOAD PUSH1 0xE0 SHR DUP1 PUSH4 0x893D20E8 GT PUSH2 0x59 JUMPI DUP1 PUSH4 0x893D20E8 EQ PUSH2 0x123 JUMPI DUP1 PUSH4 0xB383BF2D EQ PUSH2 0x14E JUMPI DUP1 PUSH4 0xEAE3F764 EQ PUSH2 0x179 JUMPI DUP1 PUSH4 0xED11F46A EQ PUSH2 0x1A4 JUMPI DUP1 PUSH4 0xED88C68E EQ PUSH2 0x1CF JUMPI PUSH2 0x86 JUMP JUMPDEST DUP1 PUSH4 0x354ECC85 EQ PUSH2 0x8B JUMPI DUP1 PUSH4 0x3CCFD60B EQ PUSH2 0xB6 JUMPI DUP1 PUSH4 0x798BE230 EQ PUSH2 0xCD JUMPI DUP1 PUSH4 0x80FDEF1B EQ PUSH2 0xF8 JUMPI JUMPDEST PUSH1 0x0 DUP1 REVERT JUMPDEST CALLVALUE DUP1 ISZERO PUSH2 0x97 JUMPI PUSH1 0x0 DUP1 REVERT JUMPDEST POP PUSH2 0xA0 PUSH2 0x1D9 JUMP JUMPDEST PUSH1 0x40 MLOAD PUSH2 0xAD SWAP2 SWAP1 PUSH2 0x634 JUMP JUMPDEST PUSH1 0x40 MLOAD DUP1 SWAP2 SUB SWAP1 RETURN JUMPDEST CALLVALUE DUP1 ISZERO PUSH2 0xC2 JUMPI PUSH1 0x0 DUP1 REVERT JUMPDEST POP PUSH2 0xCB PUSH2 0x267 JUMP JUMPDEST STOP JUMPDEST CALLVALUE DUP1 ISZERO PUSH2 0xD9 JUMPI PUSH1 0x0 DUP1 REVERT JUMPDEST POP PUSH2 0xE2 PUSH2 0x362 JUMP JUMPDEST PUSH1 0x40 MLOAD PUSH2 0xEF SWAP2 SWAP1 PUSH2 0x619 JUMP JUMPDEST PUSH1 0x40 MLOAD DUP1 SWAP2 SUB SWAP1 RETURN JUMPDEST CALLVALUE DUP1 ISZERO PUSH2 0x104 JUMPI PUSH1 0x0 DUP1 REVERT JUMPDEST POP PUSH2 0x10D PUSH2 0x375 JUMP JUMPDEST PUSH1 0x40 MLOAD PUSH2 0x11A SWAP2 SWAP1 PUSH2 0x6B6 JUMP JUMPDEST PUSH1 0x40 MLOAD DUP1 SWAP2 SUB SWAP1 RETURN JUMPDEST CALLVALUE DUP1 ISZERO PUSH2 0x12F JUMPI PUSH1 0x0 DUP1 REVERT JUMPDEST POP PUSH2 0x138 PUSH2 0x37B JUMP JUMPDEST PUSH1 0x40 MLOAD PUSH2 0x145 SWAP2 SWAP1 PUSH2 0x5FE JUMP JUMPDEST PUSH1 0x40 MLOAD DUP1 SWAP2 SUB SWAP1 RETURN JUMPDEST CALLVALUE DUP1 ISZERO PUSH2 0x15A JUMPI PUSH1 0x0 DUP1 REVERT JUMPDEST POP PUSH2 0x163 PUSH2 0x3A5 JUMP JUMPDEST PUSH1 0x40 MLOAD PUSH2 0x170 SWAP2 SWAP1 PUSH2 0x6B6 JUMP JUMPDEST PUSH1 0x40 MLOAD DUP1 SWAP2 SUB SWAP1 RETURN JUMPDEST CALLVALUE DUP1 ISZERO PUSH2 0x185 JUMPI PUSH1 0x0 DUP1 REVERT JUMPDEST POP PUSH2 0x18E PUSH2 0x3AB JUMP JUMPDEST PUSH1 0x40 MLOAD PUSH2 0x19B SWAP2 SWAP1 PUSH2 0x634 JUMP JUMPDEST PUSH1 0x40 MLOAD DUP1 SWAP2 SUB SWAP1 RETURN JUMPDEST CALLVALUE DUP1 ISZERO PUSH2 0x1B0 JUMPI PUSH1 0x0 DUP1 REVERT JUMPDEST POP PUSH2 0x1B9 PUSH2 0x43D JUMP JUMPDEST PUSH1 0x40 MLOAD PUSH2 0x1C6 SWAP2 SWAP1 PUSH2 0x6B6 JUMP JUMPDEST PUSH1 0x40 MLOAD DUP1 SWAP2 SUB SWAP1 RETURN JUMPDEST PUSH2 0x1D7 PUSH2 0x445 JUMP JUMPDEST STOP JUMPDEST PUSH1 0x0 DUP1 SLOAD PUSH2 0x1E6 SWAP1 PUSH2 0x7C9 JUMP JUMPDEST DUP1 PUSH1 0x1F ADD PUSH1 0x20 DUP1 SWAP2 DIV MUL PUSH1 0x20 ADD PUSH1 0x40 MLOAD SWAP1 DUP2 ADD PUSH1 0x40 MSTORE DUP1 SWAP3 SWAP2 SWAP1 DUP2 DUP2 MSTORE PUSH1 0x20 ADD DUP3 DUP1 SLOAD PUSH2 0x212 SWAP1 PUSH2 0x7C9 JUMP JUMPDEST DUP1 ISZERO PUSH2 0x25F JUMPI DUP1 PUSH1 0x1F LT PUSH2 0x234 JUMPI PUSH2 0x100 DUP1 DUP4 SLOAD DIV MUL DUP4 MSTORE SWAP2 PUSH1 0x20 ADD SWAP2 PUSH2 0x25F JUMP JUMPDEST DUP3 ADD SWAP2 SWAP1 PUSH1 0x0 MSTORE PUSH1 0x20 PUSH1 0x0 KECCAK256 SWAP1 JUMPDEST DUP2 SLOAD DUP2 MSTORE SWAP1 PUSH1 0x1 ADD SWAP1 PUSH1 0x20 ADD DUP1 DUP4 GT PUSH2 0x242 JUMPI DUP3 SWAP1 SUB PUSH1 0x1F AND DUP3 ADD SWAP2 JUMPDEST POP POP POP POP POP DUP2 JUMP JUMPDEST CALLER PUSH20 0xFFFFFFFFFFFFFFFFFFFFFFFFFFFFFFFFFFFFFFFF AND PUSH1 0x3 PUSH1 0x1 SWAP1 SLOAD SWAP1 PUSH2 0x100 EXP SWAP1 DIV PUSH20 0xFFFFFFFFFFFFFFFFFFFFFFFFFFFFFFFFFFFFFFFF AND PUSH20 0xFFFFFFFFFFFFFFFFFFFFFFFFFFFFFFFFFFFFFFFF AND EQ PUSH2 0x2F7 JUMPI PUSH1 0x40 MLOAD PUSH32 0x8C379A000000000000000000000000000000000000000000000000000000000 DUP2 MSTORE PUSH1 0x4 ADD PUSH2 0x2EE SWAP1 PUSH2 0x676 JUMP JUMPDEST PUSH1 0x40 MLOAD DUP1 SWAP2 SUB SWAP1 REVERT JUMPDEST CALLER PUSH20 0xFFFFFFFFFFFFFFFFFFFFFFFFFFFFFFFFFFFFFFFF AND SELFBALANCE PUSH1 0x40 MLOAD PUSH2 0x31B SWAP1 PUSH2 0x5E9 JUMP JUMPDEST PUSH1 0x0 PUSH1 0x40 MLOAD DUP1 DUP4 SUB DUP2 DUP6 DUP8 GAS CALL SWAP3 POP POP POP RETURNDATASIZE DUP1 PUSH1 0x0 DUP2 EQ PUSH2 0x358 JUMPI PUSH1 0x40 MLOAD SWAP2 POP PUSH1 0x1F NOT PUSH1 0x3F RETURNDATASIZE ADD AND DUP3 ADD PUSH1 0x40 MSTORE RETURNDATASIZE DUP3 MSTORE RETURNDATASIZE PUSH1 0x0 PUSH1 0x20 DUP5 ADD RETURNDATACOPY PUSH2 0x35D JUMP JUMPDEST PUSH1 0x60 SWAP2 POP JUMPDEST POP POP POP JUMP JUMPDEST PUSH1 0x3 PUSH1 0x0 SWAP1 SLOAD SWAP1 PUSH2 0x100 EXP SWAP1 DIV PUSH1 0xFF AND DUP2 JUMP JUMPDEST PUSH1 0x2 SLOAD DUP2 JUMP JUMPDEST PUSH1 0x0 PUSH1 0x3 PUSH1 0x1 SWAP1 SLOAD SWAP1 PUSH2 0x100 EXP SWAP1 DIV PUSH20 0xFFFFFFFFFFFFFFFFFFFFFFFFFFFFFFFFFFFFFFFF AND SWAP1 POP SWAP1 JUMP JUMPDEST PUSH1 0x1 SLOAD DUP2 JUMP JUMPDEST PUSH1 0x60 PUSH1 0x0 DUP1 SLOAD PUSH2 0x3BA SWAP1 PUSH2 0x7C9 JUMP JUMPDEST DUP1 PUSH1 0x1F ADD PUSH1 0x20 DUP1 SWAP2 DIV MUL PUSH1 0x20 ADD PUSH1 0x40 MLOAD SWAP1 DUP2 ADD PUSH1 0x40 MSTORE DUP1 SWAP3 SWAP2 SWAP1 DUP2 DUP2 MSTORE PUSH1 0x20 ADD DUP3 DUP1 SLOAD PUSH2 0x3E6 SWAP1 PUSH2 0x7C9 JUMP JUMPDEST DUP1 ISZERO PUSH2 0x433 JUMPI DUP1 PUSH1 0x1F LT PUSH2 0x408 JUMPI PUSH2 0x100 DUP1 DUP4 SLOAD DIV MUL DUP4 MSTORE SWAP2 PUSH1 0x20 ADD SWAP2 PUSH2 0x433 JUMP JUMPDEST DUP3 ADD SWAP2 SWAP1 PUSH1 0x0 MSTORE PUSH1 0x20 PUSH1 0x0 KECCAK256 SWAP1 JUMPDEST DUP2 SLOAD DUP2 MSTORE SWAP1 PUSH1 0x1 ADD SWAP1 PUSH1 0x20 ADD DUP1 DUP4 GT PUSH2 0x416 JUMPI DUP3 SWAP1 SUB PUSH1 0x1F AND DUP3 ADD SWAP2 JUMPDEST POP POP POP POP POP SWAP1 POP SWAP1 JUMP JUMPDEST PUSH1 0x0 SELFBALANCE SWAP1 POP SWAP1 JUMP JUMPDEST PUSH1 0x1 SLOAD CALLVALUE LT ISZERO PUSH2 0x48A JUMPI PUSH1 0x40 MLOAD PUSH32 0x8C379A000000000000000000000000000000000000000000000000000000000 DUP2 MSTORE PUSH1 0x4 ADD PUSH2 0x481 SWAP1 PUSH2 0x656 JUMP JUMPDEST PUSH1 0x40 MLOAD DUP1 SWAP2 SUB SWAP1 REVERT JUMPDEST PUSH1 0x3 PUSH1 0x0 SWAP1 SLOAD SWAP1 PUSH2 0x100 EXP SWAP1 DIV PUSH1 0xFF AND PUSH2 0x4F5 JUMPI PUSH1 0x0 SELFBALANCE SWAP1 POP PUSH1 0x2 SLOAD CALLVALUE DUP3 PUSH2 0x4B2 SWAP2 SWAP1 PUSH2 0x6F8 JUMP JUMPDEST GT ISZERO PUSH2 0x4F3 JUMPI PUSH1 0x40 MLOAD PUSH32 0x8C379A000000000000000000000000000000000000000000000000000000000 DUP2 MSTORE PUSH1 0x4 ADD PUSH2 0x4EA SWAP1 PUSH2 0x696 JUMP JUMPDEST PUSH1 0x40 MLOAD DUP1 SWAP2 SUB SWAP1 REVERT JUMPDEST POP JUMPDEST JUMP JUMPDEST PUSH2 0x500 DUP2 PUSH2 0x74E JUMP JUMPDEST DUP3 MSTORE POP POP JUMP JUMPDEST PUSH2 0x50F DUP2 PUSH2 0x760 JUMP JUMPDEST DUP3 MSTORE POP POP JUMP JUMPDEST PUSH1 0x0 PUSH2 0x520 DUP3 PUSH2 0x6D1 JUMP JUMPDEST PUSH2 0x52A DUP2 DUP6 PUSH2 0x6E7 JUMP JUMPDEST SWAP4 POP PUSH2 0x53A DUP2 DUP6 PUSH1 0x20 DUP7 ADD PUSH2 0x796 JUMP JUMPDEST PUSH2 0x543 DUP2 PUSH2 0x859 JUMP JUMPDEST DUP5 ADD SWAP2 POP POP SWAP3 SWAP2 POP POP JUMP JUMPDEST PUSH1 0x0 PUSH2 0x55B PUSH1 0x25 DUP4 PUSH2 0x6E7 JUMP JUMPDEST SWAP2 POP PUSH2 0x566 DUP3 PUSH2 0x86A JUMP JUMPDEST PUSH1 0x40 DUP3 ADD SWAP1 POP SWAP2 SWAP1 POP JUMP JUMPDEST PUSH1 0x0 PUSH2 0x57E PUSH1 0x30 DUP4 PUSH2 0x6E7 JUMP JUMPDEST SWAP2 POP PUSH2 0x589 DUP3 PUSH2 0x8B9 JUMP JUMPDEST PUSH1 0x40 DUP3 ADD SWAP1 POP SWAP2 SWAP1 POP JUMP JUMPDEST PUSH1 0x0 PUSH2 0x5A1 PUSH1 0x2A DUP4 PUSH2 0x6E7 JUMP JUMPDEST SWAP2 POP PUSH2 0x5AC DUP3 PUSH2 0x908 JUMP JUMPDEST PUSH1 0x40 DUP3 ADD SWAP1 POP SWAP2 SWAP1 POP JUMP JUMPDEST PUSH1 0x0 PUSH2 0x5C4 PUSH1 0x0 DUP4 PUSH2 0x6DC JUMP JUMPDEST SWAP2 POP PUSH2 0x5CF DUP3 PUSH2 0x957 JUMP JUMPDEST PUSH1 0x0 DUP3 ADD SWAP1 POP SWAP2 SWAP1 POP JUMP JUMPDEST PUSH2 0x5E3 DUP2 PUSH2 0x78C JUMP JUMPDEST DUP3 MSTORE POP POP JUMP JUMPDEST PUSH1 0x0 PUSH2 0x5F4 DUP3 PUSH2 0x5B7 JUMP JUMPDEST SWAP2 POP DUP2 SWAP1 POP SWAP2 SWAP1 POP JUMP JUMPDEST PUSH1 0x0 PUSH1 0x20 DUP3 ADD SWAP1 POP PUSH2 0x613 PUSH1 0x0 DUP4 ADD DUP5 PUSH2 0x4F7 JUMP JUMPDEST SWAP3 SWAP2 POP POP JUMP JUMPDEST PUSH1 0x0 PUSH1 0x20 DUP3 ADD SWAP1 POP PUSH2 0x62E PUSH1 0x0 DUP4 ADD DUP5 PUSH2 0x506 JUMP JUMPDEST SWAP3 SWAP2 POP POP JUMP JUMPDEST PUSH1 0x0 PUSH1 0x20 DUP3 ADD SWAP1 POP DUP2 DUP2 SUB PUSH1 0x0 DUP4 ADD MSTORE PUSH2 0x64E DUP2 DUP5 PUSH2 0x515 JUMP JUMPDEST SWAP1 POP SWAP3 SWAP2 POP POP JUMP JUMPDEST PUSH1 0x0 PUSH1 0x20 DUP3 ADD SWAP1 POP DUP2 DUP2 SUB PUSH1 0x0 DUP4 ADD MSTORE PUSH2 0x66F DUP2 PUSH2 0x54E JUMP JUMPDEST SWAP1 POP SWAP2 SWAP1 POP JUMP JUMPDEST PUSH1 0x0 PUSH1 0x20 DUP3 ADD SWAP1 POP DUP2 DUP2 SUB PUSH1 0x0 DUP4 ADD MSTORE PUSH2 0x68F DUP2 PUSH2 0x571 JUMP JUMPDEST SWAP1 POP SWAP2 SWAP1 POP JUMP JUMPDEST PUSH1 0x0 PUSH1 0x20 DUP3 ADD SWAP1 POP DUP2 DUP2 SUB PUSH1 0x0 DUP4 ADD MSTORE PUSH2 0x6AF DUP2 PUSH2 0x594 JUMP JUMPDEST SWAP1 POP SWAP2 SWAP1 POP JUMP JUMPDEST PUSH1 0x0 PUSH1 0x20 DUP3 ADD SWAP1 POP PUSH2 0x6CB PUSH1 0x0 DUP4 ADD DUP5 PUSH2 0x5DA JUMP JUMPDEST SWAP3 SWAP2 POP POP JUMP JUMPDEST PUSH1 0x0 DUP2 MLOAD SWAP1 POP SWAP2 SWAP1 POP JUMP JUMPDEST PUSH1 0x0 DUP2 SWAP1 POP SWAP3 SWAP2 POP POP JUMP JUMPDEST PUSH1 0x0 DUP3 DUP3 MSTORE PUSH1 0x20 DUP3 ADD SWAP1 POP SWAP3 SWAP2 POP POP JUMP JUMPDEST PUSH1 0x0 PUSH2 0x703 DUP3 PUSH2 0x78C JUMP JUMPDEST SWAP2 POP PUSH2 0x70E DUP4 PUSH2 0x78C JUMP JUMPDEST SWAP3 POP DUP3 PUSH32 0xFFFFFFFFFFFFFFFFFFFFFFFFFFFFFFFFFFFFFFFFFFFFFFFFFFFFFFFFFFFFFFFF SUB DUP3 GT ISZERO PUSH2 0x743 JUMPI PUSH2 0x742 PUSH2 0x7FB JUMP JUMPDEST JUMPDEST DUP3 DUP3 ADD SWAP1 POP SWAP3 SWAP2 POP POP JUMP JUMPDEST PUSH1 0x0 PUSH2 0x759 DUP3 PUSH2 0x76C JUMP JUMPDEST SWAP1 POP SWAP2 SWAP1 POP JUMP JUMPDEST PUSH1 0x0 DUP2 ISZERO ISZERO SWAP1 POP SWAP2 SWAP1 POP JUMP JUMPDEST PUSH1 0x0 PUSH20 0xFFFFFFFFFFFFFFFFFFFFFFFFFFFFFFFFFFFFFFFF DUP3 AND SWAP1 POP SWAP2 SWAP1 POP JUMP JUMPDEST PUSH1 0x0 DUP2 SWAP1 POP SWAP2 SWAP1 POP JUMP JUMPDEST PUSH1 0x0 JUMPDEST DUP4 DUP2 LT ISZERO PUSH2 0x7B4 JUMPI DUP1 DUP3 ADD MLOAD DUP2 DUP5 ADD MSTORE PUSH1 0x20 DUP2 ADD SWAP1 POP PUSH2 0x799 JUMP JUMPDEST DUP4 DUP2 GT ISZERO PUSH2 0x7C3 JUMPI PUSH1 0x0 DUP5 DUP5 ADD MSTORE JUMPDEST POP POP POP POP JUMP JUMPDEST PUSH1 0x0 PUSH1 0x2 DUP3 DIV SWAP1 POP PUSH1 0x1 DUP3 AND DUP1 PUSH2 0x7E1 JUMPI PUSH1 0x7F DUP3 AND SWAP2 POP JUMPDEST PUSH1 0x20 DUP3 LT DUP2 EQ ISZERO PUSH2 0x7F5 JUMPI PUSH2 0x7F4 PUSH2 0x82A JUMP JUMPDEST JUMPDEST POP SWAP2 SWAP1 POP JUMP JUMPDEST PUSH32 0x4E487B7100000000000000000000000000000000000000000000000000000000 PUSH1 0x0 MSTORE PUSH1 0x11 PUSH1 0x4 MSTORE PUSH1 0x24 PUSH1 0x0 REVERT JUMPDEST PUSH32 0x4E487B7100000000000000000000000000000000000000000000000000000000 PUSH1 0x0 MSTORE PUSH1 0x22 PUSH1 0x4 MSTORE PUSH1 0x24 PUSH1 0x0 REVERT JUMPDEST PUSH1 0x0 PUSH1 0x1F NOT PUSH1 0x1F DUP4 ADD AND SWAP1 POP SWAP2 SWAP1 POP JUMP JUMPDEST PUSH32 0x596F752063616E6E6F7420646F6E6174652062656C6F7720247B5F6D696E416D PUSH1 0x0 DUP3 ADD MSTORE PUSH32 0x6F756E747D000000000000000000000000000000000000000000000000000000 PUSH1 0x20 DUP3 ADD MSTORE POP JUMP JUMPDEST PUSH32 0x4F6E6C79206F776E6572206F66207468697320646F6E6174696F6E2063616E20 PUSH1 0x0 DUP3 ADD MSTORE PUSH32 0x77697468647261772066726F6D20697400000000000000000000000000000000 PUSH1 0x20 DUP3 ADD MSTORE POP JUMP JUMPDEST PUSH32 0x596F757220646F6E6174696F6E2077696C6C2063726F73732074686520616D6F PUSH1 0x0 DUP3 ADD MSTORE PUSH32 0x756E74206E656564656400000000000000000000000000000000000000000000 PUSH1 0x20 DUP3 ADD MSTORE POP JUMP JUMPDEST POP JUMP INVALID LOG2 PUSH5 0x6970667358 0x22 SLT KECCAK256 EXTCODEHASH SIGNEXTEND 0xF6 MSIZE LOG1 PUSH26 0x4662CEC930203011942E4B80F261848FEF6BE0A031E9087926C9 PUSH5 0x736F6C6343 STOP ADDMOD SMOD STOP CALLER LOG2 PUSH5 0x6970667358 0x22 SLT KECCAK256 NOT SELFBALANCE 0xA6 RETURN MOD 0xC9 CALLDATACOPY 0xA7 PUSH25 0xBE34F40771E837C980708F12AE63A0C528A9655303C8A66473 PUSH16 0x6C634300080700330000000000000000 "
				},
				"gasEstimates": {
					"creation": {
						"codeDepositCost": "1337800",
						"executionCost": "1397",
						"totalCost": "1339197"
					},
					"external": {
						"createToken(string,uint256,bool,uint256)": "infinite",
						"donateToCampaign(address)": "infinite",
						"getCampaigns()": "infinite",
						"getCampainBalance(address)": "infinite",
						"getCampainName(address)": "infinite",
						"withdrawFromCampaign(address)": "infinite"
					}
				},
				"methodIdentifiers": {
					"createToken(string,uint256,bool,uint256)": "615d1f03",
					"donateToCampaign(address)": "7c6abc82",
					"getCampaigns()": "a6b03633",
					"getCampainBalance(address)": "767d78b2",
					"getCampainName(address)": "f4139c58",
					"withdrawFromCampaign(address)": "e5482153"
				}
			},
			"storageLayout": {
				"storage": [
					{
						"astId": 6,
						"contract": "Campaign.sol:Campaign",
						"label": "donations",
						"offset": 0,
						"slot": "0",
						"type": "t_array(t_contract(Donation)267)dyn_storage"
					}
				],
				"types": {
					"t_array(t_contract(Donation)267)dyn_storage": {
						"base": "t_contract(Donation)267",
						"encoding": "dynamic_array",
						"label": "contract Donation[]",
						"numberOfBytes": "32"
					},
					"t_contract(Donation)267": {
						"encoding": "inplace",
						"label": "contract Donation",
						"numberOfBytes": "20"
					}
				}
			},
			"userdoc": {
				"kind": "user",
				"methods": {},
				"version": 1
			}
		}
	}
}