{
	"Donation.sol": {
		"Donation": {
			"abi": [
				{
					"inputs": [
						{
							"internalType": "string",
							"name": "name",
							"type": "string"
						},
						{
							"internalType": "uint256",
							"name": "minAmount",
							"type": "uint256"
						},
						{
							"internalType": "bool",
							"name": "accept",
							"type": "bool"
						},
						{
							"internalType": "uint256",
							"name": "amountNeeded",
							"type": "uint256"
						}
					],
					"stateMutability": "nonpayable",
					"type": "constructor"
				},
				{
					"inputs": [],
					"name": "acceptPaymentAfterAmountMet",
					"outputs": [
						{
							"internalType": "bool",
							"name": "",
							"type": "bool"
						}
					],
					"stateMutability": "view",
					"type": "function"
				},
				{
					"inputs": [],
					"name": "donate",
					"outputs": [],
					"stateMutability": "payable",
					"type": "function"
				},
				{
					"inputs": [],
					"name": "donationAmountNeeded",
					"outputs": [
						{
							"internalType": "uint256",
							"name": "",
							"type": "uint256"
						}
					],
					"stateMutability": "view",
					"type": "function"
				},
				{
					"inputs": [],
					"name": "donationBalance",
					"outputs": [
						{
							"internalType": "uint256",
							"name": "",
							"type": "uint256"
						}
					],
					"stateMutability": "view",
					"type": "function"
				},
				{
					"inputs": [],
					"name": "donationMinAmount",
					"outputs": [
						{
							"internalType": "uint256",
							"name": "",
							"type": "uint256"
						}
					],
					"stateMutability": "view",
					"type": "function"
				},
				{
					"inputs": [],
					"name": "donationName",
					"outputs": [
						{
							"internalType": "string",
							"name": "",
							"type": "string"
						}
					],
					"stateMutability": "view",
					"type": "function"
				},
				{
					"inputs": [],
					"name": "withdraw",
					"outputs": [],
					"stateMutability": "nonpayable",
					"type": "function"
				}
			],
			"devdoc": {
				"kind": "dev",
				"methods": {},
				"version": 1
			},
			"evm": {
				"assembly": "    /* \"Donation.sol\":72:1210  contract Donation {... */\n  mstore(0x40, 0x80)\n    /* \"Donation.sol\":270:545  constructor(string memory name, uint minAmount, bool accept, uint amountNeeded) {... */\n  callvalue\n  dup1\n  iszero\n  tag_1\n  jumpi\n  0x00\n  dup1\n  revert\ntag_1:\n  pop\n  mload(0x40)\n  sub(codesize, bytecodeSize)\n  dup1\n  bytecodeSize\n  dup4\n  codecopy\n  dup2\n  dup2\n  add\n  0x40\n  mstore\n  dup2\n  add\n  swap1\n  tag_2\n  swap2\n  swap1\n  tag_3\n  jump\t// in\ntag_2:\n    /* \"Donation.sol\":375:379  name */\n  dup4\n    /* \"Donation.sol\":360:372  donationName */\n  0x00\n    /* \"Donation.sol\":360:379  donationName = name */\n  swap1\n  dup1\n  mload\n  swap1\n  0x20\n  add\n  swap1\n  tag_6\n  swap3\n  swap2\n  swap1\n  tag_7\n  jump\t// in\ntag_6:\n  pop\n    /* \"Donation.sol\":409:418  minAmount */\n  dup3\n    /* \"Donation.sol\":389:406  donationMinAmount */\n  0x01\n    /* \"Donation.sol\":389:418  donationMinAmount = minAmount */\n  dup2\n  swap1\n  sstore\n  pop\n    /* \"Donation.sol\":458:464  accept */\n  dup2\n    /* \"Donation.sol\":428:455  acceptPaymentAfterAmountMet */\n  0x03\n  0x00\n    /* \"Donation.sol\":428:464  acceptPaymentAfterAmountMet = accept */\n  0x0100\n  exp\n  dup2\n  sload\n  dup2\n  0xff\n  mul\n  not\n  and\n  swap1\n  dup4\n  iszero\n  iszero\n  mul\n  or\n  swap1\n  sstore\n  pop\n    /* \"Donation.sol\":497:509  amountNeeded */\n  dup1\n    /* \"Donation.sol\":474:494  donationAmountNeeded */\n  0x02\n    /* \"Donation.sol\":474:509  donationAmountNeeded = amountNeeded */\n  dup2\n  swap1\n  sstore\n  pop\n    /* \"Donation.sol\":528:538  msg.sender */\n  caller\n    /* \"Donation.sol\":519:525  _owner */\n  0x03\n  0x01\n    /* \"Donation.sol\":519:538  _owner = msg.sender */\n  0x0100\n  exp\n  dup2\n  sload\n  dup2\n  0xffffffffffffffffffffffffffffffffffffffff\n  mul\n  not\n  and\n  swap1\n  dup4\n  0xffffffffffffffffffffffffffffffffffffffff\n  and\n  mul\n  or\n  swap1\n  sstore\n  pop\n    /* \"Donation.sol\":270:545  constructor(string memory name, uint minAmount, bool accept, uint amountNeeded) {... */\n  pop\n  pop\n  pop\n  pop\n    /* \"Donation.sol\":72:1210  contract Donation {... */\n  jump(tag_8)\ntag_7:\n  dup3\n  dup1\n  sload\n  tag_9\n  swap1\n  tag_10\n  jump\t// in\ntag_9:\n  swap1\n  0x00\n  mstore\n  keccak256(0x00, 0x20)\n  swap1\n  0x1f\n  add\n  0x20\n  swap1\n  div\n  dup2\n  add\n  swap3\n  dup3\n  tag_12\n  jumpi\n  0x00\n  dup6\n  sstore\n  jump(tag_11)\ntag_12:\n  dup3\n  0x1f\n  lt\n  tag_13\n  jumpi\n  dup1\n  mload\n  not(0xff)\n  and\n  dup4\n  dup1\n  add\n  or\n  dup6\n  sstore\n  jump(tag_11)\ntag_13:\n  dup3\n  dup1\n  add\n  0x01\n  add\n  dup6\n  sstore\n  dup3\n  iszero\n  tag_11\n  jumpi\n  swap2\n  dup3\n  add\ntag_14:\n  dup3\n  dup2\n  gt\n  iszero\n  tag_15\n  jumpi\n  dup3\n  mload\n  dup3\n  sstore\n  swap2\n  0x20\n  add\n  swap2\n  swap1\n  0x01\n  add\n  swap1\n  jump(tag_14)\ntag_15:\ntag_11:\n  pop\n  swap1\n  pop\n  tag_16\n  swap2\n  swap1\n  tag_17\n  jump\t// in\ntag_16:\n  pop\n  swap1\n  jump\t// out\ntag_17:\ntag_18:\n  dup1\n  dup3\n  gt\n  iszero\n  tag_19\n  jumpi\n  0x00\n  dup2\n  0x00\n  swap1\n  sstore\n  pop\n  0x01\n  add\n  jump(tag_18)\ntag_19:\n  pop\n  swap1\n  jump\t// out\n    /* \"#utility.yul\":7:428   */\ntag_21:\n    /* \"#utility.yul\":96:101   */\n  0x00\n    /* \"#utility.yul\":121:187   */\n  tag_23\n    /* \"#utility.yul\":137:186   */\n  tag_24\n    /* \"#utility.yul\":179:185   */\n  dup5\n    /* \"#utility.yul\":137:186   */\n  tag_25\n  jump\t// in\ntag_24:\n    /* \"#utility.yul\":121:187   */\n  tag_26\n  jump\t// in\ntag_23:\n    /* \"#utility.yul\":112:187   */\n  swap1\n  pop\n    /* \"#utility.yul\":210:216   */\n  dup3\n    /* \"#utility.yul\":203:208   */\n  dup2\n    /* \"#utility.yul\":196:217   */\n  mstore\n    /* \"#utility.yul\":248:252   */\n  0x20\n    /* \"#utility.yul\":241:246   */\n  dup2\n    /* \"#utility.yul\":237:253   */\n  add\n    /* \"#utility.yul\":286:289   */\n  dup5\n    /* \"#utility.yul\":277:283   */\n  dup5\n    /* \"#utility.yul\":272:275   */\n  dup5\n    /* \"#utility.yul\":268:284   */\n  add\n    /* \"#utility.yul\":265:290   */\n  gt\n    /* \"#utility.yul\":262:374   */\n  iszero\n  tag_27\n  jumpi\n    /* \"#utility.yul\":293:372   */\n  tag_28\n  tag_29\n  jump\t// in\ntag_28:\n    /* \"#utility.yul\":262:374   */\ntag_27:\n    /* \"#utility.yul\":383:422   */\n  tag_30\n    /* \"#utility.yul\":415:421   */\n  dup5\n    /* \"#utility.yul\":410:413   */\n  dup3\n    /* \"#utility.yul\":405:408   */\n  dup6\n    /* \"#utility.yul\":383:422   */\n  tag_31\n  jump\t// in\ntag_30:\n    /* \"#utility.yul\":102:428   */\n  pop\n    /* \"#utility.yul\":7:428   */\n  swap4\n  swap3\n  pop\n  pop\n  pop\n  jump\t// out\n    /* \"#utility.yul\":434:571   */\ntag_32:\n    /* \"#utility.yul\":488:493   */\n  0x00\n    /* \"#utility.yul\":519:525   */\n  dup2\n    /* \"#utility.yul\":513:526   */\n  mload\n    /* \"#utility.yul\":504:526   */\n  swap1\n  pop\n    /* \"#utility.yul\":535:565   */\n  tag_34\n    /* \"#utility.yul\":559:564   */\n  dup2\n    /* \"#utility.yul\":535:565   */\n  tag_35\n  jump\t// in\ntag_34:\n    /* \"#utility.yul\":434:571   */\n  swap3\n  swap2\n  pop\n  pop\n  jump\t// out\n    /* \"#utility.yul\":591:946   */\ntag_36:\n    /* \"#utility.yul\":658:663   */\n  0x00\n    /* \"#utility.yul\":707:710   */\n  dup3\n    /* \"#utility.yul\":700:704   */\n  0x1f\n    /* \"#utility.yul\":692:698   */\n  dup4\n    /* \"#utility.yul\":688:705   */\n  add\n    /* \"#utility.yul\":684:711   */\n  slt\n    /* \"#utility.yul\":674:796   */\n  tag_38\n  jumpi\n    /* \"#utility.yul\":715:794   */\n  tag_39\n  tag_40\n  jump\t// in\ntag_39:\n    /* \"#utility.yul\":674:796   */\ntag_38:\n    /* \"#utility.yul\":825:831   */\n  dup2\n    /* \"#utility.yul\":819:832   */\n  mload\n    /* \"#utility.yul\":850:940   */\n  tag_41\n    /* \"#utility.yul\":936:939   */\n  dup5\n    /* \"#utility.yul\":928:934   */\n  dup3\n    /* \"#utility.yul\":921:925   */\n  0x20\n    /* \"#utility.yul\":913:919   */\n  dup7\n    /* \"#utility.yul\":909:926   */\n  add\n    /* \"#utility.yul\":850:940   */\n  tag_21\n  jump\t// in\ntag_41:\n    /* \"#utility.yul\":841:940   */\n  swap2\n  pop\n    /* \"#utility.yul\":664:946   */\n  pop\n    /* \"#utility.yul\":591:946   */\n  swap3\n  swap2\n  pop\n  pop\n  jump\t// out\n    /* \"#utility.yul\":952:1095   */\ntag_42:\n    /* \"#utility.yul\":1009:1014   */\n  0x00\n    /* \"#utility.yul\":1040:1046   */\n  dup2\n    /* \"#utility.yul\":1034:1047   */\n  mload\n    /* \"#utility.yul\":1025:1047   */\n  swap1\n  pop\n    /* \"#utility.yul\":1056:1089   */\n  tag_44\n    /* \"#utility.yul\":1083:1088   */\n  dup2\n    /* \"#utility.yul\":1056:1089   */\n  tag_45\n  jump\t// in\ntag_44:\n    /* \"#utility.yul\":952:1095   */\n  swap3\n  swap2\n  pop\n  pop\n  jump\t// out\n    /* \"#utility.yul\":1101:2088   */\ntag_3:\n    /* \"#utility.yul\":1205:1211   */\n  0x00\n    /* \"#utility.yul\":1213:1219   */\n  dup1\n    /* \"#utility.yul\":1221:1227   */\n  0x00\n    /* \"#utility.yul\":1229:1235   */\n  dup1\n    /* \"#utility.yul\":1278:1281   */\n  0x80\n    /* \"#utility.yul\":1266:1275   */\n  dup6\n    /* \"#utility.yul\":1257:1264   */\n  dup8\n    /* \"#utility.yul\":1253:1276   */\n  sub\n    /* \"#utility.yul\":1249:1282   */\n  slt\n    /* \"#utility.yul\":1246:1366   */\n  iszero\n  tag_47\n  jumpi\n    /* \"#utility.yul\":1285:1364   */\n  tag_48\n  tag_49\n  jump\t// in\ntag_48:\n    /* \"#utility.yul\":1246:1366   */\ntag_47:\n    /* \"#utility.yul\":1426:1427   */\n  0x00\n    /* \"#utility.yul\":1415:1424   */\n  dup6\n    /* \"#utility.yul\":1411:1428   */\n  add\n    /* \"#utility.yul\":1405:1429   */\n  mload\n    /* \"#utility.yul\":1456:1474   */\n  0xffffffffffffffff\n    /* \"#utility.yul\":1448:1454   */\n  dup2\n    /* \"#utility.yul\":1445:1475   */\n  gt\n    /* \"#utility.yul\":1442:1559   */\n  iszero\n  tag_50\n  jumpi\n    /* \"#utility.yul\":1478:1557   */\n  tag_51\n  tag_52\n  jump\t// in\ntag_51:\n    /* \"#utility.yul\":1442:1559   */\ntag_50:\n    /* \"#utility.yul\":1583:1657   */\n  tag_53\n    /* \"#utility.yul\":1649:1656   */\n  dup8\n    /* \"#utility.yul\":1640:1646   */\n  dup3\n    /* \"#utility.yul\":1629:1638   */\n  dup9\n    /* \"#utility.yul\":1625:1647   */\n  add\n    /* \"#utility.yul\":1583:1657   */\n  tag_36\n  jump\t// in\ntag_53:\n    /* \"#utility.yul\":1573:1657   */\n  swap5\n  pop\n    /* \"#utility.yul\":1376:1667   */\n  pop\n    /* \"#utility.yul\":1706:1708   */\n  0x20\n    /* \"#utility.yul\":1732:1796   */\n  tag_54\n    /* \"#utility.yul\":1788:1795   */\n  dup8\n    /* \"#utility.yul\":1779:1785   */\n  dup3\n    /* \"#utility.yul\":1768:1777   */\n  dup9\n    /* \"#utility.yul\":1764:1786   */\n  add\n    /* \"#utility.yul\":1732:1796   */\n  tag_42\n  jump\t// in\ntag_54:\n    /* \"#utility.yul\":1722:1796   */\n  swap4\n  pop\n    /* \"#utility.yul\":1677:1806   */\n  pop\n    /* \"#utility.yul\":1845:1847   */\n  0x40\n    /* \"#utility.yul\":1871:1932   */\n  tag_55\n    /* \"#utility.yul\":1924:1931   */\n  dup8\n    /* \"#utility.yul\":1915:1921   */\n  dup3\n    /* \"#utility.yul\":1904:1913   */\n  dup9\n    /* \"#utility.yul\":1900:1922   */\n  add\n    /* \"#utility.yul\":1871:1932   */\n  tag_32\n  jump\t// in\ntag_55:\n    /* \"#utility.yul\":1861:1932   */\n  swap3\n  pop\n    /* \"#utility.yul\":1816:1942   */\n  pop\n    /* \"#utility.yul\":1981:1983   */\n  0x60\n    /* \"#utility.yul\":2007:2071   */\n  tag_56\n    /* \"#utility.yul\":2063:2070   */\n  dup8\n    /* \"#utility.yul\":2054:2060   */\n  dup3\n    /* \"#utility.yul\":2043:2052   */\n  dup9\n    /* \"#utility.yul\":2039:2061   */\n  add\n    /* \"#utility.yul\":2007:2071   */\n  tag_42\n  jump\t// in\ntag_56:\n    /* \"#utility.yul\":1997:2071   */\n  swap2\n  pop\n    /* \"#utility.yul\":1952:2081   */\n  pop\n    /* \"#utility.yul\":1101:2088   */\n  swap3\n  swap6\n  swap2\n  swap5\n  pop\n  swap3\n  pop\n  jump\t// out\n    /* \"#utility.yul\":2094:2223   */\ntag_26:\n    /* \"#utility.yul\":2128:2134   */\n  0x00\n    /* \"#utility.yul\":2155:2175   */\n  tag_58\n  tag_59\n  jump\t// in\ntag_58:\n    /* \"#utility.yul\":2145:2175   */\n  swap1\n  pop\n    /* \"#utility.yul\":2184:2217   */\n  tag_60\n    /* \"#utility.yul\":2212:2216   */\n  dup3\n    /* \"#utility.yul\":2204:2210   */\n  dup3\n    /* \"#utility.yul\":2184:2217   */\n  tag_61\n  jump\t// in\ntag_60:\n    /* \"#utility.yul\":2094:2223   */\n  swap2\n  swap1\n  pop\n  jump\t// out\n    /* \"#utility.yul\":2229:2304   */\ntag_59:\n    /* \"#utility.yul\":2262:2268   */\n  0x00\n    /* \"#utility.yul\":2295:2297   */\n  0x40\n    /* \"#utility.yul\":2289:2298   */\n  mload\n    /* \"#utility.yul\":2279:2298   */\n  swap1\n  pop\n    /* \"#utility.yul\":2229:2304   */\n  swap1\n  jump\t// out\n    /* \"#utility.yul\":2310:2618   */\ntag_25:\n    /* \"#utility.yul\":2372:2376   */\n  0x00\n    /* \"#utility.yul\":2462:2480   */\n  0xffffffffffffffff\n    /* \"#utility.yul\":2454:2460   */\n  dup3\n    /* \"#utility.yul\":2451:2481   */\n  gt\n    /* \"#utility.yul\":2448:2504   */\n  iszero\n  tag_64\n  jumpi\n    /* \"#utility.yul\":2484:2502   */\n  tag_65\n  tag_66\n  jump\t// in\ntag_65:\n    /* \"#utility.yul\":2448:2504   */\ntag_64:\n    /* \"#utility.yul\":2522:2551   */\n  tag_67\n    /* \"#utility.yul\":2544:2550   */\n  dup3\n    /* \"#utility.yul\":2522:2551   */\n  tag_68\n  jump\t// in\ntag_67:\n    /* \"#utility.yul\":2514:2551   */\n  swap1\n  pop\n    /* \"#utility.yul\":2606:2610   */\n  0x20\n    /* \"#utility.yul\":2600:2604   */\n  dup2\n    /* \"#utility.yul\":2596:2611   */\n  add\n    /* \"#utility.yul\":2588:2611   */\n  swap1\n  pop\n    /* \"#utility.yul\":2310:2618   */\n  swap2\n  swap1\n  pop\n  jump\t// out\n    /* \"#utility.yul\":2624:2714   */\ntag_69:\n    /* \"#utility.yul\":2658:2665   */\n  0x00\n    /* \"#utility.yul\":2701:2706   */\n  dup2\n    /* \"#utility.yul\":2694:2707   */\n  iszero\n    /* \"#utility.yul\":2687:2708   */\n  iszero\n    /* \"#utility.yul\":2676:2708   */\n  swap1\n  pop\n    /* \"#utility.yul\":2624:2714   */\n  swap2\n  swap1\n  pop\n  jump\t// out\n    /* \"#utility.yul\":2720:2797   */\ntag_71:\n    /* \"#utility.yul\":2757:2764   */\n  0x00\n    /* \"#utility.yul\":2786:2791   */\n  dup2\n    /* \"#utility.yul\":2775:2791   */\n  swap1\n  pop\n    /* \"#utility.yul\":2720:2797   */\n  swap2\n  swap1\n  pop\n  jump\t// out\n    /* \"#utility.yul\":2803:3110   */\ntag_31:\n    /* \"#utility.yul\":2871:2872   */\n  0x00\n    /* \"#utility.yul\":2881:2994   */\ntag_74:\n    /* \"#utility.yul\":2895:2901   */\n  dup4\n    /* \"#utility.yul\":2892:2893   */\n  dup2\n    /* \"#utility.yul\":2889:2902   */\n  lt\n    /* \"#utility.yul\":2881:2994   */\n  iszero\n  tag_76\n  jumpi\n    /* \"#utility.yul\":2980:2981   */\n  dup1\n    /* \"#utility.yul\":2975:2978   */\n  dup3\n    /* \"#utility.yul\":2971:2982   */\n  add\n    /* \"#utility.yul\":2965:2983   */\n  mload\n    /* \"#utility.yul\":2961:2962   */\n  dup2\n    /* \"#utility.yul\":2956:2959   */\n  dup5\n    /* \"#utility.yul\":2952:2963   */\n  add\n    /* \"#utility.yul\":2945:2984   */\n  mstore\n    /* \"#utility.yul\":2917:2919   */\n  0x20\n    /* \"#utility.yul\":2914:2915   */\n  dup2\n    /* \"#utility.yul\":2910:2920   */\n  add\n    /* \"#utility.yul\":2905:2920   */\n  swap1\n  pop\n    /* \"#utility.yul\":2881:2994   */\n  jump(tag_74)\ntag_76:\n    /* \"#utility.yul\":3012:3018   */\n  dup4\n    /* \"#utility.yul\":3009:3010   */\n  dup2\n    /* \"#utility.yul\":3006:3019   */\n  gt\n    /* \"#utility.yul\":3003:3104   */\n  iszero\n  tag_77\n  jumpi\n    /* \"#utility.yul\":3092:3093   */\n  0x00\n    /* \"#utility.yul\":3083:3089   */\n  dup5\n    /* \"#utility.yul\":3078:3081   */\n  dup5\n    /* \"#utility.yul\":3074:3090   */\n  add\n    /* \"#utility.yul\":3067:3094   */\n  mstore\n    /* \"#utility.yul\":3003:3104   */\ntag_77:\n    /* \"#utility.yul\":2852:3110   */\n  pop\n    /* \"#utility.yul\":2803:3110   */\n  pop\n  pop\n  pop\n  jump\t// out\n    /* \"#utility.yul\":3116:3436   */\ntag_10:\n    /* \"#utility.yul\":3160:3166   */\n  0x00\n    /* \"#utility.yul\":3197:3198   */\n  0x02\n    /* \"#utility.yul\":3191:3195   */\n  dup3\n    /* \"#utility.yul\":3187:3199   */\n  div\n    /* \"#utility.yul\":3177:3199   */\n  swap1\n  pop\n    /* \"#utility.yul\":3244:3245   */\n  0x01\n    /* \"#utility.yul\":3238:3242   */\n  dup3\n    /* \"#utility.yul\":3234:3246   */\n  and\n    /* \"#utility.yul\":3265:3283   */\n  dup1\n    /* \"#utility.yul\":3255:3336   */\n  tag_79\n  jumpi\n    /* \"#utility.yul\":3321:3325   */\n  0x7f\n    /* \"#utility.yul\":3313:3319   */\n  dup3\n    /* \"#utility.yul\":3309:3326   */\n  and\n    /* \"#utility.yul\":3299:3326   */\n  swap2\n  pop\n    /* \"#utility.yul\":3255:3336   */\ntag_79:\n    /* \"#utility.yul\":3383:3385   */\n  0x20\n    /* \"#utility.yul\":3375:3381   */\n  dup3\n    /* \"#utility.yul\":3372:3386   */\n  lt\n    /* \"#utility.yul\":3352:3370   */\n  dup2\n    /* \"#utility.yul\":3349:3387   */\n  eq\n    /* \"#utility.yul\":3346:3430   */\n  iszero\n  tag_80\n  jumpi\n    /* \"#utility.yul\":3402:3420   */\n  tag_81\n  tag_82\n  jump\t// in\ntag_81:\n    /* \"#utility.yul\":3346:3430   */\ntag_80:\n    /* \"#utility.yul\":3167:3436   */\n  pop\n    /* \"#utility.yul\":3116:3436   */\n  swap2\n  swap1\n  pop\n  jump\t// out\n    /* \"#utility.yul\":3442:3723   */\ntag_61:\n    /* \"#utility.yul\":3525:3552   */\n  tag_84\n    /* \"#utility.yul\":3547:3551   */\n  dup3\n    /* \"#utility.yul\":3525:3552   */\n  tag_68\n  jump\t// in\ntag_84:\n    /* \"#utility.yul\":3517:3523   */\n  dup2\n    /* \"#utility.yul\":3513:3553   */\n  add\n    /* \"#utility.yul\":3655:3661   */\n  dup2\n    /* \"#utility.yul\":3643:3653   */\n  dup2\n    /* \"#utility.yul\":3640:3662   */\n  lt\n    /* \"#utility.yul\":3619:3637   */\n  0xffffffffffffffff\n    /* \"#utility.yul\":3607:3617   */\n  dup3\n    /* \"#utility.yul\":3604:3638   */\n  gt\n    /* \"#utility.yul\":3601:3663   */\n  or\n    /* \"#utility.yul\":3598:3686   */\n  iszero\n  tag_85\n  jumpi\n    /* \"#utility.yul\":3666:3684   */\n  tag_86\n  tag_66\n  jump\t// in\ntag_86:\n    /* \"#utility.yul\":3598:3686   */\ntag_85:\n    /* \"#utility.yul\":3706:3716   */\n  dup1\n    /* \"#utility.yul\":3702:3704   */\n  0x40\n    /* \"#utility.yul\":3695:3717   */\n  mstore\n    /* \"#utility.yul\":3485:3723   */\n  pop\n    /* \"#utility.yul\":3442:3723   */\n  pop\n  pop\n  jump\t// out\n    /* \"#utility.yul\":3729:3909   */\ntag_82:\n    /* \"#utility.yul\":3777:3854   */\n  0x4e487b7100000000000000000000000000000000000000000000000000000000\n    /* \"#utility.yul\":3774:3775   */\n  0x00\n    /* \"#utility.yul\":3767:3855   */\n  mstore\n    /* \"#utility.yul\":3874:3878   */\n  0x22\n    /* \"#utility.yul\":3871:3872   */\n  0x04\n    /* \"#utility.yul\":3864:3879   */\n  mstore\n    /* \"#utility.yul\":3898:3902   */\n  0x24\n    /* \"#utility.yul\":3895:3896   */\n  0x00\n    /* \"#utility.yul\":3888:3903   */\n  revert\n    /* \"#utility.yul\":3915:4095   */\ntag_66:\n    /* \"#utility.yul\":3963:4040   */\n  0x4e487b7100000000000000000000000000000000000000000000000000000000\n    /* \"#utility.yul\":3960:3961   */\n  0x00\n    /* \"#utility.yul\":3953:4041   */\n  mstore\n    /* \"#utility.yul\":4060:4064   */\n  0x41\n    /* \"#utility.yul\":4057:4058   */\n  0x04\n    /* \"#utility.yul\":4050:4065   */\n  mstore\n    /* \"#utility.yul\":4084:4088   */\n  0x24\n    /* \"#utility.yul\":4081:4082   */\n  0x00\n    /* \"#utility.yul\":4074:4089   */\n  revert\n    /* \"#utility.yul\":4101:4218   */\ntag_40:\n    /* \"#utility.yul\":4210:4211   */\n  0x00\n    /* \"#utility.yul\":4207:4208   */\n  dup1\n    /* \"#utility.yul\":4200:4212   */\n  revert\n    /* \"#utility.yul\":4224:4341   */\ntag_29:\n    /* \"#utility.yul\":4333:4334   */\n  0x00\n    /* \"#utility.yul\":4330:4331   */\n  dup1\n    /* \"#utility.yul\":4323:4335   */\n  revert\n    /* \"#utility.yul\":4347:4464   */\ntag_52:\n    /* \"#utility.yul\":4456:4457   */\n  0x00\n    /* \"#utility.yul\":4453:4454   */\n  dup1\n    /* \"#utility.yul\":4446:4458   */\n  revert\n    /* \"#utility.yul\":4470:4587   */\ntag_49:\n    /* \"#utility.yul\":4579:4580   */\n  0x00\n    /* \"#utility.yul\":4576:4577   */\n  dup1\n    /* \"#utility.yul\":4569:4581   */\n  revert\n    /* \"#utility.yul\":4593:4695   */\ntag_68:\n    /* \"#utility.yul\":4634:4640   */\n  0x00\n    /* \"#utility.yul\":4685:4687   */\n  0x1f\n    /* \"#utility.yul\":4681:4688   */\n  not\n    /* \"#utility.yul\":4676:4678   */\n  0x1f\n    /* \"#utility.yul\":4669:4674   */\n  dup4\n    /* \"#utility.yul\":4665:4679   */\n  add\n    /* \"#utility.yul\":4661:4689   */\n  and\n    /* \"#utility.yul\":4651:4689   */\n  swap1\n  pop\n    /* \"#utility.yul\":4593:4695   */\n  swap2\n  swap1\n  pop\n  jump\t// out\n    /* \"#utility.yul\":4701:4817   */\ntag_35:\n    /* \"#utility.yul\":4771:4792   */\n  tag_95\n    /* \"#utility.yul\":4786:4791   */\n  dup2\n    /* \"#utility.yul\":4771:4792   */\n  tag_69\n  jump\t// in\ntag_95:\n    /* \"#utility.yul\":4764:4769   */\n  dup2\n    /* \"#utility.yul\":4761:4793   */\n  eq\n    /* \"#utility.yul\":4751:4811   */\n  tag_96\n  jumpi\n    /* \"#utility.yul\":4807:4808   */\n  0x00\n    /* \"#utility.yul\":4804:4805   */\n  dup1\n    /* \"#utility.yul\":4797:4809   */\n  revert\n    /* \"#utility.yul\":4751:4811   */\ntag_96:\n    /* \"#utility.yul\":4701:4817   */\n  pop\n  jump\t// out\n    /* \"#utility.yul\":4823:4945   */\ntag_45:\n    /* \"#utility.yul\":4896:4920   */\n  tag_98\n    /* \"#utility.yul\":4914:4919   */\n  dup2\n    /* \"#utility.yul\":4896:4920   */\n  tag_71\n  jump\t// in\ntag_98:\n    /* \"#utility.yul\":4889:4894   */\n  dup2\n    /* \"#utility.yul\":4886:4921   */\n  eq\n    /* \"#utility.yul\":4876:4939   */\n  tag_99\n  jumpi\n    /* \"#utility.yul\":4935:4936   */\n  0x00\n    /* \"#utility.yul\":4932:4933   */\n  dup1\n    /* \"#utility.yul\":4925:4937   */\n  revert\n    /* \"#utility.yul\":4876:4939   */\ntag_99:\n    /* \"#utility.yul\":4823:4945   */\n  pop\n  jump\t// out\n    /* \"Donation.sol\":72:1210  contract Donation {... */\ntag_8:\n  dataSize(sub_0)\n  dup1\n  dataOffset(sub_0)\n  0x00\n  codecopy\n  0x00\n  return\nstop\n\nsub_0: assembly {\n        /* \"Donation.sol\":72:1210  contract Donation {... */\n      mstore(0x40, 0x80)\n      jumpi(tag_1, lt(calldatasize, 0x04))\n      shr(0xe0, calldataload(0x00))\n      dup1\n      0xb1701232\n      gt\n      tag_9\n      jumpi\n      dup1\n      0xb1701232\n      eq\n      tag_5\n      jumpi\n      dup1\n      0xb383bf2d\n      eq\n      tag_6\n      jumpi\n      dup1\n      0xed11f46a\n      eq\n      tag_7\n      jumpi\n      dup1\n      0xed88c68e\n      eq\n      tag_8\n      jumpi\n      jump(tag_1)\n    tag_9:\n      dup1\n      0x3ccfd60b\n      eq\n      tag_2\n      jumpi\n      dup1\n      0x798be230\n      eq\n      tag_3\n      jumpi\n      dup1\n      0x80fdef1b\n      eq\n      tag_4\n      jumpi\n    tag_1:\n      0x00\n      dup1\n      revert\n        /* \"Donation.sol\":1013:1208  function withdraw() public {... */\n    tag_2:\n      callvalue\n      dup1\n      iszero\n      tag_10\n      jumpi\n      0x00\n      dup1\n      revert\n    tag_10:\n      pop\n      tag_11\n      tag_12\n      jump\t// in\n    tag_11:\n      stop\n        /* \"Donation.sol\":202:241  bool public acceptPaymentAfterAmountMet */\n    tag_3:\n      callvalue\n      dup1\n      iszero\n      tag_13\n      jumpi\n      0x00\n      dup1\n      revert\n    tag_13:\n      pop\n      tag_14\n      tag_15\n      jump\t// in\n    tag_14:\n      mload(0x40)\n      tag_16\n      swap2\n      swap1\n      tag_17\n      jump\t// in\n    tag_16:\n      mload(0x40)\n      dup1\n      swap2\n      sub\n      swap1\n      return\n        /* \"Donation.sol\":164:196  uint public donationAmountNeeded */\n    tag_4:\n      callvalue\n      dup1\n      iszero\n      tag_18\n      jumpi\n      0x00\n      dup1\n      revert\n    tag_18:\n      pop\n      tag_19\n      tag_20\n      jump\t// in\n    tag_19:\n      mload(0x40)\n      tag_21\n      swap2\n      swap1\n      tag_22\n      jump\t// in\n    tag_21:\n      mload(0x40)\n      dup1\n      swap2\n      sub\n      swap1\n      return\n        /* \"Donation.sol\":97:123  string public donationName */\n    tag_5:\n      callvalue\n      dup1\n      iszero\n      tag_23\n      jumpi\n      0x00\n      dup1\n      revert\n    tag_23:\n      pop\n      tag_24\n      tag_25\n      jump\t// in\n    tag_24:\n      mload(0x40)\n      tag_26\n      swap2\n      swap1\n      tag_27\n      jump\t// in\n    tag_26:\n      mload(0x40)\n      dup1\n      swap2\n      sub\n      swap1\n      return\n        /* \"Donation.sol\":129:158  uint public donationMinAmount */\n    tag_6:\n      callvalue\n      dup1\n      iszero\n      tag_28\n      jumpi\n      0x00\n      dup1\n      revert\n    tag_28:\n      pop\n      tag_29\n      tag_30\n      jump\t// in\n    tag_29:\n      mload(0x40)\n      tag_31\n      swap2\n      swap1\n      tag_22\n      jump\t// in\n    tag_31:\n      mload(0x40)\n      dup1\n      swap2\n      sub\n      swap1\n      return\n        /* \"Donation.sol\":906:1007  function donationBalance() view external returns (uint) {... */\n    tag_7:\n      callvalue\n      dup1\n      iszero\n      tag_32\n      jumpi\n      0x00\n      dup1\n      revert\n    tag_32:\n      pop\n      tag_33\n      tag_34\n      jump\t// in\n    tag_33:\n      mload(0x40)\n      tag_35\n      swap2\n      swap1\n      tag_22\n      jump\t// in\n    tag_35:\n      mload(0x40)\n      dup1\n      swap2\n      sub\n      swap1\n      return\n        /* \"Donation.sol\":552:900  function donate() payable external {... */\n    tag_8:\n      tag_36\n      tag_37\n      jump\t// in\n    tag_36:\n      stop\n        /* \"Donation.sol\":1013:1208  function withdraw() public {... */\n    tag_12:\n        /* \"Donation.sol\":1068:1078  msg.sender */\n      caller\n        /* \"Donation.sol\":1058:1078  _owner == msg.sender */\n      0xffffffffffffffffffffffffffffffffffffffff\n      and\n        /* \"Donation.sol\":1058:1064  _owner */\n      0x03\n      0x01\n      swap1\n      sload\n      swap1\n      0x0100\n      exp\n      swap1\n      div\n      0xffffffffffffffffffffffffffffffffffffffff\n      and\n        /* \"Donation.sol\":1058:1078  _owner == msg.sender */\n      0xffffffffffffffffffffffffffffffffffffffff\n      and\n      eq\n        /* \"Donation.sol\":1050:1131  require(_owner == msg.sender, \"Only owner of this donation can withdraw from it\") */\n      tag_39\n      jumpi\n      mload(0x40)\n      0x08c379a000000000000000000000000000000000000000000000000000000000\n      dup2\n      mstore\n      0x04\n      add\n      tag_40\n      swap1\n      tag_41\n      jump\t// in\n    tag_40:\n      mload(0x40)\n      dup1\n      swap2\n      sub\n      swap1\n      revert\n    tag_39:\n        /* \"Donation.sol\":1149:1159  msg.sender */\n      caller\n        /* \"Donation.sol\":1141:1165  payable(msg.sender).call */\n      0xffffffffffffffffffffffffffffffffffffffff\n      and\n        /* \"Donation.sol\":1174:1195  address(this).balance */\n      selfbalance\n        /* \"Donation.sol\":1141:1201  payable(msg.sender).call{value: (address(this).balance)}(\"\") */\n      mload(0x40)\n      tag_42\n      swap1\n      tag_43\n      jump\t// in\n    tag_42:\n      0x00\n      mload(0x40)\n      dup1\n      dup4\n      sub\n      dup2\n      dup6\n      dup8\n      gas\n      call\n      swap3\n      pop\n      pop\n      pop\n      returndatasize\n      dup1\n      0x00\n      dup2\n      eq\n      tag_46\n      jumpi\n      mload(0x40)\n      swap2\n      pop\n      and(add(returndatasize, 0x3f), not(0x1f))\n      dup3\n      add\n      0x40\n      mstore\n      returndatasize\n      dup3\n      mstore\n      returndatasize\n      0x00\n      0x20\n      dup5\n      add\n      returndatacopy\n      jump(tag_45)\n    tag_46:\n      0x60\n      swap2\n      pop\n    tag_45:\n      pop\n      pop\n      pop\n        /* \"Donation.sol\":1013:1208  function withdraw() public {... */\n      jump\t// out\n        /* \"Donation.sol\":202:241  bool public acceptPaymentAfterAmountMet */\n    tag_15:\n      0x03\n      0x00\n      swap1\n      sload\n      swap1\n      0x0100\n      exp\n      swap1\n      div\n      0xff\n      and\n      dup2\n      jump\t// out\n        /* \"Donation.sol\":164:196  uint public donationAmountNeeded */\n    tag_20:\n      sload(0x02)\n      dup2\n      jump\t// out\n        /* \"Donation.sol\":97:123  string public donationName */\n    tag_25:\n      0x00\n      dup1\n      sload\n      tag_47\n      swap1\n      tag_48\n      jump\t// in\n    tag_47:\n      dup1\n      0x1f\n      add\n      0x20\n      dup1\n      swap2\n      div\n      mul\n      0x20\n      add\n      mload(0x40)\n      swap1\n      dup2\n      add\n      0x40\n      mstore\n      dup1\n      swap3\n      swap2\n      swap1\n      dup2\n      dup2\n      mstore\n      0x20\n      add\n      dup3\n      dup1\n      sload\n      tag_49\n      swap1\n      tag_48\n      jump\t// in\n    tag_49:\n      dup1\n      iszero\n      tag_50\n      jumpi\n      dup1\n      0x1f\n      lt\n      tag_51\n      jumpi\n      0x0100\n      dup1\n      dup4\n      sload\n      div\n      mul\n      dup4\n      mstore\n      swap2\n      0x20\n      add\n      swap2\n      jump(tag_50)\n    tag_51:\n      dup3\n      add\n      swap2\n      swap1\n      0x00\n      mstore\n      keccak256(0x00, 0x20)\n      swap1\n    tag_52:\n      dup2\n      sload\n      dup2\n      mstore\n      swap1\n      0x01\n      add\n      swap1\n      0x20\n      add\n      dup1\n      dup4\n      gt\n      tag_52\n      jumpi\n      dup3\n      swap1\n      sub\n      0x1f\n      and\n      dup3\n      add\n      swap2\n    tag_50:\n      pop\n      pop\n      pop\n      pop\n      pop\n      dup2\n      jump\t// out\n        /* \"Donation.sol\":129:158  uint public donationMinAmount */\n    tag_30:\n      sload(0x01)\n      dup2\n      jump\t// out\n        /* \"Donation.sol\":906:1007  function donationBalance() view external returns (uint) {... */\n    tag_34:\n        /* \"Donation.sol\":956:960  uint */\n      0x00\n        /* \"Donation.sol\":979:1000  address(this).balance */\n      selfbalance\n        /* \"Donation.sol\":972:1000  return address(this).balance */\n      swap1\n      pop\n        /* \"Donation.sol\":906:1007  function donationBalance() view external returns (uint) {... */\n      swap1\n      jump\t// out\n        /* \"Donation.sol\":552:900  function donate() payable external {... */\n    tag_37:\n        /* \"Donation.sol\":618:635  donationMinAmount */\n      sload(0x01)\n        /* \"Donation.sol\":605:614  msg.value */\n      callvalue\n        /* \"Donation.sol\":605:635  msg.value >= donationMinAmount */\n      lt\n      iszero\n        /* \"Donation.sol\":597:677  require(msg.value >= donationMinAmount, \"You cannot donate below ${_minAmount}\") */\n      tag_55\n      jumpi\n      mload(0x40)\n      0x08c379a000000000000000000000000000000000000000000000000000000000\n      dup2\n      mstore\n      0x04\n      add\n      tag_56\n      swap1\n      tag_57\n      jump\t// in\n    tag_56:\n      mload(0x40)\n      dup1\n      swap2\n      sub\n      swap1\n      revert\n    tag_55:\n        /* \"Donation.sol\":692:719  acceptPaymentAfterAmountMet */\n      0x03\n      0x00\n      swap1\n      sload\n      swap1\n      0x0100\n      exp\n      swap1\n      div\n      0xff\n      and\n        /* \"Donation.sol\":687:894  if (!acceptPaymentAfterAmountMet) {... */\n      tag_58\n      jumpi\n        /* \"Donation.sol\":735:747  uint balance */\n      0x00\n        /* \"Donation.sol\":750:771  address(this).balance */\n      selfbalance\n        /* \"Donation.sol\":735:771  uint balance = address(this).balance */\n      swap1\n      pop\n        /* \"Donation.sol\":816:836  donationAmountNeeded */\n      sload(0x02)\n        /* \"Donation.sol\":803:812  msg.value */\n      callvalue\n        /* \"Donation.sol\":793:800  balance */\n      dup3\n        /* \"Donation.sol\":793:812  balance + msg.value */\n      tag_59\n      swap2\n      swap1\n      tag_60\n      jump\t// in\n    tag_59:\n        /* \"Donation.sol\":793:836  balance + msg.value <= donationAmountNeeded */\n      gt\n      iszero\n        /* \"Donation.sol\":785:883  require(balance + msg.value <= donationAmountNeeded, \"Your donation will cross the amount needed\") */\n      tag_61\n      jumpi\n      mload(0x40)\n      0x08c379a000000000000000000000000000000000000000000000000000000000\n      dup2\n      mstore\n      0x04\n      add\n      tag_62\n      swap1\n      tag_63\n      jump\t// in\n    tag_62:\n      mload(0x40)\n      dup1\n      swap2\n      sub\n      swap1\n      revert\n    tag_61:\n        /* \"Donation.sol\":721:894  {... */\n      pop\n        /* \"Donation.sol\":687:894  if (!acceptPaymentAfterAmountMet) {... */\n    tag_58:\n        /* \"Donation.sol\":552:900  function donate() payable external {... */\n      jump\t// out\n        /* \"#utility.yul\":7:116   */\n    tag_65:\n        /* \"#utility.yul\":88:109   */\n      tag_67\n        /* \"#utility.yul\":103:108   */\n      dup2\n        /* \"#utility.yul\":88:109   */\n      tag_68\n      jump\t// in\n    tag_67:\n        /* \"#utility.yul\":83:86   */\n      dup3\n        /* \"#utility.yul\":76:110   */\n      mstore\n        /* \"#utility.yul\":7:116   */\n      pop\n      pop\n      jump\t// out\n        /* \"#utility.yul\":122:486   */\n    tag_69:\n        /* \"#utility.yul\":210:213   */\n      0x00\n        /* \"#utility.yul\":238:277   */\n      tag_71\n        /* \"#utility.yul\":271:276   */\n      dup3\n        /* \"#utility.yul\":238:277   */\n      tag_72\n      jump\t// in\n    tag_71:\n        /* \"#utility.yul\":293:364   */\n      tag_73\n        /* \"#utility.yul\":357:363   */\n      dup2\n        /* \"#utility.yul\":352:355   */\n      dup6\n        /* \"#utility.yul\":293:364   */\n      tag_74\n      jump\t// in\n    tag_73:\n        /* \"#utility.yul\":286:364   */\n      swap4\n      pop\n        /* \"#utility.yul\":373:425   */\n      tag_75\n        /* \"#utility.yul\":418:424   */\n      dup2\n        /* \"#utility.yul\":413:416   */\n      dup6\n        /* \"#utility.yul\":406:410   */\n      0x20\n        /* \"#utility.yul\":399:404   */\n      dup7\n        /* \"#utility.yul\":395:411   */\n      add\n        /* \"#utility.yul\":373:425   */\n      tag_76\n      jump\t// in\n    tag_75:\n        /* \"#utility.yul\":450:479   */\n      tag_77\n        /* \"#utility.yul\":472:478   */\n      dup2\n        /* \"#utility.yul\":450:479   */\n      tag_78\n      jump\t// in\n    tag_77:\n        /* \"#utility.yul\":445:448   */\n      dup5\n        /* \"#utility.yul\":441:480   */\n      add\n        /* \"#utility.yul\":434:480   */\n      swap2\n      pop\n        /* \"#utility.yul\":214:486   */\n      pop\n        /* \"#utility.yul\":122:486   */\n      swap3\n      swap2\n      pop\n      pop\n      jump\t// out\n        /* \"#utility.yul\":492:858   */\n    tag_79:\n        /* \"#utility.yul\":634:637   */\n      0x00\n        /* \"#utility.yul\":655:722   */\n      tag_81\n        /* \"#utility.yul\":719:721   */\n      0x25\n        /* \"#utility.yul\":714:717   */\n      dup4\n        /* \"#utility.yul\":655:722   */\n      tag_74\n      jump\t// in\n    tag_81:\n        /* \"#utility.yul\":648:722   */\n      swap2\n      pop\n        /* \"#utility.yul\":731:824   */\n      tag_82\n        /* \"#utility.yul\":820:823   */\n      dup3\n        /* \"#utility.yul\":731:824   */\n      tag_83\n      jump\t// in\n    tag_82:\n        /* \"#utility.yul\":849:851   */\n      0x40\n        /* \"#utility.yul\":844:847   */\n      dup3\n        /* \"#utility.yul\":840:852   */\n      add\n        /* \"#utility.yul\":833:852   */\n      swap1\n      pop\n        /* \"#utility.yul\":492:858   */\n      swap2\n      swap1\n      pop\n      jump\t// out\n        /* \"#utility.yul\":864:1230   */\n    tag_84:\n        /* \"#utility.yul\":1006:1009   */\n      0x00\n        /* \"#utility.yul\":1027:1094   */\n      tag_86\n        /* \"#utility.yul\":1091:1093   */\n      0x30\n        /* \"#utility.yul\":1086:1089   */\n      dup4\n        /* \"#utility.yul\":1027:1094   */\n      tag_74\n      jump\t// in\n    tag_86:\n        /* \"#utility.yul\":1020:1094   */\n      swap2\n      pop\n        /* \"#utility.yul\":1103:1196   */\n      tag_87\n        /* \"#utility.yul\":1192:1195   */\n      dup3\n        /* \"#utility.yul\":1103:1196   */\n      tag_88\n      jump\t// in\n    tag_87:\n        /* \"#utility.yul\":1221:1223   */\n      0x40\n        /* \"#utility.yul\":1216:1219   */\n      dup3\n        /* \"#utility.yul\":1212:1224   */\n      add\n        /* \"#utility.yul\":1205:1224   */\n      swap1\n      pop\n        /* \"#utility.yul\":864:1230   */\n      swap2\n      swap1\n      pop\n      jump\t// out\n        /* \"#utility.yul\":1236:1602   */\n    tag_89:\n        /* \"#utility.yul\":1378:1381   */\n      0x00\n        /* \"#utility.yul\":1399:1466   */\n      tag_91\n        /* \"#utility.yul\":1463:1465   */\n      0x2a\n        /* \"#utility.yul\":1458:1461   */\n      dup4\n        /* \"#utility.yul\":1399:1466   */\n      tag_74\n      jump\t// in\n    tag_91:\n        /* \"#utility.yul\":1392:1466   */\n      swap2\n      pop\n        /* \"#utility.yul\":1475:1568   */\n      tag_92\n        /* \"#utility.yul\":1564:1567   */\n      dup3\n        /* \"#utility.yul\":1475:1568   */\n      tag_93\n      jump\t// in\n    tag_92:\n        /* \"#utility.yul\":1593:1595   */\n      0x40\n        /* \"#utility.yul\":1588:1591   */\n      dup3\n        /* \"#utility.yul\":1584:1596   */\n      add\n        /* \"#utility.yul\":1577:1596   */\n      swap1\n      pop\n        /* \"#utility.yul\":1236:1602   */\n      swap2\n      swap1\n      pop\n      jump\t// out\n        /* \"#utility.yul\":1608:2006   */\n    tag_94:\n        /* \"#utility.yul\":1767:1770   */\n      0x00\n        /* \"#utility.yul\":1788:1871   */\n      tag_96\n        /* \"#utility.yul\":1869:1870   */\n      0x00\n        /* \"#utility.yul\":1864:1867   */\n      dup4\n        /* \"#utility.yul\":1788:1871   */\n      tag_97\n      jump\t// in\n    tag_96:\n        /* \"#utility.yul\":1781:1871   */\n      swap2\n      pop\n        /* \"#utility.yul\":1880:1973   */\n      tag_98\n        /* \"#utility.yul\":1969:1972   */\n      dup3\n        /* \"#utility.yul\":1880:1973   */\n      tag_99\n      jump\t// in\n    tag_98:\n        /* \"#utility.yul\":1998:1999   */\n      0x00\n        /* \"#utility.yul\":1993:1996   */\n      dup3\n        /* \"#utility.yul\":1989:2000   */\n      add\n        /* \"#utility.yul\":1982:2000   */\n      swap1\n      pop\n        /* \"#utility.yul\":1608:2006   */\n      swap2\n      swap1\n      pop\n      jump\t// out\n        /* \"#utility.yul\":2012:2130   */\n    tag_100:\n        /* \"#utility.yul\":2099:2123   */\n      tag_102\n        /* \"#utility.yul\":2117:2122   */\n      dup2\n        /* \"#utility.yul\":2099:2123   */\n      tag_103\n      jump\t// in\n    tag_102:\n        /* \"#utility.yul\":2094:2097   */\n      dup3\n        /* \"#utility.yul\":2087:2124   */\n      mstore\n        /* \"#utility.yul\":2012:2130   */\n      pop\n      pop\n      jump\t// out\n        /* \"#utility.yul\":2136:2515   */\n    tag_43:\n        /* \"#utility.yul\":2320:2323   */\n      0x00\n        /* \"#utility.yul\":2342:2489   */\n      tag_105\n        /* \"#utility.yul\":2485:2488   */\n      dup3\n        /* \"#utility.yul\":2342:2489   */\n      tag_94\n      jump\t// in\n    tag_105:\n        /* \"#utility.yul\":2335:2489   */\n      swap2\n      pop\n        /* \"#utility.yul\":2506:2509   */\n      dup2\n        /* \"#utility.yul\":2499:2509   */\n      swap1\n      pop\n        /* \"#utility.yul\":2136:2515   */\n      swap2\n      swap1\n      pop\n      jump\t// out\n        /* \"#utility.yul\":2521:2731   */\n    tag_17:\n        /* \"#utility.yul\":2608:2612   */\n      0x00\n        /* \"#utility.yul\":2646:2648   */\n      0x20\n        /* \"#utility.yul\":2635:2644   */\n      dup3\n        /* \"#utility.yul\":2631:2649   */\n      add\n        /* \"#utility.yul\":2623:2649   */\n      swap1\n      pop\n        /* \"#utility.yul\":2659:2724   */\n      tag_107\n        /* \"#utility.yul\":2721:2722   */\n      0x00\n        /* \"#utility.yul\":2710:2719   */\n      dup4\n        /* \"#utility.yul\":2706:2723   */\n      add\n        /* \"#utility.yul\":2697:2703   */\n      dup5\n        /* \"#utility.yul\":2659:2724   */\n      tag_65\n      jump\t// in\n    tag_107:\n        /* \"#utility.yul\":2521:2731   */\n      swap3\n      swap2\n      pop\n      pop\n      jump\t// out\n        /* \"#utility.yul\":2737:3050   */\n    tag_27:\n        /* \"#utility.yul\":2850:2854   */\n      0x00\n        /* \"#utility.yul\":2888:2890   */\n      0x20\n        /* \"#utility.yul\":2877:2886   */\n      dup3\n        /* \"#utility.yul\":2873:2891   */\n      add\n        /* \"#utility.yul\":2865:2891   */\n      swap1\n      pop\n        /* \"#utility.yul\":2937:2946   */\n      dup2\n        /* \"#utility.yul\":2931:2935   */\n      dup2\n        /* \"#utility.yul\":2927:2947   */\n      sub\n        /* \"#utility.yul\":2923:2924   */\n      0x00\n        /* \"#utility.yul\":2912:2921   */\n      dup4\n        /* \"#utility.yul\":2908:2925   */\n      add\n        /* \"#utility.yul\":2901:2948   */\n      mstore\n        /* \"#utility.yul\":2965:3043   */\n      tag_109\n        /* \"#utility.yul\":3038:3042   */\n      dup2\n        /* \"#utility.yul\":3029:3035   */\n      dup5\n        /* \"#utility.yul\":2965:3043   */\n      tag_69\n      jump\t// in\n    tag_109:\n        /* \"#utility.yul\":2957:3043   */\n      swap1\n      pop\n        /* \"#utility.yul\":2737:3050   */\n      swap3\n      swap2\n      pop\n      pop\n      jump\t// out\n        /* \"#utility.yul\":3056:3475   */\n    tag_57:\n        /* \"#utility.yul\":3222:3226   */\n      0x00\n        /* \"#utility.yul\":3260:3262   */\n      0x20\n        /* \"#utility.yul\":3249:3258   */\n      dup3\n        /* \"#utility.yul\":3245:3263   */\n      add\n        /* \"#utility.yul\":3237:3263   */\n      swap1\n      pop\n        /* \"#utility.yul\":3309:3318   */\n      dup2\n        /* \"#utility.yul\":3303:3307   */\n      dup2\n        /* \"#utility.yul\":3299:3319   */\n      sub\n        /* \"#utility.yul\":3295:3296   */\n      0x00\n        /* \"#utility.yul\":3284:3293   */\n      dup4\n        /* \"#utility.yul\":3280:3297   */\n      add\n        /* \"#utility.yul\":3273:3320   */\n      mstore\n        /* \"#utility.yul\":3337:3468   */\n      tag_111\n        /* \"#utility.yul\":3463:3467   */\n      dup2\n        /* \"#utility.yul\":3337:3468   */\n      tag_79\n      jump\t// in\n    tag_111:\n        /* \"#utility.yul\":3329:3468   */\n      swap1\n      pop\n        /* \"#utility.yul\":3056:3475   */\n      swap2\n      swap1\n      pop\n      jump\t// out\n        /* \"#utility.yul\":3481:3900   */\n    tag_41:\n        /* \"#utility.yul\":3647:3651   */\n      0x00\n        /* \"#utility.yul\":3685:3687   */\n      0x20\n        /* \"#utility.yul\":3674:3683   */\n      dup3\n        /* \"#utility.yul\":3670:3688   */\n      add\n        /* \"#utility.yul\":3662:3688   */\n      swap1\n      pop\n        /* \"#utility.yul\":3734:3743   */\n      dup2\n        /* \"#utility.yul\":3728:3732   */\n      dup2\n        /* \"#utility.yul\":3724:3744   */\n      sub\n        /* \"#utility.yul\":3720:3721   */\n      0x00\n        /* \"#utility.yul\":3709:3718   */\n      dup4\n        /* \"#utility.yul\":3705:3722   */\n      add\n        /* \"#utility.yul\":3698:3745   */\n      mstore\n        /* \"#utility.yul\":3762:3893   */\n      tag_113\n        /* \"#utility.yul\":3888:3892   */\n      dup2\n        /* \"#utility.yul\":3762:3893   */\n      tag_84\n      jump\t// in\n    tag_113:\n        /* \"#utility.yul\":3754:3893   */\n      swap1\n      pop\n        /* \"#utility.yul\":3481:3900   */\n      swap2\n      swap1\n      pop\n      jump\t// out\n        /* \"#utility.yul\":3906:4325   */\n    tag_63:\n        /* \"#utility.yul\":4072:4076   */\n      0x00\n        /* \"#utility.yul\":4110:4112   */\n      0x20\n        /* \"#utility.yul\":4099:4108   */\n      dup3\n        /* \"#utility.yul\":4095:4113   */\n      add\n        /* \"#utility.yul\":4087:4113   */\n      swap1\n      pop\n        /* \"#utility.yul\":4159:4168   */\n      dup2\n        /* \"#utility.yul\":4153:4157   */\n      dup2\n        /* \"#utility.yul\":4149:4169   */\n      sub\n        /* \"#utility.yul\":4145:4146   */\n      0x00\n        /* \"#utility.yul\":4134:4143   */\n      dup4\n        /* \"#utility.yul\":4130:4147   */\n      add\n        /* \"#utility.yul\":4123:4170   */\n      mstore\n        /* \"#utility.yul\":4187:4318   */\n      tag_115\n        /* \"#utility.yul\":4313:4317   */\n      dup2\n        /* \"#utility.yul\":4187:4318   */\n      tag_89\n      jump\t// in\n    tag_115:\n        /* \"#utility.yul\":4179:4318   */\n      swap1\n      pop\n        /* \"#utility.yul\":3906:4325   */\n      swap2\n      swap1\n      pop\n      jump\t// out\n        /* \"#utility.yul\":4331:4553   */\n    tag_22:\n        /* \"#utility.yul\":4424:4428   */\n      0x00\n        /* \"#utility.yul\":4462:4464   */\n      0x20\n        /* \"#utility.yul\":4451:4460   */\n      dup3\n        /* \"#utility.yul\":4447:4465   */\n      add\n        /* \"#utility.yul\":4439:4465   */\n      swap1\n      pop\n        /* \"#utility.yul\":4475:4546   */\n      tag_117\n        /* \"#utility.yul\":4543:4544   */\n      0x00\n        /* \"#utility.yul\":4532:4541   */\n      dup4\n        /* \"#utility.yul\":4528:4545   */\n      add\n        /* \"#utility.yul\":4519:4525   */\n      dup5\n        /* \"#utility.yul\":4475:4546   */\n      tag_100\n      jump\t// in\n    tag_117:\n        /* \"#utility.yul\":4331:4553   */\n      swap3\n      swap2\n      pop\n      pop\n      jump\t// out\n        /* \"#utility.yul\":4559:4658   */\n    tag_72:\n        /* \"#utility.yul\":4611:4617   */\n      0x00\n        /* \"#utility.yul\":4645:4650   */\n      dup2\n        /* \"#utility.yul\":4639:4651   */\n      mload\n        /* \"#utility.yul\":4629:4651   */\n      swap1\n      pop\n        /* \"#utility.yul\":4559:4658   */\n      swap2\n      swap1\n      pop\n      jump\t// out\n        /* \"#utility.yul\":4664:4811   */\n    tag_97:\n        /* \"#utility.yul\":4765:4776   */\n      0x00\n        /* \"#utility.yul\":4802:4805   */\n      dup2\n        /* \"#utility.yul\":4787:4805   */\n      swap1\n      pop\n        /* \"#utility.yul\":4664:4811   */\n      swap3\n      swap2\n      pop\n      pop\n      jump\t// out\n        /* \"#utility.yul\":4817:4986   */\n    tag_74:\n        /* \"#utility.yul\":4901:4912   */\n      0x00\n        /* \"#utility.yul\":4935:4941   */\n      dup3\n        /* \"#utility.yul\":4930:4933   */\n      dup3\n        /* \"#utility.yul\":4923:4942   */\n      mstore\n        /* \"#utility.yul\":4975:4979   */\n      0x20\n        /* \"#utility.yul\":4970:4973   */\n      dup3\n        /* \"#utility.yul\":4966:4980   */\n      add\n        /* \"#utility.yul\":4951:4980   */\n      swap1\n      pop\n        /* \"#utility.yul\":4817:4986   */\n      swap3\n      swap2\n      pop\n      pop\n      jump\t// out\n        /* \"#utility.yul\":4992:5297   */\n    tag_60:\n        /* \"#utility.yul\":5032:5035   */\n      0x00\n        /* \"#utility.yul\":5051:5071   */\n      tag_122\n        /* \"#utility.yul\":5069:5070   */\n      dup3\n        /* \"#utility.yul\":5051:5071   */\n      tag_103\n      jump\t// in\n    tag_122:\n        /* \"#utility.yul\":5046:5071   */\n      swap2\n      pop\n        /* \"#utility.yul\":5085:5105   */\n      tag_123\n        /* \"#utility.yul\":5103:5104   */\n      dup4\n        /* \"#utility.yul\":5085:5105   */\n      tag_103\n      jump\t// in\n    tag_123:\n        /* \"#utility.yul\":5080:5105   */\n      swap3\n      pop\n        /* \"#utility.yul\":5239:5240   */\n      dup3\n        /* \"#utility.yul\":5171:5237   */\n      0xffffffffffffffffffffffffffffffffffffffffffffffffffffffffffffffff\n        /* \"#utility.yul\":5167:5241   */\n      sub\n        /* \"#utility.yul\":5164:5165   */\n      dup3\n        /* \"#utility.yul\":5161:5242   */\n      gt\n        /* \"#utility.yul\":5158:5265   */\n      iszero\n      tag_124\n      jumpi\n        /* \"#utility.yul\":5245:5263   */\n      tag_125\n      tag_126\n      jump\t// in\n    tag_125:\n        /* \"#utility.yul\":5158:5265   */\n    tag_124:\n        /* \"#utility.yul\":5289:5290   */\n      dup3\n        /* \"#utility.yul\":5286:5287   */\n      dup3\n        /* \"#utility.yul\":5282:5291   */\n      add\n        /* \"#utility.yul\":5275:5291   */\n      swap1\n      pop\n        /* \"#utility.yul\":4992:5297   */\n      swap3\n      swap2\n      pop\n      pop\n      jump\t// out\n        /* \"#utility.yul\":5303:5393   */\n    tag_68:\n        /* \"#utility.yul\":5337:5344   */\n      0x00\n        /* \"#utility.yul\":5380:5385   */\n      dup2\n        /* \"#utility.yul\":5373:5386   */\n      iszero\n        /* \"#utility.yul\":5366:5387   */\n      iszero\n        /* \"#utility.yul\":5355:5387   */\n      swap1\n      pop\n        /* \"#utility.yul\":5303:5393   */\n      swap2\n      swap1\n      pop\n      jump\t// out\n        /* \"#utility.yul\":5399:5476   */\n    tag_103:\n        /* \"#utility.yul\":5436:5443   */\n      0x00\n        /* \"#utility.yul\":5465:5470   */\n      dup2\n        /* \"#utility.yul\":5454:5470   */\n      swap1\n      pop\n        /* \"#utility.yul\":5399:5476   */\n      swap2\n      swap1\n      pop\n      jump\t// out\n        /* \"#utility.yul\":5482:5789   */\n    tag_76:\n        /* \"#utility.yul\":5550:5551   */\n      0x00\n        /* \"#utility.yul\":5560:5673   */\n    tag_130:\n        /* \"#utility.yul\":5574:5580   */\n      dup4\n        /* \"#utility.yul\":5571:5572   */\n      dup2\n        /* \"#utility.yul\":5568:5581   */\n      lt\n        /* \"#utility.yul\":5560:5673   */\n      iszero\n      tag_132\n      jumpi\n        /* \"#utility.yul\":5659:5660   */\n      dup1\n        /* \"#utility.yul\":5654:5657   */\n      dup3\n        /* \"#utility.yul\":5650:5661   */\n      add\n        /* \"#utility.yul\":5644:5662   */\n      mload\n        /* \"#utility.yul\":5640:5641   */\n      dup2\n        /* \"#utility.yul\":5635:5638   */\n      dup5\n        /* \"#utility.yul\":5631:5642   */\n      add\n        /* \"#utility.yul\":5624:5663   */\n      mstore\n        /* \"#utility.yul\":5596:5598   */\n      0x20\n        /* \"#utility.yul\":5593:5594   */\n      dup2\n        /* \"#utility.yul\":5589:5599   */\n      add\n        /* \"#utility.yul\":5584:5599   */\n      swap1\n      pop\n        /* \"#utility.yul\":5560:5673   */\n      jump(tag_130)\n    tag_132:\n        /* \"#utility.yul\":5691:5697   */\n      dup4\n        /* \"#utility.yul\":5688:5689   */\n      dup2\n        /* \"#utility.yul\":5685:5698   */\n      gt\n        /* \"#utility.yul\":5682:5783   */\n      iszero\n      tag_133\n      jumpi\n        /* \"#utility.yul\":5771:5772   */\n      0x00\n        /* \"#utility.yul\":5762:5768   */\n      dup5\n        /* \"#utility.yul\":5757:5760   */\n      dup5\n        /* \"#utility.yul\":5753:5769   */\n      add\n        /* \"#utility.yul\":5746:5773   */\n      mstore\n        /* \"#utility.yul\":5682:5783   */\n    tag_133:\n        /* \"#utility.yul\":5531:5789   */\n      pop\n        /* \"#utility.yul\":5482:5789   */\n      pop\n      pop\n      pop\n      jump\t// out\n        /* \"#utility.yul\":5795:6115   */\n    tag_48:\n        /* \"#utility.yul\":5839:5845   */\n      0x00\n        /* \"#utility.yul\":5876:5877   */\n      0x02\n        /* \"#utility.yul\":5870:5874   */\n      dup3\n        /* \"#utility.yul\":5866:5878   */\n      div\n        /* \"#utility.yul\":5856:5878   */\n      swap1\n      pop\n        /* \"#utility.yul\":5923:5924   */\n      0x01\n        /* \"#utility.yul\":5917:5921   */\n      dup3\n        /* \"#utility.yul\":5913:5925   */\n      and\n        /* \"#utility.yul\":5944:5962   */\n      dup1\n        /* \"#utility.yul\":5934:6015   */\n      tag_135\n      jumpi\n        /* \"#utility.yul\":6000:6004   */\n      0x7f\n        /* \"#utility.yul\":5992:5998   */\n      dup3\n        /* \"#utility.yul\":5988:6005   */\n      and\n        /* \"#utility.yul\":5978:6005   */\n      swap2\n      pop\n        /* \"#utility.yul\":5934:6015   */\n    tag_135:\n        /* \"#utility.yul\":6062:6064   */\n      0x20\n        /* \"#utility.yul\":6054:6060   */\n      dup3\n        /* \"#utility.yul\":6051:6065   */\n      lt\n        /* \"#utility.yul\":6031:6049   */\n      dup2\n        /* \"#utility.yul\":6028:6066   */\n      eq\n        /* \"#utility.yul\":6025:6109   */\n      iszero\n      tag_136\n      jumpi\n        /* \"#utility.yul\":6081:6099   */\n      tag_137\n      tag_138\n      jump\t// in\n    tag_137:\n        /* \"#utility.yul\":6025:6109   */\n    tag_136:\n        /* \"#utility.yul\":5846:6115   */\n      pop\n        /* \"#utility.yul\":5795:6115   */\n      swap2\n      swap1\n      pop\n      jump\t// out\n        /* \"#utility.yul\":6121:6301   */\n    tag_126:\n        /* \"#utility.yul\":6169:6246   */\n      0x4e487b7100000000000000000000000000000000000000000000000000000000\n        /* \"#utility.yul\":6166:6167   */\n      0x00\n        /* \"#utility.yul\":6159:6247   */\n      mstore\n        /* \"#utility.yul\":6266:6270   */\n      0x11\n        /* \"#utility.yul\":6263:6264   */\n      0x04\n        /* \"#utility.yul\":6256:6271   */\n      mstore\n        /* \"#utility.yul\":6290:6294   */\n      0x24\n        /* \"#utility.yul\":6287:6288   */\n      0x00\n        /* \"#utility.yul\":6280:6295   */\n      revert\n        /* \"#utility.yul\":6307:6487   */\n    tag_138:\n        /* \"#utility.yul\":6355:6432   */\n      0x4e487b7100000000000000000000000000000000000000000000000000000000\n        /* \"#utility.yul\":6352:6353   */\n      0x00\n        /* \"#utility.yul\":6345:6433   */\n      mstore\n        /* \"#utility.yul\":6452:6456   */\n      0x22\n        /* \"#utility.yul\":6449:6450   */\n      0x04\n        /* \"#utility.yul\":6442:6457   */\n      mstore\n        /* \"#utility.yul\":6476:6480   */\n      0x24\n        /* \"#utility.yul\":6473:6474   */\n      0x00\n        /* \"#utility.yul\":6466:6481   */\n      revert\n        /* \"#utility.yul\":6493:6595   */\n    tag_78:\n        /* \"#utility.yul\":6534:6540   */\n      0x00\n        /* \"#utility.yul\":6585:6587   */\n      0x1f\n        /* \"#utility.yul\":6581:6588   */\n      not\n        /* \"#utility.yul\":6576:6578   */\n      0x1f\n        /* \"#utility.yul\":6569:6574   */\n      dup4\n        /* \"#utility.yul\":6565:6579   */\n      add\n        /* \"#utility.yul\":6561:6589   */\n      and\n        /* \"#utility.yul\":6551:6589   */\n      swap1\n      pop\n        /* \"#utility.yul\":6493:6595   */\n      swap2\n      swap1\n      pop\n      jump\t// out\n        /* \"#utility.yul\":6601:6825   */\n    tag_83:\n        /* \"#utility.yul\":6741:6775   */\n      0x596f752063616e6e6f7420646f6e6174652062656c6f7720247b5f6d696e416d\n        /* \"#utility.yul\":6737:6738   */\n      0x00\n        /* \"#utility.yul\":6729:6735   */\n      dup3\n        /* \"#utility.yul\":6725:6739   */\n      add\n        /* \"#utility.yul\":6718:6776   */\n      mstore\n        /* \"#utility.yul\":6810:6817   */\n      0x6f756e747d000000000000000000000000000000000000000000000000000000\n        /* \"#utility.yul\":6805:6807   */\n      0x20\n        /* \"#utility.yul\":6797:6803   */\n      dup3\n        /* \"#utility.yul\":6793:6808   */\n      add\n        /* \"#utility.yul\":6786:6818   */\n      mstore\n        /* \"#utility.yul\":6601:6825   */\n      pop\n      jump\t// out\n        /* \"#utility.yul\":6831:7066   */\n    tag_88:\n        /* \"#utility.yul\":6971:7005   */\n      0x4f6e6c79206f776e6572206f66207468697320646f6e6174696f6e2063616e20\n        /* \"#utility.yul\":6967:6968   */\n      0x00\n        /* \"#utility.yul\":6959:6965   */\n      dup3\n        /* \"#utility.yul\":6955:6969   */\n      add\n        /* \"#utility.yul\":6948:7006   */\n      mstore\n        /* \"#utility.yul\":7040:7058   */\n      0x77697468647261772066726f6d20697400000000000000000000000000000000\n        /* \"#utility.yul\":7035:7037   */\n      0x20\n        /* \"#utility.yul\":7027:7033   */\n      dup3\n        /* \"#utility.yul\":7023:7038   */\n      add\n        /* \"#utility.yul\":7016:7059   */\n      mstore\n        /* \"#utility.yul\":6831:7066   */\n      pop\n      jump\t// out\n        /* \"#utility.yul\":7072:7301   */\n    tag_93:\n        /* \"#utility.yul\":7212:7246   */\n      0x596f757220646f6e6174696f6e2077696c6c2063726f73732074686520616d6f\n        /* \"#utility.yul\":7208:7209   */\n      0x00\n        /* \"#utility.yul\":7200:7206   */\n      dup3\n        /* \"#utility.yul\":7196:7210   */\n      add\n        /* \"#utility.yul\":7189:7247   */\n      mstore\n        /* \"#utility.yul\":7281:7293   */\n      0x756e74206e656564656400000000000000000000000000000000000000000000\n        /* \"#utility.yul\":7276:7278   */\n      0x20\n        /* \"#utility.yul\":7268:7274   */\n      dup3\n        /* \"#utility.yul\":7264:7279   */\n      add\n        /* \"#utility.yul\":7257:7294   */\n      mstore\n        /* \"#utility.yul\":7072:7301   */\n      pop\n      jump\t// out\n        /* \"#utility.yul\":7307:7421   */\n    tag_99:\n      pop\n      jump\t// out\n\n    auxdata: 0xa2646970667358221220c9425cbe29bdf1aad8157454e108b554ad12139153866f078a88e4faf61be24e64736f6c63430008070033\n}\n",
				"bytecode": {
					"linkReferences": {},
					"object": "60806040523480156200001157600080fd5b5060405162000c9a38038062000c9a83398181016040528101906200003791906200021f565b83600090805190602001906200004f929190620000c3565b508260018190555081600360006101000a81548160ff0219169083151502179055508060028190555033600360016101000a81548173ffffffffffffffffffffffffffffffffffffffff021916908373ffffffffffffffffffffffffffffffffffffffff160217905550505050506200047e565b828054620000d1906200035b565b90600052602060002090601f016020900481019282620000f5576000855562000141565b82601f106200011057805160ff191683800117855562000141565b8280016001018555821562000141579182015b828111156200014057825182559160200191906001019062000123565b5b50905062000150919062000154565b5090565b5b808211156200016f57600081600090555060010162000155565b5090565b60006200018a6200018484620002d9565b620002b0565b905082815260208101848484011115620001a957620001a86200042a565b5b620001b684828562000325565b509392505050565b600081519050620001cf816200044a565b92915050565b600082601f830112620001ed57620001ec62000425565b5b8151620001ff84826020860162000173565b91505092915050565b600081519050620002198162000464565b92915050565b600080600080608085870312156200023c576200023b62000434565b5b600085015167ffffffffffffffff8111156200025d576200025c6200042f565b5b6200026b87828801620001d5565b94505060206200027e8782880162000208565b93505060406200029187828801620001be565b9250506060620002a48782880162000208565b91505092959194509250565b6000620002bc620002cf565b9050620002ca828262000391565b919050565b6000604051905090565b600067ffffffffffffffff821115620002f757620002f6620003f6565b5b620003028262000439565b9050602081019050919050565b60008115159050919050565b6000819050919050565b60005b838110156200034557808201518184015260208101905062000328565b8381111562000355576000848401525b50505050565b600060028204905060018216806200037457607f821691505b602082108114156200038b576200038a620003c7565b5b50919050565b6200039c8262000439565b810181811067ffffffffffffffff82111715620003be57620003bd620003f6565b5b80604052505050565b7f4e487b7100000000000000000000000000000000000000000000000000000000600052602260045260246000fd5b7f4e487b7100000000000000000000000000000000000000000000000000000000600052604160045260246000fd5b600080fd5b600080fd5b600080fd5b600080fd5b6000601f19601f8301169050919050565b62000455816200030f565b81146200046157600080fd5b50565b6200046f816200031b565b81146200047b57600080fd5b50565b61080c806200048e6000396000f3fe6080604052600436106100705760003560e01c8063b17012321161004e578063b1701232146100e2578063b383bf2d1461010d578063ed11f46a14610138578063ed88c68e1461016357610070565b80633ccfd60b14610075578063798be2301461008c57806380fdef1b146100b7575b600080fd5b34801561008157600080fd5b5061008a61016d565b005b34801561009857600080fd5b506100a1610268565b6040516100ae91906104c7565b60405180910390f35b3480156100c357600080fd5b506100cc61027b565b6040516100d99190610564565b60405180910390f35b3480156100ee57600080fd5b506100f7610281565b60405161010491906104e2565b60405180910390f35b34801561011957600080fd5b5061012261030f565b60405161012f9190610564565b60405180910390f35b34801561014457600080fd5b5061014d610315565b60405161015a9190610564565b60405180910390f35b61016b61031d565b005b3373ffffffffffffffffffffffffffffffffffffffff16600360019054906101000a900473ffffffffffffffffffffffffffffffffffffffff1673ffffffffffffffffffffffffffffffffffffffff16146101fd576040517f08c379a00000000000000000000000000000000000000000000000000000000081526004016101f490610524565b60405180910390fd5b3373ffffffffffffffffffffffffffffffffffffffff1647604051610221906104b2565b60006040518083038185875af1925050503d806000811461025e576040519150601f19603f3d011682016040523d82523d6000602084013e610263565b606091505b505050565b600360009054906101000a900460ff1681565b60025481565b6000805461028e90610645565b80601f01602080910402602001604051908101604052809291908181526020018280546102ba90610645565b80156103075780601f106102dc57610100808354040283529160200191610307565b820191906000526020600020905b8154815290600101906020018083116102ea57829003601f168201915b505050505081565b60015481565b600047905090565b600154341015610362576040517f08c379a000000000000000000000000000000000000000000000000000000000815260040161035990610504565b60405180910390fd5b600360009054906101000a900460ff166103cd576000479050600254348261038a91906105a6565b11156103cb576040517f08c379a00000000000000000000000000000000000000000000000000000000081526004016103c290610544565b60405180910390fd5b505b565b6103d8816105fc565b82525050565b60006103e98261057f565b6103f38185610595565b9350610403818560208601610612565b61040c816106d5565b840191505092915050565b6000610424602583610595565b915061042f826106e6565b604082019050919050565b6000610447603083610595565b915061045282610735565b604082019050919050565b600061046a602a83610595565b915061047582610784565b604082019050919050565b600061048d60008361058a565b9150610498826107d3565b600082019050919050565b6104ac81610608565b82525050565b60006104bd82610480565b9150819050919050565b60006020820190506104dc60008301846103cf565b92915050565b600060208201905081810360008301526104fc81846103de565b905092915050565b6000602082019050818103600083015261051d81610417565b9050919050565b6000602082019050818103600083015261053d8161043a565b9050919050565b6000602082019050818103600083015261055d8161045d565b9050919050565b600060208201905061057960008301846104a3565b92915050565b600081519050919050565b600081905092915050565b600082825260208201905092915050565b60006105b182610608565b91506105bc83610608565b9250827fffffffffffffffffffffffffffffffffffffffffffffffffffffffffffffffff038211156105f1576105f0610677565b5b828201905092915050565b60008115159050919050565b6000819050919050565b60005b83811015610630578082015181840152602081019050610615565b8381111561063f576000848401525b50505050565b6000600282049050600182168061065d57607f821691505b60208210811415610671576106706106a6565b5b50919050565b7f4e487b7100000000000000000000000000000000000000000000000000000000600052601160045260246000fd5b7f4e487b7100000000000000000000000000000000000000000000000000000000600052602260045260246000fd5b6000601f19601f8301169050919050565b7f596f752063616e6e6f7420646f6e6174652062656c6f7720247b5f6d696e416d60008201527f6f756e747d000000000000000000000000000000000000000000000000000000602082015250565b7f4f6e6c79206f776e6572206f66207468697320646f6e6174696f6e2063616e2060008201527f77697468647261772066726f6d20697400000000000000000000000000000000602082015250565b7f596f757220646f6e6174696f6e2077696c6c2063726f73732074686520616d6f60008201527f756e74206e656564656400000000000000000000000000000000000000000000602082015250565b5056fea2646970667358221220c9425cbe29bdf1aad8157454e108b554ad12139153866f078a88e4faf61be24e64736f6c63430008070033",
					"opcodes": "PUSH1 0x80 PUSH1 0x40 MSTORE CALLVALUE DUP1 ISZERO PUSH3 0x11 JUMPI PUSH1 0x0 DUP1 REVERT JUMPDEST POP PUSH1 0x40 MLOAD PUSH3 0xC9A CODESIZE SUB DUP1 PUSH3 0xC9A DUP4 CODECOPY DUP2 DUP2 ADD PUSH1 0x40 MSTORE DUP2 ADD SWAP1 PUSH3 0x37 SWAP2 SWAP1 PUSH3 0x21F JUMP JUMPDEST DUP4 PUSH1 0x0 SWAP1 DUP1 MLOAD SWAP1 PUSH1 0x20 ADD SWAP1 PUSH3 0x4F SWAP3 SWAP2 SWAP1 PUSH3 0xC3 JUMP JUMPDEST POP DUP3 PUSH1 0x1 DUP2 SWAP1 SSTORE POP DUP2 PUSH1 0x3 PUSH1 0x0 PUSH2 0x100 EXP DUP2 SLOAD DUP2 PUSH1 0xFF MUL NOT AND SWAP1 DUP4 ISZERO ISZERO MUL OR SWAP1 SSTORE POP DUP1 PUSH1 0x2 DUP2 SWAP1 SSTORE POP CALLER PUSH1 0x3 PUSH1 0x1 PUSH2 0x100 EXP DUP2 SLOAD DUP2 PUSH20 0xFFFFFFFFFFFFFFFFFFFFFFFFFFFFFFFFFFFFFFFF MUL NOT AND SWAP1 DUP4 PUSH20 0xFFFFFFFFFFFFFFFFFFFFFFFFFFFFFFFFFFFFFFFF AND MUL OR SWAP1 SSTORE POP POP POP POP POP PUSH3 0x47E JUMP JUMPDEST DUP3 DUP1 SLOAD PUSH3 0xD1 SWAP1 PUSH3 0x35B JUMP JUMPDEST SWAP1 PUSH1 0x0 MSTORE PUSH1 0x20 PUSH1 0x0 KECCAK256 SWAP1 PUSH1 0x1F ADD PUSH1 0x20 SWAP1 DIV DUP2 ADD SWAP3 DUP3 PUSH3 0xF5 JUMPI PUSH1 0x0 DUP6 SSTORE PUSH3 0x141 JUMP JUMPDEST DUP3 PUSH1 0x1F LT PUSH3 0x110 JUMPI DUP1 MLOAD PUSH1 0xFF NOT AND DUP4 DUP1 ADD OR DUP6 SSTORE PUSH3 0x141 JUMP JUMPDEST DUP3 DUP1 ADD PUSH1 0x1 ADD DUP6 SSTORE DUP3 ISZERO PUSH3 0x141 JUMPI SWAP2 DUP3 ADD JUMPDEST DUP3 DUP2 GT ISZERO PUSH3 0x140 JUMPI DUP3 MLOAD DUP3 SSTORE SWAP2 PUSH1 0x20 ADD SWAP2 SWAP1 PUSH1 0x1 ADD SWAP1 PUSH3 0x123 JUMP JUMPDEST JUMPDEST POP SWAP1 POP PUSH3 0x150 SWAP2 SWAP1 PUSH3 0x154 JUMP JUMPDEST POP SWAP1 JUMP JUMPDEST JUMPDEST DUP1 DUP3 GT ISZERO PUSH3 0x16F JUMPI PUSH1 0x0 DUP2 PUSH1 0x0 SWAP1 SSTORE POP PUSH1 0x1 ADD PUSH3 0x155 JUMP JUMPDEST POP SWAP1 JUMP JUMPDEST PUSH1 0x0 PUSH3 0x18A PUSH3 0x184 DUP5 PUSH3 0x2D9 JUMP JUMPDEST PUSH3 0x2B0 JUMP JUMPDEST SWAP1 POP DUP3 DUP2 MSTORE PUSH1 0x20 DUP2 ADD DUP5 DUP5 DUP5 ADD GT ISZERO PUSH3 0x1A9 JUMPI PUSH3 0x1A8 PUSH3 0x42A JUMP JUMPDEST JUMPDEST PUSH3 0x1B6 DUP5 DUP3 DUP6 PUSH3 0x325 JUMP JUMPDEST POP SWAP4 SWAP3 POP POP POP JUMP JUMPDEST PUSH1 0x0 DUP2 MLOAD SWAP1 POP PUSH3 0x1CF DUP2 PUSH3 0x44A JUMP JUMPDEST SWAP3 SWAP2 POP POP JUMP JUMPDEST PUSH1 0x0 DUP3 PUSH1 0x1F DUP4 ADD SLT PUSH3 0x1ED JUMPI PUSH3 0x1EC PUSH3 0x425 JUMP JUMPDEST JUMPDEST DUP2 MLOAD PUSH3 0x1FF DUP5 DUP3 PUSH1 0x20 DUP7 ADD PUSH3 0x173 JUMP JUMPDEST SWAP2 POP POP SWAP3 SWAP2 POP POP JUMP JUMPDEST PUSH1 0x0 DUP2 MLOAD SWAP1 POP PUSH3 0x219 DUP2 PUSH3 0x464 JUMP JUMPDEST SWAP3 SWAP2 POP POP JUMP JUMPDEST PUSH1 0x0 DUP1 PUSH1 0x0 DUP1 PUSH1 0x80 DUP6 DUP8 SUB SLT ISZERO PUSH3 0x23C JUMPI PUSH3 0x23B PUSH3 0x434 JUMP JUMPDEST JUMPDEST PUSH1 0x0 DUP6 ADD MLOAD PUSH8 0xFFFFFFFFFFFFFFFF DUP2 GT ISZERO PUSH3 0x25D JUMPI PUSH3 0x25C PUSH3 0x42F JUMP JUMPDEST JUMPDEST PUSH3 0x26B DUP8 DUP3 DUP9 ADD PUSH3 0x1D5 JUMP JUMPDEST SWAP5 POP POP PUSH1 0x20 PUSH3 0x27E DUP8 DUP3 DUP9 ADD PUSH3 0x208 JUMP JUMPDEST SWAP4 POP POP PUSH1 0x40 PUSH3 0x291 DUP8 DUP3 DUP9 ADD PUSH3 0x1BE JUMP JUMPDEST SWAP3 POP POP PUSH1 0x60 PUSH3 0x2A4 DUP8 DUP3 DUP9 ADD PUSH3 0x208 JUMP JUMPDEST SWAP2 POP POP SWAP3 SWAP6 SWAP2 SWAP5 POP SWAP3 POP JUMP JUMPDEST PUSH1 0x0 PUSH3 0x2BC PUSH3 0x2CF JUMP JUMPDEST SWAP1 POP PUSH3 0x2CA DUP3 DUP3 PUSH3 0x391 JUMP JUMPDEST SWAP2 SWAP1 POP JUMP JUMPDEST PUSH1 0x0 PUSH1 0x40 MLOAD SWAP1 POP SWAP1 JUMP JUMPDEST PUSH1 0x0 PUSH8 0xFFFFFFFFFFFFFFFF DUP3 GT ISZERO PUSH3 0x2F7 JUMPI PUSH3 0x2F6 PUSH3 0x3F6 JUMP JUMPDEST JUMPDEST PUSH3 0x302 DUP3 PUSH3 0x439 JUMP JUMPDEST SWAP1 POP PUSH1 0x20 DUP2 ADD SWAP1 POP SWAP2 SWAP1 POP JUMP JUMPDEST PUSH1 0x0 DUP2 ISZERO ISZERO SWAP1 POP SWAP2 SWAP1 POP JUMP JUMPDEST PUSH1 0x0 DUP2 SWAP1 POP SWAP2 SWAP1 POP JUMP JUMPDEST PUSH1 0x0 JUMPDEST DUP4 DUP2 LT ISZERO PUSH3 0x345 JUMPI DUP1 DUP3 ADD MLOAD DUP2 DUP5 ADD MSTORE PUSH1 0x20 DUP2 ADD SWAP1 POP PUSH3 0x328 JUMP JUMPDEST DUP4 DUP2 GT ISZERO PUSH3 0x355 JUMPI PUSH1 0x0 DUP5 DUP5 ADD MSTORE JUMPDEST POP POP POP POP JUMP JUMPDEST PUSH1 0x0 PUSH1 0x2 DUP3 DIV SWAP1 POP PUSH1 0x1 DUP3 AND DUP1 PUSH3 0x374 JUMPI PUSH1 0x7F DUP3 AND SWAP2 POP JUMPDEST PUSH1 0x20 DUP3 LT DUP2 EQ ISZERO PUSH3 0x38B JUMPI PUSH3 0x38A PUSH3 0x3C7 JUMP JUMPDEST JUMPDEST POP SWAP2 SWAP1 POP JUMP JUMPDEST PUSH3 0x39C DUP3 PUSH3 0x439 JUMP JUMPDEST DUP2 ADD DUP2 DUP2 LT PUSH8 0xFFFFFFFFFFFFFFFF DUP3 GT OR ISZERO PUSH3 0x3BE JUMPI PUSH3 0x3BD PUSH3 0x3F6 JUMP JUMPDEST JUMPDEST DUP1 PUSH1 0x40 MSTORE POP POP POP JUMP JUMPDEST PUSH32 0x4E487B7100000000000000000000000000000000000000000000000000000000 PUSH1 0x0 MSTORE PUSH1 0x22 PUSH1 0x4 MSTORE PUSH1 0x24 PUSH1 0x0 REVERT JUMPDEST PUSH32 0x4E487B7100000000000000000000000000000000000000000000000000000000 PUSH1 0x0 MSTORE PUSH1 0x41 PUSH1 0x4 MSTORE PUSH1 0x24 PUSH1 0x0 REVERT JUMPDEST PUSH1 0x0 DUP1 REVERT JUMPDEST PUSH1 0x0 DUP1 REVERT JUMPDEST PUSH1 0x0 DUP1 REVERT JUMPDEST PUSH1 0x0 DUP1 REVERT JUMPDEST PUSH1 0x0 PUSH1 0x1F NOT PUSH1 0x1F DUP4 ADD AND SWAP1 POP SWAP2 SWAP1 POP JUMP JUMPDEST PUSH3 0x455 DUP2 PUSH3 0x30F JUMP JUMPDEST DUP2 EQ PUSH3 0x461 JUMPI PUSH1 0x0 DUP1 REVERT JUMPDEST POP JUMP JUMPDEST PUSH3 0x46F DUP2 PUSH3 0x31B JUMP JUMPDEST DUP2 EQ PUSH3 0x47B JUMPI PUSH1 0x0 DUP1 REVERT JUMPDEST POP JUMP JUMPDEST PUSH2 0x80C DUP1 PUSH3 0x48E PUSH1 0x0 CODECOPY PUSH1 0x0 RETURN INVALID PUSH1 0x80 PUSH1 0x40 MSTORE PUSH1 0x4 CALLDATASIZE LT PUSH2 0x70 JUMPI PUSH1 0x0 CALLDATALOAD PUSH1 0xE0 SHR DUP1 PUSH4 0xB1701232 GT PUSH2 0x4E JUMPI DUP1 PUSH4 0xB1701232 EQ PUSH2 0xE2 JUMPI DUP1 PUSH4 0xB383BF2D EQ PUSH2 0x10D JUMPI DUP1 PUSH4 0xED11F46A EQ PUSH2 0x138 JUMPI DUP1 PUSH4 0xED88C68E EQ PUSH2 0x163 JUMPI PUSH2 0x70 JUMP JUMPDEST DUP1 PUSH4 0x3CCFD60B EQ PUSH2 0x75 JUMPI DUP1 PUSH4 0x798BE230 EQ PUSH2 0x8C JUMPI DUP1 PUSH4 0x80FDEF1B EQ PUSH2 0xB7 JUMPI JUMPDEST PUSH1 0x0 DUP1 REVERT JUMPDEST CALLVALUE DUP1 ISZERO PUSH2 0x81 JUMPI PUSH1 0x0 DUP1 REVERT JUMPDEST POP PUSH2 0x8A PUSH2 0x16D JUMP JUMPDEST STOP JUMPDEST CALLVALUE DUP1 ISZERO PUSH2 0x98 JUMPI PUSH1 0x0 DUP1 REVERT JUMPDEST POP PUSH2 0xA1 PUSH2 0x268 JUMP JUMPDEST PUSH1 0x40 MLOAD PUSH2 0xAE SWAP2 SWAP1 PUSH2 0x4C7 JUMP JUMPDEST PUSH1 0x40 MLOAD DUP1 SWAP2 SUB SWAP1 RETURN JUMPDEST CALLVALUE DUP1 ISZERO PUSH2 0xC3 JUMPI PUSH1 0x0 DUP1 REVERT JUMPDEST POP PUSH2 0xCC PUSH2 0x27B JUMP JUMPDEST PUSH1 0x40 MLOAD PUSH2 0xD9 SWAP2 SWAP1 PUSH2 0x564 JUMP JUMPDEST PUSH1 0x40 MLOAD DUP1 SWAP2 SUB SWAP1 RETURN JUMPDEST CALLVALUE DUP1 ISZERO PUSH2 0xEE JUMPI PUSH1 0x0 DUP1 REVERT JUMPDEST POP PUSH2 0xF7 PUSH2 0x281 JUMP JUMPDEST PUSH1 0x40 MLOAD PUSH2 0x104 SWAP2 SWAP1 PUSH2 0x4E2 JUMP JUMPDEST PUSH1 0x40 MLOAD DUP1 SWAP2 SUB SWAP1 RETURN JUMPDEST CALLVALUE DUP1 ISZERO PUSH2 0x119 JUMPI PUSH1 0x0 DUP1 REVERT JUMPDEST POP PUSH2 0x122 PUSH2 0x30F JUMP JUMPDEST PUSH1 0x40 MLOAD PUSH2 0x12F SWAP2 SWAP1 PUSH2 0x564 JUMP JUMPDEST PUSH1 0x40 MLOAD DUP1 SWAP2 SUB SWAP1 RETURN JUMPDEST CALLVALUE DUP1 ISZERO PUSH2 0x144 JUMPI PUSH1 0x0 DUP1 REVERT JUMPDEST POP PUSH2 0x14D PUSH2 0x315 JUMP JUMPDEST PUSH1 0x40 MLOAD PUSH2 0x15A SWAP2 SWAP1 PUSH2 0x564 JUMP JUMPDEST PUSH1 0x40 MLOAD DUP1 SWAP2 SUB SWAP1 RETURN JUMPDEST PUSH2 0x16B PUSH2 0x31D JUMP JUMPDEST STOP JUMPDEST CALLER PUSH20 0xFFFFFFFFFFFFFFFFFFFFFFFFFFFFFFFFFFFFFFFF AND PUSH1 0x3 PUSH1 0x1 SWAP1 SLOAD SWAP1 PUSH2 0x100 EXP SWAP1 DIV PUSH20 0xFFFFFFFFFFFFFFFFFFFFFFFFFFFFFFFFFFFFFFFF AND PUSH20 0xFFFFFFFFFFFFFFFFFFFFFFFFFFFFFFFFFFFFFFFF AND EQ PUSH2 0x1FD JUMPI PUSH1 0x40 MLOAD PUSH32 0x8C379A000000000000000000000000000000000000000000000000000000000 DUP2 MSTORE PUSH1 0x4 ADD PUSH2 0x1F4 SWAP1 PUSH2 0x524 JUMP JUMPDEST PUSH1 0x40 MLOAD DUP1 SWAP2 SUB SWAP1 REVERT JUMPDEST CALLER PUSH20 0xFFFFFFFFFFFFFFFFFFFFFFFFFFFFFFFFFFFFFFFF AND SELFBALANCE PUSH1 0x40 MLOAD PUSH2 0x221 SWAP1 PUSH2 0x4B2 JUMP JUMPDEST PUSH1 0x0 PUSH1 0x40 MLOAD DUP1 DUP4 SUB DUP2 DUP6 DUP8 GAS CALL SWAP3 POP POP POP RETURNDATASIZE DUP1 PUSH1 0x0 DUP2 EQ PUSH2 0x25E JUMPI PUSH1 0x40 MLOAD SWAP2 POP PUSH1 0x1F NOT PUSH1 0x3F RETURNDATASIZE ADD AND DUP3 ADD PUSH1 0x40 MSTORE RETURNDATASIZE DUP3 MSTORE RETURNDATASIZE PUSH1 0x0 PUSH1 0x20 DUP5 ADD RETURNDATACOPY PUSH2 0x263 JUMP JUMPDEST PUSH1 0x60 SWAP2 POP JUMPDEST POP POP POP JUMP JUMPDEST PUSH1 0x3 PUSH1 0x0 SWAP1 SLOAD SWAP1 PUSH2 0x100 EXP SWAP1 DIV PUSH1 0xFF AND DUP2 JUMP JUMPDEST PUSH1 0x2 SLOAD DUP2 JUMP JUMPDEST PUSH1 0x0 DUP1 SLOAD PUSH2 0x28E SWAP1 PUSH2 0x645 JUMP JUMPDEST DUP1 PUSH1 0x1F ADD PUSH1 0x20 DUP1 SWAP2 DIV MUL PUSH1 0x20 ADD PUSH1 0x40 MLOAD SWAP1 DUP2 ADD PUSH1 0x40 MSTORE DUP1 SWAP3 SWAP2 SWAP1 DUP2 DUP2 MSTORE PUSH1 0x20 ADD DUP3 DUP1 SLOAD PUSH2 0x2BA SWAP1 PUSH2 0x645 JUMP JUMPDEST DUP1 ISZERO PUSH2 0x307 JUMPI DUP1 PUSH1 0x1F LT PUSH2 0x2DC JUMPI PUSH2 0x100 DUP1 DUP4 SLOAD DIV MUL DUP4 MSTORE SWAP2 PUSH1 0x20 ADD SWAP2 PUSH2 0x307 JUMP JUMPDEST DUP3 ADD SWAP2 SWAP1 PUSH1 0x0 MSTORE PUSH1 0x20 PUSH1 0x0 KECCAK256 SWAP1 JUMPDEST DUP2 SLOAD DUP2 MSTORE SWAP1 PUSH1 0x1 ADD SWAP1 PUSH1 0x20 ADD DUP1 DUP4 GT PUSH2 0x2EA JUMPI DUP3 SWAP1 SUB PUSH1 0x1F AND DUP3 ADD SWAP2 JUMPDEST POP POP POP POP POP DUP2 JUMP JUMPDEST PUSH1 0x1 SLOAD DUP2 JUMP JUMPDEST PUSH1 0x0 SELFBALANCE SWAP1 POP SWAP1 JUMP JUMPDEST PUSH1 0x1 SLOAD CALLVALUE LT ISZERO PUSH2 0x362 JUMPI PUSH1 0x40 MLOAD PUSH32 0x8C379A000000000000000000000000000000000000000000000000000000000 DUP2 MSTORE PUSH1 0x4 ADD PUSH2 0x359 SWAP1 PUSH2 0x504 JUMP JUMPDEST PUSH1 0x40 MLOAD DUP1 SWAP2 SUB SWAP1 REVERT JUMPDEST PUSH1 0x3 PUSH1 0x0 SWAP1 SLOAD SWAP1 PUSH2 0x100 EXP SWAP1 DIV PUSH1 0xFF AND PUSH2 0x3CD JUMPI PUSH1 0x0 SELFBALANCE SWAP1 POP PUSH1 0x2 SLOAD CALLVALUE DUP3 PUSH2 0x38A SWAP2 SWAP1 PUSH2 0x5A6 JUMP JUMPDEST GT ISZERO PUSH2 0x3CB JUMPI PUSH1 0x40 MLOAD PUSH32 0x8C379A000000000000000000000000000000000000000000000000000000000 DUP2 MSTORE PUSH1 0x4 ADD PUSH2 0x3C2 SWAP1 PUSH2 0x544 JUMP JUMPDEST PUSH1 0x40 MLOAD DUP1 SWAP2 SUB SWAP1 REVERT JUMPDEST POP JUMPDEST JUMP JUMPDEST PUSH2 0x3D8 DUP2 PUSH2 0x5FC JUMP JUMPDEST DUP3 MSTORE POP POP JUMP JUMPDEST PUSH1 0x0 PUSH2 0x3E9 DUP3 PUSH2 0x57F JUMP JUMPDEST PUSH2 0x3F3 DUP2 DUP6 PUSH2 0x595 JUMP JUMPDEST SWAP4 POP PUSH2 0x403 DUP2 DUP6 PUSH1 0x20 DUP7 ADD PUSH2 0x612 JUMP JUMPDEST PUSH2 0x40C DUP2 PUSH2 0x6D5 JUMP JUMPDEST DUP5 ADD SWAP2 POP POP SWAP3 SWAP2 POP POP JUMP JUMPDEST PUSH1 0x0 PUSH2 0x424 PUSH1 0x25 DUP4 PUSH2 0x595 JUMP JUMPDEST SWAP2 POP PUSH2 0x42F DUP3 PUSH2 0x6E6 JUMP JUMPDEST PUSH1 0x40 DUP3 ADD SWAP1 POP SWAP2 SWAP1 POP JUMP JUMPDEST PUSH1 0x0 PUSH2 0x447 PUSH1 0x30 DUP4 PUSH2 0x595 JUMP JUMPDEST SWAP2 POP PUSH2 0x452 DUP3 PUSH2 0x735 JUMP JUMPDEST PUSH1 0x40 DUP3 ADD SWAP1 POP SWAP2 SWAP1 POP JUMP JUMPDEST PUSH1 0x0 PUSH2 0x46A PUSH1 0x2A DUP4 PUSH2 0x595 JUMP JUMPDEST SWAP2 POP PUSH2 0x475 DUP3 PUSH2 0x784 JUMP JUMPDEST PUSH1 0x40 DUP3 ADD SWAP1 POP SWAP2 SWAP1 POP JUMP JUMPDEST PUSH1 0x0 PUSH2 0x48D PUSH1 0x0 DUP4 PUSH2 0x58A JUMP JUMPDEST SWAP2 POP PUSH2 0x498 DUP3 PUSH2 0x7D3 JUMP JUMPDEST PUSH1 0x0 DUP3 ADD SWAP1 POP SWAP2 SWAP1 POP JUMP JUMPDEST PUSH2 0x4AC DUP2 PUSH2 0x608 JUMP JUMPDEST DUP3 MSTORE POP POP JUMP JUMPDEST PUSH1 0x0 PUSH2 0x4BD DUP3 PUSH2 0x480 JUMP JUMPDEST SWAP2 POP DUP2 SWAP1 POP SWAP2 SWAP1 POP JUMP JUMPDEST PUSH1 0x0 PUSH1 0x20 DUP3 ADD SWAP1 POP PUSH2 0x4DC PUSH1 0x0 DUP4 ADD DUP5 PUSH2 0x3CF JUMP JUMPDEST SWAP3 SWAP2 POP POP JUMP JUMPDEST PUSH1 0x0 PUSH1 0x20 DUP3 ADD SWAP1 POP DUP2 DUP2 SUB PUSH1 0x0 DUP4 ADD MSTORE PUSH2 0x4FC DUP2 DUP5 PUSH2 0x3DE JUMP JUMPDEST SWAP1 POP SWAP3 SWAP2 POP POP JUMP JUMPDEST PUSH1 0x0 PUSH1 0x20 DUP3 ADD SWAP1 POP DUP2 DUP2 SUB PUSH1 0x0 DUP4 ADD MSTORE PUSH2 0x51D DUP2 PUSH2 0x417 JUMP JUMPDEST SWAP1 POP SWAP2 SWAP1 POP JUMP JUMPDEST PUSH1 0x0 PUSH1 0x20 DUP3 ADD SWAP1 POP DUP2 DUP2 SUB PUSH1 0x0 DUP4 ADD MSTORE PUSH2 0x53D DUP2 PUSH2 0x43A JUMP JUMPDEST SWAP1 POP SWAP2 SWAP1 POP JUMP JUMPDEST PUSH1 0x0 PUSH1 0x20 DUP3 ADD SWAP1 POP DUP2 DUP2 SUB PUSH1 0x0 DUP4 ADD MSTORE PUSH2 0x55D DUP2 PUSH2 0x45D JUMP JUMPDEST SWAP1 POP SWAP2 SWAP1 POP JUMP JUMPDEST PUSH1 0x0 PUSH1 0x20 DUP3 ADD SWAP1 POP PUSH2 0x579 PUSH1 0x0 DUP4 ADD DUP5 PUSH2 0x4A3 JUMP JUMPDEST SWAP3 SWAP2 POP POP JUMP JUMPDEST PUSH1 0x0 DUP2 MLOAD SWAP1 POP SWAP2 SWAP1 POP JUMP JUMPDEST PUSH1 0x0 DUP2 SWAP1 POP SWAP3 SWAP2 POP POP JUMP JUMPDEST PUSH1 0x0 DUP3 DUP3 MSTORE PUSH1 0x20 DUP3 ADD SWAP1 POP SWAP3 SWAP2 POP POP JUMP JUMPDEST PUSH1 0x0 PUSH2 0x5B1 DUP3 PUSH2 0x608 JUMP JUMPDEST SWAP2 POP PUSH2 0x5BC DUP4 PUSH2 0x608 JUMP JUMPDEST SWAP3 POP DUP3 PUSH32 0xFFFFFFFFFFFFFFFFFFFFFFFFFFFFFFFFFFFFFFFFFFFFFFFFFFFFFFFFFFFFFFFF SUB DUP3 GT ISZERO PUSH2 0x5F1 JUMPI PUSH2 0x5F0 PUSH2 0x677 JUMP JUMPDEST JUMPDEST DUP3 DUP3 ADD SWAP1 POP SWAP3 SWAP2 POP POP JUMP JUMPDEST PUSH1 0x0 DUP2 ISZERO ISZERO SWAP1 POP SWAP2 SWAP1 POP JUMP JUMPDEST PUSH1 0x0 DUP2 SWAP1 POP SWAP2 SWAP1 POP JUMP JUMPDEST PUSH1 0x0 JUMPDEST DUP4 DUP2 LT ISZERO PUSH2 0x630 JUMPI DUP1 DUP3 ADD MLOAD DUP2 DUP5 ADD MSTORE PUSH1 0x20 DUP2 ADD SWAP1 POP PUSH2 0x615 JUMP JUMPDEST DUP4 DUP2 GT ISZERO PUSH2 0x63F JUMPI PUSH1 0x0 DUP5 DUP5 ADD MSTORE JUMPDEST POP POP POP POP JUMP JUMPDEST PUSH1 0x0 PUSH1 0x2 DUP3 DIV SWAP1 POP PUSH1 0x1 DUP3 AND DUP1 PUSH2 0x65D JUMPI PUSH1 0x7F DUP3 AND SWAP2 POP JUMPDEST PUSH1 0x20 DUP3 LT DUP2 EQ ISZERO PUSH2 0x671 JUMPI PUSH2 0x670 PUSH2 0x6A6 JUMP JUMPDEST JUMPDEST POP SWAP2 SWAP1 POP JUMP JUMPDEST PUSH32 0x4E487B7100000000000000000000000000000000000000000000000000000000 PUSH1 0x0 MSTORE PUSH1 0x11 PUSH1 0x4 MSTORE PUSH1 0x24 PUSH1 0x0 REVERT JUMPDEST PUSH32 0x4E487B7100000000000000000000000000000000000000000000000000000000 PUSH1 0x0 MSTORE PUSH1 0x22 PUSH1 0x4 MSTORE PUSH1 0x24 PUSH1 0x0 REVERT JUMPDEST PUSH1 0x0 PUSH1 0x1F NOT PUSH1 0x1F DUP4 ADD AND SWAP1 POP SWAP2 SWAP1 POP JUMP JUMPDEST PUSH32 0x596F752063616E6E6F7420646F6E6174652062656C6F7720247B5F6D696E416D PUSH1 0x0 DUP3 ADD MSTORE PUSH32 0x6F756E747D000000000000000000000000000000000000000000000000000000 PUSH1 0x20 DUP3 ADD MSTORE POP JUMP JUMPDEST PUSH32 0x4F6E6C79206F776E6572206F66207468697320646F6E6174696F6E2063616E20 PUSH1 0x0 DUP3 ADD MSTORE PUSH32 0x77697468647261772066726F6D20697400000000000000000000000000000000 PUSH1 0x20 DUP3 ADD MSTORE POP JUMP JUMPDEST PUSH32 0x596F757220646F6E6174696F6E2077696C6C2063726F73732074686520616D6F PUSH1 0x0 DUP3 ADD MSTORE PUSH32 0x756E74206E656564656400000000000000000000000000000000000000000000 PUSH1 0x20 DUP3 ADD MSTORE POP JUMP JUMPDEST POP JUMP INVALID LOG2 PUSH5 0x6970667358 0x22 SLT KECCAK256 0xC9 TIMESTAMP 0x5C 0xBE 0x29 0xBD CALL 0xAA 0xD8 ISZERO PUSH21 0x54E108B554AD12139153866F078A88E4FAF61BE24E PUSH5 0x736F6C6343 STOP ADDMOD SMOD STOP CALLER "
				},
				"gasEstimates": {
					"creation": {
						"codeDepositCost": "412000",
						"executionCost": "infinite",
						"totalCost": "infinite"
					},
					"external": {
						"acceptPaymentAfterAmountMet()": "2494",
						"donate()": "infinite",
						"donationAmountNeeded()": "2474",
						"donationBalance()": "383",
						"donationMinAmount()": "2451",
						"donationName()": "infinite",
						"withdraw()": "infinite"
					}
				},
				"methodIdentifiers": {
					"acceptPaymentAfterAmountMet()": "798be230",
					"donate()": "ed88c68e",
					"donationAmountNeeded()": "80fdef1b",
					"donationBalance()": "ed11f46a",
					"donationMinAmount()": "b383bf2d",
					"donationName()": "b1701232",
					"withdraw()": "3ccfd60b"
				}
			},
			"storageLayout": {
				"storage": [
					{
						"astId": 52,
						"contract": "Donation.sol:Donation",
						"label": "donationName",
						"offset": 0,
						"slot": "0",
						"type": "t_string_storage"
					},
					{
						"astId": 54,
						"contract": "Donation.sol:Donation",
						"label": "donationMinAmount",
						"offset": 0,
						"slot": "1",
						"type": "t_uint256"
					},
					{
						"astId": 56,
						"contract": "Donation.sol:Donation",
						"label": "donationAmountNeeded",
						"offset": 0,
						"slot": "2",
						"type": "t_uint256"
					},
					{
						"astId": 58,
						"contract": "Donation.sol:Donation",
						"label": "acceptPaymentAfterAmountMet",
						"offset": 0,
						"slot": "3",
						"type": "t_bool"
					},
					{
						"astId": 60,
						"contract": "Donation.sol:Donation",
						"label": "_owner",
						"offset": 1,
						"slot": "3",
						"type": "t_address"
					}
				],
				"types": {
					"t_address": {
						"encoding": "inplace",
						"label": "address",
						"numberOfBytes": "20"
					},
					"t_bool": {
						"encoding": "inplace",
						"label": "bool",
						"numberOfBytes": "1"
					},
					"t_string_storage": {
						"encoding": "bytes",
						"label": "string",
						"numberOfBytes": "32"
					},
					"t_uint256": {
						"encoding": "inplace",
						"label": "uint256",
						"numberOfBytes": "32"
					}
				}
			},
			"userdoc": {
				"kind": "user",
				"methods": {},
				"version": 1
			}
		}
	}
}