{
	"Time.sol": {
		"Time": {
			"abi": [
				{
					"inputs": [],
					"name": "nowTime",
					"outputs": [
						{
							"internalType": "uint256",
							"name": "",
							"type": "uint256"
						}
					],
					"stateMutability": "view",
					"type": "function"
				},
				{
					"inputs": [],
					"name": "oneMinute",
					"outputs": [
						{
							"internalType": "uint256",
							"name": "",
							"type": "uint256"
						}
					],
					"stateMutability": "view",
					"type": "function"
				},
				{
					"inputs": [],
					"name": "oneSecond",
					"outputs": [
						{
							"internalType": "uint256",
							"name": "",
							"type": "uint256"
						}
					],
					"stateMutability": "view",
					"type": "function"
				},
				{
					"inputs": [],
					"name": "threeHours",
					"outputs": [
						{
							"internalType": "uint256",
							"name": "",
							"type": "uint256"
						}
					],
					"stateMutability": "view",
					"type": "function"
				}
			],
			"devdoc": {
				"kind": "dev",
				"methods": {},
				"version": 1
			},
			"evm": {
				"assembly": "    /* \"Time.sol\":71:297  contract Time {... */\n  mstore(0x40, 0x80)\n    /* \"Time.sol\":117:124  3 hours */\n  0x2a30\n    /* \"Time.sol\":92:124  uint public threeHours = 3 hours */\n  0x00\n  sstore\n    /* \"Time.sol\":154:163  1 minutes */\n  0x3c\n    /* \"Time.sol\":130:163  uint public oneMinute = 1 minutes */\n  0x01\n  sstore\n    /* \"Time.sol\":193:203  60 seconds */\n  0x3c\n    /* \"Time.sol\":169:203  uint public oneSecond = 60 seconds */\n  0x02\n  sstore\n    /* \"Time.sol\":71:297  contract Time {... */\n  callvalue\n  dup1\n  iszero\n  tag_1\n  jumpi\n  0x00\n  dup1\n  revert\ntag_1:\n  pop\n  dataSize(sub_0)\n  dup1\n  dataOffset(sub_0)\n  0x00\n  codecopy\n  0x00\n  return\nstop\n\nsub_0: assembly {\n        /* \"Time.sol\":71:297  contract Time {... */\n      mstore(0x40, 0x80)\n      callvalue\n      dup1\n      iszero\n      tag_1\n      jumpi\n      0x00\n      dup1\n      revert\n    tag_1:\n      pop\n      jumpi(tag_2, lt(calldatasize, 0x04))\n      shr(0xe0, calldataload(0x00))\n      dup1\n      0x21ed4b27\n      eq\n      tag_3\n      jumpi\n      dup1\n      0x335f1b37\n      eq\n      tag_4\n      jumpi\n      dup1\n      0x469df505\n      eq\n      tag_5\n      jumpi\n      dup1\n      0xcc44b07d\n      eq\n      tag_6\n      jumpi\n    tag_2:\n      0x00\n      dup1\n      revert\n        /* \"Time.sol\":169:203  uint public oneSecond = 60 seconds */\n    tag_3:\n      tag_7\n      tag_8\n      jump\t// in\n    tag_7:\n      mload(0x40)\n      tag_9\n      swap2\n      swap1\n      tag_10\n      jump\t// in\n    tag_9:\n      mload(0x40)\n      dup1\n      swap2\n      sub\n      swap1\n      return\n        /* \"Time.sol\":211:295  function nowTime() view public returns(uint) {... */\n    tag_4:\n      tag_11\n      tag_12\n      jump\t// in\n    tag_11:\n      mload(0x40)\n      tag_13\n      swap2\n      swap1\n      tag_10\n      jump\t// in\n    tag_13:\n      mload(0x40)\n      dup1\n      swap2\n      sub\n      swap1\n      return\n        /* \"Time.sol\":130:163  uint public oneMinute = 1 minutes */\n    tag_5:\n      tag_14\n      tag_15\n      jump\t// in\n    tag_14:\n      mload(0x40)\n      tag_16\n      swap2\n      swap1\n      tag_10\n      jump\t// in\n    tag_16:\n      mload(0x40)\n      dup1\n      swap2\n      sub\n      swap1\n      return\n        /* \"Time.sol\":92:124  uint public threeHours = 3 hours */\n    tag_6:\n      tag_17\n      tag_18\n      jump\t// in\n    tag_17:\n      mload(0x40)\n      tag_19\n      swap2\n      swap1\n      tag_10\n      jump\t// in\n    tag_19:\n      mload(0x40)\n      dup1\n      swap2\n      sub\n      swap1\n      return\n        /* \"Time.sol\":169:203  uint public oneSecond = 60 seconds */\n    tag_8:\n      sload(0x02)\n      dup2\n      jump\t// out\n        /* \"Time.sol\":211:295  function nowTime() view public returns(uint) {... */\n    tag_12:\n        /* \"Time.sol\":250:254  uint */\n      0x00\n        /* \"Time.sol\":273:288  block.timestamp */\n      timestamp\n        /* \"Time.sol\":266:288  return block.timestamp */\n      swap1\n      pop\n        /* \"Time.sol\":211:295  function nowTime() view public returns(uint) {... */\n      swap1\n      jump\t// out\n        /* \"Time.sol\":130:163  uint public oneMinute = 1 minutes */\n    tag_15:\n      sload(0x01)\n      dup2\n      jump\t// out\n        /* \"Time.sol\":92:124  uint public threeHours = 3 hours */\n    tag_18:\n      sload(0x00)\n      dup2\n      jump\t// out\n        /* \"#utility.yul\":7:125   */\n    tag_22:\n        /* \"#utility.yul\":94:118   */\n      tag_24\n        /* \"#utility.yul\":112:117   */\n      dup2\n        /* \"#utility.yul\":94:118   */\n      tag_25\n      jump\t// in\n    tag_24:\n        /* \"#utility.yul\":89:92   */\n      dup3\n        /* \"#utility.yul\":82:119   */\n      mstore\n        /* \"#utility.yul\":7:125   */\n      pop\n      pop\n      jump\t// out\n        /* \"#utility.yul\":131:353   */\n    tag_10:\n        /* \"#utility.yul\":224:228   */\n      0x00\n        /* \"#utility.yul\":262:264   */\n      0x20\n        /* \"#utility.yul\":251:260   */\n      dup3\n        /* \"#utility.yul\":247:265   */\n      add\n        /* \"#utility.yul\":239:265   */\n      swap1\n      pop\n        /* \"#utility.yul\":275:346   */\n      tag_27\n        /* \"#utility.yul\":343:344   */\n      0x00\n        /* \"#utility.yul\":332:341   */\n      dup4\n        /* \"#utility.yul\":328:345   */\n      add\n        /* \"#utility.yul\":319:325   */\n      dup5\n        /* \"#utility.yul\":275:346   */\n      tag_22\n      jump\t// in\n    tag_27:\n        /* \"#utility.yul\":131:353   */\n      swap3\n      swap2\n      pop\n      pop\n      jump\t// out\n        /* \"#utility.yul\":359:436   */\n    tag_25:\n        /* \"#utility.yul\":396:403   */\n      0x00\n        /* \"#utility.yul\":425:430   */\n      dup2\n        /* \"#utility.yul\":414:430   */\n      swap1\n      pop\n        /* \"#utility.yul\":359:436   */\n      swap2\n      swap1\n      pop\n      jump\t// out\n\n    auxdata: 0xa264697066735822122016ff01e257690af5c7b056c70c91c926d7d8b0bad5d302d1da2cd39e600658e664736f6c63430008070033\n}\n",
				"bytecode": {
					"linkReferences": {},
					"object": "6080604052612a30600055603c600155603c60025534801561002057600080fd5b50610133806100306000396000f3fe6080604052348015600f57600080fd5b506004361060465760003560e01c806321ed4b2714604b578063335f1b37146065578063469df50514607f578063cc44b07d146099575b600080fd5b605160b3565b604051605c919060da565b60405180910390f35b606b60b9565b6040516076919060da565b60405180910390f35b608560c1565b6040516090919060da565b60405180910390f35b609f60c7565b60405160aa919060da565b60405180910390f35b60025481565b600042905090565b60015481565b60005481565b60d48160f3565b82525050565b600060208201905060ed600083018460cd565b92915050565b600081905091905056fea264697066735822122016ff01e257690af5c7b056c70c91c926d7d8b0bad5d302d1da2cd39e600658e664736f6c63430008070033",
					"opcodes": "PUSH1 0x80 PUSH1 0x40 MSTORE PUSH2 0x2A30 PUSH1 0x0 SSTORE PUSH1 0x3C PUSH1 0x1 SSTORE PUSH1 0x3C PUSH1 0x2 SSTORE CALLVALUE DUP1 ISZERO PUSH2 0x20 JUMPI PUSH1 0x0 DUP1 REVERT JUMPDEST POP PUSH2 0x133 DUP1 PUSH2 0x30 PUSH1 0x0 CODECOPY PUSH1 0x0 RETURN INVALID PUSH1 0x80 PUSH1 0x40 MSTORE CALLVALUE DUP1 ISZERO PUSH1 0xF JUMPI PUSH1 0x0 DUP1 REVERT JUMPDEST POP PUSH1 0x4 CALLDATASIZE LT PUSH1 0x46 JUMPI PUSH1 0x0 CALLDATALOAD PUSH1 0xE0 SHR DUP1 PUSH4 0x21ED4B27 EQ PUSH1 0x4B JUMPI DUP1 PUSH4 0x335F1B37 EQ PUSH1 0x65 JUMPI DUP1 PUSH4 0x469DF505 EQ PUSH1 0x7F JUMPI DUP1 PUSH4 0xCC44B07D EQ PUSH1 0x99 JUMPI JUMPDEST PUSH1 0x0 DUP1 REVERT JUMPDEST PUSH1 0x51 PUSH1 0xB3 JUMP JUMPDEST PUSH1 0x40 MLOAD PUSH1 0x5C SWAP2 SWAP1 PUSH1 0xDA JUMP JUMPDEST PUSH1 0x40 MLOAD DUP1 SWAP2 SUB SWAP1 RETURN JUMPDEST PUSH1 0x6B PUSH1 0xB9 JUMP JUMPDEST PUSH1 0x40 MLOAD PUSH1 0x76 SWAP2 SWAP1 PUSH1 0xDA JUMP JUMPDEST PUSH1 0x40 MLOAD DUP1 SWAP2 SUB SWAP1 RETURN JUMPDEST PUSH1 0x85 PUSH1 0xC1 JUMP JUMPDEST PUSH1 0x40 MLOAD PUSH1 0x90 SWAP2 SWAP1 PUSH1 0xDA JUMP JUMPDEST PUSH1 0x40 MLOAD DUP1 SWAP2 SUB SWAP1 RETURN JUMPDEST PUSH1 0x9F PUSH1 0xC7 JUMP JUMPDEST PUSH1 0x40 MLOAD PUSH1 0xAA SWAP2 SWAP1 PUSH1 0xDA JUMP JUMPDEST PUSH1 0x40 MLOAD DUP1 SWAP2 SUB SWAP1 RETURN JUMPDEST PUSH1 0x2 SLOAD DUP2 JUMP JUMPDEST PUSH1 0x0 TIMESTAMP SWAP1 POP SWAP1 JUMP JUMPDEST PUSH1 0x1 SLOAD DUP2 JUMP JUMPDEST PUSH1 0x0 SLOAD DUP2 JUMP JUMPDEST PUSH1 0xD4 DUP2 PUSH1 0xF3 JUMP JUMPDEST DUP3 MSTORE POP POP JUMP JUMPDEST PUSH1 0x0 PUSH1 0x20 DUP3 ADD SWAP1 POP PUSH1 0xED PUSH1 0x0 DUP4 ADD DUP5 PUSH1 0xCD JUMP JUMPDEST SWAP3 SWAP2 POP POP JUMP JUMPDEST PUSH1 0x0 DUP2 SWAP1 POP SWAP2 SWAP1 POP JUMP INVALID LOG2 PUSH5 0x6970667358 0x22 SLT KECCAK256 AND SELFDESTRUCT ADD 0xE2 JUMPI PUSH10 0xAF5C7B056C70C91C926 0xD7 0xD8 0xB0 0xBA 0xD5 0xD3 MUL 0xD1 0xDA 0x2C 0xD3 SWAP15 PUSH1 0x6 PC 0xE6 PUSH5 0x736F6C6343 STOP ADDMOD SMOD STOP CALLER "
				},
				"gasEstimates": {
					"creation": {
						"codeDepositCost": "61400",
						"executionCost": "66429",
						"totalCost": "127829"
					},
					"external": {
						"nowTime()": "336",
						"oneMinute()": "2451",
						"oneSecond()": "2407",
						"threeHours()": "2473"
					}
				},
				"methodIdentifiers": {
					"nowTime()": "335f1b37",
					"oneMinute()": "469df505",
					"oneSecond()": "21ed4b27",
					"threeHours()": "cc44b07d"
				}
			},
			"storageLayout": {
				"storage": [
					{
						"astId": 4,
						"contract": "Time.sol:Time",
						"label": "threeHours",
						"offset": 0,
						"slot": "0",
						"type": "t_uint256"
					},
					{
						"astId": 7,
						"contract": "Time.sol:Time",
						"label": "oneMinute",
						"offset": 0,
						"slot": "1",
						"type": "t_uint256"
					},
					{
						"astId": 10,
						"contract": "Time.sol:Time",
						"label": "oneSecond",
						"offset": 0,
						"slot": "2",
						"type": "t_uint256"
					}
				],
				"types": {
					"t_uint256": {
						"encoding": "inplace",
						"label": "uint256",
						"numberOfBytes": "32"
					}
				}
			},
			"userdoc": {
				"kind": "user",
				"methods": {},
				"version": 1
			}
		}
	}
}