{
	"Campaign.sol": {
		"Campaign": {
			"abi": [
				{
					"inputs": [
						{
							"internalType": "string",
							"name": "name",
							"type": "string"
						},
						{
							"internalType": "uint256",
							"name": "amountNeeded",
							"type": "uint256"
						},
						{
							"internalType": "bool",
							"name": "accept",
							"type": "bool"
						},
						{
							"internalType": "uint256",
							"name": "minAMount",
							"type": "uint256"
						}
					],
					"name": "createToken",
					"outputs": [
						{
							"internalType": "address",
							"name": "",
							"type": "address"
						}
					],
					"stateMutability": "nonpayable",
					"type": "function"
				},
				{
					"inputs": [
						{
							"internalType": "address",
							"name": "campaignAddress",
							"type": "address"
						}
					],
					"name": "donateToCampaign",
					"outputs": [
						{
							"internalType": "contract Donation[]",
							"name": "",
							"type": "address[]"
						}
					],
					"stateMutability": "view",
					"type": "function"
				},
				{
					"inputs": [],
					"name": "getCampaigns",
					"outputs": [
						{
							"internalType": "contract Donation[]",
							"name": "",
							"type": "address[]"
						}
					],
					"stateMutability": "view",
					"type": "function"
				},
				{
					"inputs": [
						{
							"internalType": "address",
							"name": "campaignAddress",
							"type": "address"
						}
					],
					"name": "getCampainName",
					"outputs": [
						{
							"internalType": "string",
							"name": "",
							"type": "string"
						}
					],
					"stateMutability": "view",
					"type": "function"
				}
			],
			"devdoc": {
				"kind": "dev",
				"methods": {},
				"version": 1
			},
			"evm": {
				"assembly": "    /* \"Campaign.sol\":96:867  contract Campaign {... */\n  mstore(0x40, 0x80)\n  callvalue\n  dup1\n  iszero\n  tag_1\n  jumpi\n  0x00\n  dup1\n  revert\ntag_1:\n  pop\n  dataSize(sub_0)\n  dup1\n  dataOffset(sub_0)\n  0x00\n  codecopy\n  0x00\n  return\nstop\n\nsub_0: assembly {\n        /* \"Campaign.sol\":96:867  contract Campaign {... */\n      mstore(0x40, 0x80)\n      callvalue\n      dup1\n      iszero\n      tag_1\n      jumpi\n      0x00\n      dup1\n      revert\n    tag_1:\n      pop\n      jumpi(tag_2, lt(calldatasize, 0x04))\n      shr(0xe0, calldataload(0x00))\n      dup1\n      0x615d1f03\n      eq\n      tag_3\n      jumpi\n      dup1\n      0x7c6abc82\n      eq\n      tag_4\n      jumpi\n      dup1\n      0xa6b03633\n      eq\n      tag_5\n      jumpi\n      dup1\n      0xf4139c58\n      eq\n      tag_6\n      jumpi\n    tag_2:\n      0x00\n      dup1\n      revert\n        /* \"Campaign.sol\":148:439  function createToken(string memory name, uint amountNeeded, bool accept, uint minAMount) public returns(address) {... */\n    tag_3:\n      tag_7\n      0x04\n      dup1\n      calldatasize\n      sub\n      dup2\n      add\n      swap1\n      tag_8\n      swap2\n      swap1\n      tag_9\n      jump\t// in\n    tag_8:\n      tag_10\n      jump\t// in\n    tag_7:\n      mload(0x40)\n      tag_11\n      swap2\n      swap1\n      tag_12\n      jump\t// in\n    tag_11:\n      mload(0x40)\n      dup1\n      swap2\n      sub\n      swap1\n      return\n        /* \"Campaign.sol\":742:865  function donateToCampaign(address campaignAddress) view public returns(Donation[] memory) {... */\n    tag_4:\n      tag_13\n      0x04\n      dup1\n      calldatasize\n      sub\n      dup2\n      add\n      swap1\n      tag_14\n      swap2\n      swap1\n      tag_15\n      jump\t// in\n    tag_14:\n      tag_16\n      jump\t// in\n    tag_13:\n      mload(0x40)\n      tag_17\n      swap2\n      swap1\n      tag_18\n      jump\t// in\n    tag_17:\n      mload(0x40)\n      dup1\n      swap2\n      sub\n      swap1\n      return\n        /* \"Campaign.sol\":640:736  function getCampaigns() view public returns(Donation[] memory) {... */\n    tag_5:\n      tag_19\n      tag_20\n      jump\t// in\n    tag_19:\n      mload(0x40)\n      tag_21\n      swap2\n      swap1\n      tag_18\n      jump\t// in\n    tag_21:\n      mload(0x40)\n      dup1\n      swap2\n      sub\n      swap1\n      return\n        /* \"Campaign.sol\":445:634  function getCampainName(address campaignAddress) public view returns(string memory) {... */\n    tag_6:\n      tag_22\n      0x04\n      dup1\n      calldatasize\n      sub\n      dup2\n      add\n      swap1\n      tag_23\n      swap2\n      swap1\n      tag_15\n      jump\t// in\n    tag_23:\n      tag_24\n      jump\t// in\n    tag_22:\n      mload(0x40)\n      tag_25\n      swap2\n      swap1\n      tag_26\n      jump\t// in\n    tag_25:\n      mload(0x40)\n      dup1\n      swap2\n      sub\n      swap1\n      return\n        /* \"Campaign.sol\":148:439  function createToken(string memory name, uint amountNeeded, bool accept, uint minAMount) public returns(address) {... */\n    tag_10:\n        /* \"Campaign.sol\":252:259  address */\n      0x00\n        /* \"Campaign.sol\":271:288  Donation donation */\n      dup1\n        /* \"Campaign.sol\":317:321  name */\n      dup6\n        /* \"Campaign.sol\":323:332  minAMount */\n      dup4\n        /* \"Campaign.sol\":334:340  accept */\n      dup6\n        /* \"Campaign.sol\":342:354  amountNeeded */\n      dup8\n        /* \"Campaign.sol\":291:364  new Donation(... */\n      mload(0x40)\n      tag_28\n      swap1\n      tag_29\n      jump\t// in\n    tag_28:\n      tag_30\n      swap5\n      swap4\n      swap3\n      swap2\n      swap1\n      tag_31\n      jump\t// in\n    tag_30:\n      mload(0x40)\n      dup1\n      swap2\n      sub\n      swap1\n      0x00\n      create\n      dup1\n      iszero\n      dup1\n      iszero\n      tag_32\n      jumpi\n      returndatasize\n      0x00\n      dup1\n      returndatacopy\n      revert(0x00, returndatasize)\n    tag_32:\n      pop\n        /* \"Campaign.sol\":271:364  Donation donation = new Donation(... */\n      swap1\n      pop\n        /* \"Campaign.sol\":374:383  donations */\n      0x00\n        /* \"Campaign.sol\":389:397  donation */\n      dup2\n        /* \"Campaign.sol\":374:398  donations.push(donation) */\n      swap1\n      dup1\n      0x01\n      dup2\n      sload\n      add\n      dup1\n      dup3\n      sstore\n      dup1\n      swap2\n      pop\n      pop\n      0x01\n      swap1\n      sub\n      swap1\n      0x00\n      mstore\n      keccak256(0x00, 0x20)\n      add\n      0x00\n      swap1\n      swap2\n      swap1\n      swap2\n      swap1\n      swap2\n      0x0100\n      exp\n      dup2\n      sload\n      dup2\n      0xffffffffffffffffffffffffffffffffffffffff\n      mul\n      not\n      and\n      swap1\n      dup4\n      0xffffffffffffffffffffffffffffffffffffffff\n      and\n      mul\n      or\n      swap1\n      sstore\n      pop\n        /* \"Campaign.sol\":423:431  donation */\n      dup1\n        /* \"Campaign.sol\":408:432  return address(donation) */\n      swap2\n      pop\n      pop\n        /* \"Campaign.sol\":148:439  function createToken(string memory name, uint amountNeeded, bool accept, uint minAMount) public returns(address) {... */\n      swap5\n      swap4\n      pop\n      pop\n      pop\n      pop\n      jump\t// out\n        /* \"Campaign.sol\":742:865  function donateToCampaign(address campaignAddress) view public returns(Donation[] memory) {... */\n    tag_16:\n        /* \"Campaign.sol\":813:830  Donation[] memory */\n      0x60\n        /* \"Campaign.sol\":849:858  donations */\n      0x00\n        /* \"Campaign.sol\":842:858  return donations */\n      dup1\n      sload\n      dup1\n      0x20\n      mul\n      0x20\n      add\n      mload(0x40)\n      swap1\n      dup2\n      add\n      0x40\n      mstore\n      dup1\n      swap3\n      swap2\n      swap1\n      dup2\n      dup2\n      mstore\n      0x20\n      add\n      dup3\n      dup1\n      sload\n      dup1\n      iszero\n      tag_35\n      jumpi\n      0x20\n      mul\n      dup3\n      add\n      swap2\n      swap1\n      0x00\n      mstore\n      keccak256(0x00, 0x20)\n      swap1\n    tag_36:\n      dup2\n      0x00\n      swap1\n      sload\n      swap1\n      0x0100\n      exp\n      swap1\n      div\n      0xffffffffffffffffffffffffffffffffffffffff\n      and\n      0xffffffffffffffffffffffffffffffffffffffff\n      and\n      dup2\n      mstore\n      0x20\n      add\n      swap1\n      0x01\n      add\n      swap1\n      dup1\n      dup4\n      gt\n      tag_36\n      jumpi\n    tag_35:\n      pop\n      pop\n      pop\n      pop\n      pop\n      swap1\n      pop\n        /* \"Campaign.sol\":742:865  function donateToCampaign(address campaignAddress) view public returns(Donation[] memory) {... */\n      swap2\n      swap1\n      pop\n      jump\t// out\n        /* \"Campaign.sol\":640:736  function getCampaigns() view public returns(Donation[] memory) {... */\n    tag_20:\n        /* \"Campaign.sol\":684:701  Donation[] memory */\n      0x60\n        /* \"Campaign.sol\":720:729  donations */\n      0x00\n        /* \"Campaign.sol\":713:729  return donations */\n      dup1\n      sload\n      dup1\n      0x20\n      mul\n      0x20\n      add\n      mload(0x40)\n      swap1\n      dup2\n      add\n      0x40\n      mstore\n      dup1\n      swap3\n      swap2\n      swap1\n      dup2\n      dup2\n      mstore\n      0x20\n      add\n      dup3\n      dup1\n      sload\n      dup1\n      iszero\n      tag_38\n      jumpi\n      0x20\n      mul\n      dup3\n      add\n      swap2\n      swap1\n      0x00\n      mstore\n      keccak256(0x00, 0x20)\n      swap1\n    tag_39:\n      dup2\n      0x00\n      swap1\n      sload\n      swap1\n      0x0100\n      exp\n      swap1\n      div\n      0xffffffffffffffffffffffffffffffffffffffff\n      and\n      0xffffffffffffffffffffffffffffffffffffffff\n      and\n      dup2\n      mstore\n      0x20\n      add\n      swap1\n      0x01\n      add\n      swap1\n      dup1\n      dup4\n      gt\n      tag_39\n      jumpi\n    tag_38:\n      pop\n      pop\n      pop\n      pop\n      pop\n      swap1\n      pop\n        /* \"Campaign.sol\":640:736  function getCampaigns() view public returns(Donation[] memory) {... */\n      swap1\n      jump\t// out\n        /* \"Campaign.sol\":445:634  function getCampainName(address campaignAddress) public view returns(string memory) {... */\n    tag_24:\n        /* \"Campaign.sol\":514:527  string memory */\n      0x60\n        /* \"Campaign.sol\":539:556  Donation donation */\n      0x00\n        /* \"Campaign.sol\":568:583  campaignAddress */\n      dup3\n        /* \"Campaign.sol\":539:584  Donation donation = Donation(campaignAddress) */\n      swap1\n      pop\n        /* \"Campaign.sol\":601:609  donation */\n      dup1\n        /* \"Campaign.sol\":601:625  donation.getDonationName */\n      0xffffffffffffffffffffffffffffffffffffffff\n      and\n      0xeae3f764\n        /* \"Campaign.sol\":601:627  donation.getDonationName() */\n      mload(0x40)\n      dup2\n      0xffffffff\n      and\n      0xe0\n      shl\n      dup2\n      mstore\n      0x04\n      add\n      0x00\n      mload(0x40)\n      dup1\n      dup4\n      sub\n      dup2\n      dup7\n      dup1\n      extcodesize\n      iszero\n      dup1\n      iszero\n      tag_41\n      jumpi\n      0x00\n      dup1\n      revert\n    tag_41:\n      pop\n      gas\n      staticcall\n      iszero\n      dup1\n      iszero\n      tag_43\n      jumpi\n      returndatasize\n      0x00\n      dup1\n      returndatacopy\n      revert(0x00, returndatasize)\n    tag_43:\n      pop\n      pop\n      pop\n      pop\n      mload(0x40)\n      returndatasize\n      0x00\n      dup3\n      returndatacopy\n      returndatasize\n      not(0x1f)\n      0x1f\n      dup3\n      add\n      and\n      dup3\n      add\n      dup1\n      0x40\n      mstore\n      pop\n      dup2\n      add\n      swap1\n      tag_44\n      swap2\n      swap1\n      tag_45\n      jump\t// in\n    tag_44:\n        /* \"Campaign.sol\":594:627  return donation.getDonationName() */\n      swap2\n      pop\n      pop\n        /* \"Campaign.sol\":445:634  function getCampainName(address campaignAddress) public view returns(string memory) {... */\n      swap2\n      swap1\n      pop\n      jump\t// out\n    tag_29:\n      dataSize(sub_0)\n      dup1\n      dataOffset(sub_0)\n      dup4\n      codecopy\n      add\n      swap1\n      jump\t// out\n        /* \"#utility.yul\":7:419   */\n    tag_47:\n        /* \"#utility.yul\":85:90   */\n      0x00\n        /* \"#utility.yul\":110:176   */\n      tag_49\n        /* \"#utility.yul\":126:175   */\n      tag_50\n        /* \"#utility.yul\":168:174   */\n      dup5\n        /* \"#utility.yul\":126:175   */\n      tag_51\n      jump\t// in\n    tag_50:\n        /* \"#utility.yul\":110:176   */\n      tag_52\n      jump\t// in\n    tag_49:\n        /* \"#utility.yul\":101:176   */\n      swap1\n      pop\n        /* \"#utility.yul\":199:205   */\n      dup3\n        /* \"#utility.yul\":192:197   */\n      dup2\n        /* \"#utility.yul\":185:206   */\n      mstore\n        /* \"#utility.yul\":237:241   */\n      0x20\n        /* \"#utility.yul\":230:235   */\n      dup2\n        /* \"#utility.yul\":226:242   */\n      add\n        /* \"#utility.yul\":275:278   */\n      dup5\n        /* \"#utility.yul\":266:272   */\n      dup5\n        /* \"#utility.yul\":261:264   */\n      dup5\n        /* \"#utility.yul\":257:273   */\n      add\n        /* \"#utility.yul\":254:279   */\n      gt\n        /* \"#utility.yul\":251:363   */\n      iszero\n      tag_53\n      jumpi\n        /* \"#utility.yul\":282:361   */\n      tag_54\n      tag_55\n      jump\t// in\n    tag_54:\n        /* \"#utility.yul\":251:363   */\n    tag_53:\n        /* \"#utility.yul\":372:413   */\n      tag_56\n        /* \"#utility.yul\":406:412   */\n      dup5\n        /* \"#utility.yul\":401:404   */\n      dup3\n        /* \"#utility.yul\":396:399   */\n      dup6\n        /* \"#utility.yul\":372:413   */\n      tag_57\n      jump\t// in\n    tag_56:\n        /* \"#utility.yul\":91:419   */\n      pop\n        /* \"#utility.yul\":7:419   */\n      swap4\n      swap3\n      pop\n      pop\n      pop\n      jump\t// out\n        /* \"#utility.yul\":425:846   */\n    tag_58:\n        /* \"#utility.yul\":514:519   */\n      0x00\n        /* \"#utility.yul\":539:605   */\n      tag_60\n        /* \"#utility.yul\":555:604   */\n      tag_61\n        /* \"#utility.yul\":597:603   */\n      dup5\n        /* \"#utility.yul\":555:604   */\n      tag_51\n      jump\t// in\n    tag_61:\n        /* \"#utility.yul\":539:605   */\n      tag_52\n      jump\t// in\n    tag_60:\n        /* \"#utility.yul\":530:605   */\n      swap1\n      pop\n        /* \"#utility.yul\":628:634   */\n      dup3\n        /* \"#utility.yul\":621:626   */\n      dup2\n        /* \"#utility.yul\":614:635   */\n      mstore\n        /* \"#utility.yul\":666:670   */\n      0x20\n        /* \"#utility.yul\":659:664   */\n      dup2\n        /* \"#utility.yul\":655:671   */\n      add\n        /* \"#utility.yul\":704:707   */\n      dup5\n        /* \"#utility.yul\":695:701   */\n      dup5\n        /* \"#utility.yul\":690:693   */\n      dup5\n        /* \"#utility.yul\":686:702   */\n      add\n        /* \"#utility.yul\":683:708   */\n      gt\n        /* \"#utility.yul\":680:792   */\n      iszero\n      tag_62\n      jumpi\n        /* \"#utility.yul\":711:790   */\n      tag_63\n      tag_55\n      jump\t// in\n    tag_63:\n        /* \"#utility.yul\":680:792   */\n    tag_62:\n        /* \"#utility.yul\":801:840   */\n      tag_64\n        /* \"#utility.yul\":833:839   */\n      dup5\n        /* \"#utility.yul\":828:831   */\n      dup3\n        /* \"#utility.yul\":823:826   */\n      dup6\n        /* \"#utility.yul\":801:840   */\n      tag_65\n      jump\t// in\n    tag_64:\n        /* \"#utility.yul\":520:846   */\n      pop\n        /* \"#utility.yul\":425:846   */\n      swap4\n      swap3\n      pop\n      pop\n      pop\n      jump\t// out\n        /* \"#utility.yul\":852:991   */\n    tag_66:\n        /* \"#utility.yul\":898:903   */\n      0x00\n        /* \"#utility.yul\":936:942   */\n      dup2\n        /* \"#utility.yul\":923:943   */\n      calldataload\n        /* \"#utility.yul\":914:943   */\n      swap1\n      pop\n        /* \"#utility.yul\":952:985   */\n      tag_68\n        /* \"#utility.yul\":979:984   */\n      dup2\n        /* \"#utility.yul\":952:985   */\n      tag_69\n      jump\t// in\n    tag_68:\n        /* \"#utility.yul\":852:991   */\n      swap3\n      swap2\n      pop\n      pop\n      jump\t// out\n        /* \"#utility.yul\":997:1130   */\n    tag_70:\n        /* \"#utility.yul\":1040:1045   */\n      0x00\n        /* \"#utility.yul\":1078:1084   */\n      dup2\n        /* \"#utility.yul\":1065:1085   */\n      calldataload\n        /* \"#utility.yul\":1056:1085   */\n      swap1\n      pop\n        /* \"#utility.yul\":1094:1124   */\n      tag_72\n        /* \"#utility.yul\":1118:1123   */\n      dup2\n        /* \"#utility.yul\":1094:1124   */\n      tag_73\n      jump\t// in\n    tag_72:\n        /* \"#utility.yul\":997:1130   */\n      swap3\n      swap2\n      pop\n      pop\n      jump\t// out\n        /* \"#utility.yul\":1150:1490   */\n    tag_74:\n        /* \"#utility.yul\":1206:1211   */\n      0x00\n        /* \"#utility.yul\":1255:1258   */\n      dup3\n        /* \"#utility.yul\":1248:1252   */\n      0x1f\n        /* \"#utility.yul\":1240:1246   */\n      dup4\n        /* \"#utility.yul\":1236:1253   */\n      add\n        /* \"#utility.yul\":1232:1259   */\n      slt\n        /* \"#utility.yul\":1222:1344   */\n      tag_76\n      jumpi\n        /* \"#utility.yul\":1263:1342   */\n      tag_77\n      tag_78\n      jump\t// in\n    tag_77:\n        /* \"#utility.yul\":1222:1344   */\n    tag_76:\n        /* \"#utility.yul\":1380:1386   */\n      dup2\n        /* \"#utility.yul\":1367:1387   */\n      calldataload\n        /* \"#utility.yul\":1405:1484   */\n      tag_79\n        /* \"#utility.yul\":1480:1483   */\n      dup5\n        /* \"#utility.yul\":1472:1478   */\n      dup3\n        /* \"#utility.yul\":1465:1469   */\n      0x20\n        /* \"#utility.yul\":1457:1463   */\n      dup7\n        /* \"#utility.yul\":1453:1470   */\n      add\n        /* \"#utility.yul\":1405:1484   */\n      tag_47\n      jump\t// in\n    tag_79:\n        /* \"#utility.yul\":1396:1484   */\n      swap2\n      pop\n        /* \"#utility.yul\":1212:1490   */\n      pop\n        /* \"#utility.yul\":1150:1490   */\n      swap3\n      swap2\n      pop\n      pop\n      jump\t// out\n        /* \"#utility.yul\":1510:1865   */\n    tag_80:\n        /* \"#utility.yul\":1577:1582   */\n      0x00\n        /* \"#utility.yul\":1626:1629   */\n      dup3\n        /* \"#utility.yul\":1619:1623   */\n      0x1f\n        /* \"#utility.yul\":1611:1617   */\n      dup4\n        /* \"#utility.yul\":1607:1624   */\n      add\n        /* \"#utility.yul\":1603:1630   */\n      slt\n        /* \"#utility.yul\":1593:1715   */\n      tag_82\n      jumpi\n        /* \"#utility.yul\":1634:1713   */\n      tag_83\n      tag_78\n      jump\t// in\n    tag_83:\n        /* \"#utility.yul\":1593:1715   */\n    tag_82:\n        /* \"#utility.yul\":1744:1750   */\n      dup2\n        /* \"#utility.yul\":1738:1751   */\n      mload\n        /* \"#utility.yul\":1769:1859   */\n      tag_84\n        /* \"#utility.yul\":1855:1858   */\n      dup5\n        /* \"#utility.yul\":1847:1853   */\n      dup3\n        /* \"#utility.yul\":1840:1844   */\n      0x20\n        /* \"#utility.yul\":1832:1838   */\n      dup7\n        /* \"#utility.yul\":1828:1845   */\n      add\n        /* \"#utility.yul\":1769:1859   */\n      tag_58\n      jump\t// in\n    tag_84:\n        /* \"#utility.yul\":1760:1859   */\n      swap2\n      pop\n        /* \"#utility.yul\":1583:1865   */\n      pop\n        /* \"#utility.yul\":1510:1865   */\n      swap3\n      swap2\n      pop\n      pop\n      jump\t// out\n        /* \"#utility.yul\":1871:2010   */\n    tag_85:\n        /* \"#utility.yul\":1917:1922   */\n      0x00\n        /* \"#utility.yul\":1955:1961   */\n      dup2\n        /* \"#utility.yul\":1942:1962   */\n      calldataload\n        /* \"#utility.yul\":1933:1962   */\n      swap1\n      pop\n        /* \"#utility.yul\":1971:2004   */\n      tag_87\n        /* \"#utility.yul\":1998:2003   */\n      dup2\n        /* \"#utility.yul\":1971:2004   */\n      tag_88\n      jump\t// in\n    tag_87:\n        /* \"#utility.yul\":1871:2010   */\n      swap3\n      swap2\n      pop\n      pop\n      jump\t// out\n        /* \"#utility.yul\":2016:2345   */\n    tag_15:\n        /* \"#utility.yul\":2075:2081   */\n      0x00\n        /* \"#utility.yul\":2124:2126   */\n      0x20\n        /* \"#utility.yul\":2112:2121   */\n      dup3\n        /* \"#utility.yul\":2103:2110   */\n      dup5\n        /* \"#utility.yul\":2099:2122   */\n      sub\n        /* \"#utility.yul\":2095:2127   */\n      slt\n        /* \"#utility.yul\":2092:2211   */\n      iszero\n      tag_90\n      jumpi\n        /* \"#utility.yul\":2130:2209   */\n      tag_91\n      tag_92\n      jump\t// in\n    tag_91:\n        /* \"#utility.yul\":2092:2211   */\n    tag_90:\n        /* \"#utility.yul\":2250:2251   */\n      0x00\n        /* \"#utility.yul\":2275:2328   */\n      tag_93\n        /* \"#utility.yul\":2320:2327   */\n      dup5\n        /* \"#utility.yul\":2311:2317   */\n      dup3\n        /* \"#utility.yul\":2300:2309   */\n      dup6\n        /* \"#utility.yul\":2296:2318   */\n      add\n        /* \"#utility.yul\":2275:2328   */\n      tag_66\n      jump\t// in\n    tag_93:\n        /* \"#utility.yul\":2265:2328   */\n      swap2\n      pop\n        /* \"#utility.yul\":2221:2338   */\n      pop\n        /* \"#utility.yul\":2016:2345   */\n      swap3\n      swap2\n      pop\n      pop\n      jump\t// out\n        /* \"#utility.yul\":2351:2875   */\n    tag_45:\n        /* \"#utility.yul\":2431:2437   */\n      0x00\n        /* \"#utility.yul\":2480:2482   */\n      0x20\n        /* \"#utility.yul\":2468:2477   */\n      dup3\n        /* \"#utility.yul\":2459:2466   */\n      dup5\n        /* \"#utility.yul\":2455:2478   */\n      sub\n        /* \"#utility.yul\":2451:2483   */\n      slt\n        /* \"#utility.yul\":2448:2567   */\n      iszero\n      tag_95\n      jumpi\n        /* \"#utility.yul\":2486:2565   */\n      tag_96\n      tag_92\n      jump\t// in\n    tag_96:\n        /* \"#utility.yul\":2448:2567   */\n    tag_95:\n        /* \"#utility.yul\":2627:2628   */\n      0x00\n        /* \"#utility.yul\":2616:2625   */\n      dup3\n        /* \"#utility.yul\":2612:2629   */\n      add\n        /* \"#utility.yul\":2606:2630   */\n      mload\n        /* \"#utility.yul\":2657:2675   */\n      0xffffffffffffffff\n        /* \"#utility.yul\":2649:2655   */\n      dup2\n        /* \"#utility.yul\":2646:2676   */\n      gt\n        /* \"#utility.yul\":2643:2760   */\n      iszero\n      tag_97\n      jumpi\n        /* \"#utility.yul\":2679:2758   */\n      tag_98\n      tag_99\n      jump\t// in\n    tag_98:\n        /* \"#utility.yul\":2643:2760   */\n    tag_97:\n        /* \"#utility.yul\":2784:2858   */\n      tag_100\n        /* \"#utility.yul\":2850:2857   */\n      dup5\n        /* \"#utility.yul\":2841:2847   */\n      dup3\n        /* \"#utility.yul\":2830:2839   */\n      dup6\n        /* \"#utility.yul\":2826:2848   */\n      add\n        /* \"#utility.yul\":2784:2858   */\n      tag_80\n      jump\t// in\n    tag_100:\n        /* \"#utility.yul\":2774:2858   */\n      swap2\n      pop\n        /* \"#utility.yul\":2577:2868   */\n      pop\n        /* \"#utility.yul\":2351:2875   */\n      swap3\n      swap2\n      pop\n      pop\n      jump\t// out\n        /* \"#utility.yul\":2881:3820   */\n    tag_9:\n        /* \"#utility.yul\":2974:2980   */\n      0x00\n        /* \"#utility.yul\":2982:2988   */\n      dup1\n        /* \"#utility.yul\":2990:2996   */\n      0x00\n        /* \"#utility.yul\":2998:3004   */\n      dup1\n        /* \"#utility.yul\":3047:3050   */\n      0x80\n        /* \"#utility.yul\":3035:3044   */\n      dup6\n        /* \"#utility.yul\":3026:3033   */\n      dup8\n        /* \"#utility.yul\":3022:3045   */\n      sub\n        /* \"#utility.yul\":3018:3051   */\n      slt\n        /* \"#utility.yul\":3015:3135   */\n      iszero\n      tag_102\n      jumpi\n        /* \"#utility.yul\":3054:3133   */\n      tag_103\n      tag_92\n      jump\t// in\n    tag_103:\n        /* \"#utility.yul\":3015:3135   */\n    tag_102:\n        /* \"#utility.yul\":3202:3203   */\n      0x00\n        /* \"#utility.yul\":3191:3200   */\n      dup6\n        /* \"#utility.yul\":3187:3204   */\n      add\n        /* \"#utility.yul\":3174:3205   */\n      calldataload\n        /* \"#utility.yul\":3232:3250   */\n      0xffffffffffffffff\n        /* \"#utility.yul\":3224:3230   */\n      dup2\n        /* \"#utility.yul\":3221:3251   */\n      gt\n        /* \"#utility.yul\":3218:3335   */\n      iszero\n      tag_104\n      jumpi\n        /* \"#utility.yul\":3254:3333   */\n      tag_105\n      tag_99\n      jump\t// in\n    tag_105:\n        /* \"#utility.yul\":3218:3335   */\n    tag_104:\n        /* \"#utility.yul\":3359:3422   */\n      tag_106\n        /* \"#utility.yul\":3414:3421   */\n      dup8\n        /* \"#utility.yul\":3405:3411   */\n      dup3\n        /* \"#utility.yul\":3394:3403   */\n      dup9\n        /* \"#utility.yul\":3390:3412   */\n      add\n        /* \"#utility.yul\":3359:3422   */\n      tag_74\n      jump\t// in\n    tag_106:\n        /* \"#utility.yul\":3349:3422   */\n      swap5\n      pop\n        /* \"#utility.yul\":3145:3432   */\n      pop\n        /* \"#utility.yul\":3471:3473   */\n      0x20\n        /* \"#utility.yul\":3497:3550   */\n      tag_107\n        /* \"#utility.yul\":3542:3549   */\n      dup8\n        /* \"#utility.yul\":3533:3539   */\n      dup3\n        /* \"#utility.yul\":3522:3531   */\n      dup9\n        /* \"#utility.yul\":3518:3540   */\n      add\n        /* \"#utility.yul\":3497:3550   */\n      tag_85\n      jump\t// in\n    tag_107:\n        /* \"#utility.yul\":3487:3550   */\n      swap4\n      pop\n        /* \"#utility.yul\":3442:3560   */\n      pop\n        /* \"#utility.yul\":3599:3601   */\n      0x40\n        /* \"#utility.yul\":3625:3675   */\n      tag_108\n        /* \"#utility.yul\":3667:3674   */\n      dup8\n        /* \"#utility.yul\":3658:3664   */\n      dup3\n        /* \"#utility.yul\":3647:3656   */\n      dup9\n        /* \"#utility.yul\":3643:3665   */\n      add\n        /* \"#utility.yul\":3625:3675   */\n      tag_70\n      jump\t// in\n    tag_108:\n        /* \"#utility.yul\":3615:3675   */\n      swap3\n      pop\n        /* \"#utility.yul\":3570:3685   */\n      pop\n        /* \"#utility.yul\":3724:3726   */\n      0x60\n        /* \"#utility.yul\":3750:3803   */\n      tag_109\n        /* \"#utility.yul\":3795:3802   */\n      dup8\n        /* \"#utility.yul\":3786:3792   */\n      dup3\n        /* \"#utility.yul\":3775:3784   */\n      dup9\n        /* \"#utility.yul\":3771:3793   */\n      add\n        /* \"#utility.yul\":3750:3803   */\n      tag_85\n      jump\t// in\n    tag_109:\n        /* \"#utility.yul\":3740:3803   */\n      swap2\n      pop\n        /* \"#utility.yul\":3695:3813   */\n      pop\n        /* \"#utility.yul\":2881:3820   */\n      swap3\n      swap6\n      swap2\n      swap5\n      pop\n      swap3\n      pop\n      jump\t// out\n        /* \"#utility.yul\":3826:4037   */\n    tag_110:\n        /* \"#utility.yul\":3911:3921   */\n      0x00\n        /* \"#utility.yul\":3932:3994   */\n      tag_112\n        /* \"#utility.yul\":3990:3993   */\n      dup4\n        /* \"#utility.yul\":3982:3988   */\n      dup4\n        /* \"#utility.yul\":3932:3994   */\n      tag_113\n      jump\t// in\n    tag_112:\n        /* \"#utility.yul\":4026:4030   */\n      0x20\n        /* \"#utility.yul\":4021:4024   */\n      dup4\n        /* \"#utility.yul\":4017:4031   */\n      add\n        /* \"#utility.yul\":4003:4031   */\n      swap1\n      pop\n        /* \"#utility.yul\":3826:4037   */\n      swap3\n      swap2\n      pop\n      pop\n      jump\t// out\n        /* \"#utility.yul\":4043:4161   */\n    tag_114:\n        /* \"#utility.yul\":4130:4154   */\n      tag_116\n        /* \"#utility.yul\":4148:4153   */\n      dup2\n        /* \"#utility.yul\":4130:4154   */\n      tag_117\n      jump\t// in\n    tag_116:\n        /* \"#utility.yul\":4125:4128   */\n      dup3\n        /* \"#utility.yul\":4118:4155   */\n      mstore\n        /* \"#utility.yul\":4043:4161   */\n      pop\n      pop\n      jump\t// out\n        /* \"#utility.yul\":4207:5019   */\n    tag_118:\n        /* \"#utility.yul\":4342:4345   */\n      0x00\n        /* \"#utility.yul\":4371:4441   */\n      tag_120\n        /* \"#utility.yul\":4435:4440   */\n      dup3\n        /* \"#utility.yul\":4371:4441   */\n      tag_121\n      jump\t// in\n    tag_120:\n        /* \"#utility.yul\":4457:4543   */\n      tag_122\n        /* \"#utility.yul\":4536:4542   */\n      dup2\n        /* \"#utility.yul\":4531:4534   */\n      dup6\n        /* \"#utility.yul\":4457:4543   */\n      tag_123\n      jump\t// in\n    tag_122:\n        /* \"#utility.yul\":4450:4543   */\n      swap4\n      pop\n        /* \"#utility.yul\":4567:4639   */\n      tag_124\n        /* \"#utility.yul\":4633:4638   */\n      dup4\n        /* \"#utility.yul\":4567:4639   */\n      tag_125\n      jump\t// in\n    tag_124:\n        /* \"#utility.yul\":4662:4669   */\n      dup1\n        /* \"#utility.yul\":4693:4694   */\n      0x00\n        /* \"#utility.yul\":4678:4994   */\n    tag_126:\n        /* \"#utility.yul\":4703:4709   */\n      dup4\n        /* \"#utility.yul\":4700:4701   */\n      dup2\n        /* \"#utility.yul\":4697:4710   */\n      lt\n        /* \"#utility.yul\":4678:4994   */\n      iszero\n      tag_128\n      jumpi\n        /* \"#utility.yul\":4779:4785   */\n      dup2\n        /* \"#utility.yul\":4773:4786   */\n      mload\n        /* \"#utility.yul\":4806:4885   */\n      tag_129\n        /* \"#utility.yul\":4881:4884   */\n      dup9\n        /* \"#utility.yul\":4866:4879   */\n      dup3\n        /* \"#utility.yul\":4806:4885   */\n      tag_110\n      jump\t// in\n    tag_129:\n        /* \"#utility.yul\":4799:4885   */\n      swap8\n      pop\n        /* \"#utility.yul\":4908:4984   */\n      tag_130\n        /* \"#utility.yul\":4977:4983   */\n      dup4\n        /* \"#utility.yul\":4908:4984   */\n      tag_131\n      jump\t// in\n    tag_130:\n        /* \"#utility.yul\":4898:4984   */\n      swap3\n      pop\n        /* \"#utility.yul\":4738:4994   */\n      pop\n        /* \"#utility.yul\":4725:4726   */\n      0x01\n        /* \"#utility.yul\":4722:4723   */\n      dup2\n        /* \"#utility.yul\":4718:4727   */\n      add\n        /* \"#utility.yul\":4713:4727   */\n      swap1\n      pop\n        /* \"#utility.yul\":4678:4994   */\n      jump(tag_126)\n    tag_128:\n        /* \"#utility.yul\":4682:4696   */\n      pop\n        /* \"#utility.yul\":5010:5013   */\n      dup6\n        /* \"#utility.yul\":5003:5013   */\n      swap4\n      pop\n        /* \"#utility.yul\":4347:5019   */\n      pop\n      pop\n      pop\n        /* \"#utility.yul\":4207:5019   */\n      swap3\n      swap2\n      pop\n      pop\n      jump\t// out\n        /* \"#utility.yul\":5025:5134   */\n    tag_132:\n        /* \"#utility.yul\":5106:5127   */\n      tag_134\n        /* \"#utility.yul\":5121:5126   */\n      dup2\n        /* \"#utility.yul\":5106:5127   */\n      tag_135\n      jump\t// in\n    tag_134:\n        /* \"#utility.yul\":5101:5104   */\n      dup3\n        /* \"#utility.yul\":5094:5128   */\n      mstore\n        /* \"#utility.yul\":5025:5134   */\n      pop\n      pop\n      jump\t// out\n        /* \"#utility.yul\":5140:5293   */\n    tag_113:\n        /* \"#utility.yul\":5233:5286   */\n      tag_137\n        /* \"#utility.yul\":5280:5285   */\n      dup2\n        /* \"#utility.yul\":5233:5286   */\n      tag_138\n      jump\t// in\n    tag_137:\n        /* \"#utility.yul\":5228:5231   */\n      dup3\n        /* \"#utility.yul\":5221:5287   */\n      mstore\n        /* \"#utility.yul\":5140:5293   */\n      pop\n      pop\n      jump\t// out\n        /* \"#utility.yul\":5299:5663   */\n    tag_139:\n        /* \"#utility.yul\":5387:5390   */\n      0x00\n        /* \"#utility.yul\":5415:5454   */\n      tag_141\n        /* \"#utility.yul\":5448:5453   */\n      dup3\n        /* \"#utility.yul\":5415:5454   */\n      tag_142\n      jump\t// in\n    tag_141:\n        /* \"#utility.yul\":5470:5541   */\n      tag_143\n        /* \"#utility.yul\":5534:5540   */\n      dup2\n        /* \"#utility.yul\":5529:5532   */\n      dup6\n        /* \"#utility.yul\":5470:5541   */\n      tag_144\n      jump\t// in\n    tag_143:\n        /* \"#utility.yul\":5463:5541   */\n      swap4\n      pop\n        /* \"#utility.yul\":5550:5602   */\n      tag_145\n        /* \"#utility.yul\":5595:5601   */\n      dup2\n        /* \"#utility.yul\":5590:5593   */\n      dup6\n        /* \"#utility.yul\":5583:5587   */\n      0x20\n        /* \"#utility.yul\":5576:5581   */\n      dup7\n        /* \"#utility.yul\":5572:5588   */\n      add\n        /* \"#utility.yul\":5550:5602   */\n      tag_65\n      jump\t// in\n    tag_145:\n        /* \"#utility.yul\":5627:5656   */\n      tag_146\n        /* \"#utility.yul\":5649:5655   */\n      dup2\n        /* \"#utility.yul\":5627:5656   */\n      tag_147\n      jump\t// in\n    tag_146:\n        /* \"#utility.yul\":5622:5625   */\n      dup5\n        /* \"#utility.yul\":5618:5657   */\n      add\n        /* \"#utility.yul\":5611:5657   */\n      swap2\n      pop\n        /* \"#utility.yul\":5391:5663   */\n      pop\n        /* \"#utility.yul\":5299:5663   */\n      swap3\n      swap2\n      pop\n      pop\n      jump\t// out\n        /* \"#utility.yul\":5669:5787   */\n    tag_148:\n        /* \"#utility.yul\":5756:5780   */\n      tag_150\n        /* \"#utility.yul\":5774:5779   */\n      dup2\n        /* \"#utility.yul\":5756:5780   */\n      tag_151\n      jump\t// in\n    tag_150:\n        /* \"#utility.yul\":5751:5754   */\n      dup3\n        /* \"#utility.yul\":5744:5781   */\n      mstore\n        /* \"#utility.yul\":5669:5787   */\n      pop\n      pop\n      jump\t// out\n        /* \"#utility.yul\":5793:6015   */\n    tag_12:\n        /* \"#utility.yul\":5886:5890   */\n      0x00\n        /* \"#utility.yul\":5924:5926   */\n      0x20\n        /* \"#utility.yul\":5913:5922   */\n      dup3\n        /* \"#utility.yul\":5909:5927   */\n      add\n        /* \"#utility.yul\":5901:5927   */\n      swap1\n      pop\n        /* \"#utility.yul\":5937:6008   */\n      tag_153\n        /* \"#utility.yul\":6005:6006   */\n      0x00\n        /* \"#utility.yul\":5994:6003   */\n      dup4\n        /* \"#utility.yul\":5990:6007   */\n      add\n        /* \"#utility.yul\":5981:5987   */\n      dup5\n        /* \"#utility.yul\":5937:6008   */\n      tag_114\n      jump\t// in\n    tag_153:\n        /* \"#utility.yul\":5793:6015   */\n      swap3\n      swap2\n      pop\n      pop\n      jump\t// out\n        /* \"#utility.yul\":6021:6426   */\n    tag_18:\n        /* \"#utility.yul\":6180:6184   */\n      0x00\n        /* \"#utility.yul\":6218:6220   */\n      0x20\n        /* \"#utility.yul\":6207:6216   */\n      dup3\n        /* \"#utility.yul\":6203:6221   */\n      add\n        /* \"#utility.yul\":6195:6221   */\n      swap1\n      pop\n        /* \"#utility.yul\":6267:6276   */\n      dup2\n        /* \"#utility.yul\":6261:6265   */\n      dup2\n        /* \"#utility.yul\":6257:6277   */\n      sub\n        /* \"#utility.yul\":6253:6254   */\n      0x00\n        /* \"#utility.yul\":6242:6251   */\n      dup4\n        /* \"#utility.yul\":6238:6255   */\n      add\n        /* \"#utility.yul\":6231:6278   */\n      mstore\n        /* \"#utility.yul\":6295:6419   */\n      tag_155\n        /* \"#utility.yul\":6414:6418   */\n      dup2\n        /* \"#utility.yul\":6405:6411   */\n      dup5\n        /* \"#utility.yul\":6295:6419   */\n      tag_118\n      jump\t// in\n    tag_155:\n        /* \"#utility.yul\":6287:6419   */\n      swap1\n      pop\n        /* \"#utility.yul\":6021:6426   */\n      swap3\n      swap2\n      pop\n      pop\n      jump\t// out\n        /* \"#utility.yul\":6432:6745   */\n    tag_26:\n        /* \"#utility.yul\":6545:6549   */\n      0x00\n        /* \"#utility.yul\":6583:6585   */\n      0x20\n        /* \"#utility.yul\":6572:6581   */\n      dup3\n        /* \"#utility.yul\":6568:6586   */\n      add\n        /* \"#utility.yul\":6560:6586   */\n      swap1\n      pop\n        /* \"#utility.yul\":6632:6641   */\n      dup2\n        /* \"#utility.yul\":6626:6630   */\n      dup2\n        /* \"#utility.yul\":6622:6642   */\n      sub\n        /* \"#utility.yul\":6618:6619   */\n      0x00\n        /* \"#utility.yul\":6607:6616   */\n      dup4\n        /* \"#utility.yul\":6603:6620   */\n      add\n        /* \"#utility.yul\":6596:6643   */\n      mstore\n        /* \"#utility.yul\":6660:6738   */\n      tag_157\n        /* \"#utility.yul\":6733:6737   */\n      dup2\n        /* \"#utility.yul\":6724:6730   */\n      dup5\n        /* \"#utility.yul\":6660:6738   */\n      tag_139\n      jump\t// in\n    tag_157:\n        /* \"#utility.yul\":6652:6738   */\n      swap1\n      pop\n        /* \"#utility.yul\":6432:6745   */\n      swap3\n      swap2\n      pop\n      pop\n      jump\t// out\n        /* \"#utility.yul\":6751:7383   */\n    tag_31:\n        /* \"#utility.yul\":6942:6946   */\n      0x00\n        /* \"#utility.yul\":6980:6983   */\n      0x80\n        /* \"#utility.yul\":6969:6978   */\n      dup3\n        /* \"#utility.yul\":6965:6984   */\n      add\n        /* \"#utility.yul\":6957:6984   */\n      swap1\n      pop\n        /* \"#utility.yul\":7030:7039   */\n      dup2\n        /* \"#utility.yul\":7024:7028   */\n      dup2\n        /* \"#utility.yul\":7020:7040   */\n      sub\n        /* \"#utility.yul\":7016:7017   */\n      0x00\n        /* \"#utility.yul\":7005:7014   */\n      dup4\n        /* \"#utility.yul\":7001:7018   */\n      add\n        /* \"#utility.yul\":6994:7041   */\n      mstore\n        /* \"#utility.yul\":7058:7136   */\n      tag_159\n        /* \"#utility.yul\":7131:7135   */\n      dup2\n        /* \"#utility.yul\":7122:7128   */\n      dup8\n        /* \"#utility.yul\":7058:7136   */\n      tag_139\n      jump\t// in\n    tag_159:\n        /* \"#utility.yul\":7050:7136   */\n      swap1\n      pop\n        /* \"#utility.yul\":7146:7218   */\n      tag_160\n        /* \"#utility.yul\":7214:7216   */\n      0x20\n        /* \"#utility.yul\":7203:7212   */\n      dup4\n        /* \"#utility.yul\":7199:7217   */\n      add\n        /* \"#utility.yul\":7190:7196   */\n      dup7\n        /* \"#utility.yul\":7146:7218   */\n      tag_148\n      jump\t// in\n    tag_160:\n        /* \"#utility.yul\":7228:7294   */\n      tag_161\n        /* \"#utility.yul\":7290:7292   */\n      0x40\n        /* \"#utility.yul\":7279:7288   */\n      dup4\n        /* \"#utility.yul\":7275:7293   */\n      add\n        /* \"#utility.yul\":7266:7272   */\n      dup6\n        /* \"#utility.yul\":7228:7294   */\n      tag_132\n      jump\t// in\n    tag_161:\n        /* \"#utility.yul\":7304:7376   */\n      tag_162\n        /* \"#utility.yul\":7372:7374   */\n      0x60\n        /* \"#utility.yul\":7361:7370   */\n      dup4\n        /* \"#utility.yul\":7357:7375   */\n      add\n        /* \"#utility.yul\":7348:7354   */\n      dup5\n        /* \"#utility.yul\":7304:7376   */\n      tag_148\n      jump\t// in\n    tag_162:\n        /* \"#utility.yul\":6751:7383   */\n      swap6\n      swap5\n      pop\n      pop\n      pop\n      pop\n      pop\n      jump\t// out\n        /* \"#utility.yul\":7389:7518   */\n    tag_52:\n        /* \"#utility.yul\":7423:7429   */\n      0x00\n        /* \"#utility.yul\":7450:7470   */\n      tag_164\n      tag_165\n      jump\t// in\n    tag_164:\n        /* \"#utility.yul\":7440:7470   */\n      swap1\n      pop\n        /* \"#utility.yul\":7479:7512   */\n      tag_166\n        /* \"#utility.yul\":7507:7511   */\n      dup3\n        /* \"#utility.yul\":7499:7505   */\n      dup3\n        /* \"#utility.yul\":7479:7512   */\n      tag_167\n      jump\t// in\n    tag_166:\n        /* \"#utility.yul\":7389:7518   */\n      swap2\n      swap1\n      pop\n      jump\t// out\n        /* \"#utility.yul\":7524:7599   */\n    tag_165:\n        /* \"#utility.yul\":7557:7563   */\n      0x00\n        /* \"#utility.yul\":7590:7592   */\n      0x40\n        /* \"#utility.yul\":7584:7593   */\n      mload\n        /* \"#utility.yul\":7574:7593   */\n      swap1\n      pop\n        /* \"#utility.yul\":7524:7599   */\n      swap1\n      jump\t// out\n        /* \"#utility.yul\":7605:7913   */\n    tag_51:\n        /* \"#utility.yul\":7667:7671   */\n      0x00\n        /* \"#utility.yul\":7757:7775   */\n      0xffffffffffffffff\n        /* \"#utility.yul\":7749:7755   */\n      dup3\n        /* \"#utility.yul\":7746:7776   */\n      gt\n        /* \"#utility.yul\":7743:7799   */\n      iszero\n      tag_170\n      jumpi\n        /* \"#utility.yul\":7779:7797   */\n      tag_171\n      tag_172\n      jump\t// in\n    tag_171:\n        /* \"#utility.yul\":7743:7799   */\n    tag_170:\n        /* \"#utility.yul\":7817:7846   */\n      tag_173\n        /* \"#utility.yul\":7839:7845   */\n      dup3\n        /* \"#utility.yul\":7817:7846   */\n      tag_147\n      jump\t// in\n    tag_173:\n        /* \"#utility.yul\":7809:7846   */\n      swap1\n      pop\n        /* \"#utility.yul\":7901:7905   */\n      0x20\n        /* \"#utility.yul\":7895:7899   */\n      dup2\n        /* \"#utility.yul\":7891:7906   */\n      add\n        /* \"#utility.yul\":7883:7906   */\n      swap1\n      pop\n        /* \"#utility.yul\":7605:7913   */\n      swap2\n      swap1\n      pop\n      jump\t// out\n        /* \"#utility.yul\":7919:8067   */\n    tag_125:\n        /* \"#utility.yul\":8002:8006   */\n      0x00\n        /* \"#utility.yul\":8025:8028   */\n      dup2\n        /* \"#utility.yul\":8017:8028   */\n      swap1\n      pop\n        /* \"#utility.yul\":8055:8059   */\n      0x20\n        /* \"#utility.yul\":8050:8053   */\n      dup3\n        /* \"#utility.yul\":8046:8060   */\n      add\n        /* \"#utility.yul\":8038:8060   */\n      swap1\n      pop\n        /* \"#utility.yul\":7919:8067   */\n      swap2\n      swap1\n      pop\n      jump\t// out\n        /* \"#utility.yul\":8073:8203   */\n    tag_121:\n        /* \"#utility.yul\":8156:8162   */\n      0x00\n        /* \"#utility.yul\":8190:8195   */\n      dup2\n        /* \"#utility.yul\":8184:8196   */\n      mload\n        /* \"#utility.yul\":8174:8196   */\n      swap1\n      pop\n        /* \"#utility.yul\":8073:8203   */\n      swap2\n      swap1\n      pop\n      jump\t// out\n        /* \"#utility.yul\":8209:8308   */\n    tag_142:\n        /* \"#utility.yul\":8261:8267   */\n      0x00\n        /* \"#utility.yul\":8295:8300   */\n      dup2\n        /* \"#utility.yul\":8289:8301   */\n      mload\n        /* \"#utility.yul\":8279:8301   */\n      swap1\n      pop\n        /* \"#utility.yul\":8209:8308   */\n      swap2\n      swap1\n      pop\n      jump\t// out\n        /* \"#utility.yul\":8314:8443   */\n    tag_131:\n        /* \"#utility.yul\":8400:8404   */\n      0x00\n        /* \"#utility.yul\":8432:8436   */\n      0x20\n        /* \"#utility.yul\":8427:8430   */\n      dup3\n        /* \"#utility.yul\":8423:8437   */\n      add\n        /* \"#utility.yul\":8415:8437   */\n      swap1\n      pop\n        /* \"#utility.yul\":8314:8443   */\n      swap2\n      swap1\n      pop\n      jump\t// out\n        /* \"#utility.yul\":8449:8633   */\n    tag_123:\n        /* \"#utility.yul\":8548:8559   */\n      0x00\n        /* \"#utility.yul\":8582:8588   */\n      dup3\n        /* \"#utility.yul\":8577:8580   */\n      dup3\n        /* \"#utility.yul\":8570:8589   */\n      mstore\n        /* \"#utility.yul\":8622:8626   */\n      0x20\n        /* \"#utility.yul\":8617:8620   */\n      dup3\n        /* \"#utility.yul\":8613:8627   */\n      add\n        /* \"#utility.yul\":8598:8627   */\n      swap1\n      pop\n        /* \"#utility.yul\":8449:8633   */\n      swap3\n      swap2\n      pop\n      pop\n      jump\t// out\n        /* \"#utility.yul\":8639:8808   */\n    tag_144:\n        /* \"#utility.yul\":8723:8734   */\n      0x00\n        /* \"#utility.yul\":8757:8763   */\n      dup3\n        /* \"#utility.yul\":8752:8755   */\n      dup3\n        /* \"#utility.yul\":8745:8764   */\n      mstore\n        /* \"#utility.yul\":8797:8801   */\n      0x20\n        /* \"#utility.yul\":8792:8795   */\n      dup3\n        /* \"#utility.yul\":8788:8802   */\n      add\n        /* \"#utility.yul\":8773:8802   */\n      swap1\n      pop\n        /* \"#utility.yul\":8639:8808   */\n      swap3\n      swap2\n      pop\n      pop\n      jump\t// out\n        /* \"#utility.yul\":8814:8910   */\n    tag_117:\n        /* \"#utility.yul\":8851:8858   */\n      0x00\n        /* \"#utility.yul\":8880:8904   */\n      tag_181\n        /* \"#utility.yul\":8898:8903   */\n      dup3\n        /* \"#utility.yul\":8880:8904   */\n      tag_182\n      jump\t// in\n    tag_181:\n        /* \"#utility.yul\":8869:8904   */\n      swap1\n      pop\n        /* \"#utility.yul\":8814:8910   */\n      swap2\n      swap1\n      pop\n      jump\t// out\n        /* \"#utility.yul\":8916:9006   */\n    tag_135:\n        /* \"#utility.yul\":8950:8957   */\n      0x00\n        /* \"#utility.yul\":8993:8998   */\n      dup2\n        /* \"#utility.yul\":8986:8999   */\n      iszero\n        /* \"#utility.yul\":8979:9000   */\n      iszero\n        /* \"#utility.yul\":8968:9000   */\n      swap1\n      pop\n        /* \"#utility.yul\":8916:9006   */\n      swap2\n      swap1\n      pop\n      jump\t// out\n        /* \"#utility.yul\":9012:9138   */\n    tag_182:\n        /* \"#utility.yul\":9049:9056   */\n      0x00\n        /* \"#utility.yul\":9089:9131   */\n      0xffffffffffffffffffffffffffffffffffffffff\n        /* \"#utility.yul\":9082:9087   */\n      dup3\n        /* \"#utility.yul\":9078:9132   */\n      and\n        /* \"#utility.yul\":9067:9132   */\n      swap1\n      pop\n        /* \"#utility.yul\":9012:9138   */\n      swap2\n      swap1\n      pop\n      jump\t// out\n        /* \"#utility.yul\":9144:9221   */\n    tag_151:\n        /* \"#utility.yul\":9181:9188   */\n      0x00\n        /* \"#utility.yul\":9210:9215   */\n      dup2\n        /* \"#utility.yul\":9199:9215   */\n      swap1\n      pop\n        /* \"#utility.yul\":9144:9221   */\n      swap2\n      swap1\n      pop\n      jump\t// out\n        /* \"#utility.yul\":9227:9369   */\n    tag_138:\n        /* \"#utility.yul\":9293:9302   */\n      0x00\n        /* \"#utility.yul\":9326:9363   */\n      tag_187\n        /* \"#utility.yul\":9357:9362   */\n      dup3\n        /* \"#utility.yul\":9326:9363   */\n      tag_188\n      jump\t// in\n    tag_187:\n        /* \"#utility.yul\":9313:9363   */\n      swap1\n      pop\n        /* \"#utility.yul\":9227:9369   */\n      swap2\n      swap1\n      pop\n      jump\t// out\n        /* \"#utility.yul\":9375:9501   */\n    tag_188:\n        /* \"#utility.yul\":9425:9434   */\n      0x00\n        /* \"#utility.yul\":9458:9495   */\n      tag_190\n        /* \"#utility.yul\":9489:9494   */\n      dup3\n        /* \"#utility.yul\":9458:9495   */\n      tag_191\n      jump\t// in\n    tag_190:\n        /* \"#utility.yul\":9445:9495   */\n      swap1\n      pop\n        /* \"#utility.yul\":9375:9501   */\n      swap2\n      swap1\n      pop\n      jump\t// out\n        /* \"#utility.yul\":9507:9620   */\n    tag_191:\n        /* \"#utility.yul\":9557:9566   */\n      0x00\n        /* \"#utility.yul\":9590:9614   */\n      tag_193\n        /* \"#utility.yul\":9608:9613   */\n      dup3\n        /* \"#utility.yul\":9590:9614   */\n      tag_182\n      jump\t// in\n    tag_193:\n        /* \"#utility.yul\":9577:9614   */\n      swap1\n      pop\n        /* \"#utility.yul\":9507:9620   */\n      swap2\n      swap1\n      pop\n      jump\t// out\n        /* \"#utility.yul\":9626:9780   */\n    tag_57:\n        /* \"#utility.yul\":9710:9716   */\n      dup3\n        /* \"#utility.yul\":9705:9708   */\n      dup2\n        /* \"#utility.yul\":9700:9703   */\n      dup4\n        /* \"#utility.yul\":9687:9717   */\n      calldatacopy\n        /* \"#utility.yul\":9772:9773   */\n      0x00\n        /* \"#utility.yul\":9763:9769   */\n      dup4\n        /* \"#utility.yul\":9758:9761   */\n      dup4\n        /* \"#utility.yul\":9754:9770   */\n      add\n        /* \"#utility.yul\":9747:9774   */\n      mstore\n        /* \"#utility.yul\":9626:9780   */\n      pop\n      pop\n      pop\n      jump\t// out\n        /* \"#utility.yul\":9786:10093   */\n    tag_65:\n        /* \"#utility.yul\":9854:9855   */\n      0x00\n        /* \"#utility.yul\":9864:9977   */\n    tag_196:\n        /* \"#utility.yul\":9878:9884   */\n      dup4\n        /* \"#utility.yul\":9875:9876   */\n      dup2\n        /* \"#utility.yul\":9872:9885   */\n      lt\n        /* \"#utility.yul\":9864:9977   */\n      iszero\n      tag_198\n      jumpi\n        /* \"#utility.yul\":9963:9964   */\n      dup1\n        /* \"#utility.yul\":9958:9961   */\n      dup3\n        /* \"#utility.yul\":9954:9965   */\n      add\n        /* \"#utility.yul\":9948:9966   */\n      mload\n        /* \"#utility.yul\":9944:9945   */\n      dup2\n        /* \"#utility.yul\":9939:9942   */\n      dup5\n        /* \"#utility.yul\":9935:9946   */\n      add\n        /* \"#utility.yul\":9928:9967   */\n      mstore\n        /* \"#utility.yul\":9900:9902   */\n      0x20\n        /* \"#utility.yul\":9897:9898   */\n      dup2\n        /* \"#utility.yul\":9893:9903   */\n      add\n        /* \"#utility.yul\":9888:9903   */\n      swap1\n      pop\n        /* \"#utility.yul\":9864:9977   */\n      jump(tag_196)\n    tag_198:\n        /* \"#utility.yul\":9995:10001   */\n      dup4\n        /* \"#utility.yul\":9992:9993   */\n      dup2\n        /* \"#utility.yul\":9989:10002   */\n      gt\n        /* \"#utility.yul\":9986:10087   */\n      iszero\n      tag_199\n      jumpi\n        /* \"#utility.yul\":10075:10076   */\n      0x00\n        /* \"#utility.yul\":10066:10072   */\n      dup5\n        /* \"#utility.yul\":10061:10064   */\n      dup5\n        /* \"#utility.yul\":10057:10073   */\n      add\n        /* \"#utility.yul\":10050:10077   */\n      mstore\n        /* \"#utility.yul\":9986:10087   */\n    tag_199:\n        /* \"#utility.yul\":9835:10093   */\n      pop\n        /* \"#utility.yul\":9786:10093   */\n      pop\n      pop\n      pop\n      jump\t// out\n        /* \"#utility.yul\":10099:10380   */\n    tag_167:\n        /* \"#utility.yul\":10182:10209   */\n      tag_201\n        /* \"#utility.yul\":10204:10208   */\n      dup3\n        /* \"#utility.yul\":10182:10209   */\n      tag_147\n      jump\t// in\n    tag_201:\n        /* \"#utility.yul\":10174:10180   */\n      dup2\n        /* \"#utility.yul\":10170:10210   */\n      add\n        /* \"#utility.yul\":10312:10318   */\n      dup2\n        /* \"#utility.yul\":10300:10310   */\n      dup2\n        /* \"#utility.yul\":10297:10319   */\n      lt\n        /* \"#utility.yul\":10276:10294   */\n      0xffffffffffffffff\n        /* \"#utility.yul\":10264:10274   */\n      dup3\n        /* \"#utility.yul\":10261:10295   */\n      gt\n        /* \"#utility.yul\":10258:10320   */\n      or\n        /* \"#utility.yul\":10255:10343   */\n      iszero\n      tag_202\n      jumpi\n        /* \"#utility.yul\":10323:10341   */\n      tag_203\n      tag_172\n      jump\t// in\n    tag_203:\n        /* \"#utility.yul\":10255:10343   */\n    tag_202:\n        /* \"#utility.yul\":10363:10373   */\n      dup1\n        /* \"#utility.yul\":10359:10361   */\n      0x40\n        /* \"#utility.yul\":10352:10374   */\n      mstore\n        /* \"#utility.yul\":10142:10380   */\n      pop\n        /* \"#utility.yul\":10099:10380   */\n      pop\n      pop\n      jump\t// out\n        /* \"#utility.yul\":10386:10566   */\n    tag_172:\n        /* \"#utility.yul\":10434:10511   */\n      0x4e487b7100000000000000000000000000000000000000000000000000000000\n        /* \"#utility.yul\":10431:10432   */\n      0x00\n        /* \"#utility.yul\":10424:10512   */\n      mstore\n        /* \"#utility.yul\":10531:10535   */\n      0x41\n        /* \"#utility.yul\":10528:10529   */\n      0x04\n        /* \"#utility.yul\":10521:10536   */\n      mstore\n        /* \"#utility.yul\":10555:10559   */\n      0x24\n        /* \"#utility.yul\":10552:10553   */\n      0x00\n        /* \"#utility.yul\":10545:10560   */\n      revert\n        /* \"#utility.yul\":10572:10689   */\n    tag_78:\n        /* \"#utility.yul\":10681:10682   */\n      0x00\n        /* \"#utility.yul\":10678:10679   */\n      dup1\n        /* \"#utility.yul\":10671:10683   */\n      revert\n        /* \"#utility.yul\":10695:10812   */\n    tag_55:\n        /* \"#utility.yul\":10804:10805   */\n      0x00\n        /* \"#utility.yul\":10801:10802   */\n      dup1\n        /* \"#utility.yul\":10794:10806   */\n      revert\n        /* \"#utility.yul\":10818:10935   */\n    tag_99:\n        /* \"#utility.yul\":10927:10928   */\n      0x00\n        /* \"#utility.yul\":10924:10925   */\n      dup1\n        /* \"#utility.yul\":10917:10929   */\n      revert\n        /* \"#utility.yul\":10941:11058   */\n    tag_92:\n        /* \"#utility.yul\":11050:11051   */\n      0x00\n        /* \"#utility.yul\":11047:11048   */\n      dup1\n        /* \"#utility.yul\":11040:11052   */\n      revert\n        /* \"#utility.yul\":11064:11166   */\n    tag_147:\n        /* \"#utility.yul\":11105:11111   */\n      0x00\n        /* \"#utility.yul\":11156:11158   */\n      0x1f\n        /* \"#utility.yul\":11152:11159   */\n      not\n        /* \"#utility.yul\":11147:11149   */\n      0x1f\n        /* \"#utility.yul\":11140:11145   */\n      dup4\n        /* \"#utility.yul\":11136:11150   */\n      add\n        /* \"#utility.yul\":11132:11160   */\n      and\n        /* \"#utility.yul\":11122:11160   */\n      swap1\n      pop\n        /* \"#utility.yul\":11064:11166   */\n      swap2\n      swap1\n      pop\n      jump\t// out\n        /* \"#utility.yul\":11172:11294   */\n    tag_69:\n        /* \"#utility.yul\":11245:11269   */\n      tag_211\n        /* \"#utility.yul\":11263:11268   */\n      dup2\n        /* \"#utility.yul\":11245:11269   */\n      tag_117\n      jump\t// in\n    tag_211:\n        /* \"#utility.yul\":11238:11243   */\n      dup2\n        /* \"#utility.yul\":11235:11270   */\n      eq\n        /* \"#utility.yul\":11225:11288   */\n      tag_212\n      jumpi\n        /* \"#utility.yul\":11284:11285   */\n      0x00\n        /* \"#utility.yul\":11281:11282   */\n      dup1\n        /* \"#utility.yul\":11274:11286   */\n      revert\n        /* \"#utility.yul\":11225:11288   */\n    tag_212:\n        /* \"#utility.yul\":11172:11294   */\n      pop\n      jump\t// out\n        /* \"#utility.yul\":11300:11416   */\n    tag_73:\n        /* \"#utility.yul\":11370:11391   */\n      tag_214\n        /* \"#utility.yul\":11385:11390   */\n      dup2\n        /* \"#utility.yul\":11370:11391   */\n      tag_135\n      jump\t// in\n    tag_214:\n        /* \"#utility.yul\":11363:11368   */\n      dup2\n        /* \"#utility.yul\":11360:11392   */\n      eq\n        /* \"#utility.yul\":11350:11410   */\n      tag_215\n      jumpi\n        /* \"#utility.yul\":11406:11407   */\n      0x00\n        /* \"#utility.yul\":11403:11404   */\n      dup1\n        /* \"#utility.yul\":11396:11408   */\n      revert\n        /* \"#utility.yul\":11350:11410   */\n    tag_215:\n        /* \"#utility.yul\":11300:11416   */\n      pop\n      jump\t// out\n        /* \"#utility.yul\":11422:11544   */\n    tag_88:\n        /* \"#utility.yul\":11495:11519   */\n      tag_217\n        /* \"#utility.yul\":11513:11518   */\n      dup2\n        /* \"#utility.yul\":11495:11519   */\n      tag_151\n      jump\t// in\n    tag_217:\n        /* \"#utility.yul\":11488:11493   */\n      dup2\n        /* \"#utility.yul\":11485:11520   */\n      eq\n        /* \"#utility.yul\":11475:11538   */\n      tag_218\n      jumpi\n        /* \"#utility.yul\":11534:11535   */\n      0x00\n        /* \"#utility.yul\":11531:11532   */\n      dup1\n        /* \"#utility.yul\":11524:11536   */\n      revert\n        /* \"#utility.yul\":11475:11538   */\n    tag_218:\n        /* \"#utility.yul\":11422:11544   */\n      pop\n      jump\t// out\n    stop\n\n    sub_0: assembly {\n            /* \"Donation.sol\":280:1525  contract Donation {... */\n          mstore(0x40, 0x80)\n            /* \"Donation.sol\":479:755  constructor(string memory name, uint minAmount, bool accept, uint amountNeeded) {... */\n          callvalue\n          dup1\n          iszero\n          tag_1\n          jumpi\n          0x00\n          dup1\n          revert\n        tag_1:\n          pop\n          mload(0x40)\n          sub(codesize, bytecodeSize)\n          dup1\n          bytecodeSize\n          dup4\n          codecopy\n          dup2\n          dup2\n          add\n          0x40\n          mstore\n          dup2\n          add\n          swap1\n          tag_2\n          swap2\n          swap1\n          tag_3\n          jump\t// in\n        tag_2:\n            /* \"Donation.sol\":585:589  name */\n          dup4\n            /* \"Donation.sol\":569:582  _donationName */\n          0x00\n            /* \"Donation.sol\":569:589  _donationName = name */\n          swap1\n          dup1\n          mload\n          swap1\n          0x20\n          add\n          swap1\n          tag_6\n          swap3\n          swap2\n          swap1\n          tag_7\n          jump\t// in\n        tag_6:\n          pop\n            /* \"Donation.sol\":619:628  minAmount */\n          dup3\n            /* \"Donation.sol\":599:616  donationMinAmount */\n          0x01\n            /* \"Donation.sol\":599:628  donationMinAmount = minAmount */\n          dup2\n          swap1\n          sstore\n          pop\n            /* \"Donation.sol\":668:674  accept */\n          dup2\n            /* \"Donation.sol\":638:665  acceptPaymentAfterAmountMet */\n          0x03\n          0x00\n            /* \"Donation.sol\":638:674  acceptPaymentAfterAmountMet = accept */\n          0x0100\n          exp\n          dup2\n          sload\n          dup2\n          0xff\n          mul\n          not\n          and\n          swap1\n          dup4\n          iszero\n          iszero\n          mul\n          or\n          swap1\n          sstore\n          pop\n            /* \"Donation.sol\":707:719  amountNeeded */\n          dup1\n            /* \"Donation.sol\":684:704  donationAmountNeeded */\n          0x02\n            /* \"Donation.sol\":684:719  donationAmountNeeded = amountNeeded */\n          dup2\n          swap1\n          sstore\n          pop\n            /* \"Donation.sol\":738:748  msg.sender */\n          caller\n            /* \"Donation.sol\":729:735  _owner */\n          0x03\n          0x01\n            /* \"Donation.sol\":729:748  _owner = msg.sender */\n          0x0100\n          exp\n          dup2\n          sload\n          dup2\n          0xffffffffffffffffffffffffffffffffffffffff\n          mul\n          not\n          and\n          swap1\n          dup4\n          0xffffffffffffffffffffffffffffffffffffffff\n          and\n          mul\n          or\n          swap1\n          sstore\n          pop\n            /* \"Donation.sol\":479:755  constructor(string memory name, uint minAmount, bool accept, uint amountNeeded) {... */\n          pop\n          pop\n          pop\n          pop\n            /* \"Donation.sol\":280:1525  contract Donation {... */\n          jump(tag_8)\n        tag_7:\n          dup3\n          dup1\n          sload\n          tag_9\n          swap1\n          tag_10\n          jump\t// in\n        tag_9:\n          swap1\n          0x00\n          mstore\n          keccak256(0x00, 0x20)\n          swap1\n          0x1f\n          add\n          0x20\n          swap1\n          div\n          dup2\n          add\n          swap3\n          dup3\n          tag_12\n          jumpi\n          0x00\n          dup6\n          sstore\n          jump(tag_11)\n        tag_12:\n          dup3\n          0x1f\n          lt\n          tag_13\n          jumpi\n          dup1\n          mload\n          not(0xff)\n          and\n          dup4\n          dup1\n          add\n          or\n          dup6\n          sstore\n          jump(tag_11)\n        tag_13:\n          dup3\n          dup1\n          add\n          0x01\n          add\n          dup6\n          sstore\n          dup3\n          iszero\n          tag_11\n          jumpi\n          swap2\n          dup3\n          add\n        tag_14:\n          dup3\n          dup2\n          gt\n          iszero\n          tag_15\n          jumpi\n          dup3\n          mload\n          dup3\n          sstore\n          swap2\n          0x20\n          add\n          swap2\n          swap1\n          0x01\n          add\n          swap1\n          jump(tag_14)\n        tag_15:\n        tag_11:\n          pop\n          swap1\n          pop\n          tag_16\n          swap2\n          swap1\n          tag_17\n          jump\t// in\n        tag_16:\n          pop\n          swap1\n          jump\t// out\n        tag_17:\n        tag_18:\n          dup1\n          dup3\n          gt\n          iszero\n          tag_19\n          jumpi\n          0x00\n          dup2\n          0x00\n          swap1\n          sstore\n          pop\n          0x01\n          add\n          jump(tag_18)\n        tag_19:\n          pop\n          swap1\n          jump\t// out\n            /* \"#utility.yul\":7:428   */\n        tag_21:\n            /* \"#utility.yul\":96:101   */\n          0x00\n            /* \"#utility.yul\":121:187   */\n          tag_23\n            /* \"#utility.yul\":137:186   */\n          tag_24\n            /* \"#utility.yul\":179:185   */\n          dup5\n            /* \"#utility.yul\":137:186   */\n          tag_25\n          jump\t// in\n        tag_24:\n            /* \"#utility.yul\":121:187   */\n          tag_26\n          jump\t// in\n        tag_23:\n            /* \"#utility.yul\":112:187   */\n          swap1\n          pop\n            /* \"#utility.yul\":210:216   */\n          dup3\n            /* \"#utility.yul\":203:208   */\n          dup2\n            /* \"#utility.yul\":196:217   */\n          mstore\n            /* \"#utility.yul\":248:252   */\n          0x20\n            /* \"#utility.yul\":241:246   */\n          dup2\n            /* \"#utility.yul\":237:253   */\n          add\n            /* \"#utility.yul\":286:289   */\n          dup5\n            /* \"#utility.yul\":277:283   */\n          dup5\n            /* \"#utility.yul\":272:275   */\n          dup5\n            /* \"#utility.yul\":268:284   */\n          add\n            /* \"#utility.yul\":265:290   */\n          gt\n            /* \"#utility.yul\":262:374   */\n          iszero\n          tag_27\n          jumpi\n            /* \"#utility.yul\":293:372   */\n          tag_28\n          tag_29\n          jump\t// in\n        tag_28:\n            /* \"#utility.yul\":262:374   */\n        tag_27:\n            /* \"#utility.yul\":383:422   */\n          tag_30\n            /* \"#utility.yul\":415:421   */\n          dup5\n            /* \"#utility.yul\":410:413   */\n          dup3\n            /* \"#utility.yul\":405:408   */\n          dup6\n            /* \"#utility.yul\":383:422   */\n          tag_31\n          jump\t// in\n        tag_30:\n            /* \"#utility.yul\":102:428   */\n          pop\n            /* \"#utility.yul\":7:428   */\n          swap4\n          swap3\n          pop\n          pop\n          pop\n          jump\t// out\n            /* \"#utility.yul\":434:571   */\n        tag_32:\n            /* \"#utility.yul\":488:493   */\n          0x00\n            /* \"#utility.yul\":519:525   */\n          dup2\n            /* \"#utility.yul\":513:526   */\n          mload\n            /* \"#utility.yul\":504:526   */\n          swap1\n          pop\n            /* \"#utility.yul\":535:565   */\n          tag_34\n            /* \"#utility.yul\":559:564   */\n          dup2\n            /* \"#utility.yul\":535:565   */\n          tag_35\n          jump\t// in\n        tag_34:\n            /* \"#utility.yul\":434:571   */\n          swap3\n          swap2\n          pop\n          pop\n          jump\t// out\n            /* \"#utility.yul\":591:946   */\n        tag_36:\n            /* \"#utility.yul\":658:663   */\n          0x00\n            /* \"#utility.yul\":707:710   */\n          dup3\n            /* \"#utility.yul\":700:704   */\n          0x1f\n            /* \"#utility.yul\":692:698   */\n          dup4\n            /* \"#utility.yul\":688:705   */\n          add\n            /* \"#utility.yul\":684:711   */\n          slt\n            /* \"#utility.yul\":674:796   */\n          tag_38\n          jumpi\n            /* \"#utility.yul\":715:794   */\n          tag_39\n          tag_40\n          jump\t// in\n        tag_39:\n            /* \"#utility.yul\":674:796   */\n        tag_38:\n            /* \"#utility.yul\":825:831   */\n          dup2\n            /* \"#utility.yul\":819:832   */\n          mload\n            /* \"#utility.yul\":850:940   */\n          tag_41\n            /* \"#utility.yul\":936:939   */\n          dup5\n            /* \"#utility.yul\":928:934   */\n          dup3\n            /* \"#utility.yul\":921:925   */\n          0x20\n            /* \"#utility.yul\":913:919   */\n          dup7\n            /* \"#utility.yul\":909:926   */\n          add\n            /* \"#utility.yul\":850:940   */\n          tag_21\n          jump\t// in\n        tag_41:\n            /* \"#utility.yul\":841:940   */\n          swap2\n          pop\n            /* \"#utility.yul\":664:946   */\n          pop\n            /* \"#utility.yul\":591:946   */\n          swap3\n          swap2\n          pop\n          pop\n          jump\t// out\n            /* \"#utility.yul\":952:1095   */\n        tag_42:\n            /* \"#utility.yul\":1009:1014   */\n          0x00\n            /* \"#utility.yul\":1040:1046   */\n          dup2\n            /* \"#utility.yul\":1034:1047   */\n          mload\n            /* \"#utility.yul\":1025:1047   */\n          swap1\n          pop\n            /* \"#utility.yul\":1056:1089   */\n          tag_44\n            /* \"#utility.yul\":1083:1088   */\n          dup2\n            /* \"#utility.yul\":1056:1089   */\n          tag_45\n          jump\t// in\n        tag_44:\n            /* \"#utility.yul\":952:1095   */\n          swap3\n          swap2\n          pop\n          pop\n          jump\t// out\n            /* \"#utility.yul\":1101:2088   */\n        tag_3:\n            /* \"#utility.yul\":1205:1211   */\n          0x00\n            /* \"#utility.yul\":1213:1219   */\n          dup1\n            /* \"#utility.yul\":1221:1227   */\n          0x00\n            /* \"#utility.yul\":1229:1235   */\n          dup1\n            /* \"#utility.yul\":1278:1281   */\n          0x80\n            /* \"#utility.yul\":1266:1275   */\n          dup6\n            /* \"#utility.yul\":1257:1264   */\n          dup8\n            /* \"#utility.yul\":1253:1276   */\n          sub\n            /* \"#utility.yul\":1249:1282   */\n          slt\n            /* \"#utility.yul\":1246:1366   */\n          iszero\n          tag_47\n          jumpi\n            /* \"#utility.yul\":1285:1364   */\n          tag_48\n          tag_49\n          jump\t// in\n        tag_48:\n            /* \"#utility.yul\":1246:1366   */\n        tag_47:\n            /* \"#utility.yul\":1426:1427   */\n          0x00\n            /* \"#utility.yul\":1415:1424   */\n          dup6\n            /* \"#utility.yul\":1411:1428   */\n          add\n            /* \"#utility.yul\":1405:1429   */\n          mload\n            /* \"#utility.yul\":1456:1474   */\n          0xffffffffffffffff\n            /* \"#utility.yul\":1448:1454   */\n          dup2\n            /* \"#utility.yul\":1445:1475   */\n          gt\n            /* \"#utility.yul\":1442:1559   */\n          iszero\n          tag_50\n          jumpi\n            /* \"#utility.yul\":1478:1557   */\n          tag_51\n          tag_52\n          jump\t// in\n        tag_51:\n            /* \"#utility.yul\":1442:1559   */\n        tag_50:\n            /* \"#utility.yul\":1583:1657   */\n          tag_53\n            /* \"#utility.yul\":1649:1656   */\n          dup8\n            /* \"#utility.yul\":1640:1646   */\n          dup3\n            /* \"#utility.yul\":1629:1638   */\n          dup9\n            /* \"#utility.yul\":1625:1647   */\n          add\n            /* \"#utility.yul\":1583:1657   */\n          tag_36\n          jump\t// in\n        tag_53:\n            /* \"#utility.yul\":1573:1657   */\n          swap5\n          pop\n            /* \"#utility.yul\":1376:1667   */\n          pop\n            /* \"#utility.yul\":1706:1708   */\n          0x20\n            /* \"#utility.yul\":1732:1796   */\n          tag_54\n            /* \"#utility.yul\":1788:1795   */\n          dup8\n            /* \"#utility.yul\":1779:1785   */\n          dup3\n            /* \"#utility.yul\":1768:1777   */\n          dup9\n            /* \"#utility.yul\":1764:1786   */\n          add\n            /* \"#utility.yul\":1732:1796   */\n          tag_42\n          jump\t// in\n        tag_54:\n            /* \"#utility.yul\":1722:1796   */\n          swap4\n          pop\n            /* \"#utility.yul\":1677:1806   */\n          pop\n            /* \"#utility.yul\":1845:1847   */\n          0x40\n            /* \"#utility.yul\":1871:1932   */\n          tag_55\n            /* \"#utility.yul\":1924:1931   */\n          dup8\n            /* \"#utility.yul\":1915:1921   */\n          dup3\n            /* \"#utility.yul\":1904:1913   */\n          dup9\n            /* \"#utility.yul\":1900:1922   */\n          add\n            /* \"#utility.yul\":1871:1932   */\n          tag_32\n          jump\t// in\n        tag_55:\n            /* \"#utility.yul\":1861:1932   */\n          swap3\n          pop\n            /* \"#utility.yul\":1816:1942   */\n          pop\n            /* \"#utility.yul\":1981:1983   */\n          0x60\n            /* \"#utility.yul\":2007:2071   */\n          tag_56\n            /* \"#utility.yul\":2063:2070   */\n          dup8\n            /* \"#utility.yul\":2054:2060   */\n          dup3\n            /* \"#utility.yul\":2043:2052   */\n          dup9\n            /* \"#utility.yul\":2039:2061   */\n          add\n            /* \"#utility.yul\":2007:2071   */\n          tag_42\n          jump\t// in\n        tag_56:\n            /* \"#utility.yul\":1997:2071   */\n          swap2\n          pop\n            /* \"#utility.yul\":1952:2081   */\n          pop\n            /* \"#utility.yul\":1101:2088   */\n          swap3\n          swap6\n          swap2\n          swap5\n          pop\n          swap3\n          pop\n          jump\t// out\n            /* \"#utility.yul\":2094:2223   */\n        tag_26:\n            /* \"#utility.yul\":2128:2134   */\n          0x00\n            /* \"#utility.yul\":2155:2175   */\n          tag_58\n          tag_59\n          jump\t// in\n        tag_58:\n            /* \"#utility.yul\":2145:2175   */\n          swap1\n          pop\n            /* \"#utility.yul\":2184:2217   */\n          tag_60\n            /* \"#utility.yul\":2212:2216   */\n          dup3\n            /* \"#utility.yul\":2204:2210   */\n          dup3\n            /* \"#utility.yul\":2184:2217   */\n          tag_61\n          jump\t// in\n        tag_60:\n            /* \"#utility.yul\":2094:2223   */\n          swap2\n          swap1\n          pop\n          jump\t// out\n            /* \"#utility.yul\":2229:2304   */\n        tag_59:\n            /* \"#utility.yul\":2262:2268   */\n          0x00\n            /* \"#utility.yul\":2295:2297   */\n          0x40\n            /* \"#utility.yul\":2289:2298   */\n          mload\n            /* \"#utility.yul\":2279:2298   */\n          swap1\n          pop\n            /* \"#utility.yul\":2229:2304   */\n          swap1\n          jump\t// out\n            /* \"#utility.yul\":2310:2618   */\n        tag_25:\n            /* \"#utility.yul\":2372:2376   */\n          0x00\n            /* \"#utility.yul\":2462:2480   */\n          0xffffffffffffffff\n            /* \"#utility.yul\":2454:2460   */\n          dup3\n            /* \"#utility.yul\":2451:2481   */\n          gt\n            /* \"#utility.yul\":2448:2504   */\n          iszero\n          tag_64\n          jumpi\n            /* \"#utility.yul\":2484:2502   */\n          tag_65\n          tag_66\n          jump\t// in\n        tag_65:\n            /* \"#utility.yul\":2448:2504   */\n        tag_64:\n            /* \"#utility.yul\":2522:2551   */\n          tag_67\n            /* \"#utility.yul\":2544:2550   */\n          dup3\n            /* \"#utility.yul\":2522:2551   */\n          tag_68\n          jump\t// in\n        tag_67:\n            /* \"#utility.yul\":2514:2551   */\n          swap1\n          pop\n            /* \"#utility.yul\":2606:2610   */\n          0x20\n            /* \"#utility.yul\":2600:2604   */\n          dup2\n            /* \"#utility.yul\":2596:2611   */\n          add\n            /* \"#utility.yul\":2588:2611   */\n          swap1\n          pop\n            /* \"#utility.yul\":2310:2618   */\n          swap2\n          swap1\n          pop\n          jump\t// out\n            /* \"#utility.yul\":2624:2714   */\n        tag_69:\n            /* \"#utility.yul\":2658:2665   */\n          0x00\n            /* \"#utility.yul\":2701:2706   */\n          dup2\n            /* \"#utility.yul\":2694:2707   */\n          iszero\n            /* \"#utility.yul\":2687:2708   */\n          iszero\n            /* \"#utility.yul\":2676:2708   */\n          swap1\n          pop\n            /* \"#utility.yul\":2624:2714   */\n          swap2\n          swap1\n          pop\n          jump\t// out\n            /* \"#utility.yul\":2720:2797   */\n        tag_71:\n            /* \"#utility.yul\":2757:2764   */\n          0x00\n            /* \"#utility.yul\":2786:2791   */\n          dup2\n            /* \"#utility.yul\":2775:2791   */\n          swap1\n          pop\n            /* \"#utility.yul\":2720:2797   */\n          swap2\n          swap1\n          pop\n          jump\t// out\n            /* \"#utility.yul\":2803:3110   */\n        tag_31:\n            /* \"#utility.yul\":2871:2872   */\n          0x00\n            /* \"#utility.yul\":2881:2994   */\n        tag_74:\n            /* \"#utility.yul\":2895:2901   */\n          dup4\n            /* \"#utility.yul\":2892:2893   */\n          dup2\n            /* \"#utility.yul\":2889:2902   */\n          lt\n            /* \"#utility.yul\":2881:2994   */\n          iszero\n          tag_76\n          jumpi\n            /* \"#utility.yul\":2980:2981   */\n          dup1\n            /* \"#utility.yul\":2975:2978   */\n          dup3\n            /* \"#utility.yul\":2971:2982   */\n          add\n            /* \"#utility.yul\":2965:2983   */\n          mload\n            /* \"#utility.yul\":2961:2962   */\n          dup2\n            /* \"#utility.yul\":2956:2959   */\n          dup5\n            /* \"#utility.yul\":2952:2963   */\n          add\n            /* \"#utility.yul\":2945:2984   */\n          mstore\n            /* \"#utility.yul\":2917:2919   */\n          0x20\n            /* \"#utility.yul\":2914:2915   */\n          dup2\n            /* \"#utility.yul\":2910:2920   */\n          add\n            /* \"#utility.yul\":2905:2920   */\n          swap1\n          pop\n            /* \"#utility.yul\":2881:2994   */\n          jump(tag_74)\n        tag_76:\n            /* \"#utility.yul\":3012:3018   */\n          dup4\n            /* \"#utility.yul\":3009:3010   */\n          dup2\n            /* \"#utility.yul\":3006:3019   */\n          gt\n            /* \"#utility.yul\":3003:3104   */\n          iszero\n          tag_77\n          jumpi\n            /* \"#utility.yul\":3092:3093   */\n          0x00\n            /* \"#utility.yul\":3083:3089   */\n          dup5\n            /* \"#utility.yul\":3078:3081   */\n          dup5\n            /* \"#utility.yul\":3074:3090   */\n          add\n            /* \"#utility.yul\":3067:3094   */\n          mstore\n            /* \"#utility.yul\":3003:3104   */\n        tag_77:\n            /* \"#utility.yul\":2852:3110   */\n          pop\n            /* \"#utility.yul\":2803:3110   */\n          pop\n          pop\n          pop\n          jump\t// out\n            /* \"#utility.yul\":3116:3436   */\n        tag_10:\n            /* \"#utility.yul\":3160:3166   */\n          0x00\n            /* \"#utility.yul\":3197:3198   */\n          0x02\n            /* \"#utility.yul\":3191:3195   */\n          dup3\n            /* \"#utility.yul\":3187:3199   */\n          div\n            /* \"#utility.yul\":3177:3199   */\n          swap1\n          pop\n            /* \"#utility.yul\":3244:3245   */\n          0x01\n            /* \"#utility.yul\":3238:3242   */\n          dup3\n            /* \"#utility.yul\":3234:3246   */\n          and\n            /* \"#utility.yul\":3265:3283   */\n          dup1\n            /* \"#utility.yul\":3255:3336   */\n          tag_79\n          jumpi\n            /* \"#utility.yul\":3321:3325   */\n          0x7f\n            /* \"#utility.yul\":3313:3319   */\n          dup3\n            /* \"#utility.yul\":3309:3326   */\n          and\n            /* \"#utility.yul\":3299:3326   */\n          swap2\n          pop\n            /* \"#utility.yul\":3255:3336   */\n        tag_79:\n            /* \"#utility.yul\":3383:3385   */\n          0x20\n            /* \"#utility.yul\":3375:3381   */\n          dup3\n            /* \"#utility.yul\":3372:3386   */\n          lt\n            /* \"#utility.yul\":3352:3370   */\n          dup2\n            /* \"#utility.yul\":3349:3387   */\n          eq\n            /* \"#utility.yul\":3346:3430   */\n          iszero\n          tag_80\n          jumpi\n            /* \"#utility.yul\":3402:3420   */\n          tag_81\n          tag_82\n          jump\t// in\n        tag_81:\n            /* \"#utility.yul\":3346:3430   */\n        tag_80:\n            /* \"#utility.yul\":3167:3436   */\n          pop\n            /* \"#utility.yul\":3116:3436   */\n          swap2\n          swap1\n          pop\n          jump\t// out\n            /* \"#utility.yul\":3442:3723   */\n        tag_61:\n            /* \"#utility.yul\":3525:3552   */\n          tag_84\n            /* \"#utility.yul\":3547:3551   */\n          dup3\n            /* \"#utility.yul\":3525:3552   */\n          tag_68\n          jump\t// in\n        tag_84:\n            /* \"#utility.yul\":3517:3523   */\n          dup2\n            /* \"#utility.yul\":3513:3553   */\n          add\n            /* \"#utility.yul\":3655:3661   */\n          dup2\n            /* \"#utility.yul\":3643:3653   */\n          dup2\n            /* \"#utility.yul\":3640:3662   */\n          lt\n            /* \"#utility.yul\":3619:3637   */\n          0xffffffffffffffff\n            /* \"#utility.yul\":3607:3617   */\n          dup3\n            /* \"#utility.yul\":3604:3638   */\n          gt\n            /* \"#utility.yul\":3601:3663   */\n          or\n            /* \"#utility.yul\":3598:3686   */\n          iszero\n          tag_85\n          jumpi\n            /* \"#utility.yul\":3666:3684   */\n          tag_86\n          tag_66\n          jump\t// in\n        tag_86:\n            /* \"#utility.yul\":3598:3686   */\n        tag_85:\n            /* \"#utility.yul\":3706:3716   */\n          dup1\n            /* \"#utility.yul\":3702:3704   */\n          0x40\n            /* \"#utility.yul\":3695:3717   */\n          mstore\n            /* \"#utility.yul\":3485:3723   */\n          pop\n            /* \"#utility.yul\":3442:3723   */\n          pop\n          pop\n          jump\t// out\n            /* \"#utility.yul\":3729:3909   */\n        tag_82:\n            /* \"#utility.yul\":3777:3854   */\n          0x4e487b7100000000000000000000000000000000000000000000000000000000\n            /* \"#utility.yul\":3774:3775   */\n          0x00\n            /* \"#utility.yul\":3767:3855   */\n          mstore\n            /* \"#utility.yul\":3874:3878   */\n          0x22\n            /* \"#utility.yul\":3871:3872   */\n          0x04\n            /* \"#utility.yul\":3864:3879   */\n          mstore\n            /* \"#utility.yul\":3898:3902   */\n          0x24\n            /* \"#utility.yul\":3895:3896   */\n          0x00\n            /* \"#utility.yul\":3888:3903   */\n          revert\n            /* \"#utility.yul\":3915:4095   */\n        tag_66:\n            /* \"#utility.yul\":3963:4040   */\n          0x4e487b7100000000000000000000000000000000000000000000000000000000\n            /* \"#utility.yul\":3960:3961   */\n          0x00\n            /* \"#utility.yul\":3953:4041   */\n          mstore\n            /* \"#utility.yul\":4060:4064   */\n          0x41\n            /* \"#utility.yul\":4057:4058   */\n          0x04\n            /* \"#utility.yul\":4050:4065   */\n          mstore\n            /* \"#utility.yul\":4084:4088   */\n          0x24\n            /* \"#utility.yul\":4081:4082   */\n          0x00\n            /* \"#utility.yul\":4074:4089   */\n          revert\n            /* \"#utility.yul\":4101:4218   */\n        tag_40:\n            /* \"#utility.yul\":4210:4211   */\n          0x00\n            /* \"#utility.yul\":4207:4208   */\n          dup1\n            /* \"#utility.yul\":4200:4212   */\n          revert\n            /* \"#utility.yul\":4224:4341   */\n        tag_29:\n            /* \"#utility.yul\":4333:4334   */\n          0x00\n            /* \"#utility.yul\":4330:4331   */\n          dup1\n            /* \"#utility.yul\":4323:4335   */\n          revert\n            /* \"#utility.yul\":4347:4464   */\n        tag_52:\n            /* \"#utility.yul\":4456:4457   */\n          0x00\n            /* \"#utility.yul\":4453:4454   */\n          dup1\n            /* \"#utility.yul\":4446:4458   */\n          revert\n            /* \"#utility.yul\":4470:4587   */\n        tag_49:\n            /* \"#utility.yul\":4579:4580   */\n          0x00\n            /* \"#utility.yul\":4576:4577   */\n          dup1\n            /* \"#utility.yul\":4569:4581   */\n          revert\n            /* \"#utility.yul\":4593:4695   */\n        tag_68:\n            /* \"#utility.yul\":4634:4640   */\n          0x00\n            /* \"#utility.yul\":4685:4687   */\n          0x1f\n            /* \"#utility.yul\":4681:4688   */\n          not\n            /* \"#utility.yul\":4676:4678   */\n          0x1f\n            /* \"#utility.yul\":4669:4674   */\n          dup4\n            /* \"#utility.yul\":4665:4679   */\n          add\n            /* \"#utility.yul\":4661:4689   */\n          and\n            /* \"#utility.yul\":4651:4689   */\n          swap1\n          pop\n            /* \"#utility.yul\":4593:4695   */\n          swap2\n          swap1\n          pop\n          jump\t// out\n            /* \"#utility.yul\":4701:4817   */\n        tag_35:\n            /* \"#utility.yul\":4771:4792   */\n          tag_95\n            /* \"#utility.yul\":4786:4791   */\n          dup2\n            /* \"#utility.yul\":4771:4792   */\n          tag_69\n          jump\t// in\n        tag_95:\n            /* \"#utility.yul\":4764:4769   */\n          dup2\n            /* \"#utility.yul\":4761:4793   */\n          eq\n            /* \"#utility.yul\":4751:4811   */\n          tag_96\n          jumpi\n            /* \"#utility.yul\":4807:4808   */\n          0x00\n            /* \"#utility.yul\":4804:4805   */\n          dup1\n            /* \"#utility.yul\":4797:4809   */\n          revert\n            /* \"#utility.yul\":4751:4811   */\n        tag_96:\n            /* \"#utility.yul\":4701:4817   */\n          pop\n          jump\t// out\n            /* \"#utility.yul\":4823:4945   */\n        tag_45:\n            /* \"#utility.yul\":4896:4920   */\n          tag_98\n            /* \"#utility.yul\":4914:4919   */\n          dup2\n            /* \"#utility.yul\":4896:4920   */\n          tag_71\n          jump\t// in\n        tag_98:\n            /* \"#utility.yul\":4889:4894   */\n          dup2\n            /* \"#utility.yul\":4886:4921   */\n          eq\n            /* \"#utility.yul\":4876:4939   */\n          tag_99\n          jumpi\n            /* \"#utility.yul\":4935:4936   */\n          0x00\n            /* \"#utility.yul\":4932:4933   */\n          dup1\n            /* \"#utility.yul\":4925:4937   */\n          revert\n            /* \"#utility.yul\":4876:4939   */\n        tag_99:\n            /* \"#utility.yul\":4823:4945   */\n          pop\n          jump\t// out\n            /* \"Donation.sol\":280:1525  contract Donation {... */\n        tag_8:\n          dataSize(sub_0)\n          dup1\n          dataOffset(sub_0)\n          0x00\n          codecopy\n          0x00\n          return\n        stop\n\n        sub_0: assembly {\n                /* \"Donation.sol\":280:1525  contract Donation {... */\n              mstore(0x40, 0x80)\n              jumpi(tag_1, lt(calldatasize, 0x04))\n              shr(0xe0, calldataload(0x00))\n              dup1\n              0xb383bf2d\n              gt\n              tag_10\n              jumpi\n              dup1\n              0xb383bf2d\n              eq\n              tag_6\n              jumpi\n              dup1\n              0xeae3f764\n              eq\n              tag_7\n              jumpi\n              dup1\n              0xed11f46a\n              eq\n              tag_8\n              jumpi\n              dup1\n              0xed88c68e\n              eq\n              tag_9\n              jumpi\n              jump(tag_1)\n            tag_10:\n              dup1\n              0x354ecc85\n              eq\n              tag_2\n              jumpi\n              dup1\n              0x3ccfd60b\n              eq\n              tag_3\n              jumpi\n              dup1\n              0x798be230\n              eq\n              tag_4\n              jumpi\n              dup1\n              0x80fdef1b\n              eq\n              tag_5\n              jumpi\n            tag_1:\n              0x00\n              dup1\n              revert\n                /* \"Donation.sol\":305:332  string public _donationName */\n            tag_2:\n              callvalue\n              dup1\n              iszero\n              tag_11\n              jumpi\n              0x00\n              dup1\n              revert\n            tag_11:\n              pop\n              tag_12\n              tag_13\n              jump\t// in\n            tag_12:\n              mload(0x40)\n              tag_14\n              swap2\n              swap1\n              tag_15\n              jump\t// in\n            tag_14:\n              mload(0x40)\n              dup1\n              swap2\n              sub\n              swap1\n              return\n                /* \"Donation.sol\":1223:1418  function withdraw() public {... */\n            tag_3:\n              callvalue\n              dup1\n              iszero\n              tag_16\n              jumpi\n              0x00\n              dup1\n              revert\n            tag_16:\n              pop\n              tag_17\n              tag_18\n              jump\t// in\n            tag_17:\n              stop\n                /* \"Donation.sol\":411:450  bool public acceptPaymentAfterAmountMet */\n            tag_4:\n              callvalue\n              dup1\n              iszero\n              tag_19\n              jumpi\n              0x00\n              dup1\n              revert\n            tag_19:\n              pop\n              tag_20\n              tag_21\n              jump\t// in\n            tag_20:\n              mload(0x40)\n              tag_22\n              swap2\n              swap1\n              tag_23\n              jump\t// in\n            tag_22:\n              mload(0x40)\n              dup1\n              swap2\n              sub\n              swap1\n              return\n                /* \"Donation.sol\":373:405  uint public donationAmountNeeded */\n            tag_5:\n              callvalue\n              dup1\n              iszero\n              tag_24\n              jumpi\n              0x00\n              dup1\n              revert\n            tag_24:\n              pop\n              tag_25\n              tag_26\n              jump\t// in\n            tag_25:\n              mload(0x40)\n              tag_27\n              swap2\n              swap1\n              tag_28\n              jump\t// in\n            tag_27:\n              mload(0x40)\n              dup1\n              swap2\n              sub\n              swap1\n              return\n                /* \"Donation.sol\":338:367  uint public donationMinAmount */\n            tag_6:\n              callvalue\n              dup1\n              iszero\n              tag_29\n              jumpi\n              0x00\n              dup1\n              revert\n            tag_29:\n              pop\n              tag_30\n              tag_31\n              jump\t// in\n            tag_30:\n              mload(0x40)\n              tag_32\n              swap2\n              swap1\n              tag_28\n              jump\t// in\n            tag_32:\n              mload(0x40)\n              dup1\n              swap2\n              sub\n              swap1\n              return\n                /* \"Donation.sol\":1424:1523  function getDonationName() public view returns (string memory){... */\n            tag_7:\n              callvalue\n              dup1\n              iszero\n              tag_33\n              jumpi\n              0x00\n              dup1\n              revert\n            tag_33:\n              pop\n              tag_34\n              tag_35\n              jump\t// in\n            tag_34:\n              mload(0x40)\n              tag_36\n              swap2\n              swap1\n              tag_15\n              jump\t// in\n            tag_36:\n              mload(0x40)\n              dup1\n              swap2\n              sub\n              swap1\n              return\n                /* \"Donation.sol\":1116:1217  function donationBalance() view external returns (uint) {... */\n            tag_8:\n              callvalue\n              dup1\n              iszero\n              tag_37\n              jumpi\n              0x00\n              dup1\n              revert\n            tag_37:\n              pop\n              tag_38\n              tag_39\n              jump\t// in\n            tag_38:\n              mload(0x40)\n              tag_40\n              swap2\n              swap1\n              tag_28\n              jump\t// in\n            tag_40:\n              mload(0x40)\n              dup1\n              swap2\n              sub\n              swap1\n              return\n                /* \"Donation.sol\":762:1110  function donate() payable external {... */\n            tag_9:\n              tag_41\n              tag_42\n              jump\t// in\n            tag_41:\n              stop\n                /* \"Donation.sol\":305:332  string public _donationName */\n            tag_13:\n              0x00\n              dup1\n              sload\n              tag_43\n              swap1\n              tag_44\n              jump\t// in\n            tag_43:\n              dup1\n              0x1f\n              add\n              0x20\n              dup1\n              swap2\n              div\n              mul\n              0x20\n              add\n              mload(0x40)\n              swap1\n              dup2\n              add\n              0x40\n              mstore\n              dup1\n              swap3\n              swap2\n              swap1\n              dup2\n              dup2\n              mstore\n              0x20\n              add\n              dup3\n              dup1\n              sload\n              tag_45\n              swap1\n              tag_44\n              jump\t// in\n            tag_45:\n              dup1\n              iszero\n              tag_46\n              jumpi\n              dup1\n              0x1f\n              lt\n              tag_47\n              jumpi\n              0x0100\n              dup1\n              dup4\n              sload\n              div\n              mul\n              dup4\n              mstore\n              swap2\n              0x20\n              add\n              swap2\n              jump(tag_46)\n            tag_47:\n              dup3\n              add\n              swap2\n              swap1\n              0x00\n              mstore\n              keccak256(0x00, 0x20)\n              swap1\n            tag_48:\n              dup2\n              sload\n              dup2\n              mstore\n              swap1\n              0x01\n              add\n              swap1\n              0x20\n              add\n              dup1\n              dup4\n              gt\n              tag_48\n              jumpi\n              dup3\n              swap1\n              sub\n              0x1f\n              and\n              dup3\n              add\n              swap2\n            tag_46:\n              pop\n              pop\n              pop\n              pop\n              pop\n              dup2\n              jump\t// out\n                /* \"Donation.sol\":1223:1418  function withdraw() public {... */\n            tag_18:\n                /* \"Donation.sol\":1278:1288  msg.sender */\n              caller\n                /* \"Donation.sol\":1268:1288  _owner == msg.sender */\n              0xffffffffffffffffffffffffffffffffffffffff\n              and\n                /* \"Donation.sol\":1268:1274  _owner */\n              0x03\n              0x01\n              swap1\n              sload\n              swap1\n              0x0100\n              exp\n              swap1\n              div\n              0xffffffffffffffffffffffffffffffffffffffff\n              and\n                /* \"Donation.sol\":1268:1288  _owner == msg.sender */\n              0xffffffffffffffffffffffffffffffffffffffff\n              and\n              eq\n                /* \"Donation.sol\":1260:1341  require(_owner == msg.sender, \"Only owner of this donation can withdraw from it\") */\n              tag_50\n              jumpi\n              mload(0x40)\n              0x08c379a000000000000000000000000000000000000000000000000000000000\n              dup2\n              mstore\n              0x04\n              add\n              tag_51\n              swap1\n              tag_52\n              jump\t// in\n            tag_51:\n              mload(0x40)\n              dup1\n              swap2\n              sub\n              swap1\n              revert\n            tag_50:\n                /* \"Donation.sol\":1359:1369  msg.sender */\n              caller\n                /* \"Donation.sol\":1351:1375  payable(msg.sender).call */\n              0xffffffffffffffffffffffffffffffffffffffff\n              and\n                /* \"Donation.sol\":1384:1405  address(this).balance */\n              selfbalance\n                /* \"Donation.sol\":1351:1411  payable(msg.sender).call{value: (address(this).balance)}(\"\") */\n              mload(0x40)\n              tag_53\n              swap1\n              tag_54\n              jump\t// in\n            tag_53:\n              0x00\n              mload(0x40)\n              dup1\n              dup4\n              sub\n              dup2\n              dup6\n              dup8\n              gas\n              call\n              swap3\n              pop\n              pop\n              pop\n              returndatasize\n              dup1\n              0x00\n              dup2\n              eq\n              tag_57\n              jumpi\n              mload(0x40)\n              swap2\n              pop\n              and(add(returndatasize, 0x3f), not(0x1f))\n              dup3\n              add\n              0x40\n              mstore\n              returndatasize\n              dup3\n              mstore\n              returndatasize\n              0x00\n              0x20\n              dup5\n              add\n              returndatacopy\n              jump(tag_56)\n            tag_57:\n              0x60\n              swap2\n              pop\n            tag_56:\n              pop\n              pop\n              pop\n                /* \"Donation.sol\":1223:1418  function withdraw() public {... */\n              jump\t// out\n                /* \"Donation.sol\":411:450  bool public acceptPaymentAfterAmountMet */\n            tag_21:\n              0x03\n              0x00\n              swap1\n              sload\n              swap1\n              0x0100\n              exp\n              swap1\n              div\n              0xff\n              and\n              dup2\n              jump\t// out\n                /* \"Donation.sol\":373:405  uint public donationAmountNeeded */\n            tag_26:\n              sload(0x02)\n              dup2\n              jump\t// out\n                /* \"Donation.sol\":338:367  uint public donationMinAmount */\n            tag_31:\n              sload(0x01)\n              dup2\n              jump\t// out\n                /* \"Donation.sol\":1424:1523  function getDonationName() public view returns (string memory){... */\n            tag_35:\n                /* \"Donation.sol\":1472:1485  string memory */\n              0x60\n                /* \"Donation.sol\":1503:1516  _donationName */\n              0x00\n                /* \"Donation.sol\":1496:1516  return _donationName */\n              dup1\n              sload\n              tag_59\n              swap1\n              tag_44\n              jump\t// in\n            tag_59:\n              dup1\n              0x1f\n              add\n              0x20\n              dup1\n              swap2\n              div\n              mul\n              0x20\n              add\n              mload(0x40)\n              swap1\n              dup2\n              add\n              0x40\n              mstore\n              dup1\n              swap3\n              swap2\n              swap1\n              dup2\n              dup2\n              mstore\n              0x20\n              add\n              dup3\n              dup1\n              sload\n              tag_60\n              swap1\n              tag_44\n              jump\t// in\n            tag_60:\n              dup1\n              iszero\n              tag_61\n              jumpi\n              dup1\n              0x1f\n              lt\n              tag_62\n              jumpi\n              0x0100\n              dup1\n              dup4\n              sload\n              div\n              mul\n              dup4\n              mstore\n              swap2\n              0x20\n              add\n              swap2\n              jump(tag_61)\n            tag_62:\n              dup3\n              add\n              swap2\n              swap1\n              0x00\n              mstore\n              keccak256(0x00, 0x20)\n              swap1\n            tag_63:\n              dup2\n              sload\n              dup2\n              mstore\n              swap1\n              0x01\n              add\n              swap1\n              0x20\n              add\n              dup1\n              dup4\n              gt\n              tag_63\n              jumpi\n              dup3\n              swap1\n              sub\n              0x1f\n              and\n              dup3\n              add\n              swap2\n            tag_61:\n              pop\n              pop\n              pop\n              pop\n              pop\n              swap1\n              pop\n                /* \"Donation.sol\":1424:1523  function getDonationName() public view returns (string memory){... */\n              swap1\n              jump\t// out\n                /* \"Donation.sol\":1116:1217  function donationBalance() view external returns (uint) {... */\n            tag_39:\n                /* \"Donation.sol\":1166:1170  uint */\n              0x00\n                /* \"Donation.sol\":1189:1210  address(this).balance */\n              selfbalance\n                /* \"Donation.sol\":1182:1210  return address(this).balance */\n              swap1\n              pop\n                /* \"Donation.sol\":1116:1217  function donationBalance() view external returns (uint) {... */\n              swap1\n              jump\t// out\n                /* \"Donation.sol\":762:1110  function donate() payable external {... */\n            tag_42:\n                /* \"Donation.sol\":828:845  donationMinAmount */\n              sload(0x01)\n                /* \"Donation.sol\":815:824  msg.value */\n              callvalue\n                /* \"Donation.sol\":815:845  msg.value >= donationMinAmount */\n              lt\n              iszero\n                /* \"Donation.sol\":807:887  require(msg.value >= donationMinAmount, \"You cannot donate below ${_minAmount}\") */\n              tag_66\n              jumpi\n              mload(0x40)\n              0x08c379a000000000000000000000000000000000000000000000000000000000\n              dup2\n              mstore\n              0x04\n              add\n              tag_67\n              swap1\n              tag_68\n              jump\t// in\n            tag_67:\n              mload(0x40)\n              dup1\n              swap2\n              sub\n              swap1\n              revert\n            tag_66:\n                /* \"Donation.sol\":902:929  acceptPaymentAfterAmountMet */\n              0x03\n              0x00\n              swap1\n              sload\n              swap1\n              0x0100\n              exp\n              swap1\n              div\n              0xff\n              and\n                /* \"Donation.sol\":897:1104  if (!acceptPaymentAfterAmountMet) {... */\n              tag_69\n              jumpi\n                /* \"Donation.sol\":945:957  uint balance */\n              0x00\n                /* \"Donation.sol\":960:981  address(this).balance */\n              selfbalance\n                /* \"Donation.sol\":945:981  uint balance = address(this).balance */\n              swap1\n              pop\n                /* \"Donation.sol\":1026:1046  donationAmountNeeded */\n              sload(0x02)\n                /* \"Donation.sol\":1013:1022  msg.value */\n              callvalue\n                /* \"Donation.sol\":1003:1010  balance */\n              dup3\n                /* \"Donation.sol\":1003:1022  balance + msg.value */\n              tag_70\n              swap2\n              swap1\n              tag_71\n              jump\t// in\n            tag_70:\n                /* \"Donation.sol\":1003:1046  balance + msg.value <= donationAmountNeeded */\n              gt\n              iszero\n                /* \"Donation.sol\":995:1093  require(balance + msg.value <= donationAmountNeeded, \"Your donation will cross the amount needed\") */\n              tag_72\n              jumpi\n              mload(0x40)\n              0x08c379a000000000000000000000000000000000000000000000000000000000\n              dup2\n              mstore\n              0x04\n              add\n              tag_73\n              swap1\n              tag_74\n              jump\t// in\n            tag_73:\n              mload(0x40)\n              dup1\n              swap2\n              sub\n              swap1\n              revert\n            tag_72:\n                /* \"Donation.sol\":931:1104  {... */\n              pop\n                /* \"Donation.sol\":897:1104  if (!acceptPaymentAfterAmountMet) {... */\n            tag_69:\n                /* \"Donation.sol\":762:1110  function donate() payable external {... */\n              jump\t// out\n                /* \"#utility.yul\":7:116   */\n            tag_76:\n                /* \"#utility.yul\":88:109   */\n              tag_78\n                /* \"#utility.yul\":103:108   */\n              dup2\n                /* \"#utility.yul\":88:109   */\n              tag_79\n              jump\t// in\n            tag_78:\n                /* \"#utility.yul\":83:86   */\n              dup3\n                /* \"#utility.yul\":76:110   */\n              mstore\n                /* \"#utility.yul\":7:116   */\n              pop\n              pop\n              jump\t// out\n                /* \"#utility.yul\":122:486   */\n            tag_80:\n                /* \"#utility.yul\":210:213   */\n              0x00\n                /* \"#utility.yul\":238:277   */\n              tag_82\n                /* \"#utility.yul\":271:276   */\n              dup3\n                /* \"#utility.yul\":238:277   */\n              tag_83\n              jump\t// in\n            tag_82:\n                /* \"#utility.yul\":293:364   */\n              tag_84\n                /* \"#utility.yul\":357:363   */\n              dup2\n                /* \"#utility.yul\":352:355   */\n              dup6\n                /* \"#utility.yul\":293:364   */\n              tag_85\n              jump\t// in\n            tag_84:\n                /* \"#utility.yul\":286:364   */\n              swap4\n              pop\n                /* \"#utility.yul\":373:425   */\n              tag_86\n                /* \"#utility.yul\":418:424   */\n              dup2\n                /* \"#utility.yul\":413:416   */\n              dup6\n                /* \"#utility.yul\":406:410   */\n              0x20\n                /* \"#utility.yul\":399:404   */\n              dup7\n                /* \"#utility.yul\":395:411   */\n              add\n                /* \"#utility.yul\":373:425   */\n              tag_87\n              jump\t// in\n            tag_86:\n                /* \"#utility.yul\":450:479   */\n              tag_88\n                /* \"#utility.yul\":472:478   */\n              dup2\n                /* \"#utility.yul\":450:479   */\n              tag_89\n              jump\t// in\n            tag_88:\n                /* \"#utility.yul\":445:448   */\n              dup5\n                /* \"#utility.yul\":441:480   */\n              add\n                /* \"#utility.yul\":434:480   */\n              swap2\n              pop\n                /* \"#utility.yul\":214:486   */\n              pop\n                /* \"#utility.yul\":122:486   */\n              swap3\n              swap2\n              pop\n              pop\n              jump\t// out\n                /* \"#utility.yul\":492:858   */\n            tag_90:\n                /* \"#utility.yul\":634:637   */\n              0x00\n                /* \"#utility.yul\":655:722   */\n              tag_92\n                /* \"#utility.yul\":719:721   */\n              0x25\n                /* \"#utility.yul\":714:717   */\n              dup4\n                /* \"#utility.yul\":655:722   */\n              tag_85\n              jump\t// in\n            tag_92:\n                /* \"#utility.yul\":648:722   */\n              swap2\n              pop\n                /* \"#utility.yul\":731:824   */\n              tag_93\n                /* \"#utility.yul\":820:823   */\n              dup3\n                /* \"#utility.yul\":731:824   */\n              tag_94\n              jump\t// in\n            tag_93:\n                /* \"#utility.yul\":849:851   */\n              0x40\n                /* \"#utility.yul\":844:847   */\n              dup3\n                /* \"#utility.yul\":840:852   */\n              add\n                /* \"#utility.yul\":833:852   */\n              swap1\n              pop\n                /* \"#utility.yul\":492:858   */\n              swap2\n              swap1\n              pop\n              jump\t// out\n                /* \"#utility.yul\":864:1230   */\n            tag_95:\n                /* \"#utility.yul\":1006:1009   */\n              0x00\n                /* \"#utility.yul\":1027:1094   */\n              tag_97\n                /* \"#utility.yul\":1091:1093   */\n              0x30\n                /* \"#utility.yul\":1086:1089   */\n              dup4\n                /* \"#utility.yul\":1027:1094   */\n              tag_85\n              jump\t// in\n            tag_97:\n                /* \"#utility.yul\":1020:1094   */\n              swap2\n              pop\n                /* \"#utility.yul\":1103:1196   */\n              tag_98\n                /* \"#utility.yul\":1192:1195   */\n              dup3\n                /* \"#utility.yul\":1103:1196   */\n              tag_99\n              jump\t// in\n            tag_98:\n                /* \"#utility.yul\":1221:1223   */\n              0x40\n                /* \"#utility.yul\":1216:1219   */\n              dup3\n                /* \"#utility.yul\":1212:1224   */\n              add\n                /* \"#utility.yul\":1205:1224   */\n              swap1\n              pop\n                /* \"#utility.yul\":864:1230   */\n              swap2\n              swap1\n              pop\n              jump\t// out\n                /* \"#utility.yul\":1236:1602   */\n            tag_100:\n                /* \"#utility.yul\":1378:1381   */\n              0x00\n                /* \"#utility.yul\":1399:1466   */\n              tag_102\n                /* \"#utility.yul\":1463:1465   */\n              0x2a\n                /* \"#utility.yul\":1458:1461   */\n              dup4\n                /* \"#utility.yul\":1399:1466   */\n              tag_85\n              jump\t// in\n            tag_102:\n                /* \"#utility.yul\":1392:1466   */\n              swap2\n              pop\n                /* \"#utility.yul\":1475:1568   */\n              tag_103\n                /* \"#utility.yul\":1564:1567   */\n              dup3\n                /* \"#utility.yul\":1475:1568   */\n              tag_104\n              jump\t// in\n            tag_103:\n                /* \"#utility.yul\":1593:1595   */\n              0x40\n                /* \"#utility.yul\":1588:1591   */\n              dup3\n                /* \"#utility.yul\":1584:1596   */\n              add\n                /* \"#utility.yul\":1577:1596   */\n              swap1\n              pop\n                /* \"#utility.yul\":1236:1602   */\n              swap2\n              swap1\n              pop\n              jump\t// out\n                /* \"#utility.yul\":1608:2006   */\n            tag_105:\n                /* \"#utility.yul\":1767:1770   */\n              0x00\n                /* \"#utility.yul\":1788:1871   */\n              tag_107\n                /* \"#utility.yul\":1869:1870   */\n              0x00\n                /* \"#utility.yul\":1864:1867   */\n              dup4\n                /* \"#utility.yul\":1788:1871   */\n              tag_108\n              jump\t// in\n            tag_107:\n                /* \"#utility.yul\":1781:1871   */\n              swap2\n              pop\n                /* \"#utility.yul\":1880:1973   */\n              tag_109\n                /* \"#utility.yul\":1969:1972   */\n              dup3\n                /* \"#utility.yul\":1880:1973   */\n              tag_110\n              jump\t// in\n            tag_109:\n                /* \"#utility.yul\":1998:1999   */\n              0x00\n                /* \"#utility.yul\":1993:1996   */\n              dup3\n                /* \"#utility.yul\":1989:2000   */\n              add\n                /* \"#utility.yul\":1982:2000   */\n              swap1\n              pop\n                /* \"#utility.yul\":1608:2006   */\n              swap2\n              swap1\n              pop\n              jump\t// out\n                /* \"#utility.yul\":2012:2130   */\n            tag_111:\n                /* \"#utility.yul\":2099:2123   */\n              tag_113\n                /* \"#utility.yul\":2117:2122   */\n              dup2\n                /* \"#utility.yul\":2099:2123   */\n              tag_114\n              jump\t// in\n            tag_113:\n                /* \"#utility.yul\":2094:2097   */\n              dup3\n                /* \"#utility.yul\":2087:2124   */\n              mstore\n                /* \"#utility.yul\":2012:2130   */\n              pop\n              pop\n              jump\t// out\n                /* \"#utility.yul\":2136:2515   */\n            tag_54:\n                /* \"#utility.yul\":2320:2323   */\n              0x00\n                /* \"#utility.yul\":2342:2489   */\n              tag_116\n                /* \"#utility.yul\":2485:2488   */\n              dup3\n                /* \"#utility.yul\":2342:2489   */\n              tag_105\n              jump\t// in\n            tag_116:\n                /* \"#utility.yul\":2335:2489   */\n              swap2\n              pop\n                /* \"#utility.yul\":2506:2509   */\n              dup2\n                /* \"#utility.yul\":2499:2509   */\n              swap1\n              pop\n                /* \"#utility.yul\":2136:2515   */\n              swap2\n              swap1\n              pop\n              jump\t// out\n                /* \"#utility.yul\":2521:2731   */\n            tag_23:\n                /* \"#utility.yul\":2608:2612   */\n              0x00\n                /* \"#utility.yul\":2646:2648   */\n              0x20\n                /* \"#utility.yul\":2635:2644   */\n              dup3\n                /* \"#utility.yul\":2631:2649   */\n              add\n                /* \"#utility.yul\":2623:2649   */\n              swap1\n              pop\n                /* \"#utility.yul\":2659:2724   */\n              tag_118\n                /* \"#utility.yul\":2721:2722   */\n              0x00\n                /* \"#utility.yul\":2710:2719   */\n              dup4\n                /* \"#utility.yul\":2706:2723   */\n              add\n                /* \"#utility.yul\":2697:2703   */\n              dup5\n                /* \"#utility.yul\":2659:2724   */\n              tag_76\n              jump\t// in\n            tag_118:\n                /* \"#utility.yul\":2521:2731   */\n              swap3\n              swap2\n              pop\n              pop\n              jump\t// out\n                /* \"#utility.yul\":2737:3050   */\n            tag_15:\n                /* \"#utility.yul\":2850:2854   */\n              0x00\n                /* \"#utility.yul\":2888:2890   */\n              0x20\n                /* \"#utility.yul\":2877:2886   */\n              dup3\n                /* \"#utility.yul\":2873:2891   */\n              add\n                /* \"#utility.yul\":2865:2891   */\n              swap1\n              pop\n                /* \"#utility.yul\":2937:2946   */\n              dup2\n                /* \"#utility.yul\":2931:2935   */\n              dup2\n                /* \"#utility.yul\":2927:2947   */\n              sub\n                /* \"#utility.yul\":2923:2924   */\n              0x00\n                /* \"#utility.yul\":2912:2921   */\n              dup4\n                /* \"#utility.yul\":2908:2925   */\n              add\n                /* \"#utility.yul\":2901:2948   */\n              mstore\n                /* \"#utility.yul\":2965:3043   */\n              tag_120\n                /* \"#utility.yul\":3038:3042   */\n              dup2\n                /* \"#utility.yul\":3029:3035   */\n              dup5\n                /* \"#utility.yul\":2965:3043   */\n              tag_80\n              jump\t// in\n            tag_120:\n                /* \"#utility.yul\":2957:3043   */\n              swap1\n              pop\n                /* \"#utility.yul\":2737:3050   */\n              swap3\n              swap2\n              pop\n              pop\n              jump\t// out\n                /* \"#utility.yul\":3056:3475   */\n            tag_68:\n                /* \"#utility.yul\":3222:3226   */\n              0x00\n                /* \"#utility.yul\":3260:3262   */\n              0x20\n                /* \"#utility.yul\":3249:3258   */\n              dup3\n                /* \"#utility.yul\":3245:3263   */\n              add\n                /* \"#utility.yul\":3237:3263   */\n              swap1\n              pop\n                /* \"#utility.yul\":3309:3318   */\n              dup2\n                /* \"#utility.yul\":3303:3307   */\n              dup2\n                /* \"#utility.yul\":3299:3319   */\n              sub\n                /* \"#utility.yul\":3295:3296   */\n              0x00\n                /* \"#utility.yul\":3284:3293   */\n              dup4\n                /* \"#utility.yul\":3280:3297   */\n              add\n                /* \"#utility.yul\":3273:3320   */\n              mstore\n                /* \"#utility.yul\":3337:3468   */\n              tag_122\n                /* \"#utility.yul\":3463:3467   */\n              dup2\n                /* \"#utility.yul\":3337:3468   */\n              tag_90\n              jump\t// in\n            tag_122:\n                /* \"#utility.yul\":3329:3468   */\n              swap1\n              pop\n                /* \"#utility.yul\":3056:3475   */\n              swap2\n              swap1\n              pop\n              jump\t// out\n                /* \"#utility.yul\":3481:3900   */\n            tag_52:\n                /* \"#utility.yul\":3647:3651   */\n              0x00\n                /* \"#utility.yul\":3685:3687   */\n              0x20\n                /* \"#utility.yul\":3674:3683   */\n              dup3\n                /* \"#utility.yul\":3670:3688   */\n              add\n                /* \"#utility.yul\":3662:3688   */\n              swap1\n              pop\n                /* \"#utility.yul\":3734:3743   */\n              dup2\n                /* \"#utility.yul\":3728:3732   */\n              dup2\n                /* \"#utility.yul\":3724:3744   */\n              sub\n                /* \"#utility.yul\":3720:3721   */\n              0x00\n                /* \"#utility.yul\":3709:3718   */\n              dup4\n                /* \"#utility.yul\":3705:3722   */\n              add\n                /* \"#utility.yul\":3698:3745   */\n              mstore\n                /* \"#utility.yul\":3762:3893   */\n              tag_124\n                /* \"#utility.yul\":3888:3892   */\n              dup2\n                /* \"#utility.yul\":3762:3893   */\n              tag_95\n              jump\t// in\n            tag_124:\n                /* \"#utility.yul\":3754:3893   */\n              swap1\n              pop\n                /* \"#utility.yul\":3481:3900   */\n              swap2\n              swap1\n              pop\n              jump\t// out\n                /* \"#utility.yul\":3906:4325   */\n            tag_74:\n                /* \"#utility.yul\":4072:4076   */\n              0x00\n                /* \"#utility.yul\":4110:4112   */\n              0x20\n                /* \"#utility.yul\":4099:4108   */\n              dup3\n                /* \"#utility.yul\":4095:4113   */\n              add\n                /* \"#utility.yul\":4087:4113   */\n              swap1\n              pop\n                /* \"#utility.yul\":4159:4168   */\n              dup2\n                /* \"#utility.yul\":4153:4157   */\n              dup2\n                /* \"#utility.yul\":4149:4169   */\n              sub\n                /* \"#utility.yul\":4145:4146   */\n              0x00\n                /* \"#utility.yul\":4134:4143   */\n              dup4\n                /* \"#utility.yul\":4130:4147   */\n              add\n                /* \"#utility.yul\":4123:4170   */\n              mstore\n                /* \"#utility.yul\":4187:4318   */\n              tag_126\n                /* \"#utility.yul\":4313:4317   */\n              dup2\n                /* \"#utility.yul\":4187:4318   */\n              tag_100\n              jump\t// in\n            tag_126:\n                /* \"#utility.yul\":4179:4318   */\n              swap1\n              pop\n                /* \"#utility.yul\":3906:4325   */\n              swap2\n              swap1\n              pop\n              jump\t// out\n                /* \"#utility.yul\":4331:4553   */\n            tag_28:\n                /* \"#utility.yul\":4424:4428   */\n              0x00\n                /* \"#utility.yul\":4462:4464   */\n              0x20\n                /* \"#utility.yul\":4451:4460   */\n              dup3\n                /* \"#utility.yul\":4447:4465   */\n              add\n                /* \"#utility.yul\":4439:4465   */\n              swap1\n              pop\n                /* \"#utility.yul\":4475:4546   */\n              tag_128\n                /* \"#utility.yul\":4543:4544   */\n              0x00\n                /* \"#utility.yul\":4532:4541   */\n              dup4\n                /* \"#utility.yul\":4528:4545   */\n              add\n                /* \"#utility.yul\":4519:4525   */\n              dup5\n                /* \"#utility.yul\":4475:4546   */\n              tag_111\n              jump\t// in\n            tag_128:\n                /* \"#utility.yul\":4331:4553   */\n              swap3\n              swap2\n              pop\n              pop\n              jump\t// out\n                /* \"#utility.yul\":4559:4658   */\n            tag_83:\n                /* \"#utility.yul\":4611:4617   */\n              0x00\n                /* \"#utility.yul\":4645:4650   */\n              dup2\n                /* \"#utility.yul\":4639:4651   */\n              mload\n                /* \"#utility.yul\":4629:4651   */\n              swap1\n              pop\n                /* \"#utility.yul\":4559:4658   */\n              swap2\n              swap1\n              pop\n              jump\t// out\n                /* \"#utility.yul\":4664:4811   */\n            tag_108:\n                /* \"#utility.yul\":4765:4776   */\n              0x00\n                /* \"#utility.yul\":4802:4805   */\n              dup2\n                /* \"#utility.yul\":4787:4805   */\n              swap1\n              pop\n                /* \"#utility.yul\":4664:4811   */\n              swap3\n              swap2\n              pop\n              pop\n              jump\t// out\n                /* \"#utility.yul\":4817:4986   */\n            tag_85:\n                /* \"#utility.yul\":4901:4912   */\n              0x00\n                /* \"#utility.yul\":4935:4941   */\n              dup3\n                /* \"#utility.yul\":4930:4933   */\n              dup3\n                /* \"#utility.yul\":4923:4942   */\n              mstore\n                /* \"#utility.yul\":4975:4979   */\n              0x20\n                /* \"#utility.yul\":4970:4973   */\n              dup3\n                /* \"#utility.yul\":4966:4980   */\n              add\n                /* \"#utility.yul\":4951:4980   */\n              swap1\n              pop\n                /* \"#utility.yul\":4817:4986   */\n              swap3\n              swap2\n              pop\n              pop\n              jump\t// out\n                /* \"#utility.yul\":4992:5297   */\n            tag_71:\n                /* \"#utility.yul\":5032:5035   */\n              0x00\n                /* \"#utility.yul\":5051:5071   */\n              tag_133\n                /* \"#utility.yul\":5069:5070   */\n              dup3\n                /* \"#utility.yul\":5051:5071   */\n              tag_114\n              jump\t// in\n            tag_133:\n                /* \"#utility.yul\":5046:5071   */\n              swap2\n              pop\n                /* \"#utility.yul\":5085:5105   */\n              tag_134\n                /* \"#utility.yul\":5103:5104   */\n              dup4\n                /* \"#utility.yul\":5085:5105   */\n              tag_114\n              jump\t// in\n            tag_134:\n                /* \"#utility.yul\":5080:5105   */\n              swap3\n              pop\n                /* \"#utility.yul\":5239:5240   */\n              dup3\n                /* \"#utility.yul\":5171:5237   */\n              0xffffffffffffffffffffffffffffffffffffffffffffffffffffffffffffffff\n                /* \"#utility.yul\":5167:5241   */\n              sub\n                /* \"#utility.yul\":5164:5165   */\n              dup3\n                /* \"#utility.yul\":5161:5242   */\n              gt\n                /* \"#utility.yul\":5158:5265   */\n              iszero\n              tag_135\n              jumpi\n                /* \"#utility.yul\":5245:5263   */\n              tag_136\n              tag_137\n              jump\t// in\n            tag_136:\n                /* \"#utility.yul\":5158:5265   */\n            tag_135:\n                /* \"#utility.yul\":5289:5290   */\n              dup3\n                /* \"#utility.yul\":5286:5287   */\n              dup3\n                /* \"#utility.yul\":5282:5291   */\n              add\n                /* \"#utility.yul\":5275:5291   */\n              swap1\n              pop\n                /* \"#utility.yul\":4992:5297   */\n              swap3\n              swap2\n              pop\n              pop\n              jump\t// out\n                /* \"#utility.yul\":5303:5393   */\n            tag_79:\n                /* \"#utility.yul\":5337:5344   */\n              0x00\n                /* \"#utility.yul\":5380:5385   */\n              dup2\n                /* \"#utility.yul\":5373:5386   */\n              iszero\n                /* \"#utility.yul\":5366:5387   */\n              iszero\n                /* \"#utility.yul\":5355:5387   */\n              swap1\n              pop\n                /* \"#utility.yul\":5303:5393   */\n              swap2\n              swap1\n              pop\n              jump\t// out\n                /* \"#utility.yul\":5399:5476   */\n            tag_114:\n                /* \"#utility.yul\":5436:5443   */\n              0x00\n                /* \"#utility.yul\":5465:5470   */\n              dup2\n                /* \"#utility.yul\":5454:5470   */\n              swap1\n              pop\n                /* \"#utility.yul\":5399:5476   */\n              swap2\n              swap1\n              pop\n              jump\t// out\n                /* \"#utility.yul\":5482:5789   */\n            tag_87:\n                /* \"#utility.yul\":5550:5551   */\n              0x00\n                /* \"#utility.yul\":5560:5673   */\n            tag_141:\n                /* \"#utility.yul\":5574:5580   */\n              dup4\n                /* \"#utility.yul\":5571:5572   */\n              dup2\n                /* \"#utility.yul\":5568:5581   */\n              lt\n                /* \"#utility.yul\":5560:5673   */\n              iszero\n              tag_143\n              jumpi\n                /* \"#utility.yul\":5659:5660   */\n              dup1\n                /* \"#utility.yul\":5654:5657   */\n              dup3\n                /* \"#utility.yul\":5650:5661   */\n              add\n                /* \"#utility.yul\":5644:5662   */\n              mload\n                /* \"#utility.yul\":5640:5641   */\n              dup2\n                /* \"#utility.yul\":5635:5638   */\n              dup5\n                /* \"#utility.yul\":5631:5642   */\n              add\n                /* \"#utility.yul\":5624:5663   */\n              mstore\n                /* \"#utility.yul\":5596:5598   */\n              0x20\n                /* \"#utility.yul\":5593:5594   */\n              dup2\n                /* \"#utility.yul\":5589:5599   */\n              add\n                /* \"#utility.yul\":5584:5599   */\n              swap1\n              pop\n                /* \"#utility.yul\":5560:5673   */\n              jump(tag_141)\n            tag_143:\n                /* \"#utility.yul\":5691:5697   */\n              dup4\n                /* \"#utility.yul\":5688:5689   */\n              dup2\n                /* \"#utility.yul\":5685:5698   */\n              gt\n                /* \"#utility.yul\":5682:5783   */\n              iszero\n              tag_144\n              jumpi\n                /* \"#utility.yul\":5771:5772   */\n              0x00\n                /* \"#utility.yul\":5762:5768   */\n              dup5\n                /* \"#utility.yul\":5757:5760   */\n              dup5\n                /* \"#utility.yul\":5753:5769   */\n              add\n                /* \"#utility.yul\":5746:5773   */\n              mstore\n                /* \"#utility.yul\":5682:5783   */\n            tag_144:\n                /* \"#utility.yul\":5531:5789   */\n              pop\n                /* \"#utility.yul\":5482:5789   */\n              pop\n              pop\n              pop\n              jump\t// out\n                /* \"#utility.yul\":5795:6115   */\n            tag_44:\n                /* \"#utility.yul\":5839:5845   */\n              0x00\n                /* \"#utility.yul\":5876:5877   */\n              0x02\n                /* \"#utility.yul\":5870:5874   */\n              dup3\n                /* \"#utility.yul\":5866:5878   */\n              div\n                /* \"#utility.yul\":5856:5878   */\n              swap1\n              pop\n                /* \"#utility.yul\":5923:5924   */\n              0x01\n                /* \"#utility.yul\":5917:5921   */\n              dup3\n                /* \"#utility.yul\":5913:5925   */\n              and\n                /* \"#utility.yul\":5944:5962   */\n              dup1\n                /* \"#utility.yul\":5934:6015   */\n              tag_146\n              jumpi\n                /* \"#utility.yul\":6000:6004   */\n              0x7f\n                /* \"#utility.yul\":5992:5998   */\n              dup3\n                /* \"#utility.yul\":5988:6005   */\n              and\n                /* \"#utility.yul\":5978:6005   */\n              swap2\n              pop\n                /* \"#utility.yul\":5934:6015   */\n            tag_146:\n                /* \"#utility.yul\":6062:6064   */\n              0x20\n                /* \"#utility.yul\":6054:6060   */\n              dup3\n                /* \"#utility.yul\":6051:6065   */\n              lt\n                /* \"#utility.yul\":6031:6049   */\n              dup2\n                /* \"#utility.yul\":6028:6066   */\n              eq\n                /* \"#utility.yul\":6025:6109   */\n              iszero\n              tag_147\n              jumpi\n                /* \"#utility.yul\":6081:6099   */\n              tag_148\n              tag_149\n              jump\t// in\n            tag_148:\n                /* \"#utility.yul\":6025:6109   */\n            tag_147:\n                /* \"#utility.yul\":5846:6115   */\n              pop\n                /* \"#utility.yul\":5795:6115   */\n              swap2\n              swap1\n              pop\n              jump\t// out\n                /* \"#utility.yul\":6121:6301   */\n            tag_137:\n                /* \"#utility.yul\":6169:6246   */\n              0x4e487b7100000000000000000000000000000000000000000000000000000000\n                /* \"#utility.yul\":6166:6167   */\n              0x00\n                /* \"#utility.yul\":6159:6247   */\n              mstore\n                /* \"#utility.yul\":6266:6270   */\n              0x11\n                /* \"#utility.yul\":6263:6264   */\n              0x04\n                /* \"#utility.yul\":6256:6271   */\n              mstore\n                /* \"#utility.yul\":6290:6294   */\n              0x24\n                /* \"#utility.yul\":6287:6288   */\n              0x00\n                /* \"#utility.yul\":6280:6295   */\n              revert\n                /* \"#utility.yul\":6307:6487   */\n            tag_149:\n                /* \"#utility.yul\":6355:6432   */\n              0x4e487b7100000000000000000000000000000000000000000000000000000000\n                /* \"#utility.yul\":6352:6353   */\n              0x00\n                /* \"#utility.yul\":6345:6433   */\n              mstore\n                /* \"#utility.yul\":6452:6456   */\n              0x22\n                /* \"#utility.yul\":6449:6450   */\n              0x04\n                /* \"#utility.yul\":6442:6457   */\n              mstore\n                /* \"#utility.yul\":6476:6480   */\n              0x24\n                /* \"#utility.yul\":6473:6474   */\n              0x00\n                /* \"#utility.yul\":6466:6481   */\n              revert\n                /* \"#utility.yul\":6493:6595   */\n            tag_89:\n                /* \"#utility.yul\":6534:6540   */\n              0x00\n                /* \"#utility.yul\":6585:6587   */\n              0x1f\n                /* \"#utility.yul\":6581:6588   */\n              not\n                /* \"#utility.yul\":6576:6578   */\n              0x1f\n                /* \"#utility.yul\":6569:6574   */\n              dup4\n                /* \"#utility.yul\":6565:6579   */\n              add\n                /* \"#utility.yul\":6561:6589   */\n              and\n                /* \"#utility.yul\":6551:6589   */\n              swap1\n              pop\n                /* \"#utility.yul\":6493:6595   */\n              swap2\n              swap1\n              pop\n              jump\t// out\n                /* \"#utility.yul\":6601:6825   */\n            tag_94:\n                /* \"#utility.yul\":6741:6775   */\n              0x596f752063616e6e6f7420646f6e6174652062656c6f7720247b5f6d696e416d\n                /* \"#utility.yul\":6737:6738   */\n              0x00\n                /* \"#utility.yul\":6729:6735   */\n              dup3\n                /* \"#utility.yul\":6725:6739   */\n              add\n                /* \"#utility.yul\":6718:6776   */\n              mstore\n                /* \"#utility.yul\":6810:6817   */\n              0x6f756e747d000000000000000000000000000000000000000000000000000000\n                /* \"#utility.yul\":6805:6807   */\n              0x20\n                /* \"#utility.yul\":6797:6803   */\n              dup3\n                /* \"#utility.yul\":6793:6808   */\n              add\n                /* \"#utility.yul\":6786:6818   */\n              mstore\n                /* \"#utility.yul\":6601:6825   */\n              pop\n              jump\t// out\n                /* \"#utility.yul\":6831:7066   */\n            tag_99:\n                /* \"#utility.yul\":6971:7005   */\n              0x4f6e6c79206f776e6572206f66207468697320646f6e6174696f6e2063616e20\n                /* \"#utility.yul\":6967:6968   */\n              0x00\n                /* \"#utility.yul\":6959:6965   */\n              dup3\n                /* \"#utility.yul\":6955:6969   */\n              add\n                /* \"#utility.yul\":6948:7006   */\n              mstore\n                /* \"#utility.yul\":7040:7058   */\n              0x77697468647261772066726f6d20697400000000000000000000000000000000\n                /* \"#utility.yul\":7035:7037   */\n              0x20\n                /* \"#utility.yul\":7027:7033   */\n              dup3\n                /* \"#utility.yul\":7023:7038   */\n              add\n                /* \"#utility.yul\":7016:7059   */\n              mstore\n                /* \"#utility.yul\":6831:7066   */\n              pop\n              jump\t// out\n                /* \"#utility.yul\":7072:7301   */\n            tag_104:\n                /* \"#utility.yul\":7212:7246   */\n              0x596f757220646f6e6174696f6e2077696c6c2063726f73732074686520616d6f\n                /* \"#utility.yul\":7208:7209   */\n              0x00\n                /* \"#utility.yul\":7200:7206   */\n              dup3\n                /* \"#utility.yul\":7196:7210   */\n              add\n                /* \"#utility.yul\":7189:7247   */\n              mstore\n                /* \"#utility.yul\":7281:7293   */\n              0x756e74206e656564656400000000000000000000000000000000000000000000\n                /* \"#utility.yul\":7276:7278   */\n              0x20\n                /* \"#utility.yul\":7268:7274   */\n              dup3\n                /* \"#utility.yul\":7264:7279   */\n              add\n                /* \"#utility.yul\":7257:7294   */\n              mstore\n                /* \"#utility.yul\":7072:7301   */\n              pop\n              jump\t// out\n                /* \"#utility.yul\":7307:7421   */\n            tag_110:\n              pop\n              jump\t// out\n\n            auxdata: 0xa26469706673582212202ad316307aec57b73776b66b26a659f0ab7aca9ef68d5a7bbea1b0d1d11495a064736f6c63430008070033\n        }\n    }\n\n    auxdata: 0xa2646970667358221220d3ff2d4d3f4c347a5a6cad23a4781f08d699e0107977628aaf49b392251d0be164736f6c63430008070033\n}\n",
				"bytecode": {
					"linkReferences": {},
					"object": "608060405234801561001057600080fd5b5061179a806100206000396000f3fe60806040523480156200001157600080fd5b5060043610620000525760003560e01c8063615d1f0314620000575780637c6abc82146200008d578063a6b0363314620000c3578063f4139c5814620000e5575b600080fd5b6200007560048036038101906200006f919062000558565b6200011b565b604051620000849190620006f2565b60405180910390f35b620000ab6004803603810190620000a59190620004d5565b620001ce565b604051620000ba91906200070f565b60405180910390f35b620000cd62000260565b604051620000dc91906200070f565b60405180910390f35b620001036004803603810190620000fd9190620004d5565b620002f0565b60405162000112919062000733565b60405180910390f35b60008085838587604051620001309062000386565b6200013f949392919062000757565b604051809103906000f0801580156200015c573d6000803e3d6000fd5b5090506000819080600181540180825580915050600190039060005260206000200160009091909190916101000a81548173ffffffffffffffffffffffffffffffffffffffff021916908373ffffffffffffffffffffffffffffffffffffffff16021790555080915050949350505050565b606060008054806020026020016040519081016040528092919081815260200182805480156200025457602002820191906000526020600020905b8160009054906101000a900473ffffffffffffffffffffffffffffffffffffffff1673ffffffffffffffffffffffffffffffffffffffff168152602001906001019080831162000209575b50505050509050919050565b60606000805480602002602001604051908101604052809291908181526020018280548015620002e657602002820191906000526020600020905b8160009054906101000a900473ffffffffffffffffffffffffffffffffffffffff1673ffffffffffffffffffffffffffffffffffffffff16815260200190600101908083116200029b575b5050505050905090565b606060008290508073ffffffffffffffffffffffffffffffffffffffff1663eae3f7646040518163ffffffff1660e01b815260040160006040518083038186803b1580156200033e57600080fd5b505afa15801562000353573d6000803e3d6000fd5b505050506040513d6000823e3d601f19601f820116820180604052508101906200037e919062000507565b915050919050565b610d628062000a0383390190565b6000620003ab620003a584620007d4565b620007ab565b905082815260208101848484011115620003ca57620003c962000994565b5b620003d7848285620008e5565b509392505050565b6000620003f6620003f084620007d4565b620007ab565b90508281526020810184848401111562000415576200041462000994565b5b62000422848285620008f4565b509392505050565b6000813590506200043b81620009b4565b92915050565b6000813590506200045281620009ce565b92915050565b600082601f83011262000470576200046f6200098f565b5b81356200048284826020860162000394565b91505092915050565b600082601f830112620004a357620004a26200098f565b5b8151620004b5848260208601620003df565b91505092915050565b600081359050620004cf81620009e8565b92915050565b600060208284031215620004ee57620004ed6200099e565b5b6000620004fe848285016200042a565b91505092915050565b60006020828403121562000520576200051f6200099e565b5b600082015167ffffffffffffffff81111562000541576200054062000999565b5b6200054f848285016200048b565b91505092915050565b600080600080608085870312156200057557620005746200099e565b5b600085013567ffffffffffffffff81111562000596576200059562000999565b5b620005a48782880162000458565b9450506020620005b787828801620004be565b9350506040620005ca8782880162000441565b9250506060620005dd87828801620004be565b91505092959194509250565b6000620005f783836200068f565b60208301905092915050565b6200060e816200085f565b82525050565b600062000621826200081a565b6200062d81856200083d565b93506200063a836200080a565b8060005b8381101562000671578151620006558882620005e9565b9750620006628362000830565b9250506001810190506200063e565b5085935050505092915050565b620006898162000873565b82525050565b6200069a81620008a9565b82525050565b6000620006ad8262000825565b620006b981856200084e565b9350620006cb818560208601620008f4565b620006d681620009a3565b840191505092915050565b620006ec816200089f565b82525050565b600060208201905062000709600083018462000603565b92915050565b600060208201905081810360008301526200072b818462000614565b905092915050565b600060208201905081810360008301526200074f8184620006a0565b905092915050565b60006080820190508181036000830152620007738187620006a0565b9050620007846020830186620006e1565b6200079360408301856200067e565b620007a26060830184620006e1565b95945050505050565b6000620007b7620007ca565b9050620007c582826200092a565b919050565b6000604051905090565b600067ffffffffffffffff821115620007f257620007f162000960565b5b620007fd82620009a3565b9050602081019050919050565b6000819050602082019050919050565b600081519050919050565b600081519050919050565b6000602082019050919050565b600082825260208201905092915050565b600082825260208201905092915050565b60006200086c826200087f565b9050919050565b60008115159050919050565b600073ffffffffffffffffffffffffffffffffffffffff82169050919050565b6000819050919050565b6000620008b682620008bd565b9050919050565b6000620008ca82620008d1565b9050919050565b6000620008de826200087f565b9050919050565b82818337600083830152505050565b60005b8381101562000914578082015181840152602081019050620008f7565b8381111562000924576000848401525b50505050565b6200093582620009a3565b810181811067ffffffffffffffff8211171562000957576200095662000960565b5b80604052505050565b7f4e487b7100000000000000000000000000000000000000000000000000000000600052604160045260246000fd5b600080fd5b600080fd5b600080fd5b600080fd5b6000601f19601f8301169050919050565b620009bf816200085f565b8114620009cb57600080fd5b50565b620009d98162000873565b8114620009e557600080fd5b50565b620009f3816200089f565b8114620009ff57600080fd5b5056fe60806040523480156200001157600080fd5b5060405162000d6238038062000d6283398181016040528101906200003791906200021f565b83600090805190602001906200004f929190620000c3565b508260018190555081600360006101000a81548160ff0219169083151502179055508060028190555033600360016101000a81548173ffffffffffffffffffffffffffffffffffffffff021916908373ffffffffffffffffffffffffffffffffffffffff160217905550505050506200047e565b828054620000d1906200035b565b90600052602060002090601f016020900481019282620000f5576000855562000141565b82601f106200011057805160ff191683800117855562000141565b8280016001018555821562000141579182015b828111156200014057825182559160200191906001019062000123565b5b50905062000150919062000154565b5090565b5b808211156200016f57600081600090555060010162000155565b5090565b60006200018a6200018484620002d9565b620002b0565b905082815260208101848484011115620001a957620001a86200042a565b5b620001b684828562000325565b509392505050565b600081519050620001cf816200044a565b92915050565b600082601f830112620001ed57620001ec62000425565b5b8151620001ff84826020860162000173565b91505092915050565b600081519050620002198162000464565b92915050565b600080600080608085870312156200023c576200023b62000434565b5b600085015167ffffffffffffffff8111156200025d576200025c6200042f565b5b6200026b87828801620001d5565b94505060206200027e8782880162000208565b93505060406200029187828801620001be565b9250506060620002a48782880162000208565b91505092959194509250565b6000620002bc620002cf565b9050620002ca828262000391565b919050565b6000604051905090565b600067ffffffffffffffff821115620002f757620002f6620003f6565b5b620003028262000439565b9050602081019050919050565b60008115159050919050565b6000819050919050565b60005b838110156200034557808201518184015260208101905062000328565b8381111562000355576000848401525b50505050565b600060028204905060018216806200037457607f821691505b602082108114156200038b576200038a620003c7565b5b50919050565b6200039c8262000439565b810181811067ffffffffffffffff82111715620003be57620003bd620003f6565b5b80604052505050565b7f4e487b7100000000000000000000000000000000000000000000000000000000600052602260045260246000fd5b7f4e487b7100000000000000000000000000000000000000000000000000000000600052604160045260246000fd5b600080fd5b600080fd5b600080fd5b600080fd5b6000601f19601f8301169050919050565b62000455816200030f565b81146200046157600080fd5b50565b6200046f816200031b565b81146200047b57600080fd5b50565b6108d4806200048e6000396000f3fe60806040526004361061007b5760003560e01c8063b383bf2d1161004e578063b383bf2d14610118578063eae3f76414610143578063ed11f46a1461016e578063ed88c68e146101995761007b565b8063354ecc85146100805780633ccfd60b146100ab578063798be230146100c257806380fdef1b146100ed575b600080fd5b34801561008c57600080fd5b506100956101a3565b6040516100a291906105aa565b60405180910390f35b3480156100b757600080fd5b506100c0610231565b005b3480156100ce57600080fd5b506100d761032c565b6040516100e4919061058f565b60405180910390f35b3480156100f957600080fd5b5061010261033f565b60405161010f919061062c565b60405180910390f35b34801561012457600080fd5b5061012d610345565b60405161013a919061062c565b60405180910390f35b34801561014f57600080fd5b5061015861034b565b60405161016591906105aa565b60405180910390f35b34801561017a57600080fd5b506101836103dd565b604051610190919061062c565b60405180910390f35b6101a16103e5565b005b600080546101b09061070d565b80601f01602080910402602001604051908101604052809291908181526020018280546101dc9061070d565b80156102295780601f106101fe57610100808354040283529160200191610229565b820191906000526020600020905b81548152906001019060200180831161020c57829003601f168201915b505050505081565b3373ffffffffffffffffffffffffffffffffffffffff16600360019054906101000a900473ffffffffffffffffffffffffffffffffffffffff1673ffffffffffffffffffffffffffffffffffffffff16146102c1576040517f08c379a00000000000000000000000000000000000000000000000000000000081526004016102b8906105ec565b60405180910390fd5b3373ffffffffffffffffffffffffffffffffffffffff16476040516102e59061057a565b60006040518083038185875af1925050503d8060008114610322576040519150601f19603f3d011682016040523d82523d6000602084013e610327565b606091505b505050565b600360009054906101000a900460ff1681565b60025481565b60015481565b60606000805461035a9061070d565b80601f01602080910402602001604051908101604052809291908181526020018280546103869061070d565b80156103d35780601f106103a8576101008083540402835291602001916103d3565b820191906000526020600020905b8154815290600101906020018083116103b657829003601f168201915b5050505050905090565b600047905090565b60015434101561042a576040517f08c379a0000000000000000000000000000000000000000000000000000000008152600401610421906105cc565b60405180910390fd5b600360009054906101000a900460ff166104955760004790506002543482610452919061066e565b1115610493576040517f08c379a000000000000000000000000000000000000000000000000000000000815260040161048a9061060c565b60405180910390fd5b505b565b6104a0816106c4565b82525050565b60006104b182610647565b6104bb818561065d565b93506104cb8185602086016106da565b6104d48161079d565b840191505092915050565b60006104ec60258361065d565b91506104f7826107ae565b604082019050919050565b600061050f60308361065d565b915061051a826107fd565b604082019050919050565b6000610532602a8361065d565b915061053d8261084c565b604082019050919050565b6000610555600083610652565b91506105608261089b565b600082019050919050565b610574816106d0565b82525050565b600061058582610548565b9150819050919050565b60006020820190506105a46000830184610497565b92915050565b600060208201905081810360008301526105c481846104a6565b905092915050565b600060208201905081810360008301526105e5816104df565b9050919050565b6000602082019050818103600083015261060581610502565b9050919050565b6000602082019050818103600083015261062581610525565b9050919050565b6000602082019050610641600083018461056b565b92915050565b600081519050919050565b600081905092915050565b600082825260208201905092915050565b6000610679826106d0565b9150610684836106d0565b9250827fffffffffffffffffffffffffffffffffffffffffffffffffffffffffffffffff038211156106b9576106b861073f565b5b828201905092915050565b60008115159050919050565b6000819050919050565b60005b838110156106f85780820151818401526020810190506106dd565b83811115610707576000848401525b50505050565b6000600282049050600182168061072557607f821691505b602082108114156107395761073861076e565b5b50919050565b7f4e487b7100000000000000000000000000000000000000000000000000000000600052601160045260246000fd5b7f4e487b7100000000000000000000000000000000000000000000000000000000600052602260045260246000fd5b6000601f19601f8301169050919050565b7f596f752063616e6e6f7420646f6e6174652062656c6f7720247b5f6d696e416d60008201527f6f756e747d000000000000000000000000000000000000000000000000000000602082015250565b7f4f6e6c79206f776e6572206f66207468697320646f6e6174696f6e2063616e2060008201527f77697468647261772066726f6d20697400000000000000000000000000000000602082015250565b7f596f757220646f6e6174696f6e2077696c6c2063726f73732074686520616d6f60008201527f756e74206e656564656400000000000000000000000000000000000000000000602082015250565b5056fea26469706673582212202ad316307aec57b73776b66b26a659f0ab7aca9ef68d5a7bbea1b0d1d11495a064736f6c63430008070033a2646970667358221220d3ff2d4d3f4c347a5a6cad23a4781f08d699e0107977628aaf49b392251d0be164736f6c63430008070033",
					"opcodes": "PUSH1 0x80 PUSH1 0x40 MSTORE CALLVALUE DUP1 ISZERO PUSH2 0x10 JUMPI PUSH1 0x0 DUP1 REVERT JUMPDEST POP PUSH2 0x179A DUP1 PUSH2 0x20 PUSH1 0x0 CODECOPY PUSH1 0x0 RETURN INVALID PUSH1 0x80 PUSH1 0x40 MSTORE CALLVALUE DUP1 ISZERO PUSH3 0x11 JUMPI PUSH1 0x0 DUP1 REVERT JUMPDEST POP PUSH1 0x4 CALLDATASIZE LT PUSH3 0x52 JUMPI PUSH1 0x0 CALLDATALOAD PUSH1 0xE0 SHR DUP1 PUSH4 0x615D1F03 EQ PUSH3 0x57 JUMPI DUP1 PUSH4 0x7C6ABC82 EQ PUSH3 0x8D JUMPI DUP1 PUSH4 0xA6B03633 EQ PUSH3 0xC3 JUMPI DUP1 PUSH4 0xF4139C58 EQ PUSH3 0xE5 JUMPI JUMPDEST PUSH1 0x0 DUP1 REVERT JUMPDEST PUSH3 0x75 PUSH1 0x4 DUP1 CALLDATASIZE SUB DUP2 ADD SWAP1 PUSH3 0x6F SWAP2 SWAP1 PUSH3 0x558 JUMP JUMPDEST PUSH3 0x11B JUMP JUMPDEST PUSH1 0x40 MLOAD PUSH3 0x84 SWAP2 SWAP1 PUSH3 0x6F2 JUMP JUMPDEST PUSH1 0x40 MLOAD DUP1 SWAP2 SUB SWAP1 RETURN JUMPDEST PUSH3 0xAB PUSH1 0x4 DUP1 CALLDATASIZE SUB DUP2 ADD SWAP1 PUSH3 0xA5 SWAP2 SWAP1 PUSH3 0x4D5 JUMP JUMPDEST PUSH3 0x1CE JUMP JUMPDEST PUSH1 0x40 MLOAD PUSH3 0xBA SWAP2 SWAP1 PUSH3 0x70F JUMP JUMPDEST PUSH1 0x40 MLOAD DUP1 SWAP2 SUB SWAP1 RETURN JUMPDEST PUSH3 0xCD PUSH3 0x260 JUMP JUMPDEST PUSH1 0x40 MLOAD PUSH3 0xDC SWAP2 SWAP1 PUSH3 0x70F JUMP JUMPDEST PUSH1 0x40 MLOAD DUP1 SWAP2 SUB SWAP1 RETURN JUMPDEST PUSH3 0x103 PUSH1 0x4 DUP1 CALLDATASIZE SUB DUP2 ADD SWAP1 PUSH3 0xFD SWAP2 SWAP1 PUSH3 0x4D5 JUMP JUMPDEST PUSH3 0x2F0 JUMP JUMPDEST PUSH1 0x40 MLOAD PUSH3 0x112 SWAP2 SWAP1 PUSH3 0x733 JUMP JUMPDEST PUSH1 0x40 MLOAD DUP1 SWAP2 SUB SWAP1 RETURN JUMPDEST PUSH1 0x0 DUP1 DUP6 DUP4 DUP6 DUP8 PUSH1 0x40 MLOAD PUSH3 0x130 SWAP1 PUSH3 0x386 JUMP JUMPDEST PUSH3 0x13F SWAP5 SWAP4 SWAP3 SWAP2 SWAP1 PUSH3 0x757 JUMP JUMPDEST PUSH1 0x40 MLOAD DUP1 SWAP2 SUB SWAP1 PUSH1 0x0 CREATE DUP1 ISZERO DUP1 ISZERO PUSH3 0x15C JUMPI RETURNDATASIZE PUSH1 0x0 DUP1 RETURNDATACOPY RETURNDATASIZE PUSH1 0x0 REVERT JUMPDEST POP SWAP1 POP PUSH1 0x0 DUP2 SWAP1 DUP1 PUSH1 0x1 DUP2 SLOAD ADD DUP1 DUP3 SSTORE DUP1 SWAP2 POP POP PUSH1 0x1 SWAP1 SUB SWAP1 PUSH1 0x0 MSTORE PUSH1 0x20 PUSH1 0x0 KECCAK256 ADD PUSH1 0x0 SWAP1 SWAP2 SWAP1 SWAP2 SWAP1 SWAP2 PUSH2 0x100 EXP DUP2 SLOAD DUP2 PUSH20 0xFFFFFFFFFFFFFFFFFFFFFFFFFFFFFFFFFFFFFFFF MUL NOT AND SWAP1 DUP4 PUSH20 0xFFFFFFFFFFFFFFFFFFFFFFFFFFFFFFFFFFFFFFFF AND MUL OR SWAP1 SSTORE POP DUP1 SWAP2 POP POP SWAP5 SWAP4 POP POP POP POP JUMP JUMPDEST PUSH1 0x60 PUSH1 0x0 DUP1 SLOAD DUP1 PUSH1 0x20 MUL PUSH1 0x20 ADD PUSH1 0x40 MLOAD SWAP1 DUP2 ADD PUSH1 0x40 MSTORE DUP1 SWAP3 SWAP2 SWAP1 DUP2 DUP2 MSTORE PUSH1 0x20 ADD DUP3 DUP1 SLOAD DUP1 ISZERO PUSH3 0x254 JUMPI PUSH1 0x20 MUL DUP3 ADD SWAP2 SWAP1 PUSH1 0x0 MSTORE PUSH1 0x20 PUSH1 0x0 KECCAK256 SWAP1 JUMPDEST DUP2 PUSH1 0x0 SWAP1 SLOAD SWAP1 PUSH2 0x100 EXP SWAP1 DIV PUSH20 0xFFFFFFFFFFFFFFFFFFFFFFFFFFFFFFFFFFFFFFFF AND PUSH20 0xFFFFFFFFFFFFFFFFFFFFFFFFFFFFFFFFFFFFFFFF AND DUP2 MSTORE PUSH1 0x20 ADD SWAP1 PUSH1 0x1 ADD SWAP1 DUP1 DUP4 GT PUSH3 0x209 JUMPI JUMPDEST POP POP POP POP POP SWAP1 POP SWAP2 SWAP1 POP JUMP JUMPDEST PUSH1 0x60 PUSH1 0x0 DUP1 SLOAD DUP1 PUSH1 0x20 MUL PUSH1 0x20 ADD PUSH1 0x40 MLOAD SWAP1 DUP2 ADD PUSH1 0x40 MSTORE DUP1 SWAP3 SWAP2 SWAP1 DUP2 DUP2 MSTORE PUSH1 0x20 ADD DUP3 DUP1 SLOAD DUP1 ISZERO PUSH3 0x2E6 JUMPI PUSH1 0x20 MUL DUP3 ADD SWAP2 SWAP1 PUSH1 0x0 MSTORE PUSH1 0x20 PUSH1 0x0 KECCAK256 SWAP1 JUMPDEST DUP2 PUSH1 0x0 SWAP1 SLOAD SWAP1 PUSH2 0x100 EXP SWAP1 DIV PUSH20 0xFFFFFFFFFFFFFFFFFFFFFFFFFFFFFFFFFFFFFFFF AND PUSH20 0xFFFFFFFFFFFFFFFFFFFFFFFFFFFFFFFFFFFFFFFF AND DUP2 MSTORE PUSH1 0x20 ADD SWAP1 PUSH1 0x1 ADD SWAP1 DUP1 DUP4 GT PUSH3 0x29B JUMPI JUMPDEST POP POP POP POP POP SWAP1 POP SWAP1 JUMP JUMPDEST PUSH1 0x60 PUSH1 0x0 DUP3 SWAP1 POP DUP1 PUSH20 0xFFFFFFFFFFFFFFFFFFFFFFFFFFFFFFFFFFFFFFFF AND PUSH4 0xEAE3F764 PUSH1 0x40 MLOAD DUP2 PUSH4 0xFFFFFFFF AND PUSH1 0xE0 SHL DUP2 MSTORE PUSH1 0x4 ADD PUSH1 0x0 PUSH1 0x40 MLOAD DUP1 DUP4 SUB DUP2 DUP7 DUP1 EXTCODESIZE ISZERO DUP1 ISZERO PUSH3 0x33E JUMPI PUSH1 0x0 DUP1 REVERT JUMPDEST POP GAS STATICCALL ISZERO DUP1 ISZERO PUSH3 0x353 JUMPI RETURNDATASIZE PUSH1 0x0 DUP1 RETURNDATACOPY RETURNDATASIZE PUSH1 0x0 REVERT JUMPDEST POP POP POP POP PUSH1 0x40 MLOAD RETURNDATASIZE PUSH1 0x0 DUP3 RETURNDATACOPY RETURNDATASIZE PUSH1 0x1F NOT PUSH1 0x1F DUP3 ADD AND DUP3 ADD DUP1 PUSH1 0x40 MSTORE POP DUP2 ADD SWAP1 PUSH3 0x37E SWAP2 SWAP1 PUSH3 0x507 JUMP JUMPDEST SWAP2 POP POP SWAP2 SWAP1 POP JUMP JUMPDEST PUSH2 0xD62 DUP1 PUSH3 0xA03 DUP4 CODECOPY ADD SWAP1 JUMP JUMPDEST PUSH1 0x0 PUSH3 0x3AB PUSH3 0x3A5 DUP5 PUSH3 0x7D4 JUMP JUMPDEST PUSH3 0x7AB JUMP JUMPDEST SWAP1 POP DUP3 DUP2 MSTORE PUSH1 0x20 DUP2 ADD DUP5 DUP5 DUP5 ADD GT ISZERO PUSH3 0x3CA JUMPI PUSH3 0x3C9 PUSH3 0x994 JUMP JUMPDEST JUMPDEST PUSH3 0x3D7 DUP5 DUP3 DUP6 PUSH3 0x8E5 JUMP JUMPDEST POP SWAP4 SWAP3 POP POP POP JUMP JUMPDEST PUSH1 0x0 PUSH3 0x3F6 PUSH3 0x3F0 DUP5 PUSH3 0x7D4 JUMP JUMPDEST PUSH3 0x7AB JUMP JUMPDEST SWAP1 POP DUP3 DUP2 MSTORE PUSH1 0x20 DUP2 ADD DUP5 DUP5 DUP5 ADD GT ISZERO PUSH3 0x415 JUMPI PUSH3 0x414 PUSH3 0x994 JUMP JUMPDEST JUMPDEST PUSH3 0x422 DUP5 DUP3 DUP6 PUSH3 0x8F4 JUMP JUMPDEST POP SWAP4 SWAP3 POP POP POP JUMP JUMPDEST PUSH1 0x0 DUP2 CALLDATALOAD SWAP1 POP PUSH3 0x43B DUP2 PUSH3 0x9B4 JUMP JUMPDEST SWAP3 SWAP2 POP POP JUMP JUMPDEST PUSH1 0x0 DUP2 CALLDATALOAD SWAP1 POP PUSH3 0x452 DUP2 PUSH3 0x9CE JUMP JUMPDEST SWAP3 SWAP2 POP POP JUMP JUMPDEST PUSH1 0x0 DUP3 PUSH1 0x1F DUP4 ADD SLT PUSH3 0x470 JUMPI PUSH3 0x46F PUSH3 0x98F JUMP JUMPDEST JUMPDEST DUP2 CALLDATALOAD PUSH3 0x482 DUP5 DUP3 PUSH1 0x20 DUP7 ADD PUSH3 0x394 JUMP JUMPDEST SWAP2 POP POP SWAP3 SWAP2 POP POP JUMP JUMPDEST PUSH1 0x0 DUP3 PUSH1 0x1F DUP4 ADD SLT PUSH3 0x4A3 JUMPI PUSH3 0x4A2 PUSH3 0x98F JUMP JUMPDEST JUMPDEST DUP2 MLOAD PUSH3 0x4B5 DUP5 DUP3 PUSH1 0x20 DUP7 ADD PUSH3 0x3DF JUMP JUMPDEST SWAP2 POP POP SWAP3 SWAP2 POP POP JUMP JUMPDEST PUSH1 0x0 DUP2 CALLDATALOAD SWAP1 POP PUSH3 0x4CF DUP2 PUSH3 0x9E8 JUMP JUMPDEST SWAP3 SWAP2 POP POP JUMP JUMPDEST PUSH1 0x0 PUSH1 0x20 DUP3 DUP5 SUB SLT ISZERO PUSH3 0x4EE JUMPI PUSH3 0x4ED PUSH3 0x99E JUMP JUMPDEST JUMPDEST PUSH1 0x0 PUSH3 0x4FE DUP5 DUP3 DUP6 ADD PUSH3 0x42A JUMP JUMPDEST SWAP2 POP POP SWAP3 SWAP2 POP POP JUMP JUMPDEST PUSH1 0x0 PUSH1 0x20 DUP3 DUP5 SUB SLT ISZERO PUSH3 0x520 JUMPI PUSH3 0x51F PUSH3 0x99E JUMP JUMPDEST JUMPDEST PUSH1 0x0 DUP3 ADD MLOAD PUSH8 0xFFFFFFFFFFFFFFFF DUP2 GT ISZERO PUSH3 0x541 JUMPI PUSH3 0x540 PUSH3 0x999 JUMP JUMPDEST JUMPDEST PUSH3 0x54F DUP5 DUP3 DUP6 ADD PUSH3 0x48B JUMP JUMPDEST SWAP2 POP POP SWAP3 SWAP2 POP POP JUMP JUMPDEST PUSH1 0x0 DUP1 PUSH1 0x0 DUP1 PUSH1 0x80 DUP6 DUP8 SUB SLT ISZERO PUSH3 0x575 JUMPI PUSH3 0x574 PUSH3 0x99E JUMP JUMPDEST JUMPDEST PUSH1 0x0 DUP6 ADD CALLDATALOAD PUSH8 0xFFFFFFFFFFFFFFFF DUP2 GT ISZERO PUSH3 0x596 JUMPI PUSH3 0x595 PUSH3 0x999 JUMP JUMPDEST JUMPDEST PUSH3 0x5A4 DUP8 DUP3 DUP9 ADD PUSH3 0x458 JUMP JUMPDEST SWAP5 POP POP PUSH1 0x20 PUSH3 0x5B7 DUP8 DUP3 DUP9 ADD PUSH3 0x4BE JUMP JUMPDEST SWAP4 POP POP PUSH1 0x40 PUSH3 0x5CA DUP8 DUP3 DUP9 ADD PUSH3 0x441 JUMP JUMPDEST SWAP3 POP POP PUSH1 0x60 PUSH3 0x5DD DUP8 DUP3 DUP9 ADD PUSH3 0x4BE JUMP JUMPDEST SWAP2 POP POP SWAP3 SWAP6 SWAP2 SWAP5 POP SWAP3 POP JUMP JUMPDEST PUSH1 0x0 PUSH3 0x5F7 DUP4 DUP4 PUSH3 0x68F JUMP JUMPDEST PUSH1 0x20 DUP4 ADD SWAP1 POP SWAP3 SWAP2 POP POP JUMP JUMPDEST PUSH3 0x60E DUP2 PUSH3 0x85F JUMP JUMPDEST DUP3 MSTORE POP POP JUMP JUMPDEST PUSH1 0x0 PUSH3 0x621 DUP3 PUSH3 0x81A JUMP JUMPDEST PUSH3 0x62D DUP2 DUP6 PUSH3 0x83D JUMP JUMPDEST SWAP4 POP PUSH3 0x63A DUP4 PUSH3 0x80A JUMP JUMPDEST DUP1 PUSH1 0x0 JUMPDEST DUP4 DUP2 LT ISZERO PUSH3 0x671 JUMPI DUP2 MLOAD PUSH3 0x655 DUP9 DUP3 PUSH3 0x5E9 JUMP JUMPDEST SWAP8 POP PUSH3 0x662 DUP4 PUSH3 0x830 JUMP JUMPDEST SWAP3 POP POP PUSH1 0x1 DUP2 ADD SWAP1 POP PUSH3 0x63E JUMP JUMPDEST POP DUP6 SWAP4 POP POP POP POP SWAP3 SWAP2 POP POP JUMP JUMPDEST PUSH3 0x689 DUP2 PUSH3 0x873 JUMP JUMPDEST DUP3 MSTORE POP POP JUMP JUMPDEST PUSH3 0x69A DUP2 PUSH3 0x8A9 JUMP JUMPDEST DUP3 MSTORE POP POP JUMP JUMPDEST PUSH1 0x0 PUSH3 0x6AD DUP3 PUSH3 0x825 JUMP JUMPDEST PUSH3 0x6B9 DUP2 DUP6 PUSH3 0x84E JUMP JUMPDEST SWAP4 POP PUSH3 0x6CB DUP2 DUP6 PUSH1 0x20 DUP7 ADD PUSH3 0x8F4 JUMP JUMPDEST PUSH3 0x6D6 DUP2 PUSH3 0x9A3 JUMP JUMPDEST DUP5 ADD SWAP2 POP POP SWAP3 SWAP2 POP POP JUMP JUMPDEST PUSH3 0x6EC DUP2 PUSH3 0x89F JUMP JUMPDEST DUP3 MSTORE POP POP JUMP JUMPDEST PUSH1 0x0 PUSH1 0x20 DUP3 ADD SWAP1 POP PUSH3 0x709 PUSH1 0x0 DUP4 ADD DUP5 PUSH3 0x603 JUMP JUMPDEST SWAP3 SWAP2 POP POP JUMP JUMPDEST PUSH1 0x0 PUSH1 0x20 DUP3 ADD SWAP1 POP DUP2 DUP2 SUB PUSH1 0x0 DUP4 ADD MSTORE PUSH3 0x72B DUP2 DUP5 PUSH3 0x614 JUMP JUMPDEST SWAP1 POP SWAP3 SWAP2 POP POP JUMP JUMPDEST PUSH1 0x0 PUSH1 0x20 DUP3 ADD SWAP1 POP DUP2 DUP2 SUB PUSH1 0x0 DUP4 ADD MSTORE PUSH3 0x74F DUP2 DUP5 PUSH3 0x6A0 JUMP JUMPDEST SWAP1 POP SWAP3 SWAP2 POP POP JUMP JUMPDEST PUSH1 0x0 PUSH1 0x80 DUP3 ADD SWAP1 POP DUP2 DUP2 SUB PUSH1 0x0 DUP4 ADD MSTORE PUSH3 0x773 DUP2 DUP8 PUSH3 0x6A0 JUMP JUMPDEST SWAP1 POP PUSH3 0x784 PUSH1 0x20 DUP4 ADD DUP7 PUSH3 0x6E1 JUMP JUMPDEST PUSH3 0x793 PUSH1 0x40 DUP4 ADD DUP6 PUSH3 0x67E JUMP JUMPDEST PUSH3 0x7A2 PUSH1 0x60 DUP4 ADD DUP5 PUSH3 0x6E1 JUMP JUMPDEST SWAP6 SWAP5 POP POP POP POP POP JUMP JUMPDEST PUSH1 0x0 PUSH3 0x7B7 PUSH3 0x7CA JUMP JUMPDEST SWAP1 POP PUSH3 0x7C5 DUP3 DUP3 PUSH3 0x92A JUMP JUMPDEST SWAP2 SWAP1 POP JUMP JUMPDEST PUSH1 0x0 PUSH1 0x40 MLOAD SWAP1 POP SWAP1 JUMP JUMPDEST PUSH1 0x0 PUSH8 0xFFFFFFFFFFFFFFFF DUP3 GT ISZERO PUSH3 0x7F2 JUMPI PUSH3 0x7F1 PUSH3 0x960 JUMP JUMPDEST JUMPDEST PUSH3 0x7FD DUP3 PUSH3 0x9A3 JUMP JUMPDEST SWAP1 POP PUSH1 0x20 DUP2 ADD SWAP1 POP SWAP2 SWAP1 POP JUMP JUMPDEST PUSH1 0x0 DUP2 SWAP1 POP PUSH1 0x20 DUP3 ADD SWAP1 POP SWAP2 SWAP1 POP JUMP JUMPDEST PUSH1 0x0 DUP2 MLOAD SWAP1 POP SWAP2 SWAP1 POP JUMP JUMPDEST PUSH1 0x0 DUP2 MLOAD SWAP1 POP SWAP2 SWAP1 POP JUMP JUMPDEST PUSH1 0x0 PUSH1 0x20 DUP3 ADD SWAP1 POP SWAP2 SWAP1 POP JUMP JUMPDEST PUSH1 0x0 DUP3 DUP3 MSTORE PUSH1 0x20 DUP3 ADD SWAP1 POP SWAP3 SWAP2 POP POP JUMP JUMPDEST PUSH1 0x0 DUP3 DUP3 MSTORE PUSH1 0x20 DUP3 ADD SWAP1 POP SWAP3 SWAP2 POP POP JUMP JUMPDEST PUSH1 0x0 PUSH3 0x86C DUP3 PUSH3 0x87F JUMP JUMPDEST SWAP1 POP SWAP2 SWAP1 POP JUMP JUMPDEST PUSH1 0x0 DUP2 ISZERO ISZERO SWAP1 POP SWAP2 SWAP1 POP JUMP JUMPDEST PUSH1 0x0 PUSH20 0xFFFFFFFFFFFFFFFFFFFFFFFFFFFFFFFFFFFFFFFF DUP3 AND SWAP1 POP SWAP2 SWAP1 POP JUMP JUMPDEST PUSH1 0x0 DUP2 SWAP1 POP SWAP2 SWAP1 POP JUMP JUMPDEST PUSH1 0x0 PUSH3 0x8B6 DUP3 PUSH3 0x8BD JUMP JUMPDEST SWAP1 POP SWAP2 SWAP1 POP JUMP JUMPDEST PUSH1 0x0 PUSH3 0x8CA DUP3 PUSH3 0x8D1 JUMP JUMPDEST SWAP1 POP SWAP2 SWAP1 POP JUMP JUMPDEST PUSH1 0x0 PUSH3 0x8DE DUP3 PUSH3 0x87F JUMP JUMPDEST SWAP1 POP SWAP2 SWAP1 POP JUMP JUMPDEST DUP3 DUP2 DUP4 CALLDATACOPY PUSH1 0x0 DUP4 DUP4 ADD MSTORE POP POP POP JUMP JUMPDEST PUSH1 0x0 JUMPDEST DUP4 DUP2 LT ISZERO PUSH3 0x914 JUMPI DUP1 DUP3 ADD MLOAD DUP2 DUP5 ADD MSTORE PUSH1 0x20 DUP2 ADD SWAP1 POP PUSH3 0x8F7 JUMP JUMPDEST DUP4 DUP2 GT ISZERO PUSH3 0x924 JUMPI PUSH1 0x0 DUP5 DUP5 ADD MSTORE JUMPDEST POP POP POP POP JUMP JUMPDEST PUSH3 0x935 DUP3 PUSH3 0x9A3 JUMP JUMPDEST DUP2 ADD DUP2 DUP2 LT PUSH8 0xFFFFFFFFFFFFFFFF DUP3 GT OR ISZERO PUSH3 0x957 JUMPI PUSH3 0x956 PUSH3 0x960 JUMP JUMPDEST JUMPDEST DUP1 PUSH1 0x40 MSTORE POP POP POP JUMP JUMPDEST PUSH32 0x4E487B7100000000000000000000000000000000000000000000000000000000 PUSH1 0x0 MSTORE PUSH1 0x41 PUSH1 0x4 MSTORE PUSH1 0x24 PUSH1 0x0 REVERT JUMPDEST PUSH1 0x0 DUP1 REVERT JUMPDEST PUSH1 0x0 DUP1 REVERT JUMPDEST PUSH1 0x0 DUP1 REVERT JUMPDEST PUSH1 0x0 DUP1 REVERT JUMPDEST PUSH1 0x0 PUSH1 0x1F NOT PUSH1 0x1F DUP4 ADD AND SWAP1 POP SWAP2 SWAP1 POP JUMP JUMPDEST PUSH3 0x9BF DUP2 PUSH3 0x85F JUMP JUMPDEST DUP2 EQ PUSH3 0x9CB JUMPI PUSH1 0x0 DUP1 REVERT JUMPDEST POP JUMP JUMPDEST PUSH3 0x9D9 DUP2 PUSH3 0x873 JUMP JUMPDEST DUP2 EQ PUSH3 0x9E5 JUMPI PUSH1 0x0 DUP1 REVERT JUMPDEST POP JUMP JUMPDEST PUSH3 0x9F3 DUP2 PUSH3 0x89F JUMP JUMPDEST DUP2 EQ PUSH3 0x9FF JUMPI PUSH1 0x0 DUP1 REVERT JUMPDEST POP JUMP INVALID PUSH1 0x80 PUSH1 0x40 MSTORE CALLVALUE DUP1 ISZERO PUSH3 0x11 JUMPI PUSH1 0x0 DUP1 REVERT JUMPDEST POP PUSH1 0x40 MLOAD PUSH3 0xD62 CODESIZE SUB DUP1 PUSH3 0xD62 DUP4 CODECOPY DUP2 DUP2 ADD PUSH1 0x40 MSTORE DUP2 ADD SWAP1 PUSH3 0x37 SWAP2 SWAP1 PUSH3 0x21F JUMP JUMPDEST DUP4 PUSH1 0x0 SWAP1 DUP1 MLOAD SWAP1 PUSH1 0x20 ADD SWAP1 PUSH3 0x4F SWAP3 SWAP2 SWAP1 PUSH3 0xC3 JUMP JUMPDEST POP DUP3 PUSH1 0x1 DUP2 SWAP1 SSTORE POP DUP2 PUSH1 0x3 PUSH1 0x0 PUSH2 0x100 EXP DUP2 SLOAD DUP2 PUSH1 0xFF MUL NOT AND SWAP1 DUP4 ISZERO ISZERO MUL OR SWAP1 SSTORE POP DUP1 PUSH1 0x2 DUP2 SWAP1 SSTORE POP CALLER PUSH1 0x3 PUSH1 0x1 PUSH2 0x100 EXP DUP2 SLOAD DUP2 PUSH20 0xFFFFFFFFFFFFFFFFFFFFFFFFFFFFFFFFFFFFFFFF MUL NOT AND SWAP1 DUP4 PUSH20 0xFFFFFFFFFFFFFFFFFFFFFFFFFFFFFFFFFFFFFFFF AND MUL OR SWAP1 SSTORE POP POP POP POP POP PUSH3 0x47E JUMP JUMPDEST DUP3 DUP1 SLOAD PUSH3 0xD1 SWAP1 PUSH3 0x35B JUMP JUMPDEST SWAP1 PUSH1 0x0 MSTORE PUSH1 0x20 PUSH1 0x0 KECCAK256 SWAP1 PUSH1 0x1F ADD PUSH1 0x20 SWAP1 DIV DUP2 ADD SWAP3 DUP3 PUSH3 0xF5 JUMPI PUSH1 0x0 DUP6 SSTORE PUSH3 0x141 JUMP JUMPDEST DUP3 PUSH1 0x1F LT PUSH3 0x110 JUMPI DUP1 MLOAD PUSH1 0xFF NOT AND DUP4 DUP1 ADD OR DUP6 SSTORE PUSH3 0x141 JUMP JUMPDEST DUP3 DUP1 ADD PUSH1 0x1 ADD DUP6 SSTORE DUP3 ISZERO PUSH3 0x141 JUMPI SWAP2 DUP3 ADD JUMPDEST DUP3 DUP2 GT ISZERO PUSH3 0x140 JUMPI DUP3 MLOAD DUP3 SSTORE SWAP2 PUSH1 0x20 ADD SWAP2 SWAP1 PUSH1 0x1 ADD SWAP1 PUSH3 0x123 JUMP JUMPDEST JUMPDEST POP SWAP1 POP PUSH3 0x150 SWAP2 SWAP1 PUSH3 0x154 JUMP JUMPDEST POP SWAP1 JUMP JUMPDEST JUMPDEST DUP1 DUP3 GT ISZERO PUSH3 0x16F JUMPI PUSH1 0x0 DUP2 PUSH1 0x0 SWAP1 SSTORE POP PUSH1 0x1 ADD PUSH3 0x155 JUMP JUMPDEST POP SWAP1 JUMP JUMPDEST PUSH1 0x0 PUSH3 0x18A PUSH3 0x184 DUP5 PUSH3 0x2D9 JUMP JUMPDEST PUSH3 0x2B0 JUMP JUMPDEST SWAP1 POP DUP3 DUP2 MSTORE PUSH1 0x20 DUP2 ADD DUP5 DUP5 DUP5 ADD GT ISZERO PUSH3 0x1A9 JUMPI PUSH3 0x1A8 PUSH3 0x42A JUMP JUMPDEST JUMPDEST PUSH3 0x1B6 DUP5 DUP3 DUP6 PUSH3 0x325 JUMP JUMPDEST POP SWAP4 SWAP3 POP POP POP JUMP JUMPDEST PUSH1 0x0 DUP2 MLOAD SWAP1 POP PUSH3 0x1CF DUP2 PUSH3 0x44A JUMP JUMPDEST SWAP3 SWAP2 POP POP JUMP JUMPDEST PUSH1 0x0 DUP3 PUSH1 0x1F DUP4 ADD SLT PUSH3 0x1ED JUMPI PUSH3 0x1EC PUSH3 0x425 JUMP JUMPDEST JUMPDEST DUP2 MLOAD PUSH3 0x1FF DUP5 DUP3 PUSH1 0x20 DUP7 ADD PUSH3 0x173 JUMP JUMPDEST SWAP2 POP POP SWAP3 SWAP2 POP POP JUMP JUMPDEST PUSH1 0x0 DUP2 MLOAD SWAP1 POP PUSH3 0x219 DUP2 PUSH3 0x464 JUMP JUMPDEST SWAP3 SWAP2 POP POP JUMP JUMPDEST PUSH1 0x0 DUP1 PUSH1 0x0 DUP1 PUSH1 0x80 DUP6 DUP8 SUB SLT ISZERO PUSH3 0x23C JUMPI PUSH3 0x23B PUSH3 0x434 JUMP JUMPDEST JUMPDEST PUSH1 0x0 DUP6 ADD MLOAD PUSH8 0xFFFFFFFFFFFFFFFF DUP2 GT ISZERO PUSH3 0x25D JUMPI PUSH3 0x25C PUSH3 0x42F JUMP JUMPDEST JUMPDEST PUSH3 0x26B DUP8 DUP3 DUP9 ADD PUSH3 0x1D5 JUMP JUMPDEST SWAP5 POP POP PUSH1 0x20 PUSH3 0x27E DUP8 DUP3 DUP9 ADD PUSH3 0x208 JUMP JUMPDEST SWAP4 POP POP PUSH1 0x40 PUSH3 0x291 DUP8 DUP3 DUP9 ADD PUSH3 0x1BE JUMP JUMPDEST SWAP3 POP POP PUSH1 0x60 PUSH3 0x2A4 DUP8 DUP3 DUP9 ADD PUSH3 0x208 JUMP JUMPDEST SWAP2 POP POP SWAP3 SWAP6 SWAP2 SWAP5 POP SWAP3 POP JUMP JUMPDEST PUSH1 0x0 PUSH3 0x2BC PUSH3 0x2CF JUMP JUMPDEST SWAP1 POP PUSH3 0x2CA DUP3 DUP3 PUSH3 0x391 JUMP JUMPDEST SWAP2 SWAP1 POP JUMP JUMPDEST PUSH1 0x0 PUSH1 0x40 MLOAD SWAP1 POP SWAP1 JUMP JUMPDEST PUSH1 0x0 PUSH8 0xFFFFFFFFFFFFFFFF DUP3 GT ISZERO PUSH3 0x2F7 JUMPI PUSH3 0x2F6 PUSH3 0x3F6 JUMP JUMPDEST JUMPDEST PUSH3 0x302 DUP3 PUSH3 0x439 JUMP JUMPDEST SWAP1 POP PUSH1 0x20 DUP2 ADD SWAP1 POP SWAP2 SWAP1 POP JUMP JUMPDEST PUSH1 0x0 DUP2 ISZERO ISZERO SWAP1 POP SWAP2 SWAP1 POP JUMP JUMPDEST PUSH1 0x0 DUP2 SWAP1 POP SWAP2 SWAP1 POP JUMP JUMPDEST PUSH1 0x0 JUMPDEST DUP4 DUP2 LT ISZERO PUSH3 0x345 JUMPI DUP1 DUP3 ADD MLOAD DUP2 DUP5 ADD MSTORE PUSH1 0x20 DUP2 ADD SWAP1 POP PUSH3 0x328 JUMP JUMPDEST DUP4 DUP2 GT ISZERO PUSH3 0x355 JUMPI PUSH1 0x0 DUP5 DUP5 ADD MSTORE JUMPDEST POP POP POP POP JUMP JUMPDEST PUSH1 0x0 PUSH1 0x2 DUP3 DIV SWAP1 POP PUSH1 0x1 DUP3 AND DUP1 PUSH3 0x374 JUMPI PUSH1 0x7F DUP3 AND SWAP2 POP JUMPDEST PUSH1 0x20 DUP3 LT DUP2 EQ ISZERO PUSH3 0x38B JUMPI PUSH3 0x38A PUSH3 0x3C7 JUMP JUMPDEST JUMPDEST POP SWAP2 SWAP1 POP JUMP JUMPDEST PUSH3 0x39C DUP3 PUSH3 0x439 JUMP JUMPDEST DUP2 ADD DUP2 DUP2 LT PUSH8 0xFFFFFFFFFFFFFFFF DUP3 GT OR ISZERO PUSH3 0x3BE JUMPI PUSH3 0x3BD PUSH3 0x3F6 JUMP JUMPDEST JUMPDEST DUP1 PUSH1 0x40 MSTORE POP POP POP JUMP JUMPDEST PUSH32 0x4E487B7100000000000000000000000000000000000000000000000000000000 PUSH1 0x0 MSTORE PUSH1 0x22 PUSH1 0x4 MSTORE PUSH1 0x24 PUSH1 0x0 REVERT JUMPDEST PUSH32 0x4E487B7100000000000000000000000000000000000000000000000000000000 PUSH1 0x0 MSTORE PUSH1 0x41 PUSH1 0x4 MSTORE PUSH1 0x24 PUSH1 0x0 REVERT JUMPDEST PUSH1 0x0 DUP1 REVERT JUMPDEST PUSH1 0x0 DUP1 REVERT JUMPDEST PUSH1 0x0 DUP1 REVERT JUMPDEST PUSH1 0x0 DUP1 REVERT JUMPDEST PUSH1 0x0 PUSH1 0x1F NOT PUSH1 0x1F DUP4 ADD AND SWAP1 POP SWAP2 SWAP1 POP JUMP JUMPDEST PUSH3 0x455 DUP2 PUSH3 0x30F JUMP JUMPDEST DUP2 EQ PUSH3 0x461 JUMPI PUSH1 0x0 DUP1 REVERT JUMPDEST POP JUMP JUMPDEST PUSH3 0x46F DUP2 PUSH3 0x31B JUMP JUMPDEST DUP2 EQ PUSH3 0x47B JUMPI PUSH1 0x0 DUP1 REVERT JUMPDEST POP JUMP JUMPDEST PUSH2 0x8D4 DUP1 PUSH3 0x48E PUSH1 0x0 CODECOPY PUSH1 0x0 RETURN INVALID PUSH1 0x80 PUSH1 0x40 MSTORE PUSH1 0x4 CALLDATASIZE LT PUSH2 0x7B JUMPI PUSH1 0x0 CALLDATALOAD PUSH1 0xE0 SHR DUP1 PUSH4 0xB383BF2D GT PUSH2 0x4E JUMPI DUP1 PUSH4 0xB383BF2D EQ PUSH2 0x118 JUMPI DUP1 PUSH4 0xEAE3F764 EQ PUSH2 0x143 JUMPI DUP1 PUSH4 0xED11F46A EQ PUSH2 0x16E JUMPI DUP1 PUSH4 0xED88C68E EQ PUSH2 0x199 JUMPI PUSH2 0x7B JUMP JUMPDEST DUP1 PUSH4 0x354ECC85 EQ PUSH2 0x80 JUMPI DUP1 PUSH4 0x3CCFD60B EQ PUSH2 0xAB JUMPI DUP1 PUSH4 0x798BE230 EQ PUSH2 0xC2 JUMPI DUP1 PUSH4 0x80FDEF1B EQ PUSH2 0xED JUMPI JUMPDEST PUSH1 0x0 DUP1 REVERT JUMPDEST CALLVALUE DUP1 ISZERO PUSH2 0x8C JUMPI PUSH1 0x0 DUP1 REVERT JUMPDEST POP PUSH2 0x95 PUSH2 0x1A3 JUMP JUMPDEST PUSH1 0x40 MLOAD PUSH2 0xA2 SWAP2 SWAP1 PUSH2 0x5AA JUMP JUMPDEST PUSH1 0x40 MLOAD DUP1 SWAP2 SUB SWAP1 RETURN JUMPDEST CALLVALUE DUP1 ISZERO PUSH2 0xB7 JUMPI PUSH1 0x0 DUP1 REVERT JUMPDEST POP PUSH2 0xC0 PUSH2 0x231 JUMP JUMPDEST STOP JUMPDEST CALLVALUE DUP1 ISZERO PUSH2 0xCE JUMPI PUSH1 0x0 DUP1 REVERT JUMPDEST POP PUSH2 0xD7 PUSH2 0x32C JUMP JUMPDEST PUSH1 0x40 MLOAD PUSH2 0xE4 SWAP2 SWAP1 PUSH2 0x58F JUMP JUMPDEST PUSH1 0x40 MLOAD DUP1 SWAP2 SUB SWAP1 RETURN JUMPDEST CALLVALUE DUP1 ISZERO PUSH2 0xF9 JUMPI PUSH1 0x0 DUP1 REVERT JUMPDEST POP PUSH2 0x102 PUSH2 0x33F JUMP JUMPDEST PUSH1 0x40 MLOAD PUSH2 0x10F SWAP2 SWAP1 PUSH2 0x62C JUMP JUMPDEST PUSH1 0x40 MLOAD DUP1 SWAP2 SUB SWAP1 RETURN JUMPDEST CALLVALUE DUP1 ISZERO PUSH2 0x124 JUMPI PUSH1 0x0 DUP1 REVERT JUMPDEST POP PUSH2 0x12D PUSH2 0x345 JUMP JUMPDEST PUSH1 0x40 MLOAD PUSH2 0x13A SWAP2 SWAP1 PUSH2 0x62C JUMP JUMPDEST PUSH1 0x40 MLOAD DUP1 SWAP2 SUB SWAP1 RETURN JUMPDEST CALLVALUE DUP1 ISZERO PUSH2 0x14F JUMPI PUSH1 0x0 DUP1 REVERT JUMPDEST POP PUSH2 0x158 PUSH2 0x34B JUMP JUMPDEST PUSH1 0x40 MLOAD PUSH2 0x165 SWAP2 SWAP1 PUSH2 0x5AA JUMP JUMPDEST PUSH1 0x40 MLOAD DUP1 SWAP2 SUB SWAP1 RETURN JUMPDEST CALLVALUE DUP1 ISZERO PUSH2 0x17A JUMPI PUSH1 0x0 DUP1 REVERT JUMPDEST POP PUSH2 0x183 PUSH2 0x3DD JUMP JUMPDEST PUSH1 0x40 MLOAD PUSH2 0x190 SWAP2 SWAP1 PUSH2 0x62C JUMP JUMPDEST PUSH1 0x40 MLOAD DUP1 SWAP2 SUB SWAP1 RETURN JUMPDEST PUSH2 0x1A1 PUSH2 0x3E5 JUMP JUMPDEST STOP JUMPDEST PUSH1 0x0 DUP1 SLOAD PUSH2 0x1B0 SWAP1 PUSH2 0x70D JUMP JUMPDEST DUP1 PUSH1 0x1F ADD PUSH1 0x20 DUP1 SWAP2 DIV MUL PUSH1 0x20 ADD PUSH1 0x40 MLOAD SWAP1 DUP2 ADD PUSH1 0x40 MSTORE DUP1 SWAP3 SWAP2 SWAP1 DUP2 DUP2 MSTORE PUSH1 0x20 ADD DUP3 DUP1 SLOAD PUSH2 0x1DC SWAP1 PUSH2 0x70D JUMP JUMPDEST DUP1 ISZERO PUSH2 0x229 JUMPI DUP1 PUSH1 0x1F LT PUSH2 0x1FE JUMPI PUSH2 0x100 DUP1 DUP4 SLOAD DIV MUL DUP4 MSTORE SWAP2 PUSH1 0x20 ADD SWAP2 PUSH2 0x229 JUMP JUMPDEST DUP3 ADD SWAP2 SWAP1 PUSH1 0x0 MSTORE PUSH1 0x20 PUSH1 0x0 KECCAK256 SWAP1 JUMPDEST DUP2 SLOAD DUP2 MSTORE SWAP1 PUSH1 0x1 ADD SWAP1 PUSH1 0x20 ADD DUP1 DUP4 GT PUSH2 0x20C JUMPI DUP3 SWAP1 SUB PUSH1 0x1F AND DUP3 ADD SWAP2 JUMPDEST POP POP POP POP POP DUP2 JUMP JUMPDEST CALLER PUSH20 0xFFFFFFFFFFFFFFFFFFFFFFFFFFFFFFFFFFFFFFFF AND PUSH1 0x3 PUSH1 0x1 SWAP1 SLOAD SWAP1 PUSH2 0x100 EXP SWAP1 DIV PUSH20 0xFFFFFFFFFFFFFFFFFFFFFFFFFFFFFFFFFFFFFFFF AND PUSH20 0xFFFFFFFFFFFFFFFFFFFFFFFFFFFFFFFFFFFFFFFF AND EQ PUSH2 0x2C1 JUMPI PUSH1 0x40 MLOAD PUSH32 0x8C379A000000000000000000000000000000000000000000000000000000000 DUP2 MSTORE PUSH1 0x4 ADD PUSH2 0x2B8 SWAP1 PUSH2 0x5EC JUMP JUMPDEST PUSH1 0x40 MLOAD DUP1 SWAP2 SUB SWAP1 REVERT JUMPDEST CALLER PUSH20 0xFFFFFFFFFFFFFFFFFFFFFFFFFFFFFFFFFFFFFFFF AND SELFBALANCE PUSH1 0x40 MLOAD PUSH2 0x2E5 SWAP1 PUSH2 0x57A JUMP JUMPDEST PUSH1 0x0 PUSH1 0x40 MLOAD DUP1 DUP4 SUB DUP2 DUP6 DUP8 GAS CALL SWAP3 POP POP POP RETURNDATASIZE DUP1 PUSH1 0x0 DUP2 EQ PUSH2 0x322 JUMPI PUSH1 0x40 MLOAD SWAP2 POP PUSH1 0x1F NOT PUSH1 0x3F RETURNDATASIZE ADD AND DUP3 ADD PUSH1 0x40 MSTORE RETURNDATASIZE DUP3 MSTORE RETURNDATASIZE PUSH1 0x0 PUSH1 0x20 DUP5 ADD RETURNDATACOPY PUSH2 0x327 JUMP JUMPDEST PUSH1 0x60 SWAP2 POP JUMPDEST POP POP POP JUMP JUMPDEST PUSH1 0x3 PUSH1 0x0 SWAP1 SLOAD SWAP1 PUSH2 0x100 EXP SWAP1 DIV PUSH1 0xFF AND DUP2 JUMP JUMPDEST PUSH1 0x2 SLOAD DUP2 JUMP JUMPDEST PUSH1 0x1 SLOAD DUP2 JUMP JUMPDEST PUSH1 0x60 PUSH1 0x0 DUP1 SLOAD PUSH2 0x35A SWAP1 PUSH2 0x70D JUMP JUMPDEST DUP1 PUSH1 0x1F ADD PUSH1 0x20 DUP1 SWAP2 DIV MUL PUSH1 0x20 ADD PUSH1 0x40 MLOAD SWAP1 DUP2 ADD PUSH1 0x40 MSTORE DUP1 SWAP3 SWAP2 SWAP1 DUP2 DUP2 MSTORE PUSH1 0x20 ADD DUP3 DUP1 SLOAD PUSH2 0x386 SWAP1 PUSH2 0x70D JUMP JUMPDEST DUP1 ISZERO PUSH2 0x3D3 JUMPI DUP1 PUSH1 0x1F LT PUSH2 0x3A8 JUMPI PUSH2 0x100 DUP1 DUP4 SLOAD DIV MUL DUP4 MSTORE SWAP2 PUSH1 0x20 ADD SWAP2 PUSH2 0x3D3 JUMP JUMPDEST DUP3 ADD SWAP2 SWAP1 PUSH1 0x0 MSTORE PUSH1 0x20 PUSH1 0x0 KECCAK256 SWAP1 JUMPDEST DUP2 SLOAD DUP2 MSTORE SWAP1 PUSH1 0x1 ADD SWAP1 PUSH1 0x20 ADD DUP1 DUP4 GT PUSH2 0x3B6 JUMPI DUP3 SWAP1 SUB PUSH1 0x1F AND DUP3 ADD SWAP2 JUMPDEST POP POP POP POP POP SWAP1 POP SWAP1 JUMP JUMPDEST PUSH1 0x0 SELFBALANCE SWAP1 POP SWAP1 JUMP JUMPDEST PUSH1 0x1 SLOAD CALLVALUE LT ISZERO PUSH2 0x42A JUMPI PUSH1 0x40 MLOAD PUSH32 0x8C379A000000000000000000000000000000000000000000000000000000000 DUP2 MSTORE PUSH1 0x4 ADD PUSH2 0x421 SWAP1 PUSH2 0x5CC JUMP JUMPDEST PUSH1 0x40 MLOAD DUP1 SWAP2 SUB SWAP1 REVERT JUMPDEST PUSH1 0x3 PUSH1 0x0 SWAP1 SLOAD SWAP1 PUSH2 0x100 EXP SWAP1 DIV PUSH1 0xFF AND PUSH2 0x495 JUMPI PUSH1 0x0 SELFBALANCE SWAP1 POP PUSH1 0x2 SLOAD CALLVALUE DUP3 PUSH2 0x452 SWAP2 SWAP1 PUSH2 0x66E JUMP JUMPDEST GT ISZERO PUSH2 0x493 JUMPI PUSH1 0x40 MLOAD PUSH32 0x8C379A000000000000000000000000000000000000000000000000000000000 DUP2 MSTORE PUSH1 0x4 ADD PUSH2 0x48A SWAP1 PUSH2 0x60C JUMP JUMPDEST PUSH1 0x40 MLOAD DUP1 SWAP2 SUB SWAP1 REVERT JUMPDEST POP JUMPDEST JUMP JUMPDEST PUSH2 0x4A0 DUP2 PUSH2 0x6C4 JUMP JUMPDEST DUP3 MSTORE POP POP JUMP JUMPDEST PUSH1 0x0 PUSH2 0x4B1 DUP3 PUSH2 0x647 JUMP JUMPDEST PUSH2 0x4BB DUP2 DUP6 PUSH2 0x65D JUMP JUMPDEST SWAP4 POP PUSH2 0x4CB DUP2 DUP6 PUSH1 0x20 DUP7 ADD PUSH2 0x6DA JUMP JUMPDEST PUSH2 0x4D4 DUP2 PUSH2 0x79D JUMP JUMPDEST DUP5 ADD SWAP2 POP POP SWAP3 SWAP2 POP POP JUMP JUMPDEST PUSH1 0x0 PUSH2 0x4EC PUSH1 0x25 DUP4 PUSH2 0x65D JUMP JUMPDEST SWAP2 POP PUSH2 0x4F7 DUP3 PUSH2 0x7AE JUMP JUMPDEST PUSH1 0x40 DUP3 ADD SWAP1 POP SWAP2 SWAP1 POP JUMP JUMPDEST PUSH1 0x0 PUSH2 0x50F PUSH1 0x30 DUP4 PUSH2 0x65D JUMP JUMPDEST SWAP2 POP PUSH2 0x51A DUP3 PUSH2 0x7FD JUMP JUMPDEST PUSH1 0x40 DUP3 ADD SWAP1 POP SWAP2 SWAP1 POP JUMP JUMPDEST PUSH1 0x0 PUSH2 0x532 PUSH1 0x2A DUP4 PUSH2 0x65D JUMP JUMPDEST SWAP2 POP PUSH2 0x53D DUP3 PUSH2 0x84C JUMP JUMPDEST PUSH1 0x40 DUP3 ADD SWAP1 POP SWAP2 SWAP1 POP JUMP JUMPDEST PUSH1 0x0 PUSH2 0x555 PUSH1 0x0 DUP4 PUSH2 0x652 JUMP JUMPDEST SWAP2 POP PUSH2 0x560 DUP3 PUSH2 0x89B JUMP JUMPDEST PUSH1 0x0 DUP3 ADD SWAP1 POP SWAP2 SWAP1 POP JUMP JUMPDEST PUSH2 0x574 DUP2 PUSH2 0x6D0 JUMP JUMPDEST DUP3 MSTORE POP POP JUMP JUMPDEST PUSH1 0x0 PUSH2 0x585 DUP3 PUSH2 0x548 JUMP JUMPDEST SWAP2 POP DUP2 SWAP1 POP SWAP2 SWAP1 POP JUMP JUMPDEST PUSH1 0x0 PUSH1 0x20 DUP3 ADD SWAP1 POP PUSH2 0x5A4 PUSH1 0x0 DUP4 ADD DUP5 PUSH2 0x497 JUMP JUMPDEST SWAP3 SWAP2 POP POP JUMP JUMPDEST PUSH1 0x0 PUSH1 0x20 DUP3 ADD SWAP1 POP DUP2 DUP2 SUB PUSH1 0x0 DUP4 ADD MSTORE PUSH2 0x5C4 DUP2 DUP5 PUSH2 0x4A6 JUMP JUMPDEST SWAP1 POP SWAP3 SWAP2 POP POP JUMP JUMPDEST PUSH1 0x0 PUSH1 0x20 DUP3 ADD SWAP1 POP DUP2 DUP2 SUB PUSH1 0x0 DUP4 ADD MSTORE PUSH2 0x5E5 DUP2 PUSH2 0x4DF JUMP JUMPDEST SWAP1 POP SWAP2 SWAP1 POP JUMP JUMPDEST PUSH1 0x0 PUSH1 0x20 DUP3 ADD SWAP1 POP DUP2 DUP2 SUB PUSH1 0x0 DUP4 ADD MSTORE PUSH2 0x605 DUP2 PUSH2 0x502 JUMP JUMPDEST SWAP1 POP SWAP2 SWAP1 POP JUMP JUMPDEST PUSH1 0x0 PUSH1 0x20 DUP3 ADD SWAP1 POP DUP2 DUP2 SUB PUSH1 0x0 DUP4 ADD MSTORE PUSH2 0x625 DUP2 PUSH2 0x525 JUMP JUMPDEST SWAP1 POP SWAP2 SWAP1 POP JUMP JUMPDEST PUSH1 0x0 PUSH1 0x20 DUP3 ADD SWAP1 POP PUSH2 0x641 PUSH1 0x0 DUP4 ADD DUP5 PUSH2 0x56B JUMP JUMPDEST SWAP3 SWAP2 POP POP JUMP JUMPDEST PUSH1 0x0 DUP2 MLOAD SWAP1 POP SWAP2 SWAP1 POP JUMP JUMPDEST PUSH1 0x0 DUP2 SWAP1 POP SWAP3 SWAP2 POP POP JUMP JUMPDEST PUSH1 0x0 DUP3 DUP3 MSTORE PUSH1 0x20 DUP3 ADD SWAP1 POP SWAP3 SWAP2 POP POP JUMP JUMPDEST PUSH1 0x0 PUSH2 0x679 DUP3 PUSH2 0x6D0 JUMP JUMPDEST SWAP2 POP PUSH2 0x684 DUP4 PUSH2 0x6D0 JUMP JUMPDEST SWAP3 POP DUP3 PUSH32 0xFFFFFFFFFFFFFFFFFFFFFFFFFFFFFFFFFFFFFFFFFFFFFFFFFFFFFFFFFFFFFFFF SUB DUP3 GT ISZERO PUSH2 0x6B9 JUMPI PUSH2 0x6B8 PUSH2 0x73F JUMP JUMPDEST JUMPDEST DUP3 DUP3 ADD SWAP1 POP SWAP3 SWAP2 POP POP JUMP JUMPDEST PUSH1 0x0 DUP2 ISZERO ISZERO SWAP1 POP SWAP2 SWAP1 POP JUMP JUMPDEST PUSH1 0x0 DUP2 SWAP1 POP SWAP2 SWAP1 POP JUMP JUMPDEST PUSH1 0x0 JUMPDEST DUP4 DUP2 LT ISZERO PUSH2 0x6F8 JUMPI DUP1 DUP3 ADD MLOAD DUP2 DUP5 ADD MSTORE PUSH1 0x20 DUP2 ADD SWAP1 POP PUSH2 0x6DD JUMP JUMPDEST DUP4 DUP2 GT ISZERO PUSH2 0x707 JUMPI PUSH1 0x0 DUP5 DUP5 ADD MSTORE JUMPDEST POP POP POP POP JUMP JUMPDEST PUSH1 0x0 PUSH1 0x2 DUP3 DIV SWAP1 POP PUSH1 0x1 DUP3 AND DUP1 PUSH2 0x725 JUMPI PUSH1 0x7F DUP3 AND SWAP2 POP JUMPDEST PUSH1 0x20 DUP3 LT DUP2 EQ ISZERO PUSH2 0x739 JUMPI PUSH2 0x738 PUSH2 0x76E JUMP JUMPDEST JUMPDEST POP SWAP2 SWAP1 POP JUMP JUMPDEST PUSH32 0x4E487B7100000000000000000000000000000000000000000000000000000000 PUSH1 0x0 MSTORE PUSH1 0x11 PUSH1 0x4 MSTORE PUSH1 0x24 PUSH1 0x0 REVERT JUMPDEST PUSH32 0x4E487B7100000000000000000000000000000000000000000000000000000000 PUSH1 0x0 MSTORE PUSH1 0x22 PUSH1 0x4 MSTORE PUSH1 0x24 PUSH1 0x0 REVERT JUMPDEST PUSH1 0x0 PUSH1 0x1F NOT PUSH1 0x1F DUP4 ADD AND SWAP1 POP SWAP2 SWAP1 POP JUMP JUMPDEST PUSH32 0x596F752063616E6E6F7420646F6E6174652062656C6F7720247B5F6D696E416D PUSH1 0x0 DUP3 ADD MSTORE PUSH32 0x6F756E747D000000000000000000000000000000000000000000000000000000 PUSH1 0x20 DUP3 ADD MSTORE POP JUMP JUMPDEST PUSH32 0x4F6E6C79206F776E6572206F66207468697320646F6E6174696F6E2063616E20 PUSH1 0x0 DUP3 ADD MSTORE PUSH32 0x77697468647261772066726F6D20697400000000000000000000000000000000 PUSH1 0x20 DUP3 ADD MSTORE POP JUMP JUMPDEST PUSH32 0x596F757220646F6E6174696F6E2077696C6C2063726F73732074686520616D6F PUSH1 0x0 DUP3 ADD MSTORE PUSH32 0x756E74206E656564656400000000000000000000000000000000000000000000 PUSH1 0x20 DUP3 ADD MSTORE POP JUMP JUMPDEST POP JUMP INVALID LOG2 PUSH5 0x6970667358 0x22 SLT KECCAK256 0x2A 0xD3 AND ADDRESS PUSH27 0xEC57B73776B66B26A659F0AB7ACA9EF68D5A7BBEA1B0D1D11495A0 PUSH5 0x736F6C6343 STOP ADDMOD SMOD STOP CALLER LOG2 PUSH5 0x6970667358 0x22 SLT KECCAK256 0xD3 SELFDESTRUCT 0x2D 0x4D EXTCODEHASH 0x4C CALLVALUE PUSH27 0x5A6CAD23A4781F08D699E0107977628AAF49B392251D0BE164736F PUSH13 0x63430008070033000000000000 "
				},
				"gasEstimates": {
					"creation": {
						"codeDepositCost": "1208400",
						"executionCost": "1254",
						"totalCost": "1209654"
					},
					"external": {
						"createToken(string,uint256,bool,uint256)": "infinite",
						"donateToCampaign(address)": "infinite",
						"getCampaigns()": "infinite",
						"getCampainName(address)": "infinite"
					}
				},
				"methodIdentifiers": {
					"createToken(string,uint256,bool,uint256)": "615d1f03",
					"donateToCampaign(address)": "7c6abc82",
					"getCampaigns()": "a6b03633",
					"getCampainName(address)": "f4139c58"
				}
			},
			"storageLayout": {
				"storage": [
					{
						"astId": 6,
						"contract": "Campaign.sol:Campaign",
						"label": "donations",
						"offset": 0,
						"slot": "0",
						"type": "t_array(t_contract(Donation)213)dyn_storage"
					}
				],
				"types": {
					"t_array(t_contract(Donation)213)dyn_storage": {
						"base": "t_contract(Donation)213",
						"encoding": "dynamic_array",
						"label": "contract Donation[]",
						"numberOfBytes": "32"
					},
					"t_contract(Donation)213": {
						"encoding": "inplace",
						"label": "contract Donation",
						"numberOfBytes": "20"
					}
				}
			},
			"userdoc": {
				"kind": "user",
				"methods": {},
				"version": 1
			}
		}
	}
}