{
	"Time.sol": {
		"Time": {
			"abi": [
				{
					"inputs": [],
					"stateMutability": "payable",
					"type": "constructor"
				},
				{
					"inputs": [],
					"name": "daysPassedSinceLaunch",
					"outputs": [
						{
							"internalType": "bool",
							"name": "",
							"type": "bool"
						}
					],
					"stateMutability": "view",
					"type": "function"
				},
				{
					"inputs": [],
					"name": "deployedDay",
					"outputs": [
						{
							"internalType": "uint256",
							"name": "",
							"type": "uint256"
						}
					],
					"stateMutability": "view",
					"type": "function"
				},
				{
					"inputs": [
						{
							"internalType": "uint256",
							"name": "time",
							"type": "uint256"
						}
					],
					"name": "getSecondsTime",
					"outputs": [
						{
							"internalType": "uint256",
							"name": "",
							"type": "uint256"
						}
					],
					"stateMutability": "view",
					"type": "function"
				},
				{
					"inputs": [
						{
							"internalType": "address",
							"name": "userAddress",
							"type": "address"
						}
					],
					"name": "myBalance",
					"outputs": [
						{
							"internalType": "uint256",
							"name": "",
							"type": "uint256"
						}
					],
					"stateMutability": "view",
					"type": "function"
				},
				{
					"inputs": [],
					"name": "nowTime",
					"outputs": [
						{
							"internalType": "uint256",
							"name": "",
							"type": "uint256"
						}
					],
					"stateMutability": "view",
					"type": "function"
				},
				{
					"inputs": [],
					"name": "oneMinute",
					"outputs": [
						{
							"internalType": "uint256",
							"name": "",
							"type": "uint256"
						}
					],
					"stateMutability": "view",
					"type": "function"
				},
				{
					"inputs": [],
					"name": "oneSecond",
					"outputs": [
						{
							"internalType": "uint256",
							"name": "",
							"type": "uint256"
						}
					],
					"stateMutability": "view",
					"type": "function"
				},
				{
					"inputs": [],
					"name": "threeHours",
					"outputs": [
						{
							"internalType": "uint256",
							"name": "",
							"type": "uint256"
						}
					],
					"stateMutability": "view",
					"type": "function"
				}
			],
			"devdoc": {
				"kind": "dev",
				"methods": {},
				"version": 1
			},
			"evm": {
				"assembly": "    /* \"Time.sol\":72:868  contract Time {... */\n  mstore(0x40, 0x80)\n    /* \"Time.sol\":118:125  3 hours */\n  0x2a30\n    /* \"Time.sol\":93:125  uint public threeHours = 3 hours */\n  0x00\n  sstore\n    /* \"Time.sol\":155:164  1 minutes */\n  0x3c\n    /* \"Time.sol\":131:164  uint public oneMinute = 1 minutes */\n  0x01\n  sstore\n    /* \"Time.sol\":194:203  1 seconds */\n  0x01\n    /* \"Time.sol\":170:203  uint public oneSecond = 1 seconds */\n  0x02\n  sstore\n    /* \"Time.sol\":287:302  block.timestamp */\n  timestamp\n    /* \"Time.sol\":273:284  deployedDay */\n  0x03\n    /* \"Time.sol\":273:302  deployedDay = block.timestamp */\n  dup2\n  swap1\n  sstore\n  pop\n    /* \"Time.sol\":72:868  contract Time {... */\n  dataSize(sub_0)\n  dup1\n  dataOffset(sub_0)\n  0x00\n  codecopy\n  0x00\n  return\nstop\n\nsub_0: assembly {\n        /* \"Time.sol\":72:868  contract Time {... */\n      mstore(0x40, 0x80)\n      callvalue\n      dup1\n      iszero\n      tag_1\n      jumpi\n      0x00\n      dup1\n      revert\n    tag_1:\n      pop\n      jumpi(tag_2, lt(calldatasize, 0x04))\n      shr(0xe0, calldataload(0x00))\n      dup1\n      0x525f6e1d\n      gt\n      tag_11\n      jumpi\n      dup1\n      0x525f6e1d\n      eq\n      tag_7\n      jumpi\n      dup1\n      0x817a5e14\n      eq\n      tag_8\n      jumpi\n      dup1\n      0x9e2b5a2f\n      eq\n      tag_9\n      jumpi\n      dup1\n      0xcc44b07d\n      eq\n      tag_10\n      jumpi\n      jump(tag_2)\n    tag_11:\n      dup1\n      0x21ed4b27\n      eq\n      tag_3\n      jumpi\n      dup1\n      0x335f1b37\n      eq\n      tag_4\n      jumpi\n      dup1\n      0x3f16ae34\n      eq\n      tag_5\n      jumpi\n      dup1\n      0x469df505\n      eq\n      tag_6\n      jumpi\n    tag_2:\n      0x00\n      dup1\n      revert\n        /* \"Time.sol\":170:203  uint public oneSecond = 1 seconds */\n    tag_3:\n      tag_12\n      tag_13\n      jump\t// in\n    tag_12:\n      mload(0x40)\n      tag_14\n      swap2\n      swap1\n      tag_15\n      jump\t// in\n    tag_14:\n      mload(0x40)\n      dup1\n      swap2\n      sub\n      swap1\n      return\n        /* \"Time.sol\":316:400  function nowTime() view public returns(uint) {... */\n    tag_4:\n      tag_16\n      tag_17\n      jump\t// in\n    tag_16:\n      mload(0x40)\n      tag_18\n      swap2\n      swap1\n      tag_15\n      jump\t// in\n    tag_18:\n      mload(0x40)\n      dup1\n      swap2\n      sub\n      swap1\n      return\n        /* \"Time.sol\":514:742  function daysPassedSinceLaunch() view public returns(bool) {... */\n    tag_5:\n      tag_19\n      tag_20\n      jump\t// in\n    tag_19:\n      mload(0x40)\n      tag_21\n      swap2\n      swap1\n      tag_22\n      jump\t// in\n    tag_21:\n      mload(0x40)\n      dup1\n      swap2\n      sub\n      swap1\n      return\n        /* \"Time.sol\":131:164  uint public oneMinute = 1 minutes */\n    tag_6:\n      tag_23\n      tag_24\n      jump\t// in\n    tag_23:\n      mload(0x40)\n      tag_25\n      swap2\n      swap1\n      tag_15\n      jump\t// in\n    tag_25:\n      mload(0x40)\n      dup1\n      swap2\n      sub\n      swap1\n      return\n        /* \"Time.sol\":210:233  uint public deployedDay */\n    tag_7:\n      tag_26\n      tag_27\n      jump\t// in\n    tag_26:\n      mload(0x40)\n      tag_28\n      swap2\n      swap1\n      tag_15\n      jump\t// in\n    tag_28:\n      mload(0x40)\n      dup1\n      swap2\n      sub\n      swap1\n      return\n        /* \"Time.sol\":748:866  function myBalance(address userAddress) public view returns(uint) {... */\n    tag_8:\n      tag_29\n      0x04\n      dup1\n      calldatasize\n      sub\n      dup2\n      add\n      swap1\n      tag_30\n      swap2\n      swap1\n      tag_31\n      jump\t// in\n    tag_30:\n      tag_32\n      jump\t// in\n    tag_29:\n      mload(0x40)\n      tag_33\n      swap2\n      swap1\n      tag_15\n      jump\t// in\n    tag_33:\n      mload(0x40)\n      dup1\n      swap2\n      sub\n      swap1\n      return\n        /* \"Time.sol\":406:508  function getSecondsTime(uint time) view public returns(uint) {... */\n    tag_9:\n      tag_34\n      0x04\n      dup1\n      calldatasize\n      sub\n      dup2\n      add\n      swap1\n      tag_35\n      swap2\n      swap1\n      tag_36\n      jump\t// in\n    tag_35:\n      tag_37\n      jump\t// in\n    tag_34:\n      mload(0x40)\n      tag_38\n      swap2\n      swap1\n      tag_15\n      jump\t// in\n    tag_38:\n      mload(0x40)\n      dup1\n      swap2\n      sub\n      swap1\n      return\n        /* \"Time.sol\":93:125  uint public threeHours = 3 hours */\n    tag_10:\n      tag_39\n      tag_40\n      jump\t// in\n    tag_39:\n      mload(0x40)\n      tag_41\n      swap2\n      swap1\n      tag_15\n      jump\t// in\n    tag_41:\n      mload(0x40)\n      dup1\n      swap2\n      sub\n      swap1\n      return\n        /* \"Time.sol\":170:203  uint public oneSecond = 1 seconds */\n    tag_13:\n      sload(0x02)\n      dup2\n      jump\t// out\n        /* \"Time.sol\":316:400  function nowTime() view public returns(uint) {... */\n    tag_17:\n        /* \"Time.sol\":355:359  uint */\n      0x00\n        /* \"Time.sol\":378:393  block.timestamp */\n      timestamp\n        /* \"Time.sol\":371:393  return block.timestamp */\n      swap1\n      pop\n        /* \"Time.sol\":316:400  function nowTime() view public returns(uint) {... */\n      swap1\n      jump\t// out\n        /* \"Time.sol\":514:742  function daysPassedSinceLaunch() view public returns(bool) {... */\n    tag_20:\n        /* \"Time.sol\":567:571  bool */\n      0x00\n        /* \"Time.sol\":583:594  uint date_1 */\n      dup1\n        /* \"Time.sol\":597:607  1638352800 */\n      0x61a747a0\n        /* \"Time.sol\":583:607  uint date_1 = 1638352800 */\n      swap1\n      pop\n        /* \"Time.sol\":640:651  uint date_2 */\n      0x00\n        /* \"Time.sol\":672:678  1 days */\n      0x015180\n        /* \"Time.sol\":654:669  block.timestamp */\n      timestamp\n        /* \"Time.sol\":654:678  block.timestamp + 1 days */\n      tag_44\n      swap2\n      swap1\n      tag_45\n      jump\t// in\n    tag_44:\n        /* \"Time.sol\":640:678  uint date_2 = block.timestamp + 1 days */\n      swap1\n      pop\n        /* \"Time.sol\":728:734  date_2 */\n      dup1\n        /* \"Time.sol\":719:725  date_1 */\n      dup3\n        /* \"Time.sol\":719:734  date_1 > date_2 */\n      gt\n        /* \"Time.sol\":711:735  return (date_1 > date_2) */\n      swap3\n      pop\n      pop\n      pop\n        /* \"Time.sol\":514:742  function daysPassedSinceLaunch() view public returns(bool) {... */\n      swap1\n      jump\t// out\n        /* \"Time.sol\":131:164  uint public oneMinute = 1 minutes */\n    tag_24:\n      sload(0x01)\n      dup2\n      jump\t// out\n        /* \"Time.sol\":210:233  uint public deployedDay */\n    tag_27:\n      sload(0x03)\n      dup2\n      jump\t// out\n        /* \"Time.sol\":748:866  function myBalance(address userAddress) public view returns(uint) {... */\n    tag_32:\n        /* \"Time.sol\":808:812  uint */\n      0x00\n        /* \"Time.sol\":839:850  userAddress */\n      dup2\n        /* \"Time.sol\":831:859  address(userAddress).balance */\n      0xffffffffffffffffffffffffffffffffffffffff\n      and\n      balance\n        /* \"Time.sol\":824:859  return address(userAddress).balance */\n      swap1\n      pop\n        /* \"Time.sol\":748:866  function myBalance(address userAddress) public view returns(uint) {... */\n      swap2\n      swap1\n      pop\n      jump\t// out\n        /* \"Time.sol\":406:508  function getSecondsTime(uint time) view public returns(uint) {... */\n    tag_37:\n        /* \"Time.sol\":461:465  uint */\n      0x00\n        /* \"Time.sol\":491:501  threeHours */\n      dup1\n      sload\n        /* \"Time.sol\":484:488  time */\n      dup3\n        /* \"Time.sol\":484:501  time * threeHours */\n      tag_48\n      swap2\n      swap1\n      tag_49\n      jump\t// in\n    tag_48:\n        /* \"Time.sol\":477:501  return time * threeHours */\n      swap1\n      pop\n        /* \"Time.sol\":406:508  function getSecondsTime(uint time) view public returns(uint) {... */\n      swap2\n      swap1\n      pop\n      jump\t// out\n        /* \"Time.sol\":93:125  uint public threeHours = 3 hours */\n    tag_40:\n      sload(0x00)\n      dup2\n      jump\t// out\n        /* \"#utility.yul\":7:146   */\n    tag_51:\n        /* \"#utility.yul\":53:58   */\n      0x00\n        /* \"#utility.yul\":91:97   */\n      dup2\n        /* \"#utility.yul\":78:98   */\n      calldataload\n        /* \"#utility.yul\":69:98   */\n      swap1\n      pop\n        /* \"#utility.yul\":107:140   */\n      tag_53\n        /* \"#utility.yul\":134:139   */\n      dup2\n        /* \"#utility.yul\":107:140   */\n      tag_54\n      jump\t// in\n    tag_53:\n        /* \"#utility.yul\":7:146   */\n      swap3\n      swap2\n      pop\n      pop\n      jump\t// out\n        /* \"#utility.yul\":152:291   */\n    tag_55:\n        /* \"#utility.yul\":198:203   */\n      0x00\n        /* \"#utility.yul\":236:242   */\n      dup2\n        /* \"#utility.yul\":223:243   */\n      calldataload\n        /* \"#utility.yul\":214:243   */\n      swap1\n      pop\n        /* \"#utility.yul\":252:285   */\n      tag_57\n        /* \"#utility.yul\":279:284   */\n      dup2\n        /* \"#utility.yul\":252:285   */\n      tag_58\n      jump\t// in\n    tag_57:\n        /* \"#utility.yul\":152:291   */\n      swap3\n      swap2\n      pop\n      pop\n      jump\t// out\n        /* \"#utility.yul\":297:626   */\n    tag_31:\n        /* \"#utility.yul\":356:362   */\n      0x00\n        /* \"#utility.yul\":405:407   */\n      0x20\n        /* \"#utility.yul\":393:402   */\n      dup3\n        /* \"#utility.yul\":384:391   */\n      dup5\n        /* \"#utility.yul\":380:403   */\n      sub\n        /* \"#utility.yul\":376:408   */\n      slt\n        /* \"#utility.yul\":373:492   */\n      iszero\n      tag_60\n      jumpi\n        /* \"#utility.yul\":411:490   */\n      tag_61\n      tag_62\n      jump\t// in\n    tag_61:\n        /* \"#utility.yul\":373:492   */\n    tag_60:\n        /* \"#utility.yul\":531:532   */\n      0x00\n        /* \"#utility.yul\":556:609   */\n      tag_63\n        /* \"#utility.yul\":601:608   */\n      dup5\n        /* \"#utility.yul\":592:598   */\n      dup3\n        /* \"#utility.yul\":581:590   */\n      dup6\n        /* \"#utility.yul\":577:599   */\n      add\n        /* \"#utility.yul\":556:609   */\n      tag_51\n      jump\t// in\n    tag_63:\n        /* \"#utility.yul\":546:609   */\n      swap2\n      pop\n        /* \"#utility.yul\":502:619   */\n      pop\n        /* \"#utility.yul\":297:626   */\n      swap3\n      swap2\n      pop\n      pop\n      jump\t// out\n        /* \"#utility.yul\":632:961   */\n    tag_36:\n        /* \"#utility.yul\":691:697   */\n      0x00\n        /* \"#utility.yul\":740:742   */\n      0x20\n        /* \"#utility.yul\":728:737   */\n      dup3\n        /* \"#utility.yul\":719:726   */\n      dup5\n        /* \"#utility.yul\":715:738   */\n      sub\n        /* \"#utility.yul\":711:743   */\n      slt\n        /* \"#utility.yul\":708:827   */\n      iszero\n      tag_65\n      jumpi\n        /* \"#utility.yul\":746:825   */\n      tag_66\n      tag_62\n      jump\t// in\n    tag_66:\n        /* \"#utility.yul\":708:827   */\n    tag_65:\n        /* \"#utility.yul\":866:867   */\n      0x00\n        /* \"#utility.yul\":891:944   */\n      tag_67\n        /* \"#utility.yul\":936:943   */\n      dup5\n        /* \"#utility.yul\":927:933   */\n      dup3\n        /* \"#utility.yul\":916:925   */\n      dup6\n        /* \"#utility.yul\":912:934   */\n      add\n        /* \"#utility.yul\":891:944   */\n      tag_55\n      jump\t// in\n    tag_67:\n        /* \"#utility.yul\":881:944   */\n      swap2\n      pop\n        /* \"#utility.yul\":837:954   */\n      pop\n        /* \"#utility.yul\":632:961   */\n      swap3\n      swap2\n      pop\n      pop\n      jump\t// out\n        /* \"#utility.yul\":967:1076   */\n    tag_68:\n        /* \"#utility.yul\":1048:1069   */\n      tag_70\n        /* \"#utility.yul\":1063:1068   */\n      dup2\n        /* \"#utility.yul\":1048:1069   */\n      tag_71\n      jump\t// in\n    tag_70:\n        /* \"#utility.yul\":1043:1046   */\n      dup3\n        /* \"#utility.yul\":1036:1070   */\n      mstore\n        /* \"#utility.yul\":967:1076   */\n      pop\n      pop\n      jump\t// out\n        /* \"#utility.yul\":1082:1200   */\n    tag_72:\n        /* \"#utility.yul\":1169:1193   */\n      tag_74\n        /* \"#utility.yul\":1187:1192   */\n      dup2\n        /* \"#utility.yul\":1169:1193   */\n      tag_75\n      jump\t// in\n    tag_74:\n        /* \"#utility.yul\":1164:1167   */\n      dup3\n        /* \"#utility.yul\":1157:1194   */\n      mstore\n        /* \"#utility.yul\":1082:1200   */\n      pop\n      pop\n      jump\t// out\n        /* \"#utility.yul\":1206:1416   */\n    tag_22:\n        /* \"#utility.yul\":1293:1297   */\n      0x00\n        /* \"#utility.yul\":1331:1333   */\n      0x20\n        /* \"#utility.yul\":1320:1329   */\n      dup3\n        /* \"#utility.yul\":1316:1334   */\n      add\n        /* \"#utility.yul\":1308:1334   */\n      swap1\n      pop\n        /* \"#utility.yul\":1344:1409   */\n      tag_77\n        /* \"#utility.yul\":1406:1407   */\n      0x00\n        /* \"#utility.yul\":1395:1404   */\n      dup4\n        /* \"#utility.yul\":1391:1408   */\n      add\n        /* \"#utility.yul\":1382:1388   */\n      dup5\n        /* \"#utility.yul\":1344:1409   */\n      tag_68\n      jump\t// in\n    tag_77:\n        /* \"#utility.yul\":1206:1416   */\n      swap3\n      swap2\n      pop\n      pop\n      jump\t// out\n        /* \"#utility.yul\":1422:1644   */\n    tag_15:\n        /* \"#utility.yul\":1515:1519   */\n      0x00\n        /* \"#utility.yul\":1553:1555   */\n      0x20\n        /* \"#utility.yul\":1542:1551   */\n      dup3\n        /* \"#utility.yul\":1538:1556   */\n      add\n        /* \"#utility.yul\":1530:1556   */\n      swap1\n      pop\n        /* \"#utility.yul\":1566:1637   */\n      tag_79\n        /* \"#utility.yul\":1634:1635   */\n      0x00\n        /* \"#utility.yul\":1623:1632   */\n      dup4\n        /* \"#utility.yul\":1619:1636   */\n      add\n        /* \"#utility.yul\":1610:1616   */\n      dup5\n        /* \"#utility.yul\":1566:1637   */\n      tag_72\n      jump\t// in\n    tag_79:\n        /* \"#utility.yul\":1422:1644   */\n      swap3\n      swap2\n      pop\n      pop\n      jump\t// out\n        /* \"#utility.yul\":1731:2036   */\n    tag_45:\n        /* \"#utility.yul\":1771:1774   */\n      0x00\n        /* \"#utility.yul\":1790:1810   */\n      tag_83\n        /* \"#utility.yul\":1808:1809   */\n      dup3\n        /* \"#utility.yul\":1790:1810   */\n      tag_75\n      jump\t// in\n    tag_83:\n        /* \"#utility.yul\":1785:1810   */\n      swap2\n      pop\n        /* \"#utility.yul\":1824:1844   */\n      tag_84\n        /* \"#utility.yul\":1842:1843   */\n      dup4\n        /* \"#utility.yul\":1824:1844   */\n      tag_75\n      jump\t// in\n    tag_84:\n        /* \"#utility.yul\":1819:1844   */\n      swap3\n      pop\n        /* \"#utility.yul\":1978:1979   */\n      dup3\n        /* \"#utility.yul\":1910:1976   */\n      0xffffffffffffffffffffffffffffffffffffffffffffffffffffffffffffffff\n        /* \"#utility.yul\":1906:1980   */\n      sub\n        /* \"#utility.yul\":1903:1904   */\n      dup3\n        /* \"#utility.yul\":1900:1981   */\n      gt\n        /* \"#utility.yul\":1897:2004   */\n      iszero\n      tag_85\n      jumpi\n        /* \"#utility.yul\":1984:2002   */\n      tag_86\n      tag_87\n      jump\t// in\n    tag_86:\n        /* \"#utility.yul\":1897:2004   */\n    tag_85:\n        /* \"#utility.yul\":2028:2029   */\n      dup3\n        /* \"#utility.yul\":2025:2026   */\n      dup3\n        /* \"#utility.yul\":2021:2030   */\n      add\n        /* \"#utility.yul\":2014:2030   */\n      swap1\n      pop\n        /* \"#utility.yul\":1731:2036   */\n      swap3\n      swap2\n      pop\n      pop\n      jump\t// out\n        /* \"#utility.yul\":2042:2390   */\n    tag_49:\n        /* \"#utility.yul\":2082:2089   */\n      0x00\n        /* \"#utility.yul\":2105:2125   */\n      tag_89\n        /* \"#utility.yul\":2123:2124   */\n      dup3\n        /* \"#utility.yul\":2105:2125   */\n      tag_75\n      jump\t// in\n    tag_89:\n        /* \"#utility.yul\":2100:2125   */\n      swap2\n      pop\n        /* \"#utility.yul\":2139:2159   */\n      tag_90\n        /* \"#utility.yul\":2157:2158   */\n      dup4\n        /* \"#utility.yul\":2139:2159   */\n      tag_75\n      jump\t// in\n    tag_90:\n        /* \"#utility.yul\":2134:2159   */\n      swap3\n      pop\n        /* \"#utility.yul\":2327:2328   */\n      dup2\n        /* \"#utility.yul\":2259:2325   */\n      0xffffffffffffffffffffffffffffffffffffffffffffffffffffffffffffffff\n        /* \"#utility.yul\":2255:2329   */\n      div\n        /* \"#utility.yul\":2252:2253   */\n      dup4\n        /* \"#utility.yul\":2249:2330   */\n      gt\n        /* \"#utility.yul\":2244:2245   */\n      dup3\n        /* \"#utility.yul\":2237:2246   */\n      iszero\n        /* \"#utility.yul\":2230:2247   */\n      iszero\n        /* \"#utility.yul\":2226:2331   */\n      and\n        /* \"#utility.yul\":2223:2354   */\n      iszero\n      tag_91\n      jumpi\n        /* \"#utility.yul\":2334:2352   */\n      tag_92\n      tag_87\n      jump\t// in\n    tag_92:\n        /* \"#utility.yul\":2223:2354   */\n    tag_91:\n        /* \"#utility.yul\":2382:2383   */\n      dup3\n        /* \"#utility.yul\":2379:2380   */\n      dup3\n        /* \"#utility.yul\":2375:2384   */\n      mul\n        /* \"#utility.yul\":2364:2384   */\n      swap1\n      pop\n        /* \"#utility.yul\":2042:2390   */\n      swap3\n      swap2\n      pop\n      pop\n      jump\t// out\n        /* \"#utility.yul\":2396:2492   */\n    tag_93:\n        /* \"#utility.yul\":2433:2440   */\n      0x00\n        /* \"#utility.yul\":2462:2486   */\n      tag_95\n        /* \"#utility.yul\":2480:2485   */\n      dup3\n        /* \"#utility.yul\":2462:2486   */\n      tag_96\n      jump\t// in\n    tag_95:\n        /* \"#utility.yul\":2451:2486   */\n      swap1\n      pop\n        /* \"#utility.yul\":2396:2492   */\n      swap2\n      swap1\n      pop\n      jump\t// out\n        /* \"#utility.yul\":2498:2588   */\n    tag_71:\n        /* \"#utility.yul\":2532:2539   */\n      0x00\n        /* \"#utility.yul\":2575:2580   */\n      dup2\n        /* \"#utility.yul\":2568:2581   */\n      iszero\n        /* \"#utility.yul\":2561:2582   */\n      iszero\n        /* \"#utility.yul\":2550:2582   */\n      swap1\n      pop\n        /* \"#utility.yul\":2498:2588   */\n      swap2\n      swap1\n      pop\n      jump\t// out\n        /* \"#utility.yul\":2594:2720   */\n    tag_96:\n        /* \"#utility.yul\":2631:2638   */\n      0x00\n        /* \"#utility.yul\":2671:2713   */\n      0xffffffffffffffffffffffffffffffffffffffff\n        /* \"#utility.yul\":2664:2669   */\n      dup3\n        /* \"#utility.yul\":2660:2714   */\n      and\n        /* \"#utility.yul\":2649:2714   */\n      swap1\n      pop\n        /* \"#utility.yul\":2594:2720   */\n      swap2\n      swap1\n      pop\n      jump\t// out\n        /* \"#utility.yul\":2726:2803   */\n    tag_75:\n        /* \"#utility.yul\":2763:2770   */\n      0x00\n        /* \"#utility.yul\":2792:2797   */\n      dup2\n        /* \"#utility.yul\":2781:2797   */\n      swap1\n      pop\n        /* \"#utility.yul\":2726:2803   */\n      swap2\n      swap1\n      pop\n      jump\t// out\n        /* \"#utility.yul\":2809:2989   */\n    tag_87:\n        /* \"#utility.yul\":2857:2934   */\n      0x4e487b7100000000000000000000000000000000000000000000000000000000\n        /* \"#utility.yul\":2854:2855   */\n      0x00\n        /* \"#utility.yul\":2847:2935   */\n      mstore\n        /* \"#utility.yul\":2954:2958   */\n      0x11\n        /* \"#utility.yul\":2951:2952   */\n      0x04\n        /* \"#utility.yul\":2944:2959   */\n      mstore\n        /* \"#utility.yul\":2978:2982   */\n      0x24\n        /* \"#utility.yul\":2975:2976   */\n      0x00\n        /* \"#utility.yul\":2968:2983   */\n      revert\n        /* \"#utility.yul\":3118:3235   */\n    tag_62:\n        /* \"#utility.yul\":3227:3228   */\n      0x00\n        /* \"#utility.yul\":3224:3225   */\n      dup1\n        /* \"#utility.yul\":3217:3229   */\n      revert\n        /* \"#utility.yul\":3241:3363   */\n    tag_54:\n        /* \"#utility.yul\":3314:3338   */\n      tag_105\n        /* \"#utility.yul\":3332:3337   */\n      dup2\n        /* \"#utility.yul\":3314:3338   */\n      tag_93\n      jump\t// in\n    tag_105:\n        /* \"#utility.yul\":3307:3312   */\n      dup2\n        /* \"#utility.yul\":3304:3339   */\n      eq\n        /* \"#utility.yul\":3294:3357   */\n      tag_106\n      jumpi\n        /* \"#utility.yul\":3353:3354   */\n      0x00\n        /* \"#utility.yul\":3350:3351   */\n      dup1\n        /* \"#utility.yul\":3343:3355   */\n      revert\n        /* \"#utility.yul\":3294:3357   */\n    tag_106:\n        /* \"#utility.yul\":3241:3363   */\n      pop\n      jump\t// out\n        /* \"#utility.yul\":3369:3491   */\n    tag_58:\n        /* \"#utility.yul\":3442:3466   */\n      tag_108\n        /* \"#utility.yul\":3460:3465   */\n      dup2\n        /* \"#utility.yul\":3442:3466   */\n      tag_75\n      jump\t// in\n    tag_108:\n        /* \"#utility.yul\":3435:3440   */\n      dup2\n        /* \"#utility.yul\":3432:3467   */\n      eq\n        /* \"#utility.yul\":3422:3485   */\n      tag_109\n      jumpi\n        /* \"#utility.yul\":3481:3482   */\n      0x00\n        /* \"#utility.yul\":3478:3479   */\n      dup1\n        /* \"#utility.yul\":3471:3483   */\n      revert\n        /* \"#utility.yul\":3422:3485   */\n    tag_109:\n        /* \"#utility.yul\":3369:3491   */\n      pop\n      jump\t// out\n\n    auxdata: 0xa2646970667358221220b5bb82cd9287e061d7c4cda1013f90f183ea0cdfde047338c26d130144e13c2764736f6c63430008070033\n}\n",
				"bytecode": {
					"linkReferences": {},
					"object": "6080604052612a30600055603c6001556001600255426003819055506104878061002a6000396000f3fe608060405234801561001057600080fd5b50600436106100885760003560e01c8063525f6e1d1161005b578063525f6e1d14610105578063817a5e14146101235780639e2b5a2f14610153578063cc44b07d1461018357610088565b806321ed4b271461008d578063335f1b37146100ab5780633f16ae34146100c9578063469df505146100e7575b600080fd5b6100956101a1565b6040516100a291906102dc565b60405180910390f35b6100b36101a7565b6040516100c091906102dc565b60405180910390f35b6100d16101af565b6040516100de91906102c1565b60405180910390f35b6100ef6101d6565b6040516100fc91906102dc565b60405180910390f35b61010d6101dc565b60405161011a91906102dc565b60405180910390f35b61013d60048036038101906101389190610249565b6101e2565b60405161014a91906102dc565b60405180910390f35b61016d60048036038101906101689190610276565b610203565b60405161017a91906102dc565b60405180910390f35b61018b610219565b60405161019891906102dc565b60405180910390f35b60025481565b600042905090565b6000806361a747a09050600062015180426101ca91906102f7565b90508082119250505090565b60015481565b60035481565b60008173ffffffffffffffffffffffffffffffffffffffff16319050919050565b6000805482610212919061034d565b9050919050565b60005481565b60008135905061022e81610423565b92915050565b6000813590506102438161043a565b92915050565b60006020828403121561025f5761025e61041e565b5b600061026d8482850161021f565b91505092915050565b60006020828403121561028c5761028b61041e565b5b600061029a84828501610234565b91505092915050565b6102ac816103b9565b82525050565b6102bb816103e5565b82525050565b60006020820190506102d660008301846102a3565b92915050565b60006020820190506102f160008301846102b2565b92915050565b6000610302826103e5565b915061030d836103e5565b9250827fffffffffffffffffffffffffffffffffffffffffffffffffffffffffffffffff03821115610342576103416103ef565b5b828201905092915050565b6000610358826103e5565b9150610363836103e5565b9250817fffffffffffffffffffffffffffffffffffffffffffffffffffffffffffffffff048311821515161561039c5761039b6103ef565b5b828202905092915050565b60006103b2826103c5565b9050919050565b60008115159050919050565b600073ffffffffffffffffffffffffffffffffffffffff82169050919050565b6000819050919050565b7f4e487b7100000000000000000000000000000000000000000000000000000000600052601160045260246000fd5b600080fd5b61042c816103a7565b811461043757600080fd5b50565b610443816103e5565b811461044e57600080fd5b5056fea2646970667358221220b5bb82cd9287e061d7c4cda1013f90f183ea0cdfde047338c26d130144e13c2764736f6c63430008070033",
					"opcodes": "PUSH1 0x80 PUSH1 0x40 MSTORE PUSH2 0x2A30 PUSH1 0x0 SSTORE PUSH1 0x3C PUSH1 0x1 SSTORE PUSH1 0x1 PUSH1 0x2 SSTORE TIMESTAMP PUSH1 0x3 DUP2 SWAP1 SSTORE POP PUSH2 0x487 DUP1 PUSH2 0x2A PUSH1 0x0 CODECOPY PUSH1 0x0 RETURN INVALID PUSH1 0x80 PUSH1 0x40 MSTORE CALLVALUE DUP1 ISZERO PUSH2 0x10 JUMPI PUSH1 0x0 DUP1 REVERT JUMPDEST POP PUSH1 0x4 CALLDATASIZE LT PUSH2 0x88 JUMPI PUSH1 0x0 CALLDATALOAD PUSH1 0xE0 SHR DUP1 PUSH4 0x525F6E1D GT PUSH2 0x5B JUMPI DUP1 PUSH4 0x525F6E1D EQ PUSH2 0x105 JUMPI DUP1 PUSH4 0x817A5E14 EQ PUSH2 0x123 JUMPI DUP1 PUSH4 0x9E2B5A2F EQ PUSH2 0x153 JUMPI DUP1 PUSH4 0xCC44B07D EQ PUSH2 0x183 JUMPI PUSH2 0x88 JUMP JUMPDEST DUP1 PUSH4 0x21ED4B27 EQ PUSH2 0x8D JUMPI DUP1 PUSH4 0x335F1B37 EQ PUSH2 0xAB JUMPI DUP1 PUSH4 0x3F16AE34 EQ PUSH2 0xC9 JUMPI DUP1 PUSH4 0x469DF505 EQ PUSH2 0xE7 JUMPI JUMPDEST PUSH1 0x0 DUP1 REVERT JUMPDEST PUSH2 0x95 PUSH2 0x1A1 JUMP JUMPDEST PUSH1 0x40 MLOAD PUSH2 0xA2 SWAP2 SWAP1 PUSH2 0x2DC JUMP JUMPDEST PUSH1 0x40 MLOAD DUP1 SWAP2 SUB SWAP1 RETURN JUMPDEST PUSH2 0xB3 PUSH2 0x1A7 JUMP JUMPDEST PUSH1 0x40 MLOAD PUSH2 0xC0 SWAP2 SWAP1 PUSH2 0x2DC JUMP JUMPDEST PUSH1 0x40 MLOAD DUP1 SWAP2 SUB SWAP1 RETURN JUMPDEST PUSH2 0xD1 PUSH2 0x1AF JUMP JUMPDEST PUSH1 0x40 MLOAD PUSH2 0xDE SWAP2 SWAP1 PUSH2 0x2C1 JUMP JUMPDEST PUSH1 0x40 MLOAD DUP1 SWAP2 SUB SWAP1 RETURN JUMPDEST PUSH2 0xEF PUSH2 0x1D6 JUMP JUMPDEST PUSH1 0x40 MLOAD PUSH2 0xFC SWAP2 SWAP1 PUSH2 0x2DC JUMP JUMPDEST PUSH1 0x40 MLOAD DUP1 SWAP2 SUB SWAP1 RETURN JUMPDEST PUSH2 0x10D PUSH2 0x1DC JUMP JUMPDEST PUSH1 0x40 MLOAD PUSH2 0x11A SWAP2 SWAP1 PUSH2 0x2DC JUMP JUMPDEST PUSH1 0x40 MLOAD DUP1 SWAP2 SUB SWAP1 RETURN JUMPDEST PUSH2 0x13D PUSH1 0x4 DUP1 CALLDATASIZE SUB DUP2 ADD SWAP1 PUSH2 0x138 SWAP2 SWAP1 PUSH2 0x249 JUMP JUMPDEST PUSH2 0x1E2 JUMP JUMPDEST PUSH1 0x40 MLOAD PUSH2 0x14A SWAP2 SWAP1 PUSH2 0x2DC JUMP JUMPDEST PUSH1 0x40 MLOAD DUP1 SWAP2 SUB SWAP1 RETURN JUMPDEST PUSH2 0x16D PUSH1 0x4 DUP1 CALLDATASIZE SUB DUP2 ADD SWAP1 PUSH2 0x168 SWAP2 SWAP1 PUSH2 0x276 JUMP JUMPDEST PUSH2 0x203 JUMP JUMPDEST PUSH1 0x40 MLOAD PUSH2 0x17A SWAP2 SWAP1 PUSH2 0x2DC JUMP JUMPDEST PUSH1 0x40 MLOAD DUP1 SWAP2 SUB SWAP1 RETURN JUMPDEST PUSH2 0x18B PUSH2 0x219 JUMP JUMPDEST PUSH1 0x40 MLOAD PUSH2 0x198 SWAP2 SWAP1 PUSH2 0x2DC JUMP JUMPDEST PUSH1 0x40 MLOAD DUP1 SWAP2 SUB SWAP1 RETURN JUMPDEST PUSH1 0x2 SLOAD DUP2 JUMP JUMPDEST PUSH1 0x0 TIMESTAMP SWAP1 POP SWAP1 JUMP JUMPDEST PUSH1 0x0 DUP1 PUSH4 0x61A747A0 SWAP1 POP PUSH1 0x0 PUSH3 0x15180 TIMESTAMP PUSH2 0x1CA SWAP2 SWAP1 PUSH2 0x2F7 JUMP JUMPDEST SWAP1 POP DUP1 DUP3 GT SWAP3 POP POP POP SWAP1 JUMP JUMPDEST PUSH1 0x1 SLOAD DUP2 JUMP JUMPDEST PUSH1 0x3 SLOAD DUP2 JUMP JUMPDEST PUSH1 0x0 DUP2 PUSH20 0xFFFFFFFFFFFFFFFFFFFFFFFFFFFFFFFFFFFFFFFF AND BALANCE SWAP1 POP SWAP2 SWAP1 POP JUMP JUMPDEST PUSH1 0x0 DUP1 SLOAD DUP3 PUSH2 0x212 SWAP2 SWAP1 PUSH2 0x34D JUMP JUMPDEST SWAP1 POP SWAP2 SWAP1 POP JUMP JUMPDEST PUSH1 0x0 SLOAD DUP2 JUMP JUMPDEST PUSH1 0x0 DUP2 CALLDATALOAD SWAP1 POP PUSH2 0x22E DUP2 PUSH2 0x423 JUMP JUMPDEST SWAP3 SWAP2 POP POP JUMP JUMPDEST PUSH1 0x0 DUP2 CALLDATALOAD SWAP1 POP PUSH2 0x243 DUP2 PUSH2 0x43A JUMP JUMPDEST SWAP3 SWAP2 POP POP JUMP JUMPDEST PUSH1 0x0 PUSH1 0x20 DUP3 DUP5 SUB SLT ISZERO PUSH2 0x25F JUMPI PUSH2 0x25E PUSH2 0x41E JUMP JUMPDEST JUMPDEST PUSH1 0x0 PUSH2 0x26D DUP5 DUP3 DUP6 ADD PUSH2 0x21F JUMP JUMPDEST SWAP2 POP POP SWAP3 SWAP2 POP POP JUMP JUMPDEST PUSH1 0x0 PUSH1 0x20 DUP3 DUP5 SUB SLT ISZERO PUSH2 0x28C JUMPI PUSH2 0x28B PUSH2 0x41E JUMP JUMPDEST JUMPDEST PUSH1 0x0 PUSH2 0x29A DUP5 DUP3 DUP6 ADD PUSH2 0x234 JUMP JUMPDEST SWAP2 POP POP SWAP3 SWAP2 POP POP JUMP JUMPDEST PUSH2 0x2AC DUP2 PUSH2 0x3B9 JUMP JUMPDEST DUP3 MSTORE POP POP JUMP JUMPDEST PUSH2 0x2BB DUP2 PUSH2 0x3E5 JUMP JUMPDEST DUP3 MSTORE POP POP JUMP JUMPDEST PUSH1 0x0 PUSH1 0x20 DUP3 ADD SWAP1 POP PUSH2 0x2D6 PUSH1 0x0 DUP4 ADD DUP5 PUSH2 0x2A3 JUMP JUMPDEST SWAP3 SWAP2 POP POP JUMP JUMPDEST PUSH1 0x0 PUSH1 0x20 DUP3 ADD SWAP1 POP PUSH2 0x2F1 PUSH1 0x0 DUP4 ADD DUP5 PUSH2 0x2B2 JUMP JUMPDEST SWAP3 SWAP2 POP POP JUMP JUMPDEST PUSH1 0x0 PUSH2 0x302 DUP3 PUSH2 0x3E5 JUMP JUMPDEST SWAP2 POP PUSH2 0x30D DUP4 PUSH2 0x3E5 JUMP JUMPDEST SWAP3 POP DUP3 PUSH32 0xFFFFFFFFFFFFFFFFFFFFFFFFFFFFFFFFFFFFFFFFFFFFFFFFFFFFFFFFFFFFFFFF SUB DUP3 GT ISZERO PUSH2 0x342 JUMPI PUSH2 0x341 PUSH2 0x3EF JUMP JUMPDEST JUMPDEST DUP3 DUP3 ADD SWAP1 POP SWAP3 SWAP2 POP POP JUMP JUMPDEST PUSH1 0x0 PUSH2 0x358 DUP3 PUSH2 0x3E5 JUMP JUMPDEST SWAP2 POP PUSH2 0x363 DUP4 PUSH2 0x3E5 JUMP JUMPDEST SWAP3 POP DUP2 PUSH32 0xFFFFFFFFFFFFFFFFFFFFFFFFFFFFFFFFFFFFFFFFFFFFFFFFFFFFFFFFFFFFFFFF DIV DUP4 GT DUP3 ISZERO ISZERO AND ISZERO PUSH2 0x39C JUMPI PUSH2 0x39B PUSH2 0x3EF JUMP JUMPDEST JUMPDEST DUP3 DUP3 MUL SWAP1 POP SWAP3 SWAP2 POP POP JUMP JUMPDEST PUSH1 0x0 PUSH2 0x3B2 DUP3 PUSH2 0x3C5 JUMP JUMPDEST SWAP1 POP SWAP2 SWAP1 POP JUMP JUMPDEST PUSH1 0x0 DUP2 ISZERO ISZERO SWAP1 POP SWAP2 SWAP1 POP JUMP JUMPDEST PUSH1 0x0 PUSH20 0xFFFFFFFFFFFFFFFFFFFFFFFFFFFFFFFFFFFFFFFF DUP3 AND SWAP1 POP SWAP2 SWAP1 POP JUMP JUMPDEST PUSH1 0x0 DUP2 SWAP1 POP SWAP2 SWAP1 POP JUMP JUMPDEST PUSH32 0x4E487B7100000000000000000000000000000000000000000000000000000000 PUSH1 0x0 MSTORE PUSH1 0x11 PUSH1 0x4 MSTORE PUSH1 0x24 PUSH1 0x0 REVERT JUMPDEST PUSH1 0x0 DUP1 REVERT JUMPDEST PUSH2 0x42C DUP2 PUSH2 0x3A7 JUMP JUMPDEST DUP2 EQ PUSH2 0x437 JUMPI PUSH1 0x0 DUP1 REVERT JUMPDEST POP JUMP JUMPDEST PUSH2 0x443 DUP2 PUSH2 0x3E5 JUMP JUMPDEST DUP2 EQ PUSH2 0x44E JUMPI PUSH1 0x0 DUP1 REVERT JUMPDEST POP JUMP INVALID LOG2 PUSH5 0x6970667358 0x22 SLT KECCAK256 0xB5 0xBB DUP3 0xCD SWAP3 DUP8 0xE0 PUSH2 0xD7C4 0xCD LOG1 ADD EXTCODEHASH SWAP1 CALL DUP4 0xEA 0xC 0xDF 0xDE DIV PUSH20 0x38C26D130144E13C2764736F6C63430008070033 "
				},
				"gasEstimates": {
					"creation": {
						"codeDepositCost": "231800",
						"executionCost": "88682",
						"totalCost": "320482"
					},
					"external": {
						"daysPassedSinceLaunch()": "infinite",
						"deployedDay()": "2429",
						"getSecondsTime(uint256)": "infinite",
						"myBalance(address)": "3279",
						"nowTime()": "359",
						"oneMinute()": "2496",
						"oneSecond()": "2430",
						"threeHours()": "2495"
					}
				},
				"methodIdentifiers": {
					"daysPassedSinceLaunch()": "3f16ae34",
					"deployedDay()": "525f6e1d",
					"getSecondsTime(uint256)": "9e2b5a2f",
					"myBalance(address)": "817a5e14",
					"nowTime()": "335f1b37",
					"oneMinute()": "469df505",
					"oneSecond()": "21ed4b27",
					"threeHours()": "cc44b07d"
				}
			},
			"storageLayout": {
				"storage": [
					{
						"astId": 4,
						"contract": "Time.sol:Time",
						"label": "threeHours",
						"offset": 0,
						"slot": "0",
						"type": "t_uint256"
					},
					{
						"astId": 7,
						"contract": "Time.sol:Time",
						"label": "oneMinute",
						"offset": 0,
						"slot": "1",
						"type": "t_uint256"
					},
					{
						"astId": 10,
						"contract": "Time.sol:Time",
						"label": "oneSecond",
						"offset": 0,
						"slot": "2",
						"type": "t_uint256"
					},
					{
						"astId": 12,
						"contract": "Time.sol:Time",
						"label": "deployedDay",
						"offset": 0,
						"slot": "3",
						"type": "t_uint256"
					}
				],
				"types": {
					"t_uint256": {
						"encoding": "inplace",
						"label": "uint256",
						"numberOfBytes": "32"
					}
				}
			},
			"userdoc": {
				"kind": "user",
				"methods": {},
				"version": 1
			}
		}
	}
}