{
	"Campaign.sol": {
		"Campaign": {
			"abi": [
				{
					"inputs": [
						{
							"internalType": "string",
							"name": "name",
							"type": "string"
						},
						{
							"internalType": "uint256",
							"name": "amountNeeded",
							"type": "uint256"
						},
						{
							"internalType": "bool",
							"name": "accept",
							"type": "bool"
						},
						{
							"internalType": "uint256",
							"name": "minAMount",
							"type": "uint256"
						}
					],
					"name": "createDonation",
					"outputs": [
						{
							"internalType": "address",
							"name": "",
							"type": "address"
						}
					],
					"stateMutability": "nonpayable",
					"type": "function"
				},
				{
					"inputs": [
						{
							"internalType": "address",
							"name": "campaignAddress",
							"type": "address"
						}
					],
					"name": "donateToCampaign",
					"outputs": [],
					"stateMutability": "payable",
					"type": "function"
				},
				{
					"inputs": [],
					"name": "getCampaigns",
					"outputs": [
						{
							"internalType": "contract Donation[]",
							"name": "",
							"type": "address[]"
						}
					],
					"stateMutability": "view",
					"type": "function"
				},
				{
					"inputs": [
						{
							"internalType": "address",
							"name": "campaignAddress",
							"type": "address"
						}
					],
					"name": "getCampainBalance",
					"outputs": [
						{
							"internalType": "uint256",
							"name": "",
							"type": "uint256"
						}
					],
					"stateMutability": "view",
					"type": "function"
				},
				{
					"inputs": [
						{
							"internalType": "address",
							"name": "campaignAddress",
							"type": "address"
						}
					],
					"name": "getCampainName",
					"outputs": [
						{
							"internalType": "string",
							"name": "",
							"type": "string"
						}
					],
					"stateMutability": "view",
					"type": "function"
				},
				{
					"inputs": [
						{
							"internalType": "address",
							"name": "campaignAddress",
							"type": "address"
						}
					],
					"name": "getCampainOwner",
					"outputs": [
						{
							"internalType": "address",
							"name": "",
							"type": "address"
						}
					],
					"stateMutability": "view",
					"type": "function"
				},
				{
					"inputs": [
						{
							"internalType": "address",
							"name": "campaignAddress",
							"type": "address"
						}
					],
					"name": "withdrawFromCampaign",
					"outputs": [],
					"stateMutability": "nonpayable",
					"type": "function"
				}
			],
			"devdoc": {
				"kind": "dev",
				"methods": {},
				"version": 1
			},
			"evm": {
				"assembly": "    /* \"Campaign.sol\":96:1451  contract Campaign {... */\n  mstore(0x40, 0x80)\n  callvalue\n  dup1\n  iszero\n  tag_1\n  jumpi\n  0x00\n  dup1\n  revert\ntag_1:\n  pop\n  dataSize(sub_0)\n  dup1\n  dataOffset(sub_0)\n  0x00\n  codecopy\n  0x00\n  return\nstop\n\nsub_0: assembly {\n        /* \"Campaign.sol\":96:1451  contract Campaign {... */\n      mstore(0x40, 0x80)\n      jumpi(tag_1, lt(calldatasize, 0x04))\n      shr(0xe0, calldataload(0x00))\n      dup1\n      0xa3e8f260\n      gt\n      tag_9\n      jumpi\n      dup1\n      0xa3e8f260\n      eq\n      tag_5\n      jumpi\n      dup1\n      0xa6b03633\n      eq\n      tag_6\n      jumpi\n      dup1\n      0xe5482153\n      eq\n      tag_7\n      jumpi\n      dup1\n      0xf4139c58\n      eq\n      tag_8\n      jumpi\n      jump(tag_1)\n    tag_9:\n      dup1\n      0x17cfc652\n      eq\n      tag_2\n      jumpi\n      dup1\n      0x767d78b2\n      eq\n      tag_3\n      jumpi\n      dup1\n      0x7c6abc82\n      eq\n      tag_4\n      jumpi\n    tag_1:\n      0x00\n      dup1\n      revert\n        /* \"Campaign.sol\":148:442  function createDonation(string memory name, uint amountNeeded, bool accept, uint minAMount) public returns(address) {... */\n    tag_2:\n      callvalue\n      dup1\n      iszero\n      tag_10\n      jumpi\n      0x00\n      dup1\n      revert\n    tag_10:\n      pop\n      tag_11\n      0x04\n      dup1\n      calldatasize\n      sub\n      dup2\n      add\n      swap1\n      tag_12\n      swap2\n      swap1\n      tag_13\n      jump\t// in\n    tag_12:\n      tag_14\n      jump\t// in\n    tag_11:\n      mload(0x40)\n      tag_15\n      swap2\n      swap1\n      tag_16\n      jump\t// in\n    tag_15:\n      mload(0x40)\n      dup1\n      swap2\n      sub\n      swap1\n      return\n        /* \"Campaign.sol\":643:826  function getCampainBalance(address campaignAddress) public view returns(uint) {... */\n    tag_3:\n      callvalue\n      dup1\n      iszero\n      tag_17\n      jumpi\n      0x00\n      dup1\n      revert\n    tag_17:\n      pop\n      tag_18\n      0x04\n      dup1\n      calldatasize\n      sub\n      dup2\n      add\n      swap1\n      tag_19\n      swap2\n      swap1\n      tag_20\n      jump\t// in\n    tag_19:\n      tag_21\n      jump\t// in\n    tag_18:\n      mload(0x40)\n      tag_22\n      swap2\n      swap1\n      tag_23\n      jump\t// in\n    tag_22:\n      mload(0x40)\n      dup1\n      swap2\n      sub\n      swap1\n      return\n        /* \"Campaign.sol\":934:1107  function donateToCampaign(address campaignAddress) payable public {... */\n    tag_4:\n      tag_24\n      0x04\n      dup1\n      calldatasize\n      sub\n      dup2\n      add\n      swap1\n      tag_25\n      swap2\n      swap1\n      tag_20\n      jump\t// in\n    tag_25:\n      tag_26\n      jump\t// in\n    tag_24:\n      stop\n        /* \"Campaign.sol\":1272:1449  function getCampainOwner(address campaignAddress) public view returns(address) {... */\n    tag_5:\n      callvalue\n      dup1\n      iszero\n      tag_27\n      jumpi\n      0x00\n      dup1\n      revert\n    tag_27:\n      pop\n      tag_28\n      0x04\n      dup1\n      calldatasize\n      sub\n      dup2\n      add\n      swap1\n      tag_29\n      swap2\n      swap1\n      tag_20\n      jump\t// in\n    tag_29:\n      tag_30\n      jump\t// in\n    tag_28:\n      mload(0x40)\n      tag_31\n      swap2\n      swap1\n      tag_16\n      jump\t// in\n    tag_31:\n      mload(0x40)\n      dup1\n      swap2\n      sub\n      swap1\n      return\n        /* \"Campaign.sol\":832:928  function getCampaigns() view public returns(Donation[] memory) {... */\n    tag_6:\n      callvalue\n      dup1\n      iszero\n      tag_32\n      jumpi\n      0x00\n      dup1\n      revert\n    tag_32:\n      pop\n      tag_33\n      tag_34\n      jump\t// in\n    tag_33:\n      mload(0x40)\n      tag_35\n      swap2\n      swap1\n      tag_36\n      jump\t// in\n    tag_35:\n      mload(0x40)\n      dup1\n      swap2\n      sub\n      swap1\n      return\n        /* \"Campaign.sol\":1113:1266  function withdrawFromCampaign(address campaignAddress) public {... */\n    tag_7:\n      callvalue\n      dup1\n      iszero\n      tag_37\n      jumpi\n      0x00\n      dup1\n      revert\n    tag_37:\n      pop\n      tag_38\n      0x04\n      dup1\n      calldatasize\n      sub\n      dup2\n      add\n      swap1\n      tag_39\n      swap2\n      swap1\n      tag_20\n      jump\t// in\n    tag_39:\n      tag_40\n      jump\t// in\n    tag_38:\n      stop\n        /* \"Campaign.sol\":448:637  function getCampainName(address campaignAddress) public view returns(string memory) {... */\n    tag_8:\n      callvalue\n      dup1\n      iszero\n      tag_41\n      jumpi\n      0x00\n      dup1\n      revert\n    tag_41:\n      pop\n      tag_42\n      0x04\n      dup1\n      calldatasize\n      sub\n      dup2\n      add\n      swap1\n      tag_43\n      swap2\n      swap1\n      tag_20\n      jump\t// in\n    tag_43:\n      tag_44\n      jump\t// in\n    tag_42:\n      mload(0x40)\n      tag_45\n      swap2\n      swap1\n      tag_46\n      jump\t// in\n    tag_45:\n      mload(0x40)\n      dup1\n      swap2\n      sub\n      swap1\n      return\n        /* \"Campaign.sol\":148:442  function createDonation(string memory name, uint amountNeeded, bool accept, uint minAMount) public returns(address) {... */\n    tag_14:\n        /* \"Campaign.sol\":255:262  address */\n      0x00\n        /* \"Campaign.sol\":274:291  Donation donation */\n      dup1\n        /* \"Campaign.sol\":320:324  name */\n      dup6\n        /* \"Campaign.sol\":326:335  minAMount */\n      dup4\n        /* \"Campaign.sol\":337:343  accept */\n      dup6\n        /* \"Campaign.sol\":345:357  amountNeeded */\n      dup8\n        /* \"Campaign.sol\":294:367  new Donation(... */\n      mload(0x40)\n      tag_48\n      swap1\n      tag_49\n      jump\t// in\n    tag_48:\n      tag_50\n      swap5\n      swap4\n      swap3\n      swap2\n      swap1\n      tag_51\n      jump\t// in\n    tag_50:\n      mload(0x40)\n      dup1\n      swap2\n      sub\n      swap1\n      0x00\n      create\n      dup1\n      iszero\n      dup1\n      iszero\n      tag_52\n      jumpi\n      returndatasize\n      0x00\n      dup1\n      returndatacopy\n      revert(0x00, returndatasize)\n    tag_52:\n      pop\n        /* \"Campaign.sol\":274:367  Donation donation = new Donation(... */\n      swap1\n      pop\n        /* \"Campaign.sol\":377:386  donations */\n      0x00\n        /* \"Campaign.sol\":392:400  donation */\n      dup2\n        /* \"Campaign.sol\":377:401  donations.push(donation) */\n      swap1\n      dup1\n      0x01\n      dup2\n      sload\n      add\n      dup1\n      dup3\n      sstore\n      dup1\n      swap2\n      pop\n      pop\n      0x01\n      swap1\n      sub\n      swap1\n      0x00\n      mstore\n      keccak256(0x00, 0x20)\n      add\n      0x00\n      swap1\n      swap2\n      swap1\n      swap2\n      swap1\n      swap2\n      0x0100\n      exp\n      dup2\n      sload\n      dup2\n      0xffffffffffffffffffffffffffffffffffffffff\n      mul\n      not\n      and\n      swap1\n      dup4\n      0xffffffffffffffffffffffffffffffffffffffff\n      and\n      mul\n      or\n      swap1\n      sstore\n      pop\n        /* \"Campaign.sol\":426:434  donation */\n      dup1\n        /* \"Campaign.sol\":411:435  return address(donation) */\n      swap2\n      pop\n      pop\n        /* \"Campaign.sol\":148:442  function createDonation(string memory name, uint amountNeeded, bool accept, uint minAMount) public returns(address) {... */\n      swap5\n      swap4\n      pop\n      pop\n      pop\n      pop\n      jump\t// out\n        /* \"Campaign.sol\":643:826  function getCampainBalance(address campaignAddress) public view returns(uint) {... */\n    tag_21:\n        /* \"Campaign.sol\":715:719  uint */\n      0x00\n        /* \"Campaign.sol\":731:748  Donation donation */\n      dup1\n        /* \"Campaign.sol\":760:775  campaignAddress */\n      dup3\n        /* \"Campaign.sol\":731:776  Donation donation = Donation(campaignAddress) */\n      swap1\n      pop\n        /* \"Campaign.sol\":793:801  donation */\n      dup1\n        /* \"Campaign.sol\":793:817  donation.donationBalance */\n      0xffffffffffffffffffffffffffffffffffffffff\n      and\n      0xed11f46a\n        /* \"Campaign.sol\":793:819  donation.donationBalance() */\n      mload(0x40)\n      dup2\n      0xffffffff\n      and\n      0xe0\n      shl\n      dup2\n      mstore\n      0x04\n      add\n      0x20\n      mload(0x40)\n      dup1\n      dup4\n      sub\n      dup2\n      dup7\n      dup1\n      extcodesize\n      iszero\n      dup1\n      iszero\n      tag_55\n      jumpi\n      0x00\n      dup1\n      revert\n    tag_55:\n      pop\n      gas\n      staticcall\n      iszero\n      dup1\n      iszero\n      tag_57\n      jumpi\n      returndatasize\n      0x00\n      dup1\n      returndatacopy\n      revert(0x00, returndatasize)\n    tag_57:\n      pop\n      pop\n      pop\n      pop\n      mload(0x40)\n      returndatasize\n      not(0x1f)\n      0x1f\n      dup3\n      add\n      and\n      dup3\n      add\n      dup1\n      0x40\n      mstore\n      pop\n      dup2\n      add\n      swap1\n      tag_58\n      swap2\n      swap1\n      tag_59\n      jump\t// in\n    tag_58:\n        /* \"Campaign.sol\":786:819  return donation.donationBalance() */\n      swap2\n      pop\n      pop\n        /* \"Campaign.sol\":643:826  function getCampainBalance(address campaignAddress) public view returns(uint) {... */\n      swap2\n      swap1\n      pop\n      jump\t// out\n        /* \"Campaign.sol\":934:1107  function donateToCampaign(address campaignAddress) payable public {... */\n    tag_26:\n        /* \"Campaign.sol\":1010:1027  Donation donation */\n      0x00\n        /* \"Campaign.sol\":1039:1054  campaignAddress */\n      dup2\n        /* \"Campaign.sol\":1010:1055  Donation donation = Donation(campaignAddress) */\n      swap1\n      pop\n        /* \"Campaign.sol\":1065:1073  donation */\n      dup1\n        /* \"Campaign.sol\":1065:1080  donation.donate */\n      0xffffffffffffffffffffffffffffffffffffffff\n      and\n      0xed88c68e\n        /* \"Campaign.sol\":1088:1097  msg.value */\n      callvalue\n        /* \"Campaign.sol\":1065:1100  donation.donate{value: msg.value}() */\n      mload(0x40)\n      dup3\n      0xffffffff\n      and\n      0xe0\n      shl\n      dup2\n      mstore\n      0x04\n      add\n      0x00\n      mload(0x40)\n      dup1\n      dup4\n      sub\n      dup2\n      dup6\n      dup9\n      dup1\n      extcodesize\n      iszero\n      dup1\n      iszero\n      tag_61\n      jumpi\n      0x00\n      dup1\n      revert\n    tag_61:\n      pop\n      gas\n      call\n      iszero\n      dup1\n      iszero\n      tag_63\n      jumpi\n      returndatasize\n      0x00\n      dup1\n      returndatacopy\n      revert(0x00, returndatasize)\n    tag_63:\n      pop\n      pop\n      pop\n      pop\n      pop\n        /* \"Campaign.sol\":1000:1107  {... */\n      pop\n        /* \"Campaign.sol\":934:1107  function donateToCampaign(address campaignAddress) payable public {... */\n      pop\n      jump\t// out\n        /* \"Campaign.sol\":1272:1449  function getCampainOwner(address campaignAddress) public view returns(address) {... */\n    tag_30:\n        /* \"Campaign.sol\":1342:1349  address */\n      0x00\n        /* \"Campaign.sol\":1361:1378  Donation donation */\n      dup1\n        /* \"Campaign.sol\":1390:1405  campaignAddress */\n      dup3\n        /* \"Campaign.sol\":1361:1406  Donation donation = Donation(campaignAddress) */\n      swap1\n      pop\n        /* \"Campaign.sol\":1423:1431  donation */\n      dup1\n        /* \"Campaign.sol\":1423:1440  donation.getOwner */\n      0xffffffffffffffffffffffffffffffffffffffff\n      and\n      0x893d20e8\n        /* \"Campaign.sol\":1423:1442  donation.getOwner() */\n      mload(0x40)\n      dup2\n      0xffffffff\n      and\n      0xe0\n      shl\n      dup2\n      mstore\n      0x04\n      add\n      0x20\n      mload(0x40)\n      dup1\n      dup4\n      sub\n      dup2\n      dup7\n      dup1\n      extcodesize\n      iszero\n      dup1\n      iszero\n      tag_65\n      jumpi\n      0x00\n      dup1\n      revert\n    tag_65:\n      pop\n      gas\n      staticcall\n      iszero\n      dup1\n      iszero\n      tag_67\n      jumpi\n      returndatasize\n      0x00\n      dup1\n      returndatacopy\n      revert(0x00, returndatasize)\n    tag_67:\n      pop\n      pop\n      pop\n      pop\n      mload(0x40)\n      returndatasize\n      not(0x1f)\n      0x1f\n      dup3\n      add\n      and\n      dup3\n      add\n      dup1\n      0x40\n      mstore\n      pop\n      dup2\n      add\n      swap1\n      tag_68\n      swap2\n      swap1\n      tag_69\n      jump\t// in\n    tag_68:\n        /* \"Campaign.sol\":1416:1442  return donation.getOwner() */\n      swap2\n      pop\n      pop\n        /* \"Campaign.sol\":1272:1449  function getCampainOwner(address campaignAddress) public view returns(address) {... */\n      swap2\n      swap1\n      pop\n      jump\t// out\n        /* \"Campaign.sol\":832:928  function getCampaigns() view public returns(Donation[] memory) {... */\n    tag_34:\n        /* \"Campaign.sol\":876:893  Donation[] memory */\n      0x60\n        /* \"Campaign.sol\":912:921  donations */\n      0x00\n        /* \"Campaign.sol\":905:921  return donations */\n      dup1\n      sload\n      dup1\n      0x20\n      mul\n      0x20\n      add\n      mload(0x40)\n      swap1\n      dup2\n      add\n      0x40\n      mstore\n      dup1\n      swap3\n      swap2\n      swap1\n      dup2\n      dup2\n      mstore\n      0x20\n      add\n      dup3\n      dup1\n      sload\n      dup1\n      iszero\n      tag_71\n      jumpi\n      0x20\n      mul\n      dup3\n      add\n      swap2\n      swap1\n      0x00\n      mstore\n      keccak256(0x00, 0x20)\n      swap1\n    tag_72:\n      dup2\n      0x00\n      swap1\n      sload\n      swap1\n      0x0100\n      exp\n      swap1\n      div\n      0xffffffffffffffffffffffffffffffffffffffff\n      and\n      0xffffffffffffffffffffffffffffffffffffffff\n      and\n      dup2\n      mstore\n      0x20\n      add\n      swap1\n      0x01\n      add\n      swap1\n      dup1\n      dup4\n      gt\n      tag_72\n      jumpi\n    tag_71:\n      pop\n      pop\n      pop\n      pop\n      pop\n      swap1\n      pop\n        /* \"Campaign.sol\":832:928  function getCampaigns() view public returns(Donation[] memory) {... */\n      swap1\n      jump\t// out\n        /* \"Campaign.sol\":1113:1266  function withdrawFromCampaign(address campaignAddress) public {... */\n    tag_40:\n        /* \"Campaign.sol\":1185:1202  Donation donation */\n      0x00\n        /* \"Campaign.sol\":1214:1229  campaignAddress */\n      dup2\n        /* \"Campaign.sol\":1185:1230  Donation donation = Donation(campaignAddress) */\n      swap1\n      pop\n        /* \"Campaign.sol\":1240:1248  donation */\n      dup1\n        /* \"Campaign.sol\":1240:1257  donation.withdraw */\n      0xffffffffffffffffffffffffffffffffffffffff\n      and\n      0x3ccfd60b\n        /* \"Campaign.sol\":1240:1259  donation.withdraw() */\n      mload(0x40)\n      dup2\n      0xffffffff\n      and\n      0xe0\n      shl\n      dup2\n      mstore\n      0x04\n      add\n      0x00\n      mload(0x40)\n      dup1\n      dup4\n      sub\n      dup2\n      0x00\n      dup8\n      dup1\n      extcodesize\n      iszero\n      dup1\n      iszero\n      tag_74\n      jumpi\n      0x00\n      dup1\n      revert\n    tag_74:\n      pop\n      gas\n      call\n      iszero\n      dup1\n      iszero\n      tag_76\n      jumpi\n      returndatasize\n      0x00\n      dup1\n      returndatacopy\n      revert(0x00, returndatasize)\n    tag_76:\n      pop\n      pop\n      pop\n      pop\n        /* \"Campaign.sol\":1175:1266  {... */\n      pop\n        /* \"Campaign.sol\":1113:1266  function withdrawFromCampaign(address campaignAddress) public {... */\n      pop\n      jump\t// out\n        /* \"Campaign.sol\":448:637  function getCampainName(address campaignAddress) public view returns(string memory) {... */\n    tag_44:\n        /* \"Campaign.sol\":517:530  string memory */\n      0x60\n        /* \"Campaign.sol\":542:559  Donation donation */\n      0x00\n        /* \"Campaign.sol\":571:586  campaignAddress */\n      dup3\n        /* \"Campaign.sol\":542:587  Donation donation = Donation(campaignAddress) */\n      swap1\n      pop\n        /* \"Campaign.sol\":604:612  donation */\n      dup1\n        /* \"Campaign.sol\":604:628  donation.getDonationName */\n      0xffffffffffffffffffffffffffffffffffffffff\n      and\n      0xeae3f764\n        /* \"Campaign.sol\":604:630  donation.getDonationName() */\n      mload(0x40)\n      dup2\n      0xffffffff\n      and\n      0xe0\n      shl\n      dup2\n      mstore\n      0x04\n      add\n      0x00\n      mload(0x40)\n      dup1\n      dup4\n      sub\n      dup2\n      dup7\n      dup1\n      extcodesize\n      iszero\n      dup1\n      iszero\n      tag_78\n      jumpi\n      0x00\n      dup1\n      revert\n    tag_78:\n      pop\n      gas\n      staticcall\n      iszero\n      dup1\n      iszero\n      tag_80\n      jumpi\n      returndatasize\n      0x00\n      dup1\n      returndatacopy\n      revert(0x00, returndatasize)\n    tag_80:\n      pop\n      pop\n      pop\n      pop\n      mload(0x40)\n      returndatasize\n      0x00\n      dup3\n      returndatacopy\n      returndatasize\n      not(0x1f)\n      0x1f\n      dup3\n      add\n      and\n      dup3\n      add\n      dup1\n      0x40\n      mstore\n      pop\n      dup2\n      add\n      swap1\n      tag_81\n      swap2\n      swap1\n      tag_82\n      jump\t// in\n    tag_81:\n        /* \"Campaign.sol\":597:630  return donation.getDonationName() */\n      swap2\n      pop\n      pop\n        /* \"Campaign.sol\":448:637  function getCampainName(address campaignAddress) public view returns(string memory) {... */\n      swap2\n      swap1\n      pop\n      jump\t// out\n    tag_49:\n      dataSize(sub_0)\n      dup1\n      dataOffset(sub_0)\n      dup4\n      codecopy\n      add\n      swap1\n      jump\t// out\n        /* \"#utility.yul\":7:419   */\n    tag_84:\n        /* \"#utility.yul\":85:90   */\n      0x00\n        /* \"#utility.yul\":110:176   */\n      tag_86\n        /* \"#utility.yul\":126:175   */\n      tag_87\n        /* \"#utility.yul\":168:174   */\n      dup5\n        /* \"#utility.yul\":126:175   */\n      tag_88\n      jump\t// in\n    tag_87:\n        /* \"#utility.yul\":110:176   */\n      tag_89\n      jump\t// in\n    tag_86:\n        /* \"#utility.yul\":101:176   */\n      swap1\n      pop\n        /* \"#utility.yul\":199:205   */\n      dup3\n        /* \"#utility.yul\":192:197   */\n      dup2\n        /* \"#utility.yul\":185:206   */\n      mstore\n        /* \"#utility.yul\":237:241   */\n      0x20\n        /* \"#utility.yul\":230:235   */\n      dup2\n        /* \"#utility.yul\":226:242   */\n      add\n        /* \"#utility.yul\":275:278   */\n      dup5\n        /* \"#utility.yul\":266:272   */\n      dup5\n        /* \"#utility.yul\":261:264   */\n      dup5\n        /* \"#utility.yul\":257:273   */\n      add\n        /* \"#utility.yul\":254:279   */\n      gt\n        /* \"#utility.yul\":251:363   */\n      iszero\n      tag_90\n      jumpi\n        /* \"#utility.yul\":282:361   */\n      tag_91\n      tag_92\n      jump\t// in\n    tag_91:\n        /* \"#utility.yul\":251:363   */\n    tag_90:\n        /* \"#utility.yul\":372:413   */\n      tag_93\n        /* \"#utility.yul\":406:412   */\n      dup5\n        /* \"#utility.yul\":401:404   */\n      dup3\n        /* \"#utility.yul\":396:399   */\n      dup6\n        /* \"#utility.yul\":372:413   */\n      tag_94\n      jump\t// in\n    tag_93:\n        /* \"#utility.yul\":91:419   */\n      pop\n        /* \"#utility.yul\":7:419   */\n      swap4\n      swap3\n      pop\n      pop\n      pop\n      jump\t// out\n        /* \"#utility.yul\":425:846   */\n    tag_95:\n        /* \"#utility.yul\":514:519   */\n      0x00\n        /* \"#utility.yul\":539:605   */\n      tag_97\n        /* \"#utility.yul\":555:604   */\n      tag_98\n        /* \"#utility.yul\":597:603   */\n      dup5\n        /* \"#utility.yul\":555:604   */\n      tag_88\n      jump\t// in\n    tag_98:\n        /* \"#utility.yul\":539:605   */\n      tag_89\n      jump\t// in\n    tag_97:\n        /* \"#utility.yul\":530:605   */\n      swap1\n      pop\n        /* \"#utility.yul\":628:634   */\n      dup3\n        /* \"#utility.yul\":621:626   */\n      dup2\n        /* \"#utility.yul\":614:635   */\n      mstore\n        /* \"#utility.yul\":666:670   */\n      0x20\n        /* \"#utility.yul\":659:664   */\n      dup2\n        /* \"#utility.yul\":655:671   */\n      add\n        /* \"#utility.yul\":704:707   */\n      dup5\n        /* \"#utility.yul\":695:701   */\n      dup5\n        /* \"#utility.yul\":690:693   */\n      dup5\n        /* \"#utility.yul\":686:702   */\n      add\n        /* \"#utility.yul\":683:708   */\n      gt\n        /* \"#utility.yul\":680:792   */\n      iszero\n      tag_99\n      jumpi\n        /* \"#utility.yul\":711:790   */\n      tag_100\n      tag_92\n      jump\t// in\n    tag_100:\n        /* \"#utility.yul\":680:792   */\n    tag_99:\n        /* \"#utility.yul\":801:840   */\n      tag_101\n        /* \"#utility.yul\":833:839   */\n      dup5\n        /* \"#utility.yul\":828:831   */\n      dup3\n        /* \"#utility.yul\":823:826   */\n      dup6\n        /* \"#utility.yul\":801:840   */\n      tag_102\n      jump\t// in\n    tag_101:\n        /* \"#utility.yul\":520:846   */\n      pop\n        /* \"#utility.yul\":425:846   */\n      swap4\n      swap3\n      pop\n      pop\n      pop\n      jump\t// out\n        /* \"#utility.yul\":852:991   */\n    tag_103:\n        /* \"#utility.yul\":898:903   */\n      0x00\n        /* \"#utility.yul\":936:942   */\n      dup2\n        /* \"#utility.yul\":923:943   */\n      calldataload\n        /* \"#utility.yul\":914:943   */\n      swap1\n      pop\n        /* \"#utility.yul\":952:985   */\n      tag_105\n        /* \"#utility.yul\":979:984   */\n      dup2\n        /* \"#utility.yul\":952:985   */\n      tag_106\n      jump\t// in\n    tag_105:\n        /* \"#utility.yul\":852:991   */\n      swap3\n      swap2\n      pop\n      pop\n      jump\t// out\n        /* \"#utility.yul\":997:1140   */\n    tag_107:\n        /* \"#utility.yul\":1054:1059   */\n      0x00\n        /* \"#utility.yul\":1085:1091   */\n      dup2\n        /* \"#utility.yul\":1079:1092   */\n      mload\n        /* \"#utility.yul\":1070:1092   */\n      swap1\n      pop\n        /* \"#utility.yul\":1101:1134   */\n      tag_109\n        /* \"#utility.yul\":1128:1133   */\n      dup2\n        /* \"#utility.yul\":1101:1134   */\n      tag_106\n      jump\t// in\n    tag_109:\n        /* \"#utility.yul\":997:1140   */\n      swap3\n      swap2\n      pop\n      pop\n      jump\t// out\n        /* \"#utility.yul\":1146:1279   */\n    tag_110:\n        /* \"#utility.yul\":1189:1194   */\n      0x00\n        /* \"#utility.yul\":1227:1233   */\n      dup2\n        /* \"#utility.yul\":1214:1234   */\n      calldataload\n        /* \"#utility.yul\":1205:1234   */\n      swap1\n      pop\n        /* \"#utility.yul\":1243:1273   */\n      tag_112\n        /* \"#utility.yul\":1267:1272   */\n      dup2\n        /* \"#utility.yul\":1243:1273   */\n      tag_113\n      jump\t// in\n    tag_112:\n        /* \"#utility.yul\":1146:1279   */\n      swap3\n      swap2\n      pop\n      pop\n      jump\t// out\n        /* \"#utility.yul\":1299:1639   */\n    tag_114:\n        /* \"#utility.yul\":1355:1360   */\n      0x00\n        /* \"#utility.yul\":1404:1407   */\n      dup3\n        /* \"#utility.yul\":1397:1401   */\n      0x1f\n        /* \"#utility.yul\":1389:1395   */\n      dup4\n        /* \"#utility.yul\":1385:1402   */\n      add\n        /* \"#utility.yul\":1381:1408   */\n      slt\n        /* \"#utility.yul\":1371:1493   */\n      tag_116\n      jumpi\n        /* \"#utility.yul\":1412:1491   */\n      tag_117\n      tag_118\n      jump\t// in\n    tag_117:\n        /* \"#utility.yul\":1371:1493   */\n    tag_116:\n        /* \"#utility.yul\":1529:1535   */\n      dup2\n        /* \"#utility.yul\":1516:1536   */\n      calldataload\n        /* \"#utility.yul\":1554:1633   */\n      tag_119\n        /* \"#utility.yul\":1629:1632   */\n      dup5\n        /* \"#utility.yul\":1621:1627   */\n      dup3\n        /* \"#utility.yul\":1614:1618   */\n      0x20\n        /* \"#utility.yul\":1606:1612   */\n      dup7\n        /* \"#utility.yul\":1602:1619   */\n      add\n        /* \"#utility.yul\":1554:1633   */\n      tag_84\n      jump\t// in\n    tag_119:\n        /* \"#utility.yul\":1545:1633   */\n      swap2\n      pop\n        /* \"#utility.yul\":1361:1639   */\n      pop\n        /* \"#utility.yul\":1299:1639   */\n      swap3\n      swap2\n      pop\n      pop\n      jump\t// out\n        /* \"#utility.yul\":1659:2014   */\n    tag_120:\n        /* \"#utility.yul\":1726:1731   */\n      0x00\n        /* \"#utility.yul\":1775:1778   */\n      dup3\n        /* \"#utility.yul\":1768:1772   */\n      0x1f\n        /* \"#utility.yul\":1760:1766   */\n      dup4\n        /* \"#utility.yul\":1756:1773   */\n      add\n        /* \"#utility.yul\":1752:1779   */\n      slt\n        /* \"#utility.yul\":1742:1864   */\n      tag_122\n      jumpi\n        /* \"#utility.yul\":1783:1862   */\n      tag_123\n      tag_118\n      jump\t// in\n    tag_123:\n        /* \"#utility.yul\":1742:1864   */\n    tag_122:\n        /* \"#utility.yul\":1893:1899   */\n      dup2\n        /* \"#utility.yul\":1887:1900   */\n      mload\n        /* \"#utility.yul\":1918:2008   */\n      tag_124\n        /* \"#utility.yul\":2004:2007   */\n      dup5\n        /* \"#utility.yul\":1996:2002   */\n      dup3\n        /* \"#utility.yul\":1989:1993   */\n      0x20\n        /* \"#utility.yul\":1981:1987   */\n      dup7\n        /* \"#utility.yul\":1977:1994   */\n      add\n        /* \"#utility.yul\":1918:2008   */\n      tag_95\n      jump\t// in\n    tag_124:\n        /* \"#utility.yul\":1909:2008   */\n      swap2\n      pop\n        /* \"#utility.yul\":1732:2014   */\n      pop\n        /* \"#utility.yul\":1659:2014   */\n      swap3\n      swap2\n      pop\n      pop\n      jump\t// out\n        /* \"#utility.yul\":2020:2159   */\n    tag_125:\n        /* \"#utility.yul\":2066:2071   */\n      0x00\n        /* \"#utility.yul\":2104:2110   */\n      dup2\n        /* \"#utility.yul\":2091:2111   */\n      calldataload\n        /* \"#utility.yul\":2082:2111   */\n      swap1\n      pop\n        /* \"#utility.yul\":2120:2153   */\n      tag_127\n        /* \"#utility.yul\":2147:2152   */\n      dup2\n        /* \"#utility.yul\":2120:2153   */\n      tag_128\n      jump\t// in\n    tag_127:\n        /* \"#utility.yul\":2020:2159   */\n      swap3\n      swap2\n      pop\n      pop\n      jump\t// out\n        /* \"#utility.yul\":2165:2308   */\n    tag_129:\n        /* \"#utility.yul\":2222:2227   */\n      0x00\n        /* \"#utility.yul\":2253:2259   */\n      dup2\n        /* \"#utility.yul\":2247:2260   */\n      mload\n        /* \"#utility.yul\":2238:2260   */\n      swap1\n      pop\n        /* \"#utility.yul\":2269:2302   */\n      tag_131\n        /* \"#utility.yul\":2296:2301   */\n      dup2\n        /* \"#utility.yul\":2269:2302   */\n      tag_128\n      jump\t// in\n    tag_131:\n        /* \"#utility.yul\":2165:2308   */\n      swap3\n      swap2\n      pop\n      pop\n      jump\t// out\n        /* \"#utility.yul\":2314:2643   */\n    tag_20:\n        /* \"#utility.yul\":2373:2379   */\n      0x00\n        /* \"#utility.yul\":2422:2424   */\n      0x20\n        /* \"#utility.yul\":2410:2419   */\n      dup3\n        /* \"#utility.yul\":2401:2408   */\n      dup5\n        /* \"#utility.yul\":2397:2420   */\n      sub\n        /* \"#utility.yul\":2393:2425   */\n      slt\n        /* \"#utility.yul\":2390:2509   */\n      iszero\n      tag_133\n      jumpi\n        /* \"#utility.yul\":2428:2507   */\n      tag_134\n      tag_135\n      jump\t// in\n    tag_134:\n        /* \"#utility.yul\":2390:2509   */\n    tag_133:\n        /* \"#utility.yul\":2548:2549   */\n      0x00\n        /* \"#utility.yul\":2573:2626   */\n      tag_136\n        /* \"#utility.yul\":2618:2625   */\n      dup5\n        /* \"#utility.yul\":2609:2615   */\n      dup3\n        /* \"#utility.yul\":2598:2607   */\n      dup6\n        /* \"#utility.yul\":2594:2616   */\n      add\n        /* \"#utility.yul\":2573:2626   */\n      tag_103\n      jump\t// in\n    tag_136:\n        /* \"#utility.yul\":2563:2626   */\n      swap2\n      pop\n        /* \"#utility.yul\":2519:2636   */\n      pop\n        /* \"#utility.yul\":2314:2643   */\n      swap3\n      swap2\n      pop\n      pop\n      jump\t// out\n        /* \"#utility.yul\":2649:3000   */\n    tag_69:\n        /* \"#utility.yul\":2719:2725   */\n      0x00\n        /* \"#utility.yul\":2768:2770   */\n      0x20\n        /* \"#utility.yul\":2756:2765   */\n      dup3\n        /* \"#utility.yul\":2747:2754   */\n      dup5\n        /* \"#utility.yul\":2743:2766   */\n      sub\n        /* \"#utility.yul\":2739:2771   */\n      slt\n        /* \"#utility.yul\":2736:2855   */\n      iszero\n      tag_138\n      jumpi\n        /* \"#utility.yul\":2774:2853   */\n      tag_139\n      tag_135\n      jump\t// in\n    tag_139:\n        /* \"#utility.yul\":2736:2855   */\n    tag_138:\n        /* \"#utility.yul\":2894:2895   */\n      0x00\n        /* \"#utility.yul\":2919:2983   */\n      tag_140\n        /* \"#utility.yul\":2975:2982   */\n      dup5\n        /* \"#utility.yul\":2966:2972   */\n      dup3\n        /* \"#utility.yul\":2955:2964   */\n      dup6\n        /* \"#utility.yul\":2951:2973   */\n      add\n        /* \"#utility.yul\":2919:2983   */\n      tag_107\n      jump\t// in\n    tag_140:\n        /* \"#utility.yul\":2909:2983   */\n      swap2\n      pop\n        /* \"#utility.yul\":2865:2993   */\n      pop\n        /* \"#utility.yul\":2649:3000   */\n      swap3\n      swap2\n      pop\n      pop\n      jump\t// out\n        /* \"#utility.yul\":3006:3530   */\n    tag_82:\n        /* \"#utility.yul\":3086:3092   */\n      0x00\n        /* \"#utility.yul\":3135:3137   */\n      0x20\n        /* \"#utility.yul\":3123:3132   */\n      dup3\n        /* \"#utility.yul\":3114:3121   */\n      dup5\n        /* \"#utility.yul\":3110:3133   */\n      sub\n        /* \"#utility.yul\":3106:3138   */\n      slt\n        /* \"#utility.yul\":3103:3222   */\n      iszero\n      tag_142\n      jumpi\n        /* \"#utility.yul\":3141:3220   */\n      tag_143\n      tag_135\n      jump\t// in\n    tag_143:\n        /* \"#utility.yul\":3103:3222   */\n    tag_142:\n        /* \"#utility.yul\":3282:3283   */\n      0x00\n        /* \"#utility.yul\":3271:3280   */\n      dup3\n        /* \"#utility.yul\":3267:3284   */\n      add\n        /* \"#utility.yul\":3261:3285   */\n      mload\n        /* \"#utility.yul\":3312:3330   */\n      0xffffffffffffffff\n        /* \"#utility.yul\":3304:3310   */\n      dup2\n        /* \"#utility.yul\":3301:3331   */\n      gt\n        /* \"#utility.yul\":3298:3415   */\n      iszero\n      tag_144\n      jumpi\n        /* \"#utility.yul\":3334:3413   */\n      tag_145\n      tag_146\n      jump\t// in\n    tag_145:\n        /* \"#utility.yul\":3298:3415   */\n    tag_144:\n        /* \"#utility.yul\":3439:3513   */\n      tag_147\n        /* \"#utility.yul\":3505:3512   */\n      dup5\n        /* \"#utility.yul\":3496:3502   */\n      dup3\n        /* \"#utility.yul\":3485:3494   */\n      dup6\n        /* \"#utility.yul\":3481:3503   */\n      add\n        /* \"#utility.yul\":3439:3513   */\n      tag_120\n      jump\t// in\n    tag_147:\n        /* \"#utility.yul\":3429:3513   */\n      swap2\n      pop\n        /* \"#utility.yul\":3232:3523   */\n      pop\n        /* \"#utility.yul\":3006:3530   */\n      swap3\n      swap2\n      pop\n      pop\n      jump\t// out\n        /* \"#utility.yul\":3536:4475   */\n    tag_13:\n        /* \"#utility.yul\":3629:3635   */\n      0x00\n        /* \"#utility.yul\":3637:3643   */\n      dup1\n        /* \"#utility.yul\":3645:3651   */\n      0x00\n        /* \"#utility.yul\":3653:3659   */\n      dup1\n        /* \"#utility.yul\":3702:3705   */\n      0x80\n        /* \"#utility.yul\":3690:3699   */\n      dup6\n        /* \"#utility.yul\":3681:3688   */\n      dup8\n        /* \"#utility.yul\":3677:3700   */\n      sub\n        /* \"#utility.yul\":3673:3706   */\n      slt\n        /* \"#utility.yul\":3670:3790   */\n      iszero\n      tag_149\n      jumpi\n        /* \"#utility.yul\":3709:3788   */\n      tag_150\n      tag_135\n      jump\t// in\n    tag_150:\n        /* \"#utility.yul\":3670:3790   */\n    tag_149:\n        /* \"#utility.yul\":3857:3858   */\n      0x00\n        /* \"#utility.yul\":3846:3855   */\n      dup6\n        /* \"#utility.yul\":3842:3859   */\n      add\n        /* \"#utility.yul\":3829:3860   */\n      calldataload\n        /* \"#utility.yul\":3887:3905   */\n      0xffffffffffffffff\n        /* \"#utility.yul\":3879:3885   */\n      dup2\n        /* \"#utility.yul\":3876:3906   */\n      gt\n        /* \"#utility.yul\":3873:3990   */\n      iszero\n      tag_151\n      jumpi\n        /* \"#utility.yul\":3909:3988   */\n      tag_152\n      tag_146\n      jump\t// in\n    tag_152:\n        /* \"#utility.yul\":3873:3990   */\n    tag_151:\n        /* \"#utility.yul\":4014:4077   */\n      tag_153\n        /* \"#utility.yul\":4069:4076   */\n      dup8\n        /* \"#utility.yul\":4060:4066   */\n      dup3\n        /* \"#utility.yul\":4049:4058   */\n      dup9\n        /* \"#utility.yul\":4045:4067   */\n      add\n        /* \"#utility.yul\":4014:4077   */\n      tag_114\n      jump\t// in\n    tag_153:\n        /* \"#utility.yul\":4004:4077   */\n      swap5\n      pop\n        /* \"#utility.yul\":3800:4087   */\n      pop\n        /* \"#utility.yul\":4126:4128   */\n      0x20\n        /* \"#utility.yul\":4152:4205   */\n      tag_154\n        /* \"#utility.yul\":4197:4204   */\n      dup8\n        /* \"#utility.yul\":4188:4194   */\n      dup3\n        /* \"#utility.yul\":4177:4186   */\n      dup9\n        /* \"#utility.yul\":4173:4195   */\n      add\n        /* \"#utility.yul\":4152:4205   */\n      tag_125\n      jump\t// in\n    tag_154:\n        /* \"#utility.yul\":4142:4205   */\n      swap4\n      pop\n        /* \"#utility.yul\":4097:4215   */\n      pop\n        /* \"#utility.yul\":4254:4256   */\n      0x40\n        /* \"#utility.yul\":4280:4330   */\n      tag_155\n        /* \"#utility.yul\":4322:4329   */\n      dup8\n        /* \"#utility.yul\":4313:4319   */\n      dup3\n        /* \"#utility.yul\":4302:4311   */\n      dup9\n        /* \"#utility.yul\":4298:4320   */\n      add\n        /* \"#utility.yul\":4280:4330   */\n      tag_110\n      jump\t// in\n    tag_155:\n        /* \"#utility.yul\":4270:4330   */\n      swap3\n      pop\n        /* \"#utility.yul\":4225:4340   */\n      pop\n        /* \"#utility.yul\":4379:4381   */\n      0x60\n        /* \"#utility.yul\":4405:4458   */\n      tag_156\n        /* \"#utility.yul\":4450:4457   */\n      dup8\n        /* \"#utility.yul\":4441:4447   */\n      dup3\n        /* \"#utility.yul\":4430:4439   */\n      dup9\n        /* \"#utility.yul\":4426:4448   */\n      add\n        /* \"#utility.yul\":4405:4458   */\n      tag_125\n      jump\t// in\n    tag_156:\n        /* \"#utility.yul\":4395:4458   */\n      swap2\n      pop\n        /* \"#utility.yul\":4350:4468   */\n      pop\n        /* \"#utility.yul\":3536:4475   */\n      swap3\n      swap6\n      swap2\n      swap5\n      pop\n      swap3\n      pop\n      jump\t// out\n        /* \"#utility.yul\":4481:4832   */\n    tag_59:\n        /* \"#utility.yul\":4551:4557   */\n      0x00\n        /* \"#utility.yul\":4600:4602   */\n      0x20\n        /* \"#utility.yul\":4588:4597   */\n      dup3\n        /* \"#utility.yul\":4579:4586   */\n      dup5\n        /* \"#utility.yul\":4575:4598   */\n      sub\n        /* \"#utility.yul\":4571:4603   */\n      slt\n        /* \"#utility.yul\":4568:4687   */\n      iszero\n      tag_158\n      jumpi\n        /* \"#utility.yul\":4606:4685   */\n      tag_159\n      tag_135\n      jump\t// in\n    tag_159:\n        /* \"#utility.yul\":4568:4687   */\n    tag_158:\n        /* \"#utility.yul\":4726:4727   */\n      0x00\n        /* \"#utility.yul\":4751:4815   */\n      tag_160\n        /* \"#utility.yul\":4807:4814   */\n      dup5\n        /* \"#utility.yul\":4798:4804   */\n      dup3\n        /* \"#utility.yul\":4787:4796   */\n      dup6\n        /* \"#utility.yul\":4783:4805   */\n      add\n        /* \"#utility.yul\":4751:4815   */\n      tag_129\n      jump\t// in\n    tag_160:\n        /* \"#utility.yul\":4741:4815   */\n      swap2\n      pop\n        /* \"#utility.yul\":4697:4825   */\n      pop\n        /* \"#utility.yul\":4481:4832   */\n      swap3\n      swap2\n      pop\n      pop\n      jump\t// out\n        /* \"#utility.yul\":4838:5049   */\n    tag_161:\n        /* \"#utility.yul\":4923:4933   */\n      0x00\n        /* \"#utility.yul\":4944:5006   */\n      tag_163\n        /* \"#utility.yul\":5002:5005   */\n      dup4\n        /* \"#utility.yul\":4994:5000   */\n      dup4\n        /* \"#utility.yul\":4944:5006   */\n      tag_164\n      jump\t// in\n    tag_163:\n        /* \"#utility.yul\":5038:5042   */\n      0x20\n        /* \"#utility.yul\":5033:5036   */\n      dup4\n        /* \"#utility.yul\":5029:5043   */\n      add\n        /* \"#utility.yul\":5015:5043   */\n      swap1\n      pop\n        /* \"#utility.yul\":4838:5049   */\n      swap3\n      swap2\n      pop\n      pop\n      jump\t// out\n        /* \"#utility.yul\":5055:5173   */\n    tag_165:\n        /* \"#utility.yul\":5142:5166   */\n      tag_167\n        /* \"#utility.yul\":5160:5165   */\n      dup2\n        /* \"#utility.yul\":5142:5166   */\n      tag_168\n      jump\t// in\n    tag_167:\n        /* \"#utility.yul\":5137:5140   */\n      dup3\n        /* \"#utility.yul\":5130:5167   */\n      mstore\n        /* \"#utility.yul\":5055:5173   */\n      pop\n      pop\n      jump\t// out\n        /* \"#utility.yul\":5219:6031   */\n    tag_169:\n        /* \"#utility.yul\":5354:5357   */\n      0x00\n        /* \"#utility.yul\":5383:5453   */\n      tag_171\n        /* \"#utility.yul\":5447:5452   */\n      dup3\n        /* \"#utility.yul\":5383:5453   */\n      tag_172\n      jump\t// in\n    tag_171:\n        /* \"#utility.yul\":5469:5555   */\n      tag_173\n        /* \"#utility.yul\":5548:5554   */\n      dup2\n        /* \"#utility.yul\":5543:5546   */\n      dup6\n        /* \"#utility.yul\":5469:5555   */\n      tag_174\n      jump\t// in\n    tag_173:\n        /* \"#utility.yul\":5462:5555   */\n      swap4\n      pop\n        /* \"#utility.yul\":5579:5651   */\n      tag_175\n        /* \"#utility.yul\":5645:5650   */\n      dup4\n        /* \"#utility.yul\":5579:5651   */\n      tag_176\n      jump\t// in\n    tag_175:\n        /* \"#utility.yul\":5674:5681   */\n      dup1\n        /* \"#utility.yul\":5705:5706   */\n      0x00\n        /* \"#utility.yul\":5690:6006   */\n    tag_177:\n        /* \"#utility.yul\":5715:5721   */\n      dup4\n        /* \"#utility.yul\":5712:5713   */\n      dup2\n        /* \"#utility.yul\":5709:5722   */\n      lt\n        /* \"#utility.yul\":5690:6006   */\n      iszero\n      tag_179\n      jumpi\n        /* \"#utility.yul\":5791:5797   */\n      dup2\n        /* \"#utility.yul\":5785:5798   */\n      mload\n        /* \"#utility.yul\":5818:5897   */\n      tag_180\n        /* \"#utility.yul\":5893:5896   */\n      dup9\n        /* \"#utility.yul\":5878:5891   */\n      dup3\n        /* \"#utility.yul\":5818:5897   */\n      tag_161\n      jump\t// in\n    tag_180:\n        /* \"#utility.yul\":5811:5897   */\n      swap8\n      pop\n        /* \"#utility.yul\":5920:5996   */\n      tag_181\n        /* \"#utility.yul\":5989:5995   */\n      dup4\n        /* \"#utility.yul\":5920:5996   */\n      tag_182\n      jump\t// in\n    tag_181:\n        /* \"#utility.yul\":5910:5996   */\n      swap3\n      pop\n        /* \"#utility.yul\":5750:6006   */\n      pop\n        /* \"#utility.yul\":5737:5738   */\n      0x01\n        /* \"#utility.yul\":5734:5735   */\n      dup2\n        /* \"#utility.yul\":5730:5739   */\n      add\n        /* \"#utility.yul\":5725:5739   */\n      swap1\n      pop\n        /* \"#utility.yul\":5690:6006   */\n      jump(tag_177)\n    tag_179:\n        /* \"#utility.yul\":5694:5708   */\n      pop\n        /* \"#utility.yul\":6022:6025   */\n      dup6\n        /* \"#utility.yul\":6015:6025   */\n      swap4\n      pop\n        /* \"#utility.yul\":5359:6031   */\n      pop\n      pop\n      pop\n        /* \"#utility.yul\":5219:6031   */\n      swap3\n      swap2\n      pop\n      pop\n      jump\t// out\n        /* \"#utility.yul\":6037:6146   */\n    tag_183:\n        /* \"#utility.yul\":6118:6139   */\n      tag_185\n        /* \"#utility.yul\":6133:6138   */\n      dup2\n        /* \"#utility.yul\":6118:6139   */\n      tag_186\n      jump\t// in\n    tag_185:\n        /* \"#utility.yul\":6113:6116   */\n      dup3\n        /* \"#utility.yul\":6106:6140   */\n      mstore\n        /* \"#utility.yul\":6037:6146   */\n      pop\n      pop\n      jump\t// out\n        /* \"#utility.yul\":6152:6305   */\n    tag_164:\n        /* \"#utility.yul\":6245:6298   */\n      tag_188\n        /* \"#utility.yul\":6292:6297   */\n      dup2\n        /* \"#utility.yul\":6245:6298   */\n      tag_189\n      jump\t// in\n    tag_188:\n        /* \"#utility.yul\":6240:6243   */\n      dup3\n        /* \"#utility.yul\":6233:6299   */\n      mstore\n        /* \"#utility.yul\":6152:6305   */\n      pop\n      pop\n      jump\t// out\n        /* \"#utility.yul\":6311:6675   */\n    tag_190:\n        /* \"#utility.yul\":6399:6402   */\n      0x00\n        /* \"#utility.yul\":6427:6466   */\n      tag_192\n        /* \"#utility.yul\":6460:6465   */\n      dup3\n        /* \"#utility.yul\":6427:6466   */\n      tag_193\n      jump\t// in\n    tag_192:\n        /* \"#utility.yul\":6482:6553   */\n      tag_194\n        /* \"#utility.yul\":6546:6552   */\n      dup2\n        /* \"#utility.yul\":6541:6544   */\n      dup6\n        /* \"#utility.yul\":6482:6553   */\n      tag_195\n      jump\t// in\n    tag_194:\n        /* \"#utility.yul\":6475:6553   */\n      swap4\n      pop\n        /* \"#utility.yul\":6562:6614   */\n      tag_196\n        /* \"#utility.yul\":6607:6613   */\n      dup2\n        /* \"#utility.yul\":6602:6605   */\n      dup6\n        /* \"#utility.yul\":6595:6599   */\n      0x20\n        /* \"#utility.yul\":6588:6593   */\n      dup7\n        /* \"#utility.yul\":6584:6600   */\n      add\n        /* \"#utility.yul\":6562:6614   */\n      tag_102\n      jump\t// in\n    tag_196:\n        /* \"#utility.yul\":6639:6668   */\n      tag_197\n        /* \"#utility.yul\":6661:6667   */\n      dup2\n        /* \"#utility.yul\":6639:6668   */\n      tag_198\n      jump\t// in\n    tag_197:\n        /* \"#utility.yul\":6634:6637   */\n      dup5\n        /* \"#utility.yul\":6630:6669   */\n      add\n        /* \"#utility.yul\":6623:6669   */\n      swap2\n      pop\n        /* \"#utility.yul\":6403:6675   */\n      pop\n        /* \"#utility.yul\":6311:6675   */\n      swap3\n      swap2\n      pop\n      pop\n      jump\t// out\n        /* \"#utility.yul\":6681:6799   */\n    tag_199:\n        /* \"#utility.yul\":6768:6792   */\n      tag_201\n        /* \"#utility.yul\":6786:6791   */\n      dup2\n        /* \"#utility.yul\":6768:6792   */\n      tag_202\n      jump\t// in\n    tag_201:\n        /* \"#utility.yul\":6763:6766   */\n      dup3\n        /* \"#utility.yul\":6756:6793   */\n      mstore\n        /* \"#utility.yul\":6681:6799   */\n      pop\n      pop\n      jump\t// out\n        /* \"#utility.yul\":6805:7027   */\n    tag_16:\n        /* \"#utility.yul\":6898:6902   */\n      0x00\n        /* \"#utility.yul\":6936:6938   */\n      0x20\n        /* \"#utility.yul\":6925:6934   */\n      dup3\n        /* \"#utility.yul\":6921:6939   */\n      add\n        /* \"#utility.yul\":6913:6939   */\n      swap1\n      pop\n        /* \"#utility.yul\":6949:7020   */\n      tag_204\n        /* \"#utility.yul\":7017:7018   */\n      0x00\n        /* \"#utility.yul\":7006:7015   */\n      dup4\n        /* \"#utility.yul\":7002:7019   */\n      add\n        /* \"#utility.yul\":6993:6999   */\n      dup5\n        /* \"#utility.yul\":6949:7020   */\n      tag_165\n      jump\t// in\n    tag_204:\n        /* \"#utility.yul\":6805:7027   */\n      swap3\n      swap2\n      pop\n      pop\n      jump\t// out\n        /* \"#utility.yul\":7033:7438   */\n    tag_36:\n        /* \"#utility.yul\":7192:7196   */\n      0x00\n        /* \"#utility.yul\":7230:7232   */\n      0x20\n        /* \"#utility.yul\":7219:7228   */\n      dup3\n        /* \"#utility.yul\":7215:7233   */\n      add\n        /* \"#utility.yul\":7207:7233   */\n      swap1\n      pop\n        /* \"#utility.yul\":7279:7288   */\n      dup2\n        /* \"#utility.yul\":7273:7277   */\n      dup2\n        /* \"#utility.yul\":7269:7289   */\n      sub\n        /* \"#utility.yul\":7265:7266   */\n      0x00\n        /* \"#utility.yul\":7254:7263   */\n      dup4\n        /* \"#utility.yul\":7250:7267   */\n      add\n        /* \"#utility.yul\":7243:7290   */\n      mstore\n        /* \"#utility.yul\":7307:7431   */\n      tag_206\n        /* \"#utility.yul\":7426:7430   */\n      dup2\n        /* \"#utility.yul\":7417:7423   */\n      dup5\n        /* \"#utility.yul\":7307:7431   */\n      tag_169\n      jump\t// in\n    tag_206:\n        /* \"#utility.yul\":7299:7431   */\n      swap1\n      pop\n        /* \"#utility.yul\":7033:7438   */\n      swap3\n      swap2\n      pop\n      pop\n      jump\t// out\n        /* \"#utility.yul\":7444:7757   */\n    tag_46:\n        /* \"#utility.yul\":7557:7561   */\n      0x00\n        /* \"#utility.yul\":7595:7597   */\n      0x20\n        /* \"#utility.yul\":7584:7593   */\n      dup3\n        /* \"#utility.yul\":7580:7598   */\n      add\n        /* \"#utility.yul\":7572:7598   */\n      swap1\n      pop\n        /* \"#utility.yul\":7644:7653   */\n      dup2\n        /* \"#utility.yul\":7638:7642   */\n      dup2\n        /* \"#utility.yul\":7634:7654   */\n      sub\n        /* \"#utility.yul\":7630:7631   */\n      0x00\n        /* \"#utility.yul\":7619:7628   */\n      dup4\n        /* \"#utility.yul\":7615:7632   */\n      add\n        /* \"#utility.yul\":7608:7655   */\n      mstore\n        /* \"#utility.yul\":7672:7750   */\n      tag_208\n        /* \"#utility.yul\":7745:7749   */\n      dup2\n        /* \"#utility.yul\":7736:7742   */\n      dup5\n        /* \"#utility.yul\":7672:7750   */\n      tag_190\n      jump\t// in\n    tag_208:\n        /* \"#utility.yul\":7664:7750   */\n      swap1\n      pop\n        /* \"#utility.yul\":7444:7757   */\n      swap3\n      swap2\n      pop\n      pop\n      jump\t// out\n        /* \"#utility.yul\":7763:8395   */\n    tag_51:\n        /* \"#utility.yul\":7954:7958   */\n      0x00\n        /* \"#utility.yul\":7992:7995   */\n      0x80\n        /* \"#utility.yul\":7981:7990   */\n      dup3\n        /* \"#utility.yul\":7977:7996   */\n      add\n        /* \"#utility.yul\":7969:7996   */\n      swap1\n      pop\n        /* \"#utility.yul\":8042:8051   */\n      dup2\n        /* \"#utility.yul\":8036:8040   */\n      dup2\n        /* \"#utility.yul\":8032:8052   */\n      sub\n        /* \"#utility.yul\":8028:8029   */\n      0x00\n        /* \"#utility.yul\":8017:8026   */\n      dup4\n        /* \"#utility.yul\":8013:8030   */\n      add\n        /* \"#utility.yul\":8006:8053   */\n      mstore\n        /* \"#utility.yul\":8070:8148   */\n      tag_210\n        /* \"#utility.yul\":8143:8147   */\n      dup2\n        /* \"#utility.yul\":8134:8140   */\n      dup8\n        /* \"#utility.yul\":8070:8148   */\n      tag_190\n      jump\t// in\n    tag_210:\n        /* \"#utility.yul\":8062:8148   */\n      swap1\n      pop\n        /* \"#utility.yul\":8158:8230   */\n      tag_211\n        /* \"#utility.yul\":8226:8228   */\n      0x20\n        /* \"#utility.yul\":8215:8224   */\n      dup4\n        /* \"#utility.yul\":8211:8229   */\n      add\n        /* \"#utility.yul\":8202:8208   */\n      dup7\n        /* \"#utility.yul\":8158:8230   */\n      tag_199\n      jump\t// in\n    tag_211:\n        /* \"#utility.yul\":8240:8306   */\n      tag_212\n        /* \"#utility.yul\":8302:8304   */\n      0x40\n        /* \"#utility.yul\":8291:8300   */\n      dup4\n        /* \"#utility.yul\":8287:8305   */\n      add\n        /* \"#utility.yul\":8278:8284   */\n      dup6\n        /* \"#utility.yul\":8240:8306   */\n      tag_183\n      jump\t// in\n    tag_212:\n        /* \"#utility.yul\":8316:8388   */\n      tag_213\n        /* \"#utility.yul\":8384:8386   */\n      0x60\n        /* \"#utility.yul\":8373:8382   */\n      dup4\n        /* \"#utility.yul\":8369:8387   */\n      add\n        /* \"#utility.yul\":8360:8366   */\n      dup5\n        /* \"#utility.yul\":8316:8388   */\n      tag_199\n      jump\t// in\n    tag_213:\n        /* \"#utility.yul\":7763:8395   */\n      swap6\n      swap5\n      pop\n      pop\n      pop\n      pop\n      pop\n      jump\t// out\n        /* \"#utility.yul\":8401:8623   */\n    tag_23:\n        /* \"#utility.yul\":8494:8498   */\n      0x00\n        /* \"#utility.yul\":8532:8534   */\n      0x20\n        /* \"#utility.yul\":8521:8530   */\n      dup3\n        /* \"#utility.yul\":8517:8535   */\n      add\n        /* \"#utility.yul\":8509:8535   */\n      swap1\n      pop\n        /* \"#utility.yul\":8545:8616   */\n      tag_215\n        /* \"#utility.yul\":8613:8614   */\n      0x00\n        /* \"#utility.yul\":8602:8611   */\n      dup4\n        /* \"#utility.yul\":8598:8615   */\n      add\n        /* \"#utility.yul\":8589:8595   */\n      dup5\n        /* \"#utility.yul\":8545:8616   */\n      tag_199\n      jump\t// in\n    tag_215:\n        /* \"#utility.yul\":8401:8623   */\n      swap3\n      swap2\n      pop\n      pop\n      jump\t// out\n        /* \"#utility.yul\":8629:8758   */\n    tag_89:\n        /* \"#utility.yul\":8663:8669   */\n      0x00\n        /* \"#utility.yul\":8690:8710   */\n      tag_217\n      tag_218\n      jump\t// in\n    tag_217:\n        /* \"#utility.yul\":8680:8710   */\n      swap1\n      pop\n        /* \"#utility.yul\":8719:8752   */\n      tag_219\n        /* \"#utility.yul\":8747:8751   */\n      dup3\n        /* \"#utility.yul\":8739:8745   */\n      dup3\n        /* \"#utility.yul\":8719:8752   */\n      tag_220\n      jump\t// in\n    tag_219:\n        /* \"#utility.yul\":8629:8758   */\n      swap2\n      swap1\n      pop\n      jump\t// out\n        /* \"#utility.yul\":8764:8839   */\n    tag_218:\n        /* \"#utility.yul\":8797:8803   */\n      0x00\n        /* \"#utility.yul\":8830:8832   */\n      0x40\n        /* \"#utility.yul\":8824:8833   */\n      mload\n        /* \"#utility.yul\":8814:8833   */\n      swap1\n      pop\n        /* \"#utility.yul\":8764:8839   */\n      swap1\n      jump\t// out\n        /* \"#utility.yul\":8845:9153   */\n    tag_88:\n        /* \"#utility.yul\":8907:8911   */\n      0x00\n        /* \"#utility.yul\":8997:9015   */\n      0xffffffffffffffff\n        /* \"#utility.yul\":8989:8995   */\n      dup3\n        /* \"#utility.yul\":8986:9016   */\n      gt\n        /* \"#utility.yul\":8983:9039   */\n      iszero\n      tag_223\n      jumpi\n        /* \"#utility.yul\":9019:9037   */\n      tag_224\n      tag_225\n      jump\t// in\n    tag_224:\n        /* \"#utility.yul\":8983:9039   */\n    tag_223:\n        /* \"#utility.yul\":9057:9086   */\n      tag_226\n        /* \"#utility.yul\":9079:9085   */\n      dup3\n        /* \"#utility.yul\":9057:9086   */\n      tag_198\n      jump\t// in\n    tag_226:\n        /* \"#utility.yul\":9049:9086   */\n      swap1\n      pop\n        /* \"#utility.yul\":9141:9145   */\n      0x20\n        /* \"#utility.yul\":9135:9139   */\n      dup2\n        /* \"#utility.yul\":9131:9146   */\n      add\n        /* \"#utility.yul\":9123:9146   */\n      swap1\n      pop\n        /* \"#utility.yul\":8845:9153   */\n      swap2\n      swap1\n      pop\n      jump\t// out\n        /* \"#utility.yul\":9159:9307   */\n    tag_176:\n        /* \"#utility.yul\":9242:9246   */\n      0x00\n        /* \"#utility.yul\":9265:9268   */\n      dup2\n        /* \"#utility.yul\":9257:9268   */\n      swap1\n      pop\n        /* \"#utility.yul\":9295:9299   */\n      0x20\n        /* \"#utility.yul\":9290:9293   */\n      dup3\n        /* \"#utility.yul\":9286:9300   */\n      add\n        /* \"#utility.yul\":9278:9300   */\n      swap1\n      pop\n        /* \"#utility.yul\":9159:9307   */\n      swap2\n      swap1\n      pop\n      jump\t// out\n        /* \"#utility.yul\":9313:9443   */\n    tag_172:\n        /* \"#utility.yul\":9396:9402   */\n      0x00\n        /* \"#utility.yul\":9430:9435   */\n      dup2\n        /* \"#utility.yul\":9424:9436   */\n      mload\n        /* \"#utility.yul\":9414:9436   */\n      swap1\n      pop\n        /* \"#utility.yul\":9313:9443   */\n      swap2\n      swap1\n      pop\n      jump\t// out\n        /* \"#utility.yul\":9449:9548   */\n    tag_193:\n        /* \"#utility.yul\":9501:9507   */\n      0x00\n        /* \"#utility.yul\":9535:9540   */\n      dup2\n        /* \"#utility.yul\":9529:9541   */\n      mload\n        /* \"#utility.yul\":9519:9541   */\n      swap1\n      pop\n        /* \"#utility.yul\":9449:9548   */\n      swap2\n      swap1\n      pop\n      jump\t// out\n        /* \"#utility.yul\":9554:9683   */\n    tag_182:\n        /* \"#utility.yul\":9640:9644   */\n      0x00\n        /* \"#utility.yul\":9672:9676   */\n      0x20\n        /* \"#utility.yul\":9667:9670   */\n      dup3\n        /* \"#utility.yul\":9663:9677   */\n      add\n        /* \"#utility.yul\":9655:9677   */\n      swap1\n      pop\n        /* \"#utility.yul\":9554:9683   */\n      swap2\n      swap1\n      pop\n      jump\t// out\n        /* \"#utility.yul\":9689:9873   */\n    tag_174:\n        /* \"#utility.yul\":9788:9799   */\n      0x00\n        /* \"#utility.yul\":9822:9828   */\n      dup3\n        /* \"#utility.yul\":9817:9820   */\n      dup3\n        /* \"#utility.yul\":9810:9829   */\n      mstore\n        /* \"#utility.yul\":9862:9866   */\n      0x20\n        /* \"#utility.yul\":9857:9860   */\n      dup3\n        /* \"#utility.yul\":9853:9867   */\n      add\n        /* \"#utility.yul\":9838:9867   */\n      swap1\n      pop\n        /* \"#utility.yul\":9689:9873   */\n      swap3\n      swap2\n      pop\n      pop\n      jump\t// out\n        /* \"#utility.yul\":9879:10048   */\n    tag_195:\n        /* \"#utility.yul\":9963:9974   */\n      0x00\n        /* \"#utility.yul\":9997:10003   */\n      dup3\n        /* \"#utility.yul\":9992:9995   */\n      dup3\n        /* \"#utility.yul\":9985:10004   */\n      mstore\n        /* \"#utility.yul\":10037:10041   */\n      0x20\n        /* \"#utility.yul\":10032:10035   */\n      dup3\n        /* \"#utility.yul\":10028:10042   */\n      add\n        /* \"#utility.yul\":10013:10042   */\n      swap1\n      pop\n        /* \"#utility.yul\":9879:10048   */\n      swap3\n      swap2\n      pop\n      pop\n      jump\t// out\n        /* \"#utility.yul\":10054:10150   */\n    tag_168:\n        /* \"#utility.yul\":10091:10098   */\n      0x00\n        /* \"#utility.yul\":10120:10144   */\n      tag_234\n        /* \"#utility.yul\":10138:10143   */\n      dup3\n        /* \"#utility.yul\":10120:10144   */\n      tag_235\n      jump\t// in\n    tag_234:\n        /* \"#utility.yul\":10109:10144   */\n      swap1\n      pop\n        /* \"#utility.yul\":10054:10150   */\n      swap2\n      swap1\n      pop\n      jump\t// out\n        /* \"#utility.yul\":10156:10246   */\n    tag_186:\n        /* \"#utility.yul\":10190:10197   */\n      0x00\n        /* \"#utility.yul\":10233:10238   */\n      dup2\n        /* \"#utility.yul\":10226:10239   */\n      iszero\n        /* \"#utility.yul\":10219:10240   */\n      iszero\n        /* \"#utility.yul\":10208:10240   */\n      swap1\n      pop\n        /* \"#utility.yul\":10156:10246   */\n      swap2\n      swap1\n      pop\n      jump\t// out\n        /* \"#utility.yul\":10252:10378   */\n    tag_235:\n        /* \"#utility.yul\":10289:10296   */\n      0x00\n        /* \"#utility.yul\":10329:10371   */\n      0xffffffffffffffffffffffffffffffffffffffff\n        /* \"#utility.yul\":10322:10327   */\n      dup3\n        /* \"#utility.yul\":10318:10372   */\n      and\n        /* \"#utility.yul\":10307:10372   */\n      swap1\n      pop\n        /* \"#utility.yul\":10252:10378   */\n      swap2\n      swap1\n      pop\n      jump\t// out\n        /* \"#utility.yul\":10384:10461   */\n    tag_202:\n        /* \"#utility.yul\":10421:10428   */\n      0x00\n        /* \"#utility.yul\":10450:10455   */\n      dup2\n        /* \"#utility.yul\":10439:10455   */\n      swap1\n      pop\n        /* \"#utility.yul\":10384:10461   */\n      swap2\n      swap1\n      pop\n      jump\t// out\n        /* \"#utility.yul\":10467:10609   */\n    tag_189:\n        /* \"#utility.yul\":10533:10542   */\n      0x00\n        /* \"#utility.yul\":10566:10603   */\n      tag_240\n        /* \"#utility.yul\":10597:10602   */\n      dup3\n        /* \"#utility.yul\":10566:10603   */\n      tag_241\n      jump\t// in\n    tag_240:\n        /* \"#utility.yul\":10553:10603   */\n      swap1\n      pop\n        /* \"#utility.yul\":10467:10609   */\n      swap2\n      swap1\n      pop\n      jump\t// out\n        /* \"#utility.yul\":10615:10741   */\n    tag_241:\n        /* \"#utility.yul\":10665:10674   */\n      0x00\n        /* \"#utility.yul\":10698:10735   */\n      tag_243\n        /* \"#utility.yul\":10729:10734   */\n      dup3\n        /* \"#utility.yul\":10698:10735   */\n      tag_244\n      jump\t// in\n    tag_243:\n        /* \"#utility.yul\":10685:10735   */\n      swap1\n      pop\n        /* \"#utility.yul\":10615:10741   */\n      swap2\n      swap1\n      pop\n      jump\t// out\n        /* \"#utility.yul\":10747:10860   */\n    tag_244:\n        /* \"#utility.yul\":10797:10806   */\n      0x00\n        /* \"#utility.yul\":10830:10854   */\n      tag_246\n        /* \"#utility.yul\":10848:10853   */\n      dup3\n        /* \"#utility.yul\":10830:10854   */\n      tag_235\n      jump\t// in\n    tag_246:\n        /* \"#utility.yul\":10817:10854   */\n      swap1\n      pop\n        /* \"#utility.yul\":10747:10860   */\n      swap2\n      swap1\n      pop\n      jump\t// out\n        /* \"#utility.yul\":10866:11020   */\n    tag_94:\n        /* \"#utility.yul\":10950:10956   */\n      dup3\n        /* \"#utility.yul\":10945:10948   */\n      dup2\n        /* \"#utility.yul\":10940:10943   */\n      dup4\n        /* \"#utility.yul\":10927:10957   */\n      calldatacopy\n        /* \"#utility.yul\":11012:11013   */\n      0x00\n        /* \"#utility.yul\":11003:11009   */\n      dup4\n        /* \"#utility.yul\":10998:11001   */\n      dup4\n        /* \"#utility.yul\":10994:11010   */\n      add\n        /* \"#utility.yul\":10987:11014   */\n      mstore\n        /* \"#utility.yul\":10866:11020   */\n      pop\n      pop\n      pop\n      jump\t// out\n        /* \"#utility.yul\":11026:11333   */\n    tag_102:\n        /* \"#utility.yul\":11094:11095   */\n      0x00\n        /* \"#utility.yul\":11104:11217   */\n    tag_249:\n        /* \"#utility.yul\":11118:11124   */\n      dup4\n        /* \"#utility.yul\":11115:11116   */\n      dup2\n        /* \"#utility.yul\":11112:11125   */\n      lt\n        /* \"#utility.yul\":11104:11217   */\n      iszero\n      tag_251\n      jumpi\n        /* \"#utility.yul\":11203:11204   */\n      dup1\n        /* \"#utility.yul\":11198:11201   */\n      dup3\n        /* \"#utility.yul\":11194:11205   */\n      add\n        /* \"#utility.yul\":11188:11206   */\n      mload\n        /* \"#utility.yul\":11184:11185   */\n      dup2\n        /* \"#utility.yul\":11179:11182   */\n      dup5\n        /* \"#utility.yul\":11175:11186   */\n      add\n        /* \"#utility.yul\":11168:11207   */\n      mstore\n        /* \"#utility.yul\":11140:11142   */\n      0x20\n        /* \"#utility.yul\":11137:11138   */\n      dup2\n        /* \"#utility.yul\":11133:11143   */\n      add\n        /* \"#utility.yul\":11128:11143   */\n      swap1\n      pop\n        /* \"#utility.yul\":11104:11217   */\n      jump(tag_249)\n    tag_251:\n        /* \"#utility.yul\":11235:11241   */\n      dup4\n        /* \"#utility.yul\":11232:11233   */\n      dup2\n        /* \"#utility.yul\":11229:11242   */\n      gt\n        /* \"#utility.yul\":11226:11327   */\n      iszero\n      tag_252\n      jumpi\n        /* \"#utility.yul\":11315:11316   */\n      0x00\n        /* \"#utility.yul\":11306:11312   */\n      dup5\n        /* \"#utility.yul\":11301:11304   */\n      dup5\n        /* \"#utility.yul\":11297:11313   */\n      add\n        /* \"#utility.yul\":11290:11317   */\n      mstore\n        /* \"#utility.yul\":11226:11327   */\n    tag_252:\n        /* \"#utility.yul\":11075:11333   */\n      pop\n        /* \"#utility.yul\":11026:11333   */\n      pop\n      pop\n      pop\n      jump\t// out\n        /* \"#utility.yul\":11339:11620   */\n    tag_220:\n        /* \"#utility.yul\":11422:11449   */\n      tag_254\n        /* \"#utility.yul\":11444:11448   */\n      dup3\n        /* \"#utility.yul\":11422:11449   */\n      tag_198\n      jump\t// in\n    tag_254:\n        /* \"#utility.yul\":11414:11420   */\n      dup2\n        /* \"#utility.yul\":11410:11450   */\n      add\n        /* \"#utility.yul\":11552:11558   */\n      dup2\n        /* \"#utility.yul\":11540:11550   */\n      dup2\n        /* \"#utility.yul\":11537:11559   */\n      lt\n        /* \"#utility.yul\":11516:11534   */\n      0xffffffffffffffff\n        /* \"#utility.yul\":11504:11514   */\n      dup3\n        /* \"#utility.yul\":11501:11535   */\n      gt\n        /* \"#utility.yul\":11498:11560   */\n      or\n        /* \"#utility.yul\":11495:11583   */\n      iszero\n      tag_255\n      jumpi\n        /* \"#utility.yul\":11563:11581   */\n      tag_256\n      tag_225\n      jump\t// in\n    tag_256:\n        /* \"#utility.yul\":11495:11583   */\n    tag_255:\n        /* \"#utility.yul\":11603:11613   */\n      dup1\n        /* \"#utility.yul\":11599:11601   */\n      0x40\n        /* \"#utility.yul\":11592:11614   */\n      mstore\n        /* \"#utility.yul\":11382:11620   */\n      pop\n        /* \"#utility.yul\":11339:11620   */\n      pop\n      pop\n      jump\t// out\n        /* \"#utility.yul\":11626:11806   */\n    tag_225:\n        /* \"#utility.yul\":11674:11751   */\n      0x4e487b7100000000000000000000000000000000000000000000000000000000\n        /* \"#utility.yul\":11671:11672   */\n      0x00\n        /* \"#utility.yul\":11664:11752   */\n      mstore\n        /* \"#utility.yul\":11771:11775   */\n      0x41\n        /* \"#utility.yul\":11768:11769   */\n      0x04\n        /* \"#utility.yul\":11761:11776   */\n      mstore\n        /* \"#utility.yul\":11795:11799   */\n      0x24\n        /* \"#utility.yul\":11792:11793   */\n      0x00\n        /* \"#utility.yul\":11785:11800   */\n      revert\n        /* \"#utility.yul\":11812:11929   */\n    tag_118:\n        /* \"#utility.yul\":11921:11922   */\n      0x00\n        /* \"#utility.yul\":11918:11919   */\n      dup1\n        /* \"#utility.yul\":11911:11923   */\n      revert\n        /* \"#utility.yul\":11935:12052   */\n    tag_92:\n        /* \"#utility.yul\":12044:12045   */\n      0x00\n        /* \"#utility.yul\":12041:12042   */\n      dup1\n        /* \"#utility.yul\":12034:12046   */\n      revert\n        /* \"#utility.yul\":12058:12175   */\n    tag_146:\n        /* \"#utility.yul\":12167:12168   */\n      0x00\n        /* \"#utility.yul\":12164:12165   */\n      dup1\n        /* \"#utility.yul\":12157:12169   */\n      revert\n        /* \"#utility.yul\":12181:12298   */\n    tag_135:\n        /* \"#utility.yul\":12290:12291   */\n      0x00\n        /* \"#utility.yul\":12287:12288   */\n      dup1\n        /* \"#utility.yul\":12280:12292   */\n      revert\n        /* \"#utility.yul\":12304:12406   */\n    tag_198:\n        /* \"#utility.yul\":12345:12351   */\n      0x00\n        /* \"#utility.yul\":12396:12398   */\n      0x1f\n        /* \"#utility.yul\":12392:12399   */\n      not\n        /* \"#utility.yul\":12387:12389   */\n      0x1f\n        /* \"#utility.yul\":12380:12385   */\n      dup4\n        /* \"#utility.yul\":12376:12390   */\n      add\n        /* \"#utility.yul\":12372:12400   */\n      and\n        /* \"#utility.yul\":12362:12400   */\n      swap1\n      pop\n        /* \"#utility.yul\":12304:12406   */\n      swap2\n      swap1\n      pop\n      jump\t// out\n        /* \"#utility.yul\":12412:12534   */\n    tag_106:\n        /* \"#utility.yul\":12485:12509   */\n      tag_264\n        /* \"#utility.yul\":12503:12508   */\n      dup2\n        /* \"#utility.yul\":12485:12509   */\n      tag_168\n      jump\t// in\n    tag_264:\n        /* \"#utility.yul\":12478:12483   */\n      dup2\n        /* \"#utility.yul\":12475:12510   */\n      eq\n        /* \"#utility.yul\":12465:12528   */\n      tag_265\n      jumpi\n        /* \"#utility.yul\":12524:12525   */\n      0x00\n        /* \"#utility.yul\":12521:12522   */\n      dup1\n        /* \"#utility.yul\":12514:12526   */\n      revert\n        /* \"#utility.yul\":12465:12528   */\n    tag_265:\n        /* \"#utility.yul\":12412:12534   */\n      pop\n      jump\t// out\n        /* \"#utility.yul\":12540:12656   */\n    tag_113:\n        /* \"#utility.yul\":12610:12631   */\n      tag_267\n        /* \"#utility.yul\":12625:12630   */\n      dup2\n        /* \"#utility.yul\":12610:12631   */\n      tag_186\n      jump\t// in\n    tag_267:\n        /* \"#utility.yul\":12603:12608   */\n      dup2\n        /* \"#utility.yul\":12600:12632   */\n      eq\n        /* \"#utility.yul\":12590:12650   */\n      tag_268\n      jumpi\n        /* \"#utility.yul\":12646:12647   */\n      0x00\n        /* \"#utility.yul\":12643:12644   */\n      dup1\n        /* \"#utility.yul\":12636:12648   */\n      revert\n        /* \"#utility.yul\":12590:12650   */\n    tag_268:\n        /* \"#utility.yul\":12540:12656   */\n      pop\n      jump\t// out\n        /* \"#utility.yul\":12662:12784   */\n    tag_128:\n        /* \"#utility.yul\":12735:12759   */\n      tag_270\n        /* \"#utility.yul\":12753:12758   */\n      dup2\n        /* \"#utility.yul\":12735:12759   */\n      tag_202\n      jump\t// in\n    tag_270:\n        /* \"#utility.yul\":12728:12733   */\n      dup2\n        /* \"#utility.yul\":12725:12760   */\n      eq\n        /* \"#utility.yul\":12715:12778   */\n      tag_271\n      jumpi\n        /* \"#utility.yul\":12774:12775   */\n      0x00\n        /* \"#utility.yul\":12771:12772   */\n      dup1\n        /* \"#utility.yul\":12764:12776   */\n      revert\n        /* \"#utility.yul\":12715:12778   */\n    tag_271:\n        /* \"#utility.yul\":12662:12784   */\n      pop\n      jump\t// out\n    stop\n\n    sub_0: assembly {\n            /* \"Donation.sol\":280:1610  contract Donation {... */\n          mstore(0x40, 0x80)\n            /* \"Donation.sol\":479:755  constructor(string memory name, uint minAmount, bool accept, uint amountNeeded) {... */\n          callvalue\n          dup1\n          iszero\n          tag_1\n          jumpi\n          0x00\n          dup1\n          revert\n        tag_1:\n          pop\n          mload(0x40)\n          sub(codesize, bytecodeSize)\n          dup1\n          bytecodeSize\n          dup4\n          codecopy\n          dup2\n          dup2\n          add\n          0x40\n          mstore\n          dup2\n          add\n          swap1\n          tag_2\n          swap2\n          swap1\n          tag_3\n          jump\t// in\n        tag_2:\n            /* \"Donation.sol\":585:589  name */\n          dup4\n            /* \"Donation.sol\":569:582  _donationName */\n          0x00\n            /* \"Donation.sol\":569:589  _donationName = name */\n          swap1\n          dup1\n          mload\n          swap1\n          0x20\n          add\n          swap1\n          tag_6\n          swap3\n          swap2\n          swap1\n          tag_7\n          jump\t// in\n        tag_6:\n          pop\n            /* \"Donation.sol\":619:628  minAmount */\n          dup3\n            /* \"Donation.sol\":599:616  donationMinAmount */\n          0x01\n            /* \"Donation.sol\":599:628  donationMinAmount = minAmount */\n          dup2\n          swap1\n          sstore\n          pop\n            /* \"Donation.sol\":668:674  accept */\n          dup2\n            /* \"Donation.sol\":638:665  acceptPaymentAfterAmountMet */\n          0x03\n          0x00\n            /* \"Donation.sol\":638:674  acceptPaymentAfterAmountMet = accept */\n          0x0100\n          exp\n          dup2\n          sload\n          dup2\n          0xff\n          mul\n          not\n          and\n          swap1\n          dup4\n          iszero\n          iszero\n          mul\n          or\n          swap1\n          sstore\n          pop\n            /* \"Donation.sol\":707:719  amountNeeded */\n          dup1\n            /* \"Donation.sol\":684:704  donationAmountNeeded */\n          0x02\n            /* \"Donation.sol\":684:719  donationAmountNeeded = amountNeeded */\n          dup2\n          swap1\n          sstore\n          pop\n            /* \"Donation.sol\":738:748  msg.sender */\n          caller\n            /* \"Donation.sol\":729:735  _owner */\n          0x03\n          0x01\n            /* \"Donation.sol\":729:748  _owner = msg.sender */\n          0x0100\n          exp\n          dup2\n          sload\n          dup2\n          0xffffffffffffffffffffffffffffffffffffffff\n          mul\n          not\n          and\n          swap1\n          dup4\n          0xffffffffffffffffffffffffffffffffffffffff\n          and\n          mul\n          or\n          swap1\n          sstore\n          pop\n            /* \"Donation.sol\":479:755  constructor(string memory name, uint minAmount, bool accept, uint amountNeeded) {... */\n          pop\n          pop\n          pop\n          pop\n            /* \"Donation.sol\":280:1610  contract Donation {... */\n          jump(tag_8)\n        tag_7:\n          dup3\n          dup1\n          sload\n          tag_9\n          swap1\n          tag_10\n          jump\t// in\n        tag_9:\n          swap1\n          0x00\n          mstore\n          keccak256(0x00, 0x20)\n          swap1\n          0x1f\n          add\n          0x20\n          swap1\n          div\n          dup2\n          add\n          swap3\n          dup3\n          tag_12\n          jumpi\n          0x00\n          dup6\n          sstore\n          jump(tag_11)\n        tag_12:\n          dup3\n          0x1f\n          lt\n          tag_13\n          jumpi\n          dup1\n          mload\n          not(0xff)\n          and\n          dup4\n          dup1\n          add\n          or\n          dup6\n          sstore\n          jump(tag_11)\n        tag_13:\n          dup3\n          dup1\n          add\n          0x01\n          add\n          dup6\n          sstore\n          dup3\n          iszero\n          tag_11\n          jumpi\n          swap2\n          dup3\n          add\n        tag_14:\n          dup3\n          dup2\n          gt\n          iszero\n          tag_15\n          jumpi\n          dup3\n          mload\n          dup3\n          sstore\n          swap2\n          0x20\n          add\n          swap2\n          swap1\n          0x01\n          add\n          swap1\n          jump(tag_14)\n        tag_15:\n        tag_11:\n          pop\n          swap1\n          pop\n          tag_16\n          swap2\n          swap1\n          tag_17\n          jump\t// in\n        tag_16:\n          pop\n          swap1\n          jump\t// out\n        tag_17:\n        tag_18:\n          dup1\n          dup3\n          gt\n          iszero\n          tag_19\n          jumpi\n          0x00\n          dup2\n          0x00\n          swap1\n          sstore\n          pop\n          0x01\n          add\n          jump(tag_18)\n        tag_19:\n          pop\n          swap1\n          jump\t// out\n            /* \"#utility.yul\":7:428   */\n        tag_21:\n            /* \"#utility.yul\":96:101   */\n          0x00\n            /* \"#utility.yul\":121:187   */\n          tag_23\n            /* \"#utility.yul\":137:186   */\n          tag_24\n            /* \"#utility.yul\":179:185   */\n          dup5\n            /* \"#utility.yul\":137:186   */\n          tag_25\n          jump\t// in\n        tag_24:\n            /* \"#utility.yul\":121:187   */\n          tag_26\n          jump\t// in\n        tag_23:\n            /* \"#utility.yul\":112:187   */\n          swap1\n          pop\n            /* \"#utility.yul\":210:216   */\n          dup3\n            /* \"#utility.yul\":203:208   */\n          dup2\n            /* \"#utility.yul\":196:217   */\n          mstore\n            /* \"#utility.yul\":248:252   */\n          0x20\n            /* \"#utility.yul\":241:246   */\n          dup2\n            /* \"#utility.yul\":237:253   */\n          add\n            /* \"#utility.yul\":286:289   */\n          dup5\n            /* \"#utility.yul\":277:283   */\n          dup5\n            /* \"#utility.yul\":272:275   */\n          dup5\n            /* \"#utility.yul\":268:284   */\n          add\n            /* \"#utility.yul\":265:290   */\n          gt\n            /* \"#utility.yul\":262:374   */\n          iszero\n          tag_27\n          jumpi\n            /* \"#utility.yul\":293:372   */\n          tag_28\n          tag_29\n          jump\t// in\n        tag_28:\n            /* \"#utility.yul\":262:374   */\n        tag_27:\n            /* \"#utility.yul\":383:422   */\n          tag_30\n            /* \"#utility.yul\":415:421   */\n          dup5\n            /* \"#utility.yul\":410:413   */\n          dup3\n            /* \"#utility.yul\":405:408   */\n          dup6\n            /* \"#utility.yul\":383:422   */\n          tag_31\n          jump\t// in\n        tag_30:\n            /* \"#utility.yul\":102:428   */\n          pop\n            /* \"#utility.yul\":7:428   */\n          swap4\n          swap3\n          pop\n          pop\n          pop\n          jump\t// out\n            /* \"#utility.yul\":434:571   */\n        tag_32:\n            /* \"#utility.yul\":488:493   */\n          0x00\n            /* \"#utility.yul\":519:525   */\n          dup2\n            /* \"#utility.yul\":513:526   */\n          mload\n            /* \"#utility.yul\":504:526   */\n          swap1\n          pop\n            /* \"#utility.yul\":535:565   */\n          tag_34\n            /* \"#utility.yul\":559:564   */\n          dup2\n            /* \"#utility.yul\":535:565   */\n          tag_35\n          jump\t// in\n        tag_34:\n            /* \"#utility.yul\":434:571   */\n          swap3\n          swap2\n          pop\n          pop\n          jump\t// out\n            /* \"#utility.yul\":591:946   */\n        tag_36:\n            /* \"#utility.yul\":658:663   */\n          0x00\n            /* \"#utility.yul\":707:710   */\n          dup3\n            /* \"#utility.yul\":700:704   */\n          0x1f\n            /* \"#utility.yul\":692:698   */\n          dup4\n            /* \"#utility.yul\":688:705   */\n          add\n            /* \"#utility.yul\":684:711   */\n          slt\n            /* \"#utility.yul\":674:796   */\n          tag_38\n          jumpi\n            /* \"#utility.yul\":715:794   */\n          tag_39\n          tag_40\n          jump\t// in\n        tag_39:\n            /* \"#utility.yul\":674:796   */\n        tag_38:\n            /* \"#utility.yul\":825:831   */\n          dup2\n            /* \"#utility.yul\":819:832   */\n          mload\n            /* \"#utility.yul\":850:940   */\n          tag_41\n            /* \"#utility.yul\":936:939   */\n          dup5\n            /* \"#utility.yul\":928:934   */\n          dup3\n            /* \"#utility.yul\":921:925   */\n          0x20\n            /* \"#utility.yul\":913:919   */\n          dup7\n            /* \"#utility.yul\":909:926   */\n          add\n            /* \"#utility.yul\":850:940   */\n          tag_21\n          jump\t// in\n        tag_41:\n            /* \"#utility.yul\":841:940   */\n          swap2\n          pop\n            /* \"#utility.yul\":664:946   */\n          pop\n            /* \"#utility.yul\":591:946   */\n          swap3\n          swap2\n          pop\n          pop\n          jump\t// out\n            /* \"#utility.yul\":952:1095   */\n        tag_42:\n            /* \"#utility.yul\":1009:1014   */\n          0x00\n            /* \"#utility.yul\":1040:1046   */\n          dup2\n            /* \"#utility.yul\":1034:1047   */\n          mload\n            /* \"#utility.yul\":1025:1047   */\n          swap1\n          pop\n            /* \"#utility.yul\":1056:1089   */\n          tag_44\n            /* \"#utility.yul\":1083:1088   */\n          dup2\n            /* \"#utility.yul\":1056:1089   */\n          tag_45\n          jump\t// in\n        tag_44:\n            /* \"#utility.yul\":952:1095   */\n          swap3\n          swap2\n          pop\n          pop\n          jump\t// out\n            /* \"#utility.yul\":1101:2088   */\n        tag_3:\n            /* \"#utility.yul\":1205:1211   */\n          0x00\n            /* \"#utility.yul\":1213:1219   */\n          dup1\n            /* \"#utility.yul\":1221:1227   */\n          0x00\n            /* \"#utility.yul\":1229:1235   */\n          dup1\n            /* \"#utility.yul\":1278:1281   */\n          0x80\n            /* \"#utility.yul\":1266:1275   */\n          dup6\n            /* \"#utility.yul\":1257:1264   */\n          dup8\n            /* \"#utility.yul\":1253:1276   */\n          sub\n            /* \"#utility.yul\":1249:1282   */\n          slt\n            /* \"#utility.yul\":1246:1366   */\n          iszero\n          tag_47\n          jumpi\n            /* \"#utility.yul\":1285:1364   */\n          tag_48\n          tag_49\n          jump\t// in\n        tag_48:\n            /* \"#utility.yul\":1246:1366   */\n        tag_47:\n            /* \"#utility.yul\":1426:1427   */\n          0x00\n            /* \"#utility.yul\":1415:1424   */\n          dup6\n            /* \"#utility.yul\":1411:1428   */\n          add\n            /* \"#utility.yul\":1405:1429   */\n          mload\n            /* \"#utility.yul\":1456:1474   */\n          0xffffffffffffffff\n            /* \"#utility.yul\":1448:1454   */\n          dup2\n            /* \"#utility.yul\":1445:1475   */\n          gt\n            /* \"#utility.yul\":1442:1559   */\n          iszero\n          tag_50\n          jumpi\n            /* \"#utility.yul\":1478:1557   */\n          tag_51\n          tag_52\n          jump\t// in\n        tag_51:\n            /* \"#utility.yul\":1442:1559   */\n        tag_50:\n            /* \"#utility.yul\":1583:1657   */\n          tag_53\n            /* \"#utility.yul\":1649:1656   */\n          dup8\n            /* \"#utility.yul\":1640:1646   */\n          dup3\n            /* \"#utility.yul\":1629:1638   */\n          dup9\n            /* \"#utility.yul\":1625:1647   */\n          add\n            /* \"#utility.yul\":1583:1657   */\n          tag_36\n          jump\t// in\n        tag_53:\n            /* \"#utility.yul\":1573:1657   */\n          swap5\n          pop\n            /* \"#utility.yul\":1376:1667   */\n          pop\n            /* \"#utility.yul\":1706:1708   */\n          0x20\n            /* \"#utility.yul\":1732:1796   */\n          tag_54\n            /* \"#utility.yul\":1788:1795   */\n          dup8\n            /* \"#utility.yul\":1779:1785   */\n          dup3\n            /* \"#utility.yul\":1768:1777   */\n          dup9\n            /* \"#utility.yul\":1764:1786   */\n          add\n            /* \"#utility.yul\":1732:1796   */\n          tag_42\n          jump\t// in\n        tag_54:\n            /* \"#utility.yul\":1722:1796   */\n          swap4\n          pop\n            /* \"#utility.yul\":1677:1806   */\n          pop\n            /* \"#utility.yul\":1845:1847   */\n          0x40\n            /* \"#utility.yul\":1871:1932   */\n          tag_55\n            /* \"#utility.yul\":1924:1931   */\n          dup8\n            /* \"#utility.yul\":1915:1921   */\n          dup3\n            /* \"#utility.yul\":1904:1913   */\n          dup9\n            /* \"#utility.yul\":1900:1922   */\n          add\n            /* \"#utility.yul\":1871:1932   */\n          tag_32\n          jump\t// in\n        tag_55:\n            /* \"#utility.yul\":1861:1932   */\n          swap3\n          pop\n            /* \"#utility.yul\":1816:1942   */\n          pop\n            /* \"#utility.yul\":1981:1983   */\n          0x60\n            /* \"#utility.yul\":2007:2071   */\n          tag_56\n            /* \"#utility.yul\":2063:2070   */\n          dup8\n            /* \"#utility.yul\":2054:2060   */\n          dup3\n            /* \"#utility.yul\":2043:2052   */\n          dup9\n            /* \"#utility.yul\":2039:2061   */\n          add\n            /* \"#utility.yul\":2007:2071   */\n          tag_42\n          jump\t// in\n        tag_56:\n            /* \"#utility.yul\":1997:2071   */\n          swap2\n          pop\n            /* \"#utility.yul\":1952:2081   */\n          pop\n            /* \"#utility.yul\":1101:2088   */\n          swap3\n          swap6\n          swap2\n          swap5\n          pop\n          swap3\n          pop\n          jump\t// out\n            /* \"#utility.yul\":2094:2223   */\n        tag_26:\n            /* \"#utility.yul\":2128:2134   */\n          0x00\n            /* \"#utility.yul\":2155:2175   */\n          tag_58\n          tag_59\n          jump\t// in\n        tag_58:\n            /* \"#utility.yul\":2145:2175   */\n          swap1\n          pop\n            /* \"#utility.yul\":2184:2217   */\n          tag_60\n            /* \"#utility.yul\":2212:2216   */\n          dup3\n            /* \"#utility.yul\":2204:2210   */\n          dup3\n            /* \"#utility.yul\":2184:2217   */\n          tag_61\n          jump\t// in\n        tag_60:\n            /* \"#utility.yul\":2094:2223   */\n          swap2\n          swap1\n          pop\n          jump\t// out\n            /* \"#utility.yul\":2229:2304   */\n        tag_59:\n            /* \"#utility.yul\":2262:2268   */\n          0x00\n            /* \"#utility.yul\":2295:2297   */\n          0x40\n            /* \"#utility.yul\":2289:2298   */\n          mload\n            /* \"#utility.yul\":2279:2298   */\n          swap1\n          pop\n            /* \"#utility.yul\":2229:2304   */\n          swap1\n          jump\t// out\n            /* \"#utility.yul\":2310:2618   */\n        tag_25:\n            /* \"#utility.yul\":2372:2376   */\n          0x00\n            /* \"#utility.yul\":2462:2480   */\n          0xffffffffffffffff\n            /* \"#utility.yul\":2454:2460   */\n          dup3\n            /* \"#utility.yul\":2451:2481   */\n          gt\n            /* \"#utility.yul\":2448:2504   */\n          iszero\n          tag_64\n          jumpi\n            /* \"#utility.yul\":2484:2502   */\n          tag_65\n          tag_66\n          jump\t// in\n        tag_65:\n            /* \"#utility.yul\":2448:2504   */\n        tag_64:\n            /* \"#utility.yul\":2522:2551   */\n          tag_67\n            /* \"#utility.yul\":2544:2550   */\n          dup3\n            /* \"#utility.yul\":2522:2551   */\n          tag_68\n          jump\t// in\n        tag_67:\n            /* \"#utility.yul\":2514:2551   */\n          swap1\n          pop\n            /* \"#utility.yul\":2606:2610   */\n          0x20\n            /* \"#utility.yul\":2600:2604   */\n          dup2\n            /* \"#utility.yul\":2596:2611   */\n          add\n            /* \"#utility.yul\":2588:2611   */\n          swap1\n          pop\n            /* \"#utility.yul\":2310:2618   */\n          swap2\n          swap1\n          pop\n          jump\t// out\n            /* \"#utility.yul\":2624:2714   */\n        tag_69:\n            /* \"#utility.yul\":2658:2665   */\n          0x00\n            /* \"#utility.yul\":2701:2706   */\n          dup2\n            /* \"#utility.yul\":2694:2707   */\n          iszero\n            /* \"#utility.yul\":2687:2708   */\n          iszero\n            /* \"#utility.yul\":2676:2708   */\n          swap1\n          pop\n            /* \"#utility.yul\":2624:2714   */\n          swap2\n          swap1\n          pop\n          jump\t// out\n            /* \"#utility.yul\":2720:2797   */\n        tag_71:\n            /* \"#utility.yul\":2757:2764   */\n          0x00\n            /* \"#utility.yul\":2786:2791   */\n          dup2\n            /* \"#utility.yul\":2775:2791   */\n          swap1\n          pop\n            /* \"#utility.yul\":2720:2797   */\n          swap2\n          swap1\n          pop\n          jump\t// out\n            /* \"#utility.yul\":2803:3110   */\n        tag_31:\n            /* \"#utility.yul\":2871:2872   */\n          0x00\n            /* \"#utility.yul\":2881:2994   */\n        tag_74:\n            /* \"#utility.yul\":2895:2901   */\n          dup4\n            /* \"#utility.yul\":2892:2893   */\n          dup2\n            /* \"#utility.yul\":2889:2902   */\n          lt\n            /* \"#utility.yul\":2881:2994   */\n          iszero\n          tag_76\n          jumpi\n            /* \"#utility.yul\":2980:2981   */\n          dup1\n            /* \"#utility.yul\":2975:2978   */\n          dup3\n            /* \"#utility.yul\":2971:2982   */\n          add\n            /* \"#utility.yul\":2965:2983   */\n          mload\n            /* \"#utility.yul\":2961:2962   */\n          dup2\n            /* \"#utility.yul\":2956:2959   */\n          dup5\n            /* \"#utility.yul\":2952:2963   */\n          add\n            /* \"#utility.yul\":2945:2984   */\n          mstore\n            /* \"#utility.yul\":2917:2919   */\n          0x20\n            /* \"#utility.yul\":2914:2915   */\n          dup2\n            /* \"#utility.yul\":2910:2920   */\n          add\n            /* \"#utility.yul\":2905:2920   */\n          swap1\n          pop\n            /* \"#utility.yul\":2881:2994   */\n          jump(tag_74)\n        tag_76:\n            /* \"#utility.yul\":3012:3018   */\n          dup4\n            /* \"#utility.yul\":3009:3010   */\n          dup2\n            /* \"#utility.yul\":3006:3019   */\n          gt\n            /* \"#utility.yul\":3003:3104   */\n          iszero\n          tag_77\n          jumpi\n            /* \"#utility.yul\":3092:3093   */\n          0x00\n            /* \"#utility.yul\":3083:3089   */\n          dup5\n            /* \"#utility.yul\":3078:3081   */\n          dup5\n            /* \"#utility.yul\":3074:3090   */\n          add\n            /* \"#utility.yul\":3067:3094   */\n          mstore\n            /* \"#utility.yul\":3003:3104   */\n        tag_77:\n            /* \"#utility.yul\":2852:3110   */\n          pop\n            /* \"#utility.yul\":2803:3110   */\n          pop\n          pop\n          pop\n          jump\t// out\n            /* \"#utility.yul\":3116:3436   */\n        tag_10:\n            /* \"#utility.yul\":3160:3166   */\n          0x00\n            /* \"#utility.yul\":3197:3198   */\n          0x02\n            /* \"#utility.yul\":3191:3195   */\n          dup3\n            /* \"#utility.yul\":3187:3199   */\n          div\n            /* \"#utility.yul\":3177:3199   */\n          swap1\n          pop\n            /* \"#utility.yul\":3244:3245   */\n          0x01\n            /* \"#utility.yul\":3238:3242   */\n          dup3\n            /* \"#utility.yul\":3234:3246   */\n          and\n            /* \"#utility.yul\":3265:3283   */\n          dup1\n            /* \"#utility.yul\":3255:3336   */\n          tag_79\n          jumpi\n            /* \"#utility.yul\":3321:3325   */\n          0x7f\n            /* \"#utility.yul\":3313:3319   */\n          dup3\n            /* \"#utility.yul\":3309:3326   */\n          and\n            /* \"#utility.yul\":3299:3326   */\n          swap2\n          pop\n            /* \"#utility.yul\":3255:3336   */\n        tag_79:\n            /* \"#utility.yul\":3383:3385   */\n          0x20\n            /* \"#utility.yul\":3375:3381   */\n          dup3\n            /* \"#utility.yul\":3372:3386   */\n          lt\n            /* \"#utility.yul\":3352:3370   */\n          dup2\n            /* \"#utility.yul\":3349:3387   */\n          eq\n            /* \"#utility.yul\":3346:3430   */\n          iszero\n          tag_80\n          jumpi\n            /* \"#utility.yul\":3402:3420   */\n          tag_81\n          tag_82\n          jump\t// in\n        tag_81:\n            /* \"#utility.yul\":3346:3430   */\n        tag_80:\n            /* \"#utility.yul\":3167:3436   */\n          pop\n            /* \"#utility.yul\":3116:3436   */\n          swap2\n          swap1\n          pop\n          jump\t// out\n            /* \"#utility.yul\":3442:3723   */\n        tag_61:\n            /* \"#utility.yul\":3525:3552   */\n          tag_84\n            /* \"#utility.yul\":3547:3551   */\n          dup3\n            /* \"#utility.yul\":3525:3552   */\n          tag_68\n          jump\t// in\n        tag_84:\n            /* \"#utility.yul\":3517:3523   */\n          dup2\n            /* \"#utility.yul\":3513:3553   */\n          add\n            /* \"#utility.yul\":3655:3661   */\n          dup2\n            /* \"#utility.yul\":3643:3653   */\n          dup2\n            /* \"#utility.yul\":3640:3662   */\n          lt\n            /* \"#utility.yul\":3619:3637   */\n          0xffffffffffffffff\n            /* \"#utility.yul\":3607:3617   */\n          dup3\n            /* \"#utility.yul\":3604:3638   */\n          gt\n            /* \"#utility.yul\":3601:3663   */\n          or\n            /* \"#utility.yul\":3598:3686   */\n          iszero\n          tag_85\n          jumpi\n            /* \"#utility.yul\":3666:3684   */\n          tag_86\n          tag_66\n          jump\t// in\n        tag_86:\n            /* \"#utility.yul\":3598:3686   */\n        tag_85:\n            /* \"#utility.yul\":3706:3716   */\n          dup1\n            /* \"#utility.yul\":3702:3704   */\n          0x40\n            /* \"#utility.yul\":3695:3717   */\n          mstore\n            /* \"#utility.yul\":3485:3723   */\n          pop\n            /* \"#utility.yul\":3442:3723   */\n          pop\n          pop\n          jump\t// out\n            /* \"#utility.yul\":3729:3909   */\n        tag_82:\n            /* \"#utility.yul\":3777:3854   */\n          0x4e487b7100000000000000000000000000000000000000000000000000000000\n            /* \"#utility.yul\":3774:3775   */\n          0x00\n            /* \"#utility.yul\":3767:3855   */\n          mstore\n            /* \"#utility.yul\":3874:3878   */\n          0x22\n            /* \"#utility.yul\":3871:3872   */\n          0x04\n            /* \"#utility.yul\":3864:3879   */\n          mstore\n            /* \"#utility.yul\":3898:3902   */\n          0x24\n            /* \"#utility.yul\":3895:3896   */\n          0x00\n            /* \"#utility.yul\":3888:3903   */\n          revert\n            /* \"#utility.yul\":3915:4095   */\n        tag_66:\n            /* \"#utility.yul\":3963:4040   */\n          0x4e487b7100000000000000000000000000000000000000000000000000000000\n            /* \"#utility.yul\":3960:3961   */\n          0x00\n            /* \"#utility.yul\":3953:4041   */\n          mstore\n            /* \"#utility.yul\":4060:4064   */\n          0x41\n            /* \"#utility.yul\":4057:4058   */\n          0x04\n            /* \"#utility.yul\":4050:4065   */\n          mstore\n            /* \"#utility.yul\":4084:4088   */\n          0x24\n            /* \"#utility.yul\":4081:4082   */\n          0x00\n            /* \"#utility.yul\":4074:4089   */\n          revert\n            /* \"#utility.yul\":4101:4218   */\n        tag_40:\n            /* \"#utility.yul\":4210:4211   */\n          0x00\n            /* \"#utility.yul\":4207:4208   */\n          dup1\n            /* \"#utility.yul\":4200:4212   */\n          revert\n            /* \"#utility.yul\":4224:4341   */\n        tag_29:\n            /* \"#utility.yul\":4333:4334   */\n          0x00\n            /* \"#utility.yul\":4330:4331   */\n          dup1\n            /* \"#utility.yul\":4323:4335   */\n          revert\n            /* \"#utility.yul\":4347:4464   */\n        tag_52:\n            /* \"#utility.yul\":4456:4457   */\n          0x00\n            /* \"#utility.yul\":4453:4454   */\n          dup1\n            /* \"#utility.yul\":4446:4458   */\n          revert\n            /* \"#utility.yul\":4470:4587   */\n        tag_49:\n            /* \"#utility.yul\":4579:4580   */\n          0x00\n            /* \"#utility.yul\":4576:4577   */\n          dup1\n            /* \"#utility.yul\":4569:4581   */\n          revert\n            /* \"#utility.yul\":4593:4695   */\n        tag_68:\n            /* \"#utility.yul\":4634:4640   */\n          0x00\n            /* \"#utility.yul\":4685:4687   */\n          0x1f\n            /* \"#utility.yul\":4681:4688   */\n          not\n            /* \"#utility.yul\":4676:4678   */\n          0x1f\n            /* \"#utility.yul\":4669:4674   */\n          dup4\n            /* \"#utility.yul\":4665:4679   */\n          add\n            /* \"#utility.yul\":4661:4689   */\n          and\n            /* \"#utility.yul\":4651:4689   */\n          swap1\n          pop\n            /* \"#utility.yul\":4593:4695   */\n          swap2\n          swap1\n          pop\n          jump\t// out\n            /* \"#utility.yul\":4701:4817   */\n        tag_35:\n            /* \"#utility.yul\":4771:4792   */\n          tag_95\n            /* \"#utility.yul\":4786:4791   */\n          dup2\n            /* \"#utility.yul\":4771:4792   */\n          tag_69\n          jump\t// in\n        tag_95:\n            /* \"#utility.yul\":4764:4769   */\n          dup2\n            /* \"#utility.yul\":4761:4793   */\n          eq\n            /* \"#utility.yul\":4751:4811   */\n          tag_96\n          jumpi\n            /* \"#utility.yul\":4807:4808   */\n          0x00\n            /* \"#utility.yul\":4804:4805   */\n          dup1\n            /* \"#utility.yul\":4797:4809   */\n          revert\n            /* \"#utility.yul\":4751:4811   */\n        tag_96:\n            /* \"#utility.yul\":4701:4817   */\n          pop\n          jump\t// out\n            /* \"#utility.yul\":4823:4945   */\n        tag_45:\n            /* \"#utility.yul\":4896:4920   */\n          tag_98\n            /* \"#utility.yul\":4914:4919   */\n          dup2\n            /* \"#utility.yul\":4896:4920   */\n          tag_71\n          jump\t// in\n        tag_98:\n            /* \"#utility.yul\":4889:4894   */\n          dup2\n            /* \"#utility.yul\":4886:4921   */\n          eq\n            /* \"#utility.yul\":4876:4939   */\n          tag_99\n          jumpi\n            /* \"#utility.yul\":4935:4936   */\n          0x00\n            /* \"#utility.yul\":4932:4933   */\n          dup1\n            /* \"#utility.yul\":4925:4937   */\n          revert\n            /* \"#utility.yul\":4876:4939   */\n        tag_99:\n            /* \"#utility.yul\":4823:4945   */\n          pop\n          jump\t// out\n            /* \"Donation.sol\":280:1610  contract Donation {... */\n        tag_8:\n          dataSize(sub_0)\n          dup1\n          dataOffset(sub_0)\n          0x00\n          codecopy\n          0x00\n          return\n        stop\n\n        sub_0: assembly {\n                /* \"Donation.sol\":280:1610  contract Donation {... */\n              mstore(0x40, 0x80)\n              jumpi(tag_1, lt(calldatasize, 0x04))\n              shr(0xe0, calldataload(0x00))\n              dup1\n              0x893d20e8\n              gt\n              tag_11\n              jumpi\n              dup1\n              0x893d20e8\n              eq\n              tag_6\n              jumpi\n              dup1\n              0xb383bf2d\n              eq\n              tag_7\n              jumpi\n              dup1\n              0xeae3f764\n              eq\n              tag_8\n              jumpi\n              dup1\n              0xed11f46a\n              eq\n              tag_9\n              jumpi\n              dup1\n              0xed88c68e\n              eq\n              tag_10\n              jumpi\n              jump(tag_1)\n            tag_11:\n              dup1\n              0x354ecc85\n              eq\n              tag_2\n              jumpi\n              dup1\n              0x3ccfd60b\n              eq\n              tag_3\n              jumpi\n              dup1\n              0x798be230\n              eq\n              tag_4\n              jumpi\n              dup1\n              0x80fdef1b\n              eq\n              tag_5\n              jumpi\n            tag_1:\n              0x00\n              dup1\n              revert\n                /* \"Donation.sol\":305:332  string public _donationName */\n            tag_2:\n              callvalue\n              dup1\n              iszero\n              tag_12\n              jumpi\n              0x00\n              dup1\n              revert\n            tag_12:\n              pop\n              tag_13\n              tag_14\n              jump\t// in\n            tag_13:\n              mload(0x40)\n              tag_15\n              swap2\n              swap1\n              tag_16\n              jump\t// in\n            tag_15:\n              mload(0x40)\n              dup1\n              swap2\n              sub\n              swap1\n              return\n                /* \"Donation.sol\":1223:1418  function withdraw() public {... */\n            tag_3:\n              callvalue\n              dup1\n              iszero\n              tag_17\n              jumpi\n              0x00\n              dup1\n              revert\n            tag_17:\n              pop\n              tag_18\n              tag_19\n              jump\t// in\n            tag_18:\n              stop\n                /* \"Donation.sol\":411:450  bool public acceptPaymentAfterAmountMet */\n            tag_4:\n              callvalue\n              dup1\n              iszero\n              tag_20\n              jumpi\n              0x00\n              dup1\n              revert\n            tag_20:\n              pop\n              tag_21\n              tag_22\n              jump\t// in\n            tag_21:\n              mload(0x40)\n              tag_23\n              swap2\n              swap1\n              tag_24\n              jump\t// in\n            tag_23:\n              mload(0x40)\n              dup1\n              swap2\n              sub\n              swap1\n              return\n                /* \"Donation.sol\":373:405  uint public donationAmountNeeded */\n            tag_5:\n              callvalue\n              dup1\n              iszero\n              tag_25\n              jumpi\n              0x00\n              dup1\n              revert\n            tag_25:\n              pop\n              tag_26\n              tag_27\n              jump\t// in\n            tag_26:\n              mload(0x40)\n              tag_28\n              swap2\n              swap1\n              tag_29\n              jump\t// in\n            tag_28:\n              mload(0x40)\n              dup1\n              swap2\n              sub\n              swap1\n              return\n                /* \"Donation.sol\":1529:1608  function getOwner() public view returns(address) {... */\n            tag_6:\n              callvalue\n              dup1\n              iszero\n              tag_30\n              jumpi\n              0x00\n              dup1\n              revert\n            tag_30:\n              pop\n              tag_31\n              tag_32\n              jump\t// in\n            tag_31:\n              mload(0x40)\n              tag_33\n              swap2\n              swap1\n              tag_34\n              jump\t// in\n            tag_33:\n              mload(0x40)\n              dup1\n              swap2\n              sub\n              swap1\n              return\n                /* \"Donation.sol\":338:367  uint public donationMinAmount */\n            tag_7:\n              callvalue\n              dup1\n              iszero\n              tag_35\n              jumpi\n              0x00\n              dup1\n              revert\n            tag_35:\n              pop\n              tag_36\n              tag_37\n              jump\t// in\n            tag_36:\n              mload(0x40)\n              tag_38\n              swap2\n              swap1\n              tag_29\n              jump\t// in\n            tag_38:\n              mload(0x40)\n              dup1\n              swap2\n              sub\n              swap1\n              return\n                /* \"Donation.sol\":1424:1523  function getDonationName() public view returns (string memory){... */\n            tag_8:\n              callvalue\n              dup1\n              iszero\n              tag_39\n              jumpi\n              0x00\n              dup1\n              revert\n            tag_39:\n              pop\n              tag_40\n              tag_41\n              jump\t// in\n            tag_40:\n              mload(0x40)\n              tag_42\n              swap2\n              swap1\n              tag_16\n              jump\t// in\n            tag_42:\n              mload(0x40)\n              dup1\n              swap2\n              sub\n              swap1\n              return\n                /* \"Donation.sol\":1116:1217  function donationBalance() view external returns (uint) {... */\n            tag_9:\n              callvalue\n              dup1\n              iszero\n              tag_43\n              jumpi\n              0x00\n              dup1\n              revert\n            tag_43:\n              pop\n              tag_44\n              tag_45\n              jump\t// in\n            tag_44:\n              mload(0x40)\n              tag_46\n              swap2\n              swap1\n              tag_29\n              jump\t// in\n            tag_46:\n              mload(0x40)\n              dup1\n              swap2\n              sub\n              swap1\n              return\n                /* \"Donation.sol\":762:1110  function donate() payable external {... */\n            tag_10:\n              tag_47\n              tag_48\n              jump\t// in\n            tag_47:\n              stop\n                /* \"Donation.sol\":305:332  string public _donationName */\n            tag_14:\n              0x00\n              dup1\n              sload\n              tag_49\n              swap1\n              tag_50\n              jump\t// in\n            tag_49:\n              dup1\n              0x1f\n              add\n              0x20\n              dup1\n              swap2\n              div\n              mul\n              0x20\n              add\n              mload(0x40)\n              swap1\n              dup2\n              add\n              0x40\n              mstore\n              dup1\n              swap3\n              swap2\n              swap1\n              dup2\n              dup2\n              mstore\n              0x20\n              add\n              dup3\n              dup1\n              sload\n              tag_51\n              swap1\n              tag_50\n              jump\t// in\n            tag_51:\n              dup1\n              iszero\n              tag_52\n              jumpi\n              dup1\n              0x1f\n              lt\n              tag_53\n              jumpi\n              0x0100\n              dup1\n              dup4\n              sload\n              div\n              mul\n              dup4\n              mstore\n              swap2\n              0x20\n              add\n              swap2\n              jump(tag_52)\n            tag_53:\n              dup3\n              add\n              swap2\n              swap1\n              0x00\n              mstore\n              keccak256(0x00, 0x20)\n              swap1\n            tag_54:\n              dup2\n              sload\n              dup2\n              mstore\n              swap1\n              0x01\n              add\n              swap1\n              0x20\n              add\n              dup1\n              dup4\n              gt\n              tag_54\n              jumpi\n              dup3\n              swap1\n              sub\n              0x1f\n              and\n              dup3\n              add\n              swap2\n            tag_52:\n              pop\n              pop\n              pop\n              pop\n              pop\n              dup2\n              jump\t// out\n                /* \"Donation.sol\":1223:1418  function withdraw() public {... */\n            tag_19:\n                /* \"Donation.sol\":1278:1288  msg.sender */\n              caller\n                /* \"Donation.sol\":1268:1288  _owner == msg.sender */\n              0xffffffffffffffffffffffffffffffffffffffff\n              and\n                /* \"Donation.sol\":1268:1274  _owner */\n              0x03\n              0x01\n              swap1\n              sload\n              swap1\n              0x0100\n              exp\n              swap1\n              div\n              0xffffffffffffffffffffffffffffffffffffffff\n              and\n                /* \"Donation.sol\":1268:1288  _owner == msg.sender */\n              0xffffffffffffffffffffffffffffffffffffffff\n              and\n              eq\n                /* \"Donation.sol\":1260:1341  require(_owner == msg.sender, \"Only owner of this donation can withdraw from it\") */\n              tag_56\n              jumpi\n              mload(0x40)\n              0x08c379a000000000000000000000000000000000000000000000000000000000\n              dup2\n              mstore\n              0x04\n              add\n              tag_57\n              swap1\n              tag_58\n              jump\t// in\n            tag_57:\n              mload(0x40)\n              dup1\n              swap2\n              sub\n              swap1\n              revert\n            tag_56:\n                /* \"Donation.sol\":1359:1369  msg.sender */\n              caller\n                /* \"Donation.sol\":1351:1375  payable(msg.sender).call */\n              0xffffffffffffffffffffffffffffffffffffffff\n              and\n                /* \"Donation.sol\":1384:1405  address(this).balance */\n              selfbalance\n                /* \"Donation.sol\":1351:1411  payable(msg.sender).call{value: (address(this).balance)}(\"\") */\n              mload(0x40)\n              tag_59\n              swap1\n              tag_60\n              jump\t// in\n            tag_59:\n              0x00\n              mload(0x40)\n              dup1\n              dup4\n              sub\n              dup2\n              dup6\n              dup8\n              gas\n              call\n              swap3\n              pop\n              pop\n              pop\n              returndatasize\n              dup1\n              0x00\n              dup2\n              eq\n              tag_63\n              jumpi\n              mload(0x40)\n              swap2\n              pop\n              and(add(returndatasize, 0x3f), not(0x1f))\n              dup3\n              add\n              0x40\n              mstore\n              returndatasize\n              dup3\n              mstore\n              returndatasize\n              0x00\n              0x20\n              dup5\n              add\n              returndatacopy\n              jump(tag_62)\n            tag_63:\n              0x60\n              swap2\n              pop\n            tag_62:\n              pop\n              pop\n              pop\n                /* \"Donation.sol\":1223:1418  function withdraw() public {... */\n              jump\t// out\n                /* \"Donation.sol\":411:450  bool public acceptPaymentAfterAmountMet */\n            tag_22:\n              0x03\n              0x00\n              swap1\n              sload\n              swap1\n              0x0100\n              exp\n              swap1\n              div\n              0xff\n              and\n              dup2\n              jump\t// out\n                /* \"Donation.sol\":373:405  uint public donationAmountNeeded */\n            tag_27:\n              sload(0x02)\n              dup2\n              jump\t// out\n                /* \"Donation.sol\":1529:1608  function getOwner() public view returns(address) {... */\n            tag_32:\n                /* \"Donation.sol\":1569:1576  address */\n              0x00\n                /* \"Donation.sol\":1595:1601  _owner */\n              0x03\n              0x01\n              swap1\n              sload\n              swap1\n              0x0100\n              exp\n              swap1\n              div\n              0xffffffffffffffffffffffffffffffffffffffff\n              and\n                /* \"Donation.sol\":1588:1601  return _owner */\n              swap1\n              pop\n                /* \"Donation.sol\":1529:1608  function getOwner() public view returns(address) {... */\n              swap1\n              jump\t// out\n                /* \"Donation.sol\":338:367  uint public donationMinAmount */\n            tag_37:\n              sload(0x01)\n              dup2\n              jump\t// out\n                /* \"Donation.sol\":1424:1523  function getDonationName() public view returns (string memory){... */\n            tag_41:\n                /* \"Donation.sol\":1472:1485  string memory */\n              0x60\n                /* \"Donation.sol\":1503:1516  _donationName */\n              0x00\n                /* \"Donation.sol\":1496:1516  return _donationName */\n              dup1\n              sload\n              tag_66\n              swap1\n              tag_50\n              jump\t// in\n            tag_66:\n              dup1\n              0x1f\n              add\n              0x20\n              dup1\n              swap2\n              div\n              mul\n              0x20\n              add\n              mload(0x40)\n              swap1\n              dup2\n              add\n              0x40\n              mstore\n              dup1\n              swap3\n              swap2\n              swap1\n              dup2\n              dup2\n              mstore\n              0x20\n              add\n              dup3\n              dup1\n              sload\n              tag_67\n              swap1\n              tag_50\n              jump\t// in\n            tag_67:\n              dup1\n              iszero\n              tag_68\n              jumpi\n              dup1\n              0x1f\n              lt\n              tag_69\n              jumpi\n              0x0100\n              dup1\n              dup4\n              sload\n              div\n              mul\n              dup4\n              mstore\n              swap2\n              0x20\n              add\n              swap2\n              jump(tag_68)\n            tag_69:\n              dup3\n              add\n              swap2\n              swap1\n              0x00\n              mstore\n              keccak256(0x00, 0x20)\n              swap1\n            tag_70:\n              dup2\n              sload\n              dup2\n              mstore\n              swap1\n              0x01\n              add\n              swap1\n              0x20\n              add\n              dup1\n              dup4\n              gt\n              tag_70\n              jumpi\n              dup3\n              swap1\n              sub\n              0x1f\n              and\n              dup3\n              add\n              swap2\n            tag_68:\n              pop\n              pop\n              pop\n              pop\n              pop\n              swap1\n              pop\n                /* \"Donation.sol\":1424:1523  function getDonationName() public view returns (string memory){... */\n              swap1\n              jump\t// out\n                /* \"Donation.sol\":1116:1217  function donationBalance() view external returns (uint) {... */\n            tag_45:\n                /* \"Donation.sol\":1166:1170  uint */\n              0x00\n                /* \"Donation.sol\":1189:1210  address(this).balance */\n              selfbalance\n                /* \"Donation.sol\":1182:1210  return address(this).balance */\n              swap1\n              pop\n                /* \"Donation.sol\":1116:1217  function donationBalance() view external returns (uint) {... */\n              swap1\n              jump\t// out\n                /* \"Donation.sol\":762:1110  function donate() payable external {... */\n            tag_48:\n                /* \"Donation.sol\":828:845  donationMinAmount */\n              sload(0x01)\n                /* \"Donation.sol\":815:824  msg.value */\n              callvalue\n                /* \"Donation.sol\":815:845  msg.value >= donationMinAmount */\n              lt\n              iszero\n                /* \"Donation.sol\":807:887  require(msg.value >= donationMinAmount, \"You cannot donate below ${_minAmount}\") */\n              tag_73\n              jumpi\n              mload(0x40)\n              0x08c379a000000000000000000000000000000000000000000000000000000000\n              dup2\n              mstore\n              0x04\n              add\n              tag_74\n              swap1\n              tag_75\n              jump\t// in\n            tag_74:\n              mload(0x40)\n              dup1\n              swap2\n              sub\n              swap1\n              revert\n            tag_73:\n                /* \"Donation.sol\":902:929  acceptPaymentAfterAmountMet */\n              0x03\n              0x00\n              swap1\n              sload\n              swap1\n              0x0100\n              exp\n              swap1\n              div\n              0xff\n              and\n                /* \"Donation.sol\":897:1104  if (!acceptPaymentAfterAmountMet) {... */\n              tag_76\n              jumpi\n                /* \"Donation.sol\":945:957  uint balance */\n              0x00\n                /* \"Donation.sol\":960:981  address(this).balance */\n              selfbalance\n                /* \"Donation.sol\":945:981  uint balance = address(this).balance */\n              swap1\n              pop\n                /* \"Donation.sol\":1026:1046  donationAmountNeeded */\n              sload(0x02)\n                /* \"Donation.sol\":1013:1022  msg.value */\n              callvalue\n                /* \"Donation.sol\":1003:1010  balance */\n              dup3\n                /* \"Donation.sol\":1003:1022  balance + msg.value */\n              tag_77\n              swap2\n              swap1\n              tag_78\n              jump\t// in\n            tag_77:\n                /* \"Donation.sol\":1003:1046  balance + msg.value <= donationAmountNeeded */\n              gt\n              iszero\n                /* \"Donation.sol\":995:1093  require(balance + msg.value <= donationAmountNeeded, \"Your donation will cross the amount needed\") */\n              tag_79\n              jumpi\n              mload(0x40)\n              0x08c379a000000000000000000000000000000000000000000000000000000000\n              dup2\n              mstore\n              0x04\n              add\n              tag_80\n              swap1\n              tag_81\n              jump\t// in\n            tag_80:\n              mload(0x40)\n              dup1\n              swap2\n              sub\n              swap1\n              revert\n            tag_79:\n                /* \"Donation.sol\":931:1104  {... */\n              pop\n                /* \"Donation.sol\":897:1104  if (!acceptPaymentAfterAmountMet) {... */\n            tag_76:\n                /* \"Donation.sol\":762:1110  function donate() payable external {... */\n              jump\t// out\n                /* \"#utility.yul\":7:125   */\n            tag_83:\n                /* \"#utility.yul\":94:118   */\n              tag_85\n                /* \"#utility.yul\":112:117   */\n              dup2\n                /* \"#utility.yul\":94:118   */\n              tag_86\n              jump\t// in\n            tag_85:\n                /* \"#utility.yul\":89:92   */\n              dup3\n                /* \"#utility.yul\":82:119   */\n              mstore\n                /* \"#utility.yul\":7:125   */\n              pop\n              pop\n              jump\t// out\n                /* \"#utility.yul\":131:240   */\n            tag_87:\n                /* \"#utility.yul\":212:233   */\n              tag_89\n                /* \"#utility.yul\":227:232   */\n              dup2\n                /* \"#utility.yul\":212:233   */\n              tag_90\n              jump\t// in\n            tag_89:\n                /* \"#utility.yul\":207:210   */\n              dup3\n                /* \"#utility.yul\":200:234   */\n              mstore\n                /* \"#utility.yul\":131:240   */\n              pop\n              pop\n              jump\t// out\n                /* \"#utility.yul\":246:610   */\n            tag_91:\n                /* \"#utility.yul\":334:337   */\n              0x00\n                /* \"#utility.yul\":362:401   */\n              tag_93\n                /* \"#utility.yul\":395:400   */\n              dup3\n                /* \"#utility.yul\":362:401   */\n              tag_94\n              jump\t// in\n            tag_93:\n                /* \"#utility.yul\":417:488   */\n              tag_95\n                /* \"#utility.yul\":481:487   */\n              dup2\n                /* \"#utility.yul\":476:479   */\n              dup6\n                /* \"#utility.yul\":417:488   */\n              tag_96\n              jump\t// in\n            tag_95:\n                /* \"#utility.yul\":410:488   */\n              swap4\n              pop\n                /* \"#utility.yul\":497:549   */\n              tag_97\n                /* \"#utility.yul\":542:548   */\n              dup2\n                /* \"#utility.yul\":537:540   */\n              dup6\n                /* \"#utility.yul\":530:534   */\n              0x20\n                /* \"#utility.yul\":523:528   */\n              dup7\n                /* \"#utility.yul\":519:535   */\n              add\n                /* \"#utility.yul\":497:549   */\n              tag_98\n              jump\t// in\n            tag_97:\n                /* \"#utility.yul\":574:603   */\n              tag_99\n                /* \"#utility.yul\":596:602   */\n              dup2\n                /* \"#utility.yul\":574:603   */\n              tag_100\n              jump\t// in\n            tag_99:\n                /* \"#utility.yul\":569:572   */\n              dup5\n                /* \"#utility.yul\":565:604   */\n              add\n                /* \"#utility.yul\":558:604   */\n              swap2\n              pop\n                /* \"#utility.yul\":338:610   */\n              pop\n                /* \"#utility.yul\":246:610   */\n              swap3\n              swap2\n              pop\n              pop\n              jump\t// out\n                /* \"#utility.yul\":616:982   */\n            tag_101:\n                /* \"#utility.yul\":758:761   */\n              0x00\n                /* \"#utility.yul\":779:846   */\n              tag_103\n                /* \"#utility.yul\":843:845   */\n              0x25\n                /* \"#utility.yul\":838:841   */\n              dup4\n                /* \"#utility.yul\":779:846   */\n              tag_96\n              jump\t// in\n            tag_103:\n                /* \"#utility.yul\":772:846   */\n              swap2\n              pop\n                /* \"#utility.yul\":855:948   */\n              tag_104\n                /* \"#utility.yul\":944:947   */\n              dup3\n                /* \"#utility.yul\":855:948   */\n              tag_105\n              jump\t// in\n            tag_104:\n                /* \"#utility.yul\":973:975   */\n              0x40\n                /* \"#utility.yul\":968:971   */\n              dup3\n                /* \"#utility.yul\":964:976   */\n              add\n                /* \"#utility.yul\":957:976   */\n              swap1\n              pop\n                /* \"#utility.yul\":616:982   */\n              swap2\n              swap1\n              pop\n              jump\t// out\n                /* \"#utility.yul\":988:1354   */\n            tag_106:\n                /* \"#utility.yul\":1130:1133   */\n              0x00\n                /* \"#utility.yul\":1151:1218   */\n              tag_108\n                /* \"#utility.yul\":1215:1217   */\n              0x30\n                /* \"#utility.yul\":1210:1213   */\n              dup4\n                /* \"#utility.yul\":1151:1218   */\n              tag_96\n              jump\t// in\n            tag_108:\n                /* \"#utility.yul\":1144:1218   */\n              swap2\n              pop\n                /* \"#utility.yul\":1227:1320   */\n              tag_109\n                /* \"#utility.yul\":1316:1319   */\n              dup3\n                /* \"#utility.yul\":1227:1320   */\n              tag_110\n              jump\t// in\n            tag_109:\n                /* \"#utility.yul\":1345:1347   */\n              0x40\n                /* \"#utility.yul\":1340:1343   */\n              dup3\n                /* \"#utility.yul\":1336:1348   */\n              add\n                /* \"#utility.yul\":1329:1348   */\n              swap1\n              pop\n                /* \"#utility.yul\":988:1354   */\n              swap2\n              swap1\n              pop\n              jump\t// out\n                /* \"#utility.yul\":1360:1726   */\n            tag_111:\n                /* \"#utility.yul\":1502:1505   */\n              0x00\n                /* \"#utility.yul\":1523:1590   */\n              tag_113\n                /* \"#utility.yul\":1587:1589   */\n              0x2a\n                /* \"#utility.yul\":1582:1585   */\n              dup4\n                /* \"#utility.yul\":1523:1590   */\n              tag_96\n              jump\t// in\n            tag_113:\n                /* \"#utility.yul\":1516:1590   */\n              swap2\n              pop\n                /* \"#utility.yul\":1599:1692   */\n              tag_114\n                /* \"#utility.yul\":1688:1691   */\n              dup3\n                /* \"#utility.yul\":1599:1692   */\n              tag_115\n              jump\t// in\n            tag_114:\n                /* \"#utility.yul\":1717:1719   */\n              0x40\n                /* \"#utility.yul\":1712:1715   */\n              dup3\n                /* \"#utility.yul\":1708:1720   */\n              add\n                /* \"#utility.yul\":1701:1720   */\n              swap1\n              pop\n                /* \"#utility.yul\":1360:1726   */\n              swap2\n              swap1\n              pop\n              jump\t// out\n                /* \"#utility.yul\":1732:2130   */\n            tag_116:\n                /* \"#utility.yul\":1891:1894   */\n              0x00\n                /* \"#utility.yul\":1912:1995   */\n              tag_118\n                /* \"#utility.yul\":1993:1994   */\n              0x00\n                /* \"#utility.yul\":1988:1991   */\n              dup4\n                /* \"#utility.yul\":1912:1995   */\n              tag_119\n              jump\t// in\n            tag_118:\n                /* \"#utility.yul\":1905:1995   */\n              swap2\n              pop\n                /* \"#utility.yul\":2004:2097   */\n              tag_120\n                /* \"#utility.yul\":2093:2096   */\n              dup3\n                /* \"#utility.yul\":2004:2097   */\n              tag_121\n              jump\t// in\n            tag_120:\n                /* \"#utility.yul\":2122:2123   */\n              0x00\n                /* \"#utility.yul\":2117:2120   */\n              dup3\n                /* \"#utility.yul\":2113:2124   */\n              add\n                /* \"#utility.yul\":2106:2124   */\n              swap1\n              pop\n                /* \"#utility.yul\":1732:2130   */\n              swap2\n              swap1\n              pop\n              jump\t// out\n                /* \"#utility.yul\":2136:2254   */\n            tag_122:\n                /* \"#utility.yul\":2223:2247   */\n              tag_124\n                /* \"#utility.yul\":2241:2246   */\n              dup2\n                /* \"#utility.yul\":2223:2247   */\n              tag_125\n              jump\t// in\n            tag_124:\n                /* \"#utility.yul\":2218:2221   */\n              dup3\n                /* \"#utility.yul\":2211:2248   */\n              mstore\n                /* \"#utility.yul\":2136:2254   */\n              pop\n              pop\n              jump\t// out\n                /* \"#utility.yul\":2260:2639   */\n            tag_60:\n                /* \"#utility.yul\":2444:2447   */\n              0x00\n                /* \"#utility.yul\":2466:2613   */\n              tag_127\n                /* \"#utility.yul\":2609:2612   */\n              dup3\n                /* \"#utility.yul\":2466:2613   */\n              tag_116\n              jump\t// in\n            tag_127:\n                /* \"#utility.yul\":2459:2613   */\n              swap2\n              pop\n                /* \"#utility.yul\":2630:2633   */\n              dup2\n                /* \"#utility.yul\":2623:2633   */\n              swap1\n              pop\n                /* \"#utility.yul\":2260:2639   */\n              swap2\n              swap1\n              pop\n              jump\t// out\n                /* \"#utility.yul\":2645:2867   */\n            tag_34:\n                /* \"#utility.yul\":2738:2742   */\n              0x00\n                /* \"#utility.yul\":2776:2778   */\n              0x20\n                /* \"#utility.yul\":2765:2774   */\n              dup3\n                /* \"#utility.yul\":2761:2779   */\n              add\n                /* \"#utility.yul\":2753:2779   */\n              swap1\n              pop\n                /* \"#utility.yul\":2789:2860   */\n              tag_129\n                /* \"#utility.yul\":2857:2858   */\n              0x00\n                /* \"#utility.yul\":2846:2855   */\n              dup4\n                /* \"#utility.yul\":2842:2859   */\n              add\n                /* \"#utility.yul\":2833:2839   */\n              dup5\n                /* \"#utility.yul\":2789:2860   */\n              tag_83\n              jump\t// in\n            tag_129:\n                /* \"#utility.yul\":2645:2867   */\n              swap3\n              swap2\n              pop\n              pop\n              jump\t// out\n                /* \"#utility.yul\":2873:3083   */\n            tag_24:\n                /* \"#utility.yul\":2960:2964   */\n              0x00\n                /* \"#utility.yul\":2998:3000   */\n              0x20\n                /* \"#utility.yul\":2987:2996   */\n              dup3\n                /* \"#utility.yul\":2983:3001   */\n              add\n                /* \"#utility.yul\":2975:3001   */\n              swap1\n              pop\n                /* \"#utility.yul\":3011:3076   */\n              tag_131\n                /* \"#utility.yul\":3073:3074   */\n              0x00\n                /* \"#utility.yul\":3062:3071   */\n              dup4\n                /* \"#utility.yul\":3058:3075   */\n              add\n                /* \"#utility.yul\":3049:3055   */\n              dup5\n                /* \"#utility.yul\":3011:3076   */\n              tag_87\n              jump\t// in\n            tag_131:\n                /* \"#utility.yul\":2873:3083   */\n              swap3\n              swap2\n              pop\n              pop\n              jump\t// out\n                /* \"#utility.yul\":3089:3402   */\n            tag_16:\n                /* \"#utility.yul\":3202:3206   */\n              0x00\n                /* \"#utility.yul\":3240:3242   */\n              0x20\n                /* \"#utility.yul\":3229:3238   */\n              dup3\n                /* \"#utility.yul\":3225:3243   */\n              add\n                /* \"#utility.yul\":3217:3243   */\n              swap1\n              pop\n                /* \"#utility.yul\":3289:3298   */\n              dup2\n                /* \"#utility.yul\":3283:3287   */\n              dup2\n                /* \"#utility.yul\":3279:3299   */\n              sub\n                /* \"#utility.yul\":3275:3276   */\n              0x00\n                /* \"#utility.yul\":3264:3273   */\n              dup4\n                /* \"#utility.yul\":3260:3277   */\n              add\n                /* \"#utility.yul\":3253:3300   */\n              mstore\n                /* \"#utility.yul\":3317:3395   */\n              tag_133\n                /* \"#utility.yul\":3390:3394   */\n              dup2\n                /* \"#utility.yul\":3381:3387   */\n              dup5\n                /* \"#utility.yul\":3317:3395   */\n              tag_91\n              jump\t// in\n            tag_133:\n                /* \"#utility.yul\":3309:3395   */\n              swap1\n              pop\n                /* \"#utility.yul\":3089:3402   */\n              swap3\n              swap2\n              pop\n              pop\n              jump\t// out\n                /* \"#utility.yul\":3408:3827   */\n            tag_75:\n                /* \"#utility.yul\":3574:3578   */\n              0x00\n                /* \"#utility.yul\":3612:3614   */\n              0x20\n                /* \"#utility.yul\":3601:3610   */\n              dup3\n                /* \"#utility.yul\":3597:3615   */\n              add\n                /* \"#utility.yul\":3589:3615   */\n              swap1\n              pop\n                /* \"#utility.yul\":3661:3670   */\n              dup2\n                /* \"#utility.yul\":3655:3659   */\n              dup2\n                /* \"#utility.yul\":3651:3671   */\n              sub\n                /* \"#utility.yul\":3647:3648   */\n              0x00\n                /* \"#utility.yul\":3636:3645   */\n              dup4\n                /* \"#utility.yul\":3632:3649   */\n              add\n                /* \"#utility.yul\":3625:3672   */\n              mstore\n                /* \"#utility.yul\":3689:3820   */\n              tag_135\n                /* \"#utility.yul\":3815:3819   */\n              dup2\n                /* \"#utility.yul\":3689:3820   */\n              tag_101\n              jump\t// in\n            tag_135:\n                /* \"#utility.yul\":3681:3820   */\n              swap1\n              pop\n                /* \"#utility.yul\":3408:3827   */\n              swap2\n              swap1\n              pop\n              jump\t// out\n                /* \"#utility.yul\":3833:4252   */\n            tag_58:\n                /* \"#utility.yul\":3999:4003   */\n              0x00\n                /* \"#utility.yul\":4037:4039   */\n              0x20\n                /* \"#utility.yul\":4026:4035   */\n              dup3\n                /* \"#utility.yul\":4022:4040   */\n              add\n                /* \"#utility.yul\":4014:4040   */\n              swap1\n              pop\n                /* \"#utility.yul\":4086:4095   */\n              dup2\n                /* \"#utility.yul\":4080:4084   */\n              dup2\n                /* \"#utility.yul\":4076:4096   */\n              sub\n                /* \"#utility.yul\":4072:4073   */\n              0x00\n                /* \"#utility.yul\":4061:4070   */\n              dup4\n                /* \"#utility.yul\":4057:4074   */\n              add\n                /* \"#utility.yul\":4050:4097   */\n              mstore\n                /* \"#utility.yul\":4114:4245   */\n              tag_137\n                /* \"#utility.yul\":4240:4244   */\n              dup2\n                /* \"#utility.yul\":4114:4245   */\n              tag_106\n              jump\t// in\n            tag_137:\n                /* \"#utility.yul\":4106:4245   */\n              swap1\n              pop\n                /* \"#utility.yul\":3833:4252   */\n              swap2\n              swap1\n              pop\n              jump\t// out\n                /* \"#utility.yul\":4258:4677   */\n            tag_81:\n                /* \"#utility.yul\":4424:4428   */\n              0x00\n                /* \"#utility.yul\":4462:4464   */\n              0x20\n                /* \"#utility.yul\":4451:4460   */\n              dup3\n                /* \"#utility.yul\":4447:4465   */\n              add\n                /* \"#utility.yul\":4439:4465   */\n              swap1\n              pop\n                /* \"#utility.yul\":4511:4520   */\n              dup2\n                /* \"#utility.yul\":4505:4509   */\n              dup2\n                /* \"#utility.yul\":4501:4521   */\n              sub\n                /* \"#utility.yul\":4497:4498   */\n              0x00\n                /* \"#utility.yul\":4486:4495   */\n              dup4\n                /* \"#utility.yul\":4482:4499   */\n              add\n                /* \"#utility.yul\":4475:4522   */\n              mstore\n                /* \"#utility.yul\":4539:4670   */\n              tag_139\n                /* \"#utility.yul\":4665:4669   */\n              dup2\n                /* \"#utility.yul\":4539:4670   */\n              tag_111\n              jump\t// in\n            tag_139:\n                /* \"#utility.yul\":4531:4670   */\n              swap1\n              pop\n                /* \"#utility.yul\":4258:4677   */\n              swap2\n              swap1\n              pop\n              jump\t// out\n                /* \"#utility.yul\":4683:4905   */\n            tag_29:\n                /* \"#utility.yul\":4776:4780   */\n              0x00\n                /* \"#utility.yul\":4814:4816   */\n              0x20\n                /* \"#utility.yul\":4803:4812   */\n              dup3\n                /* \"#utility.yul\":4799:4817   */\n              add\n                /* \"#utility.yul\":4791:4817   */\n              swap1\n              pop\n                /* \"#utility.yul\":4827:4898   */\n              tag_141\n                /* \"#utility.yul\":4895:4896   */\n              0x00\n                /* \"#utility.yul\":4884:4893   */\n              dup4\n                /* \"#utility.yul\":4880:4897   */\n              add\n                /* \"#utility.yul\":4871:4877   */\n              dup5\n                /* \"#utility.yul\":4827:4898   */\n              tag_122\n              jump\t// in\n            tag_141:\n                /* \"#utility.yul\":4683:4905   */\n              swap3\n              swap2\n              pop\n              pop\n              jump\t// out\n                /* \"#utility.yul\":4911:5010   */\n            tag_94:\n                /* \"#utility.yul\":4963:4969   */\n              0x00\n                /* \"#utility.yul\":4997:5002   */\n              dup2\n                /* \"#utility.yul\":4991:5003   */\n              mload\n                /* \"#utility.yul\":4981:5003   */\n              swap1\n              pop\n                /* \"#utility.yul\":4911:5010   */\n              swap2\n              swap1\n              pop\n              jump\t// out\n                /* \"#utility.yul\":5016:5163   */\n            tag_119:\n                /* \"#utility.yul\":5117:5128   */\n              0x00\n                /* \"#utility.yul\":5154:5157   */\n              dup2\n                /* \"#utility.yul\":5139:5157   */\n              swap1\n              pop\n                /* \"#utility.yul\":5016:5163   */\n              swap3\n              swap2\n              pop\n              pop\n              jump\t// out\n                /* \"#utility.yul\":5169:5338   */\n            tag_96:\n                /* \"#utility.yul\":5253:5264   */\n              0x00\n                /* \"#utility.yul\":5287:5293   */\n              dup3\n                /* \"#utility.yul\":5282:5285   */\n              dup3\n                /* \"#utility.yul\":5275:5294   */\n              mstore\n                /* \"#utility.yul\":5327:5331   */\n              0x20\n                /* \"#utility.yul\":5322:5325   */\n              dup3\n                /* \"#utility.yul\":5318:5332   */\n              add\n                /* \"#utility.yul\":5303:5332   */\n              swap1\n              pop\n                /* \"#utility.yul\":5169:5338   */\n              swap3\n              swap2\n              pop\n              pop\n              jump\t// out\n                /* \"#utility.yul\":5344:5649   */\n            tag_78:\n                /* \"#utility.yul\":5384:5387   */\n              0x00\n                /* \"#utility.yul\":5403:5423   */\n              tag_146\n                /* \"#utility.yul\":5421:5422   */\n              dup3\n                /* \"#utility.yul\":5403:5423   */\n              tag_125\n              jump\t// in\n            tag_146:\n                /* \"#utility.yul\":5398:5423   */\n              swap2\n              pop\n                /* \"#utility.yul\":5437:5457   */\n              tag_147\n                /* \"#utility.yul\":5455:5456   */\n              dup4\n                /* \"#utility.yul\":5437:5457   */\n              tag_125\n              jump\t// in\n            tag_147:\n                /* \"#utility.yul\":5432:5457   */\n              swap3\n              pop\n                /* \"#utility.yul\":5591:5592   */\n              dup3\n                /* \"#utility.yul\":5523:5589   */\n              0xffffffffffffffffffffffffffffffffffffffffffffffffffffffffffffffff\n                /* \"#utility.yul\":5519:5593   */\n              sub\n                /* \"#utility.yul\":5516:5517   */\n              dup3\n                /* \"#utility.yul\":5513:5594   */\n              gt\n                /* \"#utility.yul\":5510:5617   */\n              iszero\n              tag_148\n              jumpi\n                /* \"#utility.yul\":5597:5615   */\n              tag_149\n              tag_150\n              jump\t// in\n            tag_149:\n                /* \"#utility.yul\":5510:5617   */\n            tag_148:\n                /* \"#utility.yul\":5641:5642   */\n              dup3\n                /* \"#utility.yul\":5638:5639   */\n              dup3\n                /* \"#utility.yul\":5634:5643   */\n              add\n                /* \"#utility.yul\":5627:5643   */\n              swap1\n              pop\n                /* \"#utility.yul\":5344:5649   */\n              swap3\n              swap2\n              pop\n              pop\n              jump\t// out\n                /* \"#utility.yul\":5655:5751   */\n            tag_86:\n                /* \"#utility.yul\":5692:5699   */\n              0x00\n                /* \"#utility.yul\":5721:5745   */\n              tag_152\n                /* \"#utility.yul\":5739:5744   */\n              dup3\n                /* \"#utility.yul\":5721:5745   */\n              tag_153\n              jump\t// in\n            tag_152:\n                /* \"#utility.yul\":5710:5745   */\n              swap1\n              pop\n                /* \"#utility.yul\":5655:5751   */\n              swap2\n              swap1\n              pop\n              jump\t// out\n                /* \"#utility.yul\":5757:5847   */\n            tag_90:\n                /* \"#utility.yul\":5791:5798   */\n              0x00\n                /* \"#utility.yul\":5834:5839   */\n              dup2\n                /* \"#utility.yul\":5827:5840   */\n              iszero\n                /* \"#utility.yul\":5820:5841   */\n              iszero\n                /* \"#utility.yul\":5809:5841   */\n              swap1\n              pop\n                /* \"#utility.yul\":5757:5847   */\n              swap2\n              swap1\n              pop\n              jump\t// out\n                /* \"#utility.yul\":5853:5979   */\n            tag_153:\n                /* \"#utility.yul\":5890:5897   */\n              0x00\n                /* \"#utility.yul\":5930:5972   */\n              0xffffffffffffffffffffffffffffffffffffffff\n                /* \"#utility.yul\":5923:5928   */\n              dup3\n                /* \"#utility.yul\":5919:5973   */\n              and\n                /* \"#utility.yul\":5908:5973   */\n              swap1\n              pop\n                /* \"#utility.yul\":5853:5979   */\n              swap2\n              swap1\n              pop\n              jump\t// out\n                /* \"#utility.yul\":5985:6062   */\n            tag_125:\n                /* \"#utility.yul\":6022:6029   */\n              0x00\n                /* \"#utility.yul\":6051:6056   */\n              dup2\n                /* \"#utility.yul\":6040:6056   */\n              swap1\n              pop\n                /* \"#utility.yul\":5985:6062   */\n              swap2\n              swap1\n              pop\n              jump\t// out\n                /* \"#utility.yul\":6068:6375   */\n            tag_98:\n                /* \"#utility.yul\":6136:6137   */\n              0x00\n                /* \"#utility.yul\":6146:6259   */\n            tag_158:\n                /* \"#utility.yul\":6160:6166   */\n              dup4\n                /* \"#utility.yul\":6157:6158   */\n              dup2\n                /* \"#utility.yul\":6154:6167   */\n              lt\n                /* \"#utility.yul\":6146:6259   */\n              iszero\n              tag_160\n              jumpi\n                /* \"#utility.yul\":6245:6246   */\n              dup1\n                /* \"#utility.yul\":6240:6243   */\n              dup3\n                /* \"#utility.yul\":6236:6247   */\n              add\n                /* \"#utility.yul\":6230:6248   */\n              mload\n                /* \"#utility.yul\":6226:6227   */\n              dup2\n                /* \"#utility.yul\":6221:6224   */\n              dup5\n                /* \"#utility.yul\":6217:6228   */\n              add\n                /* \"#utility.yul\":6210:6249   */\n              mstore\n                /* \"#utility.yul\":6182:6184   */\n              0x20\n                /* \"#utility.yul\":6179:6180   */\n              dup2\n                /* \"#utility.yul\":6175:6185   */\n              add\n                /* \"#utility.yul\":6170:6185   */\n              swap1\n              pop\n                /* \"#utility.yul\":6146:6259   */\n              jump(tag_158)\n            tag_160:\n                /* \"#utility.yul\":6277:6283   */\n              dup4\n                /* \"#utility.yul\":6274:6275   */\n              dup2\n                /* \"#utility.yul\":6271:6284   */\n              gt\n                /* \"#utility.yul\":6268:6369   */\n              iszero\n              tag_161\n              jumpi\n                /* \"#utility.yul\":6357:6358   */\n              0x00\n                /* \"#utility.yul\":6348:6354   */\n              dup5\n                /* \"#utility.yul\":6343:6346   */\n              dup5\n                /* \"#utility.yul\":6339:6355   */\n              add\n                /* \"#utility.yul\":6332:6359   */\n              mstore\n                /* \"#utility.yul\":6268:6369   */\n            tag_161:\n                /* \"#utility.yul\":6117:6375   */\n              pop\n                /* \"#utility.yul\":6068:6375   */\n              pop\n              pop\n              pop\n              jump\t// out\n                /* \"#utility.yul\":6381:6701   */\n            tag_50:\n                /* \"#utility.yul\":6425:6431   */\n              0x00\n                /* \"#utility.yul\":6462:6463   */\n              0x02\n                /* \"#utility.yul\":6456:6460   */\n              dup3\n                /* \"#utility.yul\":6452:6464   */\n              div\n                /* \"#utility.yul\":6442:6464   */\n              swap1\n              pop\n                /* \"#utility.yul\":6509:6510   */\n              0x01\n                /* \"#utility.yul\":6503:6507   */\n              dup3\n                /* \"#utility.yul\":6499:6511   */\n              and\n                /* \"#utility.yul\":6530:6548   */\n              dup1\n                /* \"#utility.yul\":6520:6601   */\n              tag_163\n              jumpi\n                /* \"#utility.yul\":6586:6590   */\n              0x7f\n                /* \"#utility.yul\":6578:6584   */\n              dup3\n                /* \"#utility.yul\":6574:6591   */\n              and\n                /* \"#utility.yul\":6564:6591   */\n              swap2\n              pop\n                /* \"#utility.yul\":6520:6601   */\n            tag_163:\n                /* \"#utility.yul\":6648:6650   */\n              0x20\n                /* \"#utility.yul\":6640:6646   */\n              dup3\n                /* \"#utility.yul\":6637:6651   */\n              lt\n                /* \"#utility.yul\":6617:6635   */\n              dup2\n                /* \"#utility.yul\":6614:6652   */\n              eq\n                /* \"#utility.yul\":6611:6695   */\n              iszero\n              tag_164\n              jumpi\n                /* \"#utility.yul\":6667:6685   */\n              tag_165\n              tag_166\n              jump\t// in\n            tag_165:\n                /* \"#utility.yul\":6611:6695   */\n            tag_164:\n                /* \"#utility.yul\":6432:6701   */\n              pop\n                /* \"#utility.yul\":6381:6701   */\n              swap2\n              swap1\n              pop\n              jump\t// out\n                /* \"#utility.yul\":6707:6887   */\n            tag_150:\n                /* \"#utility.yul\":6755:6832   */\n              0x4e487b7100000000000000000000000000000000000000000000000000000000\n                /* \"#utility.yul\":6752:6753   */\n              0x00\n                /* \"#utility.yul\":6745:6833   */\n              mstore\n                /* \"#utility.yul\":6852:6856   */\n              0x11\n                /* \"#utility.yul\":6849:6850   */\n              0x04\n                /* \"#utility.yul\":6842:6857   */\n              mstore\n                /* \"#utility.yul\":6876:6880   */\n              0x24\n                /* \"#utility.yul\":6873:6874   */\n              0x00\n                /* \"#utility.yul\":6866:6881   */\n              revert\n                /* \"#utility.yul\":6893:7073   */\n            tag_166:\n                /* \"#utility.yul\":6941:7018   */\n              0x4e487b7100000000000000000000000000000000000000000000000000000000\n                /* \"#utility.yul\":6938:6939   */\n              0x00\n                /* \"#utility.yul\":6931:7019   */\n              mstore\n                /* \"#utility.yul\":7038:7042   */\n              0x22\n                /* \"#utility.yul\":7035:7036   */\n              0x04\n                /* \"#utility.yul\":7028:7043   */\n              mstore\n                /* \"#utility.yul\":7062:7066   */\n              0x24\n                /* \"#utility.yul\":7059:7060   */\n              0x00\n                /* \"#utility.yul\":7052:7067   */\n              revert\n                /* \"#utility.yul\":7079:7181   */\n            tag_100:\n                /* \"#utility.yul\":7120:7126   */\n              0x00\n                /* \"#utility.yul\":7171:7173   */\n              0x1f\n                /* \"#utility.yul\":7167:7174   */\n              not\n                /* \"#utility.yul\":7162:7164   */\n              0x1f\n                /* \"#utility.yul\":7155:7160   */\n              dup4\n                /* \"#utility.yul\":7151:7165   */\n              add\n                /* \"#utility.yul\":7147:7175   */\n              and\n                /* \"#utility.yul\":7137:7175   */\n              swap1\n              pop\n                /* \"#utility.yul\":7079:7181   */\n              swap2\n              swap1\n              pop\n              jump\t// out\n                /* \"#utility.yul\":7187:7411   */\n            tag_105:\n                /* \"#utility.yul\":7327:7361   */\n              0x596f752063616e6e6f7420646f6e6174652062656c6f7720247b5f6d696e416d\n                /* \"#utility.yul\":7323:7324   */\n              0x00\n                /* \"#utility.yul\":7315:7321   */\n              dup3\n                /* \"#utility.yul\":7311:7325   */\n              add\n                /* \"#utility.yul\":7304:7362   */\n              mstore\n                /* \"#utility.yul\":7396:7403   */\n              0x6f756e747d000000000000000000000000000000000000000000000000000000\n                /* \"#utility.yul\":7391:7393   */\n              0x20\n                /* \"#utility.yul\":7383:7389   */\n              dup3\n                /* \"#utility.yul\":7379:7394   */\n              add\n                /* \"#utility.yul\":7372:7404   */\n              mstore\n                /* \"#utility.yul\":7187:7411   */\n              pop\n              jump\t// out\n                /* \"#utility.yul\":7417:7652   */\n            tag_110:\n                /* \"#utility.yul\":7557:7591   */\n              0x4f6e6c79206f776e6572206f66207468697320646f6e6174696f6e2063616e20\n                /* \"#utility.yul\":7553:7554   */\n              0x00\n                /* \"#utility.yul\":7545:7551   */\n              dup3\n                /* \"#utility.yul\":7541:7555   */\n              add\n                /* \"#utility.yul\":7534:7592   */\n              mstore\n                /* \"#utility.yul\":7626:7644   */\n              0x77697468647261772066726f6d20697400000000000000000000000000000000\n                /* \"#utility.yul\":7621:7623   */\n              0x20\n                /* \"#utility.yul\":7613:7619   */\n              dup3\n                /* \"#utility.yul\":7609:7624   */\n              add\n                /* \"#utility.yul\":7602:7645   */\n              mstore\n                /* \"#utility.yul\":7417:7652   */\n              pop\n              jump\t// out\n                /* \"#utility.yul\":7658:7887   */\n            tag_115:\n                /* \"#utility.yul\":7798:7832   */\n              0x596f757220646f6e6174696f6e2077696c6c2063726f73732074686520616d6f\n                /* \"#utility.yul\":7794:7795   */\n              0x00\n                /* \"#utility.yul\":7786:7792   */\n              dup3\n                /* \"#utility.yul\":7782:7796   */\n              add\n                /* \"#utility.yul\":7775:7833   */\n              mstore\n                /* \"#utility.yul\":7867:7879   */\n              0x756e74206e656564656400000000000000000000000000000000000000000000\n                /* \"#utility.yul\":7862:7864   */\n              0x20\n                /* \"#utility.yul\":7854:7860   */\n              dup3\n                /* \"#utility.yul\":7850:7865   */\n              add\n                /* \"#utility.yul\":7843:7880   */\n              mstore\n                /* \"#utility.yul\":7658:7887   */\n              pop\n              jump\t// out\n                /* \"#utility.yul\":7893:8007   */\n            tag_121:\n              pop\n              jump\t// out\n\n            auxdata: 0xa26469706673582212203f0bf659a1794662cec930203011942e4b80f261848fef6be0a031e9087926c964736f6c63430008070033\n        }\n    }\n\n    auxdata: 0xa264697066735822122002dfcd3d993ef834f4f5b613e425c707691e6684a7be1246407734fe59f1608a64736f6c63430008070033\n}\n",
				"bytecode": {
					"linkReferences": {},
					"object": "608060405234801561001057600080fd5b50611b5c806100206000396000f3fe6080604052600436106200007a5760003560e01c8063a3e8f2601162000055578063a3e8f2601462000127578063a6b03633146200016b578063e5482153146200019b578063f4139c5814620001c9576200007a565b806317cfc652146200007f578063767d78b214620000c35780637c6abc821462000107575b600080fd5b3480156200008c57600080fd5b50620000ab6004803603810190620000a591906200080f565b6200020d565b604051620000ba9190620009db565b60405180910390f35b348015620000d057600080fd5b50620000ef6004803603810190620000e991906200075a565b620002c0565b604051620000fe919062000a94565b60405180910390f35b6200012560048036038101906200011f91906200075a565b62000350565b005b3480156200013457600080fd5b506200015360048036038101906200014d91906200075a565b620003bc565b604051620001629190620009db565b60405180910390f35b3480156200017857600080fd5b50620001836200044c565b604051620001929190620009f8565b60405180910390f35b348015620001a857600080fd5b50620001c76004803603810190620001c191906200075a565b620004dc565b005b348015620001d657600080fd5b50620001f56004803603810190620001ef91906200075a565b62000547565b60405162000204919062000a1c565b60405180910390f35b600080858385876040516200022290620005dd565b62000231949392919062000a40565b604051809103906000f0801580156200024e573d6000803e3d6000fd5b5090506000819080600181540180825580915050600190039060005260206000200160009091909190916101000a81548173ffffffffffffffffffffffffffffffffffffffff021916908373ffffffffffffffffffffffffffffffffffffffff16021790555080915050949350505050565b6000808290508073ffffffffffffffffffffffffffffffffffffffff1663ed11f46a6040518163ffffffff1660e01b815260040160206040518083038186803b1580156200030d57600080fd5b505afa15801562000322573d6000803e3d6000fd5b505050506040513d601f19601f82011682018060405250810190620003489190620008a0565b915050919050565b60008190508073ffffffffffffffffffffffffffffffffffffffff1663ed88c68e346040518263ffffffff1660e01b81526004016000604051808303818588803b1580156200039e57600080fd5b505af1158015620003b3573d6000803e3d6000fd5b50505050505050565b6000808290508073ffffffffffffffffffffffffffffffffffffffff1663893d20e86040518163ffffffff1660e01b815260040160206040518083038186803b1580156200040957600080fd5b505afa1580156200041e573d6000803e3d6000fd5b505050506040513d601f19601f820116820180604052508101906200044491906200078c565b915050919050565b60606000805480602002602001604051908101604052809291908181526020018280548015620004d257602002820191906000526020600020905b8160009054906101000a900473ffffffffffffffffffffffffffffffffffffffff1673ffffffffffffffffffffffffffffffffffffffff168152602001906001019080831162000487575b5050505050905090565b60008190508073ffffffffffffffffffffffffffffffffffffffff16633ccfd60b6040518163ffffffff1660e01b8152600401600060405180830381600087803b1580156200052a57600080fd5b505af11580156200053f573d6000803e3d6000fd5b505050505050565b606060008290508073ffffffffffffffffffffffffffffffffffffffff1663eae3f7646040518163ffffffff1660e01b815260040160006040518083038186803b1580156200059557600080fd5b505afa158015620005aa573d6000803e3d6000fd5b505050506040513d6000823e3d601f19601f82011682018060405250810190620005d59190620007be565b915050919050565b610e1e8062000d0983390190565b600062000602620005fc8462000ada565b62000ab1565b90508281526020810184848401111562000621576200062062000c9a565b5b6200062e84828562000beb565b509392505050565b60006200064d620006478462000ada565b62000ab1565b9050828152602081018484840111156200066c576200066b62000c9a565b5b6200067984828562000bfa565b509392505050565b600081359050620006928162000cba565b92915050565b600081519050620006a98162000cba565b92915050565b600081359050620006c08162000cd4565b92915050565b600082601f830112620006de57620006dd62000c95565b5b8135620006f0848260208601620005eb565b91505092915050565b600082601f83011262000711576200071062000c95565b5b81516200072384826020860162000636565b91505092915050565b6000813590506200073d8162000cee565b92915050565b600081519050620007548162000cee565b92915050565b60006020828403121562000773576200077262000ca4565b5b6000620007838482850162000681565b91505092915050565b600060208284031215620007a557620007a462000ca4565b5b6000620007b58482850162000698565b91505092915050565b600060208284031215620007d757620007d662000ca4565b5b600082015167ffffffffffffffff811115620007f857620007f762000c9f565b5b6200080684828501620006f9565b91505092915050565b600080600080608085870312156200082c576200082b62000ca4565b5b600085013567ffffffffffffffff8111156200084d576200084c62000c9f565b5b6200085b87828801620006c6565b94505060206200086e878288016200072c565b93505060406200088187828801620006af565b925050606062000894878288016200072c565b91505092959194509250565b600060208284031215620008b957620008b862000ca4565b5b6000620008c98482850162000743565b91505092915050565b6000620008e0838362000978565b60208301905092915050565b620008f78162000b65565b82525050565b60006200090a8262000b20565b62000916818562000b43565b9350620009238362000b10565b8060005b838110156200095a5781516200093e8882620008d2565b97506200094b8362000b36565b92505060018101905062000927565b5085935050505092915050565b620009728162000b79565b82525050565b620009838162000baf565b82525050565b6000620009968262000b2b565b620009a2818562000b54565b9350620009b481856020860162000bfa565b620009bf8162000ca9565b840191505092915050565b620009d58162000ba5565b82525050565b6000602082019050620009f26000830184620008ec565b92915050565b6000602082019050818103600083015262000a148184620008fd565b905092915050565b6000602082019050818103600083015262000a38818462000989565b905092915050565b6000608082019050818103600083015262000a5c818762000989565b905062000a6d6020830186620009ca565b62000a7c604083018562000967565b62000a8b6060830184620009ca565b95945050505050565b600060208201905062000aab6000830184620009ca565b92915050565b600062000abd62000ad0565b905062000acb828262000c30565b919050565b6000604051905090565b600067ffffffffffffffff82111562000af85762000af762000c66565b5b62000b038262000ca9565b9050602081019050919050565b6000819050602082019050919050565b600081519050919050565b600081519050919050565b6000602082019050919050565b600082825260208201905092915050565b600082825260208201905092915050565b600062000b728262000b85565b9050919050565b60008115159050919050565b600073ffffffffffffffffffffffffffffffffffffffff82169050919050565b6000819050919050565b600062000bbc8262000bc3565b9050919050565b600062000bd08262000bd7565b9050919050565b600062000be48262000b85565b9050919050565b82818337600083830152505050565b60005b8381101562000c1a57808201518184015260208101905062000bfd565b8381111562000c2a576000848401525b50505050565b62000c3b8262000ca9565b810181811067ffffffffffffffff8211171562000c5d5762000c5c62000c66565b5b80604052505050565b7f4e487b7100000000000000000000000000000000000000000000000000000000600052604160045260246000fd5b600080fd5b600080fd5b600080fd5b600080fd5b6000601f19601f8301169050919050565b62000cc58162000b65565b811462000cd157600080fd5b50565b62000cdf8162000b79565b811462000ceb57600080fd5b50565b62000cf98162000ba5565b811462000d0557600080fd5b5056fe60806040523480156200001157600080fd5b5060405162000e1e38038062000e1e83398181016040528101906200003791906200021f565b83600090805190602001906200004f929190620000c3565b508260018190555081600360006101000a81548160ff0219169083151502179055508060028190555033600360016101000a81548173ffffffffffffffffffffffffffffffffffffffff021916908373ffffffffffffffffffffffffffffffffffffffff160217905550505050506200047e565b828054620000d1906200035b565b90600052602060002090601f016020900481019282620000f5576000855562000141565b82601f106200011057805160ff191683800117855562000141565b8280016001018555821562000141579182015b828111156200014057825182559160200191906001019062000123565b5b50905062000150919062000154565b5090565b5b808211156200016f57600081600090555060010162000155565b5090565b60006200018a6200018484620002d9565b620002b0565b905082815260208101848484011115620001a957620001a86200042a565b5b620001b684828562000325565b509392505050565b600081519050620001cf816200044a565b92915050565b600082601f830112620001ed57620001ec62000425565b5b8151620001ff84826020860162000173565b91505092915050565b600081519050620002198162000464565b92915050565b600080600080608085870312156200023c576200023b62000434565b5b600085015167ffffffffffffffff8111156200025d576200025c6200042f565b5b6200026b87828801620001d5565b94505060206200027e8782880162000208565b93505060406200029187828801620001be565b9250506060620002a48782880162000208565b91505092959194509250565b6000620002bc620002cf565b9050620002ca828262000391565b919050565b6000604051905090565b600067ffffffffffffffff821115620002f757620002f6620003f6565b5b620003028262000439565b9050602081019050919050565b60008115159050919050565b6000819050919050565b60005b838110156200034557808201518184015260208101905062000328565b8381111562000355576000848401525b50505050565b600060028204905060018216806200037457607f821691505b602082108114156200038b576200038a620003c7565b5b50919050565b6200039c8262000439565b810181811067ffffffffffffffff82111715620003be57620003bd620003f6565b5b80604052505050565b7f4e487b7100000000000000000000000000000000000000000000000000000000600052602260045260246000fd5b7f4e487b7100000000000000000000000000000000000000000000000000000000600052604160045260246000fd5b600080fd5b600080fd5b600080fd5b600080fd5b6000601f19601f8301169050919050565b62000455816200030f565b81146200046157600080fd5b50565b6200046f816200031b565b81146200047b57600080fd5b50565b610990806200048e6000396000f3fe6080604052600436106100865760003560e01c8063893d20e811610059578063893d20e814610123578063b383bf2d1461014e578063eae3f76414610179578063ed11f46a146101a4578063ed88c68e146101cf57610086565b8063354ecc851461008b5780633ccfd60b146100b6578063798be230146100cd57806380fdef1b146100f8575b600080fd5b34801561009757600080fd5b506100a06101d9565b6040516100ad9190610634565b60405180910390f35b3480156100c257600080fd5b506100cb610267565b005b3480156100d957600080fd5b506100e2610362565b6040516100ef9190610619565b60405180910390f35b34801561010457600080fd5b5061010d610375565b60405161011a91906106b6565b60405180910390f35b34801561012f57600080fd5b5061013861037b565b60405161014591906105fe565b60405180910390f35b34801561015a57600080fd5b506101636103a5565b60405161017091906106b6565b60405180910390f35b34801561018557600080fd5b5061018e6103ab565b60405161019b9190610634565b60405180910390f35b3480156101b057600080fd5b506101b961043d565b6040516101c691906106b6565b60405180910390f35b6101d7610445565b005b600080546101e6906107c9565b80601f0160208091040260200160405190810160405280929190818152602001828054610212906107c9565b801561025f5780601f106102345761010080835404028352916020019161025f565b820191906000526020600020905b81548152906001019060200180831161024257829003601f168201915b505050505081565b3373ffffffffffffffffffffffffffffffffffffffff16600360019054906101000a900473ffffffffffffffffffffffffffffffffffffffff1673ffffffffffffffffffffffffffffffffffffffff16146102f7576040517f08c379a00000000000000000000000000000000000000000000000000000000081526004016102ee90610676565b60405180910390fd5b3373ffffffffffffffffffffffffffffffffffffffff164760405161031b906105e9565b60006040518083038185875af1925050503d8060008114610358576040519150601f19603f3d011682016040523d82523d6000602084013e61035d565b606091505b505050565b600360009054906101000a900460ff1681565b60025481565b6000600360019054906101000a900473ffffffffffffffffffffffffffffffffffffffff16905090565b60015481565b6060600080546103ba906107c9565b80601f01602080910402602001604051908101604052809291908181526020018280546103e6906107c9565b80156104335780601f1061040857610100808354040283529160200191610433565b820191906000526020600020905b81548152906001019060200180831161041657829003601f168201915b5050505050905090565b600047905090565b60015434101561048a576040517f08c379a000000000000000000000000000000000000000000000000000000000815260040161048190610656565b60405180910390fd5b600360009054906101000a900460ff166104f557600047905060025434826104b291906106f8565b11156104f3576040517f08c379a00000000000000000000000000000000000000000000000000000000081526004016104ea90610696565b60405180910390fd5b505b565b6105008161074e565b82525050565b61050f81610760565b82525050565b6000610520826106d1565b61052a81856106e7565b935061053a818560208601610796565b61054381610859565b840191505092915050565b600061055b6025836106e7565b91506105668261086a565b604082019050919050565b600061057e6030836106e7565b9150610589826108b9565b604082019050919050565b60006105a1602a836106e7565b91506105ac82610908565b604082019050919050565b60006105c46000836106dc565b91506105cf82610957565b600082019050919050565b6105e38161078c565b82525050565b60006105f4826105b7565b9150819050919050565b600060208201905061061360008301846104f7565b92915050565b600060208201905061062e6000830184610506565b92915050565b6000602082019050818103600083015261064e8184610515565b905092915050565b6000602082019050818103600083015261066f8161054e565b9050919050565b6000602082019050818103600083015261068f81610571565b9050919050565b600060208201905081810360008301526106af81610594565b9050919050565b60006020820190506106cb60008301846105da565b92915050565b600081519050919050565b600081905092915050565b600082825260208201905092915050565b60006107038261078c565b915061070e8361078c565b9250827fffffffffffffffffffffffffffffffffffffffffffffffffffffffffffffffff03821115610743576107426107fb565b5b828201905092915050565b60006107598261076c565b9050919050565b60008115159050919050565b600073ffffffffffffffffffffffffffffffffffffffff82169050919050565b6000819050919050565b60005b838110156107b4578082015181840152602081019050610799565b838111156107c3576000848401525b50505050565b600060028204905060018216806107e157607f821691505b602082108114156107f5576107f461082a565b5b50919050565b7f4e487b7100000000000000000000000000000000000000000000000000000000600052601160045260246000fd5b7f4e487b7100000000000000000000000000000000000000000000000000000000600052602260045260246000fd5b6000601f19601f8301169050919050565b7f596f752063616e6e6f7420646f6e6174652062656c6f7720247b5f6d696e416d60008201527f6f756e747d000000000000000000000000000000000000000000000000000000602082015250565b7f4f6e6c79206f776e6572206f66207468697320646f6e6174696f6e2063616e2060008201527f77697468647261772066726f6d20697400000000000000000000000000000000602082015250565b7f596f757220646f6e6174696f6e2077696c6c2063726f73732074686520616d6f60008201527f756e74206e656564656400000000000000000000000000000000000000000000602082015250565b5056fea26469706673582212203f0bf659a1794662cec930203011942e4b80f261848fef6be0a031e9087926c964736f6c63430008070033a264697066735822122002dfcd3d993ef834f4f5b613e425c707691e6684a7be1246407734fe59f1608a64736f6c63430008070033",
					"opcodes": "PUSH1 0x80 PUSH1 0x40 MSTORE CALLVALUE DUP1 ISZERO PUSH2 0x10 JUMPI PUSH1 0x0 DUP1 REVERT JUMPDEST POP PUSH2 0x1B5C DUP1 PUSH2 0x20 PUSH1 0x0 CODECOPY PUSH1 0x0 RETURN INVALID PUSH1 0x80 PUSH1 0x40 MSTORE PUSH1 0x4 CALLDATASIZE LT PUSH3 0x7A JUMPI PUSH1 0x0 CALLDATALOAD PUSH1 0xE0 SHR DUP1 PUSH4 0xA3E8F260 GT PUSH3 0x55 JUMPI DUP1 PUSH4 0xA3E8F260 EQ PUSH3 0x127 JUMPI DUP1 PUSH4 0xA6B03633 EQ PUSH3 0x16B JUMPI DUP1 PUSH4 0xE5482153 EQ PUSH3 0x19B JUMPI DUP1 PUSH4 0xF4139C58 EQ PUSH3 0x1C9 JUMPI PUSH3 0x7A JUMP JUMPDEST DUP1 PUSH4 0x17CFC652 EQ PUSH3 0x7F JUMPI DUP1 PUSH4 0x767D78B2 EQ PUSH3 0xC3 JUMPI DUP1 PUSH4 0x7C6ABC82 EQ PUSH3 0x107 JUMPI JUMPDEST PUSH1 0x0 DUP1 REVERT JUMPDEST CALLVALUE DUP1 ISZERO PUSH3 0x8C JUMPI PUSH1 0x0 DUP1 REVERT JUMPDEST POP PUSH3 0xAB PUSH1 0x4 DUP1 CALLDATASIZE SUB DUP2 ADD SWAP1 PUSH3 0xA5 SWAP2 SWAP1 PUSH3 0x80F JUMP JUMPDEST PUSH3 0x20D JUMP JUMPDEST PUSH1 0x40 MLOAD PUSH3 0xBA SWAP2 SWAP1 PUSH3 0x9DB JUMP JUMPDEST PUSH1 0x40 MLOAD DUP1 SWAP2 SUB SWAP1 RETURN JUMPDEST CALLVALUE DUP1 ISZERO PUSH3 0xD0 JUMPI PUSH1 0x0 DUP1 REVERT JUMPDEST POP PUSH3 0xEF PUSH1 0x4 DUP1 CALLDATASIZE SUB DUP2 ADD SWAP1 PUSH3 0xE9 SWAP2 SWAP1 PUSH3 0x75A JUMP JUMPDEST PUSH3 0x2C0 JUMP JUMPDEST PUSH1 0x40 MLOAD PUSH3 0xFE SWAP2 SWAP1 PUSH3 0xA94 JUMP JUMPDEST PUSH1 0x40 MLOAD DUP1 SWAP2 SUB SWAP1 RETURN JUMPDEST PUSH3 0x125 PUSH1 0x4 DUP1 CALLDATASIZE SUB DUP2 ADD SWAP1 PUSH3 0x11F SWAP2 SWAP1 PUSH3 0x75A JUMP JUMPDEST PUSH3 0x350 JUMP JUMPDEST STOP JUMPDEST CALLVALUE DUP1 ISZERO PUSH3 0x134 JUMPI PUSH1 0x0 DUP1 REVERT JUMPDEST POP PUSH3 0x153 PUSH1 0x4 DUP1 CALLDATASIZE SUB DUP2 ADD SWAP1 PUSH3 0x14D SWAP2 SWAP1 PUSH3 0x75A JUMP JUMPDEST PUSH3 0x3BC JUMP JUMPDEST PUSH1 0x40 MLOAD PUSH3 0x162 SWAP2 SWAP1 PUSH3 0x9DB JUMP JUMPDEST PUSH1 0x40 MLOAD DUP1 SWAP2 SUB SWAP1 RETURN JUMPDEST CALLVALUE DUP1 ISZERO PUSH3 0x178 JUMPI PUSH1 0x0 DUP1 REVERT JUMPDEST POP PUSH3 0x183 PUSH3 0x44C JUMP JUMPDEST PUSH1 0x40 MLOAD PUSH3 0x192 SWAP2 SWAP1 PUSH3 0x9F8 JUMP JUMPDEST PUSH1 0x40 MLOAD DUP1 SWAP2 SUB SWAP1 RETURN JUMPDEST CALLVALUE DUP1 ISZERO PUSH3 0x1A8 JUMPI PUSH1 0x0 DUP1 REVERT JUMPDEST POP PUSH3 0x1C7 PUSH1 0x4 DUP1 CALLDATASIZE SUB DUP2 ADD SWAP1 PUSH3 0x1C1 SWAP2 SWAP1 PUSH3 0x75A JUMP JUMPDEST PUSH3 0x4DC JUMP JUMPDEST STOP JUMPDEST CALLVALUE DUP1 ISZERO PUSH3 0x1D6 JUMPI PUSH1 0x0 DUP1 REVERT JUMPDEST POP PUSH3 0x1F5 PUSH1 0x4 DUP1 CALLDATASIZE SUB DUP2 ADD SWAP1 PUSH3 0x1EF SWAP2 SWAP1 PUSH3 0x75A JUMP JUMPDEST PUSH3 0x547 JUMP JUMPDEST PUSH1 0x40 MLOAD PUSH3 0x204 SWAP2 SWAP1 PUSH3 0xA1C JUMP JUMPDEST PUSH1 0x40 MLOAD DUP1 SWAP2 SUB SWAP1 RETURN JUMPDEST PUSH1 0x0 DUP1 DUP6 DUP4 DUP6 DUP8 PUSH1 0x40 MLOAD PUSH3 0x222 SWAP1 PUSH3 0x5DD JUMP JUMPDEST PUSH3 0x231 SWAP5 SWAP4 SWAP3 SWAP2 SWAP1 PUSH3 0xA40 JUMP JUMPDEST PUSH1 0x40 MLOAD DUP1 SWAP2 SUB SWAP1 PUSH1 0x0 CREATE DUP1 ISZERO DUP1 ISZERO PUSH3 0x24E JUMPI RETURNDATASIZE PUSH1 0x0 DUP1 RETURNDATACOPY RETURNDATASIZE PUSH1 0x0 REVERT JUMPDEST POP SWAP1 POP PUSH1 0x0 DUP2 SWAP1 DUP1 PUSH1 0x1 DUP2 SLOAD ADD DUP1 DUP3 SSTORE DUP1 SWAP2 POP POP PUSH1 0x1 SWAP1 SUB SWAP1 PUSH1 0x0 MSTORE PUSH1 0x20 PUSH1 0x0 KECCAK256 ADD PUSH1 0x0 SWAP1 SWAP2 SWAP1 SWAP2 SWAP1 SWAP2 PUSH2 0x100 EXP DUP2 SLOAD DUP2 PUSH20 0xFFFFFFFFFFFFFFFFFFFFFFFFFFFFFFFFFFFFFFFF MUL NOT AND SWAP1 DUP4 PUSH20 0xFFFFFFFFFFFFFFFFFFFFFFFFFFFFFFFFFFFFFFFF AND MUL OR SWAP1 SSTORE POP DUP1 SWAP2 POP POP SWAP5 SWAP4 POP POP POP POP JUMP JUMPDEST PUSH1 0x0 DUP1 DUP3 SWAP1 POP DUP1 PUSH20 0xFFFFFFFFFFFFFFFFFFFFFFFFFFFFFFFFFFFFFFFF AND PUSH4 0xED11F46A PUSH1 0x40 MLOAD DUP2 PUSH4 0xFFFFFFFF AND PUSH1 0xE0 SHL DUP2 MSTORE PUSH1 0x4 ADD PUSH1 0x20 PUSH1 0x40 MLOAD DUP1 DUP4 SUB DUP2 DUP7 DUP1 EXTCODESIZE ISZERO DUP1 ISZERO PUSH3 0x30D JUMPI PUSH1 0x0 DUP1 REVERT JUMPDEST POP GAS STATICCALL ISZERO DUP1 ISZERO PUSH3 0x322 JUMPI RETURNDATASIZE PUSH1 0x0 DUP1 RETURNDATACOPY RETURNDATASIZE PUSH1 0x0 REVERT JUMPDEST POP POP POP POP PUSH1 0x40 MLOAD RETURNDATASIZE PUSH1 0x1F NOT PUSH1 0x1F DUP3 ADD AND DUP3 ADD DUP1 PUSH1 0x40 MSTORE POP DUP2 ADD SWAP1 PUSH3 0x348 SWAP2 SWAP1 PUSH3 0x8A0 JUMP JUMPDEST SWAP2 POP POP SWAP2 SWAP1 POP JUMP JUMPDEST PUSH1 0x0 DUP2 SWAP1 POP DUP1 PUSH20 0xFFFFFFFFFFFFFFFFFFFFFFFFFFFFFFFFFFFFFFFF AND PUSH4 0xED88C68E CALLVALUE PUSH1 0x40 MLOAD DUP3 PUSH4 0xFFFFFFFF AND PUSH1 0xE0 SHL DUP2 MSTORE PUSH1 0x4 ADD PUSH1 0x0 PUSH1 0x40 MLOAD DUP1 DUP4 SUB DUP2 DUP6 DUP9 DUP1 EXTCODESIZE ISZERO DUP1 ISZERO PUSH3 0x39E JUMPI PUSH1 0x0 DUP1 REVERT JUMPDEST POP GAS CALL ISZERO DUP1 ISZERO PUSH3 0x3B3 JUMPI RETURNDATASIZE PUSH1 0x0 DUP1 RETURNDATACOPY RETURNDATASIZE PUSH1 0x0 REVERT JUMPDEST POP POP POP POP POP POP POP JUMP JUMPDEST PUSH1 0x0 DUP1 DUP3 SWAP1 POP DUP1 PUSH20 0xFFFFFFFFFFFFFFFFFFFFFFFFFFFFFFFFFFFFFFFF AND PUSH4 0x893D20E8 PUSH1 0x40 MLOAD DUP2 PUSH4 0xFFFFFFFF AND PUSH1 0xE0 SHL DUP2 MSTORE PUSH1 0x4 ADD PUSH1 0x20 PUSH1 0x40 MLOAD DUP1 DUP4 SUB DUP2 DUP7 DUP1 EXTCODESIZE ISZERO DUP1 ISZERO PUSH3 0x409 JUMPI PUSH1 0x0 DUP1 REVERT JUMPDEST POP GAS STATICCALL ISZERO DUP1 ISZERO PUSH3 0x41E JUMPI RETURNDATASIZE PUSH1 0x0 DUP1 RETURNDATACOPY RETURNDATASIZE PUSH1 0x0 REVERT JUMPDEST POP POP POP POP PUSH1 0x40 MLOAD RETURNDATASIZE PUSH1 0x1F NOT PUSH1 0x1F DUP3 ADD AND DUP3 ADD DUP1 PUSH1 0x40 MSTORE POP DUP2 ADD SWAP1 PUSH3 0x444 SWAP2 SWAP1 PUSH3 0x78C JUMP JUMPDEST SWAP2 POP POP SWAP2 SWAP1 POP JUMP JUMPDEST PUSH1 0x60 PUSH1 0x0 DUP1 SLOAD DUP1 PUSH1 0x20 MUL PUSH1 0x20 ADD PUSH1 0x40 MLOAD SWAP1 DUP2 ADD PUSH1 0x40 MSTORE DUP1 SWAP3 SWAP2 SWAP1 DUP2 DUP2 MSTORE PUSH1 0x20 ADD DUP3 DUP1 SLOAD DUP1 ISZERO PUSH3 0x4D2 JUMPI PUSH1 0x20 MUL DUP3 ADD SWAP2 SWAP1 PUSH1 0x0 MSTORE PUSH1 0x20 PUSH1 0x0 KECCAK256 SWAP1 JUMPDEST DUP2 PUSH1 0x0 SWAP1 SLOAD SWAP1 PUSH2 0x100 EXP SWAP1 DIV PUSH20 0xFFFFFFFFFFFFFFFFFFFFFFFFFFFFFFFFFFFFFFFF AND PUSH20 0xFFFFFFFFFFFFFFFFFFFFFFFFFFFFFFFFFFFFFFFF AND DUP2 MSTORE PUSH1 0x20 ADD SWAP1 PUSH1 0x1 ADD SWAP1 DUP1 DUP4 GT PUSH3 0x487 JUMPI JUMPDEST POP POP POP POP POP SWAP1 POP SWAP1 JUMP JUMPDEST PUSH1 0x0 DUP2 SWAP1 POP DUP1 PUSH20 0xFFFFFFFFFFFFFFFFFFFFFFFFFFFFFFFFFFFFFFFF AND PUSH4 0x3CCFD60B PUSH1 0x40 MLOAD DUP2 PUSH4 0xFFFFFFFF AND PUSH1 0xE0 SHL DUP2 MSTORE PUSH1 0x4 ADD PUSH1 0x0 PUSH1 0x40 MLOAD DUP1 DUP4 SUB DUP2 PUSH1 0x0 DUP8 DUP1 EXTCODESIZE ISZERO DUP1 ISZERO PUSH3 0x52A JUMPI PUSH1 0x0 DUP1 REVERT JUMPDEST POP GAS CALL ISZERO DUP1 ISZERO PUSH3 0x53F JUMPI RETURNDATASIZE PUSH1 0x0 DUP1 RETURNDATACOPY RETURNDATASIZE PUSH1 0x0 REVERT JUMPDEST POP POP POP POP POP POP JUMP JUMPDEST PUSH1 0x60 PUSH1 0x0 DUP3 SWAP1 POP DUP1 PUSH20 0xFFFFFFFFFFFFFFFFFFFFFFFFFFFFFFFFFFFFFFFF AND PUSH4 0xEAE3F764 PUSH1 0x40 MLOAD DUP2 PUSH4 0xFFFFFFFF AND PUSH1 0xE0 SHL DUP2 MSTORE PUSH1 0x4 ADD PUSH1 0x0 PUSH1 0x40 MLOAD DUP1 DUP4 SUB DUP2 DUP7 DUP1 EXTCODESIZE ISZERO DUP1 ISZERO PUSH3 0x595 JUMPI PUSH1 0x0 DUP1 REVERT JUMPDEST POP GAS STATICCALL ISZERO DUP1 ISZERO PUSH3 0x5AA JUMPI RETURNDATASIZE PUSH1 0x0 DUP1 RETURNDATACOPY RETURNDATASIZE PUSH1 0x0 REVERT JUMPDEST POP POP POP POP PUSH1 0x40 MLOAD RETURNDATASIZE PUSH1 0x0 DUP3 RETURNDATACOPY RETURNDATASIZE PUSH1 0x1F NOT PUSH1 0x1F DUP3 ADD AND DUP3 ADD DUP1 PUSH1 0x40 MSTORE POP DUP2 ADD SWAP1 PUSH3 0x5D5 SWAP2 SWAP1 PUSH3 0x7BE JUMP JUMPDEST SWAP2 POP POP SWAP2 SWAP1 POP JUMP JUMPDEST PUSH2 0xE1E DUP1 PUSH3 0xD09 DUP4 CODECOPY ADD SWAP1 JUMP JUMPDEST PUSH1 0x0 PUSH3 0x602 PUSH3 0x5FC DUP5 PUSH3 0xADA JUMP JUMPDEST PUSH3 0xAB1 JUMP JUMPDEST SWAP1 POP DUP3 DUP2 MSTORE PUSH1 0x20 DUP2 ADD DUP5 DUP5 DUP5 ADD GT ISZERO PUSH3 0x621 JUMPI PUSH3 0x620 PUSH3 0xC9A JUMP JUMPDEST JUMPDEST PUSH3 0x62E DUP5 DUP3 DUP6 PUSH3 0xBEB JUMP JUMPDEST POP SWAP4 SWAP3 POP POP POP JUMP JUMPDEST PUSH1 0x0 PUSH3 0x64D PUSH3 0x647 DUP5 PUSH3 0xADA JUMP JUMPDEST PUSH3 0xAB1 JUMP JUMPDEST SWAP1 POP DUP3 DUP2 MSTORE PUSH1 0x20 DUP2 ADD DUP5 DUP5 DUP5 ADD GT ISZERO PUSH3 0x66C JUMPI PUSH3 0x66B PUSH3 0xC9A JUMP JUMPDEST JUMPDEST PUSH3 0x679 DUP5 DUP3 DUP6 PUSH3 0xBFA JUMP JUMPDEST POP SWAP4 SWAP3 POP POP POP JUMP JUMPDEST PUSH1 0x0 DUP2 CALLDATALOAD SWAP1 POP PUSH3 0x692 DUP2 PUSH3 0xCBA JUMP JUMPDEST SWAP3 SWAP2 POP POP JUMP JUMPDEST PUSH1 0x0 DUP2 MLOAD SWAP1 POP PUSH3 0x6A9 DUP2 PUSH3 0xCBA JUMP JUMPDEST SWAP3 SWAP2 POP POP JUMP JUMPDEST PUSH1 0x0 DUP2 CALLDATALOAD SWAP1 POP PUSH3 0x6C0 DUP2 PUSH3 0xCD4 JUMP JUMPDEST SWAP3 SWAP2 POP POP JUMP JUMPDEST PUSH1 0x0 DUP3 PUSH1 0x1F DUP4 ADD SLT PUSH3 0x6DE JUMPI PUSH3 0x6DD PUSH3 0xC95 JUMP JUMPDEST JUMPDEST DUP2 CALLDATALOAD PUSH3 0x6F0 DUP5 DUP3 PUSH1 0x20 DUP7 ADD PUSH3 0x5EB JUMP JUMPDEST SWAP2 POP POP SWAP3 SWAP2 POP POP JUMP JUMPDEST PUSH1 0x0 DUP3 PUSH1 0x1F DUP4 ADD SLT PUSH3 0x711 JUMPI PUSH3 0x710 PUSH3 0xC95 JUMP JUMPDEST JUMPDEST DUP2 MLOAD PUSH3 0x723 DUP5 DUP3 PUSH1 0x20 DUP7 ADD PUSH3 0x636 JUMP JUMPDEST SWAP2 POP POP SWAP3 SWAP2 POP POP JUMP JUMPDEST PUSH1 0x0 DUP2 CALLDATALOAD SWAP1 POP PUSH3 0x73D DUP2 PUSH3 0xCEE JUMP JUMPDEST SWAP3 SWAP2 POP POP JUMP JUMPDEST PUSH1 0x0 DUP2 MLOAD SWAP1 POP PUSH3 0x754 DUP2 PUSH3 0xCEE JUMP JUMPDEST SWAP3 SWAP2 POP POP JUMP JUMPDEST PUSH1 0x0 PUSH1 0x20 DUP3 DUP5 SUB SLT ISZERO PUSH3 0x773 JUMPI PUSH3 0x772 PUSH3 0xCA4 JUMP JUMPDEST JUMPDEST PUSH1 0x0 PUSH3 0x783 DUP5 DUP3 DUP6 ADD PUSH3 0x681 JUMP JUMPDEST SWAP2 POP POP SWAP3 SWAP2 POP POP JUMP JUMPDEST PUSH1 0x0 PUSH1 0x20 DUP3 DUP5 SUB SLT ISZERO PUSH3 0x7A5 JUMPI PUSH3 0x7A4 PUSH3 0xCA4 JUMP JUMPDEST JUMPDEST PUSH1 0x0 PUSH3 0x7B5 DUP5 DUP3 DUP6 ADD PUSH3 0x698 JUMP JUMPDEST SWAP2 POP POP SWAP3 SWAP2 POP POP JUMP JUMPDEST PUSH1 0x0 PUSH1 0x20 DUP3 DUP5 SUB SLT ISZERO PUSH3 0x7D7 JUMPI PUSH3 0x7D6 PUSH3 0xCA4 JUMP JUMPDEST JUMPDEST PUSH1 0x0 DUP3 ADD MLOAD PUSH8 0xFFFFFFFFFFFFFFFF DUP2 GT ISZERO PUSH3 0x7F8 JUMPI PUSH3 0x7F7 PUSH3 0xC9F JUMP JUMPDEST JUMPDEST PUSH3 0x806 DUP5 DUP3 DUP6 ADD PUSH3 0x6F9 JUMP JUMPDEST SWAP2 POP POP SWAP3 SWAP2 POP POP JUMP JUMPDEST PUSH1 0x0 DUP1 PUSH1 0x0 DUP1 PUSH1 0x80 DUP6 DUP8 SUB SLT ISZERO PUSH3 0x82C JUMPI PUSH3 0x82B PUSH3 0xCA4 JUMP JUMPDEST JUMPDEST PUSH1 0x0 DUP6 ADD CALLDATALOAD PUSH8 0xFFFFFFFFFFFFFFFF DUP2 GT ISZERO PUSH3 0x84D JUMPI PUSH3 0x84C PUSH3 0xC9F JUMP JUMPDEST JUMPDEST PUSH3 0x85B DUP8 DUP3 DUP9 ADD PUSH3 0x6C6 JUMP JUMPDEST SWAP5 POP POP PUSH1 0x20 PUSH3 0x86E DUP8 DUP3 DUP9 ADD PUSH3 0x72C JUMP JUMPDEST SWAP4 POP POP PUSH1 0x40 PUSH3 0x881 DUP8 DUP3 DUP9 ADD PUSH3 0x6AF JUMP JUMPDEST SWAP3 POP POP PUSH1 0x60 PUSH3 0x894 DUP8 DUP3 DUP9 ADD PUSH3 0x72C JUMP JUMPDEST SWAP2 POP POP SWAP3 SWAP6 SWAP2 SWAP5 POP SWAP3 POP JUMP JUMPDEST PUSH1 0x0 PUSH1 0x20 DUP3 DUP5 SUB SLT ISZERO PUSH3 0x8B9 JUMPI PUSH3 0x8B8 PUSH3 0xCA4 JUMP JUMPDEST JUMPDEST PUSH1 0x0 PUSH3 0x8C9 DUP5 DUP3 DUP6 ADD PUSH3 0x743 JUMP JUMPDEST SWAP2 POP POP SWAP3 SWAP2 POP POP JUMP JUMPDEST PUSH1 0x0 PUSH3 0x8E0 DUP4 DUP4 PUSH3 0x978 JUMP JUMPDEST PUSH1 0x20 DUP4 ADD SWAP1 POP SWAP3 SWAP2 POP POP JUMP JUMPDEST PUSH3 0x8F7 DUP2 PUSH3 0xB65 JUMP JUMPDEST DUP3 MSTORE POP POP JUMP JUMPDEST PUSH1 0x0 PUSH3 0x90A DUP3 PUSH3 0xB20 JUMP JUMPDEST PUSH3 0x916 DUP2 DUP6 PUSH3 0xB43 JUMP JUMPDEST SWAP4 POP PUSH3 0x923 DUP4 PUSH3 0xB10 JUMP JUMPDEST DUP1 PUSH1 0x0 JUMPDEST DUP4 DUP2 LT ISZERO PUSH3 0x95A JUMPI DUP2 MLOAD PUSH3 0x93E DUP9 DUP3 PUSH3 0x8D2 JUMP JUMPDEST SWAP8 POP PUSH3 0x94B DUP4 PUSH3 0xB36 JUMP JUMPDEST SWAP3 POP POP PUSH1 0x1 DUP2 ADD SWAP1 POP PUSH3 0x927 JUMP JUMPDEST POP DUP6 SWAP4 POP POP POP POP SWAP3 SWAP2 POP POP JUMP JUMPDEST PUSH3 0x972 DUP2 PUSH3 0xB79 JUMP JUMPDEST DUP3 MSTORE POP POP JUMP JUMPDEST PUSH3 0x983 DUP2 PUSH3 0xBAF JUMP JUMPDEST DUP3 MSTORE POP POP JUMP JUMPDEST PUSH1 0x0 PUSH3 0x996 DUP3 PUSH3 0xB2B JUMP JUMPDEST PUSH3 0x9A2 DUP2 DUP6 PUSH3 0xB54 JUMP JUMPDEST SWAP4 POP PUSH3 0x9B4 DUP2 DUP6 PUSH1 0x20 DUP7 ADD PUSH3 0xBFA JUMP JUMPDEST PUSH3 0x9BF DUP2 PUSH3 0xCA9 JUMP JUMPDEST DUP5 ADD SWAP2 POP POP SWAP3 SWAP2 POP POP JUMP JUMPDEST PUSH3 0x9D5 DUP2 PUSH3 0xBA5 JUMP JUMPDEST DUP3 MSTORE POP POP JUMP JUMPDEST PUSH1 0x0 PUSH1 0x20 DUP3 ADD SWAP1 POP PUSH3 0x9F2 PUSH1 0x0 DUP4 ADD DUP5 PUSH3 0x8EC JUMP JUMPDEST SWAP3 SWAP2 POP POP JUMP JUMPDEST PUSH1 0x0 PUSH1 0x20 DUP3 ADD SWAP1 POP DUP2 DUP2 SUB PUSH1 0x0 DUP4 ADD MSTORE PUSH3 0xA14 DUP2 DUP5 PUSH3 0x8FD JUMP JUMPDEST SWAP1 POP SWAP3 SWAP2 POP POP JUMP JUMPDEST PUSH1 0x0 PUSH1 0x20 DUP3 ADD SWAP1 POP DUP2 DUP2 SUB PUSH1 0x0 DUP4 ADD MSTORE PUSH3 0xA38 DUP2 DUP5 PUSH3 0x989 JUMP JUMPDEST SWAP1 POP SWAP3 SWAP2 POP POP JUMP JUMPDEST PUSH1 0x0 PUSH1 0x80 DUP3 ADD SWAP1 POP DUP2 DUP2 SUB PUSH1 0x0 DUP4 ADD MSTORE PUSH3 0xA5C DUP2 DUP8 PUSH3 0x989 JUMP JUMPDEST SWAP1 POP PUSH3 0xA6D PUSH1 0x20 DUP4 ADD DUP7 PUSH3 0x9CA JUMP JUMPDEST PUSH3 0xA7C PUSH1 0x40 DUP4 ADD DUP6 PUSH3 0x967 JUMP JUMPDEST PUSH3 0xA8B PUSH1 0x60 DUP4 ADD DUP5 PUSH3 0x9CA JUMP JUMPDEST SWAP6 SWAP5 POP POP POP POP POP JUMP JUMPDEST PUSH1 0x0 PUSH1 0x20 DUP3 ADD SWAP1 POP PUSH3 0xAAB PUSH1 0x0 DUP4 ADD DUP5 PUSH3 0x9CA JUMP JUMPDEST SWAP3 SWAP2 POP POP JUMP JUMPDEST PUSH1 0x0 PUSH3 0xABD PUSH3 0xAD0 JUMP JUMPDEST SWAP1 POP PUSH3 0xACB DUP3 DUP3 PUSH3 0xC30 JUMP JUMPDEST SWAP2 SWAP1 POP JUMP JUMPDEST PUSH1 0x0 PUSH1 0x40 MLOAD SWAP1 POP SWAP1 JUMP JUMPDEST PUSH1 0x0 PUSH8 0xFFFFFFFFFFFFFFFF DUP3 GT ISZERO PUSH3 0xAF8 JUMPI PUSH3 0xAF7 PUSH3 0xC66 JUMP JUMPDEST JUMPDEST PUSH3 0xB03 DUP3 PUSH3 0xCA9 JUMP JUMPDEST SWAP1 POP PUSH1 0x20 DUP2 ADD SWAP1 POP SWAP2 SWAP1 POP JUMP JUMPDEST PUSH1 0x0 DUP2 SWAP1 POP PUSH1 0x20 DUP3 ADD SWAP1 POP SWAP2 SWAP1 POP JUMP JUMPDEST PUSH1 0x0 DUP2 MLOAD SWAP1 POP SWAP2 SWAP1 POP JUMP JUMPDEST PUSH1 0x0 DUP2 MLOAD SWAP1 POP SWAP2 SWAP1 POP JUMP JUMPDEST PUSH1 0x0 PUSH1 0x20 DUP3 ADD SWAP1 POP SWAP2 SWAP1 POP JUMP JUMPDEST PUSH1 0x0 DUP3 DUP3 MSTORE PUSH1 0x20 DUP3 ADD SWAP1 POP SWAP3 SWAP2 POP POP JUMP JUMPDEST PUSH1 0x0 DUP3 DUP3 MSTORE PUSH1 0x20 DUP3 ADD SWAP1 POP SWAP3 SWAP2 POP POP JUMP JUMPDEST PUSH1 0x0 PUSH3 0xB72 DUP3 PUSH3 0xB85 JUMP JUMPDEST SWAP1 POP SWAP2 SWAP1 POP JUMP JUMPDEST PUSH1 0x0 DUP2 ISZERO ISZERO SWAP1 POP SWAP2 SWAP1 POP JUMP JUMPDEST PUSH1 0x0 PUSH20 0xFFFFFFFFFFFFFFFFFFFFFFFFFFFFFFFFFFFFFFFF DUP3 AND SWAP1 POP SWAP2 SWAP1 POP JUMP JUMPDEST PUSH1 0x0 DUP2 SWAP1 POP SWAP2 SWAP1 POP JUMP JUMPDEST PUSH1 0x0 PUSH3 0xBBC DUP3 PUSH3 0xBC3 JUMP JUMPDEST SWAP1 POP SWAP2 SWAP1 POP JUMP JUMPDEST PUSH1 0x0 PUSH3 0xBD0 DUP3 PUSH3 0xBD7 JUMP JUMPDEST SWAP1 POP SWAP2 SWAP1 POP JUMP JUMPDEST PUSH1 0x0 PUSH3 0xBE4 DUP3 PUSH3 0xB85 JUMP JUMPDEST SWAP1 POP SWAP2 SWAP1 POP JUMP JUMPDEST DUP3 DUP2 DUP4 CALLDATACOPY PUSH1 0x0 DUP4 DUP4 ADD MSTORE POP POP POP JUMP JUMPDEST PUSH1 0x0 JUMPDEST DUP4 DUP2 LT ISZERO PUSH3 0xC1A JUMPI DUP1 DUP3 ADD MLOAD DUP2 DUP5 ADD MSTORE PUSH1 0x20 DUP2 ADD SWAP1 POP PUSH3 0xBFD JUMP JUMPDEST DUP4 DUP2 GT ISZERO PUSH3 0xC2A JUMPI PUSH1 0x0 DUP5 DUP5 ADD MSTORE JUMPDEST POP POP POP POP JUMP JUMPDEST PUSH3 0xC3B DUP3 PUSH3 0xCA9 JUMP JUMPDEST DUP2 ADD DUP2 DUP2 LT PUSH8 0xFFFFFFFFFFFFFFFF DUP3 GT OR ISZERO PUSH3 0xC5D JUMPI PUSH3 0xC5C PUSH3 0xC66 JUMP JUMPDEST JUMPDEST DUP1 PUSH1 0x40 MSTORE POP POP POP JUMP JUMPDEST PUSH32 0x4E487B7100000000000000000000000000000000000000000000000000000000 PUSH1 0x0 MSTORE PUSH1 0x41 PUSH1 0x4 MSTORE PUSH1 0x24 PUSH1 0x0 REVERT JUMPDEST PUSH1 0x0 DUP1 REVERT JUMPDEST PUSH1 0x0 DUP1 REVERT JUMPDEST PUSH1 0x0 DUP1 REVERT JUMPDEST PUSH1 0x0 DUP1 REVERT JUMPDEST PUSH1 0x0 PUSH1 0x1F NOT PUSH1 0x1F DUP4 ADD AND SWAP1 POP SWAP2 SWAP1 POP JUMP JUMPDEST PUSH3 0xCC5 DUP2 PUSH3 0xB65 JUMP JUMPDEST DUP2 EQ PUSH3 0xCD1 JUMPI PUSH1 0x0 DUP1 REVERT JUMPDEST POP JUMP JUMPDEST PUSH3 0xCDF DUP2 PUSH3 0xB79 JUMP JUMPDEST DUP2 EQ PUSH3 0xCEB JUMPI PUSH1 0x0 DUP1 REVERT JUMPDEST POP JUMP JUMPDEST PUSH3 0xCF9 DUP2 PUSH3 0xBA5 JUMP JUMPDEST DUP2 EQ PUSH3 0xD05 JUMPI PUSH1 0x0 DUP1 REVERT JUMPDEST POP JUMP INVALID PUSH1 0x80 PUSH1 0x40 MSTORE CALLVALUE DUP1 ISZERO PUSH3 0x11 JUMPI PUSH1 0x0 DUP1 REVERT JUMPDEST POP PUSH1 0x40 MLOAD PUSH3 0xE1E CODESIZE SUB DUP1 PUSH3 0xE1E DUP4 CODECOPY DUP2 DUP2 ADD PUSH1 0x40 MSTORE DUP2 ADD SWAP1 PUSH3 0x37 SWAP2 SWAP1 PUSH3 0x21F JUMP JUMPDEST DUP4 PUSH1 0x0 SWAP1 DUP1 MLOAD SWAP1 PUSH1 0x20 ADD SWAP1 PUSH3 0x4F SWAP3 SWAP2 SWAP1 PUSH3 0xC3 JUMP JUMPDEST POP DUP3 PUSH1 0x1 DUP2 SWAP1 SSTORE POP DUP2 PUSH1 0x3 PUSH1 0x0 PUSH2 0x100 EXP DUP2 SLOAD DUP2 PUSH1 0xFF MUL NOT AND SWAP1 DUP4 ISZERO ISZERO MUL OR SWAP1 SSTORE POP DUP1 PUSH1 0x2 DUP2 SWAP1 SSTORE POP CALLER PUSH1 0x3 PUSH1 0x1 PUSH2 0x100 EXP DUP2 SLOAD DUP2 PUSH20 0xFFFFFFFFFFFFFFFFFFFFFFFFFFFFFFFFFFFFFFFF MUL NOT AND SWAP1 DUP4 PUSH20 0xFFFFFFFFFFFFFFFFFFFFFFFFFFFFFFFFFFFFFFFF AND MUL OR SWAP1 SSTORE POP POP POP POP POP PUSH3 0x47E JUMP JUMPDEST DUP3 DUP1 SLOAD PUSH3 0xD1 SWAP1 PUSH3 0x35B JUMP JUMPDEST SWAP1 PUSH1 0x0 MSTORE PUSH1 0x20 PUSH1 0x0 KECCAK256 SWAP1 PUSH1 0x1F ADD PUSH1 0x20 SWAP1 DIV DUP2 ADD SWAP3 DUP3 PUSH3 0xF5 JUMPI PUSH1 0x0 DUP6 SSTORE PUSH3 0x141 JUMP JUMPDEST DUP3 PUSH1 0x1F LT PUSH3 0x110 JUMPI DUP1 MLOAD PUSH1 0xFF NOT AND DUP4 DUP1 ADD OR DUP6 SSTORE PUSH3 0x141 JUMP JUMPDEST DUP3 DUP1 ADD PUSH1 0x1 ADD DUP6 SSTORE DUP3 ISZERO PUSH3 0x141 JUMPI SWAP2 DUP3 ADD JUMPDEST DUP3 DUP2 GT ISZERO PUSH3 0x140 JUMPI DUP3 MLOAD DUP3 SSTORE SWAP2 PUSH1 0x20 ADD SWAP2 SWAP1 PUSH1 0x1 ADD SWAP1 PUSH3 0x123 JUMP JUMPDEST JUMPDEST POP SWAP1 POP PUSH3 0x150 SWAP2 SWAP1 PUSH3 0x154 JUMP JUMPDEST POP SWAP1 JUMP JUMPDEST JUMPDEST DUP1 DUP3 GT ISZERO PUSH3 0x16F JUMPI PUSH1 0x0 DUP2 PUSH1 0x0 SWAP1 SSTORE POP PUSH1 0x1 ADD PUSH3 0x155 JUMP JUMPDEST POP SWAP1 JUMP JUMPDEST PUSH1 0x0 PUSH3 0x18A PUSH3 0x184 DUP5 PUSH3 0x2D9 JUMP JUMPDEST PUSH3 0x2B0 JUMP JUMPDEST SWAP1 POP DUP3 DUP2 MSTORE PUSH1 0x20 DUP2 ADD DUP5 DUP5 DUP5 ADD GT ISZERO PUSH3 0x1A9 JUMPI PUSH3 0x1A8 PUSH3 0x42A JUMP JUMPDEST JUMPDEST PUSH3 0x1B6 DUP5 DUP3 DUP6 PUSH3 0x325 JUMP JUMPDEST POP SWAP4 SWAP3 POP POP POP JUMP JUMPDEST PUSH1 0x0 DUP2 MLOAD SWAP1 POP PUSH3 0x1CF DUP2 PUSH3 0x44A JUMP JUMPDEST SWAP3 SWAP2 POP POP JUMP JUMPDEST PUSH1 0x0 DUP3 PUSH1 0x1F DUP4 ADD SLT PUSH3 0x1ED JUMPI PUSH3 0x1EC PUSH3 0x425 JUMP JUMPDEST JUMPDEST DUP2 MLOAD PUSH3 0x1FF DUP5 DUP3 PUSH1 0x20 DUP7 ADD PUSH3 0x173 JUMP JUMPDEST SWAP2 POP POP SWAP3 SWAP2 POP POP JUMP JUMPDEST PUSH1 0x0 DUP2 MLOAD SWAP1 POP PUSH3 0x219 DUP2 PUSH3 0x464 JUMP JUMPDEST SWAP3 SWAP2 POP POP JUMP JUMPDEST PUSH1 0x0 DUP1 PUSH1 0x0 DUP1 PUSH1 0x80 DUP6 DUP8 SUB SLT ISZERO PUSH3 0x23C JUMPI PUSH3 0x23B PUSH3 0x434 JUMP JUMPDEST JUMPDEST PUSH1 0x0 DUP6 ADD MLOAD PUSH8 0xFFFFFFFFFFFFFFFF DUP2 GT ISZERO PUSH3 0x25D JUMPI PUSH3 0x25C PUSH3 0x42F JUMP JUMPDEST JUMPDEST PUSH3 0x26B DUP8 DUP3 DUP9 ADD PUSH3 0x1D5 JUMP JUMPDEST SWAP5 POP POP PUSH1 0x20 PUSH3 0x27E DUP8 DUP3 DUP9 ADD PUSH3 0x208 JUMP JUMPDEST SWAP4 POP POP PUSH1 0x40 PUSH3 0x291 DUP8 DUP3 DUP9 ADD PUSH3 0x1BE JUMP JUMPDEST SWAP3 POP POP PUSH1 0x60 PUSH3 0x2A4 DUP8 DUP3 DUP9 ADD PUSH3 0x208 JUMP JUMPDEST SWAP2 POP POP SWAP3 SWAP6 SWAP2 SWAP5 POP SWAP3 POP JUMP JUMPDEST PUSH1 0x0 PUSH3 0x2BC PUSH3 0x2CF JUMP JUMPDEST SWAP1 POP PUSH3 0x2CA DUP3 DUP3 PUSH3 0x391 JUMP JUMPDEST SWAP2 SWAP1 POP JUMP JUMPDEST PUSH1 0x0 PUSH1 0x40 MLOAD SWAP1 POP SWAP1 JUMP JUMPDEST PUSH1 0x0 PUSH8 0xFFFFFFFFFFFFFFFF DUP3 GT ISZERO PUSH3 0x2F7 JUMPI PUSH3 0x2F6 PUSH3 0x3F6 JUMP JUMPDEST JUMPDEST PUSH3 0x302 DUP3 PUSH3 0x439 JUMP JUMPDEST SWAP1 POP PUSH1 0x20 DUP2 ADD SWAP1 POP SWAP2 SWAP1 POP JUMP JUMPDEST PUSH1 0x0 DUP2 ISZERO ISZERO SWAP1 POP SWAP2 SWAP1 POP JUMP JUMPDEST PUSH1 0x0 DUP2 SWAP1 POP SWAP2 SWAP1 POP JUMP JUMPDEST PUSH1 0x0 JUMPDEST DUP4 DUP2 LT ISZERO PUSH3 0x345 JUMPI DUP1 DUP3 ADD MLOAD DUP2 DUP5 ADD MSTORE PUSH1 0x20 DUP2 ADD SWAP1 POP PUSH3 0x328 JUMP JUMPDEST DUP4 DUP2 GT ISZERO PUSH3 0x355 JUMPI PUSH1 0x0 DUP5 DUP5 ADD MSTORE JUMPDEST POP POP POP POP JUMP JUMPDEST PUSH1 0x0 PUSH1 0x2 DUP3 DIV SWAP1 POP PUSH1 0x1 DUP3 AND DUP1 PUSH3 0x374 JUMPI PUSH1 0x7F DUP3 AND SWAP2 POP JUMPDEST PUSH1 0x20 DUP3 LT DUP2 EQ ISZERO PUSH3 0x38B JUMPI PUSH3 0x38A PUSH3 0x3C7 JUMP JUMPDEST JUMPDEST POP SWAP2 SWAP1 POP JUMP JUMPDEST PUSH3 0x39C DUP3 PUSH3 0x439 JUMP JUMPDEST DUP2 ADD DUP2 DUP2 LT PUSH8 0xFFFFFFFFFFFFFFFF DUP3 GT OR ISZERO PUSH3 0x3BE JUMPI PUSH3 0x3BD PUSH3 0x3F6 JUMP JUMPDEST JUMPDEST DUP1 PUSH1 0x40 MSTORE POP POP POP JUMP JUMPDEST PUSH32 0x4E487B7100000000000000000000000000000000000000000000000000000000 PUSH1 0x0 MSTORE PUSH1 0x22 PUSH1 0x4 MSTORE PUSH1 0x24 PUSH1 0x0 REVERT JUMPDEST PUSH32 0x4E487B7100000000000000000000000000000000000000000000000000000000 PUSH1 0x0 MSTORE PUSH1 0x41 PUSH1 0x4 MSTORE PUSH1 0x24 PUSH1 0x0 REVERT JUMPDEST PUSH1 0x0 DUP1 REVERT JUMPDEST PUSH1 0x0 DUP1 REVERT JUMPDEST PUSH1 0x0 DUP1 REVERT JUMPDEST PUSH1 0x0 DUP1 REVERT JUMPDEST PUSH1 0x0 PUSH1 0x1F NOT PUSH1 0x1F DUP4 ADD AND SWAP1 POP SWAP2 SWAP1 POP JUMP JUMPDEST PUSH3 0x455 DUP2 PUSH3 0x30F JUMP JUMPDEST DUP2 EQ PUSH3 0x461 JUMPI PUSH1 0x0 DUP1 REVERT JUMPDEST POP JUMP JUMPDEST PUSH3 0x46F DUP2 PUSH3 0x31B JUMP JUMPDEST DUP2 EQ PUSH3 0x47B JUMPI PUSH1 0x0 DUP1 REVERT JUMPDEST POP JUMP JUMPDEST PUSH2 0x990 DUP1 PUSH3 0x48E PUSH1 0x0 CODECOPY PUSH1 0x0 RETURN INVALID PUSH1 0x80 PUSH1 0x40 MSTORE PUSH1 0x4 CALLDATASIZE LT PUSH2 0x86 JUMPI PUSH1 0x0 CALLDATALOAD PUSH1 0xE0 SHR DUP1 PUSH4 0x893D20E8 GT PUSH2 0x59 JUMPI DUP1 PUSH4 0x893D20E8 EQ PUSH2 0x123 JUMPI DUP1 PUSH4 0xB383BF2D EQ PUSH2 0x14E JUMPI DUP1 PUSH4 0xEAE3F764 EQ PUSH2 0x179 JUMPI DUP1 PUSH4 0xED11F46A EQ PUSH2 0x1A4 JUMPI DUP1 PUSH4 0xED88C68E EQ PUSH2 0x1CF JUMPI PUSH2 0x86 JUMP JUMPDEST DUP1 PUSH4 0x354ECC85 EQ PUSH2 0x8B JUMPI DUP1 PUSH4 0x3CCFD60B EQ PUSH2 0xB6 JUMPI DUP1 PUSH4 0x798BE230 EQ PUSH2 0xCD JUMPI DUP1 PUSH4 0x80FDEF1B EQ PUSH2 0xF8 JUMPI JUMPDEST PUSH1 0x0 DUP1 REVERT JUMPDEST CALLVALUE DUP1 ISZERO PUSH2 0x97 JUMPI PUSH1 0x0 DUP1 REVERT JUMPDEST POP PUSH2 0xA0 PUSH2 0x1D9 JUMP JUMPDEST PUSH1 0x40 MLOAD PUSH2 0xAD SWAP2 SWAP1 PUSH2 0x634 JUMP JUMPDEST PUSH1 0x40 MLOAD DUP1 SWAP2 SUB SWAP1 RETURN JUMPDEST CALLVALUE DUP1 ISZERO PUSH2 0xC2 JUMPI PUSH1 0x0 DUP1 REVERT JUMPDEST POP PUSH2 0xCB PUSH2 0x267 JUMP JUMPDEST STOP JUMPDEST CALLVALUE DUP1 ISZERO PUSH2 0xD9 JUMPI PUSH1 0x0 DUP1 REVERT JUMPDEST POP PUSH2 0xE2 PUSH2 0x362 JUMP JUMPDEST PUSH1 0x40 MLOAD PUSH2 0xEF SWAP2 SWAP1 PUSH2 0x619 JUMP JUMPDEST PUSH1 0x40 MLOAD DUP1 SWAP2 SUB SWAP1 RETURN JUMPDEST CALLVALUE DUP1 ISZERO PUSH2 0x104 JUMPI PUSH1 0x0 DUP1 REVERT JUMPDEST POP PUSH2 0x10D PUSH2 0x375 JUMP JUMPDEST PUSH1 0x40 MLOAD PUSH2 0x11A SWAP2 SWAP1 PUSH2 0x6B6 JUMP JUMPDEST PUSH1 0x40 MLOAD DUP1 SWAP2 SUB SWAP1 RETURN JUMPDEST CALLVALUE DUP1 ISZERO PUSH2 0x12F JUMPI PUSH1 0x0 DUP1 REVERT JUMPDEST POP PUSH2 0x138 PUSH2 0x37B JUMP JUMPDEST PUSH1 0x40 MLOAD PUSH2 0x145 SWAP2 SWAP1 PUSH2 0x5FE JUMP JUMPDEST PUSH1 0x40 MLOAD DUP1 SWAP2 SUB SWAP1 RETURN JUMPDEST CALLVALUE DUP1 ISZERO PUSH2 0x15A JUMPI PUSH1 0x0 DUP1 REVERT JUMPDEST POP PUSH2 0x163 PUSH2 0x3A5 JUMP JUMPDEST PUSH1 0x40 MLOAD PUSH2 0x170 SWAP2 SWAP1 PUSH2 0x6B6 JUMP JUMPDEST PUSH1 0x40 MLOAD DUP1 SWAP2 SUB SWAP1 RETURN JUMPDEST CALLVALUE DUP1 ISZERO PUSH2 0x185 JUMPI PUSH1 0x0 DUP1 REVERT JUMPDEST POP PUSH2 0x18E PUSH2 0x3AB JUMP JUMPDEST PUSH1 0x40 MLOAD PUSH2 0x19B SWAP2 SWAP1 PUSH2 0x634 JUMP JUMPDEST PUSH1 0x40 MLOAD DUP1 SWAP2 SUB SWAP1 RETURN JUMPDEST CALLVALUE DUP1 ISZERO PUSH2 0x1B0 JUMPI PUSH1 0x0 DUP1 REVERT JUMPDEST POP PUSH2 0x1B9 PUSH2 0x43D JUMP JUMPDEST PUSH1 0x40 MLOAD PUSH2 0x1C6 SWAP2 SWAP1 PUSH2 0x6B6 JUMP JUMPDEST PUSH1 0x40 MLOAD DUP1 SWAP2 SUB SWAP1 RETURN JUMPDEST PUSH2 0x1D7 PUSH2 0x445 JUMP JUMPDEST STOP JUMPDEST PUSH1 0x0 DUP1 SLOAD PUSH2 0x1E6 SWAP1 PUSH2 0x7C9 JUMP JUMPDEST DUP1 PUSH1 0x1F ADD PUSH1 0x20 DUP1 SWAP2 DIV MUL PUSH1 0x20 ADD PUSH1 0x40 MLOAD SWAP1 DUP2 ADD PUSH1 0x40 MSTORE DUP1 SWAP3 SWAP2 SWAP1 DUP2 DUP2 MSTORE PUSH1 0x20 ADD DUP3 DUP1 SLOAD PUSH2 0x212 SWAP1 PUSH2 0x7C9 JUMP JUMPDEST DUP1 ISZERO PUSH2 0x25F JUMPI DUP1 PUSH1 0x1F LT PUSH2 0x234 JUMPI PUSH2 0x100 DUP1 DUP4 SLOAD DIV MUL DUP4 MSTORE SWAP2 PUSH1 0x20 ADD SWAP2 PUSH2 0x25F JUMP JUMPDEST DUP3 ADD SWAP2 SWAP1 PUSH1 0x0 MSTORE PUSH1 0x20 PUSH1 0x0 KECCAK256 SWAP1 JUMPDEST DUP2 SLOAD DUP2 MSTORE SWAP1 PUSH1 0x1 ADD SWAP1 PUSH1 0x20 ADD DUP1 DUP4 GT PUSH2 0x242 JUMPI DUP3 SWAP1 SUB PUSH1 0x1F AND DUP3 ADD SWAP2 JUMPDEST POP POP POP POP POP DUP2 JUMP JUMPDEST CALLER PUSH20 0xFFFFFFFFFFFFFFFFFFFFFFFFFFFFFFFFFFFFFFFF AND PUSH1 0x3 PUSH1 0x1 SWAP1 SLOAD SWAP1 PUSH2 0x100 EXP SWAP1 DIV PUSH20 0xFFFFFFFFFFFFFFFFFFFFFFFFFFFFFFFFFFFFFFFF AND PUSH20 0xFFFFFFFFFFFFFFFFFFFFFFFFFFFFFFFFFFFFFFFF AND EQ PUSH2 0x2F7 JUMPI PUSH1 0x40 MLOAD PUSH32 0x8C379A000000000000000000000000000000000000000000000000000000000 DUP2 MSTORE PUSH1 0x4 ADD PUSH2 0x2EE SWAP1 PUSH2 0x676 JUMP JUMPDEST PUSH1 0x40 MLOAD DUP1 SWAP2 SUB SWAP1 REVERT JUMPDEST CALLER PUSH20 0xFFFFFFFFFFFFFFFFFFFFFFFFFFFFFFFFFFFFFFFF AND SELFBALANCE PUSH1 0x40 MLOAD PUSH2 0x31B SWAP1 PUSH2 0x5E9 JUMP JUMPDEST PUSH1 0x0 PUSH1 0x40 MLOAD DUP1 DUP4 SUB DUP2 DUP6 DUP8 GAS CALL SWAP3 POP POP POP RETURNDATASIZE DUP1 PUSH1 0x0 DUP2 EQ PUSH2 0x358 JUMPI PUSH1 0x40 MLOAD SWAP2 POP PUSH1 0x1F NOT PUSH1 0x3F RETURNDATASIZE ADD AND DUP3 ADD PUSH1 0x40 MSTORE RETURNDATASIZE DUP3 MSTORE RETURNDATASIZE PUSH1 0x0 PUSH1 0x20 DUP5 ADD RETURNDATACOPY PUSH2 0x35D JUMP JUMPDEST PUSH1 0x60 SWAP2 POP JUMPDEST POP POP POP JUMP JUMPDEST PUSH1 0x3 PUSH1 0x0 SWAP1 SLOAD SWAP1 PUSH2 0x100 EXP SWAP1 DIV PUSH1 0xFF AND DUP2 JUMP JUMPDEST PUSH1 0x2 SLOAD DUP2 JUMP JUMPDEST PUSH1 0x0 PUSH1 0x3 PUSH1 0x1 SWAP1 SLOAD SWAP1 PUSH2 0x100 EXP SWAP1 DIV PUSH20 0xFFFFFFFFFFFFFFFFFFFFFFFFFFFFFFFFFFFFFFFF AND SWAP1 POP SWAP1 JUMP JUMPDEST PUSH1 0x1 SLOAD DUP2 JUMP JUMPDEST PUSH1 0x60 PUSH1 0x0 DUP1 SLOAD PUSH2 0x3BA SWAP1 PUSH2 0x7C9 JUMP JUMPDEST DUP1 PUSH1 0x1F ADD PUSH1 0x20 DUP1 SWAP2 DIV MUL PUSH1 0x20 ADD PUSH1 0x40 MLOAD SWAP1 DUP2 ADD PUSH1 0x40 MSTORE DUP1 SWAP3 SWAP2 SWAP1 DUP2 DUP2 MSTORE PUSH1 0x20 ADD DUP3 DUP1 SLOAD PUSH2 0x3E6 SWAP1 PUSH2 0x7C9 JUMP JUMPDEST DUP1 ISZERO PUSH2 0x433 JUMPI DUP1 PUSH1 0x1F LT PUSH2 0x408 JUMPI PUSH2 0x100 DUP1 DUP4 SLOAD DIV MUL DUP4 MSTORE SWAP2 PUSH1 0x20 ADD SWAP2 PUSH2 0x433 JUMP JUMPDEST DUP3 ADD SWAP2 SWAP1 PUSH1 0x0 MSTORE PUSH1 0x20 PUSH1 0x0 KECCAK256 SWAP1 JUMPDEST DUP2 SLOAD DUP2 MSTORE SWAP1 PUSH1 0x1 ADD SWAP1 PUSH1 0x20 ADD DUP1 DUP4 GT PUSH2 0x416 JUMPI DUP3 SWAP1 SUB PUSH1 0x1F AND DUP3 ADD SWAP2 JUMPDEST POP POP POP POP POP SWAP1 POP SWAP1 JUMP JUMPDEST PUSH1 0x0 SELFBALANCE SWAP1 POP SWAP1 JUMP JUMPDEST PUSH1 0x1 SLOAD CALLVALUE LT ISZERO PUSH2 0x48A JUMPI PUSH1 0x40 MLOAD PUSH32 0x8C379A000000000000000000000000000000000000000000000000000000000 DUP2 MSTORE PUSH1 0x4 ADD PUSH2 0x481 SWAP1 PUSH2 0x656 JUMP JUMPDEST PUSH1 0x40 MLOAD DUP1 SWAP2 SUB SWAP1 REVERT JUMPDEST PUSH1 0x3 PUSH1 0x0 SWAP1 SLOAD SWAP1 PUSH2 0x100 EXP SWAP1 DIV PUSH1 0xFF AND PUSH2 0x4F5 JUMPI PUSH1 0x0 SELFBALANCE SWAP1 POP PUSH1 0x2 SLOAD CALLVALUE DUP3 PUSH2 0x4B2 SWAP2 SWAP1 PUSH2 0x6F8 JUMP JUMPDEST GT ISZERO PUSH2 0x4F3 JUMPI PUSH1 0x40 MLOAD PUSH32 0x8C379A000000000000000000000000000000000000000000000000000000000 DUP2 MSTORE PUSH1 0x4 ADD PUSH2 0x4EA SWAP1 PUSH2 0x696 JUMP JUMPDEST PUSH1 0x40 MLOAD DUP1 SWAP2 SUB SWAP1 REVERT JUMPDEST POP JUMPDEST JUMP JUMPDEST PUSH2 0x500 DUP2 PUSH2 0x74E JUMP JUMPDEST DUP3 MSTORE POP POP JUMP JUMPDEST PUSH2 0x50F DUP2 PUSH2 0x760 JUMP JUMPDEST DUP3 MSTORE POP POP JUMP JUMPDEST PUSH1 0x0 PUSH2 0x520 DUP3 PUSH2 0x6D1 JUMP JUMPDEST PUSH2 0x52A DUP2 DUP6 PUSH2 0x6E7 JUMP JUMPDEST SWAP4 POP PUSH2 0x53A DUP2 DUP6 PUSH1 0x20 DUP7 ADD PUSH2 0x796 JUMP JUMPDEST PUSH2 0x543 DUP2 PUSH2 0x859 JUMP JUMPDEST DUP5 ADD SWAP2 POP POP SWAP3 SWAP2 POP POP JUMP JUMPDEST PUSH1 0x0 PUSH2 0x55B PUSH1 0x25 DUP4 PUSH2 0x6E7 JUMP JUMPDEST SWAP2 POP PUSH2 0x566 DUP3 PUSH2 0x86A JUMP JUMPDEST PUSH1 0x40 DUP3 ADD SWAP1 POP SWAP2 SWAP1 POP JUMP JUMPDEST PUSH1 0x0 PUSH2 0x57E PUSH1 0x30 DUP4 PUSH2 0x6E7 JUMP JUMPDEST SWAP2 POP PUSH2 0x589 DUP3 PUSH2 0x8B9 JUMP JUMPDEST PUSH1 0x40 DUP3 ADD SWAP1 POP SWAP2 SWAP1 POP JUMP JUMPDEST PUSH1 0x0 PUSH2 0x5A1 PUSH1 0x2A DUP4 PUSH2 0x6E7 JUMP JUMPDEST SWAP2 POP PUSH2 0x5AC DUP3 PUSH2 0x908 JUMP JUMPDEST PUSH1 0x40 DUP3 ADD SWAP1 POP SWAP2 SWAP1 POP JUMP JUMPDEST PUSH1 0x0 PUSH2 0x5C4 PUSH1 0x0 DUP4 PUSH2 0x6DC JUMP JUMPDEST SWAP2 POP PUSH2 0x5CF DUP3 PUSH2 0x957 JUMP JUMPDEST PUSH1 0x0 DUP3 ADD SWAP1 POP SWAP2 SWAP1 POP JUMP JUMPDEST PUSH2 0x5E3 DUP2 PUSH2 0x78C JUMP JUMPDEST DUP3 MSTORE POP POP JUMP JUMPDEST PUSH1 0x0 PUSH2 0x5F4 DUP3 PUSH2 0x5B7 JUMP JUMPDEST SWAP2 POP DUP2 SWAP1 POP SWAP2 SWAP1 POP JUMP JUMPDEST PUSH1 0x0 PUSH1 0x20 DUP3 ADD SWAP1 POP PUSH2 0x613 PUSH1 0x0 DUP4 ADD DUP5 PUSH2 0x4F7 JUMP JUMPDEST SWAP3 SWAP2 POP POP JUMP JUMPDEST PUSH1 0x0 PUSH1 0x20 DUP3 ADD SWAP1 POP PUSH2 0x62E PUSH1 0x0 DUP4 ADD DUP5 PUSH2 0x506 JUMP JUMPDEST SWAP3 SWAP2 POP POP JUMP JUMPDEST PUSH1 0x0 PUSH1 0x20 DUP3 ADD SWAP1 POP DUP2 DUP2 SUB PUSH1 0x0 DUP4 ADD MSTORE PUSH2 0x64E DUP2 DUP5 PUSH2 0x515 JUMP JUMPDEST SWAP1 POP SWAP3 SWAP2 POP POP JUMP JUMPDEST PUSH1 0x0 PUSH1 0x20 DUP3 ADD SWAP1 POP DUP2 DUP2 SUB PUSH1 0x0 DUP4 ADD MSTORE PUSH2 0x66F DUP2 PUSH2 0x54E JUMP JUMPDEST SWAP1 POP SWAP2 SWAP1 POP JUMP JUMPDEST PUSH1 0x0 PUSH1 0x20 DUP3 ADD SWAP1 POP DUP2 DUP2 SUB PUSH1 0x0 DUP4 ADD MSTORE PUSH2 0x68F DUP2 PUSH2 0x571 JUMP JUMPDEST SWAP1 POP SWAP2 SWAP1 POP JUMP JUMPDEST PUSH1 0x0 PUSH1 0x20 DUP3 ADD SWAP1 POP DUP2 DUP2 SUB PUSH1 0x0 DUP4 ADD MSTORE PUSH2 0x6AF DUP2 PUSH2 0x594 JUMP JUMPDEST SWAP1 POP SWAP2 SWAP1 POP JUMP JUMPDEST PUSH1 0x0 PUSH1 0x20 DUP3 ADD SWAP1 POP PUSH2 0x6CB PUSH1 0x0 DUP4 ADD DUP5 PUSH2 0x5DA JUMP JUMPDEST SWAP3 SWAP2 POP POP JUMP JUMPDEST PUSH1 0x0 DUP2 MLOAD SWAP1 POP SWAP2 SWAP1 POP JUMP JUMPDEST PUSH1 0x0 DUP2 SWAP1 POP SWAP3 SWAP2 POP POP JUMP JUMPDEST PUSH1 0x0 DUP3 DUP3 MSTORE PUSH1 0x20 DUP3 ADD SWAP1 POP SWAP3 SWAP2 POP POP JUMP JUMPDEST PUSH1 0x0 PUSH2 0x703 DUP3 PUSH2 0x78C JUMP JUMPDEST SWAP2 POP PUSH2 0x70E DUP4 PUSH2 0x78C JUMP JUMPDEST SWAP3 POP DUP3 PUSH32 0xFFFFFFFFFFFFFFFFFFFFFFFFFFFFFFFFFFFFFFFFFFFFFFFFFFFFFFFFFFFFFFFF SUB DUP3 GT ISZERO PUSH2 0x743 JUMPI PUSH2 0x742 PUSH2 0x7FB JUMP JUMPDEST JUMPDEST DUP3 DUP3 ADD SWAP1 POP SWAP3 SWAP2 POP POP JUMP JUMPDEST PUSH1 0x0 PUSH2 0x759 DUP3 PUSH2 0x76C JUMP JUMPDEST SWAP1 POP SWAP2 SWAP1 POP JUMP JUMPDEST PUSH1 0x0 DUP2 ISZERO ISZERO SWAP1 POP SWAP2 SWAP1 POP JUMP JUMPDEST PUSH1 0x0 PUSH20 0xFFFFFFFFFFFFFFFFFFFFFFFFFFFFFFFFFFFFFFFF DUP3 AND SWAP1 POP SWAP2 SWAP1 POP JUMP JUMPDEST PUSH1 0x0 DUP2 SWAP1 POP SWAP2 SWAP1 POP JUMP JUMPDEST PUSH1 0x0 JUMPDEST DUP4 DUP2 LT ISZERO PUSH2 0x7B4 JUMPI DUP1 DUP3 ADD MLOAD DUP2 DUP5 ADD MSTORE PUSH1 0x20 DUP2 ADD SWAP1 POP PUSH2 0x799 JUMP JUMPDEST DUP4 DUP2 GT ISZERO PUSH2 0x7C3 JUMPI PUSH1 0x0 DUP5 DUP5 ADD MSTORE JUMPDEST POP POP POP POP JUMP JUMPDEST PUSH1 0x0 PUSH1 0x2 DUP3 DIV SWAP1 POP PUSH1 0x1 DUP3 AND DUP1 PUSH2 0x7E1 JUMPI PUSH1 0x7F DUP3 AND SWAP2 POP JUMPDEST PUSH1 0x20 DUP3 LT DUP2 EQ ISZERO PUSH2 0x7F5 JUMPI PUSH2 0x7F4 PUSH2 0x82A JUMP JUMPDEST JUMPDEST POP SWAP2 SWAP1 POP JUMP JUMPDEST PUSH32 0x4E487B7100000000000000000000000000000000000000000000000000000000 PUSH1 0x0 MSTORE PUSH1 0x11 PUSH1 0x4 MSTORE PUSH1 0x24 PUSH1 0x0 REVERT JUMPDEST PUSH32 0x4E487B7100000000000000000000000000000000000000000000000000000000 PUSH1 0x0 MSTORE PUSH1 0x22 PUSH1 0x4 MSTORE PUSH1 0x24 PUSH1 0x0 REVERT JUMPDEST PUSH1 0x0 PUSH1 0x1F NOT PUSH1 0x1F DUP4 ADD AND SWAP1 POP SWAP2 SWAP1 POP JUMP JUMPDEST PUSH32 0x596F752063616E6E6F7420646F6E6174652062656C6F7720247B5F6D696E416D PUSH1 0x0 DUP3 ADD MSTORE PUSH32 0x6F756E747D000000000000000000000000000000000000000000000000000000 PUSH1 0x20 DUP3 ADD MSTORE POP JUMP JUMPDEST PUSH32 0x4F6E6C79206F776E6572206F66207468697320646F6E6174696F6E2063616E20 PUSH1 0x0 DUP3 ADD MSTORE PUSH32 0x77697468647261772066726F6D20697400000000000000000000000000000000 PUSH1 0x20 DUP3 ADD MSTORE POP JUMP JUMPDEST PUSH32 0x596F757220646F6E6174696F6E2077696C6C2063726F73732074686520616D6F PUSH1 0x0 DUP3 ADD MSTORE PUSH32 0x756E74206E656564656400000000000000000000000000000000000000000000 PUSH1 0x20 DUP3 ADD MSTORE POP JUMP JUMPDEST POP JUMP INVALID LOG2 PUSH5 0x6970667358 0x22 SLT KECCAK256 EXTCODEHASH SIGNEXTEND 0xF6 MSIZE LOG1 PUSH26 0x4662CEC930203011942E4B80F261848FEF6BE0A031E9087926C9 PUSH5 0x736F6C6343 STOP ADDMOD SMOD STOP CALLER LOG2 PUSH5 0x6970667358 0x22 SLT KECCAK256 MUL 0xDF 0xCD RETURNDATASIZE SWAP10 RETURNDATACOPY 0xF8 CALLVALUE DELEGATECALL CREATE2 0xB6 SGT 0xE4 0x25 0xC7 SMOD PUSH10 0x1E6684A7BE1246407734 INVALID MSIZE CALL PUSH1 0x8A PUSH5 0x736F6C6343 STOP ADDMOD SMOD STOP CALLER "
				},
				"gasEstimates": {
					"creation": {
						"codeDepositCost": "1400800",
						"executionCost": "1458",
						"totalCost": "1402258"
					},
					"external": {
						"createDonation(string,uint256,bool,uint256)": "infinite",
						"donateToCampaign(address)": "infinite",
						"getCampaigns()": "infinite",
						"getCampainBalance(address)": "infinite",
						"getCampainName(address)": "infinite",
						"getCampainOwner(address)": "infinite",
						"withdrawFromCampaign(address)": "infinite"
					}
				},
				"methodIdentifiers": {
					"createDonation(string,uint256,bool,uint256)": "17cfc652",
					"donateToCampaign(address)": "7c6abc82",
					"getCampaigns()": "a6b03633",
					"getCampainBalance(address)": "767d78b2",
					"getCampainName(address)": "f4139c58",
					"getCampainOwner(address)": "a3e8f260",
					"withdrawFromCampaign(address)": "e5482153"
				}
			},
			"storageLayout": {
				"storage": [
					{
						"astId": 6,
						"contract": "Campaign.sol:Campaign",
						"label": "donations",
						"offset": 0,
						"slot": "0",
						"type": "t_array(t_contract(Donation)286)dyn_storage"
					}
				],
				"types": {
					"t_array(t_contract(Donation)286)dyn_storage": {
						"base": "t_contract(Donation)286",
						"encoding": "dynamic_array",
						"label": "contract Donation[]",
						"numberOfBytes": "32"
					},
					"t_contract(Donation)286": {
						"encoding": "inplace",
						"label": "contract Donation",
						"numberOfBytes": "20"
					}
				}
			},
			"userdoc": {
				"kind": "user",
				"methods": {},
				"version": 1
			}
		}
	}
}