{
	"Time.sol": {
		"Time": {
			"abi": [
				{
					"inputs": [],
					"stateMutability": "payable",
					"type": "constructor"
				},
				{
					"inputs": [],
					"name": "contractBalance",
					"outputs": [
						{
							"internalType": "uint256",
							"name": "",
							"type": "uint256"
						}
					],
					"stateMutability": "view",
					"type": "function"
				},
				{
					"inputs": [],
					"name": "daysPassedSinceLaunch",
					"outputs": [
						{
							"internalType": "bool",
							"name": "",
							"type": "bool"
						}
					],
					"stateMutability": "view",
					"type": "function"
				},
				{
					"inputs": [],
					"name": "deployedDay",
					"outputs": [
						{
							"internalType": "uint256",
							"name": "",
							"type": "uint256"
						}
					],
					"stateMutability": "view",
					"type": "function"
				},
				{
					"inputs": [
						{
							"internalType": "uint256",
							"name": "time",
							"type": "uint256"
						}
					],
					"name": "getSecondsTime",
					"outputs": [
						{
							"internalType": "uint256",
							"name": "",
							"type": "uint256"
						}
					],
					"stateMutability": "view",
					"type": "function"
				},
				{
					"inputs": [
						{
							"internalType": "address",
							"name": "userAddress",
							"type": "address"
						}
					],
					"name": "myBalance",
					"outputs": [
						{
							"internalType": "uint256",
							"name": "",
							"type": "uint256"
						}
					],
					"stateMutability": "view",
					"type": "function"
				},
				{
					"inputs": [],
					"name": "nowTime",
					"outputs": [
						{
							"internalType": "uint256",
							"name": "",
							"type": "uint256"
						}
					],
					"stateMutability": "view",
					"type": "function"
				},
				{
					"inputs": [],
					"name": "oneMinute",
					"outputs": [
						{
							"internalType": "uint256",
							"name": "",
							"type": "uint256"
						}
					],
					"stateMutability": "view",
					"type": "function"
				},
				{
					"inputs": [],
					"name": "oneSecond",
					"outputs": [
						{
							"internalType": "uint256",
							"name": "",
							"type": "uint256"
						}
					],
					"stateMutability": "view",
					"type": "function"
				},
				{
					"inputs": [],
					"name": "threeHours",
					"outputs": [
						{
							"internalType": "uint256",
							"name": "",
							"type": "uint256"
						}
					],
					"stateMutability": "view",
					"type": "function"
				}
			],
			"devdoc": {
				"kind": "dev",
				"methods": {},
				"version": 1
			},
			"evm": {
				"assembly": "    /* \"Time.sol\":72:943  contract Time {... */\n  mstore(0x40, 0x80)\n    /* \"Time.sol\":118:125  3 hours */\n  0x2a30\n    /* \"Time.sol\":93:125  uint public threeHours = 3 hours */\n  0x00\n  sstore\n    /* \"Time.sol\":155:164  1 minutes */\n  0x3c\n    /* \"Time.sol\":131:164  uint public oneMinute = 1 minutes */\n  0x01\n  sstore\n    /* \"Time.sol\":194:203  1 seconds */\n  0x01\n    /* \"Time.sol\":170:203  uint public oneSecond = 1 seconds */\n  0x02\n  sstore\n    /* \"Time.sol\":287:302  block.timestamp */\n  timestamp\n    /* \"Time.sol\":273:284  deployedDay */\n  0x03\n    /* \"Time.sol\":273:302  deployedDay = block.timestamp */\n  dup2\n  swap1\n  sstore\n  pop\n    /* \"Time.sol\":72:943  contract Time {... */\n  dataSize(sub_0)\n  dup1\n  dataOffset(sub_0)\n  0x00\n  codecopy\n  0x00\n  return\nstop\n\nsub_0: assembly {\n        /* \"Time.sol\":72:943  contract Time {... */\n      mstore(0x40, 0x80)\n      callvalue\n      dup1\n      iszero\n      tag_1\n      jumpi\n      0x00\n      dup1\n      revert\n    tag_1:\n      pop\n      jumpi(tag_2, lt(calldatasize, 0x04))\n      shr(0xe0, calldataload(0x00))\n      dup1\n      0x525f6e1d\n      gt\n      tag_12\n      jumpi\n      dup1\n      0x525f6e1d\n      eq\n      tag_7\n      jumpi\n      dup1\n      0x817a5e14\n      eq\n      tag_8\n      jumpi\n      dup1\n      0x8b7afe2e\n      eq\n      tag_9\n      jumpi\n      dup1\n      0x9e2b5a2f\n      eq\n      tag_10\n      jumpi\n      dup1\n      0xcc44b07d\n      eq\n      tag_11\n      jumpi\n      jump(tag_2)\n    tag_12:\n      dup1\n      0x21ed4b27\n      eq\n      tag_3\n      jumpi\n      dup1\n      0x335f1b37\n      eq\n      tag_4\n      jumpi\n      dup1\n      0x3f16ae34\n      eq\n      tag_5\n      jumpi\n      dup1\n      0x469df505\n      eq\n      tag_6\n      jumpi\n    tag_2:\n      0x00\n      dup1\n      revert\n        /* \"Time.sol\":170:203  uint public oneSecond = 1 seconds */\n    tag_3:\n      tag_13\n      tag_14\n      jump\t// in\n    tag_13:\n      mload(0x40)\n      tag_15\n      swap2\n      swap1\n      tag_16\n      jump\t// in\n    tag_15:\n      mload(0x40)\n      dup1\n      swap2\n      sub\n      swap1\n      return\n        /* \"Time.sol\":316:400  function nowTime() view public returns(uint) {... */\n    tag_4:\n      tag_17\n      tag_18\n      jump\t// in\n    tag_17:\n      mload(0x40)\n      tag_19\n      swap2\n      swap1\n      tag_16\n      jump\t// in\n    tag_19:\n      mload(0x40)\n      dup1\n      swap2\n      sub\n      swap1\n      return\n        /* \"Time.sol\":514:742  function daysPassedSinceLaunch() view public returns(bool) {... */\n    tag_5:\n      tag_20\n      tag_21\n      jump\t// in\n    tag_20:\n      mload(0x40)\n      tag_22\n      swap2\n      swap1\n      tag_23\n      jump\t// in\n    tag_22:\n      mload(0x40)\n      dup1\n      swap2\n      sub\n      swap1\n      return\n        /* \"Time.sol\":131:164  uint public oneMinute = 1 minutes */\n    tag_6:\n      tag_24\n      tag_25\n      jump\t// in\n    tag_24:\n      mload(0x40)\n      tag_26\n      swap2\n      swap1\n      tag_16\n      jump\t// in\n    tag_26:\n      mload(0x40)\n      dup1\n      swap2\n      sub\n      swap1\n      return\n        /* \"Time.sol\":210:233  uint public deployedDay */\n    tag_7:\n      tag_27\n      tag_28\n      jump\t// in\n    tag_27:\n      mload(0x40)\n      tag_29\n      swap2\n      swap1\n      tag_16\n      jump\t// in\n    tag_29:\n      mload(0x40)\n      dup1\n      swap2\n      sub\n      swap1\n      return\n        /* \"Time.sol\":748:866  function myBalance(address userAddress) public view returns(uint) {... */\n    tag_8:\n      tag_30\n      0x04\n      dup1\n      calldatasize\n      sub\n      dup2\n      add\n      swap1\n      tag_31\n      swap2\n      swap1\n      tag_32\n      jump\t// in\n    tag_31:\n      tag_33\n      jump\t// in\n    tag_30:\n      mload(0x40)\n      tag_34\n      swap2\n      swap1\n      tag_16\n      jump\t// in\n    tag_34:\n      mload(0x40)\n      dup1\n      swap2\n      sub\n      swap1\n      return\n        /* \"Time.sol\":872:941  function contractBalance() public view returns(uint) {... */\n    tag_9:\n      tag_35\n      tag_36\n      jump\t// in\n    tag_35:\n      mload(0x40)\n      tag_37\n      swap2\n      swap1\n      tag_16\n      jump\t// in\n    tag_37:\n      mload(0x40)\n      dup1\n      swap2\n      sub\n      swap1\n      return\n        /* \"Time.sol\":406:508  function getSecondsTime(uint time) view public returns(uint) {... */\n    tag_10:\n      tag_38\n      0x04\n      dup1\n      calldatasize\n      sub\n      dup2\n      add\n      swap1\n      tag_39\n      swap2\n      swap1\n      tag_40\n      jump\t// in\n    tag_39:\n      tag_41\n      jump\t// in\n    tag_38:\n      mload(0x40)\n      tag_42\n      swap2\n      swap1\n      tag_16\n      jump\t// in\n    tag_42:\n      mload(0x40)\n      dup1\n      swap2\n      sub\n      swap1\n      return\n        /* \"Time.sol\":93:125  uint public threeHours = 3 hours */\n    tag_11:\n      tag_43\n      tag_44\n      jump\t// in\n    tag_43:\n      mload(0x40)\n      tag_45\n      swap2\n      swap1\n      tag_16\n      jump\t// in\n    tag_45:\n      mload(0x40)\n      dup1\n      swap2\n      sub\n      swap1\n      return\n        /* \"Time.sol\":170:203  uint public oneSecond = 1 seconds */\n    tag_14:\n      sload(0x02)\n      dup2\n      jump\t// out\n        /* \"Time.sol\":316:400  function nowTime() view public returns(uint) {... */\n    tag_18:\n        /* \"Time.sol\":355:359  uint */\n      0x00\n        /* \"Time.sol\":378:393  block.timestamp */\n      timestamp\n        /* \"Time.sol\":371:393  return block.timestamp */\n      swap1\n      pop\n        /* \"Time.sol\":316:400  function nowTime() view public returns(uint) {... */\n      swap1\n      jump\t// out\n        /* \"Time.sol\":514:742  function daysPassedSinceLaunch() view public returns(bool) {... */\n    tag_21:\n        /* \"Time.sol\":567:571  bool */\n      0x00\n        /* \"Time.sol\":583:594  uint date_1 */\n      dup1\n        /* \"Time.sol\":597:607  1638352800 */\n      0x61a747a0\n        /* \"Time.sol\":583:607  uint date_1 = 1638352800 */\n      swap1\n      pop\n        /* \"Time.sol\":640:651  uint date_2 */\n      0x00\n        /* \"Time.sol\":672:678  1 days */\n      0x015180\n        /* \"Time.sol\":654:669  block.timestamp */\n      timestamp\n        /* \"Time.sol\":654:678  block.timestamp + 1 days */\n      tag_48\n      swap2\n      swap1\n      tag_49\n      jump\t// in\n    tag_48:\n        /* \"Time.sol\":640:678  uint date_2 = block.timestamp + 1 days */\n      swap1\n      pop\n        /* \"Time.sol\":728:734  date_2 */\n      dup1\n        /* \"Time.sol\":719:725  date_1 */\n      dup3\n        /* \"Time.sol\":719:734  date_1 > date_2 */\n      gt\n        /* \"Time.sol\":711:735  return (date_1 > date_2) */\n      swap3\n      pop\n      pop\n      pop\n        /* \"Time.sol\":514:742  function daysPassedSinceLaunch() view public returns(bool) {... */\n      swap1\n      jump\t// out\n        /* \"Time.sol\":131:164  uint public oneMinute = 1 minutes */\n    tag_25:\n      sload(0x01)\n      dup2\n      jump\t// out\n        /* \"Time.sol\":210:233  uint public deployedDay */\n    tag_28:\n      sload(0x03)\n      dup2\n      jump\t// out\n        /* \"Time.sol\":748:866  function myBalance(address userAddress) public view returns(uint) {... */\n    tag_33:\n        /* \"Time.sol\":808:812  uint */\n      0x00\n        /* \"Time.sol\":839:850  userAddress */\n      dup2\n        /* \"Time.sol\":831:859  address(userAddress).balance */\n      0xffffffffffffffffffffffffffffffffffffffff\n      and\n      balance\n        /* \"Time.sol\":824:859  return address(userAddress).balance */\n      swap1\n      pop\n        /* \"Time.sol\":748:866  function myBalance(address userAddress) public view returns(uint) {... */\n      swap2\n      swap1\n      pop\n      jump\t// out\n        /* \"Time.sol\":872:941  function contractBalance() public view returns(uint) {... */\n    tag_36:\n        /* \"Time.sol\":919:923  uint */\n      0x00\n        /* \"Time.sol\":872:941  function contractBalance() public view returns(uint) {... */\n      swap1\n      jump\t// out\n        /* \"Time.sol\":406:508  function getSecondsTime(uint time) view public returns(uint) {... */\n    tag_41:\n        /* \"Time.sol\":461:465  uint */\n      0x00\n        /* \"Time.sol\":491:501  threeHours */\n      dup1\n      sload\n        /* \"Time.sol\":484:488  time */\n      dup3\n        /* \"Time.sol\":484:501  time * threeHours */\n      tag_53\n      swap2\n      swap1\n      tag_54\n      jump\t// in\n    tag_53:\n        /* \"Time.sol\":477:501  return time * threeHours */\n      swap1\n      pop\n        /* \"Time.sol\":406:508  function getSecondsTime(uint time) view public returns(uint) {... */\n      swap2\n      swap1\n      pop\n      jump\t// out\n        /* \"Time.sol\":93:125  uint public threeHours = 3 hours */\n    tag_44:\n      sload(0x00)\n      dup2\n      jump\t// out\n        /* \"#utility.yul\":7:146   */\n    tag_56:\n        /* \"#utility.yul\":53:58   */\n      0x00\n        /* \"#utility.yul\":91:97   */\n      dup2\n        /* \"#utility.yul\":78:98   */\n      calldataload\n        /* \"#utility.yul\":69:98   */\n      swap1\n      pop\n        /* \"#utility.yul\":107:140   */\n      tag_58\n        /* \"#utility.yul\":134:139   */\n      dup2\n        /* \"#utility.yul\":107:140   */\n      tag_59\n      jump\t// in\n    tag_58:\n        /* \"#utility.yul\":7:146   */\n      swap3\n      swap2\n      pop\n      pop\n      jump\t// out\n        /* \"#utility.yul\":152:291   */\n    tag_60:\n        /* \"#utility.yul\":198:203   */\n      0x00\n        /* \"#utility.yul\":236:242   */\n      dup2\n        /* \"#utility.yul\":223:243   */\n      calldataload\n        /* \"#utility.yul\":214:243   */\n      swap1\n      pop\n        /* \"#utility.yul\":252:285   */\n      tag_62\n        /* \"#utility.yul\":279:284   */\n      dup2\n        /* \"#utility.yul\":252:285   */\n      tag_63\n      jump\t// in\n    tag_62:\n        /* \"#utility.yul\":152:291   */\n      swap3\n      swap2\n      pop\n      pop\n      jump\t// out\n        /* \"#utility.yul\":297:626   */\n    tag_32:\n        /* \"#utility.yul\":356:362   */\n      0x00\n        /* \"#utility.yul\":405:407   */\n      0x20\n        /* \"#utility.yul\":393:402   */\n      dup3\n        /* \"#utility.yul\":384:391   */\n      dup5\n        /* \"#utility.yul\":380:403   */\n      sub\n        /* \"#utility.yul\":376:408   */\n      slt\n        /* \"#utility.yul\":373:492   */\n      iszero\n      tag_65\n      jumpi\n        /* \"#utility.yul\":411:490   */\n      tag_66\n      tag_67\n      jump\t// in\n    tag_66:\n        /* \"#utility.yul\":373:492   */\n    tag_65:\n        /* \"#utility.yul\":531:532   */\n      0x00\n        /* \"#utility.yul\":556:609   */\n      tag_68\n        /* \"#utility.yul\":601:608   */\n      dup5\n        /* \"#utility.yul\":592:598   */\n      dup3\n        /* \"#utility.yul\":581:590   */\n      dup6\n        /* \"#utility.yul\":577:599   */\n      add\n        /* \"#utility.yul\":556:609   */\n      tag_56\n      jump\t// in\n    tag_68:\n        /* \"#utility.yul\":546:609   */\n      swap2\n      pop\n        /* \"#utility.yul\":502:619   */\n      pop\n        /* \"#utility.yul\":297:626   */\n      swap3\n      swap2\n      pop\n      pop\n      jump\t// out\n        /* \"#utility.yul\":632:961   */\n    tag_40:\n        /* \"#utility.yul\":691:697   */\n      0x00\n        /* \"#utility.yul\":740:742   */\n      0x20\n        /* \"#utility.yul\":728:737   */\n      dup3\n        /* \"#utility.yul\":719:726   */\n      dup5\n        /* \"#utility.yul\":715:738   */\n      sub\n        /* \"#utility.yul\":711:743   */\n      slt\n        /* \"#utility.yul\":708:827   */\n      iszero\n      tag_70\n      jumpi\n        /* \"#utility.yul\":746:825   */\n      tag_71\n      tag_67\n      jump\t// in\n    tag_71:\n        /* \"#utility.yul\":708:827   */\n    tag_70:\n        /* \"#utility.yul\":866:867   */\n      0x00\n        /* \"#utility.yul\":891:944   */\n      tag_72\n        /* \"#utility.yul\":936:943   */\n      dup5\n        /* \"#utility.yul\":927:933   */\n      dup3\n        /* \"#utility.yul\":916:925   */\n      dup6\n        /* \"#utility.yul\":912:934   */\n      add\n        /* \"#utility.yul\":891:944   */\n      tag_60\n      jump\t// in\n    tag_72:\n        /* \"#utility.yul\":881:944   */\n      swap2\n      pop\n        /* \"#utility.yul\":837:954   */\n      pop\n        /* \"#utility.yul\":632:961   */\n      swap3\n      swap2\n      pop\n      pop\n      jump\t// out\n        /* \"#utility.yul\":967:1076   */\n    tag_73:\n        /* \"#utility.yul\":1048:1069   */\n      tag_75\n        /* \"#utility.yul\":1063:1068   */\n      dup2\n        /* \"#utility.yul\":1048:1069   */\n      tag_76\n      jump\t// in\n    tag_75:\n        /* \"#utility.yul\":1043:1046   */\n      dup3\n        /* \"#utility.yul\":1036:1070   */\n      mstore\n        /* \"#utility.yul\":967:1076   */\n      pop\n      pop\n      jump\t// out\n        /* \"#utility.yul\":1082:1200   */\n    tag_77:\n        /* \"#utility.yul\":1169:1193   */\n      tag_79\n        /* \"#utility.yul\":1187:1192   */\n      dup2\n        /* \"#utility.yul\":1169:1193   */\n      tag_80\n      jump\t// in\n    tag_79:\n        /* \"#utility.yul\":1164:1167   */\n      dup3\n        /* \"#utility.yul\":1157:1194   */\n      mstore\n        /* \"#utility.yul\":1082:1200   */\n      pop\n      pop\n      jump\t// out\n        /* \"#utility.yul\":1206:1416   */\n    tag_23:\n        /* \"#utility.yul\":1293:1297   */\n      0x00\n        /* \"#utility.yul\":1331:1333   */\n      0x20\n        /* \"#utility.yul\":1320:1329   */\n      dup3\n        /* \"#utility.yul\":1316:1334   */\n      add\n        /* \"#utility.yul\":1308:1334   */\n      swap1\n      pop\n        /* \"#utility.yul\":1344:1409   */\n      tag_82\n        /* \"#utility.yul\":1406:1407   */\n      0x00\n        /* \"#utility.yul\":1395:1404   */\n      dup4\n        /* \"#utility.yul\":1391:1408   */\n      add\n        /* \"#utility.yul\":1382:1388   */\n      dup5\n        /* \"#utility.yul\":1344:1409   */\n      tag_73\n      jump\t// in\n    tag_82:\n        /* \"#utility.yul\":1206:1416   */\n      swap3\n      swap2\n      pop\n      pop\n      jump\t// out\n        /* \"#utility.yul\":1422:1644   */\n    tag_16:\n        /* \"#utility.yul\":1515:1519   */\n      0x00\n        /* \"#utility.yul\":1553:1555   */\n      0x20\n        /* \"#utility.yul\":1542:1551   */\n      dup3\n        /* \"#utility.yul\":1538:1556   */\n      add\n        /* \"#utility.yul\":1530:1556   */\n      swap1\n      pop\n        /* \"#utility.yul\":1566:1637   */\n      tag_84\n        /* \"#utility.yul\":1634:1635   */\n      0x00\n        /* \"#utility.yul\":1623:1632   */\n      dup4\n        /* \"#utility.yul\":1619:1636   */\n      add\n        /* \"#utility.yul\":1610:1616   */\n      dup5\n        /* \"#utility.yul\":1566:1637   */\n      tag_77\n      jump\t// in\n    tag_84:\n        /* \"#utility.yul\":1422:1644   */\n      swap3\n      swap2\n      pop\n      pop\n      jump\t// out\n        /* \"#utility.yul\":1731:2036   */\n    tag_49:\n        /* \"#utility.yul\":1771:1774   */\n      0x00\n        /* \"#utility.yul\":1790:1810   */\n      tag_88\n        /* \"#utility.yul\":1808:1809   */\n      dup3\n        /* \"#utility.yul\":1790:1810   */\n      tag_80\n      jump\t// in\n    tag_88:\n        /* \"#utility.yul\":1785:1810   */\n      swap2\n      pop\n        /* \"#utility.yul\":1824:1844   */\n      tag_89\n        /* \"#utility.yul\":1842:1843   */\n      dup4\n        /* \"#utility.yul\":1824:1844   */\n      tag_80\n      jump\t// in\n    tag_89:\n        /* \"#utility.yul\":1819:1844   */\n      swap3\n      pop\n        /* \"#utility.yul\":1978:1979   */\n      dup3\n        /* \"#utility.yul\":1910:1976   */\n      0xffffffffffffffffffffffffffffffffffffffffffffffffffffffffffffffff\n        /* \"#utility.yul\":1906:1980   */\n      sub\n        /* \"#utility.yul\":1903:1904   */\n      dup3\n        /* \"#utility.yul\":1900:1981   */\n      gt\n        /* \"#utility.yul\":1897:2004   */\n      iszero\n      tag_90\n      jumpi\n        /* \"#utility.yul\":1984:2002   */\n      tag_91\n      tag_92\n      jump\t// in\n    tag_91:\n        /* \"#utility.yul\":1897:2004   */\n    tag_90:\n        /* \"#utility.yul\":2028:2029   */\n      dup3\n        /* \"#utility.yul\":2025:2026   */\n      dup3\n        /* \"#utility.yul\":2021:2030   */\n      add\n        /* \"#utility.yul\":2014:2030   */\n      swap1\n      pop\n        /* \"#utility.yul\":1731:2036   */\n      swap3\n      swap2\n      pop\n      pop\n      jump\t// out\n        /* \"#utility.yul\":2042:2390   */\n    tag_54:\n        /* \"#utility.yul\":2082:2089   */\n      0x00\n        /* \"#utility.yul\":2105:2125   */\n      tag_94\n        /* \"#utility.yul\":2123:2124   */\n      dup3\n        /* \"#utility.yul\":2105:2125   */\n      tag_80\n      jump\t// in\n    tag_94:\n        /* \"#utility.yul\":2100:2125   */\n      swap2\n      pop\n        /* \"#utility.yul\":2139:2159   */\n      tag_95\n        /* \"#utility.yul\":2157:2158   */\n      dup4\n        /* \"#utility.yul\":2139:2159   */\n      tag_80\n      jump\t// in\n    tag_95:\n        /* \"#utility.yul\":2134:2159   */\n      swap3\n      pop\n        /* \"#utility.yul\":2327:2328   */\n      dup2\n        /* \"#utility.yul\":2259:2325   */\n      0xffffffffffffffffffffffffffffffffffffffffffffffffffffffffffffffff\n        /* \"#utility.yul\":2255:2329   */\n      div\n        /* \"#utility.yul\":2252:2253   */\n      dup4\n        /* \"#utility.yul\":2249:2330   */\n      gt\n        /* \"#utility.yul\":2244:2245   */\n      dup3\n        /* \"#utility.yul\":2237:2246   */\n      iszero\n        /* \"#utility.yul\":2230:2247   */\n      iszero\n        /* \"#utility.yul\":2226:2331   */\n      and\n        /* \"#utility.yul\":2223:2354   */\n      iszero\n      tag_96\n      jumpi\n        /* \"#utility.yul\":2334:2352   */\n      tag_97\n      tag_92\n      jump\t// in\n    tag_97:\n        /* \"#utility.yul\":2223:2354   */\n    tag_96:\n        /* \"#utility.yul\":2382:2383   */\n      dup3\n        /* \"#utility.yul\":2379:2380   */\n      dup3\n        /* \"#utility.yul\":2375:2384   */\n      mul\n        /* \"#utility.yul\":2364:2384   */\n      swap1\n      pop\n        /* \"#utility.yul\":2042:2390   */\n      swap3\n      swap2\n      pop\n      pop\n      jump\t// out\n        /* \"#utility.yul\":2396:2492   */\n    tag_98:\n        /* \"#utility.yul\":2433:2440   */\n      0x00\n        /* \"#utility.yul\":2462:2486   */\n      tag_100\n        /* \"#utility.yul\":2480:2485   */\n      dup3\n        /* \"#utility.yul\":2462:2486   */\n      tag_101\n      jump\t// in\n    tag_100:\n        /* \"#utility.yul\":2451:2486   */\n      swap1\n      pop\n        /* \"#utility.yul\":2396:2492   */\n      swap2\n      swap1\n      pop\n      jump\t// out\n        /* \"#utility.yul\":2498:2588   */\n    tag_76:\n        /* \"#utility.yul\":2532:2539   */\n      0x00\n        /* \"#utility.yul\":2575:2580   */\n      dup2\n        /* \"#utility.yul\":2568:2581   */\n      iszero\n        /* \"#utility.yul\":2561:2582   */\n      iszero\n        /* \"#utility.yul\":2550:2582   */\n      swap1\n      pop\n        /* \"#utility.yul\":2498:2588   */\n      swap2\n      swap1\n      pop\n      jump\t// out\n        /* \"#utility.yul\":2594:2720   */\n    tag_101:\n        /* \"#utility.yul\":2631:2638   */\n      0x00\n        /* \"#utility.yul\":2671:2713   */\n      0xffffffffffffffffffffffffffffffffffffffff\n        /* \"#utility.yul\":2664:2669   */\n      dup3\n        /* \"#utility.yul\":2660:2714   */\n      and\n        /* \"#utility.yul\":2649:2714   */\n      swap1\n      pop\n        /* \"#utility.yul\":2594:2720   */\n      swap2\n      swap1\n      pop\n      jump\t// out\n        /* \"#utility.yul\":2726:2803   */\n    tag_80:\n        /* \"#utility.yul\":2763:2770   */\n      0x00\n        /* \"#utility.yul\":2792:2797   */\n      dup2\n        /* \"#utility.yul\":2781:2797   */\n      swap1\n      pop\n        /* \"#utility.yul\":2726:2803   */\n      swap2\n      swap1\n      pop\n      jump\t// out\n        /* \"#utility.yul\":2809:2989   */\n    tag_92:\n        /* \"#utility.yul\":2857:2934   */\n      0x4e487b7100000000000000000000000000000000000000000000000000000000\n        /* \"#utility.yul\":2854:2855   */\n      0x00\n        /* \"#utility.yul\":2847:2935   */\n      mstore\n        /* \"#utility.yul\":2954:2958   */\n      0x11\n        /* \"#utility.yul\":2951:2952   */\n      0x04\n        /* \"#utility.yul\":2944:2959   */\n      mstore\n        /* \"#utility.yul\":2978:2982   */\n      0x24\n        /* \"#utility.yul\":2975:2976   */\n      0x00\n        /* \"#utility.yul\":2968:2983   */\n      revert\n        /* \"#utility.yul\":3118:3235   */\n    tag_67:\n        /* \"#utility.yul\":3227:3228   */\n      0x00\n        /* \"#utility.yul\":3224:3225   */\n      dup1\n        /* \"#utility.yul\":3217:3229   */\n      revert\n        /* \"#utility.yul\":3241:3363   */\n    tag_59:\n        /* \"#utility.yul\":3314:3338   */\n      tag_110\n        /* \"#utility.yul\":3332:3337   */\n      dup2\n        /* \"#utility.yul\":3314:3338   */\n      tag_98\n      jump\t// in\n    tag_110:\n        /* \"#utility.yul\":3307:3312   */\n      dup2\n        /* \"#utility.yul\":3304:3339   */\n      eq\n        /* \"#utility.yul\":3294:3357   */\n      tag_111\n      jumpi\n        /* \"#utility.yul\":3353:3354   */\n      0x00\n        /* \"#utility.yul\":3350:3351   */\n      dup1\n        /* \"#utility.yul\":3343:3355   */\n      revert\n        /* \"#utility.yul\":3294:3357   */\n    tag_111:\n        /* \"#utility.yul\":3241:3363   */\n      pop\n      jump\t// out\n        /* \"#utility.yul\":3369:3491   */\n    tag_63:\n        /* \"#utility.yul\":3442:3466   */\n      tag_113\n        /* \"#utility.yul\":3460:3465   */\n      dup2\n        /* \"#utility.yul\":3442:3466   */\n      tag_80\n      jump\t// in\n    tag_113:\n        /* \"#utility.yul\":3435:3440   */\n      dup2\n        /* \"#utility.yul\":3432:3467   */\n      eq\n        /* \"#utility.yul\":3422:3485   */\n      tag_114\n      jumpi\n        /* \"#utility.yul\":3481:3482   */\n      0x00\n        /* \"#utility.yul\":3478:3479   */\n      dup1\n        /* \"#utility.yul\":3471:3483   */\n      revert\n        /* \"#utility.yul\":3422:3485   */\n    tag_114:\n        /* \"#utility.yul\":3369:3491   */\n      pop\n      jump\t// out\n\n    auxdata: 0xa2646970667358221220fa0e550f05ba7fe931d54fa8ed046e9ee513f3a9beae31056f1ae884c5c14e2b64736f6c63430008070033\n}\n",
				"bytecode": {
					"linkReferences": {},
					"object": "6080604052612a30600055603c6001556001600255426003819055506104b58061002a6000396000f3fe608060405234801561001057600080fd5b50600436106100935760003560e01c8063525f6e1d11610066578063525f6e1d14610110578063817a5e141461012e5780638b7afe2e1461015e5780639e2b5a2f1461017c578063cc44b07d146101ac57610093565b806321ed4b2714610098578063335f1b37146100b65780633f16ae34146100d4578063469df505146100f2575b600080fd5b6100a06101ca565b6040516100ad919061030a565b60405180910390f35b6100be6101d0565b6040516100cb919061030a565b60405180910390f35b6100dc6101d8565b6040516100e991906102ef565b60405180910390f35b6100fa6101ff565b604051610107919061030a565b60405180910390f35b610118610205565b604051610125919061030a565b60405180910390f35b61014860048036038101906101439190610277565b61020b565b604051610155919061030a565b60405180910390f35b61016661022c565b604051610173919061030a565b60405180910390f35b610196600480360381019061019191906102a4565b610231565b6040516101a3919061030a565b60405180910390f35b6101b4610247565b6040516101c1919061030a565b60405180910390f35b60025481565b600042905090565b6000806361a747a09050600062015180426101f39190610325565b90508082119250505090565b60015481565b60035481565b60008173ffffffffffffffffffffffffffffffffffffffff16319050919050565b600090565b6000805482610240919061037b565b9050919050565b60005481565b60008135905061025c81610451565b92915050565b60008135905061027181610468565b92915050565b60006020828403121561028d5761028c61044c565b5b600061029b8482850161024d565b91505092915050565b6000602082840312156102ba576102b961044c565b5b60006102c884828501610262565b91505092915050565b6102da816103e7565b82525050565b6102e981610413565b82525050565b600060208201905061030460008301846102d1565b92915050565b600060208201905061031f60008301846102e0565b92915050565b600061033082610413565b915061033b83610413565b9250827fffffffffffffffffffffffffffffffffffffffffffffffffffffffffffffffff038211156103705761036f61041d565b5b828201905092915050565b600061038682610413565b915061039183610413565b9250817fffffffffffffffffffffffffffffffffffffffffffffffffffffffffffffffff04831182151516156103ca576103c961041d565b5b828202905092915050565b60006103e0826103f3565b9050919050565b60008115159050919050565b600073ffffffffffffffffffffffffffffffffffffffff82169050919050565b6000819050919050565b7f4e487b7100000000000000000000000000000000000000000000000000000000600052601160045260246000fd5b600080fd5b61045a816103d5565b811461046557600080fd5b50565b61047181610413565b811461047c57600080fd5b5056fea2646970667358221220fa0e550f05ba7fe931d54fa8ed046e9ee513f3a9beae31056f1ae884c5c14e2b64736f6c63430008070033",
					"opcodes": "PUSH1 0x80 PUSH1 0x40 MSTORE PUSH2 0x2A30 PUSH1 0x0 SSTORE PUSH1 0x3C PUSH1 0x1 SSTORE PUSH1 0x1 PUSH1 0x2 SSTORE TIMESTAMP PUSH1 0x3 DUP2 SWAP1 SSTORE POP PUSH2 0x4B5 DUP1 PUSH2 0x2A PUSH1 0x0 CODECOPY PUSH1 0x0 RETURN INVALID PUSH1 0x80 PUSH1 0x40 MSTORE CALLVALUE DUP1 ISZERO PUSH2 0x10 JUMPI PUSH1 0x0 DUP1 REVERT JUMPDEST POP PUSH1 0x4 CALLDATASIZE LT PUSH2 0x93 JUMPI PUSH1 0x0 CALLDATALOAD PUSH1 0xE0 SHR DUP1 PUSH4 0x525F6E1D GT PUSH2 0x66 JUMPI DUP1 PUSH4 0x525F6E1D EQ PUSH2 0x110 JUMPI DUP1 PUSH4 0x817A5E14 EQ PUSH2 0x12E JUMPI DUP1 PUSH4 0x8B7AFE2E EQ PUSH2 0x15E JUMPI DUP1 PUSH4 0x9E2B5A2F EQ PUSH2 0x17C JUMPI DUP1 PUSH4 0xCC44B07D EQ PUSH2 0x1AC JUMPI PUSH2 0x93 JUMP JUMPDEST DUP1 PUSH4 0x21ED4B27 EQ PUSH2 0x98 JUMPI DUP1 PUSH4 0x335F1B37 EQ PUSH2 0xB6 JUMPI DUP1 PUSH4 0x3F16AE34 EQ PUSH2 0xD4 JUMPI DUP1 PUSH4 0x469DF505 EQ PUSH2 0xF2 JUMPI JUMPDEST PUSH1 0x0 DUP1 REVERT JUMPDEST PUSH2 0xA0 PUSH2 0x1CA JUMP JUMPDEST PUSH1 0x40 MLOAD PUSH2 0xAD SWAP2 SWAP1 PUSH2 0x30A JUMP JUMPDEST PUSH1 0x40 MLOAD DUP1 SWAP2 SUB SWAP1 RETURN JUMPDEST PUSH2 0xBE PUSH2 0x1D0 JUMP JUMPDEST PUSH1 0x40 MLOAD PUSH2 0xCB SWAP2 SWAP1 PUSH2 0x30A JUMP JUMPDEST PUSH1 0x40 MLOAD DUP1 SWAP2 SUB SWAP1 RETURN JUMPDEST PUSH2 0xDC PUSH2 0x1D8 JUMP JUMPDEST PUSH1 0x40 MLOAD PUSH2 0xE9 SWAP2 SWAP1 PUSH2 0x2EF JUMP JUMPDEST PUSH1 0x40 MLOAD DUP1 SWAP2 SUB SWAP1 RETURN JUMPDEST PUSH2 0xFA PUSH2 0x1FF JUMP JUMPDEST PUSH1 0x40 MLOAD PUSH2 0x107 SWAP2 SWAP1 PUSH2 0x30A JUMP JUMPDEST PUSH1 0x40 MLOAD DUP1 SWAP2 SUB SWAP1 RETURN JUMPDEST PUSH2 0x118 PUSH2 0x205 JUMP JUMPDEST PUSH1 0x40 MLOAD PUSH2 0x125 SWAP2 SWAP1 PUSH2 0x30A JUMP JUMPDEST PUSH1 0x40 MLOAD DUP1 SWAP2 SUB SWAP1 RETURN JUMPDEST PUSH2 0x148 PUSH1 0x4 DUP1 CALLDATASIZE SUB DUP2 ADD SWAP1 PUSH2 0x143 SWAP2 SWAP1 PUSH2 0x277 JUMP JUMPDEST PUSH2 0x20B JUMP JUMPDEST PUSH1 0x40 MLOAD PUSH2 0x155 SWAP2 SWAP1 PUSH2 0x30A JUMP JUMPDEST PUSH1 0x40 MLOAD DUP1 SWAP2 SUB SWAP1 RETURN JUMPDEST PUSH2 0x166 PUSH2 0x22C JUMP JUMPDEST PUSH1 0x40 MLOAD PUSH2 0x173 SWAP2 SWAP1 PUSH2 0x30A JUMP JUMPDEST PUSH1 0x40 MLOAD DUP1 SWAP2 SUB SWAP1 RETURN JUMPDEST PUSH2 0x196 PUSH1 0x4 DUP1 CALLDATASIZE SUB DUP2 ADD SWAP1 PUSH2 0x191 SWAP2 SWAP1 PUSH2 0x2A4 JUMP JUMPDEST PUSH2 0x231 JUMP JUMPDEST PUSH1 0x40 MLOAD PUSH2 0x1A3 SWAP2 SWAP1 PUSH2 0x30A JUMP JUMPDEST PUSH1 0x40 MLOAD DUP1 SWAP2 SUB SWAP1 RETURN JUMPDEST PUSH2 0x1B4 PUSH2 0x247 JUMP JUMPDEST PUSH1 0x40 MLOAD PUSH2 0x1C1 SWAP2 SWAP1 PUSH2 0x30A JUMP JUMPDEST PUSH1 0x40 MLOAD DUP1 SWAP2 SUB SWAP1 RETURN JUMPDEST PUSH1 0x2 SLOAD DUP2 JUMP JUMPDEST PUSH1 0x0 TIMESTAMP SWAP1 POP SWAP1 JUMP JUMPDEST PUSH1 0x0 DUP1 PUSH4 0x61A747A0 SWAP1 POP PUSH1 0x0 PUSH3 0x15180 TIMESTAMP PUSH2 0x1F3 SWAP2 SWAP1 PUSH2 0x325 JUMP JUMPDEST SWAP1 POP DUP1 DUP3 GT SWAP3 POP POP POP SWAP1 JUMP JUMPDEST PUSH1 0x1 SLOAD DUP2 JUMP JUMPDEST PUSH1 0x3 SLOAD DUP2 JUMP JUMPDEST PUSH1 0x0 DUP2 PUSH20 0xFFFFFFFFFFFFFFFFFFFFFFFFFFFFFFFFFFFFFFFF AND BALANCE SWAP1 POP SWAP2 SWAP1 POP JUMP JUMPDEST PUSH1 0x0 SWAP1 JUMP JUMPDEST PUSH1 0x0 DUP1 SLOAD DUP3 PUSH2 0x240 SWAP2 SWAP1 PUSH2 0x37B JUMP JUMPDEST SWAP1 POP SWAP2 SWAP1 POP JUMP JUMPDEST PUSH1 0x0 SLOAD DUP2 JUMP JUMPDEST PUSH1 0x0 DUP2 CALLDATALOAD SWAP1 POP PUSH2 0x25C DUP2 PUSH2 0x451 JUMP JUMPDEST SWAP3 SWAP2 POP POP JUMP JUMPDEST PUSH1 0x0 DUP2 CALLDATALOAD SWAP1 POP PUSH2 0x271 DUP2 PUSH2 0x468 JUMP JUMPDEST SWAP3 SWAP2 POP POP JUMP JUMPDEST PUSH1 0x0 PUSH1 0x20 DUP3 DUP5 SUB SLT ISZERO PUSH2 0x28D JUMPI PUSH2 0x28C PUSH2 0x44C JUMP JUMPDEST JUMPDEST PUSH1 0x0 PUSH2 0x29B DUP5 DUP3 DUP6 ADD PUSH2 0x24D JUMP JUMPDEST SWAP2 POP POP SWAP3 SWAP2 POP POP JUMP JUMPDEST PUSH1 0x0 PUSH1 0x20 DUP3 DUP5 SUB SLT ISZERO PUSH2 0x2BA JUMPI PUSH2 0x2B9 PUSH2 0x44C JUMP JUMPDEST JUMPDEST PUSH1 0x0 PUSH2 0x2C8 DUP5 DUP3 DUP6 ADD PUSH2 0x262 JUMP JUMPDEST SWAP2 POP POP SWAP3 SWAP2 POP POP JUMP JUMPDEST PUSH2 0x2DA DUP2 PUSH2 0x3E7 JUMP JUMPDEST DUP3 MSTORE POP POP JUMP JUMPDEST PUSH2 0x2E9 DUP2 PUSH2 0x413 JUMP JUMPDEST DUP3 MSTORE POP POP JUMP JUMPDEST PUSH1 0x0 PUSH1 0x20 DUP3 ADD SWAP1 POP PUSH2 0x304 PUSH1 0x0 DUP4 ADD DUP5 PUSH2 0x2D1 JUMP JUMPDEST SWAP3 SWAP2 POP POP JUMP JUMPDEST PUSH1 0x0 PUSH1 0x20 DUP3 ADD SWAP1 POP PUSH2 0x31F PUSH1 0x0 DUP4 ADD DUP5 PUSH2 0x2E0 JUMP JUMPDEST SWAP3 SWAP2 POP POP JUMP JUMPDEST PUSH1 0x0 PUSH2 0x330 DUP3 PUSH2 0x413 JUMP JUMPDEST SWAP2 POP PUSH2 0x33B DUP4 PUSH2 0x413 JUMP JUMPDEST SWAP3 POP DUP3 PUSH32 0xFFFFFFFFFFFFFFFFFFFFFFFFFFFFFFFFFFFFFFFFFFFFFFFFFFFFFFFFFFFFFFFF SUB DUP3 GT ISZERO PUSH2 0x370 JUMPI PUSH2 0x36F PUSH2 0x41D JUMP JUMPDEST JUMPDEST DUP3 DUP3 ADD SWAP1 POP SWAP3 SWAP2 POP POP JUMP JUMPDEST PUSH1 0x0 PUSH2 0x386 DUP3 PUSH2 0x413 JUMP JUMPDEST SWAP2 POP PUSH2 0x391 DUP4 PUSH2 0x413 JUMP JUMPDEST SWAP3 POP DUP2 PUSH32 0xFFFFFFFFFFFFFFFFFFFFFFFFFFFFFFFFFFFFFFFFFFFFFFFFFFFFFFFFFFFFFFFF DIV DUP4 GT DUP3 ISZERO ISZERO AND ISZERO PUSH2 0x3CA JUMPI PUSH2 0x3C9 PUSH2 0x41D JUMP JUMPDEST JUMPDEST DUP3 DUP3 MUL SWAP1 POP SWAP3 SWAP2 POP POP JUMP JUMPDEST PUSH1 0x0 PUSH2 0x3E0 DUP3 PUSH2 0x3F3 JUMP JUMPDEST SWAP1 POP SWAP2 SWAP1 POP JUMP JUMPDEST PUSH1 0x0 DUP2 ISZERO ISZERO SWAP1 POP SWAP2 SWAP1 POP JUMP JUMPDEST PUSH1 0x0 PUSH20 0xFFFFFFFFFFFFFFFFFFFFFFFFFFFFFFFFFFFFFFFF DUP3 AND SWAP1 POP SWAP2 SWAP1 POP JUMP JUMPDEST PUSH1 0x0 DUP2 SWAP1 POP SWAP2 SWAP1 POP JUMP JUMPDEST PUSH32 0x4E487B7100000000000000000000000000000000000000000000000000000000 PUSH1 0x0 MSTORE PUSH1 0x11 PUSH1 0x4 MSTORE PUSH1 0x24 PUSH1 0x0 REVERT JUMPDEST PUSH1 0x0 DUP1 REVERT JUMPDEST PUSH2 0x45A DUP2 PUSH2 0x3D5 JUMP JUMPDEST DUP2 EQ PUSH2 0x465 JUMPI PUSH1 0x0 DUP1 REVERT JUMPDEST POP JUMP JUMPDEST PUSH2 0x471 DUP2 PUSH2 0x413 JUMP JUMPDEST DUP2 EQ PUSH2 0x47C JUMPI PUSH1 0x0 DUP1 REVERT JUMPDEST POP JUMP INVALID LOG2 PUSH5 0x6970667358 0x22 SLT KECCAK256 STATICCALL 0xE SSTORE 0xF SDIV 0xBA PUSH32 0xE931D54FA8ED046E9EE513F3A9BEAE31056F1AE884C5C14E2B64736F6C634300 ADDMOD SMOD STOP CALLER "
				},
				"gasEstimates": {
					"creation": {
						"codeDepositCost": "241000",
						"executionCost": "88688",
						"totalCost": "329688"
					},
					"external": {
						"contractBalance()": "373",
						"daysPassedSinceLaunch()": "infinite",
						"deployedDay()": "2429",
						"getSecondsTime(uint256)": "infinite",
						"myBalance(address)": "3279",
						"nowTime()": "359",
						"oneMinute()": "2496",
						"oneSecond()": "2430",
						"threeHours()": "2517"
					}
				},
				"methodIdentifiers": {
					"contractBalance()": "8b7afe2e",
					"daysPassedSinceLaunch()": "3f16ae34",
					"deployedDay()": "525f6e1d",
					"getSecondsTime(uint256)": "9e2b5a2f",
					"myBalance(address)": "817a5e14",
					"nowTime()": "335f1b37",
					"oneMinute()": "469df505",
					"oneSecond()": "21ed4b27",
					"threeHours()": "cc44b07d"
				}
			},
			"storageLayout": {
				"storage": [
					{
						"astId": 4,
						"contract": "Time.sol:Time",
						"label": "threeHours",
						"offset": 0,
						"slot": "0",
						"type": "t_uint256"
					},
					{
						"astId": 7,
						"contract": "Time.sol:Time",
						"label": "oneMinute",
						"offset": 0,
						"slot": "1",
						"type": "t_uint256"
					},
					{
						"astId": 10,
						"contract": "Time.sol:Time",
						"label": "oneSecond",
						"offset": 0,
						"slot": "2",
						"type": "t_uint256"
					},
					{
						"astId": 12,
						"contract": "Time.sol:Time",
						"label": "deployedDay",
						"offset": 0,
						"slot": "3",
						"type": "t_uint256"
					}
				],
				"types": {
					"t_uint256": {
						"encoding": "inplace",
						"label": "uint256",
						"numberOfBytes": "32"
					}
				}
			},
			"userdoc": {
				"kind": "user",
				"methods": {},
				"version": 1
			}
		}
	}
}