{
	"Donation.sol": {
		"Donation": {
			"abi": [
				{
					"inputs": [
						{
							"internalType": "string",
							"name": "name",
							"type": "string"
						},
						{
							"internalType": "uint256",
							"name": "minAmount",
							"type": "uint256"
						},
						{
							"internalType": "bool",
							"name": "accept",
							"type": "bool"
						},
						{
							"internalType": "uint256",
							"name": "amountNeeded",
							"type": "uint256"
						}
					],
					"stateMutability": "nonpayable",
					"type": "constructor"
				},
				{
					"inputs": [],
					"name": "_amountNeeded",
					"outputs": [
						{
							"internalType": "uint256",
							"name": "",
							"type": "uint256"
						}
					],
					"stateMutability": "view",
					"type": "function"
				},
				{
					"inputs": [],
					"name": "_minAmount",
					"outputs": [
						{
							"internalType": "uint256",
							"name": "",
							"type": "uint256"
						}
					],
					"stateMutability": "view",
					"type": "function"
				},
				{
					"inputs": [],
					"name": "_name",
					"outputs": [
						{
							"internalType": "string",
							"name": "",
							"type": "string"
						}
					],
					"stateMutability": "view",
					"type": "function"
				},
				{
					"inputs": [],
					"name": "donate",
					"outputs": [],
					"stateMutability": "payable",
					"type": "function"
				}
			],
			"devdoc": {
				"kind": "dev",
				"methods": {},
				"version": 1
			},
			"evm": {
				"assembly": "    /* \"Donation.sol\":72:583  contract Donation {... */\n  mstore(0x40, 0x80)\n    /* \"Donation.sol\":223:449  constructor(string memory name, uint minAmount, bool accept, uint amountNeeded) {... */\n  callvalue\n  dup1\n  iszero\n  tag_1\n  jumpi\n  0x00\n  dup1\n  revert\ntag_1:\n  pop\n  mload(0x40)\n  sub(codesize, bytecodeSize)\n  dup1\n  bytecodeSize\n  dup4\n  codecopy\n  dup2\n  dup2\n  add\n  0x40\n  mstore\n  dup2\n  add\n  swap1\n  tag_2\n  swap2\n  swap1\n  tag_3\n  jump\t// in\ntag_2:\n    /* \"Donation.sol\":321:325  name */\n  dup4\n    /* \"Donation.sol\":313:318  _name */\n  0x00\n    /* \"Donation.sol\":313:325  _name = name */\n  swap1\n  dup1\n  mload\n  swap1\n  0x20\n  add\n  swap1\n  tag_6\n  swap3\n  swap2\n  swap1\n  tag_7\n  jump\t// in\ntag_6:\n  pop\n    /* \"Donation.sol\":348:357  minAmount */\n  dup3\n    /* \"Donation.sol\":335:345  _minAmount */\n  0x01\n    /* \"Donation.sol\":335:357  _minAmount = minAmount */\n  dup2\n  swap1\n  sstore\n  pop\n    /* \"Donation.sol\":398:404  accept */\n  dup2\n    /* \"Donation.sol\":367:395  _acceptPaymentAfterAmountMet */\n  0x03\n  0x00\n    /* \"Donation.sol\":367:404  _acceptPaymentAfterAmountMet = accept */\n  0x0100\n  exp\n  dup2\n  sload\n  dup2\n  0xff\n  mul\n  not\n  and\n  swap1\n  dup4\n  iszero\n  iszero\n  mul\n  or\n  swap1\n  sstore\n  pop\n    /* \"Donation.sol\":430:442  amountNeeded */\n  dup1\n    /* \"Donation.sol\":414:427  _amountNeeded */\n  0x02\n    /* \"Donation.sol\":414:442  _amountNeeded = amountNeeded */\n  dup2\n  swap1\n  sstore\n  pop\n    /* \"Donation.sol\":223:449  constructor(string memory name, uint minAmount, bool accept, uint amountNeeded) {... */\n  pop\n  pop\n  pop\n  pop\n    /* \"Donation.sol\":72:583  contract Donation {... */\n  jump(tag_8)\ntag_7:\n  dup3\n  dup1\n  sload\n  tag_9\n  swap1\n  tag_10\n  jump\t// in\ntag_9:\n  swap1\n  0x00\n  mstore\n  keccak256(0x00, 0x20)\n  swap1\n  0x1f\n  add\n  0x20\n  swap1\n  div\n  dup2\n  add\n  swap3\n  dup3\n  tag_12\n  jumpi\n  0x00\n  dup6\n  sstore\n  jump(tag_11)\ntag_12:\n  dup3\n  0x1f\n  lt\n  tag_13\n  jumpi\n  dup1\n  mload\n  not(0xff)\n  and\n  dup4\n  dup1\n  add\n  or\n  dup6\n  sstore\n  jump(tag_11)\ntag_13:\n  dup3\n  dup1\n  add\n  0x01\n  add\n  dup6\n  sstore\n  dup3\n  iszero\n  tag_11\n  jumpi\n  swap2\n  dup3\n  add\ntag_14:\n  dup3\n  dup2\n  gt\n  iszero\n  tag_15\n  jumpi\n  dup3\n  mload\n  dup3\n  sstore\n  swap2\n  0x20\n  add\n  swap2\n  swap1\n  0x01\n  add\n  swap1\n  jump(tag_14)\ntag_15:\ntag_11:\n  pop\n  swap1\n  pop\n  tag_16\n  swap2\n  swap1\n  tag_17\n  jump\t// in\ntag_16:\n  pop\n  swap1\n  jump\t// out\ntag_17:\ntag_18:\n  dup1\n  dup3\n  gt\n  iszero\n  tag_19\n  jumpi\n  0x00\n  dup2\n  0x00\n  swap1\n  sstore\n  pop\n  0x01\n  add\n  jump(tag_18)\ntag_19:\n  pop\n  swap1\n  jump\t// out\n    /* \"#utility.yul\":7:428   */\ntag_21:\n    /* \"#utility.yul\":96:101   */\n  0x00\n    /* \"#utility.yul\":121:187   */\n  tag_23\n    /* \"#utility.yul\":137:186   */\n  tag_24\n    /* \"#utility.yul\":179:185   */\n  dup5\n    /* \"#utility.yul\":137:186   */\n  tag_25\n  jump\t// in\ntag_24:\n    /* \"#utility.yul\":121:187   */\n  tag_26\n  jump\t// in\ntag_23:\n    /* \"#utility.yul\":112:187   */\n  swap1\n  pop\n    /* \"#utility.yul\":210:216   */\n  dup3\n    /* \"#utility.yul\":203:208   */\n  dup2\n    /* \"#utility.yul\":196:217   */\n  mstore\n    /* \"#utility.yul\":248:252   */\n  0x20\n    /* \"#utility.yul\":241:246   */\n  dup2\n    /* \"#utility.yul\":237:253   */\n  add\n    /* \"#utility.yul\":286:289   */\n  dup5\n    /* \"#utility.yul\":277:283   */\n  dup5\n    /* \"#utility.yul\":272:275   */\n  dup5\n    /* \"#utility.yul\":268:284   */\n  add\n    /* \"#utility.yul\":265:290   */\n  gt\n    /* \"#utility.yul\":262:374   */\n  iszero\n  tag_27\n  jumpi\n    /* \"#utility.yul\":293:372   */\n  tag_28\n  tag_29\n  jump\t// in\ntag_28:\n    /* \"#utility.yul\":262:374   */\ntag_27:\n    /* \"#utility.yul\":383:422   */\n  tag_30\n    /* \"#utility.yul\":415:421   */\n  dup5\n    /* \"#utility.yul\":410:413   */\n  dup3\n    /* \"#utility.yul\":405:408   */\n  dup6\n    /* \"#utility.yul\":383:422   */\n  tag_31\n  jump\t// in\ntag_30:\n    /* \"#utility.yul\":102:428   */\n  pop\n    /* \"#utility.yul\":7:428   */\n  swap4\n  swap3\n  pop\n  pop\n  pop\n  jump\t// out\n    /* \"#utility.yul\":434:571   */\ntag_32:\n    /* \"#utility.yul\":488:493   */\n  0x00\n    /* \"#utility.yul\":519:525   */\n  dup2\n    /* \"#utility.yul\":513:526   */\n  mload\n    /* \"#utility.yul\":504:526   */\n  swap1\n  pop\n    /* \"#utility.yul\":535:565   */\n  tag_34\n    /* \"#utility.yul\":559:564   */\n  dup2\n    /* \"#utility.yul\":535:565   */\n  tag_35\n  jump\t// in\ntag_34:\n    /* \"#utility.yul\":434:571   */\n  swap3\n  swap2\n  pop\n  pop\n  jump\t// out\n    /* \"#utility.yul\":591:946   */\ntag_36:\n    /* \"#utility.yul\":658:663   */\n  0x00\n    /* \"#utility.yul\":707:710   */\n  dup3\n    /* \"#utility.yul\":700:704   */\n  0x1f\n    /* \"#utility.yul\":692:698   */\n  dup4\n    /* \"#utility.yul\":688:705   */\n  add\n    /* \"#utility.yul\":684:711   */\n  slt\n    /* \"#utility.yul\":674:796   */\n  tag_38\n  jumpi\n    /* \"#utility.yul\":715:794   */\n  tag_39\n  tag_40\n  jump\t// in\ntag_39:\n    /* \"#utility.yul\":674:796   */\ntag_38:\n    /* \"#utility.yul\":825:831   */\n  dup2\n    /* \"#utility.yul\":819:832   */\n  mload\n    /* \"#utility.yul\":850:940   */\n  tag_41\n    /* \"#utility.yul\":936:939   */\n  dup5\n    /* \"#utility.yul\":928:934   */\n  dup3\n    /* \"#utility.yul\":921:925   */\n  0x20\n    /* \"#utility.yul\":913:919   */\n  dup7\n    /* \"#utility.yul\":909:926   */\n  add\n    /* \"#utility.yul\":850:940   */\n  tag_21\n  jump\t// in\ntag_41:\n    /* \"#utility.yul\":841:940   */\n  swap2\n  pop\n    /* \"#utility.yul\":664:946   */\n  pop\n    /* \"#utility.yul\":591:946   */\n  swap3\n  swap2\n  pop\n  pop\n  jump\t// out\n    /* \"#utility.yul\":952:1095   */\ntag_42:\n    /* \"#utility.yul\":1009:1014   */\n  0x00\n    /* \"#utility.yul\":1040:1046   */\n  dup2\n    /* \"#utility.yul\":1034:1047   */\n  mload\n    /* \"#utility.yul\":1025:1047   */\n  swap1\n  pop\n    /* \"#utility.yul\":1056:1089   */\n  tag_44\n    /* \"#utility.yul\":1083:1088   */\n  dup2\n    /* \"#utility.yul\":1056:1089   */\n  tag_45\n  jump\t// in\ntag_44:\n    /* \"#utility.yul\":952:1095   */\n  swap3\n  swap2\n  pop\n  pop\n  jump\t// out\n    /* \"#utility.yul\":1101:2088   */\ntag_3:\n    /* \"#utility.yul\":1205:1211   */\n  0x00\n    /* \"#utility.yul\":1213:1219   */\n  dup1\n    /* \"#utility.yul\":1221:1227   */\n  0x00\n    /* \"#utility.yul\":1229:1235   */\n  dup1\n    /* \"#utility.yul\":1278:1281   */\n  0x80\n    /* \"#utility.yul\":1266:1275   */\n  dup6\n    /* \"#utility.yul\":1257:1264   */\n  dup8\n    /* \"#utility.yul\":1253:1276   */\n  sub\n    /* \"#utility.yul\":1249:1282   */\n  slt\n    /* \"#utility.yul\":1246:1366   */\n  iszero\n  tag_47\n  jumpi\n    /* \"#utility.yul\":1285:1364   */\n  tag_48\n  tag_49\n  jump\t// in\ntag_48:\n    /* \"#utility.yul\":1246:1366   */\ntag_47:\n    /* \"#utility.yul\":1426:1427   */\n  0x00\n    /* \"#utility.yul\":1415:1424   */\n  dup6\n    /* \"#utility.yul\":1411:1428   */\n  add\n    /* \"#utility.yul\":1405:1429   */\n  mload\n    /* \"#utility.yul\":1456:1474   */\n  0xffffffffffffffff\n    /* \"#utility.yul\":1448:1454   */\n  dup2\n    /* \"#utility.yul\":1445:1475   */\n  gt\n    /* \"#utility.yul\":1442:1559   */\n  iszero\n  tag_50\n  jumpi\n    /* \"#utility.yul\":1478:1557   */\n  tag_51\n  tag_52\n  jump\t// in\ntag_51:\n    /* \"#utility.yul\":1442:1559   */\ntag_50:\n    /* \"#utility.yul\":1583:1657   */\n  tag_53\n    /* \"#utility.yul\":1649:1656   */\n  dup8\n    /* \"#utility.yul\":1640:1646   */\n  dup3\n    /* \"#utility.yul\":1629:1638   */\n  dup9\n    /* \"#utility.yul\":1625:1647   */\n  add\n    /* \"#utility.yul\":1583:1657   */\n  tag_36\n  jump\t// in\ntag_53:\n    /* \"#utility.yul\":1573:1657   */\n  swap5\n  pop\n    /* \"#utility.yul\":1376:1667   */\n  pop\n    /* \"#utility.yul\":1706:1708   */\n  0x20\n    /* \"#utility.yul\":1732:1796   */\n  tag_54\n    /* \"#utility.yul\":1788:1795   */\n  dup8\n    /* \"#utility.yul\":1779:1785   */\n  dup3\n    /* \"#utility.yul\":1768:1777   */\n  dup9\n    /* \"#utility.yul\":1764:1786   */\n  add\n    /* \"#utility.yul\":1732:1796   */\n  tag_42\n  jump\t// in\ntag_54:\n    /* \"#utility.yul\":1722:1796   */\n  swap4\n  pop\n    /* \"#utility.yul\":1677:1806   */\n  pop\n    /* \"#utility.yul\":1845:1847   */\n  0x40\n    /* \"#utility.yul\":1871:1932   */\n  tag_55\n    /* \"#utility.yul\":1924:1931   */\n  dup8\n    /* \"#utility.yul\":1915:1921   */\n  dup3\n    /* \"#utility.yul\":1904:1913   */\n  dup9\n    /* \"#utility.yul\":1900:1922   */\n  add\n    /* \"#utility.yul\":1871:1932   */\n  tag_32\n  jump\t// in\ntag_55:\n    /* \"#utility.yul\":1861:1932   */\n  swap3\n  pop\n    /* \"#utility.yul\":1816:1942   */\n  pop\n    /* \"#utility.yul\":1981:1983   */\n  0x60\n    /* \"#utility.yul\":2007:2071   */\n  tag_56\n    /* \"#utility.yul\":2063:2070   */\n  dup8\n    /* \"#utility.yul\":2054:2060   */\n  dup3\n    /* \"#utility.yul\":2043:2052   */\n  dup9\n    /* \"#utility.yul\":2039:2061   */\n  add\n    /* \"#utility.yul\":2007:2071   */\n  tag_42\n  jump\t// in\ntag_56:\n    /* \"#utility.yul\":1997:2071   */\n  swap2\n  pop\n    /* \"#utility.yul\":1952:2081   */\n  pop\n    /* \"#utility.yul\":1101:2088   */\n  swap3\n  swap6\n  swap2\n  swap5\n  pop\n  swap3\n  pop\n  jump\t// out\n    /* \"#utility.yul\":2094:2223   */\ntag_26:\n    /* \"#utility.yul\":2128:2134   */\n  0x00\n    /* \"#utility.yul\":2155:2175   */\n  tag_58\n  tag_59\n  jump\t// in\ntag_58:\n    /* \"#utility.yul\":2145:2175   */\n  swap1\n  pop\n    /* \"#utility.yul\":2184:2217   */\n  tag_60\n    /* \"#utility.yul\":2212:2216   */\n  dup3\n    /* \"#utility.yul\":2204:2210   */\n  dup3\n    /* \"#utility.yul\":2184:2217   */\n  tag_61\n  jump\t// in\ntag_60:\n    /* \"#utility.yul\":2094:2223   */\n  swap2\n  swap1\n  pop\n  jump\t// out\n    /* \"#utility.yul\":2229:2304   */\ntag_59:\n    /* \"#utility.yul\":2262:2268   */\n  0x00\n    /* \"#utility.yul\":2295:2297   */\n  0x40\n    /* \"#utility.yul\":2289:2298   */\n  mload\n    /* \"#utility.yul\":2279:2298   */\n  swap1\n  pop\n    /* \"#utility.yul\":2229:2304   */\n  swap1\n  jump\t// out\n    /* \"#utility.yul\":2310:2618   */\ntag_25:\n    /* \"#utility.yul\":2372:2376   */\n  0x00\n    /* \"#utility.yul\":2462:2480   */\n  0xffffffffffffffff\n    /* \"#utility.yul\":2454:2460   */\n  dup3\n    /* \"#utility.yul\":2451:2481   */\n  gt\n    /* \"#utility.yul\":2448:2504   */\n  iszero\n  tag_64\n  jumpi\n    /* \"#utility.yul\":2484:2502   */\n  tag_65\n  tag_66\n  jump\t// in\ntag_65:\n    /* \"#utility.yul\":2448:2504   */\ntag_64:\n    /* \"#utility.yul\":2522:2551   */\n  tag_67\n    /* \"#utility.yul\":2544:2550   */\n  dup3\n    /* \"#utility.yul\":2522:2551   */\n  tag_68\n  jump\t// in\ntag_67:\n    /* \"#utility.yul\":2514:2551   */\n  swap1\n  pop\n    /* \"#utility.yul\":2606:2610   */\n  0x20\n    /* \"#utility.yul\":2600:2604   */\n  dup2\n    /* \"#utility.yul\":2596:2611   */\n  add\n    /* \"#utility.yul\":2588:2611   */\n  swap1\n  pop\n    /* \"#utility.yul\":2310:2618   */\n  swap2\n  swap1\n  pop\n  jump\t// out\n    /* \"#utility.yul\":2624:2714   */\ntag_69:\n    /* \"#utility.yul\":2658:2665   */\n  0x00\n    /* \"#utility.yul\":2701:2706   */\n  dup2\n    /* \"#utility.yul\":2694:2707   */\n  iszero\n    /* \"#utility.yul\":2687:2708   */\n  iszero\n    /* \"#utility.yul\":2676:2708   */\n  swap1\n  pop\n    /* \"#utility.yul\":2624:2714   */\n  swap2\n  swap1\n  pop\n  jump\t// out\n    /* \"#utility.yul\":2720:2797   */\ntag_71:\n    /* \"#utility.yul\":2757:2764   */\n  0x00\n    /* \"#utility.yul\":2786:2791   */\n  dup2\n    /* \"#utility.yul\":2775:2791   */\n  swap1\n  pop\n    /* \"#utility.yul\":2720:2797   */\n  swap2\n  swap1\n  pop\n  jump\t// out\n    /* \"#utility.yul\":2803:3110   */\ntag_31:\n    /* \"#utility.yul\":2871:2872   */\n  0x00\n    /* \"#utility.yul\":2881:2994   */\ntag_74:\n    /* \"#utility.yul\":2895:2901   */\n  dup4\n    /* \"#utility.yul\":2892:2893   */\n  dup2\n    /* \"#utility.yul\":2889:2902   */\n  lt\n    /* \"#utility.yul\":2881:2994   */\n  iszero\n  tag_76\n  jumpi\n    /* \"#utility.yul\":2980:2981   */\n  dup1\n    /* \"#utility.yul\":2975:2978   */\n  dup3\n    /* \"#utility.yul\":2971:2982   */\n  add\n    /* \"#utility.yul\":2965:2983   */\n  mload\n    /* \"#utility.yul\":2961:2962   */\n  dup2\n    /* \"#utility.yul\":2956:2959   */\n  dup5\n    /* \"#utility.yul\":2952:2963   */\n  add\n    /* \"#utility.yul\":2945:2984   */\n  mstore\n    /* \"#utility.yul\":2917:2919   */\n  0x20\n    /* \"#utility.yul\":2914:2915   */\n  dup2\n    /* \"#utility.yul\":2910:2920   */\n  add\n    /* \"#utility.yul\":2905:2920   */\n  swap1\n  pop\n    /* \"#utility.yul\":2881:2994   */\n  jump(tag_74)\ntag_76:\n    /* \"#utility.yul\":3012:3018   */\n  dup4\n    /* \"#utility.yul\":3009:3010   */\n  dup2\n    /* \"#utility.yul\":3006:3019   */\n  gt\n    /* \"#utility.yul\":3003:3104   */\n  iszero\n  tag_77\n  jumpi\n    /* \"#utility.yul\":3092:3093   */\n  0x00\n    /* \"#utility.yul\":3083:3089   */\n  dup5\n    /* \"#utility.yul\":3078:3081   */\n  dup5\n    /* \"#utility.yul\":3074:3090   */\n  add\n    /* \"#utility.yul\":3067:3094   */\n  mstore\n    /* \"#utility.yul\":3003:3104   */\ntag_77:\n    /* \"#utility.yul\":2852:3110   */\n  pop\n    /* \"#utility.yul\":2803:3110   */\n  pop\n  pop\n  pop\n  jump\t// out\n    /* \"#utility.yul\":3116:3436   */\ntag_10:\n    /* \"#utility.yul\":3160:3166   */\n  0x00\n    /* \"#utility.yul\":3197:3198   */\n  0x02\n    /* \"#utility.yul\":3191:3195   */\n  dup3\n    /* \"#utility.yul\":3187:3199   */\n  div\n    /* \"#utility.yul\":3177:3199   */\n  swap1\n  pop\n    /* \"#utility.yul\":3244:3245   */\n  0x01\n    /* \"#utility.yul\":3238:3242   */\n  dup3\n    /* \"#utility.yul\":3234:3246   */\n  and\n    /* \"#utility.yul\":3265:3283   */\n  dup1\n    /* \"#utility.yul\":3255:3336   */\n  tag_79\n  jumpi\n    /* \"#utility.yul\":3321:3325   */\n  0x7f\n    /* \"#utility.yul\":3313:3319   */\n  dup3\n    /* \"#utility.yul\":3309:3326   */\n  and\n    /* \"#utility.yul\":3299:3326   */\n  swap2\n  pop\n    /* \"#utility.yul\":3255:3336   */\ntag_79:\n    /* \"#utility.yul\":3383:3385   */\n  0x20\n    /* \"#utility.yul\":3375:3381   */\n  dup3\n    /* \"#utility.yul\":3372:3386   */\n  lt\n    /* \"#utility.yul\":3352:3370   */\n  dup2\n    /* \"#utility.yul\":3349:3387   */\n  eq\n    /* \"#utility.yul\":3346:3430   */\n  iszero\n  tag_80\n  jumpi\n    /* \"#utility.yul\":3402:3420   */\n  tag_81\n  tag_82\n  jump\t// in\ntag_81:\n    /* \"#utility.yul\":3346:3430   */\ntag_80:\n    /* \"#utility.yul\":3167:3436   */\n  pop\n    /* \"#utility.yul\":3116:3436   */\n  swap2\n  swap1\n  pop\n  jump\t// out\n    /* \"#utility.yul\":3442:3723   */\ntag_61:\n    /* \"#utility.yul\":3525:3552   */\n  tag_84\n    /* \"#utility.yul\":3547:3551   */\n  dup3\n    /* \"#utility.yul\":3525:3552   */\n  tag_68\n  jump\t// in\ntag_84:\n    /* \"#utility.yul\":3517:3523   */\n  dup2\n    /* \"#utility.yul\":3513:3553   */\n  add\n    /* \"#utility.yul\":3655:3661   */\n  dup2\n    /* \"#utility.yul\":3643:3653   */\n  dup2\n    /* \"#utility.yul\":3640:3662   */\n  lt\n    /* \"#utility.yul\":3619:3637   */\n  0xffffffffffffffff\n    /* \"#utility.yul\":3607:3617   */\n  dup3\n    /* \"#utility.yul\":3604:3638   */\n  gt\n    /* \"#utility.yul\":3601:3663   */\n  or\n    /* \"#utility.yul\":3598:3686   */\n  iszero\n  tag_85\n  jumpi\n    /* \"#utility.yul\":3666:3684   */\n  tag_86\n  tag_66\n  jump\t// in\ntag_86:\n    /* \"#utility.yul\":3598:3686   */\ntag_85:\n    /* \"#utility.yul\":3706:3716   */\n  dup1\n    /* \"#utility.yul\":3702:3704   */\n  0x40\n    /* \"#utility.yul\":3695:3717   */\n  mstore\n    /* \"#utility.yul\":3485:3723   */\n  pop\n    /* \"#utility.yul\":3442:3723   */\n  pop\n  pop\n  jump\t// out\n    /* \"#utility.yul\":3729:3909   */\ntag_82:\n    /* \"#utility.yul\":3777:3854   */\n  0x4e487b7100000000000000000000000000000000000000000000000000000000\n    /* \"#utility.yul\":3774:3775   */\n  0x00\n    /* \"#utility.yul\":3767:3855   */\n  mstore\n    /* \"#utility.yul\":3874:3878   */\n  0x22\n    /* \"#utility.yul\":3871:3872   */\n  0x04\n    /* \"#utility.yul\":3864:3879   */\n  mstore\n    /* \"#utility.yul\":3898:3902   */\n  0x24\n    /* \"#utility.yul\":3895:3896   */\n  0x00\n    /* \"#utility.yul\":3888:3903   */\n  revert\n    /* \"#utility.yul\":3915:4095   */\ntag_66:\n    /* \"#utility.yul\":3963:4040   */\n  0x4e487b7100000000000000000000000000000000000000000000000000000000\n    /* \"#utility.yul\":3960:3961   */\n  0x00\n    /* \"#utility.yul\":3953:4041   */\n  mstore\n    /* \"#utility.yul\":4060:4064   */\n  0x41\n    /* \"#utility.yul\":4057:4058   */\n  0x04\n    /* \"#utility.yul\":4050:4065   */\n  mstore\n    /* \"#utility.yul\":4084:4088   */\n  0x24\n    /* \"#utility.yul\":4081:4082   */\n  0x00\n    /* \"#utility.yul\":4074:4089   */\n  revert\n    /* \"#utility.yul\":4101:4218   */\ntag_40:\n    /* \"#utility.yul\":4210:4211   */\n  0x00\n    /* \"#utility.yul\":4207:4208   */\n  dup1\n    /* \"#utility.yul\":4200:4212   */\n  revert\n    /* \"#utility.yul\":4224:4341   */\ntag_29:\n    /* \"#utility.yul\":4333:4334   */\n  0x00\n    /* \"#utility.yul\":4330:4331   */\n  dup1\n    /* \"#utility.yul\":4323:4335   */\n  revert\n    /* \"#utility.yul\":4347:4464   */\ntag_52:\n    /* \"#utility.yul\":4456:4457   */\n  0x00\n    /* \"#utility.yul\":4453:4454   */\n  dup1\n    /* \"#utility.yul\":4446:4458   */\n  revert\n    /* \"#utility.yul\":4470:4587   */\ntag_49:\n    /* \"#utility.yul\":4579:4580   */\n  0x00\n    /* \"#utility.yul\":4576:4577   */\n  dup1\n    /* \"#utility.yul\":4569:4581   */\n  revert\n    /* \"#utility.yul\":4593:4695   */\ntag_68:\n    /* \"#utility.yul\":4634:4640   */\n  0x00\n    /* \"#utility.yul\":4685:4687   */\n  0x1f\n    /* \"#utility.yul\":4681:4688   */\n  not\n    /* \"#utility.yul\":4676:4678   */\n  0x1f\n    /* \"#utility.yul\":4669:4674   */\n  dup4\n    /* \"#utility.yul\":4665:4679   */\n  add\n    /* \"#utility.yul\":4661:4689   */\n  and\n    /* \"#utility.yul\":4651:4689   */\n  swap1\n  pop\n    /* \"#utility.yul\":4593:4695   */\n  swap2\n  swap1\n  pop\n  jump\t// out\n    /* \"#utility.yul\":4701:4817   */\ntag_35:\n    /* \"#utility.yul\":4771:4792   */\n  tag_95\n    /* \"#utility.yul\":4786:4791   */\n  dup2\n    /* \"#utility.yul\":4771:4792   */\n  tag_69\n  jump\t// in\ntag_95:\n    /* \"#utility.yul\":4764:4769   */\n  dup2\n    /* \"#utility.yul\":4761:4793   */\n  eq\n    /* \"#utility.yul\":4751:4811   */\n  tag_96\n  jumpi\n    /* \"#utility.yul\":4807:4808   */\n  0x00\n    /* \"#utility.yul\":4804:4805   */\n  dup1\n    /* \"#utility.yul\":4797:4809   */\n  revert\n    /* \"#utility.yul\":4751:4811   */\ntag_96:\n    /* \"#utility.yul\":4701:4817   */\n  pop\n  jump\t// out\n    /* \"#utility.yul\":4823:4945   */\ntag_45:\n    /* \"#utility.yul\":4896:4920   */\n  tag_98\n    /* \"#utility.yul\":4914:4919   */\n  dup2\n    /* \"#utility.yul\":4896:4920   */\n  tag_71\n  jump\t// in\ntag_98:\n    /* \"#utility.yul\":4889:4894   */\n  dup2\n    /* \"#utility.yul\":4886:4921   */\n  eq\n    /* \"#utility.yul\":4876:4939   */\n  tag_99\n  jumpi\n    /* \"#utility.yul\":4935:4936   */\n  0x00\n    /* \"#utility.yul\":4932:4933   */\n  dup1\n    /* \"#utility.yul\":4925:4937   */\n  revert\n    /* \"#utility.yul\":4876:4939   */\ntag_99:\n    /* \"#utility.yul\":4823:4945   */\n  pop\n  jump\t// out\n    /* \"Donation.sol\":72:583  contract Donation {... */\ntag_8:\n  dataSize(sub_0)\n  dup1\n  dataOffset(sub_0)\n  0x00\n  codecopy\n  0x00\n  return\nstop\n\nsub_0: assembly {\n        /* \"Donation.sol\":72:583  contract Donation {... */\n      mstore(0x40, 0x80)\n      jumpi(tag_1, lt(calldatasize, 0x04))\n      shr(0xe0, calldataload(0x00))\n      dup1\n      0x064d4d7c\n      eq\n      tag_2\n      jumpi\n      dup1\n      0x7a82e699\n      eq\n      tag_3\n      jumpi\n      dup1\n      0xd28d8852\n      eq\n      tag_4\n      jumpi\n      dup1\n      0xed88c68e\n      eq\n      tag_5\n      jumpi\n    tag_1:\n      0x00\n      dup1\n      revert\n        /* \"Donation.sol\":122:144  uint public _minAmount */\n    tag_2:\n      callvalue\n      dup1\n      iszero\n      tag_6\n      jumpi\n      0x00\n      dup1\n      revert\n    tag_6:\n      pop\n      tag_7\n      tag_8\n      jump\t// in\n    tag_7:\n      mload(0x40)\n      tag_9\n      swap2\n      swap1\n      tag_10\n      jump\t// in\n    tag_9:\n      mload(0x40)\n      dup1\n      swap2\n      sub\n      swap1\n      return\n        /* \"Donation.sol\":150:176  uint public  _amountNeeded */\n    tag_3:\n      callvalue\n      dup1\n      iszero\n      tag_11\n      jumpi\n      0x00\n      dup1\n      revert\n    tag_11:\n      pop\n      tag_12\n      tag_13\n      jump\t// in\n    tag_12:\n      mload(0x40)\n      tag_14\n      swap2\n      swap1\n      tag_10\n      jump\t// in\n    tag_14:\n      mload(0x40)\n      dup1\n      swap2\n      sub\n      swap1\n      return\n        /* \"Donation.sol\":97:116  string public _name */\n    tag_4:\n      callvalue\n      dup1\n      iszero\n      tag_15\n      jumpi\n      0x00\n      dup1\n      revert\n    tag_15:\n      pop\n      tag_16\n      tag_17\n      jump\t// in\n    tag_16:\n      mload(0x40)\n      tag_18\n      swap2\n      swap1\n      tag_19\n      jump\t// in\n    tag_18:\n      mload(0x40)\n      dup1\n      swap2\n      sub\n      swap1\n      return\n        /* \"Donation.sol\":456:581  function donate() payable external {... */\n    tag_5:\n      tag_20\n      tag_21\n      jump\t// in\n    tag_20:\n      stop\n        /* \"Donation.sol\":122:144  uint public _minAmount */\n    tag_8:\n      sload(0x01)\n      dup2\n      jump\t// out\n        /* \"Donation.sol\":150:176  uint public  _amountNeeded */\n    tag_13:\n      sload(0x02)\n      dup2\n      jump\t// out\n        /* \"Donation.sol\":97:116  string public _name */\n    tag_17:\n      0x00\n      dup1\n      sload\n      tag_22\n      swap1\n      tag_23\n      jump\t// in\n    tag_22:\n      dup1\n      0x1f\n      add\n      0x20\n      dup1\n      swap2\n      div\n      mul\n      0x20\n      add\n      mload(0x40)\n      swap1\n      dup2\n      add\n      0x40\n      mstore\n      dup1\n      swap3\n      swap2\n      swap1\n      dup2\n      dup2\n      mstore\n      0x20\n      add\n      dup3\n      dup1\n      sload\n      tag_24\n      swap1\n      tag_23\n      jump\t// in\n    tag_24:\n      dup1\n      iszero\n      tag_25\n      jumpi\n      dup1\n      0x1f\n      lt\n      tag_26\n      jumpi\n      0x0100\n      dup1\n      dup4\n      sload\n      div\n      mul\n      dup4\n      mstore\n      swap2\n      0x20\n      add\n      swap2\n      jump(tag_25)\n    tag_26:\n      dup3\n      add\n      swap2\n      swap1\n      0x00\n      mstore\n      keccak256(0x00, 0x20)\n      swap1\n    tag_27:\n      dup2\n      sload\n      dup2\n      mstore\n      swap1\n      0x01\n      add\n      swap1\n      0x20\n      add\n      dup1\n      dup4\n      gt\n      tag_27\n      jumpi\n      dup3\n      swap1\n      sub\n      0x1f\n      and\n      dup3\n      add\n      swap2\n    tag_25:\n      pop\n      pop\n      pop\n      pop\n      pop\n      dup2\n      jump\t// out\n        /* \"Donation.sol\":456:581  function donate() payable external {... */\n    tag_21:\n        /* \"Donation.sol\":522:532  _minAmount */\n      sload(0x01)\n        /* \"Donation.sol\":509:518  msg.value */\n      callvalue\n        /* \"Donation.sol\":509:532  msg.value >= _minAmount */\n      lt\n      iszero\n        /* \"Donation.sol\":501:574  require(msg.value >= _minAmount, \"You cannot donate below ${_minAmount}\") */\n      tag_29\n      jumpi\n      mload(0x40)\n      0x08c379a000000000000000000000000000000000000000000000000000000000\n      dup2\n      mstore\n      0x04\n      add\n      tag_30\n      swap1\n      tag_31\n      jump\t// in\n    tag_30:\n      mload(0x40)\n      dup1\n      swap2\n      sub\n      swap1\n      revert\n    tag_29:\n        /* \"Donation.sol\":456:581  function donate() payable external {... */\n      jump\t// out\n        /* \"#utility.yul\":7:371   */\n    tag_33:\n        /* \"#utility.yul\":95:98   */\n      0x00\n        /* \"#utility.yul\":123:162   */\n      tag_35\n        /* \"#utility.yul\":156:161   */\n      dup3\n        /* \"#utility.yul\":123:162   */\n      tag_36\n      jump\t// in\n    tag_35:\n        /* \"#utility.yul\":178:249   */\n      tag_37\n        /* \"#utility.yul\":242:248   */\n      dup2\n        /* \"#utility.yul\":237:240   */\n      dup6\n        /* \"#utility.yul\":178:249   */\n      tag_38\n      jump\t// in\n    tag_37:\n        /* \"#utility.yul\":171:249   */\n      swap4\n      pop\n        /* \"#utility.yul\":258:310   */\n      tag_39\n        /* \"#utility.yul\":303:309   */\n      dup2\n        /* \"#utility.yul\":298:301   */\n      dup6\n        /* \"#utility.yul\":291:295   */\n      0x20\n        /* \"#utility.yul\":284:289   */\n      dup7\n        /* \"#utility.yul\":280:296   */\n      add\n        /* \"#utility.yul\":258:310   */\n      tag_40\n      jump\t// in\n    tag_39:\n        /* \"#utility.yul\":335:364   */\n      tag_41\n        /* \"#utility.yul\":357:363   */\n      dup2\n        /* \"#utility.yul\":335:364   */\n      tag_42\n      jump\t// in\n    tag_41:\n        /* \"#utility.yul\":330:333   */\n      dup5\n        /* \"#utility.yul\":326:365   */\n      add\n        /* \"#utility.yul\":319:365   */\n      swap2\n      pop\n        /* \"#utility.yul\":99:371   */\n      pop\n        /* \"#utility.yul\":7:371   */\n      swap3\n      swap2\n      pop\n      pop\n      jump\t// out\n        /* \"#utility.yul\":377:743   */\n    tag_43:\n        /* \"#utility.yul\":519:522   */\n      0x00\n        /* \"#utility.yul\":540:607   */\n      tag_45\n        /* \"#utility.yul\":604:606   */\n      0x25\n        /* \"#utility.yul\":599:602   */\n      dup4\n        /* \"#utility.yul\":540:607   */\n      tag_38\n      jump\t// in\n    tag_45:\n        /* \"#utility.yul\":533:607   */\n      swap2\n      pop\n        /* \"#utility.yul\":616:709   */\n      tag_46\n        /* \"#utility.yul\":705:708   */\n      dup3\n        /* \"#utility.yul\":616:709   */\n      tag_47\n      jump\t// in\n    tag_46:\n        /* \"#utility.yul\":734:736   */\n      0x40\n        /* \"#utility.yul\":729:732   */\n      dup3\n        /* \"#utility.yul\":725:737   */\n      add\n        /* \"#utility.yul\":718:737   */\n      swap1\n      pop\n        /* \"#utility.yul\":377:743   */\n      swap2\n      swap1\n      pop\n      jump\t// out\n        /* \"#utility.yul\":749:867   */\n    tag_48:\n        /* \"#utility.yul\":836:860   */\n      tag_50\n        /* \"#utility.yul\":854:859   */\n      dup2\n        /* \"#utility.yul\":836:860   */\n      tag_51\n      jump\t// in\n    tag_50:\n        /* \"#utility.yul\":831:834   */\n      dup3\n        /* \"#utility.yul\":824:861   */\n      mstore\n        /* \"#utility.yul\":749:867   */\n      pop\n      pop\n      jump\t// out\n        /* \"#utility.yul\":873:1186   */\n    tag_19:\n        /* \"#utility.yul\":986:990   */\n      0x00\n        /* \"#utility.yul\":1024:1026   */\n      0x20\n        /* \"#utility.yul\":1013:1022   */\n      dup3\n        /* \"#utility.yul\":1009:1027   */\n      add\n        /* \"#utility.yul\":1001:1027   */\n      swap1\n      pop\n        /* \"#utility.yul\":1073:1082   */\n      dup2\n        /* \"#utility.yul\":1067:1071   */\n      dup2\n        /* \"#utility.yul\":1063:1083   */\n      sub\n        /* \"#utility.yul\":1059:1060   */\n      0x00\n        /* \"#utility.yul\":1048:1057   */\n      dup4\n        /* \"#utility.yul\":1044:1061   */\n      add\n        /* \"#utility.yul\":1037:1084   */\n      mstore\n        /* \"#utility.yul\":1101:1179   */\n      tag_53\n        /* \"#utility.yul\":1174:1178   */\n      dup2\n        /* \"#utility.yul\":1165:1171   */\n      dup5\n        /* \"#utility.yul\":1101:1179   */\n      tag_33\n      jump\t// in\n    tag_53:\n        /* \"#utility.yul\":1093:1179   */\n      swap1\n      pop\n        /* \"#utility.yul\":873:1186   */\n      swap3\n      swap2\n      pop\n      pop\n      jump\t// out\n        /* \"#utility.yul\":1192:1611   */\n    tag_31:\n        /* \"#utility.yul\":1358:1362   */\n      0x00\n        /* \"#utility.yul\":1396:1398   */\n      0x20\n        /* \"#utility.yul\":1385:1394   */\n      dup3\n        /* \"#utility.yul\":1381:1399   */\n      add\n        /* \"#utility.yul\":1373:1399   */\n      swap1\n      pop\n        /* \"#utility.yul\":1445:1454   */\n      dup2\n        /* \"#utility.yul\":1439:1443   */\n      dup2\n        /* \"#utility.yul\":1435:1455   */\n      sub\n        /* \"#utility.yul\":1431:1432   */\n      0x00\n        /* \"#utility.yul\":1420:1429   */\n      dup4\n        /* \"#utility.yul\":1416:1433   */\n      add\n        /* \"#utility.yul\":1409:1456   */\n      mstore\n        /* \"#utility.yul\":1473:1604   */\n      tag_55\n        /* \"#utility.yul\":1599:1603   */\n      dup2\n        /* \"#utility.yul\":1473:1604   */\n      tag_43\n      jump\t// in\n    tag_55:\n        /* \"#utility.yul\":1465:1604   */\n      swap1\n      pop\n        /* \"#utility.yul\":1192:1611   */\n      swap2\n      swap1\n      pop\n      jump\t// out\n        /* \"#utility.yul\":1617:1839   */\n    tag_10:\n        /* \"#utility.yul\":1710:1714   */\n      0x00\n        /* \"#utility.yul\":1748:1750   */\n      0x20\n        /* \"#utility.yul\":1737:1746   */\n      dup3\n        /* \"#utility.yul\":1733:1751   */\n      add\n        /* \"#utility.yul\":1725:1751   */\n      swap1\n      pop\n        /* \"#utility.yul\":1761:1832   */\n      tag_57\n        /* \"#utility.yul\":1829:1830   */\n      0x00\n        /* \"#utility.yul\":1818:1827   */\n      dup4\n        /* \"#utility.yul\":1814:1831   */\n      add\n        /* \"#utility.yul\":1805:1811   */\n      dup5\n        /* \"#utility.yul\":1761:1832   */\n      tag_48\n      jump\t// in\n    tag_57:\n        /* \"#utility.yul\":1617:1839   */\n      swap3\n      swap2\n      pop\n      pop\n      jump\t// out\n        /* \"#utility.yul\":1845:1944   */\n    tag_36:\n        /* \"#utility.yul\":1897:1903   */\n      0x00\n        /* \"#utility.yul\":1931:1936   */\n      dup2\n        /* \"#utility.yul\":1925:1937   */\n      mload\n        /* \"#utility.yul\":1915:1937   */\n      swap1\n      pop\n        /* \"#utility.yul\":1845:1944   */\n      swap2\n      swap1\n      pop\n      jump\t// out\n        /* \"#utility.yul\":1950:2119   */\n    tag_38:\n        /* \"#utility.yul\":2034:2045   */\n      0x00\n        /* \"#utility.yul\":2068:2074   */\n      dup3\n        /* \"#utility.yul\":2063:2066   */\n      dup3\n        /* \"#utility.yul\":2056:2075   */\n      mstore\n        /* \"#utility.yul\":2108:2112   */\n      0x20\n        /* \"#utility.yul\":2103:2106   */\n      dup3\n        /* \"#utility.yul\":2099:2113   */\n      add\n        /* \"#utility.yul\":2084:2113   */\n      swap1\n      pop\n        /* \"#utility.yul\":1950:2119   */\n      swap3\n      swap2\n      pop\n      pop\n      jump\t// out\n        /* \"#utility.yul\":2125:2202   */\n    tag_51:\n        /* \"#utility.yul\":2162:2169   */\n      0x00\n        /* \"#utility.yul\":2191:2196   */\n      dup2\n        /* \"#utility.yul\":2180:2196   */\n      swap1\n      pop\n        /* \"#utility.yul\":2125:2202   */\n      swap2\n      swap1\n      pop\n      jump\t// out\n        /* \"#utility.yul\":2208:2515   */\n    tag_40:\n        /* \"#utility.yul\":2276:2277   */\n      0x00\n        /* \"#utility.yul\":2286:2399   */\n    tag_62:\n        /* \"#utility.yul\":2300:2306   */\n      dup4\n        /* \"#utility.yul\":2297:2298   */\n      dup2\n        /* \"#utility.yul\":2294:2307   */\n      lt\n        /* \"#utility.yul\":2286:2399   */\n      iszero\n      tag_64\n      jumpi\n        /* \"#utility.yul\":2385:2386   */\n      dup1\n        /* \"#utility.yul\":2380:2383   */\n      dup3\n        /* \"#utility.yul\":2376:2387   */\n      add\n        /* \"#utility.yul\":2370:2388   */\n      mload\n        /* \"#utility.yul\":2366:2367   */\n      dup2\n        /* \"#utility.yul\":2361:2364   */\n      dup5\n        /* \"#utility.yul\":2357:2368   */\n      add\n        /* \"#utility.yul\":2350:2389   */\n      mstore\n        /* \"#utility.yul\":2322:2324   */\n      0x20\n        /* \"#utility.yul\":2319:2320   */\n      dup2\n        /* \"#utility.yul\":2315:2325   */\n      add\n        /* \"#utility.yul\":2310:2325   */\n      swap1\n      pop\n        /* \"#utility.yul\":2286:2399   */\n      jump(tag_62)\n    tag_64:\n        /* \"#utility.yul\":2417:2423   */\n      dup4\n        /* \"#utility.yul\":2414:2415   */\n      dup2\n        /* \"#utility.yul\":2411:2424   */\n      gt\n        /* \"#utility.yul\":2408:2509   */\n      iszero\n      tag_65\n      jumpi\n        /* \"#utility.yul\":2497:2498   */\n      0x00\n        /* \"#utility.yul\":2488:2494   */\n      dup5\n        /* \"#utility.yul\":2483:2486   */\n      dup5\n        /* \"#utility.yul\":2479:2495   */\n      add\n        /* \"#utility.yul\":2472:2499   */\n      mstore\n        /* \"#utility.yul\":2408:2509   */\n    tag_65:\n        /* \"#utility.yul\":2257:2515   */\n      pop\n        /* \"#utility.yul\":2208:2515   */\n      pop\n      pop\n      pop\n      jump\t// out\n        /* \"#utility.yul\":2521:2841   */\n    tag_23:\n        /* \"#utility.yul\":2565:2571   */\n      0x00\n        /* \"#utility.yul\":2602:2603   */\n      0x02\n        /* \"#utility.yul\":2596:2600   */\n      dup3\n        /* \"#utility.yul\":2592:2604   */\n      div\n        /* \"#utility.yul\":2582:2604   */\n      swap1\n      pop\n        /* \"#utility.yul\":2649:2650   */\n      0x01\n        /* \"#utility.yul\":2643:2647   */\n      dup3\n        /* \"#utility.yul\":2639:2651   */\n      and\n        /* \"#utility.yul\":2670:2688   */\n      dup1\n        /* \"#utility.yul\":2660:2741   */\n      tag_67\n      jumpi\n        /* \"#utility.yul\":2726:2730   */\n      0x7f\n        /* \"#utility.yul\":2718:2724   */\n      dup3\n        /* \"#utility.yul\":2714:2731   */\n      and\n        /* \"#utility.yul\":2704:2731   */\n      swap2\n      pop\n        /* \"#utility.yul\":2660:2741   */\n    tag_67:\n        /* \"#utility.yul\":2788:2790   */\n      0x20\n        /* \"#utility.yul\":2780:2786   */\n      dup3\n        /* \"#utility.yul\":2777:2791   */\n      lt\n        /* \"#utility.yul\":2757:2775   */\n      dup2\n        /* \"#utility.yul\":2754:2792   */\n      eq\n        /* \"#utility.yul\":2751:2835   */\n      iszero\n      tag_68\n      jumpi\n        /* \"#utility.yul\":2807:2825   */\n      tag_69\n      tag_70\n      jump\t// in\n    tag_69:\n        /* \"#utility.yul\":2751:2835   */\n    tag_68:\n        /* \"#utility.yul\":2572:2841   */\n      pop\n        /* \"#utility.yul\":2521:2841   */\n      swap2\n      swap1\n      pop\n      jump\t// out\n        /* \"#utility.yul\":2847:3027   */\n    tag_70:\n        /* \"#utility.yul\":2895:2972   */\n      0x4e487b7100000000000000000000000000000000000000000000000000000000\n        /* \"#utility.yul\":2892:2893   */\n      0x00\n        /* \"#utility.yul\":2885:2973   */\n      mstore\n        /* \"#utility.yul\":2992:2996   */\n      0x22\n        /* \"#utility.yul\":2989:2990   */\n      0x04\n        /* \"#utility.yul\":2982:2997   */\n      mstore\n        /* \"#utility.yul\":3016:3020   */\n      0x24\n        /* \"#utility.yul\":3013:3014   */\n      0x00\n        /* \"#utility.yul\":3006:3021   */\n      revert\n        /* \"#utility.yul\":3033:3135   */\n    tag_42:\n        /* \"#utility.yul\":3074:3080   */\n      0x00\n        /* \"#utility.yul\":3125:3127   */\n      0x1f\n        /* \"#utility.yul\":3121:3128   */\n      not\n        /* \"#utility.yul\":3116:3118   */\n      0x1f\n        /* \"#utility.yul\":3109:3114   */\n      dup4\n        /* \"#utility.yul\":3105:3119   */\n      add\n        /* \"#utility.yul\":3101:3129   */\n      and\n        /* \"#utility.yul\":3091:3129   */\n      swap1\n      pop\n        /* \"#utility.yul\":3033:3135   */\n      swap2\n      swap1\n      pop\n      jump\t// out\n        /* \"#utility.yul\":3141:3365   */\n    tag_47:\n        /* \"#utility.yul\":3281:3315   */\n      0x596f752063616e6e6f7420646f6e6174652062656c6f7720247b5f6d696e416d\n        /* \"#utility.yul\":3277:3278   */\n      0x00\n        /* \"#utility.yul\":3269:3275   */\n      dup3\n        /* \"#utility.yul\":3265:3279   */\n      add\n        /* \"#utility.yul\":3258:3316   */\n      mstore\n        /* \"#utility.yul\":3350:3357   */\n      0x6f756e747d000000000000000000000000000000000000000000000000000000\n        /* \"#utility.yul\":3345:3347   */\n      0x20\n        /* \"#utility.yul\":3337:3343   */\n      dup3\n        /* \"#utility.yul\":3333:3348   */\n      add\n        /* \"#utility.yul\":3326:3358   */\n      mstore\n        /* \"#utility.yul\":3141:3365   */\n      pop\n      jump\t// out\n\n    auxdata: 0xa2646970667358221220b52fa2430ba2326af1d651df826c15d3473e239488a67be8c1ac82fcace6581e64736f6c63430008070033\n}\n",
				"bytecode": {
					"linkReferences": {},
					"object": "60806040523480156200001157600080fd5b5060405162000815380380620008158339818101604052810190620000379190620001de565b83600090805190602001906200004f92919062000082565b508260018190555081600360006101000a81548160ff02191690831515021790555080600281905550505050506200043d565b82805462000090906200031a565b90600052602060002090601f016020900481019282620000b4576000855562000100565b82601f10620000cf57805160ff191683800117855562000100565b8280016001018555821562000100579182015b82811115620000ff578251825591602001919060010190620000e2565b5b5090506200010f919062000113565b5090565b5b808211156200012e57600081600090555060010162000114565b5090565b600062000149620001438462000298565b6200026f565b905082815260208101848484011115620001685762000167620003e9565b5b62000175848285620002e4565b509392505050565b6000815190506200018e8162000409565b92915050565b600082601f830112620001ac57620001ab620003e4565b5b8151620001be84826020860162000132565b91505092915050565b600081519050620001d88162000423565b92915050565b60008060008060808587031215620001fb57620001fa620003f3565b5b600085015167ffffffffffffffff8111156200021c576200021b620003ee565b5b6200022a8782880162000194565b94505060206200023d87828801620001c7565b935050604062000250878288016200017d565b92505060606200026387828801620001c7565b91505092959194509250565b60006200027b6200028e565b905062000289828262000350565b919050565b6000604051905090565b600067ffffffffffffffff821115620002b657620002b5620003b5565b5b620002c182620003f8565b9050602081019050919050565b60008115159050919050565b6000819050919050565b60005b8381101562000304578082015181840152602081019050620002e7565b8381111562000314576000848401525b50505050565b600060028204905060018216806200033357607f821691505b602082108114156200034a576200034962000386565b5b50919050565b6200035b82620003f8565b810181811067ffffffffffffffff821117156200037d576200037c620003b5565b5b80604052505050565b7f4e487b7100000000000000000000000000000000000000000000000000000000600052602260045260246000fd5b7f4e487b7100000000000000000000000000000000000000000000000000000000600052604160045260246000fd5b600080fd5b600080fd5b600080fd5b600080fd5b6000601f19601f8301169050919050565b6200041481620002ce565b81146200042057600080fd5b50565b6200042e81620002da565b81146200043a57600080fd5b50565b6103c8806200044d6000396000f3fe60806040526004361061003f5760003560e01c8063064d4d7c146100445780637a82e6991461006f578063d28d88521461009a578063ed88c68e146100c5575b600080fd5b34801561005057600080fd5b506100596100cf565b604051610066919061025d565b60405180910390f35b34801561007b57600080fd5b506100846100d5565b604051610091919061025d565b60405180910390f35b3480156100a657600080fd5b506100af6100db565b6040516100bc919061021b565b60405180910390f35b6100cd610169565b005b60015481565b60025481565b600080546100e8906102d1565b80601f0160208091040260200160405190810160405280929190818152602001828054610114906102d1565b80156101615780601f1061013657610100808354040283529160200191610161565b820191906000526020600020905b81548152906001019060200180831161014457829003601f168201915b505050505081565b6001543410156101ae576040517f08c379a00000000000000000000000000000000000000000000000000000000081526004016101a59061023d565b60405180910390fd5b565b60006101bb82610278565b6101c58185610283565b93506101d581856020860161029e565b6101de81610332565b840191505092915050565b60006101f6602583610283565b915061020182610343565b604082019050919050565b61021581610294565b82525050565b6000602082019050818103600083015261023581846101b0565b905092915050565b60006020820190508181036000830152610256816101e9565b9050919050565b6000602082019050610272600083018461020c565b92915050565b600081519050919050565b600082825260208201905092915050565b6000819050919050565b60005b838110156102bc5780820151818401526020810190506102a1565b838111156102cb576000848401525b50505050565b600060028204905060018216806102e957607f821691505b602082108114156102fd576102fc610303565b5b50919050565b7f4e487b7100000000000000000000000000000000000000000000000000000000600052602260045260246000fd5b6000601f19601f8301169050919050565b7f596f752063616e6e6f7420646f6e6174652062656c6f7720247b5f6d696e416d60008201527f6f756e747d00000000000000000000000000000000000000000000000000000060208201525056fea2646970667358221220b52fa2430ba2326af1d651df826c15d3473e239488a67be8c1ac82fcace6581e64736f6c63430008070033",
					"opcodes": "PUSH1 0x80 PUSH1 0x40 MSTORE CALLVALUE DUP1 ISZERO PUSH3 0x11 JUMPI PUSH1 0x0 DUP1 REVERT JUMPDEST POP PUSH1 0x40 MLOAD PUSH3 0x815 CODESIZE SUB DUP1 PUSH3 0x815 DUP4 CODECOPY DUP2 DUP2 ADD PUSH1 0x40 MSTORE DUP2 ADD SWAP1 PUSH3 0x37 SWAP2 SWAP1 PUSH3 0x1DE JUMP JUMPDEST DUP4 PUSH1 0x0 SWAP1 DUP1 MLOAD SWAP1 PUSH1 0x20 ADD SWAP1 PUSH3 0x4F SWAP3 SWAP2 SWAP1 PUSH3 0x82 JUMP JUMPDEST POP DUP3 PUSH1 0x1 DUP2 SWAP1 SSTORE POP DUP2 PUSH1 0x3 PUSH1 0x0 PUSH2 0x100 EXP DUP2 SLOAD DUP2 PUSH1 0xFF MUL NOT AND SWAP1 DUP4 ISZERO ISZERO MUL OR SWAP1 SSTORE POP DUP1 PUSH1 0x2 DUP2 SWAP1 SSTORE POP POP POP POP POP PUSH3 0x43D JUMP JUMPDEST DUP3 DUP1 SLOAD PUSH3 0x90 SWAP1 PUSH3 0x31A JUMP JUMPDEST SWAP1 PUSH1 0x0 MSTORE PUSH1 0x20 PUSH1 0x0 KECCAK256 SWAP1 PUSH1 0x1F ADD PUSH1 0x20 SWAP1 DIV DUP2 ADD SWAP3 DUP3 PUSH3 0xB4 JUMPI PUSH1 0x0 DUP6 SSTORE PUSH3 0x100 JUMP JUMPDEST DUP3 PUSH1 0x1F LT PUSH3 0xCF JUMPI DUP1 MLOAD PUSH1 0xFF NOT AND DUP4 DUP1 ADD OR DUP6 SSTORE PUSH3 0x100 JUMP JUMPDEST DUP3 DUP1 ADD PUSH1 0x1 ADD DUP6 SSTORE DUP3 ISZERO PUSH3 0x100 JUMPI SWAP2 DUP3 ADD JUMPDEST DUP3 DUP2 GT ISZERO PUSH3 0xFF JUMPI DUP3 MLOAD DUP3 SSTORE SWAP2 PUSH1 0x20 ADD SWAP2 SWAP1 PUSH1 0x1 ADD SWAP1 PUSH3 0xE2 JUMP JUMPDEST JUMPDEST POP SWAP1 POP PUSH3 0x10F SWAP2 SWAP1 PUSH3 0x113 JUMP JUMPDEST POP SWAP1 JUMP JUMPDEST JUMPDEST DUP1 DUP3 GT ISZERO PUSH3 0x12E JUMPI PUSH1 0x0 DUP2 PUSH1 0x0 SWAP1 SSTORE POP PUSH1 0x1 ADD PUSH3 0x114 JUMP JUMPDEST POP SWAP1 JUMP JUMPDEST PUSH1 0x0 PUSH3 0x149 PUSH3 0x143 DUP5 PUSH3 0x298 JUMP JUMPDEST PUSH3 0x26F JUMP JUMPDEST SWAP1 POP DUP3 DUP2 MSTORE PUSH1 0x20 DUP2 ADD DUP5 DUP5 DUP5 ADD GT ISZERO PUSH3 0x168 JUMPI PUSH3 0x167 PUSH3 0x3E9 JUMP JUMPDEST JUMPDEST PUSH3 0x175 DUP5 DUP3 DUP6 PUSH3 0x2E4 JUMP JUMPDEST POP SWAP4 SWAP3 POP POP POP JUMP JUMPDEST PUSH1 0x0 DUP2 MLOAD SWAP1 POP PUSH3 0x18E DUP2 PUSH3 0x409 JUMP JUMPDEST SWAP3 SWAP2 POP POP JUMP JUMPDEST PUSH1 0x0 DUP3 PUSH1 0x1F DUP4 ADD SLT PUSH3 0x1AC JUMPI PUSH3 0x1AB PUSH3 0x3E4 JUMP JUMPDEST JUMPDEST DUP2 MLOAD PUSH3 0x1BE DUP5 DUP3 PUSH1 0x20 DUP7 ADD PUSH3 0x132 JUMP JUMPDEST SWAP2 POP POP SWAP3 SWAP2 POP POP JUMP JUMPDEST PUSH1 0x0 DUP2 MLOAD SWAP1 POP PUSH3 0x1D8 DUP2 PUSH3 0x423 JUMP JUMPDEST SWAP3 SWAP2 POP POP JUMP JUMPDEST PUSH1 0x0 DUP1 PUSH1 0x0 DUP1 PUSH1 0x80 DUP6 DUP8 SUB SLT ISZERO PUSH3 0x1FB JUMPI PUSH3 0x1FA PUSH3 0x3F3 JUMP JUMPDEST JUMPDEST PUSH1 0x0 DUP6 ADD MLOAD PUSH8 0xFFFFFFFFFFFFFFFF DUP2 GT ISZERO PUSH3 0x21C JUMPI PUSH3 0x21B PUSH3 0x3EE JUMP JUMPDEST JUMPDEST PUSH3 0x22A DUP8 DUP3 DUP9 ADD PUSH3 0x194 JUMP JUMPDEST SWAP5 POP POP PUSH1 0x20 PUSH3 0x23D DUP8 DUP3 DUP9 ADD PUSH3 0x1C7 JUMP JUMPDEST SWAP4 POP POP PUSH1 0x40 PUSH3 0x250 DUP8 DUP3 DUP9 ADD PUSH3 0x17D JUMP JUMPDEST SWAP3 POP POP PUSH1 0x60 PUSH3 0x263 DUP8 DUP3 DUP9 ADD PUSH3 0x1C7 JUMP JUMPDEST SWAP2 POP POP SWAP3 SWAP6 SWAP2 SWAP5 POP SWAP3 POP JUMP JUMPDEST PUSH1 0x0 PUSH3 0x27B PUSH3 0x28E JUMP JUMPDEST SWAP1 POP PUSH3 0x289 DUP3 DUP3 PUSH3 0x350 JUMP JUMPDEST SWAP2 SWAP1 POP JUMP JUMPDEST PUSH1 0x0 PUSH1 0x40 MLOAD SWAP1 POP SWAP1 JUMP JUMPDEST PUSH1 0x0 PUSH8 0xFFFFFFFFFFFFFFFF DUP3 GT ISZERO PUSH3 0x2B6 JUMPI PUSH3 0x2B5 PUSH3 0x3B5 JUMP JUMPDEST JUMPDEST PUSH3 0x2C1 DUP3 PUSH3 0x3F8 JUMP JUMPDEST SWAP1 POP PUSH1 0x20 DUP2 ADD SWAP1 POP SWAP2 SWAP1 POP JUMP JUMPDEST PUSH1 0x0 DUP2 ISZERO ISZERO SWAP1 POP SWAP2 SWAP1 POP JUMP JUMPDEST PUSH1 0x0 DUP2 SWAP1 POP SWAP2 SWAP1 POP JUMP JUMPDEST PUSH1 0x0 JUMPDEST DUP4 DUP2 LT ISZERO PUSH3 0x304 JUMPI DUP1 DUP3 ADD MLOAD DUP2 DUP5 ADD MSTORE PUSH1 0x20 DUP2 ADD SWAP1 POP PUSH3 0x2E7 JUMP JUMPDEST DUP4 DUP2 GT ISZERO PUSH3 0x314 JUMPI PUSH1 0x0 DUP5 DUP5 ADD MSTORE JUMPDEST POP POP POP POP JUMP JUMPDEST PUSH1 0x0 PUSH1 0x2 DUP3 DIV SWAP1 POP PUSH1 0x1 DUP3 AND DUP1 PUSH3 0x333 JUMPI PUSH1 0x7F DUP3 AND SWAP2 POP JUMPDEST PUSH1 0x20 DUP3 LT DUP2 EQ ISZERO PUSH3 0x34A JUMPI PUSH3 0x349 PUSH3 0x386 JUMP JUMPDEST JUMPDEST POP SWAP2 SWAP1 POP JUMP JUMPDEST PUSH3 0x35B DUP3 PUSH3 0x3F8 JUMP JUMPDEST DUP2 ADD DUP2 DUP2 LT PUSH8 0xFFFFFFFFFFFFFFFF DUP3 GT OR ISZERO PUSH3 0x37D JUMPI PUSH3 0x37C PUSH3 0x3B5 JUMP JUMPDEST JUMPDEST DUP1 PUSH1 0x40 MSTORE POP POP POP JUMP JUMPDEST PUSH32 0x4E487B7100000000000000000000000000000000000000000000000000000000 PUSH1 0x0 MSTORE PUSH1 0x22 PUSH1 0x4 MSTORE PUSH1 0x24 PUSH1 0x0 REVERT JUMPDEST PUSH32 0x4E487B7100000000000000000000000000000000000000000000000000000000 PUSH1 0x0 MSTORE PUSH1 0x41 PUSH1 0x4 MSTORE PUSH1 0x24 PUSH1 0x0 REVERT JUMPDEST PUSH1 0x0 DUP1 REVERT JUMPDEST PUSH1 0x0 DUP1 REVERT JUMPDEST PUSH1 0x0 DUP1 REVERT JUMPDEST PUSH1 0x0 DUP1 REVERT JUMPDEST PUSH1 0x0 PUSH1 0x1F NOT PUSH1 0x1F DUP4 ADD AND SWAP1 POP SWAP2 SWAP1 POP JUMP JUMPDEST PUSH3 0x414 DUP2 PUSH3 0x2CE JUMP JUMPDEST DUP2 EQ PUSH3 0x420 JUMPI PUSH1 0x0 DUP1 REVERT JUMPDEST POP JUMP JUMPDEST PUSH3 0x42E DUP2 PUSH3 0x2DA JUMP JUMPDEST DUP2 EQ PUSH3 0x43A JUMPI PUSH1 0x0 DUP1 REVERT JUMPDEST POP JUMP JUMPDEST PUSH2 0x3C8 DUP1 PUSH3 0x44D PUSH1 0x0 CODECOPY PUSH1 0x0 RETURN INVALID PUSH1 0x80 PUSH1 0x40 MSTORE PUSH1 0x4 CALLDATASIZE LT PUSH2 0x3F JUMPI PUSH1 0x0 CALLDATALOAD PUSH1 0xE0 SHR DUP1 PUSH4 0x64D4D7C EQ PUSH2 0x44 JUMPI DUP1 PUSH4 0x7A82E699 EQ PUSH2 0x6F JUMPI DUP1 PUSH4 0xD28D8852 EQ PUSH2 0x9A JUMPI DUP1 PUSH4 0xED88C68E EQ PUSH2 0xC5 JUMPI JUMPDEST PUSH1 0x0 DUP1 REVERT JUMPDEST CALLVALUE DUP1 ISZERO PUSH2 0x50 JUMPI PUSH1 0x0 DUP1 REVERT JUMPDEST POP PUSH2 0x59 PUSH2 0xCF JUMP JUMPDEST PUSH1 0x40 MLOAD PUSH2 0x66 SWAP2 SWAP1 PUSH2 0x25D JUMP JUMPDEST PUSH1 0x40 MLOAD DUP1 SWAP2 SUB SWAP1 RETURN JUMPDEST CALLVALUE DUP1 ISZERO PUSH2 0x7B JUMPI PUSH1 0x0 DUP1 REVERT JUMPDEST POP PUSH2 0x84 PUSH2 0xD5 JUMP JUMPDEST PUSH1 0x40 MLOAD PUSH2 0x91 SWAP2 SWAP1 PUSH2 0x25D JUMP JUMPDEST PUSH1 0x40 MLOAD DUP1 SWAP2 SUB SWAP1 RETURN JUMPDEST CALLVALUE DUP1 ISZERO PUSH2 0xA6 JUMPI PUSH1 0x0 DUP1 REVERT JUMPDEST POP PUSH2 0xAF PUSH2 0xDB JUMP JUMPDEST PUSH1 0x40 MLOAD PUSH2 0xBC SWAP2 SWAP1 PUSH2 0x21B JUMP JUMPDEST PUSH1 0x40 MLOAD DUP1 SWAP2 SUB SWAP1 RETURN JUMPDEST PUSH2 0xCD PUSH2 0x169 JUMP JUMPDEST STOP JUMPDEST PUSH1 0x1 SLOAD DUP2 JUMP JUMPDEST PUSH1 0x2 SLOAD DUP2 JUMP JUMPDEST PUSH1 0x0 DUP1 SLOAD PUSH2 0xE8 SWAP1 PUSH2 0x2D1 JUMP JUMPDEST DUP1 PUSH1 0x1F ADD PUSH1 0x20 DUP1 SWAP2 DIV MUL PUSH1 0x20 ADD PUSH1 0x40 MLOAD SWAP1 DUP2 ADD PUSH1 0x40 MSTORE DUP1 SWAP3 SWAP2 SWAP1 DUP2 DUP2 MSTORE PUSH1 0x20 ADD DUP3 DUP1 SLOAD PUSH2 0x114 SWAP1 PUSH2 0x2D1 JUMP JUMPDEST DUP1 ISZERO PUSH2 0x161 JUMPI DUP1 PUSH1 0x1F LT PUSH2 0x136 JUMPI PUSH2 0x100 DUP1 DUP4 SLOAD DIV MUL DUP4 MSTORE SWAP2 PUSH1 0x20 ADD SWAP2 PUSH2 0x161 JUMP JUMPDEST DUP3 ADD SWAP2 SWAP1 PUSH1 0x0 MSTORE PUSH1 0x20 PUSH1 0x0 KECCAK256 SWAP1 JUMPDEST DUP2 SLOAD DUP2 MSTORE SWAP1 PUSH1 0x1 ADD SWAP1 PUSH1 0x20 ADD DUP1 DUP4 GT PUSH2 0x144 JUMPI DUP3 SWAP1 SUB PUSH1 0x1F AND DUP3 ADD SWAP2 JUMPDEST POP POP POP POP POP DUP2 JUMP JUMPDEST PUSH1 0x1 SLOAD CALLVALUE LT ISZERO PUSH2 0x1AE JUMPI PUSH1 0x40 MLOAD PUSH32 0x8C379A000000000000000000000000000000000000000000000000000000000 DUP2 MSTORE PUSH1 0x4 ADD PUSH2 0x1A5 SWAP1 PUSH2 0x23D JUMP JUMPDEST PUSH1 0x40 MLOAD DUP1 SWAP2 SUB SWAP1 REVERT JUMPDEST JUMP JUMPDEST PUSH1 0x0 PUSH2 0x1BB DUP3 PUSH2 0x278 JUMP JUMPDEST PUSH2 0x1C5 DUP2 DUP6 PUSH2 0x283 JUMP JUMPDEST SWAP4 POP PUSH2 0x1D5 DUP2 DUP6 PUSH1 0x20 DUP7 ADD PUSH2 0x29E JUMP JUMPDEST PUSH2 0x1DE DUP2 PUSH2 0x332 JUMP JUMPDEST DUP5 ADD SWAP2 POP POP SWAP3 SWAP2 POP POP JUMP JUMPDEST PUSH1 0x0 PUSH2 0x1F6 PUSH1 0x25 DUP4 PUSH2 0x283 JUMP JUMPDEST SWAP2 POP PUSH2 0x201 DUP3 PUSH2 0x343 JUMP JUMPDEST PUSH1 0x40 DUP3 ADD SWAP1 POP SWAP2 SWAP1 POP JUMP JUMPDEST PUSH2 0x215 DUP2 PUSH2 0x294 JUMP JUMPDEST DUP3 MSTORE POP POP JUMP JUMPDEST PUSH1 0x0 PUSH1 0x20 DUP3 ADD SWAP1 POP DUP2 DUP2 SUB PUSH1 0x0 DUP4 ADD MSTORE PUSH2 0x235 DUP2 DUP5 PUSH2 0x1B0 JUMP JUMPDEST SWAP1 POP SWAP3 SWAP2 POP POP JUMP JUMPDEST PUSH1 0x0 PUSH1 0x20 DUP3 ADD SWAP1 POP DUP2 DUP2 SUB PUSH1 0x0 DUP4 ADD MSTORE PUSH2 0x256 DUP2 PUSH2 0x1E9 JUMP JUMPDEST SWAP1 POP SWAP2 SWAP1 POP JUMP JUMPDEST PUSH1 0x0 PUSH1 0x20 DUP3 ADD SWAP1 POP PUSH2 0x272 PUSH1 0x0 DUP4 ADD DUP5 PUSH2 0x20C JUMP JUMPDEST SWAP3 SWAP2 POP POP JUMP JUMPDEST PUSH1 0x0 DUP2 MLOAD SWAP1 POP SWAP2 SWAP1 POP JUMP JUMPDEST PUSH1 0x0 DUP3 DUP3 MSTORE PUSH1 0x20 DUP3 ADD SWAP1 POP SWAP3 SWAP2 POP POP JUMP JUMPDEST PUSH1 0x0 DUP2 SWAP1 POP SWAP2 SWAP1 POP JUMP JUMPDEST PUSH1 0x0 JUMPDEST DUP4 DUP2 LT ISZERO PUSH2 0x2BC JUMPI DUP1 DUP3 ADD MLOAD DUP2 DUP5 ADD MSTORE PUSH1 0x20 DUP2 ADD SWAP1 POP PUSH2 0x2A1 JUMP JUMPDEST DUP4 DUP2 GT ISZERO PUSH2 0x2CB JUMPI PUSH1 0x0 DUP5 DUP5 ADD MSTORE JUMPDEST POP POP POP POP JUMP JUMPDEST PUSH1 0x0 PUSH1 0x2 DUP3 DIV SWAP1 POP PUSH1 0x1 DUP3 AND DUP1 PUSH2 0x2E9 JUMPI PUSH1 0x7F DUP3 AND SWAP2 POP JUMPDEST PUSH1 0x20 DUP3 LT DUP2 EQ ISZERO PUSH2 0x2FD JUMPI PUSH2 0x2FC PUSH2 0x303 JUMP JUMPDEST JUMPDEST POP SWAP2 SWAP1 POP JUMP JUMPDEST PUSH32 0x4E487B7100000000000000000000000000000000000000000000000000000000 PUSH1 0x0 MSTORE PUSH1 0x22 PUSH1 0x4 MSTORE PUSH1 0x24 PUSH1 0x0 REVERT JUMPDEST PUSH1 0x0 PUSH1 0x1F NOT PUSH1 0x1F DUP4 ADD AND SWAP1 POP SWAP2 SWAP1 POP JUMP JUMPDEST PUSH32 0x596F752063616E6E6F7420646F6E6174652062656C6F7720247B5F6D696E416D PUSH1 0x0 DUP3 ADD MSTORE PUSH32 0x6F756E747D000000000000000000000000000000000000000000000000000000 PUSH1 0x20 DUP3 ADD MSTORE POP JUMP INVALID LOG2 PUSH5 0x6970667358 0x22 SLT KECCAK256 0xB5 0x2F LOG2 NUMBER SIGNEXTEND LOG2 ORIGIN PUSH11 0xF1D651DF826C15D3473E23 SWAP5 DUP9 0xA6 PUSH28 0xE8C1AC82FCACE6581E64736F6C634300080700330000000000000000 "
				},
				"gasEstimates": {
					"creation": {
						"codeDepositCost": "193600",
						"executionCost": "infinite",
						"totalCost": "infinite"
					},
					"external": {
						"_amountNeeded()": "2429",
						"_minAmount()": "2407",
						"_name()": "infinite",
						"donate()": "2596"
					}
				},
				"methodIdentifiers": {
					"_amountNeeded()": "7a82e699",
					"_minAmount()": "064d4d7c",
					"_name()": "d28d8852",
					"donate()": "ed88c68e"
				}
			},
			"storageLayout": {
				"storage": [
					{
						"astId": 3,
						"contract": "Donation.sol:Donation",
						"label": "_name",
						"offset": 0,
						"slot": "0",
						"type": "t_string_storage"
					},
					{
						"astId": 5,
						"contract": "Donation.sol:Donation",
						"label": "_minAmount",
						"offset": 0,
						"slot": "1",
						"type": "t_uint256"
					},
					{
						"astId": 7,
						"contract": "Donation.sol:Donation",
						"label": "_amountNeeded",
						"offset": 0,
						"slot": "2",
						"type": "t_uint256"
					},
					{
						"astId": 9,
						"contract": "Donation.sol:Donation",
						"label": "_acceptPaymentAfterAmountMet",
						"offset": 0,
						"slot": "3",
						"type": "t_bool"
					}
				],
				"types": {
					"t_bool": {
						"encoding": "inplace",
						"label": "bool",
						"numberOfBytes": "1"
					},
					"t_string_storage": {
						"encoding": "bytes",
						"label": "string",
						"numberOfBytes": "32"
					},
					"t_uint256": {
						"encoding": "inplace",
						"label": "uint256",
						"numberOfBytes": "32"
					}
				}
			},
			"userdoc": {
				"kind": "user",
				"methods": {},
				"version": 1
			}
		}
	}
}