{
	"Donation.sol": {
		"Donation": {
			"abi": [
				{
					"inputs": [
						{
							"internalType": "string",
							"name": "name",
							"type": "string"
						},
						{
							"internalType": "uint256",
							"name": "minAmount",
							"type": "uint256"
						},
						{
							"internalType": "bool",
							"name": "accept",
							"type": "bool"
						},
						{
							"internalType": "uint256",
							"name": "amountNeeded",
							"type": "uint256"
						},
						{
							"internalType": "address",
							"name": "owner",
							"type": "address"
						}
					],
					"stateMutability": "nonpayable",
					"type": "constructor"
				},
				{
					"inputs": [],
					"name": "_donationName",
					"outputs": [
						{
							"internalType": "string",
							"name": "",
							"type": "string"
						}
					],
					"stateMutability": "view",
					"type": "function"
				},
				{
					"inputs": [],
					"name": "acceptPaymentAfterAmountMet",
					"outputs": [
						{
							"internalType": "bool",
							"name": "",
							"type": "bool"
						}
					],
					"stateMutability": "view",
					"type": "function"
				},
				{
					"inputs": [],
					"name": "donate",
					"outputs": [],
					"stateMutability": "payable",
					"type": "function"
				},
				{
					"inputs": [],
					"name": "donationAmountNeeded",
					"outputs": [
						{
							"internalType": "uint256",
							"name": "",
							"type": "uint256"
						}
					],
					"stateMutability": "view",
					"type": "function"
				},
				{
					"inputs": [],
					"name": "donationBalance",
					"outputs": [
						{
							"internalType": "uint256",
							"name": "",
							"type": "uint256"
						}
					],
					"stateMutability": "view",
					"type": "function"
				},
				{
					"inputs": [],
					"name": "donationMinAmount",
					"outputs": [
						{
							"internalType": "uint256",
							"name": "",
							"type": "uint256"
						}
					],
					"stateMutability": "view",
					"type": "function"
				},
				{
					"inputs": [],
					"name": "getDonationName",
					"outputs": [
						{
							"internalType": "string",
							"name": "",
							"type": "string"
						}
					],
					"stateMutability": "view",
					"type": "function"
				},
				{
					"inputs": [],
					"name": "getOwner",
					"outputs": [
						{
							"internalType": "address",
							"name": "",
							"type": "address"
						}
					],
					"stateMutability": "view",
					"type": "function"
				},
				{
					"inputs": [
						{
							"internalType": "address",
							"name": "owner",
							"type": "address"
						}
					],
					"name": "withdraw",
					"outputs": [],
					"stateMutability": "nonpayable",
					"type": "function"
				}
			],
			"devdoc": {
				"kind": "dev",
				"methods": {},
				"version": 1
			},
			"evm": {
				"assembly": "    /* \"Donation.sol\":280:1632  contract Donation {... */\n  mstore(0x40, 0x80)\n    /* \"Donation.sol\":479:765  constructor(string memory name, uint minAmount, bool accept, uint amountNeeded, address owner) {... */\n  callvalue\n  dup1\n  iszero\n  tag_1\n  jumpi\n  0x00\n  dup1\n  revert\ntag_1:\n  pop\n  mload(0x40)\n  sub(codesize, bytecodeSize)\n  dup1\n  bytecodeSize\n  dup4\n  codecopy\n  dup2\n  dup2\n  add\n  0x40\n  mstore\n  dup2\n  add\n  swap1\n  tag_2\n  swap2\n  swap1\n  tag_3\n  jump\t// in\ntag_2:\n    /* \"Donation.sol\":600:604  name */\n  dup5\n    /* \"Donation.sol\":584:597  _donationName */\n  0x00\n    /* \"Donation.sol\":584:604  _donationName = name */\n  swap1\n  dup1\n  mload\n  swap1\n  0x20\n  add\n  swap1\n  tag_6\n  swap3\n  swap2\n  swap1\n  tag_7\n  jump\t// in\ntag_6:\n  pop\n    /* \"Donation.sol\":634:643  minAmount */\n  dup4\n    /* \"Donation.sol\":614:631  donationMinAmount */\n  0x01\n    /* \"Donation.sol\":614:643  donationMinAmount = minAmount */\n  dup2\n  swap1\n  sstore\n  pop\n    /* \"Donation.sol\":683:689  accept */\n  dup3\n    /* \"Donation.sol\":653:680  acceptPaymentAfterAmountMet */\n  0x03\n  0x00\n    /* \"Donation.sol\":653:689  acceptPaymentAfterAmountMet = accept */\n  0x0100\n  exp\n  dup2\n  sload\n  dup2\n  0xff\n  mul\n  not\n  and\n  swap1\n  dup4\n  iszero\n  iszero\n  mul\n  or\n  swap1\n  sstore\n  pop\n    /* \"Donation.sol\":722:734  amountNeeded */\n  dup2\n    /* \"Donation.sol\":699:719  donationAmountNeeded */\n  0x02\n    /* \"Donation.sol\":699:734  donationAmountNeeded = amountNeeded */\n  dup2\n  swap1\n  sstore\n  pop\n    /* \"Donation.sol\":753:758  owner */\n  dup1\n    /* \"Donation.sol\":744:750  _owner */\n  0x03\n  0x01\n    /* \"Donation.sol\":744:758  _owner = owner */\n  0x0100\n  exp\n  dup2\n  sload\n  dup2\n  0xffffffffffffffffffffffffffffffffffffffff\n  mul\n  not\n  and\n  swap1\n  dup4\n  0xffffffffffffffffffffffffffffffffffffffff\n  and\n  mul\n  or\n  swap1\n  sstore\n  pop\n    /* \"Donation.sol\":479:765  constructor(string memory name, uint minAmount, bool accept, uint amountNeeded, address owner) {... */\n  pop\n  pop\n  pop\n  pop\n  pop\n    /* \"Donation.sol\":280:1632  contract Donation {... */\n  jump(tag_8)\ntag_7:\n  dup3\n  dup1\n  sload\n  tag_9\n  swap1\n  tag_10\n  jump\t// in\ntag_9:\n  swap1\n  0x00\n  mstore\n  keccak256(0x00, 0x20)\n  swap1\n  0x1f\n  add\n  0x20\n  swap1\n  div\n  dup2\n  add\n  swap3\n  dup3\n  tag_12\n  jumpi\n  0x00\n  dup6\n  sstore\n  jump(tag_11)\ntag_12:\n  dup3\n  0x1f\n  lt\n  tag_13\n  jumpi\n  dup1\n  mload\n  not(0xff)\n  and\n  dup4\n  dup1\n  add\n  or\n  dup6\n  sstore\n  jump(tag_11)\ntag_13:\n  dup3\n  dup1\n  add\n  0x01\n  add\n  dup6\n  sstore\n  dup3\n  iszero\n  tag_11\n  jumpi\n  swap2\n  dup3\n  add\ntag_14:\n  dup3\n  dup2\n  gt\n  iszero\n  tag_15\n  jumpi\n  dup3\n  mload\n  dup3\n  sstore\n  swap2\n  0x20\n  add\n  swap2\n  swap1\n  0x01\n  add\n  swap1\n  jump(tag_14)\ntag_15:\ntag_11:\n  pop\n  swap1\n  pop\n  tag_16\n  swap2\n  swap1\n  tag_17\n  jump\t// in\ntag_16:\n  pop\n  swap1\n  jump\t// out\ntag_17:\ntag_18:\n  dup1\n  dup3\n  gt\n  iszero\n  tag_19\n  jumpi\n  0x00\n  dup2\n  0x00\n  swap1\n  sstore\n  pop\n  0x01\n  add\n  jump(tag_18)\ntag_19:\n  pop\n  swap1\n  jump\t// out\n    /* \"#utility.yul\":7:428   */\ntag_21:\n    /* \"#utility.yul\":96:101   */\n  0x00\n    /* \"#utility.yul\":121:187   */\n  tag_23\n    /* \"#utility.yul\":137:186   */\n  tag_24\n    /* \"#utility.yul\":179:185   */\n  dup5\n    /* \"#utility.yul\":137:186   */\n  tag_25\n  jump\t// in\ntag_24:\n    /* \"#utility.yul\":121:187   */\n  tag_26\n  jump\t// in\ntag_23:\n    /* \"#utility.yul\":112:187   */\n  swap1\n  pop\n    /* \"#utility.yul\":210:216   */\n  dup3\n    /* \"#utility.yul\":203:208   */\n  dup2\n    /* \"#utility.yul\":196:217   */\n  mstore\n    /* \"#utility.yul\":248:252   */\n  0x20\n    /* \"#utility.yul\":241:246   */\n  dup2\n    /* \"#utility.yul\":237:253   */\n  add\n    /* \"#utility.yul\":286:289   */\n  dup5\n    /* \"#utility.yul\":277:283   */\n  dup5\n    /* \"#utility.yul\":272:275   */\n  dup5\n    /* \"#utility.yul\":268:284   */\n  add\n    /* \"#utility.yul\":265:290   */\n  gt\n    /* \"#utility.yul\":262:374   */\n  iszero\n  tag_27\n  jumpi\n    /* \"#utility.yul\":293:372   */\n  tag_28\n  tag_29\n  jump\t// in\ntag_28:\n    /* \"#utility.yul\":262:374   */\ntag_27:\n    /* \"#utility.yul\":383:422   */\n  tag_30\n    /* \"#utility.yul\":415:421   */\n  dup5\n    /* \"#utility.yul\":410:413   */\n  dup3\n    /* \"#utility.yul\":405:408   */\n  dup6\n    /* \"#utility.yul\":383:422   */\n  tag_31\n  jump\t// in\ntag_30:\n    /* \"#utility.yul\":102:428   */\n  pop\n    /* \"#utility.yul\":7:428   */\n  swap4\n  swap3\n  pop\n  pop\n  pop\n  jump\t// out\n    /* \"#utility.yul\":434:577   */\ntag_32:\n    /* \"#utility.yul\":491:496   */\n  0x00\n    /* \"#utility.yul\":522:528   */\n  dup2\n    /* \"#utility.yul\":516:529   */\n  mload\n    /* \"#utility.yul\":507:529   */\n  swap1\n  pop\n    /* \"#utility.yul\":538:571   */\n  tag_34\n    /* \"#utility.yul\":565:570   */\n  dup2\n    /* \"#utility.yul\":538:571   */\n  tag_35\n  jump\t// in\ntag_34:\n    /* \"#utility.yul\":434:577   */\n  swap3\n  swap2\n  pop\n  pop\n  jump\t// out\n    /* \"#utility.yul\":583:720   */\ntag_36:\n    /* \"#utility.yul\":637:642   */\n  0x00\n    /* \"#utility.yul\":668:674   */\n  dup2\n    /* \"#utility.yul\":662:675   */\n  mload\n    /* \"#utility.yul\":653:675   */\n  swap1\n  pop\n    /* \"#utility.yul\":684:714   */\n  tag_38\n    /* \"#utility.yul\":708:713   */\n  dup2\n    /* \"#utility.yul\":684:714   */\n  tag_39\n  jump\t// in\ntag_38:\n    /* \"#utility.yul\":583:720   */\n  swap3\n  swap2\n  pop\n  pop\n  jump\t// out\n    /* \"#utility.yul\":740:1095   */\ntag_40:\n    /* \"#utility.yul\":807:812   */\n  0x00\n    /* \"#utility.yul\":856:859   */\n  dup3\n    /* \"#utility.yul\":849:853   */\n  0x1f\n    /* \"#utility.yul\":841:847   */\n  dup4\n    /* \"#utility.yul\":837:854   */\n  add\n    /* \"#utility.yul\":833:860   */\n  slt\n    /* \"#utility.yul\":823:945   */\n  tag_42\n  jumpi\n    /* \"#utility.yul\":864:943   */\n  tag_43\n  tag_44\n  jump\t// in\ntag_43:\n    /* \"#utility.yul\":823:945   */\ntag_42:\n    /* \"#utility.yul\":974:980   */\n  dup2\n    /* \"#utility.yul\":968:981   */\n  mload\n    /* \"#utility.yul\":999:1089   */\n  tag_45\n    /* \"#utility.yul\":1085:1088   */\n  dup5\n    /* \"#utility.yul\":1077:1083   */\n  dup3\n    /* \"#utility.yul\":1070:1074   */\n  0x20\n    /* \"#utility.yul\":1062:1068   */\n  dup7\n    /* \"#utility.yul\":1058:1075   */\n  add\n    /* \"#utility.yul\":999:1089   */\n  tag_21\n  jump\t// in\ntag_45:\n    /* \"#utility.yul\":990:1089   */\n  swap2\n  pop\n    /* \"#utility.yul\":813:1095   */\n  pop\n    /* \"#utility.yul\":740:1095   */\n  swap3\n  swap2\n  pop\n  pop\n  jump\t// out\n    /* \"#utility.yul\":1101:1244   */\ntag_46:\n    /* \"#utility.yul\":1158:1163   */\n  0x00\n    /* \"#utility.yul\":1189:1195   */\n  dup2\n    /* \"#utility.yul\":1183:1196   */\n  mload\n    /* \"#utility.yul\":1174:1196   */\n  swap1\n  pop\n    /* \"#utility.yul\":1205:1238   */\n  tag_48\n    /* \"#utility.yul\":1232:1237   */\n  dup2\n    /* \"#utility.yul\":1205:1238   */\n  tag_49\n  jump\t// in\ntag_48:\n    /* \"#utility.yul\":1101:1244   */\n  swap3\n  swap2\n  pop\n  pop\n  jump\t// out\n    /* \"#utility.yul\":1250:2394   */\ntag_3:\n    /* \"#utility.yul\":1363:1369   */\n  0x00\n    /* \"#utility.yul\":1371:1377   */\n  dup1\n    /* \"#utility.yul\":1379:1385   */\n  0x00\n    /* \"#utility.yul\":1387:1393   */\n  dup1\n    /* \"#utility.yul\":1395:1401   */\n  0x00\n    /* \"#utility.yul\":1444:1447   */\n  0xa0\n    /* \"#utility.yul\":1432:1441   */\n  dup7\n    /* \"#utility.yul\":1423:1430   */\n  dup9\n    /* \"#utility.yul\":1419:1442   */\n  sub\n    /* \"#utility.yul\":1415:1448   */\n  slt\n    /* \"#utility.yul\":1412:1532   */\n  iszero\n  tag_51\n  jumpi\n    /* \"#utility.yul\":1451:1530   */\n  tag_52\n  tag_53\n  jump\t// in\ntag_52:\n    /* \"#utility.yul\":1412:1532   */\ntag_51:\n    /* \"#utility.yul\":1592:1593   */\n  0x00\n    /* \"#utility.yul\":1581:1590   */\n  dup7\n    /* \"#utility.yul\":1577:1594   */\n  add\n    /* \"#utility.yul\":1571:1595   */\n  mload\n    /* \"#utility.yul\":1622:1640   */\n  0xffffffffffffffff\n    /* \"#utility.yul\":1614:1620   */\n  dup2\n    /* \"#utility.yul\":1611:1641   */\n  gt\n    /* \"#utility.yul\":1608:1725   */\n  iszero\n  tag_54\n  jumpi\n    /* \"#utility.yul\":1644:1723   */\n  tag_55\n  tag_56\n  jump\t// in\ntag_55:\n    /* \"#utility.yul\":1608:1725   */\ntag_54:\n    /* \"#utility.yul\":1749:1823   */\n  tag_57\n    /* \"#utility.yul\":1815:1822   */\n  dup9\n    /* \"#utility.yul\":1806:1812   */\n  dup3\n    /* \"#utility.yul\":1795:1804   */\n  dup10\n    /* \"#utility.yul\":1791:1813   */\n  add\n    /* \"#utility.yul\":1749:1823   */\n  tag_40\n  jump\t// in\ntag_57:\n    /* \"#utility.yul\":1739:1823   */\n  swap6\n  pop\n    /* \"#utility.yul\":1542:1833   */\n  pop\n    /* \"#utility.yul\":1872:1874   */\n  0x20\n    /* \"#utility.yul\":1898:1962   */\n  tag_58\n    /* \"#utility.yul\":1954:1961   */\n  dup9\n    /* \"#utility.yul\":1945:1951   */\n  dup3\n    /* \"#utility.yul\":1934:1943   */\n  dup10\n    /* \"#utility.yul\":1930:1952   */\n  add\n    /* \"#utility.yul\":1898:1962   */\n  tag_46\n  jump\t// in\ntag_58:\n    /* \"#utility.yul\":1888:1962   */\n  swap5\n  pop\n    /* \"#utility.yul\":1843:1972   */\n  pop\n    /* \"#utility.yul\":2011:2013   */\n  0x40\n    /* \"#utility.yul\":2037:2098   */\n  tag_59\n    /* \"#utility.yul\":2090:2097   */\n  dup9\n    /* \"#utility.yul\":2081:2087   */\n  dup3\n    /* \"#utility.yul\":2070:2079   */\n  dup10\n    /* \"#utility.yul\":2066:2088   */\n  add\n    /* \"#utility.yul\":2037:2098   */\n  tag_36\n  jump\t// in\ntag_59:\n    /* \"#utility.yul\":2027:2098   */\n  swap4\n  pop\n    /* \"#utility.yul\":1982:2108   */\n  pop\n    /* \"#utility.yul\":2147:2149   */\n  0x60\n    /* \"#utility.yul\":2173:2237   */\n  tag_60\n    /* \"#utility.yul\":2229:2236   */\n  dup9\n    /* \"#utility.yul\":2220:2226   */\n  dup3\n    /* \"#utility.yul\":2209:2218   */\n  dup10\n    /* \"#utility.yul\":2205:2227   */\n  add\n    /* \"#utility.yul\":2173:2237   */\n  tag_46\n  jump\t// in\ntag_60:\n    /* \"#utility.yul\":2163:2237   */\n  swap3\n  pop\n    /* \"#utility.yul\":2118:2247   */\n  pop\n    /* \"#utility.yul\":2286:2289   */\n  0x80\n    /* \"#utility.yul\":2313:2377   */\n  tag_61\n    /* \"#utility.yul\":2369:2376   */\n  dup9\n    /* \"#utility.yul\":2360:2366   */\n  dup3\n    /* \"#utility.yul\":2349:2358   */\n  dup10\n    /* \"#utility.yul\":2345:2367   */\n  add\n    /* \"#utility.yul\":2313:2377   */\n  tag_32\n  jump\t// in\ntag_61:\n    /* \"#utility.yul\":2303:2377   */\n  swap2\n  pop\n    /* \"#utility.yul\":2257:2387   */\n  pop\n    /* \"#utility.yul\":1250:2394   */\n  swap3\n  swap6\n  pop\n  swap3\n  swap6\n  swap1\n  swap4\n  pop\n  jump\t// out\n    /* \"#utility.yul\":2400:2529   */\ntag_26:\n    /* \"#utility.yul\":2434:2440   */\n  0x00\n    /* \"#utility.yul\":2461:2481   */\n  tag_63\n  tag_64\n  jump\t// in\ntag_63:\n    /* \"#utility.yul\":2451:2481   */\n  swap1\n  pop\n    /* \"#utility.yul\":2490:2523   */\n  tag_65\n    /* \"#utility.yul\":2518:2522   */\n  dup3\n    /* \"#utility.yul\":2510:2516   */\n  dup3\n    /* \"#utility.yul\":2490:2523   */\n  tag_66\n  jump\t// in\ntag_65:\n    /* \"#utility.yul\":2400:2529   */\n  swap2\n  swap1\n  pop\n  jump\t// out\n    /* \"#utility.yul\":2535:2610   */\ntag_64:\n    /* \"#utility.yul\":2568:2574   */\n  0x00\n    /* \"#utility.yul\":2601:2603   */\n  0x40\n    /* \"#utility.yul\":2595:2604   */\n  mload\n    /* \"#utility.yul\":2585:2604   */\n  swap1\n  pop\n    /* \"#utility.yul\":2535:2610   */\n  swap1\n  jump\t// out\n    /* \"#utility.yul\":2616:2924   */\ntag_25:\n    /* \"#utility.yul\":2678:2682   */\n  0x00\n    /* \"#utility.yul\":2768:2786   */\n  0xffffffffffffffff\n    /* \"#utility.yul\":2760:2766   */\n  dup3\n    /* \"#utility.yul\":2757:2787   */\n  gt\n    /* \"#utility.yul\":2754:2810   */\n  iszero\n  tag_69\n  jumpi\n    /* \"#utility.yul\":2790:2808   */\n  tag_70\n  tag_71\n  jump\t// in\ntag_70:\n    /* \"#utility.yul\":2754:2810   */\ntag_69:\n    /* \"#utility.yul\":2828:2857   */\n  tag_72\n    /* \"#utility.yul\":2850:2856   */\n  dup3\n    /* \"#utility.yul\":2828:2857   */\n  tag_73\n  jump\t// in\ntag_72:\n    /* \"#utility.yul\":2820:2857   */\n  swap1\n  pop\n    /* \"#utility.yul\":2912:2916   */\n  0x20\n    /* \"#utility.yul\":2906:2910   */\n  dup2\n    /* \"#utility.yul\":2902:2917   */\n  add\n    /* \"#utility.yul\":2894:2917   */\n  swap1\n  pop\n    /* \"#utility.yul\":2616:2924   */\n  swap2\n  swap1\n  pop\n  jump\t// out\n    /* \"#utility.yul\":2930:3026   */\ntag_74:\n    /* \"#utility.yul\":2967:2974   */\n  0x00\n    /* \"#utility.yul\":2996:3020   */\n  tag_76\n    /* \"#utility.yul\":3014:3019   */\n  dup3\n    /* \"#utility.yul\":2996:3020   */\n  tag_77\n  jump\t// in\ntag_76:\n    /* \"#utility.yul\":2985:3020   */\n  swap1\n  pop\n    /* \"#utility.yul\":2930:3026   */\n  swap2\n  swap1\n  pop\n  jump\t// out\n    /* \"#utility.yul\":3032:3122   */\ntag_78:\n    /* \"#utility.yul\":3066:3073   */\n  0x00\n    /* \"#utility.yul\":3109:3114   */\n  dup2\n    /* \"#utility.yul\":3102:3115   */\n  iszero\n    /* \"#utility.yul\":3095:3116   */\n  iszero\n    /* \"#utility.yul\":3084:3116   */\n  swap1\n  pop\n    /* \"#utility.yul\":3032:3122   */\n  swap2\n  swap1\n  pop\n  jump\t// out\n    /* \"#utility.yul\":3128:3254   */\ntag_77:\n    /* \"#utility.yul\":3165:3172   */\n  0x00\n    /* \"#utility.yul\":3205:3247   */\n  0xffffffffffffffffffffffffffffffffffffffff\n    /* \"#utility.yul\":3198:3203   */\n  dup3\n    /* \"#utility.yul\":3194:3248   */\n  and\n    /* \"#utility.yul\":3183:3248   */\n  swap1\n  pop\n    /* \"#utility.yul\":3128:3254   */\n  swap2\n  swap1\n  pop\n  jump\t// out\n    /* \"#utility.yul\":3260:3337   */\ntag_81:\n    /* \"#utility.yul\":3297:3304   */\n  0x00\n    /* \"#utility.yul\":3326:3331   */\n  dup2\n    /* \"#utility.yul\":3315:3331   */\n  swap1\n  pop\n    /* \"#utility.yul\":3260:3337   */\n  swap2\n  swap1\n  pop\n  jump\t// out\n    /* \"#utility.yul\":3343:3650   */\ntag_31:\n    /* \"#utility.yul\":3411:3412   */\n  0x00\n    /* \"#utility.yul\":3421:3534   */\ntag_84:\n    /* \"#utility.yul\":3435:3441   */\n  dup4\n    /* \"#utility.yul\":3432:3433   */\n  dup2\n    /* \"#utility.yul\":3429:3442   */\n  lt\n    /* \"#utility.yul\":3421:3534   */\n  iszero\n  tag_86\n  jumpi\n    /* \"#utility.yul\":3520:3521   */\n  dup1\n    /* \"#utility.yul\":3515:3518   */\n  dup3\n    /* \"#utility.yul\":3511:3522   */\n  add\n    /* \"#utility.yul\":3505:3523   */\n  mload\n    /* \"#utility.yul\":3501:3502   */\n  dup2\n    /* \"#utility.yul\":3496:3499   */\n  dup5\n    /* \"#utility.yul\":3492:3503   */\n  add\n    /* \"#utility.yul\":3485:3524   */\n  mstore\n    /* \"#utility.yul\":3457:3459   */\n  0x20\n    /* \"#utility.yul\":3454:3455   */\n  dup2\n    /* \"#utility.yul\":3450:3460   */\n  add\n    /* \"#utility.yul\":3445:3460   */\n  swap1\n  pop\n    /* \"#utility.yul\":3421:3534   */\n  jump(tag_84)\ntag_86:\n    /* \"#utility.yul\":3552:3558   */\n  dup4\n    /* \"#utility.yul\":3549:3550   */\n  dup2\n    /* \"#utility.yul\":3546:3559   */\n  gt\n    /* \"#utility.yul\":3543:3644   */\n  iszero\n  tag_87\n  jumpi\n    /* \"#utility.yul\":3632:3633   */\n  0x00\n    /* \"#utility.yul\":3623:3629   */\n  dup5\n    /* \"#utility.yul\":3618:3621   */\n  dup5\n    /* \"#utility.yul\":3614:3630   */\n  add\n    /* \"#utility.yul\":3607:3634   */\n  mstore\n    /* \"#utility.yul\":3543:3644   */\ntag_87:\n    /* \"#utility.yul\":3392:3650   */\n  pop\n    /* \"#utility.yul\":3343:3650   */\n  pop\n  pop\n  pop\n  jump\t// out\n    /* \"#utility.yul\":3656:3976   */\ntag_10:\n    /* \"#utility.yul\":3700:3706   */\n  0x00\n    /* \"#utility.yul\":3737:3738   */\n  0x02\n    /* \"#utility.yul\":3731:3735   */\n  dup3\n    /* \"#utility.yul\":3727:3739   */\n  div\n    /* \"#utility.yul\":3717:3739   */\n  swap1\n  pop\n    /* \"#utility.yul\":3784:3785   */\n  0x01\n    /* \"#utility.yul\":3778:3782   */\n  dup3\n    /* \"#utility.yul\":3774:3786   */\n  and\n    /* \"#utility.yul\":3805:3823   */\n  dup1\n    /* \"#utility.yul\":3795:3876   */\n  tag_89\n  jumpi\n    /* \"#utility.yul\":3861:3865   */\n  0x7f\n    /* \"#utility.yul\":3853:3859   */\n  dup3\n    /* \"#utility.yul\":3849:3866   */\n  and\n    /* \"#utility.yul\":3839:3866   */\n  swap2\n  pop\n    /* \"#utility.yul\":3795:3876   */\ntag_89:\n    /* \"#utility.yul\":3923:3925   */\n  0x20\n    /* \"#utility.yul\":3915:3921   */\n  dup3\n    /* \"#utility.yul\":3912:3926   */\n  lt\n    /* \"#utility.yul\":3892:3910   */\n  dup2\n    /* \"#utility.yul\":3889:3927   */\n  eq\n    /* \"#utility.yul\":3886:3970   */\n  iszero\n  tag_90\n  jumpi\n    /* \"#utility.yul\":3942:3960   */\n  tag_91\n  tag_92\n  jump\t// in\ntag_91:\n    /* \"#utility.yul\":3886:3970   */\ntag_90:\n    /* \"#utility.yul\":3707:3976   */\n  pop\n    /* \"#utility.yul\":3656:3976   */\n  swap2\n  swap1\n  pop\n  jump\t// out\n    /* \"#utility.yul\":3982:4263   */\ntag_66:\n    /* \"#utility.yul\":4065:4092   */\n  tag_94\n    /* \"#utility.yul\":4087:4091   */\n  dup3\n    /* \"#utility.yul\":4065:4092   */\n  tag_73\n  jump\t// in\ntag_94:\n    /* \"#utility.yul\":4057:4063   */\n  dup2\n    /* \"#utility.yul\":4053:4093   */\n  add\n    /* \"#utility.yul\":4195:4201   */\n  dup2\n    /* \"#utility.yul\":4183:4193   */\n  dup2\n    /* \"#utility.yul\":4180:4202   */\n  lt\n    /* \"#utility.yul\":4159:4177   */\n  0xffffffffffffffff\n    /* \"#utility.yul\":4147:4157   */\n  dup3\n    /* \"#utility.yul\":4144:4178   */\n  gt\n    /* \"#utility.yul\":4141:4203   */\n  or\n    /* \"#utility.yul\":4138:4226   */\n  iszero\n  tag_95\n  jumpi\n    /* \"#utility.yul\":4206:4224   */\n  tag_96\n  tag_71\n  jump\t// in\ntag_96:\n    /* \"#utility.yul\":4138:4226   */\ntag_95:\n    /* \"#utility.yul\":4246:4256   */\n  dup1\n    /* \"#utility.yul\":4242:4244   */\n  0x40\n    /* \"#utility.yul\":4235:4257   */\n  mstore\n    /* \"#utility.yul\":4025:4263   */\n  pop\n    /* \"#utility.yul\":3982:4263   */\n  pop\n  pop\n  jump\t// out\n    /* \"#utility.yul\":4269:4449   */\ntag_92:\n    /* \"#utility.yul\":4317:4394   */\n  0x4e487b7100000000000000000000000000000000000000000000000000000000\n    /* \"#utility.yul\":4314:4315   */\n  0x00\n    /* \"#utility.yul\":4307:4395   */\n  mstore\n    /* \"#utility.yul\":4414:4418   */\n  0x22\n    /* \"#utility.yul\":4411:4412   */\n  0x04\n    /* \"#utility.yul\":4404:4419   */\n  mstore\n    /* \"#utility.yul\":4438:4442   */\n  0x24\n    /* \"#utility.yul\":4435:4436   */\n  0x00\n    /* \"#utility.yul\":4428:4443   */\n  revert\n    /* \"#utility.yul\":4455:4635   */\ntag_71:\n    /* \"#utility.yul\":4503:4580   */\n  0x4e487b7100000000000000000000000000000000000000000000000000000000\n    /* \"#utility.yul\":4500:4501   */\n  0x00\n    /* \"#utility.yul\":4493:4581   */\n  mstore\n    /* \"#utility.yul\":4600:4604   */\n  0x41\n    /* \"#utility.yul\":4597:4598   */\n  0x04\n    /* \"#utility.yul\":4590:4605   */\n  mstore\n    /* \"#utility.yul\":4624:4628   */\n  0x24\n    /* \"#utility.yul\":4621:4622   */\n  0x00\n    /* \"#utility.yul\":4614:4629   */\n  revert\n    /* \"#utility.yul\":4641:4758   */\ntag_44:\n    /* \"#utility.yul\":4750:4751   */\n  0x00\n    /* \"#utility.yul\":4747:4748   */\n  dup1\n    /* \"#utility.yul\":4740:4752   */\n  revert\n    /* \"#utility.yul\":4764:4881   */\ntag_29:\n    /* \"#utility.yul\":4873:4874   */\n  0x00\n    /* \"#utility.yul\":4870:4871   */\n  dup1\n    /* \"#utility.yul\":4863:4875   */\n  revert\n    /* \"#utility.yul\":4887:5004   */\ntag_56:\n    /* \"#utility.yul\":4996:4997   */\n  0x00\n    /* \"#utility.yul\":4993:4994   */\n  dup1\n    /* \"#utility.yul\":4986:4998   */\n  revert\n    /* \"#utility.yul\":5010:5127   */\ntag_53:\n    /* \"#utility.yul\":5119:5120   */\n  0x00\n    /* \"#utility.yul\":5116:5117   */\n  dup1\n    /* \"#utility.yul\":5109:5121   */\n  revert\n    /* \"#utility.yul\":5133:5235   */\ntag_73:\n    /* \"#utility.yul\":5174:5180   */\n  0x00\n    /* \"#utility.yul\":5225:5227   */\n  0x1f\n    /* \"#utility.yul\":5221:5228   */\n  not\n    /* \"#utility.yul\":5216:5218   */\n  0x1f\n    /* \"#utility.yul\":5209:5214   */\n  dup4\n    /* \"#utility.yul\":5205:5219   */\n  add\n    /* \"#utility.yul\":5201:5229   */\n  and\n    /* \"#utility.yul\":5191:5229   */\n  swap1\n  pop\n    /* \"#utility.yul\":5133:5235   */\n  swap2\n  swap1\n  pop\n  jump\t// out\n    /* \"#utility.yul\":5241:5363   */\ntag_35:\n    /* \"#utility.yul\":5314:5338   */\n  tag_105\n    /* \"#utility.yul\":5332:5337   */\n  dup2\n    /* \"#utility.yul\":5314:5338   */\n  tag_74\n  jump\t// in\ntag_105:\n    /* \"#utility.yul\":5307:5312   */\n  dup2\n    /* \"#utility.yul\":5304:5339   */\n  eq\n    /* \"#utility.yul\":5294:5357   */\n  tag_106\n  jumpi\n    /* \"#utility.yul\":5353:5354   */\n  0x00\n    /* \"#utility.yul\":5350:5351   */\n  dup1\n    /* \"#utility.yul\":5343:5355   */\n  revert\n    /* \"#utility.yul\":5294:5357   */\ntag_106:\n    /* \"#utility.yul\":5241:5363   */\n  pop\n  jump\t// out\n    /* \"#utility.yul\":5369:5485   */\ntag_39:\n    /* \"#utility.yul\":5439:5460   */\n  tag_108\n    /* \"#utility.yul\":5454:5459   */\n  dup2\n    /* \"#utility.yul\":5439:5460   */\n  tag_78\n  jump\t// in\ntag_108:\n    /* \"#utility.yul\":5432:5437   */\n  dup2\n    /* \"#utility.yul\":5429:5461   */\n  eq\n    /* \"#utility.yul\":5419:5479   */\n  tag_109\n  jumpi\n    /* \"#utility.yul\":5475:5476   */\n  0x00\n    /* \"#utility.yul\":5472:5473   */\n  dup1\n    /* \"#utility.yul\":5465:5477   */\n  revert\n    /* \"#utility.yul\":5419:5479   */\ntag_109:\n    /* \"#utility.yul\":5369:5485   */\n  pop\n  jump\t// out\n    /* \"#utility.yul\":5491:5613   */\ntag_49:\n    /* \"#utility.yul\":5564:5588   */\n  tag_111\n    /* \"#utility.yul\":5582:5587   */\n  dup2\n    /* \"#utility.yul\":5564:5588   */\n  tag_81\n  jump\t// in\ntag_111:\n    /* \"#utility.yul\":5557:5562   */\n  dup2\n    /* \"#utility.yul\":5554:5589   */\n  eq\n    /* \"#utility.yul\":5544:5607   */\n  tag_112\n  jumpi\n    /* \"#utility.yul\":5603:5604   */\n  0x00\n    /* \"#utility.yul\":5600:5601   */\n  dup1\n    /* \"#utility.yul\":5593:5605   */\n  revert\n    /* \"#utility.yul\":5544:5607   */\ntag_112:\n    /* \"#utility.yul\":5491:5613   */\n  pop\n  jump\t// out\n    /* \"Donation.sol\":280:1632  contract Donation {... */\ntag_8:\n  dataSize(sub_0)\n  dup1\n  dataOffset(sub_0)\n  0x00\n  codecopy\n  0x00\n  return\nstop\n\nsub_0: assembly {\n        /* \"Donation.sol\":280:1632  contract Donation {... */\n      mstore(0x40, 0x80)\n      jumpi(tag_1, lt(calldatasize, 0x04))\n      shr(0xe0, calldataload(0x00))\n      dup1\n      0x893d20e8\n      gt\n      tag_11\n      jumpi\n      dup1\n      0x893d20e8\n      eq\n      tag_6\n      jumpi\n      dup1\n      0xb383bf2d\n      eq\n      tag_7\n      jumpi\n      dup1\n      0xeae3f764\n      eq\n      tag_8\n      jumpi\n      dup1\n      0xed11f46a\n      eq\n      tag_9\n      jumpi\n      dup1\n      0xed88c68e\n      eq\n      tag_10\n      jumpi\n      jump(tag_1)\n    tag_11:\n      dup1\n      0x354ecc85\n      eq\n      tag_2\n      jumpi\n      dup1\n      0x51cff8d9\n      eq\n      tag_3\n      jumpi\n      dup1\n      0x798be230\n      eq\n      tag_4\n      jumpi\n      dup1\n      0x80fdef1b\n      eq\n      tag_5\n      jumpi\n    tag_1:\n      0x00\n      dup1\n      revert\n        /* \"Donation.sol\":305:332  string public _donationName */\n    tag_2:\n      callvalue\n      dup1\n      iszero\n      tag_12\n      jumpi\n      0x00\n      dup1\n      revert\n    tag_12:\n      pop\n      tag_13\n      tag_14\n      jump\t// in\n    tag_13:\n      mload(0x40)\n      tag_15\n      swap2\n      swap1\n      tag_16\n      jump\t// in\n    tag_15:\n      mload(0x40)\n      dup1\n      swap2\n      sub\n      swap1\n      return\n        /* \"Donation.sol\":1233:1440  function withdraw(address owner) public {... */\n    tag_3:\n      callvalue\n      dup1\n      iszero\n      tag_17\n      jumpi\n      0x00\n      dup1\n      revert\n    tag_17:\n      pop\n      tag_18\n      0x04\n      dup1\n      calldatasize\n      sub\n      dup2\n      add\n      swap1\n      tag_19\n      swap2\n      swap1\n      tag_20\n      jump\t// in\n    tag_19:\n      tag_21\n      jump\t// in\n    tag_18:\n      stop\n        /* \"Donation.sol\":411:450  bool public acceptPaymentAfterAmountMet */\n    tag_4:\n      callvalue\n      dup1\n      iszero\n      tag_22\n      jumpi\n      0x00\n      dup1\n      revert\n    tag_22:\n      pop\n      tag_23\n      tag_24\n      jump\t// in\n    tag_23:\n      mload(0x40)\n      tag_25\n      swap2\n      swap1\n      tag_26\n      jump\t// in\n    tag_25:\n      mload(0x40)\n      dup1\n      swap2\n      sub\n      swap1\n      return\n        /* \"Donation.sol\":373:405  uint public donationAmountNeeded */\n    tag_5:\n      callvalue\n      dup1\n      iszero\n      tag_27\n      jumpi\n      0x00\n      dup1\n      revert\n    tag_27:\n      pop\n      tag_28\n      tag_29\n      jump\t// in\n    tag_28:\n      mload(0x40)\n      tag_30\n      swap2\n      swap1\n      tag_31\n      jump\t// in\n    tag_30:\n      mload(0x40)\n      dup1\n      swap2\n      sub\n      swap1\n      return\n        /* \"Donation.sol\":1551:1630  function getOwner() public view returns(address) {... */\n    tag_6:\n      callvalue\n      dup1\n      iszero\n      tag_32\n      jumpi\n      0x00\n      dup1\n      revert\n    tag_32:\n      pop\n      tag_33\n      tag_34\n      jump\t// in\n    tag_33:\n      mload(0x40)\n      tag_35\n      swap2\n      swap1\n      tag_36\n      jump\t// in\n    tag_35:\n      mload(0x40)\n      dup1\n      swap2\n      sub\n      swap1\n      return\n        /* \"Donation.sol\":338:367  uint public donationMinAmount */\n    tag_7:\n      callvalue\n      dup1\n      iszero\n      tag_37\n      jumpi\n      0x00\n      dup1\n      revert\n    tag_37:\n      pop\n      tag_38\n      tag_39\n      jump\t// in\n    tag_38:\n      mload(0x40)\n      tag_40\n      swap2\n      swap1\n      tag_31\n      jump\t// in\n    tag_40:\n      mload(0x40)\n      dup1\n      swap2\n      sub\n      swap1\n      return\n        /* \"Donation.sol\":1446:1545  function getDonationName() public view returns (string memory){... */\n    tag_8:\n      callvalue\n      dup1\n      iszero\n      tag_41\n      jumpi\n      0x00\n      dup1\n      revert\n    tag_41:\n      pop\n      tag_42\n      tag_43\n      jump\t// in\n    tag_42:\n      mload(0x40)\n      tag_44\n      swap2\n      swap1\n      tag_16\n      jump\t// in\n    tag_44:\n      mload(0x40)\n      dup1\n      swap2\n      sub\n      swap1\n      return\n        /* \"Donation.sol\":1126:1227  function donationBalance() view external returns (uint) {... */\n    tag_9:\n      callvalue\n      dup1\n      iszero\n      tag_45\n      jumpi\n      0x00\n      dup1\n      revert\n    tag_45:\n      pop\n      tag_46\n      tag_47\n      jump\t// in\n    tag_46:\n      mload(0x40)\n      tag_48\n      swap2\n      swap1\n      tag_31\n      jump\t// in\n    tag_48:\n      mload(0x40)\n      dup1\n      swap2\n      sub\n      swap1\n      return\n        /* \"Donation.sol\":772:1120  function donate() payable external {... */\n    tag_10:\n      tag_49\n      tag_50\n      jump\t// in\n    tag_49:\n      stop\n        /* \"Donation.sol\":305:332  string public _donationName */\n    tag_14:\n      0x00\n      dup1\n      sload\n      tag_51\n      swap1\n      tag_52\n      jump\t// in\n    tag_51:\n      dup1\n      0x1f\n      add\n      0x20\n      dup1\n      swap2\n      div\n      mul\n      0x20\n      add\n      mload(0x40)\n      swap1\n      dup2\n      add\n      0x40\n      mstore\n      dup1\n      swap3\n      swap2\n      swap1\n      dup2\n      dup2\n      mstore\n      0x20\n      add\n      dup3\n      dup1\n      sload\n      tag_53\n      swap1\n      tag_52\n      jump\t// in\n    tag_53:\n      dup1\n      iszero\n      tag_54\n      jumpi\n      dup1\n      0x1f\n      lt\n      tag_55\n      jumpi\n      0x0100\n      dup1\n      dup4\n      sload\n      div\n      mul\n      dup4\n      mstore\n      swap2\n      0x20\n      add\n      swap2\n      jump(tag_54)\n    tag_55:\n      dup3\n      add\n      swap2\n      swap1\n      0x00\n      mstore\n      keccak256(0x00, 0x20)\n      swap1\n    tag_56:\n      dup2\n      sload\n      dup2\n      mstore\n      swap1\n      0x01\n      add\n      swap1\n      0x20\n      add\n      dup1\n      dup4\n      gt\n      tag_56\n      jumpi\n      dup3\n      swap1\n      sub\n      0x1f\n      and\n      dup3\n      add\n      swap2\n    tag_54:\n      pop\n      pop\n      pop\n      pop\n      pop\n      dup2\n      jump\t// out\n        /* \"Donation.sol\":1233:1440  function withdraw(address owner) public {... */\n    tag_21:\n        /* \"Donation.sol\":1300:1310  msg.sender */\n      caller\n        /* \"Donation.sol\":1291:1310  owner == msg.sender */\n      0xffffffffffffffffffffffffffffffffffffffff\n      and\n        /* \"Donation.sol\":1291:1296  owner */\n      dup2\n        /* \"Donation.sol\":1291:1310  owner == msg.sender */\n      0xffffffffffffffffffffffffffffffffffffffff\n      and\n      eq\n        /* \"Donation.sol\":1283:1363  require(owner == msg.sender, \"Only owner of this donation can withdraw from it\") */\n      tag_58\n      jumpi\n      mload(0x40)\n      0x08c379a000000000000000000000000000000000000000000000000000000000\n      dup2\n      mstore\n      0x04\n      add\n      tag_59\n      swap1\n      tag_60\n      jump\t// in\n    tag_59:\n      mload(0x40)\n      dup1\n      swap2\n      sub\n      swap1\n      revert\n    tag_58:\n        /* \"Donation.sol\":1381:1391  msg.sender */\n      caller\n        /* \"Donation.sol\":1373:1397  payable(msg.sender).call */\n      0xffffffffffffffffffffffffffffffffffffffff\n      and\n        /* \"Donation.sol\":1406:1427  address(this).balance */\n      selfbalance\n        /* \"Donation.sol\":1373:1433  payable(msg.sender).call{value: (address(this).balance)}(\"\") */\n      mload(0x40)\n      tag_61\n      swap1\n      tag_62\n      jump\t// in\n    tag_61:\n      0x00\n      mload(0x40)\n      dup1\n      dup4\n      sub\n      dup2\n      dup6\n      dup8\n      gas\n      call\n      swap3\n      pop\n      pop\n      pop\n      returndatasize\n      dup1\n      0x00\n      dup2\n      eq\n      tag_65\n      jumpi\n      mload(0x40)\n      swap2\n      pop\n      and(add(returndatasize, 0x3f), not(0x1f))\n      dup3\n      add\n      0x40\n      mstore\n      returndatasize\n      dup3\n      mstore\n      returndatasize\n      0x00\n      0x20\n      dup5\n      add\n      returndatacopy\n      jump(tag_64)\n    tag_65:\n      0x60\n      swap2\n      pop\n    tag_64:\n      pop\n      pop\n      pop\n        /* \"Donation.sol\":1233:1440  function withdraw(address owner) public {... */\n      pop\n      jump\t// out\n        /* \"Donation.sol\":411:450  bool public acceptPaymentAfterAmountMet */\n    tag_24:\n      0x03\n      0x00\n      swap1\n      sload\n      swap1\n      0x0100\n      exp\n      swap1\n      div\n      0xff\n      and\n      dup2\n      jump\t// out\n        /* \"Donation.sol\":373:405  uint public donationAmountNeeded */\n    tag_29:\n      sload(0x02)\n      dup2\n      jump\t// out\n        /* \"Donation.sol\":1551:1630  function getOwner() public view returns(address) {... */\n    tag_34:\n        /* \"Donation.sol\":1591:1598  address */\n      0x00\n        /* \"Donation.sol\":1617:1623  _owner */\n      0x03\n      0x01\n      swap1\n      sload\n      swap1\n      0x0100\n      exp\n      swap1\n      div\n      0xffffffffffffffffffffffffffffffffffffffff\n      and\n        /* \"Donation.sol\":1610:1623  return _owner */\n      swap1\n      pop\n        /* \"Donation.sol\":1551:1630  function getOwner() public view returns(address) {... */\n      swap1\n      jump\t// out\n        /* \"Donation.sol\":338:367  uint public donationMinAmount */\n    tag_39:\n      sload(0x01)\n      dup2\n      jump\t// out\n        /* \"Donation.sol\":1446:1545  function getDonationName() public view returns (string memory){... */\n    tag_43:\n        /* \"Donation.sol\":1494:1507  string memory */\n      0x60\n        /* \"Donation.sol\":1525:1538  _donationName */\n      0x00\n        /* \"Donation.sol\":1518:1538  return _donationName */\n      dup1\n      sload\n      tag_68\n      swap1\n      tag_52\n      jump\t// in\n    tag_68:\n      dup1\n      0x1f\n      add\n      0x20\n      dup1\n      swap2\n      div\n      mul\n      0x20\n      add\n      mload(0x40)\n      swap1\n      dup2\n      add\n      0x40\n      mstore\n      dup1\n      swap3\n      swap2\n      swap1\n      dup2\n      dup2\n      mstore\n      0x20\n      add\n      dup3\n      dup1\n      sload\n      tag_69\n      swap1\n      tag_52\n      jump\t// in\n    tag_69:\n      dup1\n      iszero\n      tag_70\n      jumpi\n      dup1\n      0x1f\n      lt\n      tag_71\n      jumpi\n      0x0100\n      dup1\n      dup4\n      sload\n      div\n      mul\n      dup4\n      mstore\n      swap2\n      0x20\n      add\n      swap2\n      jump(tag_70)\n    tag_71:\n      dup3\n      add\n      swap2\n      swap1\n      0x00\n      mstore\n      keccak256(0x00, 0x20)\n      swap1\n    tag_72:\n      dup2\n      sload\n      dup2\n      mstore\n      swap1\n      0x01\n      add\n      swap1\n      0x20\n      add\n      dup1\n      dup4\n      gt\n      tag_72\n      jumpi\n      dup3\n      swap1\n      sub\n      0x1f\n      and\n      dup3\n      add\n      swap2\n    tag_70:\n      pop\n      pop\n      pop\n      pop\n      pop\n      swap1\n      pop\n        /* \"Donation.sol\":1446:1545  function getDonationName() public view returns (string memory){... */\n      swap1\n      jump\t// out\n        /* \"Donation.sol\":1126:1227  function donationBalance() view external returns (uint) {... */\n    tag_47:\n        /* \"Donation.sol\":1176:1180  uint */\n      0x00\n        /* \"Donation.sol\":1199:1220  address(this).balance */\n      selfbalance\n        /* \"Donation.sol\":1192:1220  return address(this).balance */\n      swap1\n      pop\n        /* \"Donation.sol\":1126:1227  function donationBalance() view external returns (uint) {... */\n      swap1\n      jump\t// out\n        /* \"Donation.sol\":772:1120  function donate() payable external {... */\n    tag_50:\n        /* \"Donation.sol\":838:855  donationMinAmount */\n      sload(0x01)\n        /* \"Donation.sol\":825:834  msg.value */\n      callvalue\n        /* \"Donation.sol\":825:855  msg.value >= donationMinAmount */\n      lt\n      iszero\n        /* \"Donation.sol\":817:897  require(msg.value >= donationMinAmount, \"You cannot donate below ${_minAmount}\") */\n      tag_75\n      jumpi\n      mload(0x40)\n      0x08c379a000000000000000000000000000000000000000000000000000000000\n      dup2\n      mstore\n      0x04\n      add\n      tag_76\n      swap1\n      tag_77\n      jump\t// in\n    tag_76:\n      mload(0x40)\n      dup1\n      swap2\n      sub\n      swap1\n      revert\n    tag_75:\n        /* \"Donation.sol\":912:939  acceptPaymentAfterAmountMet */\n      0x03\n      0x00\n      swap1\n      sload\n      swap1\n      0x0100\n      exp\n      swap1\n      div\n      0xff\n      and\n        /* \"Donation.sol\":907:1114  if (!acceptPaymentAfterAmountMet) {... */\n      tag_78\n      jumpi\n        /* \"Donation.sol\":955:967  uint balance */\n      0x00\n        /* \"Donation.sol\":970:991  address(this).balance */\n      selfbalance\n        /* \"Donation.sol\":955:991  uint balance = address(this).balance */\n      swap1\n      pop\n        /* \"Donation.sol\":1036:1056  donationAmountNeeded */\n      sload(0x02)\n        /* \"Donation.sol\":1023:1032  msg.value */\n      callvalue\n        /* \"Donation.sol\":1013:1020  balance */\n      dup3\n        /* \"Donation.sol\":1013:1032  balance + msg.value */\n      tag_79\n      swap2\n      swap1\n      tag_80\n      jump\t// in\n    tag_79:\n        /* \"Donation.sol\":1013:1056  balance + msg.value <= donationAmountNeeded */\n      gt\n      iszero\n        /* \"Donation.sol\":1005:1103  require(balance + msg.value <= donationAmountNeeded, \"Your donation will cross the amount needed\") */\n      tag_81\n      jumpi\n      mload(0x40)\n      0x08c379a000000000000000000000000000000000000000000000000000000000\n      dup2\n      mstore\n      0x04\n      add\n      tag_82\n      swap1\n      tag_83\n      jump\t// in\n    tag_82:\n      mload(0x40)\n      dup1\n      swap2\n      sub\n      swap1\n      revert\n    tag_81:\n        /* \"Donation.sol\":941:1114  {... */\n      pop\n        /* \"Donation.sol\":907:1114  if (!acceptPaymentAfterAmountMet) {... */\n    tag_78:\n        /* \"Donation.sol\":772:1120  function donate() payable external {... */\n      jump\t// out\n        /* \"#utility.yul\":7:146   */\n    tag_85:\n        /* \"#utility.yul\":53:58   */\n      0x00\n        /* \"#utility.yul\":91:97   */\n      dup2\n        /* \"#utility.yul\":78:98   */\n      calldataload\n        /* \"#utility.yul\":69:98   */\n      swap1\n      pop\n        /* \"#utility.yul\":107:140   */\n      tag_87\n        /* \"#utility.yul\":134:139   */\n      dup2\n        /* \"#utility.yul\":107:140   */\n      tag_88\n      jump\t// in\n    tag_87:\n        /* \"#utility.yul\":7:146   */\n      swap3\n      swap2\n      pop\n      pop\n      jump\t// out\n        /* \"#utility.yul\":152:481   */\n    tag_20:\n        /* \"#utility.yul\":211:217   */\n      0x00\n        /* \"#utility.yul\":260:262   */\n      0x20\n        /* \"#utility.yul\":248:257   */\n      dup3\n        /* \"#utility.yul\":239:246   */\n      dup5\n        /* \"#utility.yul\":235:258   */\n      sub\n        /* \"#utility.yul\":231:263   */\n      slt\n        /* \"#utility.yul\":228:347   */\n      iszero\n      tag_90\n      jumpi\n        /* \"#utility.yul\":266:345   */\n      tag_91\n      tag_92\n      jump\t// in\n    tag_91:\n        /* \"#utility.yul\":228:347   */\n    tag_90:\n        /* \"#utility.yul\":386:387   */\n      0x00\n        /* \"#utility.yul\":411:464   */\n      tag_93\n        /* \"#utility.yul\":456:463   */\n      dup5\n        /* \"#utility.yul\":447:453   */\n      dup3\n        /* \"#utility.yul\":436:445   */\n      dup6\n        /* \"#utility.yul\":432:454   */\n      add\n        /* \"#utility.yul\":411:464   */\n      tag_85\n      jump\t// in\n    tag_93:\n        /* \"#utility.yul\":401:464   */\n      swap2\n      pop\n        /* \"#utility.yul\":357:474   */\n      pop\n        /* \"#utility.yul\":152:481   */\n      swap3\n      swap2\n      pop\n      pop\n      jump\t// out\n        /* \"#utility.yul\":487:605   */\n    tag_94:\n        /* \"#utility.yul\":574:598   */\n      tag_96\n        /* \"#utility.yul\":592:597   */\n      dup2\n        /* \"#utility.yul\":574:598   */\n      tag_97\n      jump\t// in\n    tag_96:\n        /* \"#utility.yul\":569:572   */\n      dup3\n        /* \"#utility.yul\":562:599   */\n      mstore\n        /* \"#utility.yul\":487:605   */\n      pop\n      pop\n      jump\t// out\n        /* \"#utility.yul\":611:720   */\n    tag_98:\n        /* \"#utility.yul\":692:713   */\n      tag_100\n        /* \"#utility.yul\":707:712   */\n      dup2\n        /* \"#utility.yul\":692:713   */\n      tag_101\n      jump\t// in\n    tag_100:\n        /* \"#utility.yul\":687:690   */\n      dup3\n        /* \"#utility.yul\":680:714   */\n      mstore\n        /* \"#utility.yul\":611:720   */\n      pop\n      pop\n      jump\t// out\n        /* \"#utility.yul\":726:1090   */\n    tag_102:\n        /* \"#utility.yul\":814:817   */\n      0x00\n        /* \"#utility.yul\":842:881   */\n      tag_104\n        /* \"#utility.yul\":875:880   */\n      dup3\n        /* \"#utility.yul\":842:881   */\n      tag_105\n      jump\t// in\n    tag_104:\n        /* \"#utility.yul\":897:968   */\n      tag_106\n        /* \"#utility.yul\":961:967   */\n      dup2\n        /* \"#utility.yul\":956:959   */\n      dup6\n        /* \"#utility.yul\":897:968   */\n      tag_107\n      jump\t// in\n    tag_106:\n        /* \"#utility.yul\":890:968   */\n      swap4\n      pop\n        /* \"#utility.yul\":977:1029   */\n      tag_108\n        /* \"#utility.yul\":1022:1028   */\n      dup2\n        /* \"#utility.yul\":1017:1020   */\n      dup6\n        /* \"#utility.yul\":1010:1014   */\n      0x20\n        /* \"#utility.yul\":1003:1008   */\n      dup7\n        /* \"#utility.yul\":999:1015   */\n      add\n        /* \"#utility.yul\":977:1029   */\n      tag_109\n      jump\t// in\n    tag_108:\n        /* \"#utility.yul\":1054:1083   */\n      tag_110\n        /* \"#utility.yul\":1076:1082   */\n      dup2\n        /* \"#utility.yul\":1054:1083   */\n      tag_111\n      jump\t// in\n    tag_110:\n        /* \"#utility.yul\":1049:1052   */\n      dup5\n        /* \"#utility.yul\":1045:1084   */\n      add\n        /* \"#utility.yul\":1038:1084   */\n      swap2\n      pop\n        /* \"#utility.yul\":818:1090   */\n      pop\n        /* \"#utility.yul\":726:1090   */\n      swap3\n      swap2\n      pop\n      pop\n      jump\t// out\n        /* \"#utility.yul\":1096:1462   */\n    tag_112:\n        /* \"#utility.yul\":1238:1241   */\n      0x00\n        /* \"#utility.yul\":1259:1326   */\n      tag_114\n        /* \"#utility.yul\":1323:1325   */\n      0x25\n        /* \"#utility.yul\":1318:1321   */\n      dup4\n        /* \"#utility.yul\":1259:1326   */\n      tag_107\n      jump\t// in\n    tag_114:\n        /* \"#utility.yul\":1252:1326   */\n      swap2\n      pop\n        /* \"#utility.yul\":1335:1428   */\n      tag_115\n        /* \"#utility.yul\":1424:1427   */\n      dup3\n        /* \"#utility.yul\":1335:1428   */\n      tag_116\n      jump\t// in\n    tag_115:\n        /* \"#utility.yul\":1453:1455   */\n      0x40\n        /* \"#utility.yul\":1448:1451   */\n      dup3\n        /* \"#utility.yul\":1444:1456   */\n      add\n        /* \"#utility.yul\":1437:1456   */\n      swap1\n      pop\n        /* \"#utility.yul\":1096:1462   */\n      swap2\n      swap1\n      pop\n      jump\t// out\n        /* \"#utility.yul\":1468:1834   */\n    tag_117:\n        /* \"#utility.yul\":1610:1613   */\n      0x00\n        /* \"#utility.yul\":1631:1698   */\n      tag_119\n        /* \"#utility.yul\":1695:1697   */\n      0x30\n        /* \"#utility.yul\":1690:1693   */\n      dup4\n        /* \"#utility.yul\":1631:1698   */\n      tag_107\n      jump\t// in\n    tag_119:\n        /* \"#utility.yul\":1624:1698   */\n      swap2\n      pop\n        /* \"#utility.yul\":1707:1800   */\n      tag_120\n        /* \"#utility.yul\":1796:1799   */\n      dup3\n        /* \"#utility.yul\":1707:1800   */\n      tag_121\n      jump\t// in\n    tag_120:\n        /* \"#utility.yul\":1825:1827   */\n      0x40\n        /* \"#utility.yul\":1820:1823   */\n      dup3\n        /* \"#utility.yul\":1816:1828   */\n      add\n        /* \"#utility.yul\":1809:1828   */\n      swap1\n      pop\n        /* \"#utility.yul\":1468:1834   */\n      swap2\n      swap1\n      pop\n      jump\t// out\n        /* \"#utility.yul\":1840:2206   */\n    tag_122:\n        /* \"#utility.yul\":1982:1985   */\n      0x00\n        /* \"#utility.yul\":2003:2070   */\n      tag_124\n        /* \"#utility.yul\":2067:2069   */\n      0x2a\n        /* \"#utility.yul\":2062:2065   */\n      dup4\n        /* \"#utility.yul\":2003:2070   */\n      tag_107\n      jump\t// in\n    tag_124:\n        /* \"#utility.yul\":1996:2070   */\n      swap2\n      pop\n        /* \"#utility.yul\":2079:2172   */\n      tag_125\n        /* \"#utility.yul\":2168:2171   */\n      dup3\n        /* \"#utility.yul\":2079:2172   */\n      tag_126\n      jump\t// in\n    tag_125:\n        /* \"#utility.yul\":2197:2199   */\n      0x40\n        /* \"#utility.yul\":2192:2195   */\n      dup3\n        /* \"#utility.yul\":2188:2200   */\n      add\n        /* \"#utility.yul\":2181:2200   */\n      swap1\n      pop\n        /* \"#utility.yul\":1840:2206   */\n      swap2\n      swap1\n      pop\n      jump\t// out\n        /* \"#utility.yul\":2212:2610   */\n    tag_127:\n        /* \"#utility.yul\":2371:2374   */\n      0x00\n        /* \"#utility.yul\":2392:2475   */\n      tag_129\n        /* \"#utility.yul\":2473:2474   */\n      0x00\n        /* \"#utility.yul\":2468:2471   */\n      dup4\n        /* \"#utility.yul\":2392:2475   */\n      tag_130\n      jump\t// in\n    tag_129:\n        /* \"#utility.yul\":2385:2475   */\n      swap2\n      pop\n        /* \"#utility.yul\":2484:2577   */\n      tag_131\n        /* \"#utility.yul\":2573:2576   */\n      dup3\n        /* \"#utility.yul\":2484:2577   */\n      tag_132\n      jump\t// in\n    tag_131:\n        /* \"#utility.yul\":2602:2603   */\n      0x00\n        /* \"#utility.yul\":2597:2600   */\n      dup3\n        /* \"#utility.yul\":2593:2604   */\n      add\n        /* \"#utility.yul\":2586:2604   */\n      swap1\n      pop\n        /* \"#utility.yul\":2212:2610   */\n      swap2\n      swap1\n      pop\n      jump\t// out\n        /* \"#utility.yul\":2616:2734   */\n    tag_133:\n        /* \"#utility.yul\":2703:2727   */\n      tag_135\n        /* \"#utility.yul\":2721:2726   */\n      dup2\n        /* \"#utility.yul\":2703:2727   */\n      tag_136\n      jump\t// in\n    tag_135:\n        /* \"#utility.yul\":2698:2701   */\n      dup3\n        /* \"#utility.yul\":2691:2728   */\n      mstore\n        /* \"#utility.yul\":2616:2734   */\n      pop\n      pop\n      jump\t// out\n        /* \"#utility.yul\":2740:3119   */\n    tag_62:\n        /* \"#utility.yul\":2924:2927   */\n      0x00\n        /* \"#utility.yul\":2946:3093   */\n      tag_138\n        /* \"#utility.yul\":3089:3092   */\n      dup3\n        /* \"#utility.yul\":2946:3093   */\n      tag_127\n      jump\t// in\n    tag_138:\n        /* \"#utility.yul\":2939:3093   */\n      swap2\n      pop\n        /* \"#utility.yul\":3110:3113   */\n      dup2\n        /* \"#utility.yul\":3103:3113   */\n      swap1\n      pop\n        /* \"#utility.yul\":2740:3119   */\n      swap2\n      swap1\n      pop\n      jump\t// out\n        /* \"#utility.yul\":3125:3347   */\n    tag_36:\n        /* \"#utility.yul\":3218:3222   */\n      0x00\n        /* \"#utility.yul\":3256:3258   */\n      0x20\n        /* \"#utility.yul\":3245:3254   */\n      dup3\n        /* \"#utility.yul\":3241:3259   */\n      add\n        /* \"#utility.yul\":3233:3259   */\n      swap1\n      pop\n        /* \"#utility.yul\":3269:3340   */\n      tag_140\n        /* \"#utility.yul\":3337:3338   */\n      0x00\n        /* \"#utility.yul\":3326:3335   */\n      dup4\n        /* \"#utility.yul\":3322:3339   */\n      add\n        /* \"#utility.yul\":3313:3319   */\n      dup5\n        /* \"#utility.yul\":3269:3340   */\n      tag_94\n      jump\t// in\n    tag_140:\n        /* \"#utility.yul\":3125:3347   */\n      swap3\n      swap2\n      pop\n      pop\n      jump\t// out\n        /* \"#utility.yul\":3353:3563   */\n    tag_26:\n        /* \"#utility.yul\":3440:3444   */\n      0x00\n        /* \"#utility.yul\":3478:3480   */\n      0x20\n        /* \"#utility.yul\":3467:3476   */\n      dup3\n        /* \"#utility.yul\":3463:3481   */\n      add\n        /* \"#utility.yul\":3455:3481   */\n      swap1\n      pop\n        /* \"#utility.yul\":3491:3556   */\n      tag_142\n        /* \"#utility.yul\":3553:3554   */\n      0x00\n        /* \"#utility.yul\":3542:3551   */\n      dup4\n        /* \"#utility.yul\":3538:3555   */\n      add\n        /* \"#utility.yul\":3529:3535   */\n      dup5\n        /* \"#utility.yul\":3491:3556   */\n      tag_98\n      jump\t// in\n    tag_142:\n        /* \"#utility.yul\":3353:3563   */\n      swap3\n      swap2\n      pop\n      pop\n      jump\t// out\n        /* \"#utility.yul\":3569:3882   */\n    tag_16:\n        /* \"#utility.yul\":3682:3686   */\n      0x00\n        /* \"#utility.yul\":3720:3722   */\n      0x20\n        /* \"#utility.yul\":3709:3718   */\n      dup3\n        /* \"#utility.yul\":3705:3723   */\n      add\n        /* \"#utility.yul\":3697:3723   */\n      swap1\n      pop\n        /* \"#utility.yul\":3769:3778   */\n      dup2\n        /* \"#utility.yul\":3763:3767   */\n      dup2\n        /* \"#utility.yul\":3759:3779   */\n      sub\n        /* \"#utility.yul\":3755:3756   */\n      0x00\n        /* \"#utility.yul\":3744:3753   */\n      dup4\n        /* \"#utility.yul\":3740:3757   */\n      add\n        /* \"#utility.yul\":3733:3780   */\n      mstore\n        /* \"#utility.yul\":3797:3875   */\n      tag_144\n        /* \"#utility.yul\":3870:3874   */\n      dup2\n        /* \"#utility.yul\":3861:3867   */\n      dup5\n        /* \"#utility.yul\":3797:3875   */\n      tag_102\n      jump\t// in\n    tag_144:\n        /* \"#utility.yul\":3789:3875   */\n      swap1\n      pop\n        /* \"#utility.yul\":3569:3882   */\n      swap3\n      swap2\n      pop\n      pop\n      jump\t// out\n        /* \"#utility.yul\":3888:4307   */\n    tag_77:\n        /* \"#utility.yul\":4054:4058   */\n      0x00\n        /* \"#utility.yul\":4092:4094   */\n      0x20\n        /* \"#utility.yul\":4081:4090   */\n      dup3\n        /* \"#utility.yul\":4077:4095   */\n      add\n        /* \"#utility.yul\":4069:4095   */\n      swap1\n      pop\n        /* \"#utility.yul\":4141:4150   */\n      dup2\n        /* \"#utility.yul\":4135:4139   */\n      dup2\n        /* \"#utility.yul\":4131:4151   */\n      sub\n        /* \"#utility.yul\":4127:4128   */\n      0x00\n        /* \"#utility.yul\":4116:4125   */\n      dup4\n        /* \"#utility.yul\":4112:4129   */\n      add\n        /* \"#utility.yul\":4105:4152   */\n      mstore\n        /* \"#utility.yul\":4169:4300   */\n      tag_146\n        /* \"#utility.yul\":4295:4299   */\n      dup2\n        /* \"#utility.yul\":4169:4300   */\n      tag_112\n      jump\t// in\n    tag_146:\n        /* \"#utility.yul\":4161:4300   */\n      swap1\n      pop\n        /* \"#utility.yul\":3888:4307   */\n      swap2\n      swap1\n      pop\n      jump\t// out\n        /* \"#utility.yul\":4313:4732   */\n    tag_60:\n        /* \"#utility.yul\":4479:4483   */\n      0x00\n        /* \"#utility.yul\":4517:4519   */\n      0x20\n        /* \"#utility.yul\":4506:4515   */\n      dup3\n        /* \"#utility.yul\":4502:4520   */\n      add\n        /* \"#utility.yul\":4494:4520   */\n      swap1\n      pop\n        /* \"#utility.yul\":4566:4575   */\n      dup2\n        /* \"#utility.yul\":4560:4564   */\n      dup2\n        /* \"#utility.yul\":4556:4576   */\n      sub\n        /* \"#utility.yul\":4552:4553   */\n      0x00\n        /* \"#utility.yul\":4541:4550   */\n      dup4\n        /* \"#utility.yul\":4537:4554   */\n      add\n        /* \"#utility.yul\":4530:4577   */\n      mstore\n        /* \"#utility.yul\":4594:4725   */\n      tag_148\n        /* \"#utility.yul\":4720:4724   */\n      dup2\n        /* \"#utility.yul\":4594:4725   */\n      tag_117\n      jump\t// in\n    tag_148:\n        /* \"#utility.yul\":4586:4725   */\n      swap1\n      pop\n        /* \"#utility.yul\":4313:4732   */\n      swap2\n      swap1\n      pop\n      jump\t// out\n        /* \"#utility.yul\":4738:5157   */\n    tag_83:\n        /* \"#utility.yul\":4904:4908   */\n      0x00\n        /* \"#utility.yul\":4942:4944   */\n      0x20\n        /* \"#utility.yul\":4931:4940   */\n      dup3\n        /* \"#utility.yul\":4927:4945   */\n      add\n        /* \"#utility.yul\":4919:4945   */\n      swap1\n      pop\n        /* \"#utility.yul\":4991:5000   */\n      dup2\n        /* \"#utility.yul\":4985:4989   */\n      dup2\n        /* \"#utility.yul\":4981:5001   */\n      sub\n        /* \"#utility.yul\":4977:4978   */\n      0x00\n        /* \"#utility.yul\":4966:4975   */\n      dup4\n        /* \"#utility.yul\":4962:4979   */\n      add\n        /* \"#utility.yul\":4955:5002   */\n      mstore\n        /* \"#utility.yul\":5019:5150   */\n      tag_150\n        /* \"#utility.yul\":5145:5149   */\n      dup2\n        /* \"#utility.yul\":5019:5150   */\n      tag_122\n      jump\t// in\n    tag_150:\n        /* \"#utility.yul\":5011:5150   */\n      swap1\n      pop\n        /* \"#utility.yul\":4738:5157   */\n      swap2\n      swap1\n      pop\n      jump\t// out\n        /* \"#utility.yul\":5163:5385   */\n    tag_31:\n        /* \"#utility.yul\":5256:5260   */\n      0x00\n        /* \"#utility.yul\":5294:5296   */\n      0x20\n        /* \"#utility.yul\":5283:5292   */\n      dup3\n        /* \"#utility.yul\":5279:5297   */\n      add\n        /* \"#utility.yul\":5271:5297   */\n      swap1\n      pop\n        /* \"#utility.yul\":5307:5378   */\n      tag_152\n        /* \"#utility.yul\":5375:5376   */\n      0x00\n        /* \"#utility.yul\":5364:5373   */\n      dup4\n        /* \"#utility.yul\":5360:5377   */\n      add\n        /* \"#utility.yul\":5351:5357   */\n      dup5\n        /* \"#utility.yul\":5307:5378   */\n      tag_133\n      jump\t// in\n    tag_152:\n        /* \"#utility.yul\":5163:5385   */\n      swap3\n      swap2\n      pop\n      pop\n      jump\t// out\n        /* \"#utility.yul\":5472:5571   */\n    tag_105:\n        /* \"#utility.yul\":5524:5530   */\n      0x00\n        /* \"#utility.yul\":5558:5563   */\n      dup2\n        /* \"#utility.yul\":5552:5564   */\n      mload\n        /* \"#utility.yul\":5542:5564   */\n      swap1\n      pop\n        /* \"#utility.yul\":5472:5571   */\n      swap2\n      swap1\n      pop\n      jump\t// out\n        /* \"#utility.yul\":5577:5724   */\n    tag_130:\n        /* \"#utility.yul\":5678:5689   */\n      0x00\n        /* \"#utility.yul\":5715:5718   */\n      dup2\n        /* \"#utility.yul\":5700:5718   */\n      swap1\n      pop\n        /* \"#utility.yul\":5577:5724   */\n      swap3\n      swap2\n      pop\n      pop\n      jump\t// out\n        /* \"#utility.yul\":5730:5899   */\n    tag_107:\n        /* \"#utility.yul\":5814:5825   */\n      0x00\n        /* \"#utility.yul\":5848:5854   */\n      dup3\n        /* \"#utility.yul\":5843:5846   */\n      dup3\n        /* \"#utility.yul\":5836:5855   */\n      mstore\n        /* \"#utility.yul\":5888:5892   */\n      0x20\n        /* \"#utility.yul\":5883:5886   */\n      dup3\n        /* \"#utility.yul\":5879:5893   */\n      add\n        /* \"#utility.yul\":5864:5893   */\n      swap1\n      pop\n        /* \"#utility.yul\":5730:5899   */\n      swap3\n      swap2\n      pop\n      pop\n      jump\t// out\n        /* \"#utility.yul\":5905:6210   */\n    tag_80:\n        /* \"#utility.yul\":5945:5948   */\n      0x00\n        /* \"#utility.yul\":5964:5984   */\n      tag_159\n        /* \"#utility.yul\":5982:5983   */\n      dup3\n        /* \"#utility.yul\":5964:5984   */\n      tag_136\n      jump\t// in\n    tag_159:\n        /* \"#utility.yul\":5959:5984   */\n      swap2\n      pop\n        /* \"#utility.yul\":5998:6018   */\n      tag_160\n        /* \"#utility.yul\":6016:6017   */\n      dup4\n        /* \"#utility.yul\":5998:6018   */\n      tag_136\n      jump\t// in\n    tag_160:\n        /* \"#utility.yul\":5993:6018   */\n      swap3\n      pop\n        /* \"#utility.yul\":6152:6153   */\n      dup3\n        /* \"#utility.yul\":6084:6150   */\n      0xffffffffffffffffffffffffffffffffffffffffffffffffffffffffffffffff\n        /* \"#utility.yul\":6080:6154   */\n      sub\n        /* \"#utility.yul\":6077:6078   */\n      dup3\n        /* \"#utility.yul\":6074:6155   */\n      gt\n        /* \"#utility.yul\":6071:6178   */\n      iszero\n      tag_161\n      jumpi\n        /* \"#utility.yul\":6158:6176   */\n      tag_162\n      tag_163\n      jump\t// in\n    tag_162:\n        /* \"#utility.yul\":6071:6178   */\n    tag_161:\n        /* \"#utility.yul\":6202:6203   */\n      dup3\n        /* \"#utility.yul\":6199:6200   */\n      dup3\n        /* \"#utility.yul\":6195:6204   */\n      add\n        /* \"#utility.yul\":6188:6204   */\n      swap1\n      pop\n        /* \"#utility.yul\":5905:6210   */\n      swap3\n      swap2\n      pop\n      pop\n      jump\t// out\n        /* \"#utility.yul\":6216:6312   */\n    tag_97:\n        /* \"#utility.yul\":6253:6260   */\n      0x00\n        /* \"#utility.yul\":6282:6306   */\n      tag_165\n        /* \"#utility.yul\":6300:6305   */\n      dup3\n        /* \"#utility.yul\":6282:6306   */\n      tag_166\n      jump\t// in\n    tag_165:\n        /* \"#utility.yul\":6271:6306   */\n      swap1\n      pop\n        /* \"#utility.yul\":6216:6312   */\n      swap2\n      swap1\n      pop\n      jump\t// out\n        /* \"#utility.yul\":6318:6408   */\n    tag_101:\n        /* \"#utility.yul\":6352:6359   */\n      0x00\n        /* \"#utility.yul\":6395:6400   */\n      dup2\n        /* \"#utility.yul\":6388:6401   */\n      iszero\n        /* \"#utility.yul\":6381:6402   */\n      iszero\n        /* \"#utility.yul\":6370:6402   */\n      swap1\n      pop\n        /* \"#utility.yul\":6318:6408   */\n      swap2\n      swap1\n      pop\n      jump\t// out\n        /* \"#utility.yul\":6414:6540   */\n    tag_166:\n        /* \"#utility.yul\":6451:6458   */\n      0x00\n        /* \"#utility.yul\":6491:6533   */\n      0xffffffffffffffffffffffffffffffffffffffff\n        /* \"#utility.yul\":6484:6489   */\n      dup3\n        /* \"#utility.yul\":6480:6534   */\n      and\n        /* \"#utility.yul\":6469:6534   */\n      swap1\n      pop\n        /* \"#utility.yul\":6414:6540   */\n      swap2\n      swap1\n      pop\n      jump\t// out\n        /* \"#utility.yul\":6546:6623   */\n    tag_136:\n        /* \"#utility.yul\":6583:6590   */\n      0x00\n        /* \"#utility.yul\":6612:6617   */\n      dup2\n        /* \"#utility.yul\":6601:6617   */\n      swap1\n      pop\n        /* \"#utility.yul\":6546:6623   */\n      swap2\n      swap1\n      pop\n      jump\t// out\n        /* \"#utility.yul\":6629:6936   */\n    tag_109:\n        /* \"#utility.yul\":6697:6698   */\n      0x00\n        /* \"#utility.yul\":6707:6820   */\n    tag_171:\n        /* \"#utility.yul\":6721:6727   */\n      dup4\n        /* \"#utility.yul\":6718:6719   */\n      dup2\n        /* \"#utility.yul\":6715:6728   */\n      lt\n        /* \"#utility.yul\":6707:6820   */\n      iszero\n      tag_173\n      jumpi\n        /* \"#utility.yul\":6806:6807   */\n      dup1\n        /* \"#utility.yul\":6801:6804   */\n      dup3\n        /* \"#utility.yul\":6797:6808   */\n      add\n        /* \"#utility.yul\":6791:6809   */\n      mload\n        /* \"#utility.yul\":6787:6788   */\n      dup2\n        /* \"#utility.yul\":6782:6785   */\n      dup5\n        /* \"#utility.yul\":6778:6789   */\n      add\n        /* \"#utility.yul\":6771:6810   */\n      mstore\n        /* \"#utility.yul\":6743:6745   */\n      0x20\n        /* \"#utility.yul\":6740:6741   */\n      dup2\n        /* \"#utility.yul\":6736:6746   */\n      add\n        /* \"#utility.yul\":6731:6746   */\n      swap1\n      pop\n        /* \"#utility.yul\":6707:6820   */\n      jump(tag_171)\n    tag_173:\n        /* \"#utility.yul\":6838:6844   */\n      dup4\n        /* \"#utility.yul\":6835:6836   */\n      dup2\n        /* \"#utility.yul\":6832:6845   */\n      gt\n        /* \"#utility.yul\":6829:6930   */\n      iszero\n      tag_174\n      jumpi\n        /* \"#utility.yul\":6918:6919   */\n      0x00\n        /* \"#utility.yul\":6909:6915   */\n      dup5\n        /* \"#utility.yul\":6904:6907   */\n      dup5\n        /* \"#utility.yul\":6900:6916   */\n      add\n        /* \"#utility.yul\":6893:6920   */\n      mstore\n        /* \"#utility.yul\":6829:6930   */\n    tag_174:\n        /* \"#utility.yul\":6678:6936   */\n      pop\n        /* \"#utility.yul\":6629:6936   */\n      pop\n      pop\n      pop\n      jump\t// out\n        /* \"#utility.yul\":6942:7262   */\n    tag_52:\n        /* \"#utility.yul\":6986:6992   */\n      0x00\n        /* \"#utility.yul\":7023:7024   */\n      0x02\n        /* \"#utility.yul\":7017:7021   */\n      dup3\n        /* \"#utility.yul\":7013:7025   */\n      div\n        /* \"#utility.yul\":7003:7025   */\n      swap1\n      pop\n        /* \"#utility.yul\":7070:7071   */\n      0x01\n        /* \"#utility.yul\":7064:7068   */\n      dup3\n        /* \"#utility.yul\":7060:7072   */\n      and\n        /* \"#utility.yul\":7091:7109   */\n      dup1\n        /* \"#utility.yul\":7081:7162   */\n      tag_176\n      jumpi\n        /* \"#utility.yul\":7147:7151   */\n      0x7f\n        /* \"#utility.yul\":7139:7145   */\n      dup3\n        /* \"#utility.yul\":7135:7152   */\n      and\n        /* \"#utility.yul\":7125:7152   */\n      swap2\n      pop\n        /* \"#utility.yul\":7081:7162   */\n    tag_176:\n        /* \"#utility.yul\":7209:7211   */\n      0x20\n        /* \"#utility.yul\":7201:7207   */\n      dup3\n        /* \"#utility.yul\":7198:7212   */\n      lt\n        /* \"#utility.yul\":7178:7196   */\n      dup2\n        /* \"#utility.yul\":7175:7213   */\n      eq\n        /* \"#utility.yul\":7172:7256   */\n      iszero\n      tag_177\n      jumpi\n        /* \"#utility.yul\":7228:7246   */\n      tag_178\n      tag_179\n      jump\t// in\n    tag_178:\n        /* \"#utility.yul\":7172:7256   */\n    tag_177:\n        /* \"#utility.yul\":6993:7262   */\n      pop\n        /* \"#utility.yul\":6942:7262   */\n      swap2\n      swap1\n      pop\n      jump\t// out\n        /* \"#utility.yul\":7268:7448   */\n    tag_163:\n        /* \"#utility.yul\":7316:7393   */\n      0x4e487b7100000000000000000000000000000000000000000000000000000000\n        /* \"#utility.yul\":7313:7314   */\n      0x00\n        /* \"#utility.yul\":7306:7394   */\n      mstore\n        /* \"#utility.yul\":7413:7417   */\n      0x11\n        /* \"#utility.yul\":7410:7411   */\n      0x04\n        /* \"#utility.yul\":7403:7418   */\n      mstore\n        /* \"#utility.yul\":7437:7441   */\n      0x24\n        /* \"#utility.yul\":7434:7435   */\n      0x00\n        /* \"#utility.yul\":7427:7442   */\n      revert\n        /* \"#utility.yul\":7454:7634   */\n    tag_179:\n        /* \"#utility.yul\":7502:7579   */\n      0x4e487b7100000000000000000000000000000000000000000000000000000000\n        /* \"#utility.yul\":7499:7500   */\n      0x00\n        /* \"#utility.yul\":7492:7580   */\n      mstore\n        /* \"#utility.yul\":7599:7603   */\n      0x22\n        /* \"#utility.yul\":7596:7597   */\n      0x04\n        /* \"#utility.yul\":7589:7604   */\n      mstore\n        /* \"#utility.yul\":7623:7627   */\n      0x24\n        /* \"#utility.yul\":7620:7621   */\n      0x00\n        /* \"#utility.yul\":7613:7628   */\n      revert\n        /* \"#utility.yul\":7763:7880   */\n    tag_92:\n        /* \"#utility.yul\":7872:7873   */\n      0x00\n        /* \"#utility.yul\":7869:7870   */\n      dup1\n        /* \"#utility.yul\":7862:7874   */\n      revert\n        /* \"#utility.yul\":7886:7988   */\n    tag_111:\n        /* \"#utility.yul\":7927:7933   */\n      0x00\n        /* \"#utility.yul\":7978:7980   */\n      0x1f\n        /* \"#utility.yul\":7974:7981   */\n      not\n        /* \"#utility.yul\":7969:7971   */\n      0x1f\n        /* \"#utility.yul\":7962:7967   */\n      dup4\n        /* \"#utility.yul\":7958:7972   */\n      add\n        /* \"#utility.yul\":7954:7982   */\n      and\n        /* \"#utility.yul\":7944:7982   */\n      swap1\n      pop\n        /* \"#utility.yul\":7886:7988   */\n      swap2\n      swap1\n      pop\n      jump\t// out\n        /* \"#utility.yul\":7994:8218   */\n    tag_116:\n        /* \"#utility.yul\":8134:8168   */\n      0x596f752063616e6e6f7420646f6e6174652062656c6f7720247b5f6d696e416d\n        /* \"#utility.yul\":8130:8131   */\n      0x00\n        /* \"#utility.yul\":8122:8128   */\n      dup3\n        /* \"#utility.yul\":8118:8132   */\n      add\n        /* \"#utility.yul\":8111:8169   */\n      mstore\n        /* \"#utility.yul\":8203:8210   */\n      0x6f756e747d000000000000000000000000000000000000000000000000000000\n        /* \"#utility.yul\":8198:8200   */\n      0x20\n        /* \"#utility.yul\":8190:8196   */\n      dup3\n        /* \"#utility.yul\":8186:8201   */\n      add\n        /* \"#utility.yul\":8179:8211   */\n      mstore\n        /* \"#utility.yul\":7994:8218   */\n      pop\n      jump\t// out\n        /* \"#utility.yul\":8224:8459   */\n    tag_121:\n        /* \"#utility.yul\":8364:8398   */\n      0x4f6e6c79206f776e6572206f66207468697320646f6e6174696f6e2063616e20\n        /* \"#utility.yul\":8360:8361   */\n      0x00\n        /* \"#utility.yul\":8352:8358   */\n      dup3\n        /* \"#utility.yul\":8348:8362   */\n      add\n        /* \"#utility.yul\":8341:8399   */\n      mstore\n        /* \"#utility.yul\":8433:8451   */\n      0x77697468647261772066726f6d20697400000000000000000000000000000000\n        /* \"#utility.yul\":8428:8430   */\n      0x20\n        /* \"#utility.yul\":8420:8426   */\n      dup3\n        /* \"#utility.yul\":8416:8431   */\n      add\n        /* \"#utility.yul\":8409:8452   */\n      mstore\n        /* \"#utility.yul\":8224:8459   */\n      pop\n      jump\t// out\n        /* \"#utility.yul\":8465:8694   */\n    tag_126:\n        /* \"#utility.yul\":8605:8639   */\n      0x596f757220646f6e6174696f6e2077696c6c2063726f73732074686520616d6f\n        /* \"#utility.yul\":8601:8602   */\n      0x00\n        /* \"#utility.yul\":8593:8599   */\n      dup3\n        /* \"#utility.yul\":8589:8603   */\n      add\n        /* \"#utility.yul\":8582:8640   */\n      mstore\n        /* \"#utility.yul\":8674:8686   */\n      0x756e74206e656564656400000000000000000000000000000000000000000000\n        /* \"#utility.yul\":8669:8671   */\n      0x20\n        /* \"#utility.yul\":8661:8667   */\n      dup3\n        /* \"#utility.yul\":8657:8672   */\n      add\n        /* \"#utility.yul\":8650:8687   */\n      mstore\n        /* \"#utility.yul\":8465:8694   */\n      pop\n      jump\t// out\n        /* \"#utility.yul\":8700:8814   */\n    tag_132:\n      pop\n      jump\t// out\n        /* \"#utility.yul\":8820:8942   */\n    tag_88:\n        /* \"#utility.yul\":8893:8917   */\n      tag_191\n        /* \"#utility.yul\":8911:8916   */\n      dup2\n        /* \"#utility.yul\":8893:8917   */\n      tag_97\n      jump\t// in\n    tag_191:\n        /* \"#utility.yul\":8886:8891   */\n      dup2\n        /* \"#utility.yul\":8883:8918   */\n      eq\n        /* \"#utility.yul\":8873:8936   */\n      tag_192\n      jumpi\n        /* \"#utility.yul\":8932:8933   */\n      0x00\n        /* \"#utility.yul\":8929:8930   */\n      dup1\n        /* \"#utility.yul\":8922:8934   */\n      revert\n        /* \"#utility.yul\":8873:8936   */\n    tag_192:\n        /* \"#utility.yul\":8820:8942   */\n      pop\n      jump\t// out\n\n    auxdata: 0xa26469706673582212208450542c5e27d0cdecef39e9cd0be5fbecf9fc6261c4a4336e731646484901ae64736f6c63430008070033\n}\n",
				"bytecode": {
					"linkReferences": {},
					"object": "60806040523480156200001157600080fd5b5060405162000ee938038062000ee9833981810160405281019062000037919062000237565b84600090805190602001906200004f929190620000c4565b508360018190555082600360006101000a81548160ff0219169083151502179055508160028190555080600360016101000a81548173ffffffffffffffffffffffffffffffffffffffff021916908373ffffffffffffffffffffffffffffffffffffffff1602179055505050505050620004fa565b828054620000d290620003bd565b90600052602060002090601f016020900481019282620000f6576000855562000142565b82601f106200011157805160ff191683800117855562000142565b8280016001018555821562000142579182015b828111156200014157825182559160200191906001019062000124565b5b50905062000151919062000155565b5090565b5b808211156200017057600081600090555060010162000156565b5090565b60006200018b620001858462000307565b620002de565b905082815260208101848484011115620001aa57620001a96200048c565b5b620001b784828562000387565b509392505050565b600081519050620001d081620004ac565b92915050565b600081519050620001e781620004c6565b92915050565b600082601f83011262000205576200020462000487565b5b81516200021784826020860162000174565b91505092915050565b6000815190506200023181620004e0565b92915050565b600080600080600060a0868803121562000256576200025562000496565b5b600086015167ffffffffffffffff81111562000277576200027662000491565b5b6200028588828901620001ed565b9550506020620002988882890162000220565b9450506040620002ab88828901620001d6565b9350506060620002be8882890162000220565b9250506080620002d188828901620001bf565b9150509295509295909350565b6000620002ea620002fd565b9050620002f88282620003f3565b919050565b6000604051905090565b600067ffffffffffffffff82111562000325576200032462000458565b5b62000330826200049b565b9050602081019050919050565b60006200034a826200035d565b9050919050565b60008115159050919050565b600073ffffffffffffffffffffffffffffffffffffffff82169050919050565b6000819050919050565b60005b83811015620003a75780820151818401526020810190506200038a565b83811115620003b7576000848401525b50505050565b60006002820490506001821680620003d657607f821691505b60208210811415620003ed57620003ec62000429565b5b50919050565b620003fe826200049b565b810181811067ffffffffffffffff8211171562000420576200041f62000458565b5b80604052505050565b7f4e487b7100000000000000000000000000000000000000000000000000000000600052602260045260246000fd5b7f4e487b7100000000000000000000000000000000000000000000000000000000600052604160045260246000fd5b600080fd5b600080fd5b600080fd5b600080fd5b6000601f19601f8301169050919050565b620004b7816200033d565b8114620004c357600080fd5b50565b620004d18162000351565b8114620004dd57600080fd5b50565b620004eb816200037d565b8114620004f757600080fd5b50565b6109df806200050a6000396000f3fe6080604052600436106100865760003560e01c8063893d20e811610059578063893d20e814610135578063b383bf2d14610160578063eae3f7641461018b578063ed11f46a146101b6578063ed88c68e146101e157610086565b8063354ecc851461008b57806351cff8d9146100b6578063798be230146100df57806380fdef1b1461010a575b600080fd5b34801561009757600080fd5b506100a06101eb565b6040516100ad9190610667565b60405180910390f35b3480156100c257600080fd5b506100dd60048036038101906100d891906104fd565b610279565b005b3480156100eb57600080fd5b506100f4610353565b604051610101919061064c565b60405180910390f35b34801561011657600080fd5b5061011f610366565b60405161012c91906106e9565b60405180910390f35b34801561014157600080fd5b5061014a61036c565b6040516101579190610631565b60405180910390f35b34801561016c57600080fd5b50610175610396565b60405161018291906106e9565b60405180910390f35b34801561019757600080fd5b506101a061039c565b6040516101ad9190610667565b60405180910390f35b3480156101c257600080fd5b506101cb61042e565b6040516101d891906106e9565b60405180910390f35b6101e9610436565b005b600080546101f8906107fc565b80601f0160208091040260200160405190810160405280929190818152602001828054610224906107fc565b80156102715780601f1061024657610100808354040283529160200191610271565b820191906000526020600020905b81548152906001019060200180831161025457829003601f168201915b505050505081565b3373ffffffffffffffffffffffffffffffffffffffff168173ffffffffffffffffffffffffffffffffffffffff16146102e7576040517f08c379a00000000000000000000000000000000000000000000000000000000081526004016102de906106a9565b60405180910390fd5b3373ffffffffffffffffffffffffffffffffffffffff164760405161030b9061061c565b60006040518083038185875af1925050503d8060008114610348576040519150601f19603f3d011682016040523d82523d6000602084013e61034d565b606091505b50505050565b600360009054906101000a900460ff1681565b60025481565b6000600360019054906101000a900473ffffffffffffffffffffffffffffffffffffffff16905090565b60015481565b6060600080546103ab906107fc565b80601f01602080910402602001604051908101604052809291908181526020018280546103d7906107fc565b80156104245780601f106103f957610100808354040283529160200191610424565b820191906000526020600020905b81548152906001019060200180831161040757829003601f168201915b5050505050905090565b600047905090565b60015434101561047b576040517f08c379a000000000000000000000000000000000000000000000000000000000815260040161047290610689565b60405180910390fd5b600360009054906101000a900460ff166104e657600047905060025434826104a3919061072b565b11156104e4576040517f08c379a00000000000000000000000000000000000000000000000000000000081526004016104db906106c9565b60405180910390fd5b505b565b6000813590506104f781610992565b92915050565b6000602082840312156105135761051261088c565b5b6000610521848285016104e8565b91505092915050565b61053381610781565b82525050565b61054281610793565b82525050565b600061055382610704565b61055d818561071a565b935061056d8185602086016107c9565b61057681610891565b840191505092915050565b600061058e60258361071a565b9150610599826108a2565b604082019050919050565b60006105b160308361071a565b91506105bc826108f1565b604082019050919050565b60006105d4602a8361071a565b91506105df82610940565b604082019050919050565b60006105f760008361070f565b91506106028261098f565b600082019050919050565b610616816107bf565b82525050565b6000610627826105ea565b9150819050919050565b6000602082019050610646600083018461052a565b92915050565b60006020820190506106616000830184610539565b92915050565b600060208201905081810360008301526106818184610548565b905092915050565b600060208201905081810360008301526106a281610581565b9050919050565b600060208201905081810360008301526106c2816105a4565b9050919050565b600060208201905081810360008301526106e2816105c7565b9050919050565b60006020820190506106fe600083018461060d565b92915050565b600081519050919050565b600081905092915050565b600082825260208201905092915050565b6000610736826107bf565b9150610741836107bf565b9250827fffffffffffffffffffffffffffffffffffffffffffffffffffffffffffffffff038211156107765761077561082e565b5b828201905092915050565b600061078c8261079f565b9050919050565b60008115159050919050565b600073ffffffffffffffffffffffffffffffffffffffff82169050919050565b6000819050919050565b60005b838110156107e75780820151818401526020810190506107cc565b838111156107f6576000848401525b50505050565b6000600282049050600182168061081457607f821691505b602082108114156108285761082761085d565b5b50919050565b7f4e487b7100000000000000000000000000000000000000000000000000000000600052601160045260246000fd5b7f4e487b7100000000000000000000000000000000000000000000000000000000600052602260045260246000fd5b600080fd5b6000601f19601f8301169050919050565b7f596f752063616e6e6f7420646f6e6174652062656c6f7720247b5f6d696e416d60008201527f6f756e747d000000000000000000000000000000000000000000000000000000602082015250565b7f4f6e6c79206f776e6572206f66207468697320646f6e6174696f6e2063616e2060008201527f77697468647261772066726f6d20697400000000000000000000000000000000602082015250565b7f596f757220646f6e6174696f6e2077696c6c2063726f73732074686520616d6f60008201527f756e74206e656564656400000000000000000000000000000000000000000000602082015250565b50565b61099b81610781565b81146109a657600080fd5b5056fea26469706673582212208450542c5e27d0cdecef39e9cd0be5fbecf9fc6261c4a4336e731646484901ae64736f6c63430008070033",
					"opcodes": "PUSH1 0x80 PUSH1 0x40 MSTORE CALLVALUE DUP1 ISZERO PUSH3 0x11 JUMPI PUSH1 0x0 DUP1 REVERT JUMPDEST POP PUSH1 0x40 MLOAD PUSH3 0xEE9 CODESIZE SUB DUP1 PUSH3 0xEE9 DUP4 CODECOPY DUP2 DUP2 ADD PUSH1 0x40 MSTORE DUP2 ADD SWAP1 PUSH3 0x37 SWAP2 SWAP1 PUSH3 0x237 JUMP JUMPDEST DUP5 PUSH1 0x0 SWAP1 DUP1 MLOAD SWAP1 PUSH1 0x20 ADD SWAP1 PUSH3 0x4F SWAP3 SWAP2 SWAP1 PUSH3 0xC4 JUMP JUMPDEST POP DUP4 PUSH1 0x1 DUP2 SWAP1 SSTORE POP DUP3 PUSH1 0x3 PUSH1 0x0 PUSH2 0x100 EXP DUP2 SLOAD DUP2 PUSH1 0xFF MUL NOT AND SWAP1 DUP4 ISZERO ISZERO MUL OR SWAP1 SSTORE POP DUP2 PUSH1 0x2 DUP2 SWAP1 SSTORE POP DUP1 PUSH1 0x3 PUSH1 0x1 PUSH2 0x100 EXP DUP2 SLOAD DUP2 PUSH20 0xFFFFFFFFFFFFFFFFFFFFFFFFFFFFFFFFFFFFFFFF MUL NOT AND SWAP1 DUP4 PUSH20 0xFFFFFFFFFFFFFFFFFFFFFFFFFFFFFFFFFFFFFFFF AND MUL OR SWAP1 SSTORE POP POP POP POP POP POP PUSH3 0x4FA JUMP JUMPDEST DUP3 DUP1 SLOAD PUSH3 0xD2 SWAP1 PUSH3 0x3BD JUMP JUMPDEST SWAP1 PUSH1 0x0 MSTORE PUSH1 0x20 PUSH1 0x0 KECCAK256 SWAP1 PUSH1 0x1F ADD PUSH1 0x20 SWAP1 DIV DUP2 ADD SWAP3 DUP3 PUSH3 0xF6 JUMPI PUSH1 0x0 DUP6 SSTORE PUSH3 0x142 JUMP JUMPDEST DUP3 PUSH1 0x1F LT PUSH3 0x111 JUMPI DUP1 MLOAD PUSH1 0xFF NOT AND DUP4 DUP1 ADD OR DUP6 SSTORE PUSH3 0x142 JUMP JUMPDEST DUP3 DUP1 ADD PUSH1 0x1 ADD DUP6 SSTORE DUP3 ISZERO PUSH3 0x142 JUMPI SWAP2 DUP3 ADD JUMPDEST DUP3 DUP2 GT ISZERO PUSH3 0x141 JUMPI DUP3 MLOAD DUP3 SSTORE SWAP2 PUSH1 0x20 ADD SWAP2 SWAP1 PUSH1 0x1 ADD SWAP1 PUSH3 0x124 JUMP JUMPDEST JUMPDEST POP SWAP1 POP PUSH3 0x151 SWAP2 SWAP1 PUSH3 0x155 JUMP JUMPDEST POP SWAP1 JUMP JUMPDEST JUMPDEST DUP1 DUP3 GT ISZERO PUSH3 0x170 JUMPI PUSH1 0x0 DUP2 PUSH1 0x0 SWAP1 SSTORE POP PUSH1 0x1 ADD PUSH3 0x156 JUMP JUMPDEST POP SWAP1 JUMP JUMPDEST PUSH1 0x0 PUSH3 0x18B PUSH3 0x185 DUP5 PUSH3 0x307 JUMP JUMPDEST PUSH3 0x2DE JUMP JUMPDEST SWAP1 POP DUP3 DUP2 MSTORE PUSH1 0x20 DUP2 ADD DUP5 DUP5 DUP5 ADD GT ISZERO PUSH3 0x1AA JUMPI PUSH3 0x1A9 PUSH3 0x48C JUMP JUMPDEST JUMPDEST PUSH3 0x1B7 DUP5 DUP3 DUP6 PUSH3 0x387 JUMP JUMPDEST POP SWAP4 SWAP3 POP POP POP JUMP JUMPDEST PUSH1 0x0 DUP2 MLOAD SWAP1 POP PUSH3 0x1D0 DUP2 PUSH3 0x4AC JUMP JUMPDEST SWAP3 SWAP2 POP POP JUMP JUMPDEST PUSH1 0x0 DUP2 MLOAD SWAP1 POP PUSH3 0x1E7 DUP2 PUSH3 0x4C6 JUMP JUMPDEST SWAP3 SWAP2 POP POP JUMP JUMPDEST PUSH1 0x0 DUP3 PUSH1 0x1F DUP4 ADD SLT PUSH3 0x205 JUMPI PUSH3 0x204 PUSH3 0x487 JUMP JUMPDEST JUMPDEST DUP2 MLOAD PUSH3 0x217 DUP5 DUP3 PUSH1 0x20 DUP7 ADD PUSH3 0x174 JUMP JUMPDEST SWAP2 POP POP SWAP3 SWAP2 POP POP JUMP JUMPDEST PUSH1 0x0 DUP2 MLOAD SWAP1 POP PUSH3 0x231 DUP2 PUSH3 0x4E0 JUMP JUMPDEST SWAP3 SWAP2 POP POP JUMP JUMPDEST PUSH1 0x0 DUP1 PUSH1 0x0 DUP1 PUSH1 0x0 PUSH1 0xA0 DUP7 DUP9 SUB SLT ISZERO PUSH3 0x256 JUMPI PUSH3 0x255 PUSH3 0x496 JUMP JUMPDEST JUMPDEST PUSH1 0x0 DUP7 ADD MLOAD PUSH8 0xFFFFFFFFFFFFFFFF DUP2 GT ISZERO PUSH3 0x277 JUMPI PUSH3 0x276 PUSH3 0x491 JUMP JUMPDEST JUMPDEST PUSH3 0x285 DUP9 DUP3 DUP10 ADD PUSH3 0x1ED JUMP JUMPDEST SWAP6 POP POP PUSH1 0x20 PUSH3 0x298 DUP9 DUP3 DUP10 ADD PUSH3 0x220 JUMP JUMPDEST SWAP5 POP POP PUSH1 0x40 PUSH3 0x2AB DUP9 DUP3 DUP10 ADD PUSH3 0x1D6 JUMP JUMPDEST SWAP4 POP POP PUSH1 0x60 PUSH3 0x2BE DUP9 DUP3 DUP10 ADD PUSH3 0x220 JUMP JUMPDEST SWAP3 POP POP PUSH1 0x80 PUSH3 0x2D1 DUP9 DUP3 DUP10 ADD PUSH3 0x1BF JUMP JUMPDEST SWAP2 POP POP SWAP3 SWAP6 POP SWAP3 SWAP6 SWAP1 SWAP4 POP JUMP JUMPDEST PUSH1 0x0 PUSH3 0x2EA PUSH3 0x2FD JUMP JUMPDEST SWAP1 POP PUSH3 0x2F8 DUP3 DUP3 PUSH3 0x3F3 JUMP JUMPDEST SWAP2 SWAP1 POP JUMP JUMPDEST PUSH1 0x0 PUSH1 0x40 MLOAD SWAP1 POP SWAP1 JUMP JUMPDEST PUSH1 0x0 PUSH8 0xFFFFFFFFFFFFFFFF DUP3 GT ISZERO PUSH3 0x325 JUMPI PUSH3 0x324 PUSH3 0x458 JUMP JUMPDEST JUMPDEST PUSH3 0x330 DUP3 PUSH3 0x49B JUMP JUMPDEST SWAP1 POP PUSH1 0x20 DUP2 ADD SWAP1 POP SWAP2 SWAP1 POP JUMP JUMPDEST PUSH1 0x0 PUSH3 0x34A DUP3 PUSH3 0x35D JUMP JUMPDEST SWAP1 POP SWAP2 SWAP1 POP JUMP JUMPDEST PUSH1 0x0 DUP2 ISZERO ISZERO SWAP1 POP SWAP2 SWAP1 POP JUMP JUMPDEST PUSH1 0x0 PUSH20 0xFFFFFFFFFFFFFFFFFFFFFFFFFFFFFFFFFFFFFFFF DUP3 AND SWAP1 POP SWAP2 SWAP1 POP JUMP JUMPDEST PUSH1 0x0 DUP2 SWAP1 POP SWAP2 SWAP1 POP JUMP JUMPDEST PUSH1 0x0 JUMPDEST DUP4 DUP2 LT ISZERO PUSH3 0x3A7 JUMPI DUP1 DUP3 ADD MLOAD DUP2 DUP5 ADD MSTORE PUSH1 0x20 DUP2 ADD SWAP1 POP PUSH3 0x38A JUMP JUMPDEST DUP4 DUP2 GT ISZERO PUSH3 0x3B7 JUMPI PUSH1 0x0 DUP5 DUP5 ADD MSTORE JUMPDEST POP POP POP POP JUMP JUMPDEST PUSH1 0x0 PUSH1 0x2 DUP3 DIV SWAP1 POP PUSH1 0x1 DUP3 AND DUP1 PUSH3 0x3D6 JUMPI PUSH1 0x7F DUP3 AND SWAP2 POP JUMPDEST PUSH1 0x20 DUP3 LT DUP2 EQ ISZERO PUSH3 0x3ED JUMPI PUSH3 0x3EC PUSH3 0x429 JUMP JUMPDEST JUMPDEST POP SWAP2 SWAP1 POP JUMP JUMPDEST PUSH3 0x3FE DUP3 PUSH3 0x49B JUMP JUMPDEST DUP2 ADD DUP2 DUP2 LT PUSH8 0xFFFFFFFFFFFFFFFF DUP3 GT OR ISZERO PUSH3 0x420 JUMPI PUSH3 0x41F PUSH3 0x458 JUMP JUMPDEST JUMPDEST DUP1 PUSH1 0x40 MSTORE POP POP POP JUMP JUMPDEST PUSH32 0x4E487B7100000000000000000000000000000000000000000000000000000000 PUSH1 0x0 MSTORE PUSH1 0x22 PUSH1 0x4 MSTORE PUSH1 0x24 PUSH1 0x0 REVERT JUMPDEST PUSH32 0x4E487B7100000000000000000000000000000000000000000000000000000000 PUSH1 0x0 MSTORE PUSH1 0x41 PUSH1 0x4 MSTORE PUSH1 0x24 PUSH1 0x0 REVERT JUMPDEST PUSH1 0x0 DUP1 REVERT JUMPDEST PUSH1 0x0 DUP1 REVERT JUMPDEST PUSH1 0x0 DUP1 REVERT JUMPDEST PUSH1 0x0 DUP1 REVERT JUMPDEST PUSH1 0x0 PUSH1 0x1F NOT PUSH1 0x1F DUP4 ADD AND SWAP1 POP SWAP2 SWAP1 POP JUMP JUMPDEST PUSH3 0x4B7 DUP2 PUSH3 0x33D JUMP JUMPDEST DUP2 EQ PUSH3 0x4C3 JUMPI PUSH1 0x0 DUP1 REVERT JUMPDEST POP JUMP JUMPDEST PUSH3 0x4D1 DUP2 PUSH3 0x351 JUMP JUMPDEST DUP2 EQ PUSH3 0x4DD JUMPI PUSH1 0x0 DUP1 REVERT JUMPDEST POP JUMP JUMPDEST PUSH3 0x4EB DUP2 PUSH3 0x37D JUMP JUMPDEST DUP2 EQ PUSH3 0x4F7 JUMPI PUSH1 0x0 DUP1 REVERT JUMPDEST POP JUMP JUMPDEST PUSH2 0x9DF DUP1 PUSH3 0x50A PUSH1 0x0 CODECOPY PUSH1 0x0 RETURN INVALID PUSH1 0x80 PUSH1 0x40 MSTORE PUSH1 0x4 CALLDATASIZE LT PUSH2 0x86 JUMPI PUSH1 0x0 CALLDATALOAD PUSH1 0xE0 SHR DUP1 PUSH4 0x893D20E8 GT PUSH2 0x59 JUMPI DUP1 PUSH4 0x893D20E8 EQ PUSH2 0x135 JUMPI DUP1 PUSH4 0xB383BF2D EQ PUSH2 0x160 JUMPI DUP1 PUSH4 0xEAE3F764 EQ PUSH2 0x18B JUMPI DUP1 PUSH4 0xED11F46A EQ PUSH2 0x1B6 JUMPI DUP1 PUSH4 0xED88C68E EQ PUSH2 0x1E1 JUMPI PUSH2 0x86 JUMP JUMPDEST DUP1 PUSH4 0x354ECC85 EQ PUSH2 0x8B JUMPI DUP1 PUSH4 0x51CFF8D9 EQ PUSH2 0xB6 JUMPI DUP1 PUSH4 0x798BE230 EQ PUSH2 0xDF JUMPI DUP1 PUSH4 0x80FDEF1B EQ PUSH2 0x10A JUMPI JUMPDEST PUSH1 0x0 DUP1 REVERT JUMPDEST CALLVALUE DUP1 ISZERO PUSH2 0x97 JUMPI PUSH1 0x0 DUP1 REVERT JUMPDEST POP PUSH2 0xA0 PUSH2 0x1EB JUMP JUMPDEST PUSH1 0x40 MLOAD PUSH2 0xAD SWAP2 SWAP1 PUSH2 0x667 JUMP JUMPDEST PUSH1 0x40 MLOAD DUP1 SWAP2 SUB SWAP1 RETURN JUMPDEST CALLVALUE DUP1 ISZERO PUSH2 0xC2 JUMPI PUSH1 0x0 DUP1 REVERT JUMPDEST POP PUSH2 0xDD PUSH1 0x4 DUP1 CALLDATASIZE SUB DUP2 ADD SWAP1 PUSH2 0xD8 SWAP2 SWAP1 PUSH2 0x4FD JUMP JUMPDEST PUSH2 0x279 JUMP JUMPDEST STOP JUMPDEST CALLVALUE DUP1 ISZERO PUSH2 0xEB JUMPI PUSH1 0x0 DUP1 REVERT JUMPDEST POP PUSH2 0xF4 PUSH2 0x353 JUMP JUMPDEST PUSH1 0x40 MLOAD PUSH2 0x101 SWAP2 SWAP1 PUSH2 0x64C JUMP JUMPDEST PUSH1 0x40 MLOAD DUP1 SWAP2 SUB SWAP1 RETURN JUMPDEST CALLVALUE DUP1 ISZERO PUSH2 0x116 JUMPI PUSH1 0x0 DUP1 REVERT JUMPDEST POP PUSH2 0x11F PUSH2 0x366 JUMP JUMPDEST PUSH1 0x40 MLOAD PUSH2 0x12C SWAP2 SWAP1 PUSH2 0x6E9 JUMP JUMPDEST PUSH1 0x40 MLOAD DUP1 SWAP2 SUB SWAP1 RETURN JUMPDEST CALLVALUE DUP1 ISZERO PUSH2 0x141 JUMPI PUSH1 0x0 DUP1 REVERT JUMPDEST POP PUSH2 0x14A PUSH2 0x36C JUMP JUMPDEST PUSH1 0x40 MLOAD PUSH2 0x157 SWAP2 SWAP1 PUSH2 0x631 JUMP JUMPDEST PUSH1 0x40 MLOAD DUP1 SWAP2 SUB SWAP1 RETURN JUMPDEST CALLVALUE DUP1 ISZERO PUSH2 0x16C JUMPI PUSH1 0x0 DUP1 REVERT JUMPDEST POP PUSH2 0x175 PUSH2 0x396 JUMP JUMPDEST PUSH1 0x40 MLOAD PUSH2 0x182 SWAP2 SWAP1 PUSH2 0x6E9 JUMP JUMPDEST PUSH1 0x40 MLOAD DUP1 SWAP2 SUB SWAP1 RETURN JUMPDEST CALLVALUE DUP1 ISZERO PUSH2 0x197 JUMPI PUSH1 0x0 DUP1 REVERT JUMPDEST POP PUSH2 0x1A0 PUSH2 0x39C JUMP JUMPDEST PUSH1 0x40 MLOAD PUSH2 0x1AD SWAP2 SWAP1 PUSH2 0x667 JUMP JUMPDEST PUSH1 0x40 MLOAD DUP1 SWAP2 SUB SWAP1 RETURN JUMPDEST CALLVALUE DUP1 ISZERO PUSH2 0x1C2 JUMPI PUSH1 0x0 DUP1 REVERT JUMPDEST POP PUSH2 0x1CB PUSH2 0x42E JUMP JUMPDEST PUSH1 0x40 MLOAD PUSH2 0x1D8 SWAP2 SWAP1 PUSH2 0x6E9 JUMP JUMPDEST PUSH1 0x40 MLOAD DUP1 SWAP2 SUB SWAP1 RETURN JUMPDEST PUSH2 0x1E9 PUSH2 0x436 JUMP JUMPDEST STOP JUMPDEST PUSH1 0x0 DUP1 SLOAD PUSH2 0x1F8 SWAP1 PUSH2 0x7FC JUMP JUMPDEST DUP1 PUSH1 0x1F ADD PUSH1 0x20 DUP1 SWAP2 DIV MUL PUSH1 0x20 ADD PUSH1 0x40 MLOAD SWAP1 DUP2 ADD PUSH1 0x40 MSTORE DUP1 SWAP3 SWAP2 SWAP1 DUP2 DUP2 MSTORE PUSH1 0x20 ADD DUP3 DUP1 SLOAD PUSH2 0x224 SWAP1 PUSH2 0x7FC JUMP JUMPDEST DUP1 ISZERO PUSH2 0x271 JUMPI DUP1 PUSH1 0x1F LT PUSH2 0x246 JUMPI PUSH2 0x100 DUP1 DUP4 SLOAD DIV MUL DUP4 MSTORE SWAP2 PUSH1 0x20 ADD SWAP2 PUSH2 0x271 JUMP JUMPDEST DUP3 ADD SWAP2 SWAP1 PUSH1 0x0 MSTORE PUSH1 0x20 PUSH1 0x0 KECCAK256 SWAP1 JUMPDEST DUP2 SLOAD DUP2 MSTORE SWAP1 PUSH1 0x1 ADD SWAP1 PUSH1 0x20 ADD DUP1 DUP4 GT PUSH2 0x254 JUMPI DUP3 SWAP1 SUB PUSH1 0x1F AND DUP3 ADD SWAP2 JUMPDEST POP POP POP POP POP DUP2 JUMP JUMPDEST CALLER PUSH20 0xFFFFFFFFFFFFFFFFFFFFFFFFFFFFFFFFFFFFFFFF AND DUP2 PUSH20 0xFFFFFFFFFFFFFFFFFFFFFFFFFFFFFFFFFFFFFFFF AND EQ PUSH2 0x2E7 JUMPI PUSH1 0x40 MLOAD PUSH32 0x8C379A000000000000000000000000000000000000000000000000000000000 DUP2 MSTORE PUSH1 0x4 ADD PUSH2 0x2DE SWAP1 PUSH2 0x6A9 JUMP JUMPDEST PUSH1 0x40 MLOAD DUP1 SWAP2 SUB SWAP1 REVERT JUMPDEST CALLER PUSH20 0xFFFFFFFFFFFFFFFFFFFFFFFFFFFFFFFFFFFFFFFF AND SELFBALANCE PUSH1 0x40 MLOAD PUSH2 0x30B SWAP1 PUSH2 0x61C JUMP JUMPDEST PUSH1 0x0 PUSH1 0x40 MLOAD DUP1 DUP4 SUB DUP2 DUP6 DUP8 GAS CALL SWAP3 POP POP POP RETURNDATASIZE DUP1 PUSH1 0x0 DUP2 EQ PUSH2 0x348 JUMPI PUSH1 0x40 MLOAD SWAP2 POP PUSH1 0x1F NOT PUSH1 0x3F RETURNDATASIZE ADD AND DUP3 ADD PUSH1 0x40 MSTORE RETURNDATASIZE DUP3 MSTORE RETURNDATASIZE PUSH1 0x0 PUSH1 0x20 DUP5 ADD RETURNDATACOPY PUSH2 0x34D JUMP JUMPDEST PUSH1 0x60 SWAP2 POP JUMPDEST POP POP POP POP JUMP JUMPDEST PUSH1 0x3 PUSH1 0x0 SWAP1 SLOAD SWAP1 PUSH2 0x100 EXP SWAP1 DIV PUSH1 0xFF AND DUP2 JUMP JUMPDEST PUSH1 0x2 SLOAD DUP2 JUMP JUMPDEST PUSH1 0x0 PUSH1 0x3 PUSH1 0x1 SWAP1 SLOAD SWAP1 PUSH2 0x100 EXP SWAP1 DIV PUSH20 0xFFFFFFFFFFFFFFFFFFFFFFFFFFFFFFFFFFFFFFFF AND SWAP1 POP SWAP1 JUMP JUMPDEST PUSH1 0x1 SLOAD DUP2 JUMP JUMPDEST PUSH1 0x60 PUSH1 0x0 DUP1 SLOAD PUSH2 0x3AB SWAP1 PUSH2 0x7FC JUMP JUMPDEST DUP1 PUSH1 0x1F ADD PUSH1 0x20 DUP1 SWAP2 DIV MUL PUSH1 0x20 ADD PUSH1 0x40 MLOAD SWAP1 DUP2 ADD PUSH1 0x40 MSTORE DUP1 SWAP3 SWAP2 SWAP1 DUP2 DUP2 MSTORE PUSH1 0x20 ADD DUP3 DUP1 SLOAD PUSH2 0x3D7 SWAP1 PUSH2 0x7FC JUMP JUMPDEST DUP1 ISZERO PUSH2 0x424 JUMPI DUP1 PUSH1 0x1F LT PUSH2 0x3F9 JUMPI PUSH2 0x100 DUP1 DUP4 SLOAD DIV MUL DUP4 MSTORE SWAP2 PUSH1 0x20 ADD SWAP2 PUSH2 0x424 JUMP JUMPDEST DUP3 ADD SWAP2 SWAP1 PUSH1 0x0 MSTORE PUSH1 0x20 PUSH1 0x0 KECCAK256 SWAP1 JUMPDEST DUP2 SLOAD DUP2 MSTORE SWAP1 PUSH1 0x1 ADD SWAP1 PUSH1 0x20 ADD DUP1 DUP4 GT PUSH2 0x407 JUMPI DUP3 SWAP1 SUB PUSH1 0x1F AND DUP3 ADD SWAP2 JUMPDEST POP POP POP POP POP SWAP1 POP SWAP1 JUMP JUMPDEST PUSH1 0x0 SELFBALANCE SWAP1 POP SWAP1 JUMP JUMPDEST PUSH1 0x1 SLOAD CALLVALUE LT ISZERO PUSH2 0x47B JUMPI PUSH1 0x40 MLOAD PUSH32 0x8C379A000000000000000000000000000000000000000000000000000000000 DUP2 MSTORE PUSH1 0x4 ADD PUSH2 0x472 SWAP1 PUSH2 0x689 JUMP JUMPDEST PUSH1 0x40 MLOAD DUP1 SWAP2 SUB SWAP1 REVERT JUMPDEST PUSH1 0x3 PUSH1 0x0 SWAP1 SLOAD SWAP1 PUSH2 0x100 EXP SWAP1 DIV PUSH1 0xFF AND PUSH2 0x4E6 JUMPI PUSH1 0x0 SELFBALANCE SWAP1 POP PUSH1 0x2 SLOAD CALLVALUE DUP3 PUSH2 0x4A3 SWAP2 SWAP1 PUSH2 0x72B JUMP JUMPDEST GT ISZERO PUSH2 0x4E4 JUMPI PUSH1 0x40 MLOAD PUSH32 0x8C379A000000000000000000000000000000000000000000000000000000000 DUP2 MSTORE PUSH1 0x4 ADD PUSH2 0x4DB SWAP1 PUSH2 0x6C9 JUMP JUMPDEST PUSH1 0x40 MLOAD DUP1 SWAP2 SUB SWAP1 REVERT JUMPDEST POP JUMPDEST JUMP JUMPDEST PUSH1 0x0 DUP2 CALLDATALOAD SWAP1 POP PUSH2 0x4F7 DUP2 PUSH2 0x992 JUMP JUMPDEST SWAP3 SWAP2 POP POP JUMP JUMPDEST PUSH1 0x0 PUSH1 0x20 DUP3 DUP5 SUB SLT ISZERO PUSH2 0x513 JUMPI PUSH2 0x512 PUSH2 0x88C JUMP JUMPDEST JUMPDEST PUSH1 0x0 PUSH2 0x521 DUP5 DUP3 DUP6 ADD PUSH2 0x4E8 JUMP JUMPDEST SWAP2 POP POP SWAP3 SWAP2 POP POP JUMP JUMPDEST PUSH2 0x533 DUP2 PUSH2 0x781 JUMP JUMPDEST DUP3 MSTORE POP POP JUMP JUMPDEST PUSH2 0x542 DUP2 PUSH2 0x793 JUMP JUMPDEST DUP3 MSTORE POP POP JUMP JUMPDEST PUSH1 0x0 PUSH2 0x553 DUP3 PUSH2 0x704 JUMP JUMPDEST PUSH2 0x55D DUP2 DUP6 PUSH2 0x71A JUMP JUMPDEST SWAP4 POP PUSH2 0x56D DUP2 DUP6 PUSH1 0x20 DUP7 ADD PUSH2 0x7C9 JUMP JUMPDEST PUSH2 0x576 DUP2 PUSH2 0x891 JUMP JUMPDEST DUP5 ADD SWAP2 POP POP SWAP3 SWAP2 POP POP JUMP JUMPDEST PUSH1 0x0 PUSH2 0x58E PUSH1 0x25 DUP4 PUSH2 0x71A JUMP JUMPDEST SWAP2 POP PUSH2 0x599 DUP3 PUSH2 0x8A2 JUMP JUMPDEST PUSH1 0x40 DUP3 ADD SWAP1 POP SWAP2 SWAP1 POP JUMP JUMPDEST PUSH1 0x0 PUSH2 0x5B1 PUSH1 0x30 DUP4 PUSH2 0x71A JUMP JUMPDEST SWAP2 POP PUSH2 0x5BC DUP3 PUSH2 0x8F1 JUMP JUMPDEST PUSH1 0x40 DUP3 ADD SWAP1 POP SWAP2 SWAP1 POP JUMP JUMPDEST PUSH1 0x0 PUSH2 0x5D4 PUSH1 0x2A DUP4 PUSH2 0x71A JUMP JUMPDEST SWAP2 POP PUSH2 0x5DF DUP3 PUSH2 0x940 JUMP JUMPDEST PUSH1 0x40 DUP3 ADD SWAP1 POP SWAP2 SWAP1 POP JUMP JUMPDEST PUSH1 0x0 PUSH2 0x5F7 PUSH1 0x0 DUP4 PUSH2 0x70F JUMP JUMPDEST SWAP2 POP PUSH2 0x602 DUP3 PUSH2 0x98F JUMP JUMPDEST PUSH1 0x0 DUP3 ADD SWAP1 POP SWAP2 SWAP1 POP JUMP JUMPDEST PUSH2 0x616 DUP2 PUSH2 0x7BF JUMP JUMPDEST DUP3 MSTORE POP POP JUMP JUMPDEST PUSH1 0x0 PUSH2 0x627 DUP3 PUSH2 0x5EA JUMP JUMPDEST SWAP2 POP DUP2 SWAP1 POP SWAP2 SWAP1 POP JUMP JUMPDEST PUSH1 0x0 PUSH1 0x20 DUP3 ADD SWAP1 POP PUSH2 0x646 PUSH1 0x0 DUP4 ADD DUP5 PUSH2 0x52A JUMP JUMPDEST SWAP3 SWAP2 POP POP JUMP JUMPDEST PUSH1 0x0 PUSH1 0x20 DUP3 ADD SWAP1 POP PUSH2 0x661 PUSH1 0x0 DUP4 ADD DUP5 PUSH2 0x539 JUMP JUMPDEST SWAP3 SWAP2 POP POP JUMP JUMPDEST PUSH1 0x0 PUSH1 0x20 DUP3 ADD SWAP1 POP DUP2 DUP2 SUB PUSH1 0x0 DUP4 ADD MSTORE PUSH2 0x681 DUP2 DUP5 PUSH2 0x548 JUMP JUMPDEST SWAP1 POP SWAP3 SWAP2 POP POP JUMP JUMPDEST PUSH1 0x0 PUSH1 0x20 DUP3 ADD SWAP1 POP DUP2 DUP2 SUB PUSH1 0x0 DUP4 ADD MSTORE PUSH2 0x6A2 DUP2 PUSH2 0x581 JUMP JUMPDEST SWAP1 POP SWAP2 SWAP1 POP JUMP JUMPDEST PUSH1 0x0 PUSH1 0x20 DUP3 ADD SWAP1 POP DUP2 DUP2 SUB PUSH1 0x0 DUP4 ADD MSTORE PUSH2 0x6C2 DUP2 PUSH2 0x5A4 JUMP JUMPDEST SWAP1 POP SWAP2 SWAP1 POP JUMP JUMPDEST PUSH1 0x0 PUSH1 0x20 DUP3 ADD SWAP1 POP DUP2 DUP2 SUB PUSH1 0x0 DUP4 ADD MSTORE PUSH2 0x6E2 DUP2 PUSH2 0x5C7 JUMP JUMPDEST SWAP1 POP SWAP2 SWAP1 POP JUMP JUMPDEST PUSH1 0x0 PUSH1 0x20 DUP3 ADD SWAP1 POP PUSH2 0x6FE PUSH1 0x0 DUP4 ADD DUP5 PUSH2 0x60D JUMP JUMPDEST SWAP3 SWAP2 POP POP JUMP JUMPDEST PUSH1 0x0 DUP2 MLOAD SWAP1 POP SWAP2 SWAP1 POP JUMP JUMPDEST PUSH1 0x0 DUP2 SWAP1 POP SWAP3 SWAP2 POP POP JUMP JUMPDEST PUSH1 0x0 DUP3 DUP3 MSTORE PUSH1 0x20 DUP3 ADD SWAP1 POP SWAP3 SWAP2 POP POP JUMP JUMPDEST PUSH1 0x0 PUSH2 0x736 DUP3 PUSH2 0x7BF JUMP JUMPDEST SWAP2 POP PUSH2 0x741 DUP4 PUSH2 0x7BF JUMP JUMPDEST SWAP3 POP DUP3 PUSH32 0xFFFFFFFFFFFFFFFFFFFFFFFFFFFFFFFFFFFFFFFFFFFFFFFFFFFFFFFFFFFFFFFF SUB DUP3 GT ISZERO PUSH2 0x776 JUMPI PUSH2 0x775 PUSH2 0x82E JUMP JUMPDEST JUMPDEST DUP3 DUP3 ADD SWAP1 POP SWAP3 SWAP2 POP POP JUMP JUMPDEST PUSH1 0x0 PUSH2 0x78C DUP3 PUSH2 0x79F JUMP JUMPDEST SWAP1 POP SWAP2 SWAP1 POP JUMP JUMPDEST PUSH1 0x0 DUP2 ISZERO ISZERO SWAP1 POP SWAP2 SWAP1 POP JUMP JUMPDEST PUSH1 0x0 PUSH20 0xFFFFFFFFFFFFFFFFFFFFFFFFFFFFFFFFFFFFFFFF DUP3 AND SWAP1 POP SWAP2 SWAP1 POP JUMP JUMPDEST PUSH1 0x0 DUP2 SWAP1 POP SWAP2 SWAP1 POP JUMP JUMPDEST PUSH1 0x0 JUMPDEST DUP4 DUP2 LT ISZERO PUSH2 0x7E7 JUMPI DUP1 DUP3 ADD MLOAD DUP2 DUP5 ADD MSTORE PUSH1 0x20 DUP2 ADD SWAP1 POP PUSH2 0x7CC JUMP JUMPDEST DUP4 DUP2 GT ISZERO PUSH2 0x7F6 JUMPI PUSH1 0x0 DUP5 DUP5 ADD MSTORE JUMPDEST POP POP POP POP JUMP JUMPDEST PUSH1 0x0 PUSH1 0x2 DUP3 DIV SWAP1 POP PUSH1 0x1 DUP3 AND DUP1 PUSH2 0x814 JUMPI PUSH1 0x7F DUP3 AND SWAP2 POP JUMPDEST PUSH1 0x20 DUP3 LT DUP2 EQ ISZERO PUSH2 0x828 JUMPI PUSH2 0x827 PUSH2 0x85D JUMP JUMPDEST JUMPDEST POP SWAP2 SWAP1 POP JUMP JUMPDEST PUSH32 0x4E487B7100000000000000000000000000000000000000000000000000000000 PUSH1 0x0 MSTORE PUSH1 0x11 PUSH1 0x4 MSTORE PUSH1 0x24 PUSH1 0x0 REVERT JUMPDEST PUSH32 0x4E487B7100000000000000000000000000000000000000000000000000000000 PUSH1 0x0 MSTORE PUSH1 0x22 PUSH1 0x4 MSTORE PUSH1 0x24 PUSH1 0x0 REVERT JUMPDEST PUSH1 0x0 DUP1 REVERT JUMPDEST PUSH1 0x0 PUSH1 0x1F NOT PUSH1 0x1F DUP4 ADD AND SWAP1 POP SWAP2 SWAP1 POP JUMP JUMPDEST PUSH32 0x596F752063616E6E6F7420646F6E6174652062656C6F7720247B5F6D696E416D PUSH1 0x0 DUP3 ADD MSTORE PUSH32 0x6F756E747D000000000000000000000000000000000000000000000000000000 PUSH1 0x20 DUP3 ADD MSTORE POP JUMP JUMPDEST PUSH32 0x4F6E6C79206F776E6572206F66207468697320646F6E6174696F6E2063616E20 PUSH1 0x0 DUP3 ADD MSTORE PUSH32 0x77697468647261772066726F6D20697400000000000000000000000000000000 PUSH1 0x20 DUP3 ADD MSTORE POP JUMP JUMPDEST PUSH32 0x596F757220646F6E6174696F6E2077696C6C2063726F73732074686520616D6F PUSH1 0x0 DUP3 ADD MSTORE PUSH32 0x756E74206E656564656400000000000000000000000000000000000000000000 PUSH1 0x20 DUP3 ADD MSTORE POP JUMP JUMPDEST POP JUMP JUMPDEST PUSH2 0x99B DUP2 PUSH2 0x781 JUMP JUMPDEST DUP2 EQ PUSH2 0x9A6 JUMPI PUSH1 0x0 DUP1 REVERT JUMPDEST POP JUMP INVALID LOG2 PUSH5 0x6970667358 0x22 SLT KECCAK256 DUP5 POP SLOAD 0x2C 0x5E 0x27 0xD0 0xCD 0xEC 0xEF CODECOPY 0xE9 0xCD SIGNEXTEND 0xE5 0xFB 0xEC 0xF9 0xFC PUSH3 0x61C4A4 CALLER PUSH15 0x731646484901AE64736F6C63430008 SMOD STOP CALLER "
				},
				"gasEstimates": {
					"creation": {
						"codeDepositCost": "505400",
						"executionCost": "infinite",
						"totalCost": "infinite"
					},
					"external": {
						"_donationName()": "infinite",
						"acceptPaymentAfterAmountMet()": "2516",
						"donate()": "infinite",
						"donationAmountNeeded()": "2496",
						"donationBalance()": "405",
						"donationMinAmount()": "2451",
						"getDonationName()": "infinite",
						"getOwner()": "2572",
						"withdraw(address)": "infinite"
					}
				},
				"methodIdentifiers": {
					"_donationName()": "354ecc85",
					"acceptPaymentAfterAmountMet()": "798be230",
					"donate()": "ed88c68e",
					"donationAmountNeeded()": "80fdef1b",
					"donationBalance()": "ed11f46a",
					"donationMinAmount()": "b383bf2d",
					"getDonationName()": "eae3f764",
					"getOwner()": "893d20e8",
					"withdraw(address)": "51cff8d9"
				}
			},
			"storageLayout": {
				"storage": [
					{
						"astId": 3,
						"contract": "Donation.sol:Donation",
						"label": "_donationName",
						"offset": 0,
						"slot": "0",
						"type": "t_string_storage"
					},
					{
						"astId": 5,
						"contract": "Donation.sol:Donation",
						"label": "donationMinAmount",
						"offset": 0,
						"slot": "1",
						"type": "t_uint256"
					},
					{
						"astId": 7,
						"contract": "Donation.sol:Donation",
						"label": "donationAmountNeeded",
						"offset": 0,
						"slot": "2",
						"type": "t_uint256"
					},
					{
						"astId": 9,
						"contract": "Donation.sol:Donation",
						"label": "acceptPaymentAfterAmountMet",
						"offset": 0,
						"slot": "3",
						"type": "t_bool"
					},
					{
						"astId": 11,
						"contract": "Donation.sol:Donation",
						"label": "_owner",
						"offset": 1,
						"slot": "3",
						"type": "t_address"
					}
				],
				"types": {
					"t_address": {
						"encoding": "inplace",
						"label": "address",
						"numberOfBytes": "20"
					},
					"t_bool": {
						"encoding": "inplace",
						"label": "bool",
						"numberOfBytes": "1"
					},
					"t_string_storage": {
						"encoding": "bytes",
						"label": "string",
						"numberOfBytes": "32"
					},
					"t_uint256": {
						"encoding": "inplace",
						"label": "uint256",
						"numberOfBytes": "32"
					}
				}
			},
			"userdoc": {
				"kind": "user",
				"methods": {},
				"version": 1
			}
		}
	}
}