{
	"Donation.sol": {
		"Donation": {
			"abi": [
				{
					"inputs": [
						{
							"internalType": "string",
							"name": "name",
							"type": "string"
						},
						{
							"internalType": "uint256",
							"name": "minAmount",
							"type": "uint256"
						},
						{
							"internalType": "bool",
							"name": "accept",
							"type": "bool"
						},
						{
							"internalType": "uint256",
							"name": "amountNeeded",
							"type": "uint256"
						},
						{
							"internalType": "address",
							"name": "owner",
							"type": "address"
						}
					],
					"stateMutability": "nonpayable",
					"type": "constructor"
				},
				{
					"inputs": [],
					"name": "_donationName",
					"outputs": [
						{
							"internalType": "string",
							"name": "",
							"type": "string"
						}
					],
					"stateMutability": "view",
					"type": "function"
				},
				{
					"inputs": [],
					"name": "acceptPaymentAfterAmountMet",
					"outputs": [
						{
							"internalType": "bool",
							"name": "",
							"type": "bool"
						}
					],
					"stateMutability": "view",
					"type": "function"
				},
				{
					"inputs": [],
					"name": "donate",
					"outputs": [],
					"stateMutability": "payable",
					"type": "function"
				},
				{
					"inputs": [],
					"name": "donationAmountNeeded",
					"outputs": [
						{
							"internalType": "uint256",
							"name": "",
							"type": "uint256"
						}
					],
					"stateMutability": "view",
					"type": "function"
				},
				{
					"inputs": [],
					"name": "donationBalance",
					"outputs": [
						{
							"internalType": "uint256",
							"name": "",
							"type": "uint256"
						}
					],
					"stateMutability": "view",
					"type": "function"
				},
				{
					"inputs": [],
					"name": "donationMinAmount",
					"outputs": [
						{
							"internalType": "uint256",
							"name": "",
							"type": "uint256"
						}
					],
					"stateMutability": "view",
					"type": "function"
				},
				{
					"inputs": [],
					"name": "getDonationName",
					"outputs": [
						{
							"internalType": "string",
							"name": "",
							"type": "string"
						}
					],
					"stateMutability": "view",
					"type": "function"
				},
				{
					"inputs": [],
					"name": "getOwner",
					"outputs": [
						{
							"internalType": "address",
							"name": "",
							"type": "address"
						}
					],
					"stateMutability": "view",
					"type": "function"
				},
				{
					"inputs": [],
					"name": "withdraw",
					"outputs": [],
					"stateMutability": "nonpayable",
					"type": "function"
				}
			],
			"devdoc": {
				"kind": "dev",
				"methods": {},
				"version": 1
			},
			"evm": {
				"assembly": "    /* \"Donation.sol\":280:1625  contract Donation {... */\n  mstore(0x40, 0x80)\n    /* \"Donation.sol\":479:770  constructor(string memory name, uint minAmount, bool accept, uint amountNeeded, address owner) {... */\n  callvalue\n  dup1\n  iszero\n  tag_1\n  jumpi\n  0x00\n  dup1\n  revert\ntag_1:\n  pop\n  mload(0x40)\n  sub(codesize, bytecodeSize)\n  dup1\n  bytecodeSize\n  dup4\n  codecopy\n  dup2\n  dup2\n  add\n  0x40\n  mstore\n  dup2\n  add\n  swap1\n  tag_2\n  swap2\n  swap1\n  tag_3\n  jump\t// in\ntag_2:\n    /* \"Donation.sol\":600:604  name */\n  dup5\n    /* \"Donation.sol\":584:597  _donationName */\n  0x00\n    /* \"Donation.sol\":584:604  _donationName = name */\n  swap1\n  dup1\n  mload\n  swap1\n  0x20\n  add\n  swap1\n  tag_6\n  swap3\n  swap2\n  swap1\n  tag_7\n  jump\t// in\ntag_6:\n  pop\n    /* \"Donation.sol\":634:643  minAmount */\n  dup4\n    /* \"Donation.sol\":614:631  donationMinAmount */\n  0x01\n    /* \"Donation.sol\":614:643  donationMinAmount = minAmount */\n  dup2\n  swap1\n  sstore\n  pop\n    /* \"Donation.sol\":683:689  accept */\n  dup3\n    /* \"Donation.sol\":653:680  acceptPaymentAfterAmountMet */\n  0x03\n  0x00\n    /* \"Donation.sol\":653:689  acceptPaymentAfterAmountMet = accept */\n  0x0100\n  exp\n  dup2\n  sload\n  dup2\n  0xff\n  mul\n  not\n  and\n  swap1\n  dup4\n  iszero\n  iszero\n  mul\n  or\n  swap1\n  sstore\n  pop\n    /* \"Donation.sol\":722:734  amountNeeded */\n  dup2\n    /* \"Donation.sol\":699:719  donationAmountNeeded */\n  0x02\n    /* \"Donation.sol\":699:734  donationAmountNeeded = amountNeeded */\n  dup2\n  swap1\n  sstore\n  pop\n    /* \"Donation.sol\":753:763  msg.sender */\n  caller\n    /* \"Donation.sol\":744:750  _owner */\n  0x03\n  0x01\n    /* \"Donation.sol\":744:763  _owner = msg.sender */\n  0x0100\n  exp\n  dup2\n  sload\n  dup2\n  0xffffffffffffffffffffffffffffffffffffffff\n  mul\n  not\n  and\n  swap1\n  dup4\n  0xffffffffffffffffffffffffffffffffffffffff\n  and\n  mul\n  or\n  swap1\n  sstore\n  pop\n    /* \"Donation.sol\":479:770  constructor(string memory name, uint minAmount, bool accept, uint amountNeeded, address owner) {... */\n  pop\n  pop\n  pop\n  pop\n  pop\n    /* \"Donation.sol\":280:1625  contract Donation {... */\n  jump(tag_8)\ntag_7:\n  dup3\n  dup1\n  sload\n  tag_9\n  swap1\n  tag_10\n  jump\t// in\ntag_9:\n  swap1\n  0x00\n  mstore\n  keccak256(0x00, 0x20)\n  swap1\n  0x1f\n  add\n  0x20\n  swap1\n  div\n  dup2\n  add\n  swap3\n  dup3\n  tag_12\n  jumpi\n  0x00\n  dup6\n  sstore\n  jump(tag_11)\ntag_12:\n  dup3\n  0x1f\n  lt\n  tag_13\n  jumpi\n  dup1\n  mload\n  not(0xff)\n  and\n  dup4\n  dup1\n  add\n  or\n  dup6\n  sstore\n  jump(tag_11)\ntag_13:\n  dup3\n  dup1\n  add\n  0x01\n  add\n  dup6\n  sstore\n  dup3\n  iszero\n  tag_11\n  jumpi\n  swap2\n  dup3\n  add\ntag_14:\n  dup3\n  dup2\n  gt\n  iszero\n  tag_15\n  jumpi\n  dup3\n  mload\n  dup3\n  sstore\n  swap2\n  0x20\n  add\n  swap2\n  swap1\n  0x01\n  add\n  swap1\n  jump(tag_14)\ntag_15:\ntag_11:\n  pop\n  swap1\n  pop\n  tag_16\n  swap2\n  swap1\n  tag_17\n  jump\t// in\ntag_16:\n  pop\n  swap1\n  jump\t// out\ntag_17:\ntag_18:\n  dup1\n  dup3\n  gt\n  iszero\n  tag_19\n  jumpi\n  0x00\n  dup2\n  0x00\n  swap1\n  sstore\n  pop\n  0x01\n  add\n  jump(tag_18)\ntag_19:\n  pop\n  swap1\n  jump\t// out\n    /* \"#utility.yul\":7:428   */\ntag_21:\n    /* \"#utility.yul\":96:101   */\n  0x00\n    /* \"#utility.yul\":121:187   */\n  tag_23\n    /* \"#utility.yul\":137:186   */\n  tag_24\n    /* \"#utility.yul\":179:185   */\n  dup5\n    /* \"#utility.yul\":137:186   */\n  tag_25\n  jump\t// in\ntag_24:\n    /* \"#utility.yul\":121:187   */\n  tag_26\n  jump\t// in\ntag_23:\n    /* \"#utility.yul\":112:187   */\n  swap1\n  pop\n    /* \"#utility.yul\":210:216   */\n  dup3\n    /* \"#utility.yul\":203:208   */\n  dup2\n    /* \"#utility.yul\":196:217   */\n  mstore\n    /* \"#utility.yul\":248:252   */\n  0x20\n    /* \"#utility.yul\":241:246   */\n  dup2\n    /* \"#utility.yul\":237:253   */\n  add\n    /* \"#utility.yul\":286:289   */\n  dup5\n    /* \"#utility.yul\":277:283   */\n  dup5\n    /* \"#utility.yul\":272:275   */\n  dup5\n    /* \"#utility.yul\":268:284   */\n  add\n    /* \"#utility.yul\":265:290   */\n  gt\n    /* \"#utility.yul\":262:374   */\n  iszero\n  tag_27\n  jumpi\n    /* \"#utility.yul\":293:372   */\n  tag_28\n  tag_29\n  jump\t// in\ntag_28:\n    /* \"#utility.yul\":262:374   */\ntag_27:\n    /* \"#utility.yul\":383:422   */\n  tag_30\n    /* \"#utility.yul\":415:421   */\n  dup5\n    /* \"#utility.yul\":410:413   */\n  dup3\n    /* \"#utility.yul\":405:408   */\n  dup6\n    /* \"#utility.yul\":383:422   */\n  tag_31\n  jump\t// in\ntag_30:\n    /* \"#utility.yul\":102:428   */\n  pop\n    /* \"#utility.yul\":7:428   */\n  swap4\n  swap3\n  pop\n  pop\n  pop\n  jump\t// out\n    /* \"#utility.yul\":434:577   */\ntag_32:\n    /* \"#utility.yul\":491:496   */\n  0x00\n    /* \"#utility.yul\":522:528   */\n  dup2\n    /* \"#utility.yul\":516:529   */\n  mload\n    /* \"#utility.yul\":507:529   */\n  swap1\n  pop\n    /* \"#utility.yul\":538:571   */\n  tag_34\n    /* \"#utility.yul\":565:570   */\n  dup2\n    /* \"#utility.yul\":538:571   */\n  tag_35\n  jump\t// in\ntag_34:\n    /* \"#utility.yul\":434:577   */\n  swap3\n  swap2\n  pop\n  pop\n  jump\t// out\n    /* \"#utility.yul\":583:720   */\ntag_36:\n    /* \"#utility.yul\":637:642   */\n  0x00\n    /* \"#utility.yul\":668:674   */\n  dup2\n    /* \"#utility.yul\":662:675   */\n  mload\n    /* \"#utility.yul\":653:675   */\n  swap1\n  pop\n    /* \"#utility.yul\":684:714   */\n  tag_38\n    /* \"#utility.yul\":708:713   */\n  dup2\n    /* \"#utility.yul\":684:714   */\n  tag_39\n  jump\t// in\ntag_38:\n    /* \"#utility.yul\":583:720   */\n  swap3\n  swap2\n  pop\n  pop\n  jump\t// out\n    /* \"#utility.yul\":740:1095   */\ntag_40:\n    /* \"#utility.yul\":807:812   */\n  0x00\n    /* \"#utility.yul\":856:859   */\n  dup3\n    /* \"#utility.yul\":849:853   */\n  0x1f\n    /* \"#utility.yul\":841:847   */\n  dup4\n    /* \"#utility.yul\":837:854   */\n  add\n    /* \"#utility.yul\":833:860   */\n  slt\n    /* \"#utility.yul\":823:945   */\n  tag_42\n  jumpi\n    /* \"#utility.yul\":864:943   */\n  tag_43\n  tag_44\n  jump\t// in\ntag_43:\n    /* \"#utility.yul\":823:945   */\ntag_42:\n    /* \"#utility.yul\":974:980   */\n  dup2\n    /* \"#utility.yul\":968:981   */\n  mload\n    /* \"#utility.yul\":999:1089   */\n  tag_45\n    /* \"#utility.yul\":1085:1088   */\n  dup5\n    /* \"#utility.yul\":1077:1083   */\n  dup3\n    /* \"#utility.yul\":1070:1074   */\n  0x20\n    /* \"#utility.yul\":1062:1068   */\n  dup7\n    /* \"#utility.yul\":1058:1075   */\n  add\n    /* \"#utility.yul\":999:1089   */\n  tag_21\n  jump\t// in\ntag_45:\n    /* \"#utility.yul\":990:1089   */\n  swap2\n  pop\n    /* \"#utility.yul\":813:1095   */\n  pop\n    /* \"#utility.yul\":740:1095   */\n  swap3\n  swap2\n  pop\n  pop\n  jump\t// out\n    /* \"#utility.yul\":1101:1244   */\ntag_46:\n    /* \"#utility.yul\":1158:1163   */\n  0x00\n    /* \"#utility.yul\":1189:1195   */\n  dup2\n    /* \"#utility.yul\":1183:1196   */\n  mload\n    /* \"#utility.yul\":1174:1196   */\n  swap1\n  pop\n    /* \"#utility.yul\":1205:1238   */\n  tag_48\n    /* \"#utility.yul\":1232:1237   */\n  dup2\n    /* \"#utility.yul\":1205:1238   */\n  tag_49\n  jump\t// in\ntag_48:\n    /* \"#utility.yul\":1101:1244   */\n  swap3\n  swap2\n  pop\n  pop\n  jump\t// out\n    /* \"#utility.yul\":1250:2394   */\ntag_3:\n    /* \"#utility.yul\":1363:1369   */\n  0x00\n    /* \"#utility.yul\":1371:1377   */\n  dup1\n    /* \"#utility.yul\":1379:1385   */\n  0x00\n    /* \"#utility.yul\":1387:1393   */\n  dup1\n    /* \"#utility.yul\":1395:1401   */\n  0x00\n    /* \"#utility.yul\":1444:1447   */\n  0xa0\n    /* \"#utility.yul\":1432:1441   */\n  dup7\n    /* \"#utility.yul\":1423:1430   */\n  dup9\n    /* \"#utility.yul\":1419:1442   */\n  sub\n    /* \"#utility.yul\":1415:1448   */\n  slt\n    /* \"#utility.yul\":1412:1532   */\n  iszero\n  tag_51\n  jumpi\n    /* \"#utility.yul\":1451:1530   */\n  tag_52\n  tag_53\n  jump\t// in\ntag_52:\n    /* \"#utility.yul\":1412:1532   */\ntag_51:\n    /* \"#utility.yul\":1592:1593   */\n  0x00\n    /* \"#utility.yul\":1581:1590   */\n  dup7\n    /* \"#utility.yul\":1577:1594   */\n  add\n    /* \"#utility.yul\":1571:1595   */\n  mload\n    /* \"#utility.yul\":1622:1640   */\n  0xffffffffffffffff\n    /* \"#utility.yul\":1614:1620   */\n  dup2\n    /* \"#utility.yul\":1611:1641   */\n  gt\n    /* \"#utility.yul\":1608:1725   */\n  iszero\n  tag_54\n  jumpi\n    /* \"#utility.yul\":1644:1723   */\n  tag_55\n  tag_56\n  jump\t// in\ntag_55:\n    /* \"#utility.yul\":1608:1725   */\ntag_54:\n    /* \"#utility.yul\":1749:1823   */\n  tag_57\n    /* \"#utility.yul\":1815:1822   */\n  dup9\n    /* \"#utility.yul\":1806:1812   */\n  dup3\n    /* \"#utility.yul\":1795:1804   */\n  dup10\n    /* \"#utility.yul\":1791:1813   */\n  add\n    /* \"#utility.yul\":1749:1823   */\n  tag_40\n  jump\t// in\ntag_57:\n    /* \"#utility.yul\":1739:1823   */\n  swap6\n  pop\n    /* \"#utility.yul\":1542:1833   */\n  pop\n    /* \"#utility.yul\":1872:1874   */\n  0x20\n    /* \"#utility.yul\":1898:1962   */\n  tag_58\n    /* \"#utility.yul\":1954:1961   */\n  dup9\n    /* \"#utility.yul\":1945:1951   */\n  dup3\n    /* \"#utility.yul\":1934:1943   */\n  dup10\n    /* \"#utility.yul\":1930:1952   */\n  add\n    /* \"#utility.yul\":1898:1962   */\n  tag_46\n  jump\t// in\ntag_58:\n    /* \"#utility.yul\":1888:1962   */\n  swap5\n  pop\n    /* \"#utility.yul\":1843:1972   */\n  pop\n    /* \"#utility.yul\":2011:2013   */\n  0x40\n    /* \"#utility.yul\":2037:2098   */\n  tag_59\n    /* \"#utility.yul\":2090:2097   */\n  dup9\n    /* \"#utility.yul\":2081:2087   */\n  dup3\n    /* \"#utility.yul\":2070:2079   */\n  dup10\n    /* \"#utility.yul\":2066:2088   */\n  add\n    /* \"#utility.yul\":2037:2098   */\n  tag_36\n  jump\t// in\ntag_59:\n    /* \"#utility.yul\":2027:2098   */\n  swap4\n  pop\n    /* \"#utility.yul\":1982:2108   */\n  pop\n    /* \"#utility.yul\":2147:2149   */\n  0x60\n    /* \"#utility.yul\":2173:2237   */\n  tag_60\n    /* \"#utility.yul\":2229:2236   */\n  dup9\n    /* \"#utility.yul\":2220:2226   */\n  dup3\n    /* \"#utility.yul\":2209:2218   */\n  dup10\n    /* \"#utility.yul\":2205:2227   */\n  add\n    /* \"#utility.yul\":2173:2237   */\n  tag_46\n  jump\t// in\ntag_60:\n    /* \"#utility.yul\":2163:2237   */\n  swap3\n  pop\n    /* \"#utility.yul\":2118:2247   */\n  pop\n    /* \"#utility.yul\":2286:2289   */\n  0x80\n    /* \"#utility.yul\":2313:2377   */\n  tag_61\n    /* \"#utility.yul\":2369:2376   */\n  dup9\n    /* \"#utility.yul\":2360:2366   */\n  dup3\n    /* \"#utility.yul\":2349:2358   */\n  dup10\n    /* \"#utility.yul\":2345:2367   */\n  add\n    /* \"#utility.yul\":2313:2377   */\n  tag_32\n  jump\t// in\ntag_61:\n    /* \"#utility.yul\":2303:2377   */\n  swap2\n  pop\n    /* \"#utility.yul\":2257:2387   */\n  pop\n    /* \"#utility.yul\":1250:2394   */\n  swap3\n  swap6\n  pop\n  swap3\n  swap6\n  swap1\n  swap4\n  pop\n  jump\t// out\n    /* \"#utility.yul\":2400:2529   */\ntag_26:\n    /* \"#utility.yul\":2434:2440   */\n  0x00\n    /* \"#utility.yul\":2461:2481   */\n  tag_63\n  tag_64\n  jump\t// in\ntag_63:\n    /* \"#utility.yul\":2451:2481   */\n  swap1\n  pop\n    /* \"#utility.yul\":2490:2523   */\n  tag_65\n    /* \"#utility.yul\":2518:2522   */\n  dup3\n    /* \"#utility.yul\":2510:2516   */\n  dup3\n    /* \"#utility.yul\":2490:2523   */\n  tag_66\n  jump\t// in\ntag_65:\n    /* \"#utility.yul\":2400:2529   */\n  swap2\n  swap1\n  pop\n  jump\t// out\n    /* \"#utility.yul\":2535:2610   */\ntag_64:\n    /* \"#utility.yul\":2568:2574   */\n  0x00\n    /* \"#utility.yul\":2601:2603   */\n  0x40\n    /* \"#utility.yul\":2595:2604   */\n  mload\n    /* \"#utility.yul\":2585:2604   */\n  swap1\n  pop\n    /* \"#utility.yul\":2535:2610   */\n  swap1\n  jump\t// out\n    /* \"#utility.yul\":2616:2924   */\ntag_25:\n    /* \"#utility.yul\":2678:2682   */\n  0x00\n    /* \"#utility.yul\":2768:2786   */\n  0xffffffffffffffff\n    /* \"#utility.yul\":2760:2766   */\n  dup3\n    /* \"#utility.yul\":2757:2787   */\n  gt\n    /* \"#utility.yul\":2754:2810   */\n  iszero\n  tag_69\n  jumpi\n    /* \"#utility.yul\":2790:2808   */\n  tag_70\n  tag_71\n  jump\t// in\ntag_70:\n    /* \"#utility.yul\":2754:2810   */\ntag_69:\n    /* \"#utility.yul\":2828:2857   */\n  tag_72\n    /* \"#utility.yul\":2850:2856   */\n  dup3\n    /* \"#utility.yul\":2828:2857   */\n  tag_73\n  jump\t// in\ntag_72:\n    /* \"#utility.yul\":2820:2857   */\n  swap1\n  pop\n    /* \"#utility.yul\":2912:2916   */\n  0x20\n    /* \"#utility.yul\":2906:2910   */\n  dup2\n    /* \"#utility.yul\":2902:2917   */\n  add\n    /* \"#utility.yul\":2894:2917   */\n  swap1\n  pop\n    /* \"#utility.yul\":2616:2924   */\n  swap2\n  swap1\n  pop\n  jump\t// out\n    /* \"#utility.yul\":2930:3026   */\ntag_74:\n    /* \"#utility.yul\":2967:2974   */\n  0x00\n    /* \"#utility.yul\":2996:3020   */\n  tag_76\n    /* \"#utility.yul\":3014:3019   */\n  dup3\n    /* \"#utility.yul\":2996:3020   */\n  tag_77\n  jump\t// in\ntag_76:\n    /* \"#utility.yul\":2985:3020   */\n  swap1\n  pop\n    /* \"#utility.yul\":2930:3026   */\n  swap2\n  swap1\n  pop\n  jump\t// out\n    /* \"#utility.yul\":3032:3122   */\ntag_78:\n    /* \"#utility.yul\":3066:3073   */\n  0x00\n    /* \"#utility.yul\":3109:3114   */\n  dup2\n    /* \"#utility.yul\":3102:3115   */\n  iszero\n    /* \"#utility.yul\":3095:3116   */\n  iszero\n    /* \"#utility.yul\":3084:3116   */\n  swap1\n  pop\n    /* \"#utility.yul\":3032:3122   */\n  swap2\n  swap1\n  pop\n  jump\t// out\n    /* \"#utility.yul\":3128:3254   */\ntag_77:\n    /* \"#utility.yul\":3165:3172   */\n  0x00\n    /* \"#utility.yul\":3205:3247   */\n  0xffffffffffffffffffffffffffffffffffffffff\n    /* \"#utility.yul\":3198:3203   */\n  dup3\n    /* \"#utility.yul\":3194:3248   */\n  and\n    /* \"#utility.yul\":3183:3248   */\n  swap1\n  pop\n    /* \"#utility.yul\":3128:3254   */\n  swap2\n  swap1\n  pop\n  jump\t// out\n    /* \"#utility.yul\":3260:3337   */\ntag_81:\n    /* \"#utility.yul\":3297:3304   */\n  0x00\n    /* \"#utility.yul\":3326:3331   */\n  dup2\n    /* \"#utility.yul\":3315:3331   */\n  swap1\n  pop\n    /* \"#utility.yul\":3260:3337   */\n  swap2\n  swap1\n  pop\n  jump\t// out\n    /* \"#utility.yul\":3343:3650   */\ntag_31:\n    /* \"#utility.yul\":3411:3412   */\n  0x00\n    /* \"#utility.yul\":3421:3534   */\ntag_84:\n    /* \"#utility.yul\":3435:3441   */\n  dup4\n    /* \"#utility.yul\":3432:3433   */\n  dup2\n    /* \"#utility.yul\":3429:3442   */\n  lt\n    /* \"#utility.yul\":3421:3534   */\n  iszero\n  tag_86\n  jumpi\n    /* \"#utility.yul\":3520:3521   */\n  dup1\n    /* \"#utility.yul\":3515:3518   */\n  dup3\n    /* \"#utility.yul\":3511:3522   */\n  add\n    /* \"#utility.yul\":3505:3523   */\n  mload\n    /* \"#utility.yul\":3501:3502   */\n  dup2\n    /* \"#utility.yul\":3496:3499   */\n  dup5\n    /* \"#utility.yul\":3492:3503   */\n  add\n    /* \"#utility.yul\":3485:3524   */\n  mstore\n    /* \"#utility.yul\":3457:3459   */\n  0x20\n    /* \"#utility.yul\":3454:3455   */\n  dup2\n    /* \"#utility.yul\":3450:3460   */\n  add\n    /* \"#utility.yul\":3445:3460   */\n  swap1\n  pop\n    /* \"#utility.yul\":3421:3534   */\n  jump(tag_84)\ntag_86:\n    /* \"#utility.yul\":3552:3558   */\n  dup4\n    /* \"#utility.yul\":3549:3550   */\n  dup2\n    /* \"#utility.yul\":3546:3559   */\n  gt\n    /* \"#utility.yul\":3543:3644   */\n  iszero\n  tag_87\n  jumpi\n    /* \"#utility.yul\":3632:3633   */\n  0x00\n    /* \"#utility.yul\":3623:3629   */\n  dup5\n    /* \"#utility.yul\":3618:3621   */\n  dup5\n    /* \"#utility.yul\":3614:3630   */\n  add\n    /* \"#utility.yul\":3607:3634   */\n  mstore\n    /* \"#utility.yul\":3543:3644   */\ntag_87:\n    /* \"#utility.yul\":3392:3650   */\n  pop\n    /* \"#utility.yul\":3343:3650   */\n  pop\n  pop\n  pop\n  jump\t// out\n    /* \"#utility.yul\":3656:3976   */\ntag_10:\n    /* \"#utility.yul\":3700:3706   */\n  0x00\n    /* \"#utility.yul\":3737:3738   */\n  0x02\n    /* \"#utility.yul\":3731:3735   */\n  dup3\n    /* \"#utility.yul\":3727:3739   */\n  div\n    /* \"#utility.yul\":3717:3739   */\n  swap1\n  pop\n    /* \"#utility.yul\":3784:3785   */\n  0x01\n    /* \"#utility.yul\":3778:3782   */\n  dup3\n    /* \"#utility.yul\":3774:3786   */\n  and\n    /* \"#utility.yul\":3805:3823   */\n  dup1\n    /* \"#utility.yul\":3795:3876   */\n  tag_89\n  jumpi\n    /* \"#utility.yul\":3861:3865   */\n  0x7f\n    /* \"#utility.yul\":3853:3859   */\n  dup3\n    /* \"#utility.yul\":3849:3866   */\n  and\n    /* \"#utility.yul\":3839:3866   */\n  swap2\n  pop\n    /* \"#utility.yul\":3795:3876   */\ntag_89:\n    /* \"#utility.yul\":3923:3925   */\n  0x20\n    /* \"#utility.yul\":3915:3921   */\n  dup3\n    /* \"#utility.yul\":3912:3926   */\n  lt\n    /* \"#utility.yul\":3892:3910   */\n  dup2\n    /* \"#utility.yul\":3889:3927   */\n  eq\n    /* \"#utility.yul\":3886:3970   */\n  iszero\n  tag_90\n  jumpi\n    /* \"#utility.yul\":3942:3960   */\n  tag_91\n  tag_92\n  jump\t// in\ntag_91:\n    /* \"#utility.yul\":3886:3970   */\ntag_90:\n    /* \"#utility.yul\":3707:3976   */\n  pop\n    /* \"#utility.yul\":3656:3976   */\n  swap2\n  swap1\n  pop\n  jump\t// out\n    /* \"#utility.yul\":3982:4263   */\ntag_66:\n    /* \"#utility.yul\":4065:4092   */\n  tag_94\n    /* \"#utility.yul\":4087:4091   */\n  dup3\n    /* \"#utility.yul\":4065:4092   */\n  tag_73\n  jump\t// in\ntag_94:\n    /* \"#utility.yul\":4057:4063   */\n  dup2\n    /* \"#utility.yul\":4053:4093   */\n  add\n    /* \"#utility.yul\":4195:4201   */\n  dup2\n    /* \"#utility.yul\":4183:4193   */\n  dup2\n    /* \"#utility.yul\":4180:4202   */\n  lt\n    /* \"#utility.yul\":4159:4177   */\n  0xffffffffffffffff\n    /* \"#utility.yul\":4147:4157   */\n  dup3\n    /* \"#utility.yul\":4144:4178   */\n  gt\n    /* \"#utility.yul\":4141:4203   */\n  or\n    /* \"#utility.yul\":4138:4226   */\n  iszero\n  tag_95\n  jumpi\n    /* \"#utility.yul\":4206:4224   */\n  tag_96\n  tag_71\n  jump\t// in\ntag_96:\n    /* \"#utility.yul\":4138:4226   */\ntag_95:\n    /* \"#utility.yul\":4246:4256   */\n  dup1\n    /* \"#utility.yul\":4242:4244   */\n  0x40\n    /* \"#utility.yul\":4235:4257   */\n  mstore\n    /* \"#utility.yul\":4025:4263   */\n  pop\n    /* \"#utility.yul\":3982:4263   */\n  pop\n  pop\n  jump\t// out\n    /* \"#utility.yul\":4269:4449   */\ntag_92:\n    /* \"#utility.yul\":4317:4394   */\n  0x4e487b7100000000000000000000000000000000000000000000000000000000\n    /* \"#utility.yul\":4314:4315   */\n  0x00\n    /* \"#utility.yul\":4307:4395   */\n  mstore\n    /* \"#utility.yul\":4414:4418   */\n  0x22\n    /* \"#utility.yul\":4411:4412   */\n  0x04\n    /* \"#utility.yul\":4404:4419   */\n  mstore\n    /* \"#utility.yul\":4438:4442   */\n  0x24\n    /* \"#utility.yul\":4435:4436   */\n  0x00\n    /* \"#utility.yul\":4428:4443   */\n  revert\n    /* \"#utility.yul\":4455:4635   */\ntag_71:\n    /* \"#utility.yul\":4503:4580   */\n  0x4e487b7100000000000000000000000000000000000000000000000000000000\n    /* \"#utility.yul\":4500:4501   */\n  0x00\n    /* \"#utility.yul\":4493:4581   */\n  mstore\n    /* \"#utility.yul\":4600:4604   */\n  0x41\n    /* \"#utility.yul\":4597:4598   */\n  0x04\n    /* \"#utility.yul\":4590:4605   */\n  mstore\n    /* \"#utility.yul\":4624:4628   */\n  0x24\n    /* \"#utility.yul\":4621:4622   */\n  0x00\n    /* \"#utility.yul\":4614:4629   */\n  revert\n    /* \"#utility.yul\":4641:4758   */\ntag_44:\n    /* \"#utility.yul\":4750:4751   */\n  0x00\n    /* \"#utility.yul\":4747:4748   */\n  dup1\n    /* \"#utility.yul\":4740:4752   */\n  revert\n    /* \"#utility.yul\":4764:4881   */\ntag_29:\n    /* \"#utility.yul\":4873:4874   */\n  0x00\n    /* \"#utility.yul\":4870:4871   */\n  dup1\n    /* \"#utility.yul\":4863:4875   */\n  revert\n    /* \"#utility.yul\":4887:5004   */\ntag_56:\n    /* \"#utility.yul\":4996:4997   */\n  0x00\n    /* \"#utility.yul\":4993:4994   */\n  dup1\n    /* \"#utility.yul\":4986:4998   */\n  revert\n    /* \"#utility.yul\":5010:5127   */\ntag_53:\n    /* \"#utility.yul\":5119:5120   */\n  0x00\n    /* \"#utility.yul\":5116:5117   */\n  dup1\n    /* \"#utility.yul\":5109:5121   */\n  revert\n    /* \"#utility.yul\":5133:5235   */\ntag_73:\n    /* \"#utility.yul\":5174:5180   */\n  0x00\n    /* \"#utility.yul\":5225:5227   */\n  0x1f\n    /* \"#utility.yul\":5221:5228   */\n  not\n    /* \"#utility.yul\":5216:5218   */\n  0x1f\n    /* \"#utility.yul\":5209:5214   */\n  dup4\n    /* \"#utility.yul\":5205:5219   */\n  add\n    /* \"#utility.yul\":5201:5229   */\n  and\n    /* \"#utility.yul\":5191:5229   */\n  swap1\n  pop\n    /* \"#utility.yul\":5133:5235   */\n  swap2\n  swap1\n  pop\n  jump\t// out\n    /* \"#utility.yul\":5241:5363   */\ntag_35:\n    /* \"#utility.yul\":5314:5338   */\n  tag_105\n    /* \"#utility.yul\":5332:5337   */\n  dup2\n    /* \"#utility.yul\":5314:5338   */\n  tag_74\n  jump\t// in\ntag_105:\n    /* \"#utility.yul\":5307:5312   */\n  dup2\n    /* \"#utility.yul\":5304:5339   */\n  eq\n    /* \"#utility.yul\":5294:5357   */\n  tag_106\n  jumpi\n    /* \"#utility.yul\":5353:5354   */\n  0x00\n    /* \"#utility.yul\":5350:5351   */\n  dup1\n    /* \"#utility.yul\":5343:5355   */\n  revert\n    /* \"#utility.yul\":5294:5357   */\ntag_106:\n    /* \"#utility.yul\":5241:5363   */\n  pop\n  jump\t// out\n    /* \"#utility.yul\":5369:5485   */\ntag_39:\n    /* \"#utility.yul\":5439:5460   */\n  tag_108\n    /* \"#utility.yul\":5454:5459   */\n  dup2\n    /* \"#utility.yul\":5439:5460   */\n  tag_78\n  jump\t// in\ntag_108:\n    /* \"#utility.yul\":5432:5437   */\n  dup2\n    /* \"#utility.yul\":5429:5461   */\n  eq\n    /* \"#utility.yul\":5419:5479   */\n  tag_109\n  jumpi\n    /* \"#utility.yul\":5475:5476   */\n  0x00\n    /* \"#utility.yul\":5472:5473   */\n  dup1\n    /* \"#utility.yul\":5465:5477   */\n  revert\n    /* \"#utility.yul\":5419:5479   */\ntag_109:\n    /* \"#utility.yul\":5369:5485   */\n  pop\n  jump\t// out\n    /* \"#utility.yul\":5491:5613   */\ntag_49:\n    /* \"#utility.yul\":5564:5588   */\n  tag_111\n    /* \"#utility.yul\":5582:5587   */\n  dup2\n    /* \"#utility.yul\":5564:5588   */\n  tag_81\n  jump\t// in\ntag_111:\n    /* \"#utility.yul\":5557:5562   */\n  dup2\n    /* \"#utility.yul\":5554:5589   */\n  eq\n    /* \"#utility.yul\":5544:5607   */\n  tag_112\n  jumpi\n    /* \"#utility.yul\":5603:5604   */\n  0x00\n    /* \"#utility.yul\":5600:5601   */\n  dup1\n    /* \"#utility.yul\":5593:5605   */\n  revert\n    /* \"#utility.yul\":5544:5607   */\ntag_112:\n    /* \"#utility.yul\":5491:5613   */\n  pop\n  jump\t// out\n    /* \"Donation.sol\":280:1625  contract Donation {... */\ntag_8:\n  dataSize(sub_0)\n  dup1\n  dataOffset(sub_0)\n  0x00\n  codecopy\n  0x00\n  return\nstop\n\nsub_0: assembly {\n        /* \"Donation.sol\":280:1625  contract Donation {... */\n      mstore(0x40, 0x80)\n      jumpi(tag_1, lt(calldatasize, 0x04))\n      shr(0xe0, calldataload(0x00))\n      dup1\n      0x893d20e8\n      gt\n      tag_11\n      jumpi\n      dup1\n      0x893d20e8\n      eq\n      tag_6\n      jumpi\n      dup1\n      0xb383bf2d\n      eq\n      tag_7\n      jumpi\n      dup1\n      0xeae3f764\n      eq\n      tag_8\n      jumpi\n      dup1\n      0xed11f46a\n      eq\n      tag_9\n      jumpi\n      dup1\n      0xed88c68e\n      eq\n      tag_10\n      jumpi\n      jump(tag_1)\n    tag_11:\n      dup1\n      0x354ecc85\n      eq\n      tag_2\n      jumpi\n      dup1\n      0x3ccfd60b\n      eq\n      tag_3\n      jumpi\n      dup1\n      0x798be230\n      eq\n      tag_4\n      jumpi\n      dup1\n      0x80fdef1b\n      eq\n      tag_5\n      jumpi\n    tag_1:\n      0x00\n      dup1\n      revert\n        /* \"Donation.sol\":305:332  string public _donationName */\n    tag_2:\n      callvalue\n      dup1\n      iszero\n      tag_12\n      jumpi\n      0x00\n      dup1\n      revert\n    tag_12:\n      pop\n      tag_13\n      tag_14\n      jump\t// in\n    tag_13:\n      mload(0x40)\n      tag_15\n      swap2\n      swap1\n      tag_16\n      jump\t// in\n    tag_15:\n      mload(0x40)\n      dup1\n      swap2\n      sub\n      swap1\n      return\n        /* \"Donation.sol\":1238:1433  function withdraw() public {... */\n    tag_3:\n      callvalue\n      dup1\n      iszero\n      tag_17\n      jumpi\n      0x00\n      dup1\n      revert\n    tag_17:\n      pop\n      tag_18\n      tag_19\n      jump\t// in\n    tag_18:\n      stop\n        /* \"Donation.sol\":411:450  bool public acceptPaymentAfterAmountMet */\n    tag_4:\n      callvalue\n      dup1\n      iszero\n      tag_20\n      jumpi\n      0x00\n      dup1\n      revert\n    tag_20:\n      pop\n      tag_21\n      tag_22\n      jump\t// in\n    tag_21:\n      mload(0x40)\n      tag_23\n      swap2\n      swap1\n      tag_24\n      jump\t// in\n    tag_23:\n      mload(0x40)\n      dup1\n      swap2\n      sub\n      swap1\n      return\n        /* \"Donation.sol\":373:405  uint public donationAmountNeeded */\n    tag_5:\n      callvalue\n      dup1\n      iszero\n      tag_25\n      jumpi\n      0x00\n      dup1\n      revert\n    tag_25:\n      pop\n      tag_26\n      tag_27\n      jump\t// in\n    tag_26:\n      mload(0x40)\n      tag_28\n      swap2\n      swap1\n      tag_29\n      jump\t// in\n    tag_28:\n      mload(0x40)\n      dup1\n      swap2\n      sub\n      swap1\n      return\n        /* \"Donation.sol\":1544:1623  function getOwner() public view returns(address) {... */\n    tag_6:\n      callvalue\n      dup1\n      iszero\n      tag_30\n      jumpi\n      0x00\n      dup1\n      revert\n    tag_30:\n      pop\n      tag_31\n      tag_32\n      jump\t// in\n    tag_31:\n      mload(0x40)\n      tag_33\n      swap2\n      swap1\n      tag_34\n      jump\t// in\n    tag_33:\n      mload(0x40)\n      dup1\n      swap2\n      sub\n      swap1\n      return\n        /* \"Donation.sol\":338:367  uint public donationMinAmount */\n    tag_7:\n      callvalue\n      dup1\n      iszero\n      tag_35\n      jumpi\n      0x00\n      dup1\n      revert\n    tag_35:\n      pop\n      tag_36\n      tag_37\n      jump\t// in\n    tag_36:\n      mload(0x40)\n      tag_38\n      swap2\n      swap1\n      tag_29\n      jump\t// in\n    tag_38:\n      mload(0x40)\n      dup1\n      swap2\n      sub\n      swap1\n      return\n        /* \"Donation.sol\":1439:1538  function getDonationName() public view returns (string memory){... */\n    tag_8:\n      callvalue\n      dup1\n      iszero\n      tag_39\n      jumpi\n      0x00\n      dup1\n      revert\n    tag_39:\n      pop\n      tag_40\n      tag_41\n      jump\t// in\n    tag_40:\n      mload(0x40)\n      tag_42\n      swap2\n      swap1\n      tag_16\n      jump\t// in\n    tag_42:\n      mload(0x40)\n      dup1\n      swap2\n      sub\n      swap1\n      return\n        /* \"Donation.sol\":1131:1232  function donationBalance() view external returns (uint) {... */\n    tag_9:\n      callvalue\n      dup1\n      iszero\n      tag_43\n      jumpi\n      0x00\n      dup1\n      revert\n    tag_43:\n      pop\n      tag_44\n      tag_45\n      jump\t// in\n    tag_44:\n      mload(0x40)\n      tag_46\n      swap2\n      swap1\n      tag_29\n      jump\t// in\n    tag_46:\n      mload(0x40)\n      dup1\n      swap2\n      sub\n      swap1\n      return\n        /* \"Donation.sol\":777:1125  function donate() payable external {... */\n    tag_10:\n      tag_47\n      tag_48\n      jump\t// in\n    tag_47:\n      stop\n        /* \"Donation.sol\":305:332  string public _donationName */\n    tag_14:\n      0x00\n      dup1\n      sload\n      tag_49\n      swap1\n      tag_50\n      jump\t// in\n    tag_49:\n      dup1\n      0x1f\n      add\n      0x20\n      dup1\n      swap2\n      div\n      mul\n      0x20\n      add\n      mload(0x40)\n      swap1\n      dup2\n      add\n      0x40\n      mstore\n      dup1\n      swap3\n      swap2\n      swap1\n      dup2\n      dup2\n      mstore\n      0x20\n      add\n      dup3\n      dup1\n      sload\n      tag_51\n      swap1\n      tag_50\n      jump\t// in\n    tag_51:\n      dup1\n      iszero\n      tag_52\n      jumpi\n      dup1\n      0x1f\n      lt\n      tag_53\n      jumpi\n      0x0100\n      dup1\n      dup4\n      sload\n      div\n      mul\n      dup4\n      mstore\n      swap2\n      0x20\n      add\n      swap2\n      jump(tag_52)\n    tag_53:\n      dup3\n      add\n      swap2\n      swap1\n      0x00\n      mstore\n      keccak256(0x00, 0x20)\n      swap1\n    tag_54:\n      dup2\n      sload\n      dup2\n      mstore\n      swap1\n      0x01\n      add\n      swap1\n      0x20\n      add\n      dup1\n      dup4\n      gt\n      tag_54\n      jumpi\n      dup3\n      swap1\n      sub\n      0x1f\n      and\n      dup3\n      add\n      swap2\n    tag_52:\n      pop\n      pop\n      pop\n      pop\n      pop\n      dup2\n      jump\t// out\n        /* \"Donation.sol\":1238:1433  function withdraw() public {... */\n    tag_19:\n        /* \"Donation.sol\":1293:1303  msg.sender */\n      caller\n        /* \"Donation.sol\":1283:1303  _owner == msg.sender */\n      0xffffffffffffffffffffffffffffffffffffffff\n      and\n        /* \"Donation.sol\":1283:1289  _owner */\n      0x03\n      0x01\n      swap1\n      sload\n      swap1\n      0x0100\n      exp\n      swap1\n      div\n      0xffffffffffffffffffffffffffffffffffffffff\n      and\n        /* \"Donation.sol\":1283:1303  _owner == msg.sender */\n      0xffffffffffffffffffffffffffffffffffffffff\n      and\n      eq\n        /* \"Donation.sol\":1275:1356  require(_owner == msg.sender, \"Only owner of this donation can withdraw from it\") */\n      tag_56\n      jumpi\n      mload(0x40)\n      0x08c379a000000000000000000000000000000000000000000000000000000000\n      dup2\n      mstore\n      0x04\n      add\n      tag_57\n      swap1\n      tag_58\n      jump\t// in\n    tag_57:\n      mload(0x40)\n      dup1\n      swap2\n      sub\n      swap1\n      revert\n    tag_56:\n        /* \"Donation.sol\":1374:1384  msg.sender */\n      caller\n        /* \"Donation.sol\":1366:1390  payable(msg.sender).call */\n      0xffffffffffffffffffffffffffffffffffffffff\n      and\n        /* \"Donation.sol\":1399:1420  address(this).balance */\n      selfbalance\n        /* \"Donation.sol\":1366:1426  payable(msg.sender).call{value: (address(this).balance)}(\"\") */\n      mload(0x40)\n      tag_59\n      swap1\n      tag_60\n      jump\t// in\n    tag_59:\n      0x00\n      mload(0x40)\n      dup1\n      dup4\n      sub\n      dup2\n      dup6\n      dup8\n      gas\n      call\n      swap3\n      pop\n      pop\n      pop\n      returndatasize\n      dup1\n      0x00\n      dup2\n      eq\n      tag_63\n      jumpi\n      mload(0x40)\n      swap2\n      pop\n      and(add(returndatasize, 0x3f), not(0x1f))\n      dup3\n      add\n      0x40\n      mstore\n      returndatasize\n      dup3\n      mstore\n      returndatasize\n      0x00\n      0x20\n      dup5\n      add\n      returndatacopy\n      jump(tag_62)\n    tag_63:\n      0x60\n      swap2\n      pop\n    tag_62:\n      pop\n      pop\n      pop\n        /* \"Donation.sol\":1238:1433  function withdraw() public {... */\n      jump\t// out\n        /* \"Donation.sol\":411:450  bool public acceptPaymentAfterAmountMet */\n    tag_22:\n      0x03\n      0x00\n      swap1\n      sload\n      swap1\n      0x0100\n      exp\n      swap1\n      div\n      0xff\n      and\n      dup2\n      jump\t// out\n        /* \"Donation.sol\":373:405  uint public donationAmountNeeded */\n    tag_27:\n      sload(0x02)\n      dup2\n      jump\t// out\n        /* \"Donation.sol\":1544:1623  function getOwner() public view returns(address) {... */\n    tag_32:\n        /* \"Donation.sol\":1584:1591  address */\n      0x00\n        /* \"Donation.sol\":1610:1616  _owner */\n      0x03\n      0x01\n      swap1\n      sload\n      swap1\n      0x0100\n      exp\n      swap1\n      div\n      0xffffffffffffffffffffffffffffffffffffffff\n      and\n        /* \"Donation.sol\":1603:1616  return _owner */\n      swap1\n      pop\n        /* \"Donation.sol\":1544:1623  function getOwner() public view returns(address) {... */\n      swap1\n      jump\t// out\n        /* \"Donation.sol\":338:367  uint public donationMinAmount */\n    tag_37:\n      sload(0x01)\n      dup2\n      jump\t// out\n        /* \"Donation.sol\":1439:1538  function getDonationName() public view returns (string memory){... */\n    tag_41:\n        /* \"Donation.sol\":1487:1500  string memory */\n      0x60\n        /* \"Donation.sol\":1518:1531  _donationName */\n      0x00\n        /* \"Donation.sol\":1511:1531  return _donationName */\n      dup1\n      sload\n      tag_66\n      swap1\n      tag_50\n      jump\t// in\n    tag_66:\n      dup1\n      0x1f\n      add\n      0x20\n      dup1\n      swap2\n      div\n      mul\n      0x20\n      add\n      mload(0x40)\n      swap1\n      dup2\n      add\n      0x40\n      mstore\n      dup1\n      swap3\n      swap2\n      swap1\n      dup2\n      dup2\n      mstore\n      0x20\n      add\n      dup3\n      dup1\n      sload\n      tag_67\n      swap1\n      tag_50\n      jump\t// in\n    tag_67:\n      dup1\n      iszero\n      tag_68\n      jumpi\n      dup1\n      0x1f\n      lt\n      tag_69\n      jumpi\n      0x0100\n      dup1\n      dup4\n      sload\n      div\n      mul\n      dup4\n      mstore\n      swap2\n      0x20\n      add\n      swap2\n      jump(tag_68)\n    tag_69:\n      dup3\n      add\n      swap2\n      swap1\n      0x00\n      mstore\n      keccak256(0x00, 0x20)\n      swap1\n    tag_70:\n      dup2\n      sload\n      dup2\n      mstore\n      swap1\n      0x01\n      add\n      swap1\n      0x20\n      add\n      dup1\n      dup4\n      gt\n      tag_70\n      jumpi\n      dup3\n      swap1\n      sub\n      0x1f\n      and\n      dup3\n      add\n      swap2\n    tag_68:\n      pop\n      pop\n      pop\n      pop\n      pop\n      swap1\n      pop\n        /* \"Donation.sol\":1439:1538  function getDonationName() public view returns (string memory){... */\n      swap1\n      jump\t// out\n        /* \"Donation.sol\":1131:1232  function donationBalance() view external returns (uint) {... */\n    tag_45:\n        /* \"Donation.sol\":1181:1185  uint */\n      0x00\n        /* \"Donation.sol\":1204:1225  address(this).balance */\n      selfbalance\n        /* \"Donation.sol\":1197:1225  return address(this).balance */\n      swap1\n      pop\n        /* \"Donation.sol\":1131:1232  function donationBalance() view external returns (uint) {... */\n      swap1\n      jump\t// out\n        /* \"Donation.sol\":777:1125  function donate() payable external {... */\n    tag_48:\n        /* \"Donation.sol\":843:860  donationMinAmount */\n      sload(0x01)\n        /* \"Donation.sol\":830:839  msg.value */\n      callvalue\n        /* \"Donation.sol\":830:860  msg.value >= donationMinAmount */\n      lt\n      iszero\n        /* \"Donation.sol\":822:902  require(msg.value >= donationMinAmount, \"You cannot donate below ${_minAmount}\") */\n      tag_73\n      jumpi\n      mload(0x40)\n      0x08c379a000000000000000000000000000000000000000000000000000000000\n      dup2\n      mstore\n      0x04\n      add\n      tag_74\n      swap1\n      tag_75\n      jump\t// in\n    tag_74:\n      mload(0x40)\n      dup1\n      swap2\n      sub\n      swap1\n      revert\n    tag_73:\n        /* \"Donation.sol\":917:944  acceptPaymentAfterAmountMet */\n      0x03\n      0x00\n      swap1\n      sload\n      swap1\n      0x0100\n      exp\n      swap1\n      div\n      0xff\n      and\n        /* \"Donation.sol\":912:1119  if (!acceptPaymentAfterAmountMet) {... */\n      tag_76\n      jumpi\n        /* \"Donation.sol\":960:972  uint balance */\n      0x00\n        /* \"Donation.sol\":975:996  address(this).balance */\n      selfbalance\n        /* \"Donation.sol\":960:996  uint balance = address(this).balance */\n      swap1\n      pop\n        /* \"Donation.sol\":1041:1061  donationAmountNeeded */\n      sload(0x02)\n        /* \"Donation.sol\":1028:1037  msg.value */\n      callvalue\n        /* \"Donation.sol\":1018:1025  balance */\n      dup3\n        /* \"Donation.sol\":1018:1037  balance + msg.value */\n      tag_77\n      swap2\n      swap1\n      tag_78\n      jump\t// in\n    tag_77:\n        /* \"Donation.sol\":1018:1061  balance + msg.value <= donationAmountNeeded */\n      gt\n      iszero\n        /* \"Donation.sol\":1010:1108  require(balance + msg.value <= donationAmountNeeded, \"Your donation will cross the amount needed\") */\n      tag_79\n      jumpi\n      mload(0x40)\n      0x08c379a000000000000000000000000000000000000000000000000000000000\n      dup2\n      mstore\n      0x04\n      add\n      tag_80\n      swap1\n      tag_81\n      jump\t// in\n    tag_80:\n      mload(0x40)\n      dup1\n      swap2\n      sub\n      swap1\n      revert\n    tag_79:\n        /* \"Donation.sol\":946:1119  {... */\n      pop\n        /* \"Donation.sol\":912:1119  if (!acceptPaymentAfterAmountMet) {... */\n    tag_76:\n        /* \"Donation.sol\":777:1125  function donate() payable external {... */\n      jump\t// out\n        /* \"#utility.yul\":7:125   */\n    tag_83:\n        /* \"#utility.yul\":94:118   */\n      tag_85\n        /* \"#utility.yul\":112:117   */\n      dup2\n        /* \"#utility.yul\":94:118   */\n      tag_86\n      jump\t// in\n    tag_85:\n        /* \"#utility.yul\":89:92   */\n      dup3\n        /* \"#utility.yul\":82:119   */\n      mstore\n        /* \"#utility.yul\":7:125   */\n      pop\n      pop\n      jump\t// out\n        /* \"#utility.yul\":131:240   */\n    tag_87:\n        /* \"#utility.yul\":212:233   */\n      tag_89\n        /* \"#utility.yul\":227:232   */\n      dup2\n        /* \"#utility.yul\":212:233   */\n      tag_90\n      jump\t// in\n    tag_89:\n        /* \"#utility.yul\":207:210   */\n      dup3\n        /* \"#utility.yul\":200:234   */\n      mstore\n        /* \"#utility.yul\":131:240   */\n      pop\n      pop\n      jump\t// out\n        /* \"#utility.yul\":246:610   */\n    tag_91:\n        /* \"#utility.yul\":334:337   */\n      0x00\n        /* \"#utility.yul\":362:401   */\n      tag_93\n        /* \"#utility.yul\":395:400   */\n      dup3\n        /* \"#utility.yul\":362:401   */\n      tag_94\n      jump\t// in\n    tag_93:\n        /* \"#utility.yul\":417:488   */\n      tag_95\n        /* \"#utility.yul\":481:487   */\n      dup2\n        /* \"#utility.yul\":476:479   */\n      dup6\n        /* \"#utility.yul\":417:488   */\n      tag_96\n      jump\t// in\n    tag_95:\n        /* \"#utility.yul\":410:488   */\n      swap4\n      pop\n        /* \"#utility.yul\":497:549   */\n      tag_97\n        /* \"#utility.yul\":542:548   */\n      dup2\n        /* \"#utility.yul\":537:540   */\n      dup6\n        /* \"#utility.yul\":530:534   */\n      0x20\n        /* \"#utility.yul\":523:528   */\n      dup7\n        /* \"#utility.yul\":519:535   */\n      add\n        /* \"#utility.yul\":497:549   */\n      tag_98\n      jump\t// in\n    tag_97:\n        /* \"#utility.yul\":574:603   */\n      tag_99\n        /* \"#utility.yul\":596:602   */\n      dup2\n        /* \"#utility.yul\":574:603   */\n      tag_100\n      jump\t// in\n    tag_99:\n        /* \"#utility.yul\":569:572   */\n      dup5\n        /* \"#utility.yul\":565:604   */\n      add\n        /* \"#utility.yul\":558:604   */\n      swap2\n      pop\n        /* \"#utility.yul\":338:610   */\n      pop\n        /* \"#utility.yul\":246:610   */\n      swap3\n      swap2\n      pop\n      pop\n      jump\t// out\n        /* \"#utility.yul\":616:982   */\n    tag_101:\n        /* \"#utility.yul\":758:761   */\n      0x00\n        /* \"#utility.yul\":779:846   */\n      tag_103\n        /* \"#utility.yul\":843:845   */\n      0x25\n        /* \"#utility.yul\":838:841   */\n      dup4\n        /* \"#utility.yul\":779:846   */\n      tag_96\n      jump\t// in\n    tag_103:\n        /* \"#utility.yul\":772:846   */\n      swap2\n      pop\n        /* \"#utility.yul\":855:948   */\n      tag_104\n        /* \"#utility.yul\":944:947   */\n      dup3\n        /* \"#utility.yul\":855:948   */\n      tag_105\n      jump\t// in\n    tag_104:\n        /* \"#utility.yul\":973:975   */\n      0x40\n        /* \"#utility.yul\":968:971   */\n      dup3\n        /* \"#utility.yul\":964:976   */\n      add\n        /* \"#utility.yul\":957:976   */\n      swap1\n      pop\n        /* \"#utility.yul\":616:982   */\n      swap2\n      swap1\n      pop\n      jump\t// out\n        /* \"#utility.yul\":988:1354   */\n    tag_106:\n        /* \"#utility.yul\":1130:1133   */\n      0x00\n        /* \"#utility.yul\":1151:1218   */\n      tag_108\n        /* \"#utility.yul\":1215:1217   */\n      0x30\n        /* \"#utility.yul\":1210:1213   */\n      dup4\n        /* \"#utility.yul\":1151:1218   */\n      tag_96\n      jump\t// in\n    tag_108:\n        /* \"#utility.yul\":1144:1218   */\n      swap2\n      pop\n        /* \"#utility.yul\":1227:1320   */\n      tag_109\n        /* \"#utility.yul\":1316:1319   */\n      dup3\n        /* \"#utility.yul\":1227:1320   */\n      tag_110\n      jump\t// in\n    tag_109:\n        /* \"#utility.yul\":1345:1347   */\n      0x40\n        /* \"#utility.yul\":1340:1343   */\n      dup3\n        /* \"#utility.yul\":1336:1348   */\n      add\n        /* \"#utility.yul\":1329:1348   */\n      swap1\n      pop\n        /* \"#utility.yul\":988:1354   */\n      swap2\n      swap1\n      pop\n      jump\t// out\n        /* \"#utility.yul\":1360:1726   */\n    tag_111:\n        /* \"#utility.yul\":1502:1505   */\n      0x00\n        /* \"#utility.yul\":1523:1590   */\n      tag_113\n        /* \"#utility.yul\":1587:1589   */\n      0x2a\n        /* \"#utility.yul\":1582:1585   */\n      dup4\n        /* \"#utility.yul\":1523:1590   */\n      tag_96\n      jump\t// in\n    tag_113:\n        /* \"#utility.yul\":1516:1590   */\n      swap2\n      pop\n        /* \"#utility.yul\":1599:1692   */\n      tag_114\n        /* \"#utility.yul\":1688:1691   */\n      dup3\n        /* \"#utility.yul\":1599:1692   */\n      tag_115\n      jump\t// in\n    tag_114:\n        /* \"#utility.yul\":1717:1719   */\n      0x40\n        /* \"#utility.yul\":1712:1715   */\n      dup3\n        /* \"#utility.yul\":1708:1720   */\n      add\n        /* \"#utility.yul\":1701:1720   */\n      swap1\n      pop\n        /* \"#utility.yul\":1360:1726   */\n      swap2\n      swap1\n      pop\n      jump\t// out\n        /* \"#utility.yul\":1732:2130   */\n    tag_116:\n        /* \"#utility.yul\":1891:1894   */\n      0x00\n        /* \"#utility.yul\":1912:1995   */\n      tag_118\n        /* \"#utility.yul\":1993:1994   */\n      0x00\n        /* \"#utility.yul\":1988:1991   */\n      dup4\n        /* \"#utility.yul\":1912:1995   */\n      tag_119\n      jump\t// in\n    tag_118:\n        /* \"#utility.yul\":1905:1995   */\n      swap2\n      pop\n        /* \"#utility.yul\":2004:2097   */\n      tag_120\n        /* \"#utility.yul\":2093:2096   */\n      dup3\n        /* \"#utility.yul\":2004:2097   */\n      tag_121\n      jump\t// in\n    tag_120:\n        /* \"#utility.yul\":2122:2123   */\n      0x00\n        /* \"#utility.yul\":2117:2120   */\n      dup3\n        /* \"#utility.yul\":2113:2124   */\n      add\n        /* \"#utility.yul\":2106:2124   */\n      swap1\n      pop\n        /* \"#utility.yul\":1732:2130   */\n      swap2\n      swap1\n      pop\n      jump\t// out\n        /* \"#utility.yul\":2136:2254   */\n    tag_122:\n        /* \"#utility.yul\":2223:2247   */\n      tag_124\n        /* \"#utility.yul\":2241:2246   */\n      dup2\n        /* \"#utility.yul\":2223:2247   */\n      tag_125\n      jump\t// in\n    tag_124:\n        /* \"#utility.yul\":2218:2221   */\n      dup3\n        /* \"#utility.yul\":2211:2248   */\n      mstore\n        /* \"#utility.yul\":2136:2254   */\n      pop\n      pop\n      jump\t// out\n        /* \"#utility.yul\":2260:2639   */\n    tag_60:\n        /* \"#utility.yul\":2444:2447   */\n      0x00\n        /* \"#utility.yul\":2466:2613   */\n      tag_127\n        /* \"#utility.yul\":2609:2612   */\n      dup3\n        /* \"#utility.yul\":2466:2613   */\n      tag_116\n      jump\t// in\n    tag_127:\n        /* \"#utility.yul\":2459:2613   */\n      swap2\n      pop\n        /* \"#utility.yul\":2630:2633   */\n      dup2\n        /* \"#utility.yul\":2623:2633   */\n      swap1\n      pop\n        /* \"#utility.yul\":2260:2639   */\n      swap2\n      swap1\n      pop\n      jump\t// out\n        /* \"#utility.yul\":2645:2867   */\n    tag_34:\n        /* \"#utility.yul\":2738:2742   */\n      0x00\n        /* \"#utility.yul\":2776:2778   */\n      0x20\n        /* \"#utility.yul\":2765:2774   */\n      dup3\n        /* \"#utility.yul\":2761:2779   */\n      add\n        /* \"#utility.yul\":2753:2779   */\n      swap1\n      pop\n        /* \"#utility.yul\":2789:2860   */\n      tag_129\n        /* \"#utility.yul\":2857:2858   */\n      0x00\n        /* \"#utility.yul\":2846:2855   */\n      dup4\n        /* \"#utility.yul\":2842:2859   */\n      add\n        /* \"#utility.yul\":2833:2839   */\n      dup5\n        /* \"#utility.yul\":2789:2860   */\n      tag_83\n      jump\t// in\n    tag_129:\n        /* \"#utility.yul\":2645:2867   */\n      swap3\n      swap2\n      pop\n      pop\n      jump\t// out\n        /* \"#utility.yul\":2873:3083   */\n    tag_24:\n        /* \"#utility.yul\":2960:2964   */\n      0x00\n        /* \"#utility.yul\":2998:3000   */\n      0x20\n        /* \"#utility.yul\":2987:2996   */\n      dup3\n        /* \"#utility.yul\":2983:3001   */\n      add\n        /* \"#utility.yul\":2975:3001   */\n      swap1\n      pop\n        /* \"#utility.yul\":3011:3076   */\n      tag_131\n        /* \"#utility.yul\":3073:3074   */\n      0x00\n        /* \"#utility.yul\":3062:3071   */\n      dup4\n        /* \"#utility.yul\":3058:3075   */\n      add\n        /* \"#utility.yul\":3049:3055   */\n      dup5\n        /* \"#utility.yul\":3011:3076   */\n      tag_87\n      jump\t// in\n    tag_131:\n        /* \"#utility.yul\":2873:3083   */\n      swap3\n      swap2\n      pop\n      pop\n      jump\t// out\n        /* \"#utility.yul\":3089:3402   */\n    tag_16:\n        /* \"#utility.yul\":3202:3206   */\n      0x00\n        /* \"#utility.yul\":3240:3242   */\n      0x20\n        /* \"#utility.yul\":3229:3238   */\n      dup3\n        /* \"#utility.yul\":3225:3243   */\n      add\n        /* \"#utility.yul\":3217:3243   */\n      swap1\n      pop\n        /* \"#utility.yul\":3289:3298   */\n      dup2\n        /* \"#utility.yul\":3283:3287   */\n      dup2\n        /* \"#utility.yul\":3279:3299   */\n      sub\n        /* \"#utility.yul\":3275:3276   */\n      0x00\n        /* \"#utility.yul\":3264:3273   */\n      dup4\n        /* \"#utility.yul\":3260:3277   */\n      add\n        /* \"#utility.yul\":3253:3300   */\n      mstore\n        /* \"#utility.yul\":3317:3395   */\n      tag_133\n        /* \"#utility.yul\":3390:3394   */\n      dup2\n        /* \"#utility.yul\":3381:3387   */\n      dup5\n        /* \"#utility.yul\":3317:3395   */\n      tag_91\n      jump\t// in\n    tag_133:\n        /* \"#utility.yul\":3309:3395   */\n      swap1\n      pop\n        /* \"#utility.yul\":3089:3402   */\n      swap3\n      swap2\n      pop\n      pop\n      jump\t// out\n        /* \"#utility.yul\":3408:3827   */\n    tag_75:\n        /* \"#utility.yul\":3574:3578   */\n      0x00\n        /* \"#utility.yul\":3612:3614   */\n      0x20\n        /* \"#utility.yul\":3601:3610   */\n      dup3\n        /* \"#utility.yul\":3597:3615   */\n      add\n        /* \"#utility.yul\":3589:3615   */\n      swap1\n      pop\n        /* \"#utility.yul\":3661:3670   */\n      dup2\n        /* \"#utility.yul\":3655:3659   */\n      dup2\n        /* \"#utility.yul\":3651:3671   */\n      sub\n        /* \"#utility.yul\":3647:3648   */\n      0x00\n        /* \"#utility.yul\":3636:3645   */\n      dup4\n        /* \"#utility.yul\":3632:3649   */\n      add\n        /* \"#utility.yul\":3625:3672   */\n      mstore\n        /* \"#utility.yul\":3689:3820   */\n      tag_135\n        /* \"#utility.yul\":3815:3819   */\n      dup2\n        /* \"#utility.yul\":3689:3820   */\n      tag_101\n      jump\t// in\n    tag_135:\n        /* \"#utility.yul\":3681:3820   */\n      swap1\n      pop\n        /* \"#utility.yul\":3408:3827   */\n      swap2\n      swap1\n      pop\n      jump\t// out\n        /* \"#utility.yul\":3833:4252   */\n    tag_58:\n        /* \"#utility.yul\":3999:4003   */\n      0x00\n        /* \"#utility.yul\":4037:4039   */\n      0x20\n        /* \"#utility.yul\":4026:4035   */\n      dup3\n        /* \"#utility.yul\":4022:4040   */\n      add\n        /* \"#utility.yul\":4014:4040   */\n      swap1\n      pop\n        /* \"#utility.yul\":4086:4095   */\n      dup2\n        /* \"#utility.yul\":4080:4084   */\n      dup2\n        /* \"#utility.yul\":4076:4096   */\n      sub\n        /* \"#utility.yul\":4072:4073   */\n      0x00\n        /* \"#utility.yul\":4061:4070   */\n      dup4\n        /* \"#utility.yul\":4057:4074   */\n      add\n        /* \"#utility.yul\":4050:4097   */\n      mstore\n        /* \"#utility.yul\":4114:4245   */\n      tag_137\n        /* \"#utility.yul\":4240:4244   */\n      dup2\n        /* \"#utility.yul\":4114:4245   */\n      tag_106\n      jump\t// in\n    tag_137:\n        /* \"#utility.yul\":4106:4245   */\n      swap1\n      pop\n        /* \"#utility.yul\":3833:4252   */\n      swap2\n      swap1\n      pop\n      jump\t// out\n        /* \"#utility.yul\":4258:4677   */\n    tag_81:\n        /* \"#utility.yul\":4424:4428   */\n      0x00\n        /* \"#utility.yul\":4462:4464   */\n      0x20\n        /* \"#utility.yul\":4451:4460   */\n      dup3\n        /* \"#utility.yul\":4447:4465   */\n      add\n        /* \"#utility.yul\":4439:4465   */\n      swap1\n      pop\n        /* \"#utility.yul\":4511:4520   */\n      dup2\n        /* \"#utility.yul\":4505:4509   */\n      dup2\n        /* \"#utility.yul\":4501:4521   */\n      sub\n        /* \"#utility.yul\":4497:4498   */\n      0x00\n        /* \"#utility.yul\":4486:4495   */\n      dup4\n        /* \"#utility.yul\":4482:4499   */\n      add\n        /* \"#utility.yul\":4475:4522   */\n      mstore\n        /* \"#utility.yul\":4539:4670   */\n      tag_139\n        /* \"#utility.yul\":4665:4669   */\n      dup2\n        /* \"#utility.yul\":4539:4670   */\n      tag_111\n      jump\t// in\n    tag_139:\n        /* \"#utility.yul\":4531:4670   */\n      swap1\n      pop\n        /* \"#utility.yul\":4258:4677   */\n      swap2\n      swap1\n      pop\n      jump\t// out\n        /* \"#utility.yul\":4683:4905   */\n    tag_29:\n        /* \"#utility.yul\":4776:4780   */\n      0x00\n        /* \"#utility.yul\":4814:4816   */\n      0x20\n        /* \"#utility.yul\":4803:4812   */\n      dup3\n        /* \"#utility.yul\":4799:4817   */\n      add\n        /* \"#utility.yul\":4791:4817   */\n      swap1\n      pop\n        /* \"#utility.yul\":4827:4898   */\n      tag_141\n        /* \"#utility.yul\":4895:4896   */\n      0x00\n        /* \"#utility.yul\":4884:4893   */\n      dup4\n        /* \"#utility.yul\":4880:4897   */\n      add\n        /* \"#utility.yul\":4871:4877   */\n      dup5\n        /* \"#utility.yul\":4827:4898   */\n      tag_122\n      jump\t// in\n    tag_141:\n        /* \"#utility.yul\":4683:4905   */\n      swap3\n      swap2\n      pop\n      pop\n      jump\t// out\n        /* \"#utility.yul\":4911:5010   */\n    tag_94:\n        /* \"#utility.yul\":4963:4969   */\n      0x00\n        /* \"#utility.yul\":4997:5002   */\n      dup2\n        /* \"#utility.yul\":4991:5003   */\n      mload\n        /* \"#utility.yul\":4981:5003   */\n      swap1\n      pop\n        /* \"#utility.yul\":4911:5010   */\n      swap2\n      swap1\n      pop\n      jump\t// out\n        /* \"#utility.yul\":5016:5163   */\n    tag_119:\n        /* \"#utility.yul\":5117:5128   */\n      0x00\n        /* \"#utility.yul\":5154:5157   */\n      dup2\n        /* \"#utility.yul\":5139:5157   */\n      swap1\n      pop\n        /* \"#utility.yul\":5016:5163   */\n      swap3\n      swap2\n      pop\n      pop\n      jump\t// out\n        /* \"#utility.yul\":5169:5338   */\n    tag_96:\n        /* \"#utility.yul\":5253:5264   */\n      0x00\n        /* \"#utility.yul\":5287:5293   */\n      dup3\n        /* \"#utility.yul\":5282:5285   */\n      dup3\n        /* \"#utility.yul\":5275:5294   */\n      mstore\n        /* \"#utility.yul\":5327:5331   */\n      0x20\n        /* \"#utility.yul\":5322:5325   */\n      dup3\n        /* \"#utility.yul\":5318:5332   */\n      add\n        /* \"#utility.yul\":5303:5332   */\n      swap1\n      pop\n        /* \"#utility.yul\":5169:5338   */\n      swap3\n      swap2\n      pop\n      pop\n      jump\t// out\n        /* \"#utility.yul\":5344:5649   */\n    tag_78:\n        /* \"#utility.yul\":5384:5387   */\n      0x00\n        /* \"#utility.yul\":5403:5423   */\n      tag_146\n        /* \"#utility.yul\":5421:5422   */\n      dup3\n        /* \"#utility.yul\":5403:5423   */\n      tag_125\n      jump\t// in\n    tag_146:\n        /* \"#utility.yul\":5398:5423   */\n      swap2\n      pop\n        /* \"#utility.yul\":5437:5457   */\n      tag_147\n        /* \"#utility.yul\":5455:5456   */\n      dup4\n        /* \"#utility.yul\":5437:5457   */\n      tag_125\n      jump\t// in\n    tag_147:\n        /* \"#utility.yul\":5432:5457   */\n      swap3\n      pop\n        /* \"#utility.yul\":5591:5592   */\n      dup3\n        /* \"#utility.yul\":5523:5589   */\n      0xffffffffffffffffffffffffffffffffffffffffffffffffffffffffffffffff\n        /* \"#utility.yul\":5519:5593   */\n      sub\n        /* \"#utility.yul\":5516:5517   */\n      dup3\n        /* \"#utility.yul\":5513:5594   */\n      gt\n        /* \"#utility.yul\":5510:5617   */\n      iszero\n      tag_148\n      jumpi\n        /* \"#utility.yul\":5597:5615   */\n      tag_149\n      tag_150\n      jump\t// in\n    tag_149:\n        /* \"#utility.yul\":5510:5617   */\n    tag_148:\n        /* \"#utility.yul\":5641:5642   */\n      dup3\n        /* \"#utility.yul\":5638:5639   */\n      dup3\n        /* \"#utility.yul\":5634:5643   */\n      add\n        /* \"#utility.yul\":5627:5643   */\n      swap1\n      pop\n        /* \"#utility.yul\":5344:5649   */\n      swap3\n      swap2\n      pop\n      pop\n      jump\t// out\n        /* \"#utility.yul\":5655:5751   */\n    tag_86:\n        /* \"#utility.yul\":5692:5699   */\n      0x00\n        /* \"#utility.yul\":5721:5745   */\n      tag_152\n        /* \"#utility.yul\":5739:5744   */\n      dup3\n        /* \"#utility.yul\":5721:5745   */\n      tag_153\n      jump\t// in\n    tag_152:\n        /* \"#utility.yul\":5710:5745   */\n      swap1\n      pop\n        /* \"#utility.yul\":5655:5751   */\n      swap2\n      swap1\n      pop\n      jump\t// out\n        /* \"#utility.yul\":5757:5847   */\n    tag_90:\n        /* \"#utility.yul\":5791:5798   */\n      0x00\n        /* \"#utility.yul\":5834:5839   */\n      dup2\n        /* \"#utility.yul\":5827:5840   */\n      iszero\n        /* \"#utility.yul\":5820:5841   */\n      iszero\n        /* \"#utility.yul\":5809:5841   */\n      swap1\n      pop\n        /* \"#utility.yul\":5757:5847   */\n      swap2\n      swap1\n      pop\n      jump\t// out\n        /* \"#utility.yul\":5853:5979   */\n    tag_153:\n        /* \"#utility.yul\":5890:5897   */\n      0x00\n        /* \"#utility.yul\":5930:5972   */\n      0xffffffffffffffffffffffffffffffffffffffff\n        /* \"#utility.yul\":5923:5928   */\n      dup3\n        /* \"#utility.yul\":5919:5973   */\n      and\n        /* \"#utility.yul\":5908:5973   */\n      swap1\n      pop\n        /* \"#utility.yul\":5853:5979   */\n      swap2\n      swap1\n      pop\n      jump\t// out\n        /* \"#utility.yul\":5985:6062   */\n    tag_125:\n        /* \"#utility.yul\":6022:6029   */\n      0x00\n        /* \"#utility.yul\":6051:6056   */\n      dup2\n        /* \"#utility.yul\":6040:6056   */\n      swap1\n      pop\n        /* \"#utility.yul\":5985:6062   */\n      swap2\n      swap1\n      pop\n      jump\t// out\n        /* \"#utility.yul\":6068:6375   */\n    tag_98:\n        /* \"#utility.yul\":6136:6137   */\n      0x00\n        /* \"#utility.yul\":6146:6259   */\n    tag_158:\n        /* \"#utility.yul\":6160:6166   */\n      dup4\n        /* \"#utility.yul\":6157:6158   */\n      dup2\n        /* \"#utility.yul\":6154:6167   */\n      lt\n        /* \"#utility.yul\":6146:6259   */\n      iszero\n      tag_160\n      jumpi\n        /* \"#utility.yul\":6245:6246   */\n      dup1\n        /* \"#utility.yul\":6240:6243   */\n      dup3\n        /* \"#utility.yul\":6236:6247   */\n      add\n        /* \"#utility.yul\":6230:6248   */\n      mload\n        /* \"#utility.yul\":6226:6227   */\n      dup2\n        /* \"#utility.yul\":6221:6224   */\n      dup5\n        /* \"#utility.yul\":6217:6228   */\n      add\n        /* \"#utility.yul\":6210:6249   */\n      mstore\n        /* \"#utility.yul\":6182:6184   */\n      0x20\n        /* \"#utility.yul\":6179:6180   */\n      dup2\n        /* \"#utility.yul\":6175:6185   */\n      add\n        /* \"#utility.yul\":6170:6185   */\n      swap1\n      pop\n        /* \"#utility.yul\":6146:6259   */\n      jump(tag_158)\n    tag_160:\n        /* \"#utility.yul\":6277:6283   */\n      dup4\n        /* \"#utility.yul\":6274:6275   */\n      dup2\n        /* \"#utility.yul\":6271:6284   */\n      gt\n        /* \"#utility.yul\":6268:6369   */\n      iszero\n      tag_161\n      jumpi\n        /* \"#utility.yul\":6357:6358   */\n      0x00\n        /* \"#utility.yul\":6348:6354   */\n      dup5\n        /* \"#utility.yul\":6343:6346   */\n      dup5\n        /* \"#utility.yul\":6339:6355   */\n      add\n        /* \"#utility.yul\":6332:6359   */\n      mstore\n        /* \"#utility.yul\":6268:6369   */\n    tag_161:\n        /* \"#utility.yul\":6117:6375   */\n      pop\n        /* \"#utility.yul\":6068:6375   */\n      pop\n      pop\n      pop\n      jump\t// out\n        /* \"#utility.yul\":6381:6701   */\n    tag_50:\n        /* \"#utility.yul\":6425:6431   */\n      0x00\n        /* \"#utility.yul\":6462:6463   */\n      0x02\n        /* \"#utility.yul\":6456:6460   */\n      dup3\n        /* \"#utility.yul\":6452:6464   */\n      div\n        /* \"#utility.yul\":6442:6464   */\n      swap1\n      pop\n        /* \"#utility.yul\":6509:6510   */\n      0x01\n        /* \"#utility.yul\":6503:6507   */\n      dup3\n        /* \"#utility.yul\":6499:6511   */\n      and\n        /* \"#utility.yul\":6530:6548   */\n      dup1\n        /* \"#utility.yul\":6520:6601   */\n      tag_163\n      jumpi\n        /* \"#utility.yul\":6586:6590   */\n      0x7f\n        /* \"#utility.yul\":6578:6584   */\n      dup3\n        /* \"#utility.yul\":6574:6591   */\n      and\n        /* \"#utility.yul\":6564:6591   */\n      swap2\n      pop\n        /* \"#utility.yul\":6520:6601   */\n    tag_163:\n        /* \"#utility.yul\":6648:6650   */\n      0x20\n        /* \"#utility.yul\":6640:6646   */\n      dup3\n        /* \"#utility.yul\":6637:6651   */\n      lt\n        /* \"#utility.yul\":6617:6635   */\n      dup2\n        /* \"#utility.yul\":6614:6652   */\n      eq\n        /* \"#utility.yul\":6611:6695   */\n      iszero\n      tag_164\n      jumpi\n        /* \"#utility.yul\":6667:6685   */\n      tag_165\n      tag_166\n      jump\t// in\n    tag_165:\n        /* \"#utility.yul\":6611:6695   */\n    tag_164:\n        /* \"#utility.yul\":6432:6701   */\n      pop\n        /* \"#utility.yul\":6381:6701   */\n      swap2\n      swap1\n      pop\n      jump\t// out\n        /* \"#utility.yul\":6707:6887   */\n    tag_150:\n        /* \"#utility.yul\":6755:6832   */\n      0x4e487b7100000000000000000000000000000000000000000000000000000000\n        /* \"#utility.yul\":6752:6753   */\n      0x00\n        /* \"#utility.yul\":6745:6833   */\n      mstore\n        /* \"#utility.yul\":6852:6856   */\n      0x11\n        /* \"#utility.yul\":6849:6850   */\n      0x04\n        /* \"#utility.yul\":6842:6857   */\n      mstore\n        /* \"#utility.yul\":6876:6880   */\n      0x24\n        /* \"#utility.yul\":6873:6874   */\n      0x00\n        /* \"#utility.yul\":6866:6881   */\n      revert\n        /* \"#utility.yul\":6893:7073   */\n    tag_166:\n        /* \"#utility.yul\":6941:7018   */\n      0x4e487b7100000000000000000000000000000000000000000000000000000000\n        /* \"#utility.yul\":6938:6939   */\n      0x00\n        /* \"#utility.yul\":6931:7019   */\n      mstore\n        /* \"#utility.yul\":7038:7042   */\n      0x22\n        /* \"#utility.yul\":7035:7036   */\n      0x04\n        /* \"#utility.yul\":7028:7043   */\n      mstore\n        /* \"#utility.yul\":7062:7066   */\n      0x24\n        /* \"#utility.yul\":7059:7060   */\n      0x00\n        /* \"#utility.yul\":7052:7067   */\n      revert\n        /* \"#utility.yul\":7079:7181   */\n    tag_100:\n        /* \"#utility.yul\":7120:7126   */\n      0x00\n        /* \"#utility.yul\":7171:7173   */\n      0x1f\n        /* \"#utility.yul\":7167:7174   */\n      not\n        /* \"#utility.yul\":7162:7164   */\n      0x1f\n        /* \"#utility.yul\":7155:7160   */\n      dup4\n        /* \"#utility.yul\":7151:7165   */\n      add\n        /* \"#utility.yul\":7147:7175   */\n      and\n        /* \"#utility.yul\":7137:7175   */\n      swap1\n      pop\n        /* \"#utility.yul\":7079:7181   */\n      swap2\n      swap1\n      pop\n      jump\t// out\n        /* \"#utility.yul\":7187:7411   */\n    tag_105:\n        /* \"#utility.yul\":7327:7361   */\n      0x596f752063616e6e6f7420646f6e6174652062656c6f7720247b5f6d696e416d\n        /* \"#utility.yul\":7323:7324   */\n      0x00\n        /* \"#utility.yul\":7315:7321   */\n      dup3\n        /* \"#utility.yul\":7311:7325   */\n      add\n        /* \"#utility.yul\":7304:7362   */\n      mstore\n        /* \"#utility.yul\":7396:7403   */\n      0x6f756e747d000000000000000000000000000000000000000000000000000000\n        /* \"#utility.yul\":7391:7393   */\n      0x20\n        /* \"#utility.yul\":7383:7389   */\n      dup3\n        /* \"#utility.yul\":7379:7394   */\n      add\n        /* \"#utility.yul\":7372:7404   */\n      mstore\n        /* \"#utility.yul\":7187:7411   */\n      pop\n      jump\t// out\n        /* \"#utility.yul\":7417:7652   */\n    tag_110:\n        /* \"#utility.yul\":7557:7591   */\n      0x4f6e6c79206f776e6572206f66207468697320646f6e6174696f6e2063616e20\n        /* \"#utility.yul\":7553:7554   */\n      0x00\n        /* \"#utility.yul\":7545:7551   */\n      dup3\n        /* \"#utility.yul\":7541:7555   */\n      add\n        /* \"#utility.yul\":7534:7592   */\n      mstore\n        /* \"#utility.yul\":7626:7644   */\n      0x77697468647261772066726f6d20697400000000000000000000000000000000\n        /* \"#utility.yul\":7621:7623   */\n      0x20\n        /* \"#utility.yul\":7613:7619   */\n      dup3\n        /* \"#utility.yul\":7609:7624   */\n      add\n        /* \"#utility.yul\":7602:7645   */\n      mstore\n        /* \"#utility.yul\":7417:7652   */\n      pop\n      jump\t// out\n        /* \"#utility.yul\":7658:7887   */\n    tag_115:\n        /* \"#utility.yul\":7798:7832   */\n      0x596f757220646f6e6174696f6e2077696c6c2063726f73732074686520616d6f\n        /* \"#utility.yul\":7794:7795   */\n      0x00\n        /* \"#utility.yul\":7786:7792   */\n      dup3\n        /* \"#utility.yul\":7782:7796   */\n      add\n        /* \"#utility.yul\":7775:7833   */\n      mstore\n        /* \"#utility.yul\":7867:7879   */\n      0x756e74206e656564656400000000000000000000000000000000000000000000\n        /* \"#utility.yul\":7862:7864   */\n      0x20\n        /* \"#utility.yul\":7854:7860   */\n      dup3\n        /* \"#utility.yul\":7850:7865   */\n      add\n        /* \"#utility.yul\":7843:7880   */\n      mstore\n        /* \"#utility.yul\":7658:7887   */\n      pop\n      jump\t// out\n        /* \"#utility.yul\":7893:8007   */\n    tag_121:\n      pop\n      jump\t// out\n\n    auxdata: 0xa26469706673582212202d7002fa22b9ac9ba164364cf14eb749faffd378e15bc9ba159ef18f7d7a634264736f6c63430008070033\n}\n",
				"bytecode": {
					"linkReferences": {},
					"object": "60806040523480156200001157600080fd5b5060405162000e9a38038062000e9a833981810160405281019062000037919062000237565b84600090805190602001906200004f929190620000c4565b508360018190555082600360006101000a81548160ff0219169083151502179055508160028190555033600360016101000a81548173ffffffffffffffffffffffffffffffffffffffff021916908373ffffffffffffffffffffffffffffffffffffffff1602179055505050505050620004fa565b828054620000d290620003bd565b90600052602060002090601f016020900481019282620000f6576000855562000142565b82601f106200011157805160ff191683800117855562000142565b8280016001018555821562000142579182015b828111156200014157825182559160200191906001019062000124565b5b50905062000151919062000155565b5090565b5b808211156200017057600081600090555060010162000156565b5090565b60006200018b620001858462000307565b620002de565b905082815260208101848484011115620001aa57620001a96200048c565b5b620001b784828562000387565b509392505050565b600081519050620001d081620004ac565b92915050565b600081519050620001e781620004c6565b92915050565b600082601f83011262000205576200020462000487565b5b81516200021784826020860162000174565b91505092915050565b6000815190506200023181620004e0565b92915050565b600080600080600060a0868803121562000256576200025562000496565b5b600086015167ffffffffffffffff81111562000277576200027662000491565b5b6200028588828901620001ed565b9550506020620002988882890162000220565b9450506040620002ab88828901620001d6565b9350506060620002be8882890162000220565b9250506080620002d188828901620001bf565b9150509295509295909350565b6000620002ea620002fd565b9050620002f88282620003f3565b919050565b6000604051905090565b600067ffffffffffffffff82111562000325576200032462000458565b5b62000330826200049b565b9050602081019050919050565b60006200034a826200035d565b9050919050565b60008115159050919050565b600073ffffffffffffffffffffffffffffffffffffffff82169050919050565b6000819050919050565b60005b83811015620003a75780820151818401526020810190506200038a565b83811115620003b7576000848401525b50505050565b60006002820490506001821680620003d657607f821691505b60208210811415620003ed57620003ec62000429565b5b50919050565b620003fe826200049b565b810181811067ffffffffffffffff8211171562000420576200041f62000458565b5b80604052505050565b7f4e487b7100000000000000000000000000000000000000000000000000000000600052602260045260246000fd5b7f4e487b7100000000000000000000000000000000000000000000000000000000600052604160045260246000fd5b600080fd5b600080fd5b600080fd5b600080fd5b6000601f19601f8301169050919050565b620004b7816200033d565b8114620004c357600080fd5b50565b620004d18162000351565b8114620004dd57600080fd5b50565b620004eb816200037d565b8114620004f757600080fd5b50565b610990806200050a6000396000f3fe6080604052600436106100865760003560e01c8063893d20e811610059578063893d20e814610123578063b383bf2d1461014e578063eae3f76414610179578063ed11f46a146101a4578063ed88c68e146101cf57610086565b8063354ecc851461008b5780633ccfd60b146100b6578063798be230146100cd57806380fdef1b146100f8575b600080fd5b34801561009757600080fd5b506100a06101d9565b6040516100ad9190610634565b60405180910390f35b3480156100c257600080fd5b506100cb610267565b005b3480156100d957600080fd5b506100e2610362565b6040516100ef9190610619565b60405180910390f35b34801561010457600080fd5b5061010d610375565b60405161011a91906106b6565b60405180910390f35b34801561012f57600080fd5b5061013861037b565b60405161014591906105fe565b60405180910390f35b34801561015a57600080fd5b506101636103a5565b60405161017091906106b6565b60405180910390f35b34801561018557600080fd5b5061018e6103ab565b60405161019b9190610634565b60405180910390f35b3480156101b057600080fd5b506101b961043d565b6040516101c691906106b6565b60405180910390f35b6101d7610445565b005b600080546101e6906107c9565b80601f0160208091040260200160405190810160405280929190818152602001828054610212906107c9565b801561025f5780601f106102345761010080835404028352916020019161025f565b820191906000526020600020905b81548152906001019060200180831161024257829003601f168201915b505050505081565b3373ffffffffffffffffffffffffffffffffffffffff16600360019054906101000a900473ffffffffffffffffffffffffffffffffffffffff1673ffffffffffffffffffffffffffffffffffffffff16146102f7576040517f08c379a00000000000000000000000000000000000000000000000000000000081526004016102ee90610676565b60405180910390fd5b3373ffffffffffffffffffffffffffffffffffffffff164760405161031b906105e9565b60006040518083038185875af1925050503d8060008114610358576040519150601f19603f3d011682016040523d82523d6000602084013e61035d565b606091505b505050565b600360009054906101000a900460ff1681565b60025481565b6000600360019054906101000a900473ffffffffffffffffffffffffffffffffffffffff16905090565b60015481565b6060600080546103ba906107c9565b80601f01602080910402602001604051908101604052809291908181526020018280546103e6906107c9565b80156104335780601f1061040857610100808354040283529160200191610433565b820191906000526020600020905b81548152906001019060200180831161041657829003601f168201915b5050505050905090565b600047905090565b60015434101561048a576040517f08c379a000000000000000000000000000000000000000000000000000000000815260040161048190610656565b60405180910390fd5b600360009054906101000a900460ff166104f557600047905060025434826104b291906106f8565b11156104f3576040517f08c379a00000000000000000000000000000000000000000000000000000000081526004016104ea90610696565b60405180910390fd5b505b565b6105008161074e565b82525050565b61050f81610760565b82525050565b6000610520826106d1565b61052a81856106e7565b935061053a818560208601610796565b61054381610859565b840191505092915050565b600061055b6025836106e7565b91506105668261086a565b604082019050919050565b600061057e6030836106e7565b9150610589826108b9565b604082019050919050565b60006105a1602a836106e7565b91506105ac82610908565b604082019050919050565b60006105c46000836106dc565b91506105cf82610957565b600082019050919050565b6105e38161078c565b82525050565b60006105f4826105b7565b9150819050919050565b600060208201905061061360008301846104f7565b92915050565b600060208201905061062e6000830184610506565b92915050565b6000602082019050818103600083015261064e8184610515565b905092915050565b6000602082019050818103600083015261066f8161054e565b9050919050565b6000602082019050818103600083015261068f81610571565b9050919050565b600060208201905081810360008301526106af81610594565b9050919050565b60006020820190506106cb60008301846105da565b92915050565b600081519050919050565b600081905092915050565b600082825260208201905092915050565b60006107038261078c565b915061070e8361078c565b9250827fffffffffffffffffffffffffffffffffffffffffffffffffffffffffffffffff03821115610743576107426107fb565b5b828201905092915050565b60006107598261076c565b9050919050565b60008115159050919050565b600073ffffffffffffffffffffffffffffffffffffffff82169050919050565b6000819050919050565b60005b838110156107b4578082015181840152602081019050610799565b838111156107c3576000848401525b50505050565b600060028204905060018216806107e157607f821691505b602082108114156107f5576107f461082a565b5b50919050565b7f4e487b7100000000000000000000000000000000000000000000000000000000600052601160045260246000fd5b7f4e487b7100000000000000000000000000000000000000000000000000000000600052602260045260246000fd5b6000601f19601f8301169050919050565b7f596f752063616e6e6f7420646f6e6174652062656c6f7720247b5f6d696e416d60008201527f6f756e747d000000000000000000000000000000000000000000000000000000602082015250565b7f4f6e6c79206f776e6572206f66207468697320646f6e6174696f6e2063616e2060008201527f77697468647261772066726f6d20697400000000000000000000000000000000602082015250565b7f596f757220646f6e6174696f6e2077696c6c2063726f73732074686520616d6f60008201527f756e74206e656564656400000000000000000000000000000000000000000000602082015250565b5056fea26469706673582212202d7002fa22b9ac9ba164364cf14eb749faffd378e15bc9ba159ef18f7d7a634264736f6c63430008070033",
					"opcodes": "PUSH1 0x80 PUSH1 0x40 MSTORE CALLVALUE DUP1 ISZERO PUSH3 0x11 JUMPI PUSH1 0x0 DUP1 REVERT JUMPDEST POP PUSH1 0x40 MLOAD PUSH3 0xE9A CODESIZE SUB DUP1 PUSH3 0xE9A DUP4 CODECOPY DUP2 DUP2 ADD PUSH1 0x40 MSTORE DUP2 ADD SWAP1 PUSH3 0x37 SWAP2 SWAP1 PUSH3 0x237 JUMP JUMPDEST DUP5 PUSH1 0x0 SWAP1 DUP1 MLOAD SWAP1 PUSH1 0x20 ADD SWAP1 PUSH3 0x4F SWAP3 SWAP2 SWAP1 PUSH3 0xC4 JUMP JUMPDEST POP DUP4 PUSH1 0x1 DUP2 SWAP1 SSTORE POP DUP3 PUSH1 0x3 PUSH1 0x0 PUSH2 0x100 EXP DUP2 SLOAD DUP2 PUSH1 0xFF MUL NOT AND SWAP1 DUP4 ISZERO ISZERO MUL OR SWAP1 SSTORE POP DUP2 PUSH1 0x2 DUP2 SWAP1 SSTORE POP CALLER PUSH1 0x3 PUSH1 0x1 PUSH2 0x100 EXP DUP2 SLOAD DUP2 PUSH20 0xFFFFFFFFFFFFFFFFFFFFFFFFFFFFFFFFFFFFFFFF MUL NOT AND SWAP1 DUP4 PUSH20 0xFFFFFFFFFFFFFFFFFFFFFFFFFFFFFFFFFFFFFFFF AND MUL OR SWAP1 SSTORE POP POP POP POP POP POP PUSH3 0x4FA JUMP JUMPDEST DUP3 DUP1 SLOAD PUSH3 0xD2 SWAP1 PUSH3 0x3BD JUMP JUMPDEST SWAP1 PUSH1 0x0 MSTORE PUSH1 0x20 PUSH1 0x0 KECCAK256 SWAP1 PUSH1 0x1F ADD PUSH1 0x20 SWAP1 DIV DUP2 ADD SWAP3 DUP3 PUSH3 0xF6 JUMPI PUSH1 0x0 DUP6 SSTORE PUSH3 0x142 JUMP JUMPDEST DUP3 PUSH1 0x1F LT PUSH3 0x111 JUMPI DUP1 MLOAD PUSH1 0xFF NOT AND DUP4 DUP1 ADD OR DUP6 SSTORE PUSH3 0x142 JUMP JUMPDEST DUP3 DUP1 ADD PUSH1 0x1 ADD DUP6 SSTORE DUP3 ISZERO PUSH3 0x142 JUMPI SWAP2 DUP3 ADD JUMPDEST DUP3 DUP2 GT ISZERO PUSH3 0x141 JUMPI DUP3 MLOAD DUP3 SSTORE SWAP2 PUSH1 0x20 ADD SWAP2 SWAP1 PUSH1 0x1 ADD SWAP1 PUSH3 0x124 JUMP JUMPDEST JUMPDEST POP SWAP1 POP PUSH3 0x151 SWAP2 SWAP1 PUSH3 0x155 JUMP JUMPDEST POP SWAP1 JUMP JUMPDEST JUMPDEST DUP1 DUP3 GT ISZERO PUSH3 0x170 JUMPI PUSH1 0x0 DUP2 PUSH1 0x0 SWAP1 SSTORE POP PUSH1 0x1 ADD PUSH3 0x156 JUMP JUMPDEST POP SWAP1 JUMP JUMPDEST PUSH1 0x0 PUSH3 0x18B PUSH3 0x185 DUP5 PUSH3 0x307 JUMP JUMPDEST PUSH3 0x2DE JUMP JUMPDEST SWAP1 POP DUP3 DUP2 MSTORE PUSH1 0x20 DUP2 ADD DUP5 DUP5 DUP5 ADD GT ISZERO PUSH3 0x1AA JUMPI PUSH3 0x1A9 PUSH3 0x48C JUMP JUMPDEST JUMPDEST PUSH3 0x1B7 DUP5 DUP3 DUP6 PUSH3 0x387 JUMP JUMPDEST POP SWAP4 SWAP3 POP POP POP JUMP JUMPDEST PUSH1 0x0 DUP2 MLOAD SWAP1 POP PUSH3 0x1D0 DUP2 PUSH3 0x4AC JUMP JUMPDEST SWAP3 SWAP2 POP POP JUMP JUMPDEST PUSH1 0x0 DUP2 MLOAD SWAP1 POP PUSH3 0x1E7 DUP2 PUSH3 0x4C6 JUMP JUMPDEST SWAP3 SWAP2 POP POP JUMP JUMPDEST PUSH1 0x0 DUP3 PUSH1 0x1F DUP4 ADD SLT PUSH3 0x205 JUMPI PUSH3 0x204 PUSH3 0x487 JUMP JUMPDEST JUMPDEST DUP2 MLOAD PUSH3 0x217 DUP5 DUP3 PUSH1 0x20 DUP7 ADD PUSH3 0x174 JUMP JUMPDEST SWAP2 POP POP SWAP3 SWAP2 POP POP JUMP JUMPDEST PUSH1 0x0 DUP2 MLOAD SWAP1 POP PUSH3 0x231 DUP2 PUSH3 0x4E0 JUMP JUMPDEST SWAP3 SWAP2 POP POP JUMP JUMPDEST PUSH1 0x0 DUP1 PUSH1 0x0 DUP1 PUSH1 0x0 PUSH1 0xA0 DUP7 DUP9 SUB SLT ISZERO PUSH3 0x256 JUMPI PUSH3 0x255 PUSH3 0x496 JUMP JUMPDEST JUMPDEST PUSH1 0x0 DUP7 ADD MLOAD PUSH8 0xFFFFFFFFFFFFFFFF DUP2 GT ISZERO PUSH3 0x277 JUMPI PUSH3 0x276 PUSH3 0x491 JUMP JUMPDEST JUMPDEST PUSH3 0x285 DUP9 DUP3 DUP10 ADD PUSH3 0x1ED JUMP JUMPDEST SWAP6 POP POP PUSH1 0x20 PUSH3 0x298 DUP9 DUP3 DUP10 ADD PUSH3 0x220 JUMP JUMPDEST SWAP5 POP POP PUSH1 0x40 PUSH3 0x2AB DUP9 DUP3 DUP10 ADD PUSH3 0x1D6 JUMP JUMPDEST SWAP4 POP POP PUSH1 0x60 PUSH3 0x2BE DUP9 DUP3 DUP10 ADD PUSH3 0x220 JUMP JUMPDEST SWAP3 POP POP PUSH1 0x80 PUSH3 0x2D1 DUP9 DUP3 DUP10 ADD PUSH3 0x1BF JUMP JUMPDEST SWAP2 POP POP SWAP3 SWAP6 POP SWAP3 SWAP6 SWAP1 SWAP4 POP JUMP JUMPDEST PUSH1 0x0 PUSH3 0x2EA PUSH3 0x2FD JUMP JUMPDEST SWAP1 POP PUSH3 0x2F8 DUP3 DUP3 PUSH3 0x3F3 JUMP JUMPDEST SWAP2 SWAP1 POP JUMP JUMPDEST PUSH1 0x0 PUSH1 0x40 MLOAD SWAP1 POP SWAP1 JUMP JUMPDEST PUSH1 0x0 PUSH8 0xFFFFFFFFFFFFFFFF DUP3 GT ISZERO PUSH3 0x325 JUMPI PUSH3 0x324 PUSH3 0x458 JUMP JUMPDEST JUMPDEST PUSH3 0x330 DUP3 PUSH3 0x49B JUMP JUMPDEST SWAP1 POP PUSH1 0x20 DUP2 ADD SWAP1 POP SWAP2 SWAP1 POP JUMP JUMPDEST PUSH1 0x0 PUSH3 0x34A DUP3 PUSH3 0x35D JUMP JUMPDEST SWAP1 POP SWAP2 SWAP1 POP JUMP JUMPDEST PUSH1 0x0 DUP2 ISZERO ISZERO SWAP1 POP SWAP2 SWAP1 POP JUMP JUMPDEST PUSH1 0x0 PUSH20 0xFFFFFFFFFFFFFFFFFFFFFFFFFFFFFFFFFFFFFFFF DUP3 AND SWAP1 POP SWAP2 SWAP1 POP JUMP JUMPDEST PUSH1 0x0 DUP2 SWAP1 POP SWAP2 SWAP1 POP JUMP JUMPDEST PUSH1 0x0 JUMPDEST DUP4 DUP2 LT ISZERO PUSH3 0x3A7 JUMPI DUP1 DUP3 ADD MLOAD DUP2 DUP5 ADD MSTORE PUSH1 0x20 DUP2 ADD SWAP1 POP PUSH3 0x38A JUMP JUMPDEST DUP4 DUP2 GT ISZERO PUSH3 0x3B7 JUMPI PUSH1 0x0 DUP5 DUP5 ADD MSTORE JUMPDEST POP POP POP POP JUMP JUMPDEST PUSH1 0x0 PUSH1 0x2 DUP3 DIV SWAP1 POP PUSH1 0x1 DUP3 AND DUP1 PUSH3 0x3D6 JUMPI PUSH1 0x7F DUP3 AND SWAP2 POP JUMPDEST PUSH1 0x20 DUP3 LT DUP2 EQ ISZERO PUSH3 0x3ED JUMPI PUSH3 0x3EC PUSH3 0x429 JUMP JUMPDEST JUMPDEST POP SWAP2 SWAP1 POP JUMP JUMPDEST PUSH3 0x3FE DUP3 PUSH3 0x49B JUMP JUMPDEST DUP2 ADD DUP2 DUP2 LT PUSH8 0xFFFFFFFFFFFFFFFF DUP3 GT OR ISZERO PUSH3 0x420 JUMPI PUSH3 0x41F PUSH3 0x458 JUMP JUMPDEST JUMPDEST DUP1 PUSH1 0x40 MSTORE POP POP POP JUMP JUMPDEST PUSH32 0x4E487B7100000000000000000000000000000000000000000000000000000000 PUSH1 0x0 MSTORE PUSH1 0x22 PUSH1 0x4 MSTORE PUSH1 0x24 PUSH1 0x0 REVERT JUMPDEST PUSH32 0x4E487B7100000000000000000000000000000000000000000000000000000000 PUSH1 0x0 MSTORE PUSH1 0x41 PUSH1 0x4 MSTORE PUSH1 0x24 PUSH1 0x0 REVERT JUMPDEST PUSH1 0x0 DUP1 REVERT JUMPDEST PUSH1 0x0 DUP1 REVERT JUMPDEST PUSH1 0x0 DUP1 REVERT JUMPDEST PUSH1 0x0 DUP1 REVERT JUMPDEST PUSH1 0x0 PUSH1 0x1F NOT PUSH1 0x1F DUP4 ADD AND SWAP1 POP SWAP2 SWAP1 POP JUMP JUMPDEST PUSH3 0x4B7 DUP2 PUSH3 0x33D JUMP JUMPDEST DUP2 EQ PUSH3 0x4C3 JUMPI PUSH1 0x0 DUP1 REVERT JUMPDEST POP JUMP JUMPDEST PUSH3 0x4D1 DUP2 PUSH3 0x351 JUMP JUMPDEST DUP2 EQ PUSH3 0x4DD JUMPI PUSH1 0x0 DUP1 REVERT JUMPDEST POP JUMP JUMPDEST PUSH3 0x4EB DUP2 PUSH3 0x37D JUMP JUMPDEST DUP2 EQ PUSH3 0x4F7 JUMPI PUSH1 0x0 DUP1 REVERT JUMPDEST POP JUMP JUMPDEST PUSH2 0x990 DUP1 PUSH3 0x50A PUSH1 0x0 CODECOPY PUSH1 0x0 RETURN INVALID PUSH1 0x80 PUSH1 0x40 MSTORE PUSH1 0x4 CALLDATASIZE LT PUSH2 0x86 JUMPI PUSH1 0x0 CALLDATALOAD PUSH1 0xE0 SHR DUP1 PUSH4 0x893D20E8 GT PUSH2 0x59 JUMPI DUP1 PUSH4 0x893D20E8 EQ PUSH2 0x123 JUMPI DUP1 PUSH4 0xB383BF2D EQ PUSH2 0x14E JUMPI DUP1 PUSH4 0xEAE3F764 EQ PUSH2 0x179 JUMPI DUP1 PUSH4 0xED11F46A EQ PUSH2 0x1A4 JUMPI DUP1 PUSH4 0xED88C68E EQ PUSH2 0x1CF JUMPI PUSH2 0x86 JUMP JUMPDEST DUP1 PUSH4 0x354ECC85 EQ PUSH2 0x8B JUMPI DUP1 PUSH4 0x3CCFD60B EQ PUSH2 0xB6 JUMPI DUP1 PUSH4 0x798BE230 EQ PUSH2 0xCD JUMPI DUP1 PUSH4 0x80FDEF1B EQ PUSH2 0xF8 JUMPI JUMPDEST PUSH1 0x0 DUP1 REVERT JUMPDEST CALLVALUE DUP1 ISZERO PUSH2 0x97 JUMPI PUSH1 0x0 DUP1 REVERT JUMPDEST POP PUSH2 0xA0 PUSH2 0x1D9 JUMP JUMPDEST PUSH1 0x40 MLOAD PUSH2 0xAD SWAP2 SWAP1 PUSH2 0x634 JUMP JUMPDEST PUSH1 0x40 MLOAD DUP1 SWAP2 SUB SWAP1 RETURN JUMPDEST CALLVALUE DUP1 ISZERO PUSH2 0xC2 JUMPI PUSH1 0x0 DUP1 REVERT JUMPDEST POP PUSH2 0xCB PUSH2 0x267 JUMP JUMPDEST STOP JUMPDEST CALLVALUE DUP1 ISZERO PUSH2 0xD9 JUMPI PUSH1 0x0 DUP1 REVERT JUMPDEST POP PUSH2 0xE2 PUSH2 0x362 JUMP JUMPDEST PUSH1 0x40 MLOAD PUSH2 0xEF SWAP2 SWAP1 PUSH2 0x619 JUMP JUMPDEST PUSH1 0x40 MLOAD DUP1 SWAP2 SUB SWAP1 RETURN JUMPDEST CALLVALUE DUP1 ISZERO PUSH2 0x104 JUMPI PUSH1 0x0 DUP1 REVERT JUMPDEST POP PUSH2 0x10D PUSH2 0x375 JUMP JUMPDEST PUSH1 0x40 MLOAD PUSH2 0x11A SWAP2 SWAP1 PUSH2 0x6B6 JUMP JUMPDEST PUSH1 0x40 MLOAD DUP1 SWAP2 SUB SWAP1 RETURN JUMPDEST CALLVALUE DUP1 ISZERO PUSH2 0x12F JUMPI PUSH1 0x0 DUP1 REVERT JUMPDEST POP PUSH2 0x138 PUSH2 0x37B JUMP JUMPDEST PUSH1 0x40 MLOAD PUSH2 0x145 SWAP2 SWAP1 PUSH2 0x5FE JUMP JUMPDEST PUSH1 0x40 MLOAD DUP1 SWAP2 SUB SWAP1 RETURN JUMPDEST CALLVALUE DUP1 ISZERO PUSH2 0x15A JUMPI PUSH1 0x0 DUP1 REVERT JUMPDEST POP PUSH2 0x163 PUSH2 0x3A5 JUMP JUMPDEST PUSH1 0x40 MLOAD PUSH2 0x170 SWAP2 SWAP1 PUSH2 0x6B6 JUMP JUMPDEST PUSH1 0x40 MLOAD DUP1 SWAP2 SUB SWAP1 RETURN JUMPDEST CALLVALUE DUP1 ISZERO PUSH2 0x185 JUMPI PUSH1 0x0 DUP1 REVERT JUMPDEST POP PUSH2 0x18E PUSH2 0x3AB JUMP JUMPDEST PUSH1 0x40 MLOAD PUSH2 0x19B SWAP2 SWAP1 PUSH2 0x634 JUMP JUMPDEST PUSH1 0x40 MLOAD DUP1 SWAP2 SUB SWAP1 RETURN JUMPDEST CALLVALUE DUP1 ISZERO PUSH2 0x1B0 JUMPI PUSH1 0x0 DUP1 REVERT JUMPDEST POP PUSH2 0x1B9 PUSH2 0x43D JUMP JUMPDEST PUSH1 0x40 MLOAD PUSH2 0x1C6 SWAP2 SWAP1 PUSH2 0x6B6 JUMP JUMPDEST PUSH1 0x40 MLOAD DUP1 SWAP2 SUB SWAP1 RETURN JUMPDEST PUSH2 0x1D7 PUSH2 0x445 JUMP JUMPDEST STOP JUMPDEST PUSH1 0x0 DUP1 SLOAD PUSH2 0x1E6 SWAP1 PUSH2 0x7C9 JUMP JUMPDEST DUP1 PUSH1 0x1F ADD PUSH1 0x20 DUP1 SWAP2 DIV MUL PUSH1 0x20 ADD PUSH1 0x40 MLOAD SWAP1 DUP2 ADD PUSH1 0x40 MSTORE DUP1 SWAP3 SWAP2 SWAP1 DUP2 DUP2 MSTORE PUSH1 0x20 ADD DUP3 DUP1 SLOAD PUSH2 0x212 SWAP1 PUSH2 0x7C9 JUMP JUMPDEST DUP1 ISZERO PUSH2 0x25F JUMPI DUP1 PUSH1 0x1F LT PUSH2 0x234 JUMPI PUSH2 0x100 DUP1 DUP4 SLOAD DIV MUL DUP4 MSTORE SWAP2 PUSH1 0x20 ADD SWAP2 PUSH2 0x25F JUMP JUMPDEST DUP3 ADD SWAP2 SWAP1 PUSH1 0x0 MSTORE PUSH1 0x20 PUSH1 0x0 KECCAK256 SWAP1 JUMPDEST DUP2 SLOAD DUP2 MSTORE SWAP1 PUSH1 0x1 ADD SWAP1 PUSH1 0x20 ADD DUP1 DUP4 GT PUSH2 0x242 JUMPI DUP3 SWAP1 SUB PUSH1 0x1F AND DUP3 ADD SWAP2 JUMPDEST POP POP POP POP POP DUP2 JUMP JUMPDEST CALLER PUSH20 0xFFFFFFFFFFFFFFFFFFFFFFFFFFFFFFFFFFFFFFFF AND PUSH1 0x3 PUSH1 0x1 SWAP1 SLOAD SWAP1 PUSH2 0x100 EXP SWAP1 DIV PUSH20 0xFFFFFFFFFFFFFFFFFFFFFFFFFFFFFFFFFFFFFFFF AND PUSH20 0xFFFFFFFFFFFFFFFFFFFFFFFFFFFFFFFFFFFFFFFF AND EQ PUSH2 0x2F7 JUMPI PUSH1 0x40 MLOAD PUSH32 0x8C379A000000000000000000000000000000000000000000000000000000000 DUP2 MSTORE PUSH1 0x4 ADD PUSH2 0x2EE SWAP1 PUSH2 0x676 JUMP JUMPDEST PUSH1 0x40 MLOAD DUP1 SWAP2 SUB SWAP1 REVERT JUMPDEST CALLER PUSH20 0xFFFFFFFFFFFFFFFFFFFFFFFFFFFFFFFFFFFFFFFF AND SELFBALANCE PUSH1 0x40 MLOAD PUSH2 0x31B SWAP1 PUSH2 0x5E9 JUMP JUMPDEST PUSH1 0x0 PUSH1 0x40 MLOAD DUP1 DUP4 SUB DUP2 DUP6 DUP8 GAS CALL SWAP3 POP POP POP RETURNDATASIZE DUP1 PUSH1 0x0 DUP2 EQ PUSH2 0x358 JUMPI PUSH1 0x40 MLOAD SWAP2 POP PUSH1 0x1F NOT PUSH1 0x3F RETURNDATASIZE ADD AND DUP3 ADD PUSH1 0x40 MSTORE RETURNDATASIZE DUP3 MSTORE RETURNDATASIZE PUSH1 0x0 PUSH1 0x20 DUP5 ADD RETURNDATACOPY PUSH2 0x35D JUMP JUMPDEST PUSH1 0x60 SWAP2 POP JUMPDEST POP POP POP JUMP JUMPDEST PUSH1 0x3 PUSH1 0x0 SWAP1 SLOAD SWAP1 PUSH2 0x100 EXP SWAP1 DIV PUSH1 0xFF AND DUP2 JUMP JUMPDEST PUSH1 0x2 SLOAD DUP2 JUMP JUMPDEST PUSH1 0x0 PUSH1 0x3 PUSH1 0x1 SWAP1 SLOAD SWAP1 PUSH2 0x100 EXP SWAP1 DIV PUSH20 0xFFFFFFFFFFFFFFFFFFFFFFFFFFFFFFFFFFFFFFFF AND SWAP1 POP SWAP1 JUMP JUMPDEST PUSH1 0x1 SLOAD DUP2 JUMP JUMPDEST PUSH1 0x60 PUSH1 0x0 DUP1 SLOAD PUSH2 0x3BA SWAP1 PUSH2 0x7C9 JUMP JUMPDEST DUP1 PUSH1 0x1F ADD PUSH1 0x20 DUP1 SWAP2 DIV MUL PUSH1 0x20 ADD PUSH1 0x40 MLOAD SWAP1 DUP2 ADD PUSH1 0x40 MSTORE DUP1 SWAP3 SWAP2 SWAP1 DUP2 DUP2 MSTORE PUSH1 0x20 ADD DUP3 DUP1 SLOAD PUSH2 0x3E6 SWAP1 PUSH2 0x7C9 JUMP JUMPDEST DUP1 ISZERO PUSH2 0x433 JUMPI DUP1 PUSH1 0x1F LT PUSH2 0x408 JUMPI PUSH2 0x100 DUP1 DUP4 SLOAD DIV MUL DUP4 MSTORE SWAP2 PUSH1 0x20 ADD SWAP2 PUSH2 0x433 JUMP JUMPDEST DUP3 ADD SWAP2 SWAP1 PUSH1 0x0 MSTORE PUSH1 0x20 PUSH1 0x0 KECCAK256 SWAP1 JUMPDEST DUP2 SLOAD DUP2 MSTORE SWAP1 PUSH1 0x1 ADD SWAP1 PUSH1 0x20 ADD DUP1 DUP4 GT PUSH2 0x416 JUMPI DUP3 SWAP1 SUB PUSH1 0x1F AND DUP3 ADD SWAP2 JUMPDEST POP POP POP POP POP SWAP1 POP SWAP1 JUMP JUMPDEST PUSH1 0x0 SELFBALANCE SWAP1 POP SWAP1 JUMP JUMPDEST PUSH1 0x1 SLOAD CALLVALUE LT ISZERO PUSH2 0x48A JUMPI PUSH1 0x40 MLOAD PUSH32 0x8C379A000000000000000000000000000000000000000000000000000000000 DUP2 MSTORE PUSH1 0x4 ADD PUSH2 0x481 SWAP1 PUSH2 0x656 JUMP JUMPDEST PUSH1 0x40 MLOAD DUP1 SWAP2 SUB SWAP1 REVERT JUMPDEST PUSH1 0x3 PUSH1 0x0 SWAP1 SLOAD SWAP1 PUSH2 0x100 EXP SWAP1 DIV PUSH1 0xFF AND PUSH2 0x4F5 JUMPI PUSH1 0x0 SELFBALANCE SWAP1 POP PUSH1 0x2 SLOAD CALLVALUE DUP3 PUSH2 0x4B2 SWAP2 SWAP1 PUSH2 0x6F8 JUMP JUMPDEST GT ISZERO PUSH2 0x4F3 JUMPI PUSH1 0x40 MLOAD PUSH32 0x8C379A000000000000000000000000000000000000000000000000000000000 DUP2 MSTORE PUSH1 0x4 ADD PUSH2 0x4EA SWAP1 PUSH2 0x696 JUMP JUMPDEST PUSH1 0x40 MLOAD DUP1 SWAP2 SUB SWAP1 REVERT JUMPDEST POP JUMPDEST JUMP JUMPDEST PUSH2 0x500 DUP2 PUSH2 0x74E JUMP JUMPDEST DUP3 MSTORE POP POP JUMP JUMPDEST PUSH2 0x50F DUP2 PUSH2 0x760 JUMP JUMPDEST DUP3 MSTORE POP POP JUMP JUMPDEST PUSH1 0x0 PUSH2 0x520 DUP3 PUSH2 0x6D1 JUMP JUMPDEST PUSH2 0x52A DUP2 DUP6 PUSH2 0x6E7 JUMP JUMPDEST SWAP4 POP PUSH2 0x53A DUP2 DUP6 PUSH1 0x20 DUP7 ADD PUSH2 0x796 JUMP JUMPDEST PUSH2 0x543 DUP2 PUSH2 0x859 JUMP JUMPDEST DUP5 ADD SWAP2 POP POP SWAP3 SWAP2 POP POP JUMP JUMPDEST PUSH1 0x0 PUSH2 0x55B PUSH1 0x25 DUP4 PUSH2 0x6E7 JUMP JUMPDEST SWAP2 POP PUSH2 0x566 DUP3 PUSH2 0x86A JUMP JUMPDEST PUSH1 0x40 DUP3 ADD SWAP1 POP SWAP2 SWAP1 POP JUMP JUMPDEST PUSH1 0x0 PUSH2 0x57E PUSH1 0x30 DUP4 PUSH2 0x6E7 JUMP JUMPDEST SWAP2 POP PUSH2 0x589 DUP3 PUSH2 0x8B9 JUMP JUMPDEST PUSH1 0x40 DUP3 ADD SWAP1 POP SWAP2 SWAP1 POP JUMP JUMPDEST PUSH1 0x0 PUSH2 0x5A1 PUSH1 0x2A DUP4 PUSH2 0x6E7 JUMP JUMPDEST SWAP2 POP PUSH2 0x5AC DUP3 PUSH2 0x908 JUMP JUMPDEST PUSH1 0x40 DUP3 ADD SWAP1 POP SWAP2 SWAP1 POP JUMP JUMPDEST PUSH1 0x0 PUSH2 0x5C4 PUSH1 0x0 DUP4 PUSH2 0x6DC JUMP JUMPDEST SWAP2 POP PUSH2 0x5CF DUP3 PUSH2 0x957 JUMP JUMPDEST PUSH1 0x0 DUP3 ADD SWAP1 POP SWAP2 SWAP1 POP JUMP JUMPDEST PUSH2 0x5E3 DUP2 PUSH2 0x78C JUMP JUMPDEST DUP3 MSTORE POP POP JUMP JUMPDEST PUSH1 0x0 PUSH2 0x5F4 DUP3 PUSH2 0x5B7 JUMP JUMPDEST SWAP2 POP DUP2 SWAP1 POP SWAP2 SWAP1 POP JUMP JUMPDEST PUSH1 0x0 PUSH1 0x20 DUP3 ADD SWAP1 POP PUSH2 0x613 PUSH1 0x0 DUP4 ADD DUP5 PUSH2 0x4F7 JUMP JUMPDEST SWAP3 SWAP2 POP POP JUMP JUMPDEST PUSH1 0x0 PUSH1 0x20 DUP3 ADD SWAP1 POP PUSH2 0x62E PUSH1 0x0 DUP4 ADD DUP5 PUSH2 0x506 JUMP JUMPDEST SWAP3 SWAP2 POP POP JUMP JUMPDEST PUSH1 0x0 PUSH1 0x20 DUP3 ADD SWAP1 POP DUP2 DUP2 SUB PUSH1 0x0 DUP4 ADD MSTORE PUSH2 0x64E DUP2 DUP5 PUSH2 0x515 JUMP JUMPDEST SWAP1 POP SWAP3 SWAP2 POP POP JUMP JUMPDEST PUSH1 0x0 PUSH1 0x20 DUP3 ADD SWAP1 POP DUP2 DUP2 SUB PUSH1 0x0 DUP4 ADD MSTORE PUSH2 0x66F DUP2 PUSH2 0x54E JUMP JUMPDEST SWAP1 POP SWAP2 SWAP1 POP JUMP JUMPDEST PUSH1 0x0 PUSH1 0x20 DUP3 ADD SWAP1 POP DUP2 DUP2 SUB PUSH1 0x0 DUP4 ADD MSTORE PUSH2 0x68F DUP2 PUSH2 0x571 JUMP JUMPDEST SWAP1 POP SWAP2 SWAP1 POP JUMP JUMPDEST PUSH1 0x0 PUSH1 0x20 DUP3 ADD SWAP1 POP DUP2 DUP2 SUB PUSH1 0x0 DUP4 ADD MSTORE PUSH2 0x6AF DUP2 PUSH2 0x594 JUMP JUMPDEST SWAP1 POP SWAP2 SWAP1 POP JUMP JUMPDEST PUSH1 0x0 PUSH1 0x20 DUP3 ADD SWAP1 POP PUSH2 0x6CB PUSH1 0x0 DUP4 ADD DUP5 PUSH2 0x5DA JUMP JUMPDEST SWAP3 SWAP2 POP POP JUMP JUMPDEST PUSH1 0x0 DUP2 MLOAD SWAP1 POP SWAP2 SWAP1 POP JUMP JUMPDEST PUSH1 0x0 DUP2 SWAP1 POP SWAP3 SWAP2 POP POP JUMP JUMPDEST PUSH1 0x0 DUP3 DUP3 MSTORE PUSH1 0x20 DUP3 ADD SWAP1 POP SWAP3 SWAP2 POP POP JUMP JUMPDEST PUSH1 0x0 PUSH2 0x703 DUP3 PUSH2 0x78C JUMP JUMPDEST SWAP2 POP PUSH2 0x70E DUP4 PUSH2 0x78C JUMP JUMPDEST SWAP3 POP DUP3 PUSH32 0xFFFFFFFFFFFFFFFFFFFFFFFFFFFFFFFFFFFFFFFFFFFFFFFFFFFFFFFFFFFFFFFF SUB DUP3 GT ISZERO PUSH2 0x743 JUMPI PUSH2 0x742 PUSH2 0x7FB JUMP JUMPDEST JUMPDEST DUP3 DUP3 ADD SWAP1 POP SWAP3 SWAP2 POP POP JUMP JUMPDEST PUSH1 0x0 PUSH2 0x759 DUP3 PUSH2 0x76C JUMP JUMPDEST SWAP1 POP SWAP2 SWAP1 POP JUMP JUMPDEST PUSH1 0x0 DUP2 ISZERO ISZERO SWAP1 POP SWAP2 SWAP1 POP JUMP JUMPDEST PUSH1 0x0 PUSH20 0xFFFFFFFFFFFFFFFFFFFFFFFFFFFFFFFFFFFFFFFF DUP3 AND SWAP1 POP SWAP2 SWAP1 POP JUMP JUMPDEST PUSH1 0x0 DUP2 SWAP1 POP SWAP2 SWAP1 POP JUMP JUMPDEST PUSH1 0x0 JUMPDEST DUP4 DUP2 LT ISZERO PUSH2 0x7B4 JUMPI DUP1 DUP3 ADD MLOAD DUP2 DUP5 ADD MSTORE PUSH1 0x20 DUP2 ADD SWAP1 POP PUSH2 0x799 JUMP JUMPDEST DUP4 DUP2 GT ISZERO PUSH2 0x7C3 JUMPI PUSH1 0x0 DUP5 DUP5 ADD MSTORE JUMPDEST POP POP POP POP JUMP JUMPDEST PUSH1 0x0 PUSH1 0x2 DUP3 DIV SWAP1 POP PUSH1 0x1 DUP3 AND DUP1 PUSH2 0x7E1 JUMPI PUSH1 0x7F DUP3 AND SWAP2 POP JUMPDEST PUSH1 0x20 DUP3 LT DUP2 EQ ISZERO PUSH2 0x7F5 JUMPI PUSH2 0x7F4 PUSH2 0x82A JUMP JUMPDEST JUMPDEST POP SWAP2 SWAP1 POP JUMP JUMPDEST PUSH32 0x4E487B7100000000000000000000000000000000000000000000000000000000 PUSH1 0x0 MSTORE PUSH1 0x11 PUSH1 0x4 MSTORE PUSH1 0x24 PUSH1 0x0 REVERT JUMPDEST PUSH32 0x4E487B7100000000000000000000000000000000000000000000000000000000 PUSH1 0x0 MSTORE PUSH1 0x22 PUSH1 0x4 MSTORE PUSH1 0x24 PUSH1 0x0 REVERT JUMPDEST PUSH1 0x0 PUSH1 0x1F NOT PUSH1 0x1F DUP4 ADD AND SWAP1 POP SWAP2 SWAP1 POP JUMP JUMPDEST PUSH32 0x596F752063616E6E6F7420646F6E6174652062656C6F7720247B5F6D696E416D PUSH1 0x0 DUP3 ADD MSTORE PUSH32 0x6F756E747D000000000000000000000000000000000000000000000000000000 PUSH1 0x20 DUP3 ADD MSTORE POP JUMP JUMPDEST PUSH32 0x4F6E6C79206F776E6572206F66207468697320646F6E6174696F6E2063616E20 PUSH1 0x0 DUP3 ADD MSTORE PUSH32 0x77697468647261772066726F6D20697400000000000000000000000000000000 PUSH1 0x20 DUP3 ADD MSTORE POP JUMP JUMPDEST PUSH32 0x596F757220646F6E6174696F6E2077696C6C2063726F73732074686520616D6F PUSH1 0x0 DUP3 ADD MSTORE PUSH32 0x756E74206E656564656400000000000000000000000000000000000000000000 PUSH1 0x20 DUP3 ADD MSTORE POP JUMP JUMPDEST POP JUMP INVALID LOG2 PUSH5 0x6970667358 0x22 SLT KECCAK256 0x2D PUSH17 0x2FA22B9AC9BA164364CF14EB749FAFFD3 PUSH25 0xE15BC9BA159EF18F7D7A634264736F6C634300080700330000 "
				},
				"gasEstimates": {
					"creation": {
						"codeDepositCost": "489600",
						"executionCost": "infinite",
						"totalCost": "infinite"
					},
					"external": {
						"_donationName()": "infinite",
						"acceptPaymentAfterAmountMet()": "2516",
						"donate()": "infinite",
						"donationAmountNeeded()": "2496",
						"donationBalance()": "405",
						"donationMinAmount()": "2451",
						"getDonationName()": "infinite",
						"getOwner()": "2572",
						"withdraw()": "infinite"
					}
				},
				"methodIdentifiers": {
					"_donationName()": "354ecc85",
					"acceptPaymentAfterAmountMet()": "798be230",
					"donate()": "ed88c68e",
					"donationAmountNeeded()": "80fdef1b",
					"donationBalance()": "ed11f46a",
					"donationMinAmount()": "b383bf2d",
					"getDonationName()": "eae3f764",
					"getOwner()": "893d20e8",
					"withdraw()": "3ccfd60b"
				}
			},
			"storageLayout": {
				"storage": [
					{
						"astId": 3,
						"contract": "Donation.sol:Donation",
						"label": "_donationName",
						"offset": 0,
						"slot": "0",
						"type": "t_string_storage"
					},
					{
						"astId": 5,
						"contract": "Donation.sol:Donation",
						"label": "donationMinAmount",
						"offset": 0,
						"slot": "1",
						"type": "t_uint256"
					},
					{
						"astId": 7,
						"contract": "Donation.sol:Donation",
						"label": "donationAmountNeeded",
						"offset": 0,
						"slot": "2",
						"type": "t_uint256"
					},
					{
						"astId": 9,
						"contract": "Donation.sol:Donation",
						"label": "acceptPaymentAfterAmountMet",
						"offset": 0,
						"slot": "3",
						"type": "t_bool"
					},
					{
						"astId": 11,
						"contract": "Donation.sol:Donation",
						"label": "_owner",
						"offset": 1,
						"slot": "3",
						"type": "t_address"
					}
				],
				"types": {
					"t_address": {
						"encoding": "inplace",
						"label": "address",
						"numberOfBytes": "20"
					},
					"t_bool": {
						"encoding": "inplace",
						"label": "bool",
						"numberOfBytes": "1"
					},
					"t_string_storage": {
						"encoding": "bytes",
						"label": "string",
						"numberOfBytes": "32"
					},
					"t_uint256": {
						"encoding": "inplace",
						"label": "uint256",
						"numberOfBytes": "32"
					}
				}
			},
			"userdoc": {
				"kind": "user",
				"methods": {},
				"version": 1
			}
		}
	}
}