{
	"Time.sol": {
		"Time": {
			"abi": [
				{
					"inputs": [],
					"stateMutability": "payable",
					"type": "constructor"
				},
				{
					"inputs": [],
					"name": "daysPassedSinceLaunch",
					"outputs": [
						{
							"internalType": "bool",
							"name": "",
							"type": "bool"
						}
					],
					"stateMutability": "view",
					"type": "function"
				},
				{
					"inputs": [],
					"name": "deployedDay",
					"outputs": [
						{
							"internalType": "uint256",
							"name": "",
							"type": "uint256"
						}
					],
					"stateMutability": "view",
					"type": "function"
				},
				{
					"inputs": [
						{
							"internalType": "uint256",
							"name": "time",
							"type": "uint256"
						}
					],
					"name": "getSecondsTime",
					"outputs": [
						{
							"internalType": "uint256",
							"name": "",
							"type": "uint256"
						}
					],
					"stateMutability": "view",
					"type": "function"
				},
				{
					"inputs": [],
					"name": "myBalace",
					"outputs": [
						{
							"internalType": "uint256",
							"name": "",
							"type": "uint256"
						}
					],
					"stateMutability": "nonpayable",
					"type": "function"
				},
				{
					"inputs": [],
					"name": "nowTime",
					"outputs": [
						{
							"internalType": "uint256",
							"name": "",
							"type": "uint256"
						}
					],
					"stateMutability": "view",
					"type": "function"
				},
				{
					"inputs": [],
					"name": "oneMinute",
					"outputs": [
						{
							"internalType": "uint256",
							"name": "",
							"type": "uint256"
						}
					],
					"stateMutability": "view",
					"type": "function"
				},
				{
					"inputs": [],
					"name": "oneSecond",
					"outputs": [
						{
							"internalType": "uint256",
							"name": "",
							"type": "uint256"
						}
					],
					"stateMutability": "view",
					"type": "function"
				},
				{
					"inputs": [],
					"name": "threeHours",
					"outputs": [
						{
							"internalType": "uint256",
							"name": "",
							"type": "uint256"
						}
					],
					"stateMutability": "view",
					"type": "function"
				}
			],
			"devdoc": {
				"kind": "dev",
				"methods": {},
				"version": 1
			},
			"evm": {
				"assembly": "    /* \"Time.sol\":72:843  contract Time {... */\n  mstore(0x40, 0x80)\n    /* \"Time.sol\":118:125  3 hours */\n  0x2a30\n    /* \"Time.sol\":93:125  uint public threeHours = 3 hours */\n  0x00\n  sstore\n    /* \"Time.sol\":155:164  1 minutes */\n  0x3c\n    /* \"Time.sol\":131:164  uint public oneMinute = 1 minutes */\n  0x01\n  sstore\n    /* \"Time.sol\":194:203  1 seconds */\n  0x01\n    /* \"Time.sol\":170:203  uint public oneSecond = 1 seconds */\n  0x02\n  sstore\n    /* \"Time.sol\":287:302  block.timestamp */\n  timestamp\n    /* \"Time.sol\":273:284  deployedDay */\n  0x03\n    /* \"Time.sol\":273:302  deployedDay = block.timestamp */\n  dup2\n  swap1\n  sstore\n  pop\n    /* \"Time.sol\":72:843  contract Time {... */\n  dataSize(sub_0)\n  dup1\n  dataOffset(sub_0)\n  0x00\n  codecopy\n  0x00\n  return\nstop\n\nsub_0: assembly {\n        /* \"Time.sol\":72:843  contract Time {... */\n      mstore(0x40, 0x80)\n      callvalue\n      dup1\n      iszero\n      tag_1\n      jumpi\n      0x00\n      dup1\n      revert\n    tag_1:\n      pop\n      jumpi(tag_2, lt(calldatasize, 0x04))\n      shr(0xe0, calldataload(0x00))\n      dup1\n      0x525f6e1d\n      gt\n      tag_11\n      jumpi\n      dup1\n      0x525f6e1d\n      eq\n      tag_7\n      jumpi\n      dup1\n      0x9e2b5a2f\n      eq\n      tag_8\n      jumpi\n      dup1\n      0xcc44b07d\n      eq\n      tag_9\n      jumpi\n      dup1\n      0xe17fd0ef\n      eq\n      tag_10\n      jumpi\n      jump(tag_2)\n    tag_11:\n      dup1\n      0x21ed4b27\n      eq\n      tag_3\n      jumpi\n      dup1\n      0x335f1b37\n      eq\n      tag_4\n      jumpi\n      dup1\n      0x3f16ae34\n      eq\n      tag_5\n      jumpi\n      dup1\n      0x469df505\n      eq\n      tag_6\n      jumpi\n    tag_2:\n      0x00\n      dup1\n      revert\n        /* \"Time.sol\":170:203  uint public oneSecond = 1 seconds */\n    tag_3:\n      tag_12\n      tag_13\n      jump\t// in\n    tag_12:\n      mload(0x40)\n      tag_14\n      swap2\n      swap1\n      tag_15\n      jump\t// in\n    tag_14:\n      mload(0x40)\n      dup1\n      swap2\n      sub\n      swap1\n      return\n        /* \"Time.sol\":316:400  function nowTime() view public returns(uint) {... */\n    tag_4:\n      tag_16\n      tag_17\n      jump\t// in\n    tag_16:\n      mload(0x40)\n      tag_18\n      swap2\n      swap1\n      tag_15\n      jump\t// in\n    tag_18:\n      mload(0x40)\n      dup1\n      swap2\n      sub\n      swap1\n      return\n        /* \"Time.sol\":514:742  function daysPassedSinceLaunch() view public returns(bool) {... */\n    tag_5:\n      tag_19\n      tag_20\n      jump\t// in\n    tag_19:\n      mload(0x40)\n      tag_21\n      swap2\n      swap1\n      tag_22\n      jump\t// in\n    tag_21:\n      mload(0x40)\n      dup1\n      swap2\n      sub\n      swap1\n      return\n        /* \"Time.sol\":131:164  uint public oneMinute = 1 minutes */\n    tag_6:\n      tag_23\n      tag_24\n      jump\t// in\n    tag_23:\n      mload(0x40)\n      tag_25\n      swap2\n      swap1\n      tag_15\n      jump\t// in\n    tag_25:\n      mload(0x40)\n      dup1\n      swap2\n      sub\n      swap1\n      return\n        /* \"Time.sol\":210:233  uint public deployedDay */\n    tag_7:\n      tag_26\n      tag_27\n      jump\t// in\n    tag_26:\n      mload(0x40)\n      tag_28\n      swap2\n      swap1\n      tag_15\n      jump\t// in\n    tag_28:\n      mload(0x40)\n      dup1\n      swap2\n      sub\n      swap1\n      return\n        /* \"Time.sol\":406:508  function getSecondsTime(uint time) view public returns(uint) {... */\n    tag_8:\n      tag_29\n      0x04\n      dup1\n      calldatasize\n      sub\n      dup2\n      add\n      swap1\n      tag_30\n      swap2\n      swap1\n      tag_31\n      jump\t// in\n    tag_30:\n      tag_32\n      jump\t// in\n    tag_29:\n      mload(0x40)\n      tag_33\n      swap2\n      swap1\n      tag_15\n      jump\t// in\n    tag_33:\n      mload(0x40)\n      dup1\n      swap2\n      sub\n      swap1\n      return\n        /* \"Time.sol\":93:125  uint public threeHours = 3 hours */\n    tag_9:\n      tag_34\n      tag_35\n      jump\t// in\n    tag_34:\n      mload(0x40)\n      tag_36\n      swap2\n      swap1\n      tag_15\n      jump\t// in\n    tag_36:\n      mload(0x40)\n      dup1\n      swap2\n      sub\n      swap1\n      return\n        /* \"Time.sol\":748:841  function myBalace()  public returns(uint) {... */\n    tag_10:\n      tag_37\n      tag_38\n      jump\t// in\n    tag_37:\n      mload(0x40)\n      tag_39\n      swap2\n      swap1\n      tag_15\n      jump\t// in\n    tag_39:\n      mload(0x40)\n      dup1\n      swap2\n      sub\n      swap1\n      return\n        /* \"Time.sol\":170:203  uint public oneSecond = 1 seconds */\n    tag_13:\n      sload(0x02)\n      dup2\n      jump\t// out\n        /* \"Time.sol\":316:400  function nowTime() view public returns(uint) {... */\n    tag_17:\n        /* \"Time.sol\":355:359  uint */\n      0x00\n        /* \"Time.sol\":378:393  block.timestamp */\n      timestamp\n        /* \"Time.sol\":371:393  return block.timestamp */\n      swap1\n      pop\n        /* \"Time.sol\":316:400  function nowTime() view public returns(uint) {... */\n      swap1\n      jump\t// out\n        /* \"Time.sol\":514:742  function daysPassedSinceLaunch() view public returns(bool) {... */\n    tag_20:\n        /* \"Time.sol\":567:571  bool */\n      0x00\n        /* \"Time.sol\":583:594  uint date_1 */\n      dup1\n        /* \"Time.sol\":597:607  1638352800 */\n      0x61a747a0\n        /* \"Time.sol\":583:607  uint date_1 = 1638352800 */\n      swap1\n      pop\n        /* \"Time.sol\":640:651  uint date_2 */\n      0x00\n        /* \"Time.sol\":672:678  1 days */\n      0x015180\n        /* \"Time.sol\":654:669  block.timestamp */\n      timestamp\n        /* \"Time.sol\":654:678  block.timestamp + 1 days */\n      tag_42\n      swap2\n      swap1\n      tag_43\n      jump\t// in\n    tag_42:\n        /* \"Time.sol\":640:678  uint date_2 = block.timestamp + 1 days */\n      swap1\n      pop\n        /* \"Time.sol\":728:734  date_2 */\n      dup1\n        /* \"Time.sol\":719:725  date_1 */\n      dup3\n        /* \"Time.sol\":719:734  date_1 > date_2 */\n      gt\n        /* \"Time.sol\":711:735  return (date_1 > date_2) */\n      swap3\n      pop\n      pop\n      pop\n        /* \"Time.sol\":514:742  function daysPassedSinceLaunch() view public returns(bool) {... */\n      swap1\n      jump\t// out\n        /* \"Time.sol\":131:164  uint public oneMinute = 1 minutes */\n    tag_24:\n      sload(0x01)\n      dup2\n      jump\t// out\n        /* \"Time.sol\":210:233  uint public deployedDay */\n    tag_27:\n      sload(0x03)\n      dup2\n      jump\t// out\n        /* \"Time.sol\":406:508  function getSecondsTime(uint time) view public returns(uint) {... */\n    tag_32:\n        /* \"Time.sol\":461:465  uint */\n      0x00\n        /* \"Time.sol\":491:501  threeHours */\n      dup1\n      sload\n        /* \"Time.sol\":484:488  time */\n      dup3\n        /* \"Time.sol\":484:501  time * threeHours */\n      tag_45\n      swap2\n      swap1\n      tag_46\n      jump\t// in\n    tag_45:\n        /* \"Time.sol\":477:501  return time * threeHours */\n      swap1\n      pop\n        /* \"Time.sol\":406:508  function getSecondsTime(uint time) view public returns(uint) {... */\n      swap2\n      swap1\n      pop\n      jump\t// out\n        /* \"Time.sol\":93:125  uint public threeHours = 3 hours */\n    tag_35:\n      sload(0x00)\n      dup2\n      jump\t// out\n        /* \"Time.sol\":748:841  function myBalace()  public returns(uint) {... */\n    tag_38:\n        /* \"Time.sol\":784:788  uint */\n      0x00\n        /* \"Time.sol\":815:825  msg.sender */\n      caller\n        /* \"Time.sol\":807:834  address(msg.sender).balance */\n      0xffffffffffffffffffffffffffffffffffffffff\n      and\n      balance\n        /* \"Time.sol\":800:834  return address(msg.sender).balance */\n      swap1\n      pop\n        /* \"Time.sol\":748:841  function myBalace()  public returns(uint) {... */\n      swap1\n      jump\t// out\n        /* \"#utility.yul\":7:146   */\n    tag_49:\n        /* \"#utility.yul\":53:58   */\n      0x00\n        /* \"#utility.yul\":91:97   */\n      dup2\n        /* \"#utility.yul\":78:98   */\n      calldataload\n        /* \"#utility.yul\":69:98   */\n      swap1\n      pop\n        /* \"#utility.yul\":107:140   */\n      tag_51\n        /* \"#utility.yul\":134:139   */\n      dup2\n        /* \"#utility.yul\":107:140   */\n      tag_52\n      jump\t// in\n    tag_51:\n        /* \"#utility.yul\":7:146   */\n      swap3\n      swap2\n      pop\n      pop\n      jump\t// out\n        /* \"#utility.yul\":152:481   */\n    tag_31:\n        /* \"#utility.yul\":211:217   */\n      0x00\n        /* \"#utility.yul\":260:262   */\n      0x20\n        /* \"#utility.yul\":248:257   */\n      dup3\n        /* \"#utility.yul\":239:246   */\n      dup5\n        /* \"#utility.yul\":235:258   */\n      sub\n        /* \"#utility.yul\":231:263   */\n      slt\n        /* \"#utility.yul\":228:347   */\n      iszero\n      tag_54\n      jumpi\n        /* \"#utility.yul\":266:345   */\n      tag_55\n      tag_56\n      jump\t// in\n    tag_55:\n        /* \"#utility.yul\":228:347   */\n    tag_54:\n        /* \"#utility.yul\":386:387   */\n      0x00\n        /* \"#utility.yul\":411:464   */\n      tag_57\n        /* \"#utility.yul\":456:463   */\n      dup5\n        /* \"#utility.yul\":447:453   */\n      dup3\n        /* \"#utility.yul\":436:445   */\n      dup6\n        /* \"#utility.yul\":432:454   */\n      add\n        /* \"#utility.yul\":411:464   */\n      tag_49\n      jump\t// in\n    tag_57:\n        /* \"#utility.yul\":401:464   */\n      swap2\n      pop\n        /* \"#utility.yul\":357:474   */\n      pop\n        /* \"#utility.yul\":152:481   */\n      swap3\n      swap2\n      pop\n      pop\n      jump\t// out\n        /* \"#utility.yul\":487:596   */\n    tag_58:\n        /* \"#utility.yul\":568:589   */\n      tag_60\n        /* \"#utility.yul\":583:588   */\n      dup2\n        /* \"#utility.yul\":568:589   */\n      tag_61\n      jump\t// in\n    tag_60:\n        /* \"#utility.yul\":563:566   */\n      dup3\n        /* \"#utility.yul\":556:590   */\n      mstore\n        /* \"#utility.yul\":487:596   */\n      pop\n      pop\n      jump\t// out\n        /* \"#utility.yul\":602:720   */\n    tag_62:\n        /* \"#utility.yul\":689:713   */\n      tag_64\n        /* \"#utility.yul\":707:712   */\n      dup2\n        /* \"#utility.yul\":689:713   */\n      tag_65\n      jump\t// in\n    tag_64:\n        /* \"#utility.yul\":684:687   */\n      dup3\n        /* \"#utility.yul\":677:714   */\n      mstore\n        /* \"#utility.yul\":602:720   */\n      pop\n      pop\n      jump\t// out\n        /* \"#utility.yul\":726:936   */\n    tag_22:\n        /* \"#utility.yul\":813:817   */\n      0x00\n        /* \"#utility.yul\":851:853   */\n      0x20\n        /* \"#utility.yul\":840:849   */\n      dup3\n        /* \"#utility.yul\":836:854   */\n      add\n        /* \"#utility.yul\":828:854   */\n      swap1\n      pop\n        /* \"#utility.yul\":864:929   */\n      tag_67\n        /* \"#utility.yul\":926:927   */\n      0x00\n        /* \"#utility.yul\":915:924   */\n      dup4\n        /* \"#utility.yul\":911:928   */\n      add\n        /* \"#utility.yul\":902:908   */\n      dup5\n        /* \"#utility.yul\":864:929   */\n      tag_58\n      jump\t// in\n    tag_67:\n        /* \"#utility.yul\":726:936   */\n      swap3\n      swap2\n      pop\n      pop\n      jump\t// out\n        /* \"#utility.yul\":942:1164   */\n    tag_15:\n        /* \"#utility.yul\":1035:1039   */\n      0x00\n        /* \"#utility.yul\":1073:1075   */\n      0x20\n        /* \"#utility.yul\":1062:1071   */\n      dup3\n        /* \"#utility.yul\":1058:1076   */\n      add\n        /* \"#utility.yul\":1050:1076   */\n      swap1\n      pop\n        /* \"#utility.yul\":1086:1157   */\n      tag_69\n        /* \"#utility.yul\":1154:1155   */\n      0x00\n        /* \"#utility.yul\":1143:1152   */\n      dup4\n        /* \"#utility.yul\":1139:1156   */\n      add\n        /* \"#utility.yul\":1130:1136   */\n      dup5\n        /* \"#utility.yul\":1086:1157   */\n      tag_62\n      jump\t// in\n    tag_69:\n        /* \"#utility.yul\":942:1164   */\n      swap3\n      swap2\n      pop\n      pop\n      jump\t// out\n        /* \"#utility.yul\":1251:1556   */\n    tag_43:\n        /* \"#utility.yul\":1291:1294   */\n      0x00\n        /* \"#utility.yul\":1310:1330   */\n      tag_73\n        /* \"#utility.yul\":1328:1329   */\n      dup3\n        /* \"#utility.yul\":1310:1330   */\n      tag_65\n      jump\t// in\n    tag_73:\n        /* \"#utility.yul\":1305:1330   */\n      swap2\n      pop\n        /* \"#utility.yul\":1344:1364   */\n      tag_74\n        /* \"#utility.yul\":1362:1363   */\n      dup4\n        /* \"#utility.yul\":1344:1364   */\n      tag_65\n      jump\t// in\n    tag_74:\n        /* \"#utility.yul\":1339:1364   */\n      swap3\n      pop\n        /* \"#utility.yul\":1498:1499   */\n      dup3\n        /* \"#utility.yul\":1430:1496   */\n      0xffffffffffffffffffffffffffffffffffffffffffffffffffffffffffffffff\n        /* \"#utility.yul\":1426:1500   */\n      sub\n        /* \"#utility.yul\":1423:1424   */\n      dup3\n        /* \"#utility.yul\":1420:1501   */\n      gt\n        /* \"#utility.yul\":1417:1524   */\n      iszero\n      tag_75\n      jumpi\n        /* \"#utility.yul\":1504:1522   */\n      tag_76\n      tag_77\n      jump\t// in\n    tag_76:\n        /* \"#utility.yul\":1417:1524   */\n    tag_75:\n        /* \"#utility.yul\":1548:1549   */\n      dup3\n        /* \"#utility.yul\":1545:1546   */\n      dup3\n        /* \"#utility.yul\":1541:1550   */\n      add\n        /* \"#utility.yul\":1534:1550   */\n      swap1\n      pop\n        /* \"#utility.yul\":1251:1556   */\n      swap3\n      swap2\n      pop\n      pop\n      jump\t// out\n        /* \"#utility.yul\":1562:1910   */\n    tag_46:\n        /* \"#utility.yul\":1602:1609   */\n      0x00\n        /* \"#utility.yul\":1625:1645   */\n      tag_79\n        /* \"#utility.yul\":1643:1644   */\n      dup3\n        /* \"#utility.yul\":1625:1645   */\n      tag_65\n      jump\t// in\n    tag_79:\n        /* \"#utility.yul\":1620:1645   */\n      swap2\n      pop\n        /* \"#utility.yul\":1659:1679   */\n      tag_80\n        /* \"#utility.yul\":1677:1678   */\n      dup4\n        /* \"#utility.yul\":1659:1679   */\n      tag_65\n      jump\t// in\n    tag_80:\n        /* \"#utility.yul\":1654:1679   */\n      swap3\n      pop\n        /* \"#utility.yul\":1847:1848   */\n      dup2\n        /* \"#utility.yul\":1779:1845   */\n      0xffffffffffffffffffffffffffffffffffffffffffffffffffffffffffffffff\n        /* \"#utility.yul\":1775:1849   */\n      div\n        /* \"#utility.yul\":1772:1773   */\n      dup4\n        /* \"#utility.yul\":1769:1850   */\n      gt\n        /* \"#utility.yul\":1764:1765   */\n      dup3\n        /* \"#utility.yul\":1757:1766   */\n      iszero\n        /* \"#utility.yul\":1750:1767   */\n      iszero\n        /* \"#utility.yul\":1746:1851   */\n      and\n        /* \"#utility.yul\":1743:1874   */\n      iszero\n      tag_81\n      jumpi\n        /* \"#utility.yul\":1854:1872   */\n      tag_82\n      tag_77\n      jump\t// in\n    tag_82:\n        /* \"#utility.yul\":1743:1874   */\n    tag_81:\n        /* \"#utility.yul\":1902:1903   */\n      dup3\n        /* \"#utility.yul\":1899:1900   */\n      dup3\n        /* \"#utility.yul\":1895:1904   */\n      mul\n        /* \"#utility.yul\":1884:1904   */\n      swap1\n      pop\n        /* \"#utility.yul\":1562:1910   */\n      swap3\n      swap2\n      pop\n      pop\n      jump\t// out\n        /* \"#utility.yul\":1916:2006   */\n    tag_61:\n        /* \"#utility.yul\":1950:1957   */\n      0x00\n        /* \"#utility.yul\":1993:1998   */\n      dup2\n        /* \"#utility.yul\":1986:1999   */\n      iszero\n        /* \"#utility.yul\":1979:2000   */\n      iszero\n        /* \"#utility.yul\":1968:2000   */\n      swap1\n      pop\n        /* \"#utility.yul\":1916:2006   */\n      swap2\n      swap1\n      pop\n      jump\t// out\n        /* \"#utility.yul\":2012:2089   */\n    tag_65:\n        /* \"#utility.yul\":2049:2056   */\n      0x00\n        /* \"#utility.yul\":2078:2083   */\n      dup2\n        /* \"#utility.yul\":2067:2083   */\n      swap1\n      pop\n        /* \"#utility.yul\":2012:2089   */\n      swap2\n      swap1\n      pop\n      jump\t// out\n        /* \"#utility.yul\":2095:2275   */\n    tag_77:\n        /* \"#utility.yul\":2143:2220   */\n      0x4e487b7100000000000000000000000000000000000000000000000000000000\n        /* \"#utility.yul\":2140:2141   */\n      0x00\n        /* \"#utility.yul\":2133:2221   */\n      mstore\n        /* \"#utility.yul\":2240:2244   */\n      0x11\n        /* \"#utility.yul\":2237:2238   */\n      0x04\n        /* \"#utility.yul\":2230:2245   */\n      mstore\n        /* \"#utility.yul\":2264:2268   */\n      0x24\n        /* \"#utility.yul\":2261:2262   */\n      0x00\n        /* \"#utility.yul\":2254:2269   */\n      revert\n        /* \"#utility.yul\":2404:2521   */\n    tag_56:\n        /* \"#utility.yul\":2513:2514   */\n      0x00\n        /* \"#utility.yul\":2510:2511   */\n      dup1\n        /* \"#utility.yul\":2503:2515   */\n      revert\n        /* \"#utility.yul\":2527:2649   */\n    tag_52:\n        /* \"#utility.yul\":2600:2624   */\n      tag_90\n        /* \"#utility.yul\":2618:2623   */\n      dup2\n        /* \"#utility.yul\":2600:2624   */\n      tag_65\n      jump\t// in\n    tag_90:\n        /* \"#utility.yul\":2593:2598   */\n      dup2\n        /* \"#utility.yul\":2590:2625   */\n      eq\n        /* \"#utility.yul\":2580:2643   */\n      tag_91\n      jumpi\n        /* \"#utility.yul\":2639:2640   */\n      0x00\n        /* \"#utility.yul\":2636:2637   */\n      dup1\n        /* \"#utility.yul\":2629:2641   */\n      revert\n        /* \"#utility.yul\":2580:2643   */\n    tag_91:\n        /* \"#utility.yul\":2527:2649   */\n      pop\n      jump\t// out\n\n    auxdata: 0xa2646970667358221220bb2dcdbf00ab8a2f57fbbba76dfd86c8376e9e88ec5cab82b24b6a8653e4424164736f6c63430008070033\n}\n",
				"bytecode": {
					"linkReferences": {},
					"object": "6080604052612a30600055603c6001556001600255426003819055506103e88061002a6000396000f3fe608060405234801561001057600080fd5b50600436106100885760003560e01c8063525f6e1d1161005b578063525f6e1d146101055780639e2b5a2f14610123578063cc44b07d14610153578063e17fd0ef1461017157610088565b806321ed4b271461008d578063335f1b37146100ab5780633f16ae34146100c9578063469df505146100e7575b600080fd5b61009561018f565b6040516100a29190610286565b60405180910390f35b6100b3610195565b6040516100c09190610286565b60405180910390f35b6100d161019d565b6040516100de919061026b565b60405180910390f35b6100ef6101c4565b6040516100fc9190610286565b60405180910390f35b61010d6101ca565b60405161011a9190610286565b60405180910390f35b61013d60048036038101906101389190610220565b6101d0565b60405161014a9190610286565b60405180910390f35b61015b6101e6565b6040516101689190610286565b60405180910390f35b6101796101ec565b6040516101869190610286565b60405180910390f35b60025481565b600042905090565b6000806361a747a09050600062015180426101b891906102a1565b90508082119250505090565b60015481565b60035481565b60008054826101df91906102f7565b9050919050565b60005481565b60003373ffffffffffffffffffffffffffffffffffffffff1631905090565b60008135905061021a8161039b565b92915050565b60006020828403121561023657610235610396565b5b60006102448482850161020b565b91505092915050565b61025681610351565b82525050565b6102658161035d565b82525050565b6000602082019050610280600083018461024d565b92915050565b600060208201905061029b600083018461025c565b92915050565b60006102ac8261035d565b91506102b78361035d565b9250827fffffffffffffffffffffffffffffffffffffffffffffffffffffffffffffffff038211156102ec576102eb610367565b5b828201905092915050565b60006103028261035d565b915061030d8361035d565b9250817fffffffffffffffffffffffffffffffffffffffffffffffffffffffffffffffff048311821515161561034657610345610367565b5b828202905092915050565b60008115159050919050565b6000819050919050565b7f4e487b7100000000000000000000000000000000000000000000000000000000600052601160045260246000fd5b600080fd5b6103a48161035d565b81146103af57600080fd5b5056fea2646970667358221220bb2dcdbf00ab8a2f57fbbba76dfd86c8376e9e88ec5cab82b24b6a8653e4424164736f6c63430008070033",
					"opcodes": "PUSH1 0x80 PUSH1 0x40 MSTORE PUSH2 0x2A30 PUSH1 0x0 SSTORE PUSH1 0x3C PUSH1 0x1 SSTORE PUSH1 0x1 PUSH1 0x2 SSTORE TIMESTAMP PUSH1 0x3 DUP2 SWAP1 SSTORE POP PUSH2 0x3E8 DUP1 PUSH2 0x2A PUSH1 0x0 CODECOPY PUSH1 0x0 RETURN INVALID PUSH1 0x80 PUSH1 0x40 MSTORE CALLVALUE DUP1 ISZERO PUSH2 0x10 JUMPI PUSH1 0x0 DUP1 REVERT JUMPDEST POP PUSH1 0x4 CALLDATASIZE LT PUSH2 0x88 JUMPI PUSH1 0x0 CALLDATALOAD PUSH1 0xE0 SHR DUP1 PUSH4 0x525F6E1D GT PUSH2 0x5B JUMPI DUP1 PUSH4 0x525F6E1D EQ PUSH2 0x105 JUMPI DUP1 PUSH4 0x9E2B5A2F EQ PUSH2 0x123 JUMPI DUP1 PUSH4 0xCC44B07D EQ PUSH2 0x153 JUMPI DUP1 PUSH4 0xE17FD0EF EQ PUSH2 0x171 JUMPI PUSH2 0x88 JUMP JUMPDEST DUP1 PUSH4 0x21ED4B27 EQ PUSH2 0x8D JUMPI DUP1 PUSH4 0x335F1B37 EQ PUSH2 0xAB JUMPI DUP1 PUSH4 0x3F16AE34 EQ PUSH2 0xC9 JUMPI DUP1 PUSH4 0x469DF505 EQ PUSH2 0xE7 JUMPI JUMPDEST PUSH1 0x0 DUP1 REVERT JUMPDEST PUSH2 0x95 PUSH2 0x18F JUMP JUMPDEST PUSH1 0x40 MLOAD PUSH2 0xA2 SWAP2 SWAP1 PUSH2 0x286 JUMP JUMPDEST PUSH1 0x40 MLOAD DUP1 SWAP2 SUB SWAP1 RETURN JUMPDEST PUSH2 0xB3 PUSH2 0x195 JUMP JUMPDEST PUSH1 0x40 MLOAD PUSH2 0xC0 SWAP2 SWAP1 PUSH2 0x286 JUMP JUMPDEST PUSH1 0x40 MLOAD DUP1 SWAP2 SUB SWAP1 RETURN JUMPDEST PUSH2 0xD1 PUSH2 0x19D JUMP JUMPDEST PUSH1 0x40 MLOAD PUSH2 0xDE SWAP2 SWAP1 PUSH2 0x26B JUMP JUMPDEST PUSH1 0x40 MLOAD DUP1 SWAP2 SUB SWAP1 RETURN JUMPDEST PUSH2 0xEF PUSH2 0x1C4 JUMP JUMPDEST PUSH1 0x40 MLOAD PUSH2 0xFC SWAP2 SWAP1 PUSH2 0x286 JUMP JUMPDEST PUSH1 0x40 MLOAD DUP1 SWAP2 SUB SWAP1 RETURN JUMPDEST PUSH2 0x10D PUSH2 0x1CA JUMP JUMPDEST PUSH1 0x40 MLOAD PUSH2 0x11A SWAP2 SWAP1 PUSH2 0x286 JUMP JUMPDEST PUSH1 0x40 MLOAD DUP1 SWAP2 SUB SWAP1 RETURN JUMPDEST PUSH2 0x13D PUSH1 0x4 DUP1 CALLDATASIZE SUB DUP2 ADD SWAP1 PUSH2 0x138 SWAP2 SWAP1 PUSH2 0x220 JUMP JUMPDEST PUSH2 0x1D0 JUMP JUMPDEST PUSH1 0x40 MLOAD PUSH2 0x14A SWAP2 SWAP1 PUSH2 0x286 JUMP JUMPDEST PUSH1 0x40 MLOAD DUP1 SWAP2 SUB SWAP1 RETURN JUMPDEST PUSH2 0x15B PUSH2 0x1E6 JUMP JUMPDEST PUSH1 0x40 MLOAD PUSH2 0x168 SWAP2 SWAP1 PUSH2 0x286 JUMP JUMPDEST PUSH1 0x40 MLOAD DUP1 SWAP2 SUB SWAP1 RETURN JUMPDEST PUSH2 0x179 PUSH2 0x1EC JUMP JUMPDEST PUSH1 0x40 MLOAD PUSH2 0x186 SWAP2 SWAP1 PUSH2 0x286 JUMP JUMPDEST PUSH1 0x40 MLOAD DUP1 SWAP2 SUB SWAP1 RETURN JUMPDEST PUSH1 0x2 SLOAD DUP2 JUMP JUMPDEST PUSH1 0x0 TIMESTAMP SWAP1 POP SWAP1 JUMP JUMPDEST PUSH1 0x0 DUP1 PUSH4 0x61A747A0 SWAP1 POP PUSH1 0x0 PUSH3 0x15180 TIMESTAMP PUSH2 0x1B8 SWAP2 SWAP1 PUSH2 0x2A1 JUMP JUMPDEST SWAP1 POP DUP1 DUP3 GT SWAP3 POP POP POP SWAP1 JUMP JUMPDEST PUSH1 0x1 SLOAD DUP2 JUMP JUMPDEST PUSH1 0x3 SLOAD DUP2 JUMP JUMPDEST PUSH1 0x0 DUP1 SLOAD DUP3 PUSH2 0x1DF SWAP2 SWAP1 PUSH2 0x2F7 JUMP JUMPDEST SWAP1 POP SWAP2 SWAP1 POP JUMP JUMPDEST PUSH1 0x0 SLOAD DUP2 JUMP JUMPDEST PUSH1 0x0 CALLER PUSH20 0xFFFFFFFFFFFFFFFFFFFFFFFFFFFFFFFFFFFFFFFF AND BALANCE SWAP1 POP SWAP1 JUMP JUMPDEST PUSH1 0x0 DUP2 CALLDATALOAD SWAP1 POP PUSH2 0x21A DUP2 PUSH2 0x39B JUMP JUMPDEST SWAP3 SWAP2 POP POP JUMP JUMPDEST PUSH1 0x0 PUSH1 0x20 DUP3 DUP5 SUB SLT ISZERO PUSH2 0x236 JUMPI PUSH2 0x235 PUSH2 0x396 JUMP JUMPDEST JUMPDEST PUSH1 0x0 PUSH2 0x244 DUP5 DUP3 DUP6 ADD PUSH2 0x20B JUMP JUMPDEST SWAP2 POP POP SWAP3 SWAP2 POP POP JUMP JUMPDEST PUSH2 0x256 DUP2 PUSH2 0x351 JUMP JUMPDEST DUP3 MSTORE POP POP JUMP JUMPDEST PUSH2 0x265 DUP2 PUSH2 0x35D JUMP JUMPDEST DUP3 MSTORE POP POP JUMP JUMPDEST PUSH1 0x0 PUSH1 0x20 DUP3 ADD SWAP1 POP PUSH2 0x280 PUSH1 0x0 DUP4 ADD DUP5 PUSH2 0x24D JUMP JUMPDEST SWAP3 SWAP2 POP POP JUMP JUMPDEST PUSH1 0x0 PUSH1 0x20 DUP3 ADD SWAP1 POP PUSH2 0x29B PUSH1 0x0 DUP4 ADD DUP5 PUSH2 0x25C JUMP JUMPDEST SWAP3 SWAP2 POP POP JUMP JUMPDEST PUSH1 0x0 PUSH2 0x2AC DUP3 PUSH2 0x35D JUMP JUMPDEST SWAP2 POP PUSH2 0x2B7 DUP4 PUSH2 0x35D JUMP JUMPDEST SWAP3 POP DUP3 PUSH32 0xFFFFFFFFFFFFFFFFFFFFFFFFFFFFFFFFFFFFFFFFFFFFFFFFFFFFFFFFFFFFFFFF SUB DUP3 GT ISZERO PUSH2 0x2EC JUMPI PUSH2 0x2EB PUSH2 0x367 JUMP JUMPDEST JUMPDEST DUP3 DUP3 ADD SWAP1 POP SWAP3 SWAP2 POP POP JUMP JUMPDEST PUSH1 0x0 PUSH2 0x302 DUP3 PUSH2 0x35D JUMP JUMPDEST SWAP2 POP PUSH2 0x30D DUP4 PUSH2 0x35D JUMP JUMPDEST SWAP3 POP DUP2 PUSH32 0xFFFFFFFFFFFFFFFFFFFFFFFFFFFFFFFFFFFFFFFFFFFFFFFFFFFFFFFFFFFFFFFF DIV DUP4 GT DUP3 ISZERO ISZERO AND ISZERO PUSH2 0x346 JUMPI PUSH2 0x345 PUSH2 0x367 JUMP JUMPDEST JUMPDEST DUP3 DUP3 MUL SWAP1 POP SWAP3 SWAP2 POP POP JUMP JUMPDEST PUSH1 0x0 DUP2 ISZERO ISZERO SWAP1 POP SWAP2 SWAP1 POP JUMP JUMPDEST PUSH1 0x0 DUP2 SWAP1 POP SWAP2 SWAP1 POP JUMP JUMPDEST PUSH32 0x4E487B7100000000000000000000000000000000000000000000000000000000 PUSH1 0x0 MSTORE PUSH1 0x11 PUSH1 0x4 MSTORE PUSH1 0x24 PUSH1 0x0 REVERT JUMPDEST PUSH1 0x0 DUP1 REVERT JUMPDEST PUSH2 0x3A4 DUP2 PUSH2 0x35D JUMP JUMPDEST DUP2 EQ PUSH2 0x3AF JUMPI PUSH1 0x0 DUP1 REVERT JUMPDEST POP JUMP INVALID LOG2 PUSH5 0x6970667358 0x22 SLT KECCAK256 0xBB 0x2D 0xCD 0xBF STOP 0xAB DUP11 0x2F JUMPI 0xFB 0xBB 0xA7 PUSH14 0xFD86C8376E9E88EC5CAB82B24B6A DUP7 MSTORE8 0xE4 TIMESTAMP COINBASE PUSH5 0x736F6C6343 STOP ADDMOD SMOD STOP CALLER "
				},
				"gasEstimates": {
					"creation": {
						"codeDepositCost": "200000",
						"executionCost": "88652",
						"totalCost": "288652"
					},
					"external": {
						"daysPassedSinceLaunch()": "infinite",
						"deployedDay()": "2429",
						"getSecondsTime(uint256)": "infinite",
						"myBalace()": "3008",
						"nowTime()": "359",
						"oneMinute()": "2496",
						"oneSecond()": "2430",
						"threeHours()": "2473"
					}
				},
				"methodIdentifiers": {
					"daysPassedSinceLaunch()": "3f16ae34",
					"deployedDay()": "525f6e1d",
					"getSecondsTime(uint256)": "9e2b5a2f",
					"myBalace()": "e17fd0ef",
					"nowTime()": "335f1b37",
					"oneMinute()": "469df505",
					"oneSecond()": "21ed4b27",
					"threeHours()": "cc44b07d"
				}
			},
			"storageLayout": {
				"storage": [
					{
						"astId": 4,
						"contract": "Time.sol:Time",
						"label": "threeHours",
						"offset": 0,
						"slot": "0",
						"type": "t_uint256"
					},
					{
						"astId": 7,
						"contract": "Time.sol:Time",
						"label": "oneMinute",
						"offset": 0,
						"slot": "1",
						"type": "t_uint256"
					},
					{
						"astId": 10,
						"contract": "Time.sol:Time",
						"label": "oneSecond",
						"offset": 0,
						"slot": "2",
						"type": "t_uint256"
					},
					{
						"astId": 12,
						"contract": "Time.sol:Time",
						"label": "deployedDay",
						"offset": 0,
						"slot": "3",
						"type": "t_uint256"
					}
				],
				"types": {
					"t_uint256": {
						"encoding": "inplace",
						"label": "uint256",
						"numberOfBytes": "32"
					}
				}
			},
			"userdoc": {
				"kind": "user",
				"methods": {},
				"version": 1
			}
		}
	}
}