{
	"Time.sol": {
		"Time": {
			"abi": [
				{
					"inputs": [],
					"stateMutability": "payable",
					"type": "constructor"
				},
				{
					"inputs": [],
					"name": "daysPassedSinceLaunch",
					"outputs": [
						{
							"internalType": "uint256",
							"name": "",
							"type": "uint256"
						}
					],
					"stateMutability": "pure",
					"type": "function"
				},
				{
					"inputs": [],
					"name": "deployedDay",
					"outputs": [
						{
							"internalType": "uint256",
							"name": "",
							"type": "uint256"
						}
					],
					"stateMutability": "view",
					"type": "function"
				},
				{
					"inputs": [
						{
							"internalType": "uint256",
							"name": "time",
							"type": "uint256"
						}
					],
					"name": "getSecondsTime",
					"outputs": [
						{
							"internalType": "uint256",
							"name": "",
							"type": "uint256"
						}
					],
					"stateMutability": "view",
					"type": "function"
				},
				{
					"inputs": [],
					"name": "nowTime",
					"outputs": [
						{
							"internalType": "uint256",
							"name": "",
							"type": "uint256"
						}
					],
					"stateMutability": "view",
					"type": "function"
				},
				{
					"inputs": [],
					"name": "oneMinute",
					"outputs": [
						{
							"internalType": "uint256",
							"name": "",
							"type": "uint256"
						}
					],
					"stateMutability": "view",
					"type": "function"
				},
				{
					"inputs": [],
					"name": "oneSecond",
					"outputs": [
						{
							"internalType": "uint256",
							"name": "",
							"type": "uint256"
						}
					],
					"stateMutability": "view",
					"type": "function"
				},
				{
					"inputs": [],
					"name": "threeHours",
					"outputs": [
						{
							"internalType": "uint256",
							"name": "",
							"type": "uint256"
						}
					],
					"stateMutability": "view",
					"type": "function"
				}
			],
			"devdoc": {
				"kind": "dev",
				"methods": {},
				"version": 1
			},
			"evm": {
				"assembly": "    /* \"Time.sol\":72:722  contract Time {... */\n  mstore(0x40, 0x80)\n    /* \"Time.sol\":118:125  3 hours */\n  0x2a30\n    /* \"Time.sol\":93:125  uint public threeHours = 3 hours */\n  0x00\n  sstore\n    /* \"Time.sol\":155:164  1 minutes */\n  0x3c\n    /* \"Time.sol\":131:164  uint public oneMinute = 1 minutes */\n  0x01\n  sstore\n    /* \"Time.sol\":194:203  1 seconds */\n  0x01\n    /* \"Time.sol\":170:203  uint public oneSecond = 1 seconds */\n  0x02\n  sstore\n    /* \"Time.sol\":287:302  block.timestamp */\n  timestamp\n    /* \"Time.sol\":273:284  deployedDay */\n  0x03\n    /* \"Time.sol\":273:302  deployedDay = block.timestamp */\n  dup2\n  swap1\n  sstore\n  pop\n    /* \"Time.sol\":72:722  contract Time {... */\n  dataSize(sub_0)\n  dup1\n  dataOffset(sub_0)\n  0x00\n  codecopy\n  0x00\n  return\nstop\n\nsub_0: assembly {\n        /* \"Time.sol\":72:722  contract Time {... */\n      mstore(0x40, 0x80)\n      callvalue\n      dup1\n      iszero\n      tag_1\n      jumpi\n      0x00\n      dup1\n      revert\n    tag_1:\n      pop\n      jumpi(tag_2, lt(calldatasize, 0x04))\n      shr(0xe0, calldataload(0x00))\n      dup1\n      0x469df505\n      gt\n      tag_10\n      jumpi\n      dup1\n      0x469df505\n      eq\n      tag_6\n      jumpi\n      dup1\n      0x525f6e1d\n      eq\n      tag_7\n      jumpi\n      dup1\n      0x9e2b5a2f\n      eq\n      tag_8\n      jumpi\n      dup1\n      0xcc44b07d\n      eq\n      tag_9\n      jumpi\n      jump(tag_2)\n    tag_10:\n      dup1\n      0x21ed4b27\n      eq\n      tag_3\n      jumpi\n      dup1\n      0x335f1b37\n      eq\n      tag_4\n      jumpi\n      dup1\n      0x3f16ae34\n      eq\n      tag_5\n      jumpi\n    tag_2:\n      0x00\n      dup1\n      revert\n        /* \"Time.sol\":170:203  uint public oneSecond = 1 seconds */\n    tag_3:\n      tag_11\n      tag_12\n      jump\t// in\n    tag_11:\n      mload(0x40)\n      tag_13\n      swap2\n      swap1\n      tag_14\n      jump\t// in\n    tag_13:\n      mload(0x40)\n      dup1\n      swap2\n      sub\n      swap1\n      return\n        /* \"Time.sol\":316:400  function nowTime() view public returns(uint) {... */\n    tag_4:\n      tag_15\n      tag_16\n      jump\t// in\n    tag_15:\n      mload(0x40)\n      tag_17\n      swap2\n      swap1\n      tag_14\n      jump\t// in\n    tag_17:\n      mload(0x40)\n      dup1\n      swap2\n      sub\n      swap1\n      return\n        /* \"Time.sol\":514:720  function daysPassedSinceLaunch() pure public returns(uint) {... */\n    tag_5:\n      tag_18\n      tag_19\n      jump\t// in\n    tag_18:\n      mload(0x40)\n      tag_20\n      swap2\n      swap1\n      tag_14\n      jump\t// in\n    tag_20:\n      mload(0x40)\n      dup1\n      swap2\n      sub\n      swap1\n      return\n        /* \"Time.sol\":131:164  uint public oneMinute = 1 minutes */\n    tag_6:\n      tag_21\n      tag_22\n      jump\t// in\n    tag_21:\n      mload(0x40)\n      tag_23\n      swap2\n      swap1\n      tag_14\n      jump\t// in\n    tag_23:\n      mload(0x40)\n      dup1\n      swap2\n      sub\n      swap1\n      return\n        /* \"Time.sol\":210:233  uint public deployedDay */\n    tag_7:\n      tag_24\n      tag_25\n      jump\t// in\n    tag_24:\n      mload(0x40)\n      tag_26\n      swap2\n      swap1\n      tag_14\n      jump\t// in\n    tag_26:\n      mload(0x40)\n      dup1\n      swap2\n      sub\n      swap1\n      return\n        /* \"Time.sol\":406:508  function getSecondsTime(uint time) view public returns(uint) {... */\n    tag_8:\n      tag_27\n      0x04\n      dup1\n      calldatasize\n      sub\n      dup2\n      add\n      swap1\n      tag_28\n      swap2\n      swap1\n      tag_29\n      jump\t// in\n    tag_28:\n      tag_30\n      jump\t// in\n    tag_27:\n      mload(0x40)\n      tag_31\n      swap2\n      swap1\n      tag_14\n      jump\t// in\n    tag_31:\n      mload(0x40)\n      dup1\n      swap2\n      sub\n      swap1\n      return\n        /* \"Time.sol\":93:125  uint public threeHours = 3 hours */\n    tag_9:\n      tag_32\n      tag_33\n      jump\t// in\n    tag_32:\n      mload(0x40)\n      tag_34\n      swap2\n      swap1\n      tag_14\n      jump\t// in\n    tag_34:\n      mload(0x40)\n      dup1\n      swap2\n      sub\n      swap1\n      return\n        /* \"Time.sol\":170:203  uint public oneSecond = 1 seconds */\n    tag_12:\n      sload(0x02)\n      dup2\n      jump\t// out\n        /* \"Time.sol\":316:400  function nowTime() view public returns(uint) {... */\n    tag_16:\n        /* \"Time.sol\":355:359  uint */\n      0x00\n        /* \"Time.sol\":378:393  block.timestamp */\n      timestamp\n        /* \"Time.sol\":371:393  return block.timestamp */\n      swap1\n      pop\n        /* \"Time.sol\":316:400  function nowTime() view public returns(uint) {... */\n      swap1\n      jump\t// out\n        /* \"Time.sol\":514:720  function daysPassedSinceLaunch() pure public returns(uint) {... */\n    tag_19:\n        /* \"Time.sol\":567:571  uint */\n      0x00\n        /* \"Time.sol\":583:594  uint date_1 */\n      dup1\n        /* \"Time.sol\":597:607  1638352800 */\n      0x61a747a0\n        /* \"Time.sol\":583:607  uint date_1 = 1638352800 */\n      swap1\n      pop\n        /* \"Time.sol\":640:651  uint date_2 */\n      0x00\n        /* \"Time.sol\":654:664  1638871200 */\n      0x61af30a0\n        /* \"Time.sol\":640:664  uint date_2 = 1638871200 */\n      swap1\n      pop\n        /* \"Time.sol\":705:712  10 - 10 */\n      0x00\n        /* \"Time.sol\":697:713  return (10 - 10) */\n      swap3\n      pop\n      pop\n      pop\n        /* \"Time.sol\":514:720  function daysPassedSinceLaunch() pure public returns(uint) {... */\n      swap1\n      jump\t// out\n        /* \"Time.sol\":131:164  uint public oneMinute = 1 minutes */\n    tag_22:\n      sload(0x01)\n      dup2\n      jump\t// out\n        /* \"Time.sol\":210:233  uint public deployedDay */\n    tag_25:\n      sload(0x03)\n      dup2\n      jump\t// out\n        /* \"Time.sol\":406:508  function getSecondsTime(uint time) view public returns(uint) {... */\n    tag_30:\n        /* \"Time.sol\":461:465  uint */\n      0x00\n        /* \"Time.sol\":491:501  threeHours */\n      dup1\n      sload\n        /* \"Time.sol\":484:488  time */\n      dup3\n        /* \"Time.sol\":484:501  time * threeHours */\n      tag_38\n      swap2\n      swap1\n      tag_39\n      jump\t// in\n    tag_38:\n        /* \"Time.sol\":477:501  return time * threeHours */\n      swap1\n      pop\n        /* \"Time.sol\":406:508  function getSecondsTime(uint time) view public returns(uint) {... */\n      swap2\n      swap1\n      pop\n      jump\t// out\n        /* \"Time.sol\":93:125  uint public threeHours = 3 hours */\n    tag_33:\n      sload(0x00)\n      dup2\n      jump\t// out\n        /* \"#utility.yul\":7:146   */\n    tag_41:\n        /* \"#utility.yul\":53:58   */\n      0x00\n        /* \"#utility.yul\":91:97   */\n      dup2\n        /* \"#utility.yul\":78:98   */\n      calldataload\n        /* \"#utility.yul\":69:98   */\n      swap1\n      pop\n        /* \"#utility.yul\":107:140   */\n      tag_43\n        /* \"#utility.yul\":134:139   */\n      dup2\n        /* \"#utility.yul\":107:140   */\n      tag_44\n      jump\t// in\n    tag_43:\n        /* \"#utility.yul\":7:146   */\n      swap3\n      swap2\n      pop\n      pop\n      jump\t// out\n        /* \"#utility.yul\":152:481   */\n    tag_29:\n        /* \"#utility.yul\":211:217   */\n      0x00\n        /* \"#utility.yul\":260:262   */\n      0x20\n        /* \"#utility.yul\":248:257   */\n      dup3\n        /* \"#utility.yul\":239:246   */\n      dup5\n        /* \"#utility.yul\":235:258   */\n      sub\n        /* \"#utility.yul\":231:263   */\n      slt\n        /* \"#utility.yul\":228:347   */\n      iszero\n      tag_46\n      jumpi\n        /* \"#utility.yul\":266:345   */\n      tag_47\n      tag_48\n      jump\t// in\n    tag_47:\n        /* \"#utility.yul\":228:347   */\n    tag_46:\n        /* \"#utility.yul\":386:387   */\n      0x00\n        /* \"#utility.yul\":411:464   */\n      tag_49\n        /* \"#utility.yul\":456:463   */\n      dup5\n        /* \"#utility.yul\":447:453   */\n      dup3\n        /* \"#utility.yul\":436:445   */\n      dup6\n        /* \"#utility.yul\":432:454   */\n      add\n        /* \"#utility.yul\":411:464   */\n      tag_41\n      jump\t// in\n    tag_49:\n        /* \"#utility.yul\":401:464   */\n      swap2\n      pop\n        /* \"#utility.yul\":357:474   */\n      pop\n        /* \"#utility.yul\":152:481   */\n      swap3\n      swap2\n      pop\n      pop\n      jump\t// out\n        /* \"#utility.yul\":487:605   */\n    tag_50:\n        /* \"#utility.yul\":574:598   */\n      tag_52\n        /* \"#utility.yul\":592:597   */\n      dup2\n        /* \"#utility.yul\":574:598   */\n      tag_53\n      jump\t// in\n    tag_52:\n        /* \"#utility.yul\":569:572   */\n      dup3\n        /* \"#utility.yul\":562:599   */\n      mstore\n        /* \"#utility.yul\":487:605   */\n      pop\n      pop\n      jump\t// out\n        /* \"#utility.yul\":611:833   */\n    tag_14:\n        /* \"#utility.yul\":704:708   */\n      0x00\n        /* \"#utility.yul\":742:744   */\n      0x20\n        /* \"#utility.yul\":731:740   */\n      dup3\n        /* \"#utility.yul\":727:745   */\n      add\n        /* \"#utility.yul\":719:745   */\n      swap1\n      pop\n        /* \"#utility.yul\":755:826   */\n      tag_55\n        /* \"#utility.yul\":823:824   */\n      0x00\n        /* \"#utility.yul\":812:821   */\n      dup4\n        /* \"#utility.yul\":808:825   */\n      add\n        /* \"#utility.yul\":799:805   */\n      dup5\n        /* \"#utility.yul\":755:826   */\n      tag_50\n      jump\t// in\n    tag_55:\n        /* \"#utility.yul\":611:833   */\n      swap3\n      swap2\n      pop\n      pop\n      jump\t// out\n        /* \"#utility.yul\":920:1268   */\n    tag_39:\n        /* \"#utility.yul\":960:967   */\n      0x00\n        /* \"#utility.yul\":983:1003   */\n      tag_59\n        /* \"#utility.yul\":1001:1002   */\n      dup3\n        /* \"#utility.yul\":983:1003   */\n      tag_53\n      jump\t// in\n    tag_59:\n        /* \"#utility.yul\":978:1003   */\n      swap2\n      pop\n        /* \"#utility.yul\":1017:1037   */\n      tag_60\n        /* \"#utility.yul\":1035:1036   */\n      dup4\n        /* \"#utility.yul\":1017:1037   */\n      tag_53\n      jump\t// in\n    tag_60:\n        /* \"#utility.yul\":1012:1037   */\n      swap3\n      pop\n        /* \"#utility.yul\":1205:1206   */\n      dup2\n        /* \"#utility.yul\":1137:1203   */\n      0xffffffffffffffffffffffffffffffffffffffffffffffffffffffffffffffff\n        /* \"#utility.yul\":1133:1207   */\n      div\n        /* \"#utility.yul\":1130:1131   */\n      dup4\n        /* \"#utility.yul\":1127:1208   */\n      gt\n        /* \"#utility.yul\":1122:1123   */\n      dup3\n        /* \"#utility.yul\":1115:1124   */\n      iszero\n        /* \"#utility.yul\":1108:1125   */\n      iszero\n        /* \"#utility.yul\":1104:1209   */\n      and\n        /* \"#utility.yul\":1101:1232   */\n      iszero\n      tag_61\n      jumpi\n        /* \"#utility.yul\":1212:1230   */\n      tag_62\n      tag_63\n      jump\t// in\n    tag_62:\n        /* \"#utility.yul\":1101:1232   */\n    tag_61:\n        /* \"#utility.yul\":1260:1261   */\n      dup3\n        /* \"#utility.yul\":1257:1258   */\n      dup3\n        /* \"#utility.yul\":1253:1262   */\n      mul\n        /* \"#utility.yul\":1242:1262   */\n      swap1\n      pop\n        /* \"#utility.yul\":920:1268   */\n      swap3\n      swap2\n      pop\n      pop\n      jump\t// out\n        /* \"#utility.yul\":1274:1351   */\n    tag_53:\n        /* \"#utility.yul\":1311:1318   */\n      0x00\n        /* \"#utility.yul\":1340:1345   */\n      dup2\n        /* \"#utility.yul\":1329:1345   */\n      swap1\n      pop\n        /* \"#utility.yul\":1274:1351   */\n      swap2\n      swap1\n      pop\n      jump\t// out\n        /* \"#utility.yul\":1357:1537   */\n    tag_63:\n        /* \"#utility.yul\":1405:1482   */\n      0x4e487b7100000000000000000000000000000000000000000000000000000000\n        /* \"#utility.yul\":1402:1403   */\n      0x00\n        /* \"#utility.yul\":1395:1483   */\n      mstore\n        /* \"#utility.yul\":1502:1506   */\n      0x11\n        /* \"#utility.yul\":1499:1500   */\n      0x04\n        /* \"#utility.yul\":1492:1507   */\n      mstore\n        /* \"#utility.yul\":1526:1530   */\n      0x24\n        /* \"#utility.yul\":1523:1524   */\n      0x00\n        /* \"#utility.yul\":1516:1531   */\n      revert\n        /* \"#utility.yul\":1666:1783   */\n    tag_48:\n        /* \"#utility.yul\":1775:1776   */\n      0x00\n        /* \"#utility.yul\":1772:1773   */\n      dup1\n        /* \"#utility.yul\":1765:1777   */\n      revert\n        /* \"#utility.yul\":1789:1911   */\n    tag_44:\n        /* \"#utility.yul\":1862:1886   */\n      tag_70\n        /* \"#utility.yul\":1880:1885   */\n      dup2\n        /* \"#utility.yul\":1862:1886   */\n      tag_53\n      jump\t// in\n    tag_70:\n        /* \"#utility.yul\":1855:1860   */\n      dup2\n        /* \"#utility.yul\":1852:1887   */\n      eq\n        /* \"#utility.yul\":1842:1905   */\n      tag_71\n      jumpi\n        /* \"#utility.yul\":1901:1902   */\n      0x00\n        /* \"#utility.yul\":1898:1899   */\n      dup1\n        /* \"#utility.yul\":1891:1903   */\n      revert\n        /* \"#utility.yul\":1842:1905   */\n    tag_71:\n        /* \"#utility.yul\":1789:1911   */\n      pop\n      jump\t// out\n\n    auxdata: 0xa26469706673582212203f9d688a4a5570e0cc3a946822b8668b1323b99d5ed39a0ccf069824f17b9d1264736f6c63430008070033\n}\n",
				"bytecode": {
					"linkReferences": {},
					"object": "6080604052612a30600055603c6001556001600255426003819055506103098061002a6000396000f3fe608060405234801561001057600080fd5b506004361061007d5760003560e01c8063469df5051161005b578063469df505146100dc578063525f6e1d146100fa5780639e2b5a2f14610118578063cc44b07d146101485761007d565b806321ed4b2714610082578063335f1b37146100a05780633f16ae34146100be575b600080fd5b61008a610166565b6040516100979190610209565b60405180910390f35b6100a861016c565b6040516100b59190610209565b60405180910390f35b6100c6610174565b6040516100d39190610209565b60405180910390f35b6100e4610190565b6040516100f19190610209565b60405180910390f35b610102610196565b60405161010f9190610209565b60405180910390f35b610132600480360381019061012d91906101cd565b61019c565b60405161013f9190610209565b60405180910390f35b6101506101b2565b60405161015d9190610209565b60405180910390f35b60025481565b600042905090565b6000806361a747a0905060006361af30a0905060009250505090565b60015481565b60035481565b60008054826101ab9190610224565b9050919050565b60005481565b6000813590506101c7816102bc565b92915050565b6000602082840312156101e3576101e26102b7565b5b60006101f1848285016101b8565b91505092915050565b6102038161027e565b82525050565b600060208201905061021e60008301846101fa565b92915050565b600061022f8261027e565b915061023a8361027e565b9250817fffffffffffffffffffffffffffffffffffffffffffffffffffffffffffffffff048311821515161561027357610272610288565b5b828202905092915050565b6000819050919050565b7f4e487b7100000000000000000000000000000000000000000000000000000000600052601160045260246000fd5b600080fd5b6102c58161027e565b81146102d057600080fd5b5056fea26469706673582212203f9d688a4a5570e0cc3a946822b8668b1323b99d5ed39a0ccf069824f17b9d1264736f6c63430008070033",
					"opcodes": "PUSH1 0x80 PUSH1 0x40 MSTORE PUSH2 0x2A30 PUSH1 0x0 SSTORE PUSH1 0x3C PUSH1 0x1 SSTORE PUSH1 0x1 PUSH1 0x2 SSTORE TIMESTAMP PUSH1 0x3 DUP2 SWAP1 SSTORE POP PUSH2 0x309 DUP1 PUSH2 0x2A PUSH1 0x0 CODECOPY PUSH1 0x0 RETURN INVALID PUSH1 0x80 PUSH1 0x40 MSTORE CALLVALUE DUP1 ISZERO PUSH2 0x10 JUMPI PUSH1 0x0 DUP1 REVERT JUMPDEST POP PUSH1 0x4 CALLDATASIZE LT PUSH2 0x7D JUMPI PUSH1 0x0 CALLDATALOAD PUSH1 0xE0 SHR DUP1 PUSH4 0x469DF505 GT PUSH2 0x5B JUMPI DUP1 PUSH4 0x469DF505 EQ PUSH2 0xDC JUMPI DUP1 PUSH4 0x525F6E1D EQ PUSH2 0xFA JUMPI DUP1 PUSH4 0x9E2B5A2F EQ PUSH2 0x118 JUMPI DUP1 PUSH4 0xCC44B07D EQ PUSH2 0x148 JUMPI PUSH2 0x7D JUMP JUMPDEST DUP1 PUSH4 0x21ED4B27 EQ PUSH2 0x82 JUMPI DUP1 PUSH4 0x335F1B37 EQ PUSH2 0xA0 JUMPI DUP1 PUSH4 0x3F16AE34 EQ PUSH2 0xBE JUMPI JUMPDEST PUSH1 0x0 DUP1 REVERT JUMPDEST PUSH2 0x8A PUSH2 0x166 JUMP JUMPDEST PUSH1 0x40 MLOAD PUSH2 0x97 SWAP2 SWAP1 PUSH2 0x209 JUMP JUMPDEST PUSH1 0x40 MLOAD DUP1 SWAP2 SUB SWAP1 RETURN JUMPDEST PUSH2 0xA8 PUSH2 0x16C JUMP JUMPDEST PUSH1 0x40 MLOAD PUSH2 0xB5 SWAP2 SWAP1 PUSH2 0x209 JUMP JUMPDEST PUSH1 0x40 MLOAD DUP1 SWAP2 SUB SWAP1 RETURN JUMPDEST PUSH2 0xC6 PUSH2 0x174 JUMP JUMPDEST PUSH1 0x40 MLOAD PUSH2 0xD3 SWAP2 SWAP1 PUSH2 0x209 JUMP JUMPDEST PUSH1 0x40 MLOAD DUP1 SWAP2 SUB SWAP1 RETURN JUMPDEST PUSH2 0xE4 PUSH2 0x190 JUMP JUMPDEST PUSH1 0x40 MLOAD PUSH2 0xF1 SWAP2 SWAP1 PUSH2 0x209 JUMP JUMPDEST PUSH1 0x40 MLOAD DUP1 SWAP2 SUB SWAP1 RETURN JUMPDEST PUSH2 0x102 PUSH2 0x196 JUMP JUMPDEST PUSH1 0x40 MLOAD PUSH2 0x10F SWAP2 SWAP1 PUSH2 0x209 JUMP JUMPDEST PUSH1 0x40 MLOAD DUP1 SWAP2 SUB SWAP1 RETURN JUMPDEST PUSH2 0x132 PUSH1 0x4 DUP1 CALLDATASIZE SUB DUP2 ADD SWAP1 PUSH2 0x12D SWAP2 SWAP1 PUSH2 0x1CD JUMP JUMPDEST PUSH2 0x19C JUMP JUMPDEST PUSH1 0x40 MLOAD PUSH2 0x13F SWAP2 SWAP1 PUSH2 0x209 JUMP JUMPDEST PUSH1 0x40 MLOAD DUP1 SWAP2 SUB SWAP1 RETURN JUMPDEST PUSH2 0x150 PUSH2 0x1B2 JUMP JUMPDEST PUSH1 0x40 MLOAD PUSH2 0x15D SWAP2 SWAP1 PUSH2 0x209 JUMP JUMPDEST PUSH1 0x40 MLOAD DUP1 SWAP2 SUB SWAP1 RETURN JUMPDEST PUSH1 0x2 SLOAD DUP2 JUMP JUMPDEST PUSH1 0x0 TIMESTAMP SWAP1 POP SWAP1 JUMP JUMPDEST PUSH1 0x0 DUP1 PUSH4 0x61A747A0 SWAP1 POP PUSH1 0x0 PUSH4 0x61AF30A0 SWAP1 POP PUSH1 0x0 SWAP3 POP POP POP SWAP1 JUMP JUMPDEST PUSH1 0x1 SLOAD DUP2 JUMP JUMPDEST PUSH1 0x3 SLOAD DUP2 JUMP JUMPDEST PUSH1 0x0 DUP1 SLOAD DUP3 PUSH2 0x1AB SWAP2 SWAP1 PUSH2 0x224 JUMP JUMPDEST SWAP1 POP SWAP2 SWAP1 POP JUMP JUMPDEST PUSH1 0x0 SLOAD DUP2 JUMP JUMPDEST PUSH1 0x0 DUP2 CALLDATALOAD SWAP1 POP PUSH2 0x1C7 DUP2 PUSH2 0x2BC JUMP JUMPDEST SWAP3 SWAP2 POP POP JUMP JUMPDEST PUSH1 0x0 PUSH1 0x20 DUP3 DUP5 SUB SLT ISZERO PUSH2 0x1E3 JUMPI PUSH2 0x1E2 PUSH2 0x2B7 JUMP JUMPDEST JUMPDEST PUSH1 0x0 PUSH2 0x1F1 DUP5 DUP3 DUP6 ADD PUSH2 0x1B8 JUMP JUMPDEST SWAP2 POP POP SWAP3 SWAP2 POP POP JUMP JUMPDEST PUSH2 0x203 DUP2 PUSH2 0x27E JUMP JUMPDEST DUP3 MSTORE POP POP JUMP JUMPDEST PUSH1 0x0 PUSH1 0x20 DUP3 ADD SWAP1 POP PUSH2 0x21E PUSH1 0x0 DUP4 ADD DUP5 PUSH2 0x1FA JUMP JUMPDEST SWAP3 SWAP2 POP POP JUMP JUMPDEST PUSH1 0x0 PUSH2 0x22F DUP3 PUSH2 0x27E JUMP JUMPDEST SWAP2 POP PUSH2 0x23A DUP4 PUSH2 0x27E JUMP JUMPDEST SWAP3 POP DUP2 PUSH32 0xFFFFFFFFFFFFFFFFFFFFFFFFFFFFFFFFFFFFFFFFFFFFFFFFFFFFFFFFFFFFFFFF DIV DUP4 GT DUP3 ISZERO ISZERO AND ISZERO PUSH2 0x273 JUMPI PUSH2 0x272 PUSH2 0x288 JUMP JUMPDEST JUMPDEST DUP3 DUP3 MUL SWAP1 POP SWAP3 SWAP2 POP POP JUMP JUMPDEST PUSH1 0x0 DUP2 SWAP1 POP SWAP2 SWAP1 POP JUMP JUMPDEST PUSH32 0x4E487B7100000000000000000000000000000000000000000000000000000000 PUSH1 0x0 MSTORE PUSH1 0x11 PUSH1 0x4 MSTORE PUSH1 0x24 PUSH1 0x0 REVERT JUMPDEST PUSH1 0x0 DUP1 REVERT JUMPDEST PUSH2 0x2C5 DUP2 PUSH2 0x27E JUMP JUMPDEST DUP2 EQ PUSH2 0x2D0 JUMPI PUSH1 0x0 DUP1 REVERT JUMPDEST POP JUMP INVALID LOG2 PUSH5 0x6970667358 0x22 SLT KECCAK256 EXTCODEHASH SWAP14 PUSH9 0x8A4A5570E0CC3A9468 0x22 0xB8 PUSH7 0x8B1323B99D5ED3 SWAP11 0xC 0xCF MOD SWAP9 0x24 CALL PUSH28 0x9D1264736F6C63430008070033000000000000000000000000000000 "
				},
				"gasEstimates": {
					"creation": {
						"codeDepositCost": "155400",
						"executionCost": "88609",
						"totalCost": "244009"
					},
					"external": {
						"daysPassedSinceLaunch()": "408",
						"deployedDay()": "2451",
						"getSecondsTime(uint256)": "infinite",
						"nowTime()": "359",
						"oneMinute()": "2429",
						"oneSecond()": "2430",
						"threeHours()": "2495"
					}
				},
				"methodIdentifiers": {
					"daysPassedSinceLaunch()": "3f16ae34",
					"deployedDay()": "525f6e1d",
					"getSecondsTime(uint256)": "9e2b5a2f",
					"nowTime()": "335f1b37",
					"oneMinute()": "469df505",
					"oneSecond()": "21ed4b27",
					"threeHours()": "cc44b07d"
				}
			},
			"storageLayout": {
				"storage": [
					{
						"astId": 4,
						"contract": "Time.sol:Time",
						"label": "threeHours",
						"offset": 0,
						"slot": "0",
						"type": "t_uint256"
					},
					{
						"astId": 7,
						"contract": "Time.sol:Time",
						"label": "oneMinute",
						"offset": 0,
						"slot": "1",
						"type": "t_uint256"
					},
					{
						"astId": 10,
						"contract": "Time.sol:Time",
						"label": "oneSecond",
						"offset": 0,
						"slot": "2",
						"type": "t_uint256"
					},
					{
						"astId": 12,
						"contract": "Time.sol:Time",
						"label": "deployedDay",
						"offset": 0,
						"slot": "3",
						"type": "t_uint256"
					}
				],
				"types": {
					"t_uint256": {
						"encoding": "inplace",
						"label": "uint256",
						"numberOfBytes": "32"
					}
				}
			},
			"userdoc": {
				"kind": "user",
				"methods": {},
				"version": 1
			}
		}
	}
}