{
	"Donation.sol": {
		"Donation": {
			"abi": [
				{
					"inputs": [
						{
							"internalType": "string",
							"name": "name",
							"type": "string"
						},
						{
							"internalType": "uint256",
							"name": "minAmount",
							"type": "uint256"
						},
						{
							"internalType": "bool",
							"name": "accept",
							"type": "bool"
						},
						{
							"internalType": "uint256",
							"name": "amountNeeded",
							"type": "uint256"
						},
						{
							"internalType": "address",
							"name": "owner",
							"type": "address"
						}
					],
					"stateMutability": "nonpayable",
					"type": "constructor"
				},
				{
					"inputs": [],
					"name": "_donationName",
					"outputs": [
						{
							"internalType": "string",
							"name": "",
							"type": "string"
						}
					],
					"stateMutability": "view",
					"type": "function"
				},
				{
					"inputs": [],
					"name": "acceptPaymentAfterAmountMet",
					"outputs": [
						{
							"internalType": "bool",
							"name": "",
							"type": "bool"
						}
					],
					"stateMutability": "view",
					"type": "function"
				},
				{
					"inputs": [],
					"name": "donate",
					"outputs": [],
					"stateMutability": "payable",
					"type": "function"
				},
				{
					"inputs": [],
					"name": "donationAmountNeeded",
					"outputs": [
						{
							"internalType": "uint256",
							"name": "",
							"type": "uint256"
						}
					],
					"stateMutability": "view",
					"type": "function"
				},
				{
					"inputs": [],
					"name": "donationBalance",
					"outputs": [
						{
							"internalType": "uint256",
							"name": "",
							"type": "uint256"
						}
					],
					"stateMutability": "view",
					"type": "function"
				},
				{
					"inputs": [],
					"name": "donationMinAmount",
					"outputs": [
						{
							"internalType": "uint256",
							"name": "",
							"type": "uint256"
						}
					],
					"stateMutability": "view",
					"type": "function"
				},
				{
					"inputs": [],
					"name": "getDonationName",
					"outputs": [
						{
							"internalType": "string",
							"name": "",
							"type": "string"
						}
					],
					"stateMutability": "view",
					"type": "function"
				},
				{
					"inputs": [],
					"name": "getOwner",
					"outputs": [
						{
							"internalType": "address",
							"name": "",
							"type": "address"
						}
					],
					"stateMutability": "view",
					"type": "function"
				},
				{
					"inputs": [
						{
							"internalType": "address",
							"name": "owner",
							"type": "address"
						}
					],
					"name": "withdraw",
					"outputs": [],
					"stateMutability": "nonpayable",
					"type": "function"
				}
			],
			"devdoc": {
				"kind": "dev",
				"methods": {},
				"version": 1
			},
			"evm": {
				"assembly": "    /* \"Donation.sol\":280:1624  contract Donation {... */\n  mstore(0x40, 0x80)\n    /* \"Donation.sol\":479:765  constructor(string memory name, uint minAmount, bool accept, uint amountNeeded, address owner) {... */\n  callvalue\n  dup1\n  iszero\n  tag_1\n  jumpi\n  0x00\n  dup1\n  revert\ntag_1:\n  pop\n  mload(0x40)\n  sub(codesize, bytecodeSize)\n  dup1\n  bytecodeSize\n  dup4\n  codecopy\n  dup2\n  dup2\n  add\n  0x40\n  mstore\n  dup2\n  add\n  swap1\n  tag_2\n  swap2\n  swap1\n  tag_3\n  jump\t// in\ntag_2:\n    /* \"Donation.sol\":600:604  name */\n  dup5\n    /* \"Donation.sol\":584:597  _donationName */\n  0x00\n    /* \"Donation.sol\":584:604  _donationName = name */\n  swap1\n  dup2\n  tag_6\n  swap2\n  swap1\n  tag_7\n  jump\t// in\ntag_6:\n  pop\n    /* \"Donation.sol\":634:643  minAmount */\n  dup4\n    /* \"Donation.sol\":614:631  donationMinAmount */\n  0x01\n    /* \"Donation.sol\":614:643  donationMinAmount = minAmount */\n  dup2\n  swap1\n  sstore\n  pop\n    /* \"Donation.sol\":683:689  accept */\n  dup3\n    /* \"Donation.sol\":653:680  acceptPaymentAfterAmountMet */\n  0x03\n  0x00\n    /* \"Donation.sol\":653:689  acceptPaymentAfterAmountMet = accept */\n  0x0100\n  exp\n  dup2\n  sload\n  dup2\n  0xff\n  mul\n  not\n  and\n  swap1\n  dup4\n  iszero\n  iszero\n  mul\n  or\n  swap1\n  sstore\n  pop\n    /* \"Donation.sol\":722:734  amountNeeded */\n  dup2\n    /* \"Donation.sol\":699:719  donationAmountNeeded */\n  0x02\n    /* \"Donation.sol\":699:734  donationAmountNeeded = amountNeeded */\n  dup2\n  swap1\n  sstore\n  pop\n    /* \"Donation.sol\":753:758  owner */\n  dup1\n    /* \"Donation.sol\":744:750  _owner */\n  0x03\n  0x01\n    /* \"Donation.sol\":744:758  _owner = owner */\n  0x0100\n  exp\n  dup2\n  sload\n  dup2\n  0xffffffffffffffffffffffffffffffffffffffff\n  mul\n  not\n  and\n  swap1\n  dup4\n  0xffffffffffffffffffffffffffffffffffffffff\n  and\n  mul\n  or\n  swap1\n  sstore\n  pop\n    /* \"Donation.sol\":479:765  constructor(string memory name, uint minAmount, bool accept, uint amountNeeded, address owner) {... */\n  pop\n  pop\n  pop\n  pop\n  pop\n    /* \"Donation.sol\":280:1624  contract Donation {... */\n  jump(tag_8)\n    /* \"#utility.yul\":7:82   */\ntag_9:\n    /* \"#utility.yul\":40:46   */\n  0x00\n    /* \"#utility.yul\":73:75   */\n  0x40\n    /* \"#utility.yul\":67:76   */\n  mload\n    /* \"#utility.yul\":57:76   */\n  swap1\n  pop\n    /* \"#utility.yul\":7:82   */\n  swap1\n  jump\t// out\n    /* \"#utility.yul\":88:205   */\ntag_10:\n    /* \"#utility.yul\":197:198   */\n  0x00\n    /* \"#utility.yul\":194:195   */\n  dup1\n    /* \"#utility.yul\":187:199   */\n  revert\n    /* \"#utility.yul\":211:328   */\ntag_11:\n    /* \"#utility.yul\":320:321   */\n  0x00\n    /* \"#utility.yul\":317:318   */\n  dup1\n    /* \"#utility.yul\":310:322   */\n  revert\n    /* \"#utility.yul\":334:451   */\ntag_12:\n    /* \"#utility.yul\":443:444   */\n  0x00\n    /* \"#utility.yul\":440:441   */\n  dup1\n    /* \"#utility.yul\":433:445   */\n  revert\n    /* \"#utility.yul\":457:574   */\ntag_13:\n    /* \"#utility.yul\":566:567   */\n  0x00\n    /* \"#utility.yul\":563:564   */\n  dup1\n    /* \"#utility.yul\":556:568   */\n  revert\n    /* \"#utility.yul\":580:682   */\ntag_14:\n    /* \"#utility.yul\":621:627   */\n  0x00\n    /* \"#utility.yul\":672:674   */\n  0x1f\n    /* \"#utility.yul\":668:675   */\n  not\n    /* \"#utility.yul\":663:665   */\n  0x1f\n    /* \"#utility.yul\":656:661   */\n  dup4\n    /* \"#utility.yul\":652:666   */\n  add\n    /* \"#utility.yul\":648:676   */\n  and\n    /* \"#utility.yul\":638:676   */\n  swap1\n  pop\n    /* \"#utility.yul\":580:682   */\n  swap2\n  swap1\n  pop\n  jump\t// out\n    /* \"#utility.yul\":688:868   */\ntag_15:\n    /* \"#utility.yul\":736:813   */\n  0x4e487b7100000000000000000000000000000000000000000000000000000000\n    /* \"#utility.yul\":733:734   */\n  0x00\n    /* \"#utility.yul\":726:814   */\n  mstore\n    /* \"#utility.yul\":833:837   */\n  0x41\n    /* \"#utility.yul\":830:831   */\n  0x04\n    /* \"#utility.yul\":823:838   */\n  mstore\n    /* \"#utility.yul\":857:861   */\n  0x24\n    /* \"#utility.yul\":854:855   */\n  0x00\n    /* \"#utility.yul\":847:862   */\n  revert\n    /* \"#utility.yul\":874:1155   */\ntag_16:\n    /* \"#utility.yul\":957:984   */\n  tag_59\n    /* \"#utility.yul\":979:983   */\n  dup3\n    /* \"#utility.yul\":957:984   */\n  tag_14\n  jump\t// in\ntag_59:\n    /* \"#utility.yul\":949:955   */\n  dup2\n    /* \"#utility.yul\":945:985   */\n  add\n    /* \"#utility.yul\":1087:1093   */\n  dup2\n    /* \"#utility.yul\":1075:1085   */\n  dup2\n    /* \"#utility.yul\":1072:1094   */\n  lt\n    /* \"#utility.yul\":1051:1069   */\n  0xffffffffffffffff\n    /* \"#utility.yul\":1039:1049   */\n  dup3\n    /* \"#utility.yul\":1036:1070   */\n  gt\n    /* \"#utility.yul\":1033:1095   */\n  or\n    /* \"#utility.yul\":1030:1118   */\n  iszero\n  tag_60\n  jumpi\n    /* \"#utility.yul\":1098:1116   */\n  tag_61\n  tag_15\n  jump\t// in\ntag_61:\n    /* \"#utility.yul\":1030:1118   */\ntag_60:\n    /* \"#utility.yul\":1138:1148   */\n  dup1\n    /* \"#utility.yul\":1134:1136   */\n  0x40\n    /* \"#utility.yul\":1127:1149   */\n  mstore\n    /* \"#utility.yul\":917:1155   */\n  pop\n    /* \"#utility.yul\":874:1155   */\n  pop\n  pop\n  jump\t// out\n    /* \"#utility.yul\":1161:1290   */\ntag_17:\n    /* \"#utility.yul\":1195:1201   */\n  0x00\n    /* \"#utility.yul\":1222:1242   */\n  tag_63\n  tag_9\n  jump\t// in\ntag_63:\n    /* \"#utility.yul\":1212:1242   */\n  swap1\n  pop\n    /* \"#utility.yul\":1251:1284   */\n  tag_64\n    /* \"#utility.yul\":1279:1283   */\n  dup3\n    /* \"#utility.yul\":1271:1277   */\n  dup3\n    /* \"#utility.yul\":1251:1284   */\n  tag_16\n  jump\t// in\ntag_64:\n    /* \"#utility.yul\":1161:1290   */\n  swap2\n  swap1\n  pop\n  jump\t// out\n    /* \"#utility.yul\":1296:1604   */\ntag_18:\n    /* \"#utility.yul\":1358:1362   */\n  0x00\n    /* \"#utility.yul\":1448:1466   */\n  0xffffffffffffffff\n    /* \"#utility.yul\":1440:1446   */\n  dup3\n    /* \"#utility.yul\":1437:1467   */\n  gt\n    /* \"#utility.yul\":1434:1490   */\n  iszero\n  tag_66\n  jumpi\n    /* \"#utility.yul\":1470:1488   */\n  tag_67\n  tag_15\n  jump\t// in\ntag_67:\n    /* \"#utility.yul\":1434:1490   */\ntag_66:\n    /* \"#utility.yul\":1508:1537   */\n  tag_68\n    /* \"#utility.yul\":1530:1536   */\n  dup3\n    /* \"#utility.yul\":1508:1537   */\n  tag_14\n  jump\t// in\ntag_68:\n    /* \"#utility.yul\":1500:1537   */\n  swap1\n  pop\n    /* \"#utility.yul\":1592:1596   */\n  0x20\n    /* \"#utility.yul\":1586:1590   */\n  dup2\n    /* \"#utility.yul\":1582:1597   */\n  add\n    /* \"#utility.yul\":1574:1597   */\n  swap1\n  pop\n    /* \"#utility.yul\":1296:1604   */\n  swap2\n  swap1\n  pop\n  jump\t// out\n    /* \"#utility.yul\":1610:1856   */\ntag_19:\n    /* \"#utility.yul\":1691:1692   */\n  0x00\n    /* \"#utility.yul\":1701:1814   */\ntag_70:\n    /* \"#utility.yul\":1715:1721   */\n  dup4\n    /* \"#utility.yul\":1712:1713   */\n  dup2\n    /* \"#utility.yul\":1709:1722   */\n  lt\n    /* \"#utility.yul\":1701:1814   */\n  iszero\n  tag_72\n  jumpi\n    /* \"#utility.yul\":1800:1801   */\n  dup1\n    /* \"#utility.yul\":1795:1798   */\n  dup3\n    /* \"#utility.yul\":1791:1802   */\n  add\n    /* \"#utility.yul\":1785:1803   */\n  mload\n    /* \"#utility.yul\":1781:1782   */\n  dup2\n    /* \"#utility.yul\":1776:1779   */\n  dup5\n    /* \"#utility.yul\":1772:1783   */\n  add\n    /* \"#utility.yul\":1765:1804   */\n  mstore\n    /* \"#utility.yul\":1737:1739   */\n  0x20\n    /* \"#utility.yul\":1734:1735   */\n  dup2\n    /* \"#utility.yul\":1730:1740   */\n  add\n    /* \"#utility.yul\":1725:1740   */\n  swap1\n  pop\n    /* \"#utility.yul\":1701:1814   */\n  jump(tag_70)\ntag_72:\n    /* \"#utility.yul\":1848:1849   */\n  0x00\n    /* \"#utility.yul\":1839:1845   */\n  dup5\n    /* \"#utility.yul\":1834:1837   */\n  dup5\n    /* \"#utility.yul\":1830:1846   */\n  add\n    /* \"#utility.yul\":1823:1850   */\n  mstore\n    /* \"#utility.yul\":1672:1856   */\n  pop\n    /* \"#utility.yul\":1610:1856   */\n  pop\n  pop\n  pop\n  jump\t// out\n    /* \"#utility.yul\":1862:2296   */\ntag_20:\n    /* \"#utility.yul\":1951:1956   */\n  0x00\n    /* \"#utility.yul\":1976:2042   */\n  tag_74\n    /* \"#utility.yul\":1992:2041   */\n  tag_75\n    /* \"#utility.yul\":2034:2040   */\n  dup5\n    /* \"#utility.yul\":1992:2041   */\n  tag_18\n  jump\t// in\ntag_75:\n    /* \"#utility.yul\":1976:2042   */\n  tag_17\n  jump\t// in\ntag_74:\n    /* \"#utility.yul\":1967:2042   */\n  swap1\n  pop\n    /* \"#utility.yul\":2065:2071   */\n  dup3\n    /* \"#utility.yul\":2058:2063   */\n  dup2\n    /* \"#utility.yul\":2051:2072   */\n  mstore\n    /* \"#utility.yul\":2103:2107   */\n  0x20\n    /* \"#utility.yul\":2096:2101   */\n  dup2\n    /* \"#utility.yul\":2092:2108   */\n  add\n    /* \"#utility.yul\":2141:2144   */\n  dup5\n    /* \"#utility.yul\":2132:2138   */\n  dup5\n    /* \"#utility.yul\":2127:2130   */\n  dup5\n    /* \"#utility.yul\":2123:2139   */\n  add\n    /* \"#utility.yul\":2120:2145   */\n  gt\n    /* \"#utility.yul\":2117:2229   */\n  iszero\n  tag_76\n  jumpi\n    /* \"#utility.yul\":2148:2227   */\n  tag_77\n  tag_13\n  jump\t// in\ntag_77:\n    /* \"#utility.yul\":2117:2229   */\ntag_76:\n    /* \"#utility.yul\":2238:2290   */\n  tag_78\n    /* \"#utility.yul\":2283:2289   */\n  dup5\n    /* \"#utility.yul\":2278:2281   */\n  dup3\n    /* \"#utility.yul\":2273:2276   */\n  dup6\n    /* \"#utility.yul\":2238:2290   */\n  tag_19\n  jump\t// in\ntag_78:\n    /* \"#utility.yul\":1957:2296   */\n  pop\n    /* \"#utility.yul\":1862:2296   */\n  swap4\n  swap3\n  pop\n  pop\n  pop\n  jump\t// out\n    /* \"#utility.yul\":2316:2671   */\ntag_21:\n    /* \"#utility.yul\":2383:2388   */\n  0x00\n    /* \"#utility.yul\":2432:2435   */\n  dup3\n    /* \"#utility.yul\":2425:2429   */\n  0x1f\n    /* \"#utility.yul\":2417:2423   */\n  dup4\n    /* \"#utility.yul\":2413:2430   */\n  add\n    /* \"#utility.yul\":2409:2436   */\n  slt\n    /* \"#utility.yul\":2399:2521   */\n  tag_80\n  jumpi\n    /* \"#utility.yul\":2440:2519   */\n  tag_81\n  tag_12\n  jump\t// in\ntag_81:\n    /* \"#utility.yul\":2399:2521   */\ntag_80:\n    /* \"#utility.yul\":2550:2556   */\n  dup2\n    /* \"#utility.yul\":2544:2557   */\n  mload\n    /* \"#utility.yul\":2575:2665   */\n  tag_82\n    /* \"#utility.yul\":2661:2664   */\n  dup5\n    /* \"#utility.yul\":2653:2659   */\n  dup3\n    /* \"#utility.yul\":2646:2650   */\n  0x20\n    /* \"#utility.yul\":2638:2644   */\n  dup7\n    /* \"#utility.yul\":2634:2651   */\n  add\n    /* \"#utility.yul\":2575:2665   */\n  tag_20\n  jump\t// in\ntag_82:\n    /* \"#utility.yul\":2566:2665   */\n  swap2\n  pop\n    /* \"#utility.yul\":2389:2671   */\n  pop\n    /* \"#utility.yul\":2316:2671   */\n  swap3\n  swap2\n  pop\n  pop\n  jump\t// out\n    /* \"#utility.yul\":2677:2754   */\ntag_22:\n    /* \"#utility.yul\":2714:2721   */\n  0x00\n    /* \"#utility.yul\":2743:2748   */\n  dup2\n    /* \"#utility.yul\":2732:2748   */\n  swap1\n  pop\n    /* \"#utility.yul\":2677:2754   */\n  swap2\n  swap1\n  pop\n  jump\t// out\n    /* \"#utility.yul\":2760:2882   */\ntag_23:\n    /* \"#utility.yul\":2833:2857   */\n  tag_85\n    /* \"#utility.yul\":2851:2856   */\n  dup2\n    /* \"#utility.yul\":2833:2857   */\n  tag_22\n  jump\t// in\ntag_85:\n    /* \"#utility.yul\":2826:2831   */\n  dup2\n    /* \"#utility.yul\":2823:2858   */\n  eq\n    /* \"#utility.yul\":2813:2876   */\n  tag_86\n  jumpi\n    /* \"#utility.yul\":2872:2873   */\n  0x00\n    /* \"#utility.yul\":2869:2870   */\n  dup1\n    /* \"#utility.yul\":2862:2874   */\n  revert\n    /* \"#utility.yul\":2813:2876   */\ntag_86:\n    /* \"#utility.yul\":2760:2882   */\n  pop\n  jump\t// out\n    /* \"#utility.yul\":2888:3031   */\ntag_24:\n    /* \"#utility.yul\":2945:2950   */\n  0x00\n    /* \"#utility.yul\":2976:2982   */\n  dup2\n    /* \"#utility.yul\":2970:2983   */\n  mload\n    /* \"#utility.yul\":2961:2983   */\n  swap1\n  pop\n    /* \"#utility.yul\":2992:3025   */\n  tag_88\n    /* \"#utility.yul\":3019:3024   */\n  dup2\n    /* \"#utility.yul\":2992:3025   */\n  tag_23\n  jump\t// in\ntag_88:\n    /* \"#utility.yul\":2888:3031   */\n  swap3\n  swap2\n  pop\n  pop\n  jump\t// out\n    /* \"#utility.yul\":3037:3127   */\ntag_25:\n    /* \"#utility.yul\":3071:3078   */\n  0x00\n    /* \"#utility.yul\":3114:3119   */\n  dup2\n    /* \"#utility.yul\":3107:3120   */\n  iszero\n    /* \"#utility.yul\":3100:3121   */\n  iszero\n    /* \"#utility.yul\":3089:3121   */\n  swap1\n  pop\n    /* \"#utility.yul\":3037:3127   */\n  swap2\n  swap1\n  pop\n  jump\t// out\n    /* \"#utility.yul\":3133:3249   */\ntag_26:\n    /* \"#utility.yul\":3203:3224   */\n  tag_91\n    /* \"#utility.yul\":3218:3223   */\n  dup2\n    /* \"#utility.yul\":3203:3224   */\n  tag_25\n  jump\t// in\ntag_91:\n    /* \"#utility.yul\":3196:3201   */\n  dup2\n    /* \"#utility.yul\":3193:3225   */\n  eq\n    /* \"#utility.yul\":3183:3243   */\n  tag_92\n  jumpi\n    /* \"#utility.yul\":3239:3240   */\n  0x00\n    /* \"#utility.yul\":3236:3237   */\n  dup1\n    /* \"#utility.yul\":3229:3241   */\n  revert\n    /* \"#utility.yul\":3183:3243   */\ntag_92:\n    /* \"#utility.yul\":3133:3249   */\n  pop\n  jump\t// out\n    /* \"#utility.yul\":3255:3392   */\ntag_27:\n    /* \"#utility.yul\":3309:3314   */\n  0x00\n    /* \"#utility.yul\":3340:3346   */\n  dup2\n    /* \"#utility.yul\":3334:3347   */\n  mload\n    /* \"#utility.yul\":3325:3347   */\n  swap1\n  pop\n    /* \"#utility.yul\":3356:3386   */\n  tag_94\n    /* \"#utility.yul\":3380:3385   */\n  dup2\n    /* \"#utility.yul\":3356:3386   */\n  tag_26\n  jump\t// in\ntag_94:\n    /* \"#utility.yul\":3255:3392   */\n  swap3\n  swap2\n  pop\n  pop\n  jump\t// out\n    /* \"#utility.yul\":3398:3524   */\ntag_28:\n    /* \"#utility.yul\":3435:3442   */\n  0x00\n    /* \"#utility.yul\":3475:3517   */\n  0xffffffffffffffffffffffffffffffffffffffff\n    /* \"#utility.yul\":3468:3473   */\n  dup3\n    /* \"#utility.yul\":3464:3518   */\n  and\n    /* \"#utility.yul\":3453:3518   */\n  swap1\n  pop\n    /* \"#utility.yul\":3398:3524   */\n  swap2\n  swap1\n  pop\n  jump\t// out\n    /* \"#utility.yul\":3530:3626   */\ntag_29:\n    /* \"#utility.yul\":3567:3574   */\n  0x00\n    /* \"#utility.yul\":3596:3620   */\n  tag_97\n    /* \"#utility.yul\":3614:3619   */\n  dup3\n    /* \"#utility.yul\":3596:3620   */\n  tag_28\n  jump\t// in\ntag_97:\n    /* \"#utility.yul\":3585:3620   */\n  swap1\n  pop\n    /* \"#utility.yul\":3530:3626   */\n  swap2\n  swap1\n  pop\n  jump\t// out\n    /* \"#utility.yul\":3632:3754   */\ntag_30:\n    /* \"#utility.yul\":3705:3729   */\n  tag_99\n    /* \"#utility.yul\":3723:3728   */\n  dup2\n    /* \"#utility.yul\":3705:3729   */\n  tag_29\n  jump\t// in\ntag_99:\n    /* \"#utility.yul\":3698:3703   */\n  dup2\n    /* \"#utility.yul\":3695:3730   */\n  eq\n    /* \"#utility.yul\":3685:3748   */\n  tag_100\n  jumpi\n    /* \"#utility.yul\":3744:3745   */\n  0x00\n    /* \"#utility.yul\":3741:3742   */\n  dup1\n    /* \"#utility.yul\":3734:3746   */\n  revert\n    /* \"#utility.yul\":3685:3748   */\ntag_100:\n    /* \"#utility.yul\":3632:3754   */\n  pop\n  jump\t// out\n    /* \"#utility.yul\":3760:3903   */\ntag_31:\n    /* \"#utility.yul\":3817:3822   */\n  0x00\n    /* \"#utility.yul\":3848:3854   */\n  dup2\n    /* \"#utility.yul\":3842:3855   */\n  mload\n    /* \"#utility.yul\":3833:3855   */\n  swap1\n  pop\n    /* \"#utility.yul\":3864:3897   */\n  tag_102\n    /* \"#utility.yul\":3891:3896   */\n  dup2\n    /* \"#utility.yul\":3864:3897   */\n  tag_30\n  jump\t// in\ntag_102:\n    /* \"#utility.yul\":3760:3903   */\n  swap3\n  swap2\n  pop\n  pop\n  jump\t// out\n    /* \"#utility.yul\":3909:5053   */\ntag_3:\n    /* \"#utility.yul\":4022:4028   */\n  0x00\n    /* \"#utility.yul\":4030:4036   */\n  dup1\n    /* \"#utility.yul\":4038:4044   */\n  0x00\n    /* \"#utility.yul\":4046:4052   */\n  dup1\n    /* \"#utility.yul\":4054:4060   */\n  0x00\n    /* \"#utility.yul\":4103:4106   */\n  0xa0\n    /* \"#utility.yul\":4091:4100   */\n  dup7\n    /* \"#utility.yul\":4082:4089   */\n  dup9\n    /* \"#utility.yul\":4078:4101   */\n  sub\n    /* \"#utility.yul\":4074:4107   */\n  slt\n    /* \"#utility.yul\":4071:4191   */\n  iszero\n  tag_104\n  jumpi\n    /* \"#utility.yul\":4110:4189   */\n  tag_105\n  tag_10\n  jump\t// in\ntag_105:\n    /* \"#utility.yul\":4071:4191   */\ntag_104:\n    /* \"#utility.yul\":4251:4252   */\n  0x00\n    /* \"#utility.yul\":4240:4249   */\n  dup7\n    /* \"#utility.yul\":4236:4253   */\n  add\n    /* \"#utility.yul\":4230:4254   */\n  mload\n    /* \"#utility.yul\":4281:4299   */\n  0xffffffffffffffff\n    /* \"#utility.yul\":4273:4279   */\n  dup2\n    /* \"#utility.yul\":4270:4300   */\n  gt\n    /* \"#utility.yul\":4267:4384   */\n  iszero\n  tag_106\n  jumpi\n    /* \"#utility.yul\":4303:4382   */\n  tag_107\n  tag_11\n  jump\t// in\ntag_107:\n    /* \"#utility.yul\":4267:4384   */\ntag_106:\n    /* \"#utility.yul\":4408:4482   */\n  tag_108\n    /* \"#utility.yul\":4474:4481   */\n  dup9\n    /* \"#utility.yul\":4465:4471   */\n  dup3\n    /* \"#utility.yul\":4454:4463   */\n  dup10\n    /* \"#utility.yul\":4450:4472   */\n  add\n    /* \"#utility.yul\":4408:4482   */\n  tag_21\n  jump\t// in\ntag_108:\n    /* \"#utility.yul\":4398:4482   */\n  swap6\n  pop\n    /* \"#utility.yul\":4201:4492   */\n  pop\n    /* \"#utility.yul\":4531:4533   */\n  0x20\n    /* \"#utility.yul\":4557:4621   */\n  tag_109\n    /* \"#utility.yul\":4613:4620   */\n  dup9\n    /* \"#utility.yul\":4604:4610   */\n  dup3\n    /* \"#utility.yul\":4593:4602   */\n  dup10\n    /* \"#utility.yul\":4589:4611   */\n  add\n    /* \"#utility.yul\":4557:4621   */\n  tag_24\n  jump\t// in\ntag_109:\n    /* \"#utility.yul\":4547:4621   */\n  swap5\n  pop\n    /* \"#utility.yul\":4502:4631   */\n  pop\n    /* \"#utility.yul\":4670:4672   */\n  0x40\n    /* \"#utility.yul\":4696:4757   */\n  tag_110\n    /* \"#utility.yul\":4749:4756   */\n  dup9\n    /* \"#utility.yul\":4740:4746   */\n  dup3\n    /* \"#utility.yul\":4729:4738   */\n  dup10\n    /* \"#utility.yul\":4725:4747   */\n  add\n    /* \"#utility.yul\":4696:4757   */\n  tag_27\n  jump\t// in\ntag_110:\n    /* \"#utility.yul\":4686:4757   */\n  swap4\n  pop\n    /* \"#utility.yul\":4641:4767   */\n  pop\n    /* \"#utility.yul\":4806:4808   */\n  0x60\n    /* \"#utility.yul\":4832:4896   */\n  tag_111\n    /* \"#utility.yul\":4888:4895   */\n  dup9\n    /* \"#utility.yul\":4879:4885   */\n  dup3\n    /* \"#utility.yul\":4868:4877   */\n  dup10\n    /* \"#utility.yul\":4864:4886   */\n  add\n    /* \"#utility.yul\":4832:4896   */\n  tag_24\n  jump\t// in\ntag_111:\n    /* \"#utility.yul\":4822:4896   */\n  swap3\n  pop\n    /* \"#utility.yul\":4777:4906   */\n  pop\n    /* \"#utility.yul\":4945:4948   */\n  0x80\n    /* \"#utility.yul\":4972:5036   */\n  tag_112\n    /* \"#utility.yul\":5028:5035   */\n  dup9\n    /* \"#utility.yul\":5019:5025   */\n  dup3\n    /* \"#utility.yul\":5008:5017   */\n  dup10\n    /* \"#utility.yul\":5004:5026   */\n  add\n    /* \"#utility.yul\":4972:5036   */\n  tag_31\n  jump\t// in\ntag_112:\n    /* \"#utility.yul\":4962:5036   */\n  swap2\n  pop\n    /* \"#utility.yul\":4916:5046   */\n  pop\n    /* \"#utility.yul\":3909:5053   */\n  swap3\n  swap6\n  pop\n  swap3\n  swap6\n  swap1\n  swap4\n  pop\n  jump\t// out\n    /* \"#utility.yul\":5059:5158   */\ntag_32:\n    /* \"#utility.yul\":5111:5117   */\n  0x00\n    /* \"#utility.yul\":5145:5150   */\n  dup2\n    /* \"#utility.yul\":5139:5151   */\n  mload\n    /* \"#utility.yul\":5129:5151   */\n  swap1\n  pop\n    /* \"#utility.yul\":5059:5158   */\n  swap2\n  swap1\n  pop\n  jump\t// out\n    /* \"#utility.yul\":5164:5344   */\ntag_33:\n    /* \"#utility.yul\":5212:5289   */\n  0x4e487b7100000000000000000000000000000000000000000000000000000000\n    /* \"#utility.yul\":5209:5210   */\n  0x00\n    /* \"#utility.yul\":5202:5290   */\n  mstore\n    /* \"#utility.yul\":5309:5313   */\n  0x22\n    /* \"#utility.yul\":5306:5307   */\n  0x04\n    /* \"#utility.yul\":5299:5314   */\n  mstore\n    /* \"#utility.yul\":5333:5337   */\n  0x24\n    /* \"#utility.yul\":5330:5331   */\n  0x00\n    /* \"#utility.yul\":5323:5338   */\n  revert\n    /* \"#utility.yul\":5350:5670   */\ntag_34:\n    /* \"#utility.yul\":5394:5400   */\n  0x00\n    /* \"#utility.yul\":5431:5432   */\n  0x02\n    /* \"#utility.yul\":5425:5429   */\n  dup3\n    /* \"#utility.yul\":5421:5433   */\n  div\n    /* \"#utility.yul\":5411:5433   */\n  swap1\n  pop\n    /* \"#utility.yul\":5478:5479   */\n  0x01\n    /* \"#utility.yul\":5472:5476   */\n  dup3\n    /* \"#utility.yul\":5468:5480   */\n  and\n    /* \"#utility.yul\":5499:5517   */\n  dup1\n    /* \"#utility.yul\":5489:5570   */\n  tag_116\n  jumpi\n    /* \"#utility.yul\":5555:5559   */\n  0x7f\n    /* \"#utility.yul\":5547:5553   */\n  dup3\n    /* \"#utility.yul\":5543:5560   */\n  and\n    /* \"#utility.yul\":5533:5560   */\n  swap2\n  pop\n    /* \"#utility.yul\":5489:5570   */\ntag_116:\n    /* \"#utility.yul\":5617:5619   */\n  0x20\n    /* \"#utility.yul\":5609:5615   */\n  dup3\n    /* \"#utility.yul\":5606:5620   */\n  lt\n    /* \"#utility.yul\":5586:5604   */\n  dup2\n    /* \"#utility.yul\":5583:5621   */\n  sub\n    /* \"#utility.yul\":5580:5664   */\n  tag_117\n  jumpi\n    /* \"#utility.yul\":5636:5654   */\n  tag_118\n  tag_33\n  jump\t// in\ntag_118:\n    /* \"#utility.yul\":5580:5664   */\ntag_117:\n    /* \"#utility.yul\":5401:5670   */\n  pop\n    /* \"#utility.yul\":5350:5670   */\n  swap2\n  swap1\n  pop\n  jump\t// out\n    /* \"#utility.yul\":5676:5817   */\ntag_35:\n    /* \"#utility.yul\":5725:5729   */\n  0x00\n    /* \"#utility.yul\":5748:5751   */\n  dup2\n    /* \"#utility.yul\":5740:5751   */\n  swap1\n  pop\n    /* \"#utility.yul\":5771:5774   */\n  dup2\n    /* \"#utility.yul\":5768:5769   */\n  0x00\n    /* \"#utility.yul\":5761:5775   */\n  mstore\n    /* \"#utility.yul\":5805:5809   */\n  0x20\n    /* \"#utility.yul\":5802:5803   */\n  0x00\n    /* \"#utility.yul\":5792:5810   */\n  keccak256\n    /* \"#utility.yul\":5784:5810   */\n  swap1\n  pop\n    /* \"#utility.yul\":5676:5817   */\n  swap2\n  swap1\n  pop\n  jump\t// out\n    /* \"#utility.yul\":5823:5916   */\ntag_36:\n    /* \"#utility.yul\":5860:5866   */\n  0x00\n    /* \"#utility.yul\":5907:5909   */\n  0x20\n    /* \"#utility.yul\":5902:5904   */\n  0x1f\n    /* \"#utility.yul\":5895:5900   */\n  dup4\n    /* \"#utility.yul\":5891:5905   */\n  add\n    /* \"#utility.yul\":5887:5910   */\n  div\n    /* \"#utility.yul\":5877:5910   */\n  swap1\n  pop\n    /* \"#utility.yul\":5823:5916   */\n  swap2\n  swap1\n  pop\n  jump\t// out\n    /* \"#utility.yul\":5922:6029   */\ntag_37:\n    /* \"#utility.yul\":5966:5974   */\n  0x00\n    /* \"#utility.yul\":6016:6021   */\n  dup3\n    /* \"#utility.yul\":6010:6014   */\n  dup3\n    /* \"#utility.yul\":6006:6022   */\n  shl\n    /* \"#utility.yul\":5985:6022   */\n  swap1\n  pop\n    /* \"#utility.yul\":5922:6029   */\n  swap3\n  swap2\n  pop\n  pop\n  jump\t// out\n    /* \"#utility.yul\":6035:6428   */\ntag_38:\n    /* \"#utility.yul\":6104:6110   */\n  0x00\n    /* \"#utility.yul\":6154:6155   */\n  0x08\n    /* \"#utility.yul\":6142:6152   */\n  dup4\n    /* \"#utility.yul\":6138:6156   */\n  mul\n    /* \"#utility.yul\":6177:6274   */\n  tag_123\n    /* \"#utility.yul\":6207:6273   */\n  0xffffffffffffffffffffffffffffffffffffffffffffffffffffffffffffffff\n    /* \"#utility.yul\":6196:6205   */\n  dup3\n    /* \"#utility.yul\":6177:6274   */\n  tag_37\n  jump\t// in\ntag_123:\n    /* \"#utility.yul\":6295:6334   */\n  tag_124\n    /* \"#utility.yul\":6325:6333   */\n  dup7\n    /* \"#utility.yul\":6314:6323   */\n  dup4\n    /* \"#utility.yul\":6295:6334   */\n  tag_37\n  jump\t// in\ntag_124:\n    /* \"#utility.yul\":6283:6334   */\n  swap6\n  pop\n    /* \"#utility.yul\":6367:6371   */\n  dup1\n    /* \"#utility.yul\":6363:6372   */\n  not\n    /* \"#utility.yul\":6356:6361   */\n  dup5\n    /* \"#utility.yul\":6352:6373   */\n  and\n    /* \"#utility.yul\":6343:6373   */\n  swap4\n  pop\n    /* \"#utility.yul\":6416:6420   */\n  dup1\n    /* \"#utility.yul\":6406:6414   */\n  dup7\n    /* \"#utility.yul\":6402:6421   */\n  and\n    /* \"#utility.yul\":6395:6400   */\n  dup5\n    /* \"#utility.yul\":6392:6422   */\n  or\n    /* \"#utility.yul\":6382:6422   */\n  swap3\n  pop\n    /* \"#utility.yul\":6111:6428   */\n  pop\n  pop\n    /* \"#utility.yul\":6035:6428   */\n  swap4\n  swap3\n  pop\n  pop\n  pop\n  jump\t// out\n    /* \"#utility.yul\":6434:6494   */\ntag_39:\n    /* \"#utility.yul\":6462:6465   */\n  0x00\n    /* \"#utility.yul\":6483:6488   */\n  dup2\n    /* \"#utility.yul\":6476:6488   */\n  swap1\n  pop\n    /* \"#utility.yul\":6434:6494   */\n  swap2\n  swap1\n  pop\n  jump\t// out\n    /* \"#utility.yul\":6500:6642   */\ntag_40:\n    /* \"#utility.yul\":6550:6559   */\n  0x00\n    /* \"#utility.yul\":6583:6636   */\n  tag_127\n    /* \"#utility.yul\":6601:6635   */\n  tag_128\n    /* \"#utility.yul\":6610:6634   */\n  tag_129\n    /* \"#utility.yul\":6628:6633   */\n  dup5\n    /* \"#utility.yul\":6610:6634   */\n  tag_22\n  jump\t// in\ntag_129:\n    /* \"#utility.yul\":6601:6635   */\n  tag_39\n  jump\t// in\ntag_128:\n    /* \"#utility.yul\":6583:6636   */\n  tag_22\n  jump\t// in\ntag_127:\n    /* \"#utility.yul\":6570:6636   */\n  swap1\n  pop\n    /* \"#utility.yul\":6500:6642   */\n  swap2\n  swap1\n  pop\n  jump\t// out\n    /* \"#utility.yul\":6648:6723   */\ntag_41:\n    /* \"#utility.yul\":6691:6694   */\n  0x00\n    /* \"#utility.yul\":6712:6717   */\n  dup2\n    /* \"#utility.yul\":6705:6717   */\n  swap1\n  pop\n    /* \"#utility.yul\":6648:6723   */\n  swap2\n  swap1\n  pop\n  jump\t// out\n    /* \"#utility.yul\":6729:6998   */\ntag_42:\n    /* \"#utility.yul\":6839:6878   */\n  tag_132\n    /* \"#utility.yul\":6870:6877   */\n  dup4\n    /* \"#utility.yul\":6839:6878   */\n  tag_40\n  jump\t// in\ntag_132:\n    /* \"#utility.yul\":6900:6991   */\n  tag_133\n    /* \"#utility.yul\":6949:6990   */\n  tag_134\n    /* \"#utility.yul\":6973:6989   */\n  dup3\n    /* \"#utility.yul\":6949:6990   */\n  tag_41\n  jump\t// in\ntag_134:\n    /* \"#utility.yul\":6941:6947   */\n  dup5\n    /* \"#utility.yul\":6934:6938   */\n  dup5\n    /* \"#utility.yul\":6928:6939   */\n  sload\n    /* \"#utility.yul\":6900:6991   */\n  tag_38\n  jump\t// in\ntag_133:\n    /* \"#utility.yul\":6894:6898   */\n  dup3\n    /* \"#utility.yul\":6887:6992   */\n  sstore\n    /* \"#utility.yul\":6805:6998   */\n  pop\n    /* \"#utility.yul\":6729:6998   */\n  pop\n  pop\n  pop\n  jump\t// out\n    /* \"#utility.yul\":7004:7077   */\ntag_43:\n    /* \"#utility.yul\":7049:7052   */\n  0x00\n    /* \"#utility.yul\":7004:7077   */\n  swap1\n  jump\t// out\n    /* \"#utility.yul\":7083:7272   */\ntag_44:\n    /* \"#utility.yul\":7160:7192   */\n  tag_137\n  tag_43\n  jump\t// in\ntag_137:\n    /* \"#utility.yul\":7201:7266   */\n  tag_138\n    /* \"#utility.yul\":7259:7265   */\n  dup2\n    /* \"#utility.yul\":7251:7257   */\n  dup5\n    /* \"#utility.yul\":7245:7249   */\n  dup5\n    /* \"#utility.yul\":7201:7266   */\n  tag_42\n  jump\t// in\ntag_138:\n    /* \"#utility.yul\":7136:7272   */\n  pop\n    /* \"#utility.yul\":7083:7272   */\n  pop\n  pop\n  jump\t// out\n    /* \"#utility.yul\":7278:7464   */\ntag_45:\n    /* \"#utility.yul\":7338:7458   */\ntag_140:\n    /* \"#utility.yul\":7355:7358   */\n  dup2\n    /* \"#utility.yul\":7348:7353   */\n  dup2\n    /* \"#utility.yul\":7345:7359   */\n  lt\n    /* \"#utility.yul\":7338:7458   */\n  iszero\n  tag_142\n  jumpi\n    /* \"#utility.yul\":7409:7448   */\n  tag_143\n    /* \"#utility.yul\":7446:7447   */\n  0x00\n    /* \"#utility.yul\":7439:7444   */\n  dup3\n    /* \"#utility.yul\":7409:7448   */\n  tag_44\n  jump\t// in\ntag_143:\n    /* \"#utility.yul\":7382:7383   */\n  0x01\n    /* \"#utility.yul\":7375:7380   */\n  dup2\n    /* \"#utility.yul\":7371:7384   */\n  add\n    /* \"#utility.yul\":7362:7384   */\n  swap1\n  pop\n    /* \"#utility.yul\":7338:7458   */\n  jump(tag_140)\ntag_142:\n    /* \"#utility.yul\":7278:7464   */\n  pop\n  pop\n  jump\t// out\n    /* \"#utility.yul\":7470:8013   */\ntag_46:\n    /* \"#utility.yul\":7571:7573   */\n  0x1f\n    /* \"#utility.yul\":7566:7569   */\n  dup3\n    /* \"#utility.yul\":7563:7574   */\n  gt\n    /* \"#utility.yul\":7560:8006   */\n  iszero\n  tag_145\n  jumpi\n    /* \"#utility.yul\":7605:7643   */\n  tag_146\n    /* \"#utility.yul\":7637:7642   */\n  dup2\n    /* \"#utility.yul\":7605:7643   */\n  tag_35\n  jump\t// in\ntag_146:\n    /* \"#utility.yul\":7689:7718   */\n  tag_147\n    /* \"#utility.yul\":7707:7717   */\n  dup5\n    /* \"#utility.yul\":7689:7718   */\n  tag_36\n  jump\t// in\ntag_147:\n    /* \"#utility.yul\":7679:7687   */\n  dup2\n    /* \"#utility.yul\":7675:7719   */\n  add\n    /* \"#utility.yul\":7872:7874   */\n  0x20\n    /* \"#utility.yul\":7860:7870   */\n  dup6\n    /* \"#utility.yul\":7857:7875   */\n  lt\n    /* \"#utility.yul\":7854:7903   */\n  iszero\n  tag_148\n  jumpi\n    /* \"#utility.yul\":7893:7901   */\n  dup2\n    /* \"#utility.yul\":7878:7901   */\n  swap1\n  pop\n    /* \"#utility.yul\":7854:7903   */\ntag_148:\n    /* \"#utility.yul\":7916:7996   */\n  tag_149\n    /* \"#utility.yul\":7972:7994   */\n  tag_150\n    /* \"#utility.yul\":7990:7993   */\n  dup6\n    /* \"#utility.yul\":7972:7994   */\n  tag_36\n  jump\t// in\ntag_150:\n    /* \"#utility.yul\":7962:7970   */\n  dup4\n    /* \"#utility.yul\":7958:7995   */\n  add\n    /* \"#utility.yul\":7945:7956   */\n  dup3\n    /* \"#utility.yul\":7916:7996   */\n  tag_45\n  jump\t// in\ntag_149:\n    /* \"#utility.yul\":7575:8006   */\n  pop\n  pop\n    /* \"#utility.yul\":7560:8006   */\ntag_145:\n    /* \"#utility.yul\":7470:8013   */\n  pop\n  pop\n  pop\n  jump\t// out\n    /* \"#utility.yul\":8019:8136   */\ntag_47:\n    /* \"#utility.yul\":8073:8081   */\n  0x00\n    /* \"#utility.yul\":8123:8128   */\n  dup3\n    /* \"#utility.yul\":8117:8121   */\n  dup3\n    /* \"#utility.yul\":8113:8129   */\n  shr\n    /* \"#utility.yul\":8092:8129   */\n  swap1\n  pop\n    /* \"#utility.yul\":8019:8136   */\n  swap3\n  swap2\n  pop\n  pop\n  jump\t// out\n    /* \"#utility.yul\":8142:8311   */\ntag_48:\n    /* \"#utility.yul\":8186:8192   */\n  0x00\n    /* \"#utility.yul\":8219:8270   */\n  tag_153\n    /* \"#utility.yul\":8267:8268   */\n  0x00\n    /* \"#utility.yul\":8263:8269   */\n  not\n    /* \"#utility.yul\":8255:8260   */\n  dup5\n    /* \"#utility.yul\":8252:8253   */\n  0x08\n    /* \"#utility.yul\":8248:8261   */\n  mul\n    /* \"#utility.yul\":8219:8270   */\n  tag_47\n  jump\t// in\ntag_153:\n    /* \"#utility.yul\":8215:8271   */\n  not\n    /* \"#utility.yul\":8300:8304   */\n  dup1\n    /* \"#utility.yul\":8294:8298   */\n  dup4\n    /* \"#utility.yul\":8290:8305   */\n  and\n    /* \"#utility.yul\":8280:8305   */\n  swap2\n  pop\n    /* \"#utility.yul\":8193:8311   */\n  pop\n    /* \"#utility.yul\":8142:8311   */\n  swap3\n  swap2\n  pop\n  pop\n  jump\t// out\n    /* \"#utility.yul\":8316:8611   */\ntag_49:\n    /* \"#utility.yul\":8392:8396   */\n  0x00\n    /* \"#utility.yul\":8538:8567   */\n  tag_155\n    /* \"#utility.yul\":8563:8566   */\n  dup4\n    /* \"#utility.yul\":8557:8561   */\n  dup4\n    /* \"#utility.yul\":8538:8567   */\n  tag_48\n  jump\t// in\ntag_155:\n    /* \"#utility.yul\":8530:8567   */\n  swap2\n  pop\n    /* \"#utility.yul\":8600:8603   */\n  dup3\n    /* \"#utility.yul\":8597:8598   */\n  0x02\n    /* \"#utility.yul\":8593:8604   */\n  mul\n    /* \"#utility.yul\":8587:8591   */\n  dup3\n    /* \"#utility.yul\":8584:8605   */\n  or\n    /* \"#utility.yul\":8576:8605   */\n  swap1\n  pop\n    /* \"#utility.yul\":8316:8611   */\n  swap3\n  swap2\n  pop\n  pop\n  jump\t// out\n    /* \"#utility.yul\":8616:10011   */\ntag_7:\n    /* \"#utility.yul\":8733:8770   */\n  tag_157\n    /* \"#utility.yul\":8766:8769   */\n  dup3\n    /* \"#utility.yul\":8733:8770   */\n  tag_32\n  jump\t// in\ntag_157:\n    /* \"#utility.yul\":8835:8853   */\n  0xffffffffffffffff\n    /* \"#utility.yul\":8827:8833   */\n  dup2\n    /* \"#utility.yul\":8824:8854   */\n  gt\n    /* \"#utility.yul\":8821:8877   */\n  iszero\n  tag_158\n  jumpi\n    /* \"#utility.yul\":8857:8875   */\n  tag_159\n  tag_15\n  jump\t// in\ntag_159:\n    /* \"#utility.yul\":8821:8877   */\ntag_158:\n    /* \"#utility.yul\":8901:8939   */\n  tag_160\n    /* \"#utility.yul\":8933:8937   */\n  dup3\n    /* \"#utility.yul\":8927:8938   */\n  sload\n    /* \"#utility.yul\":8901:8939   */\n  tag_34\n  jump\t// in\ntag_160:\n    /* \"#utility.yul\":8986:9053   */\n  tag_161\n    /* \"#utility.yul\":9046:9052   */\n  dup3\n    /* \"#utility.yul\":9038:9044   */\n  dup3\n    /* \"#utility.yul\":9032:9036   */\n  dup6\n    /* \"#utility.yul\":8986:9053   */\n  tag_46\n  jump\t// in\ntag_161:\n    /* \"#utility.yul\":9080:9081   */\n  0x00\n    /* \"#utility.yul\":9104:9108   */\n  0x20\n    /* \"#utility.yul\":9091:9108   */\n  swap1\n  pop\n    /* \"#utility.yul\":9136:9138   */\n  0x1f\n    /* \"#utility.yul\":9128:9134   */\n  dup4\n    /* \"#utility.yul\":9125:9139   */\n  gt\n    /* \"#utility.yul\":9153:9154   */\n  0x01\n    /* \"#utility.yul\":9148:9766   */\n  dup2\n  eq\n  tag_163\n  jumpi\n    /* \"#utility.yul\":9810:9811   */\n  0x00\n    /* \"#utility.yul\":9827:9833   */\n  dup5\n    /* \"#utility.yul\":9824:9901   */\n  iszero\n  tag_164\n  jumpi\n    /* \"#utility.yul\":9876:9885   */\n  dup3\n    /* \"#utility.yul\":9871:9874   */\n  dup8\n    /* \"#utility.yul\":9867:9886   */\n  add\n    /* \"#utility.yul\":9861:9887   */\n  mload\n    /* \"#utility.yul\":9852:9887   */\n  swap1\n  pop\n    /* \"#utility.yul\":9824:9901   */\ntag_164:\n    /* \"#utility.yul\":9927:9994   */\n  tag_165\n    /* \"#utility.yul\":9987:9993   */\n  dup6\n    /* \"#utility.yul\":9980:9985   */\n  dup3\n    /* \"#utility.yul\":9927:9994   */\n  tag_49\n  jump\t// in\ntag_165:\n    /* \"#utility.yul\":9921:9925   */\n  dup7\n    /* \"#utility.yul\":9914:9995   */\n  sstore\n    /* \"#utility.yul\":9783:10005   */\n  pop\n    /* \"#utility.yul\":9118:10005   */\n  jump(tag_162)\n    /* \"#utility.yul\":9148:9766   */\ntag_163:\n    /* \"#utility.yul\":9200:9204   */\n  0x1f\n    /* \"#utility.yul\":9196:9205   */\n  not\n    /* \"#utility.yul\":9188:9194   */\n  dup5\n    /* \"#utility.yul\":9184:9206   */\n  and\n    /* \"#utility.yul\":9234:9271   */\n  tag_166\n    /* \"#utility.yul\":9266:9270   */\n  dup7\n    /* \"#utility.yul\":9234:9271   */\n  tag_35\n  jump\t// in\ntag_166:\n    /* \"#utility.yul\":9293:9294   */\n  0x00\n    /* \"#utility.yul\":9307:9515   */\ntag_167:\n    /* \"#utility.yul\":9321:9328   */\n  dup3\n    /* \"#utility.yul\":9318:9319   */\n  dup2\n    /* \"#utility.yul\":9315:9329   */\n  lt\n    /* \"#utility.yul\":9307:9515   */\n  iszero\n  tag_169\n  jumpi\n    /* \"#utility.yul\":9400:9409   */\n  dup5\n    /* \"#utility.yul\":9395:9398   */\n  dup10\n    /* \"#utility.yul\":9391:9410   */\n  add\n    /* \"#utility.yul\":9385:9411   */\n  mload\n    /* \"#utility.yul\":9377:9383   */\n  dup3\n    /* \"#utility.yul\":9370:9412   */\n  sstore\n    /* \"#utility.yul\":9451:9452   */\n  0x01\n    /* \"#utility.yul\":9443:9449   */\n  dup3\n    /* \"#utility.yul\":9439:9453   */\n  add\n    /* \"#utility.yul\":9429:9453   */\n  swap2\n  pop\n    /* \"#utility.yul\":9498:9500   */\n  0x20\n    /* \"#utility.yul\":9487:9496   */\n  dup6\n    /* \"#utility.yul\":9483:9501   */\n  add\n    /* \"#utility.yul\":9470:9501   */\n  swap5\n  pop\n    /* \"#utility.yul\":9344:9348   */\n  0x20\n    /* \"#utility.yul\":9341:9342   */\n  dup2\n    /* \"#utility.yul\":9337:9349   */\n  add\n    /* \"#utility.yul\":9332:9349   */\n  swap1\n  pop\n    /* \"#utility.yul\":9307:9515   */\n  jump(tag_167)\ntag_169:\n    /* \"#utility.yul\":9543:9549   */\n  dup7\n    /* \"#utility.yul\":9534:9541   */\n  dup4\n    /* \"#utility.yul\":9531:9550   */\n  lt\n    /* \"#utility.yul\":9528:9707   */\n  iszero\n  tag_170\n  jumpi\n    /* \"#utility.yul\":9601:9610   */\n  dup5\n    /* \"#utility.yul\":9596:9599   */\n  dup10\n    /* \"#utility.yul\":9592:9611   */\n  add\n    /* \"#utility.yul\":9586:9612   */\n  mload\n    /* \"#utility.yul\":9644:9692   */\n  tag_171\n    /* \"#utility.yul\":9686:9690   */\n  0x1f\n    /* \"#utility.yul\":9678:9684   */\n  dup10\n    /* \"#utility.yul\":9674:9691   */\n  and\n    /* \"#utility.yul\":9663:9672   */\n  dup3\n    /* \"#utility.yul\":9644:9692   */\n  tag_48\n  jump\t// in\ntag_171:\n    /* \"#utility.yul\":9636:9642   */\n  dup4\n    /* \"#utility.yul\":9629:9693   */\n  sstore\n    /* \"#utility.yul\":9551:9707   */\n  pop\n    /* \"#utility.yul\":9528:9707   */\ntag_170:\n    /* \"#utility.yul\":9753:9754   */\n  0x01\n    /* \"#utility.yul\":9749:9750   */\n  0x02\n    /* \"#utility.yul\":9741:9747   */\n  dup9\n    /* \"#utility.yul\":9737:9751   */\n  mul\n    /* \"#utility.yul\":9733:9755   */\n  add\n    /* \"#utility.yul\":9727:9731   */\n  dup9\n    /* \"#utility.yul\":9720:9756   */\n  sstore\n    /* \"#utility.yul\":9155:9766   */\n  pop\n  pop\n  pop\n    /* \"#utility.yul\":9118:10005   */\ntag_162:\n  pop\n    /* \"#utility.yul\":8708:10011   */\n  pop\n  pop\n  pop\n    /* \"#utility.yul\":8616:10011   */\n  pop\n  pop\n  jump\t// out\n    /* \"Donation.sol\":280:1624  contract Donation {... */\ntag_8:\n  dataSize(sub_0)\n  dup1\n  dataOffset(sub_0)\n  0x00\n  codecopy\n  0x00\n  return\nstop\n\nsub_0: assembly {\n        /* \"Donation.sol\":280:1624  contract Donation {... */\n      mstore(0x40, 0x80)\n      jumpi(tag_1, lt(calldatasize, 0x04))\n      shr(0xe0, calldataload(0x00))\n      dup1\n      0x893d20e8\n      gt\n      tag_11\n      jumpi\n      dup1\n      0x893d20e8\n      eq\n      tag_6\n      jumpi\n      dup1\n      0xb383bf2d\n      eq\n      tag_7\n      jumpi\n      dup1\n      0xeae3f764\n      eq\n      tag_8\n      jumpi\n      dup1\n      0xed11f46a\n      eq\n      tag_9\n      jumpi\n      dup1\n      0xed88c68e\n      eq\n      tag_10\n      jumpi\n      jump(tag_1)\n    tag_11:\n      dup1\n      0x354ecc85\n      eq\n      tag_2\n      jumpi\n      dup1\n      0x51cff8d9\n      eq\n      tag_3\n      jumpi\n      dup1\n      0x798be230\n      eq\n      tag_4\n      jumpi\n      dup1\n      0x80fdef1b\n      eq\n      tag_5\n      jumpi\n    tag_1:\n      0x00\n      dup1\n      revert\n        /* \"Donation.sol\":305:332  string public _donationName */\n    tag_2:\n      callvalue\n      dup1\n      iszero\n      tag_12\n      jumpi\n      0x00\n      dup1\n      revert\n    tag_12:\n      pop\n      tag_13\n      tag_14\n      jump\t// in\n    tag_13:\n      mload(0x40)\n      tag_15\n      swap2\n      swap1\n      tag_16\n      jump\t// in\n    tag_15:\n      mload(0x40)\n      dup1\n      swap2\n      sub\n      swap1\n      return\n        /* \"Donation.sol\":1233:1432  function withdraw(address owner) public {... */\n    tag_3:\n      callvalue\n      dup1\n      iszero\n      tag_17\n      jumpi\n      0x00\n      dup1\n      revert\n    tag_17:\n      pop\n      tag_18\n      0x04\n      dup1\n      calldatasize\n      sub\n      dup2\n      add\n      swap1\n      tag_19\n      swap2\n      swap1\n      tag_20\n      jump\t// in\n    tag_19:\n      tag_21\n      jump\t// in\n    tag_18:\n      stop\n        /* \"Donation.sol\":411:450  bool public acceptPaymentAfterAmountMet */\n    tag_4:\n      callvalue\n      dup1\n      iszero\n      tag_22\n      jumpi\n      0x00\n      dup1\n      revert\n    tag_22:\n      pop\n      tag_23\n      tag_24\n      jump\t// in\n    tag_23:\n      mload(0x40)\n      tag_25\n      swap2\n      swap1\n      tag_26\n      jump\t// in\n    tag_25:\n      mload(0x40)\n      dup1\n      swap2\n      sub\n      swap1\n      return\n        /* \"Donation.sol\":373:405  uint public donationAmountNeeded */\n    tag_5:\n      callvalue\n      dup1\n      iszero\n      tag_27\n      jumpi\n      0x00\n      dup1\n      revert\n    tag_27:\n      pop\n      tag_28\n      tag_29\n      jump\t// in\n    tag_28:\n      mload(0x40)\n      tag_30\n      swap2\n      swap1\n      tag_31\n      jump\t// in\n    tag_30:\n      mload(0x40)\n      dup1\n      swap2\n      sub\n      swap1\n      return\n        /* \"Donation.sol\":1543:1622  function getOwner() public view returns(address) {... */\n    tag_6:\n      callvalue\n      dup1\n      iszero\n      tag_32\n      jumpi\n      0x00\n      dup1\n      revert\n    tag_32:\n      pop\n      tag_33\n      tag_34\n      jump\t// in\n    tag_33:\n      mload(0x40)\n      tag_35\n      swap2\n      swap1\n      tag_36\n      jump\t// in\n    tag_35:\n      mload(0x40)\n      dup1\n      swap2\n      sub\n      swap1\n      return\n        /* \"Donation.sol\":338:367  uint public donationMinAmount */\n    tag_7:\n      callvalue\n      dup1\n      iszero\n      tag_37\n      jumpi\n      0x00\n      dup1\n      revert\n    tag_37:\n      pop\n      tag_38\n      tag_39\n      jump\t// in\n    tag_38:\n      mload(0x40)\n      tag_40\n      swap2\n      swap1\n      tag_31\n      jump\t// in\n    tag_40:\n      mload(0x40)\n      dup1\n      swap2\n      sub\n      swap1\n      return\n        /* \"Donation.sol\":1438:1537  function getDonationName() public view returns (string memory){... */\n    tag_8:\n      callvalue\n      dup1\n      iszero\n      tag_41\n      jumpi\n      0x00\n      dup1\n      revert\n    tag_41:\n      pop\n      tag_42\n      tag_43\n      jump\t// in\n    tag_42:\n      mload(0x40)\n      tag_44\n      swap2\n      swap1\n      tag_16\n      jump\t// in\n    tag_44:\n      mload(0x40)\n      dup1\n      swap2\n      sub\n      swap1\n      return\n        /* \"Donation.sol\":1126:1227  function donationBalance() view external returns (uint) {... */\n    tag_9:\n      callvalue\n      dup1\n      iszero\n      tag_45\n      jumpi\n      0x00\n      dup1\n      revert\n    tag_45:\n      pop\n      tag_46\n      tag_47\n      jump\t// in\n    tag_46:\n      mload(0x40)\n      tag_48\n      swap2\n      swap1\n      tag_31\n      jump\t// in\n    tag_48:\n      mload(0x40)\n      dup1\n      swap2\n      sub\n      swap1\n      return\n        /* \"Donation.sol\":772:1120  function donate() payable external {... */\n    tag_10:\n      tag_49\n      tag_50\n      jump\t// in\n    tag_49:\n      stop\n        /* \"Donation.sol\":305:332  string public _donationName */\n    tag_14:\n      0x00\n      dup1\n      sload\n      tag_51\n      swap1\n      tag_52\n      jump\t// in\n    tag_51:\n      dup1\n      0x1f\n      add\n      0x20\n      dup1\n      swap2\n      div\n      mul\n      0x20\n      add\n      mload(0x40)\n      swap1\n      dup2\n      add\n      0x40\n      mstore\n      dup1\n      swap3\n      swap2\n      swap1\n      dup2\n      dup2\n      mstore\n      0x20\n      add\n      dup3\n      dup1\n      sload\n      tag_53\n      swap1\n      tag_52\n      jump\t// in\n    tag_53:\n      dup1\n      iszero\n      tag_54\n      jumpi\n      dup1\n      0x1f\n      lt\n      tag_55\n      jumpi\n      0x0100\n      dup1\n      dup4\n      sload\n      div\n      mul\n      dup4\n      mstore\n      swap2\n      0x20\n      add\n      swap2\n      jump(tag_54)\n    tag_55:\n      dup3\n      add\n      swap2\n      swap1\n      0x00\n      mstore\n      keccak256(0x00, 0x20)\n      swap1\n    tag_56:\n      dup2\n      sload\n      dup2\n      mstore\n      swap1\n      0x01\n      add\n      swap1\n      0x20\n      add\n      dup1\n      dup4\n      gt\n      tag_56\n      jumpi\n      dup3\n      swap1\n      sub\n      0x1f\n      and\n      dup3\n      add\n      swap2\n    tag_54:\n      pop\n      pop\n      pop\n      pop\n      pop\n      dup2\n      jump\t// out\n        /* \"Donation.sol\":1233:1432  function withdraw(address owner) public {... */\n    tag_21:\n        /* \"Donation.sol\":1301:1306  owner */\n      dup1\n        /* \"Donation.sol\":1291:1306  _owner == owner */\n      0xffffffffffffffffffffffffffffffffffffffff\n      and\n        /* \"Donation.sol\":1291:1297  _owner */\n      0x03\n      0x01\n      swap1\n      sload\n      swap1\n      0x0100\n      exp\n      swap1\n      div\n      0xffffffffffffffffffffffffffffffffffffffff\n      and\n        /* \"Donation.sol\":1291:1306  _owner == owner */\n      0xffffffffffffffffffffffffffffffffffffffff\n      and\n      eq\n        /* \"Donation.sol\":1283:1359  require(_owner == owner, \"Only owner of this donation can withdraw from it\") */\n      tag_58\n      jumpi\n      mload(0x40)\n      0x08c379a000000000000000000000000000000000000000000000000000000000\n      dup2\n      mstore\n      0x04\n      add\n      tag_59\n      swap1\n      tag_60\n      jump\t// in\n    tag_59:\n      mload(0x40)\n      dup1\n      swap2\n      sub\n      swap1\n      revert\n    tag_58:\n        /* \"Donation.sol\":1377:1383  _owner */\n      0x03\n      0x01\n      swap1\n      sload\n      swap1\n      0x0100\n      exp\n      swap1\n      div\n      0xffffffffffffffffffffffffffffffffffffffff\n      and\n        /* \"Donation.sol\":1369:1389  payable(_owner).call */\n      0xffffffffffffffffffffffffffffffffffffffff\n      and\n        /* \"Donation.sol\":1398:1419  address(this).balance */\n      selfbalance\n        /* \"Donation.sol\":1369:1425  payable(_owner).call{value: (address(this).balance)}(\"\") */\n      mload(0x40)\n      tag_61\n      swap1\n      tag_62\n      jump\t// in\n    tag_61:\n      0x00\n      mload(0x40)\n      dup1\n      dup4\n      sub\n      dup2\n      dup6\n      dup8\n      gas\n      call\n      swap3\n      pop\n      pop\n      pop\n      returndatasize\n      dup1\n      0x00\n      dup2\n      eq\n      tag_65\n      jumpi\n      mload(0x40)\n      swap2\n      pop\n      and(add(returndatasize, 0x3f), not(0x1f))\n      dup3\n      add\n      0x40\n      mstore\n      returndatasize\n      dup3\n      mstore\n      returndatasize\n      0x00\n      0x20\n      dup5\n      add\n      returndatacopy\n      jump(tag_64)\n    tag_65:\n      0x60\n      swap2\n      pop\n    tag_64:\n      pop\n      pop\n      pop\n        /* \"Donation.sol\":1233:1432  function withdraw(address owner) public {... */\n      pop\n      jump\t// out\n        /* \"Donation.sol\":411:450  bool public acceptPaymentAfterAmountMet */\n    tag_24:\n      0x03\n      0x00\n      swap1\n      sload\n      swap1\n      0x0100\n      exp\n      swap1\n      div\n      0xff\n      and\n      dup2\n      jump\t// out\n        /* \"Donation.sol\":373:405  uint public donationAmountNeeded */\n    tag_29:\n      sload(0x02)\n      dup2\n      jump\t// out\n        /* \"Donation.sol\":1543:1622  function getOwner() public view returns(address) {... */\n    tag_34:\n        /* \"Donation.sol\":1583:1590  address */\n      0x00\n        /* \"Donation.sol\":1609:1615  _owner */\n      0x03\n      0x01\n      swap1\n      sload\n      swap1\n      0x0100\n      exp\n      swap1\n      div\n      0xffffffffffffffffffffffffffffffffffffffff\n      and\n        /* \"Donation.sol\":1602:1615  return _owner */\n      swap1\n      pop\n        /* \"Donation.sol\":1543:1622  function getOwner() public view returns(address) {... */\n      swap1\n      jump\t// out\n        /* \"Donation.sol\":338:367  uint public donationMinAmount */\n    tag_39:\n      sload(0x01)\n      dup2\n      jump\t// out\n        /* \"Donation.sol\":1438:1537  function getDonationName() public view returns (string memory){... */\n    tag_43:\n        /* \"Donation.sol\":1486:1499  string memory */\n      0x60\n        /* \"Donation.sol\":1517:1530  _donationName */\n      0x00\n        /* \"Donation.sol\":1510:1530  return _donationName */\n      dup1\n      sload\n      tag_68\n      swap1\n      tag_52\n      jump\t// in\n    tag_68:\n      dup1\n      0x1f\n      add\n      0x20\n      dup1\n      swap2\n      div\n      mul\n      0x20\n      add\n      mload(0x40)\n      swap1\n      dup2\n      add\n      0x40\n      mstore\n      dup1\n      swap3\n      swap2\n      swap1\n      dup2\n      dup2\n      mstore\n      0x20\n      add\n      dup3\n      dup1\n      sload\n      tag_69\n      swap1\n      tag_52\n      jump\t// in\n    tag_69:\n      dup1\n      iszero\n      tag_70\n      jumpi\n      dup1\n      0x1f\n      lt\n      tag_71\n      jumpi\n      0x0100\n      dup1\n      dup4\n      sload\n      div\n      mul\n      dup4\n      mstore\n      swap2\n      0x20\n      add\n      swap2\n      jump(tag_70)\n    tag_71:\n      dup3\n      add\n      swap2\n      swap1\n      0x00\n      mstore\n      keccak256(0x00, 0x20)\n      swap1\n    tag_72:\n      dup2\n      sload\n      dup2\n      mstore\n      swap1\n      0x01\n      add\n      swap1\n      0x20\n      add\n      dup1\n      dup4\n      gt\n      tag_72\n      jumpi\n      dup3\n      swap1\n      sub\n      0x1f\n      and\n      dup3\n      add\n      swap2\n    tag_70:\n      pop\n      pop\n      pop\n      pop\n      pop\n      swap1\n      pop\n        /* \"Donation.sol\":1438:1537  function getDonationName() public view returns (string memory){... */\n      swap1\n      jump\t// out\n        /* \"Donation.sol\":1126:1227  function donationBalance() view external returns (uint) {... */\n    tag_47:\n        /* \"Donation.sol\":1176:1180  uint */\n      0x00\n        /* \"Donation.sol\":1199:1220  address(this).balance */\n      selfbalance\n        /* \"Donation.sol\":1192:1220  return address(this).balance */\n      swap1\n      pop\n        /* \"Donation.sol\":1126:1227  function donationBalance() view external returns (uint) {... */\n      swap1\n      jump\t// out\n        /* \"Donation.sol\":772:1120  function donate() payable external {... */\n    tag_50:\n        /* \"Donation.sol\":838:855  donationMinAmount */\n      sload(0x01)\n        /* \"Donation.sol\":825:834  msg.value */\n      callvalue\n        /* \"Donation.sol\":825:855  msg.value >= donationMinAmount */\n      lt\n      iszero\n        /* \"Donation.sol\":817:897  require(msg.value >= donationMinAmount, \"You cannot donate below ${_minAmount}\") */\n      tag_75\n      jumpi\n      mload(0x40)\n      0x08c379a000000000000000000000000000000000000000000000000000000000\n      dup2\n      mstore\n      0x04\n      add\n      tag_76\n      swap1\n      tag_77\n      jump\t// in\n    tag_76:\n      mload(0x40)\n      dup1\n      swap2\n      sub\n      swap1\n      revert\n    tag_75:\n        /* \"Donation.sol\":912:939  acceptPaymentAfterAmountMet */\n      0x03\n      0x00\n      swap1\n      sload\n      swap1\n      0x0100\n      exp\n      swap1\n      div\n      0xff\n      and\n        /* \"Donation.sol\":907:1114  if (!acceptPaymentAfterAmountMet) {... */\n      tag_78\n      jumpi\n        /* \"Donation.sol\":955:967  uint balance */\n      0x00\n        /* \"Donation.sol\":970:991  address(this).balance */\n      selfbalance\n        /* \"Donation.sol\":955:991  uint balance = address(this).balance */\n      swap1\n      pop\n        /* \"Donation.sol\":1036:1056  donationAmountNeeded */\n      sload(0x02)\n        /* \"Donation.sol\":1023:1032  msg.value */\n      callvalue\n        /* \"Donation.sol\":1013:1020  balance */\n      dup3\n        /* \"Donation.sol\":1013:1032  balance + msg.value */\n      tag_79\n      swap2\n      swap1\n      tag_80\n      jump\t// in\n    tag_79:\n        /* \"Donation.sol\":1013:1056  balance + msg.value <= donationAmountNeeded */\n      gt\n      iszero\n        /* \"Donation.sol\":1005:1103  require(balance + msg.value <= donationAmountNeeded, \"Your donation will cross the amount needed\") */\n      tag_81\n      jumpi\n      mload(0x40)\n      0x08c379a000000000000000000000000000000000000000000000000000000000\n      dup2\n      mstore\n      0x04\n      add\n      tag_82\n      swap1\n      tag_83\n      jump\t// in\n    tag_82:\n      mload(0x40)\n      dup1\n      swap2\n      sub\n      swap1\n      revert\n    tag_81:\n        /* \"Donation.sol\":941:1114  {... */\n      pop\n        /* \"Donation.sol\":907:1114  if (!acceptPaymentAfterAmountMet) {... */\n    tag_78:\n        /* \"Donation.sol\":772:1120  function donate() payable external {... */\n      jump\t// out\n        /* \"#utility.yul\":7:106   */\n    tag_84:\n        /* \"#utility.yul\":59:65   */\n      0x00\n        /* \"#utility.yul\":93:98   */\n      dup2\n        /* \"#utility.yul\":87:99   */\n      mload\n        /* \"#utility.yul\":77:99   */\n      swap1\n      pop\n        /* \"#utility.yul\":7:106   */\n      swap2\n      swap1\n      pop\n      jump\t// out\n        /* \"#utility.yul\":112:281   */\n    tag_85:\n        /* \"#utility.yul\":196:207   */\n      0x00\n        /* \"#utility.yul\":230:236   */\n      dup3\n        /* \"#utility.yul\":225:228   */\n      dup3\n        /* \"#utility.yul\":218:237   */\n      mstore\n        /* \"#utility.yul\":270:274   */\n      0x20\n        /* \"#utility.yul\":265:268   */\n      dup3\n        /* \"#utility.yul\":261:275   */\n      add\n        /* \"#utility.yul\":246:275   */\n      swap1\n      pop\n        /* \"#utility.yul\":112:281   */\n      swap3\n      swap2\n      pop\n      pop\n      jump\t// out\n        /* \"#utility.yul\":287:533   */\n    tag_86:\n        /* \"#utility.yul\":368:369   */\n      0x00\n        /* \"#utility.yul\":378:491   */\n    tag_116:\n        /* \"#utility.yul\":392:398   */\n      dup4\n        /* \"#utility.yul\":389:390   */\n      dup2\n        /* \"#utility.yul\":386:399   */\n      lt\n        /* \"#utility.yul\":378:491   */\n      iszero\n      tag_118\n      jumpi\n        /* \"#utility.yul\":477:478   */\n      dup1\n        /* \"#utility.yul\":472:475   */\n      dup3\n        /* \"#utility.yul\":468:479   */\n      add\n        /* \"#utility.yul\":462:480   */\n      mload\n        /* \"#utility.yul\":458:459   */\n      dup2\n        /* \"#utility.yul\":453:456   */\n      dup5\n        /* \"#utility.yul\":449:460   */\n      add\n        /* \"#utility.yul\":442:481   */\n      mstore\n        /* \"#utility.yul\":414:416   */\n      0x20\n        /* \"#utility.yul\":411:412   */\n      dup2\n        /* \"#utility.yul\":407:417   */\n      add\n        /* \"#utility.yul\":402:417   */\n      swap1\n      pop\n        /* \"#utility.yul\":378:491   */\n      jump(tag_116)\n    tag_118:\n        /* \"#utility.yul\":525:526   */\n      0x00\n        /* \"#utility.yul\":516:522   */\n      dup5\n        /* \"#utility.yul\":511:514   */\n      dup5\n        /* \"#utility.yul\":507:523   */\n      add\n        /* \"#utility.yul\":500:527   */\n      mstore\n        /* \"#utility.yul\":349:533   */\n      pop\n        /* \"#utility.yul\":287:533   */\n      pop\n      pop\n      pop\n      jump\t// out\n        /* \"#utility.yul\":539:641   */\n    tag_87:\n        /* \"#utility.yul\":580:586   */\n      0x00\n        /* \"#utility.yul\":631:633   */\n      0x1f\n        /* \"#utility.yul\":627:634   */\n      not\n        /* \"#utility.yul\":622:624   */\n      0x1f\n        /* \"#utility.yul\":615:620   */\n      dup4\n        /* \"#utility.yul\":611:625   */\n      add\n        /* \"#utility.yul\":607:635   */\n      and\n        /* \"#utility.yul\":597:635   */\n      swap1\n      pop\n        /* \"#utility.yul\":539:641   */\n      swap2\n      swap1\n      pop\n      jump\t// out\n        /* \"#utility.yul\":647:1024   */\n    tag_88:\n        /* \"#utility.yul\":735:738   */\n      0x00\n        /* \"#utility.yul\":763:802   */\n      tag_121\n        /* \"#utility.yul\":796:801   */\n      dup3\n        /* \"#utility.yul\":763:802   */\n      tag_84\n      jump\t// in\n    tag_121:\n        /* \"#utility.yul\":818:889   */\n      tag_122\n        /* \"#utility.yul\":882:888   */\n      dup2\n        /* \"#utility.yul\":877:880   */\n      dup6\n        /* \"#utility.yul\":818:889   */\n      tag_85\n      jump\t// in\n    tag_122:\n        /* \"#utility.yul\":811:889   */\n      swap4\n      pop\n        /* \"#utility.yul\":898:963   */\n      tag_123\n        /* \"#utility.yul\":956:962   */\n      dup2\n        /* \"#utility.yul\":951:954   */\n      dup6\n        /* \"#utility.yul\":944:948   */\n      0x20\n        /* \"#utility.yul\":937:942   */\n      dup7\n        /* \"#utility.yul\":933:949   */\n      add\n        /* \"#utility.yul\":898:963   */\n      tag_86\n      jump\t// in\n    tag_123:\n        /* \"#utility.yul\":988:1017   */\n      tag_124\n        /* \"#utility.yul\":1010:1016   */\n      dup2\n        /* \"#utility.yul\":988:1017   */\n      tag_87\n      jump\t// in\n    tag_124:\n        /* \"#utility.yul\":983:986   */\n      dup5\n        /* \"#utility.yul\":979:1018   */\n      add\n        /* \"#utility.yul\":972:1018   */\n      swap2\n      pop\n        /* \"#utility.yul\":739:1024   */\n      pop\n        /* \"#utility.yul\":647:1024   */\n      swap3\n      swap2\n      pop\n      pop\n      jump\t// out\n        /* \"#utility.yul\":1030:1343   */\n    tag_16:\n        /* \"#utility.yul\":1143:1147   */\n      0x00\n        /* \"#utility.yul\":1181:1183   */\n      0x20\n        /* \"#utility.yul\":1170:1179   */\n      dup3\n        /* \"#utility.yul\":1166:1184   */\n      add\n        /* \"#utility.yul\":1158:1184   */\n      swap1\n      pop\n        /* \"#utility.yul\":1230:1239   */\n      dup2\n        /* \"#utility.yul\":1224:1228   */\n      dup2\n        /* \"#utility.yul\":1220:1240   */\n      sub\n        /* \"#utility.yul\":1216:1217   */\n      0x00\n        /* \"#utility.yul\":1205:1214   */\n      dup4\n        /* \"#utility.yul\":1201:1218   */\n      add\n        /* \"#utility.yul\":1194:1241   */\n      mstore\n        /* \"#utility.yul\":1258:1336   */\n      tag_126\n        /* \"#utility.yul\":1331:1335   */\n      dup2\n        /* \"#utility.yul\":1322:1328   */\n      dup5\n        /* \"#utility.yul\":1258:1336   */\n      tag_88\n      jump\t// in\n    tag_126:\n        /* \"#utility.yul\":1250:1336   */\n      swap1\n      pop\n        /* \"#utility.yul\":1030:1343   */\n      swap3\n      swap2\n      pop\n      pop\n      jump\t// out\n        /* \"#utility.yul\":1430:1547   */\n    tag_90:\n        /* \"#utility.yul\":1539:1540   */\n      0x00\n        /* \"#utility.yul\":1536:1537   */\n      dup1\n        /* \"#utility.yul\":1529:1541   */\n      revert\n        /* \"#utility.yul\":1676:1802   */\n    tag_92:\n        /* \"#utility.yul\":1713:1720   */\n      0x00\n        /* \"#utility.yul\":1753:1795   */\n      0xffffffffffffffffffffffffffffffffffffffff\n        /* \"#utility.yul\":1746:1751   */\n      dup3\n        /* \"#utility.yul\":1742:1796   */\n      and\n        /* \"#utility.yul\":1731:1796   */\n      swap1\n      pop\n        /* \"#utility.yul\":1676:1802   */\n      swap2\n      swap1\n      pop\n      jump\t// out\n        /* \"#utility.yul\":1808:1904   */\n    tag_93:\n        /* \"#utility.yul\":1845:1852   */\n      0x00\n        /* \"#utility.yul\":1874:1898   */\n      tag_132\n        /* \"#utility.yul\":1892:1897   */\n      dup3\n        /* \"#utility.yul\":1874:1898   */\n      tag_92\n      jump\t// in\n    tag_132:\n        /* \"#utility.yul\":1863:1898   */\n      swap1\n      pop\n        /* \"#utility.yul\":1808:1904   */\n      swap2\n      swap1\n      pop\n      jump\t// out\n        /* \"#utility.yul\":1910:2032   */\n    tag_94:\n        /* \"#utility.yul\":1983:2007   */\n      tag_134\n        /* \"#utility.yul\":2001:2006   */\n      dup2\n        /* \"#utility.yul\":1983:2007   */\n      tag_93\n      jump\t// in\n    tag_134:\n        /* \"#utility.yul\":1976:1981   */\n      dup2\n        /* \"#utility.yul\":1973:2008   */\n      eq\n        /* \"#utility.yul\":1963:2026   */\n      tag_135\n      jumpi\n        /* \"#utility.yul\":2022:2023   */\n      0x00\n        /* \"#utility.yul\":2019:2020   */\n      dup1\n        /* \"#utility.yul\":2012:2024   */\n      revert\n        /* \"#utility.yul\":1963:2026   */\n    tag_135:\n        /* \"#utility.yul\":1910:2032   */\n      pop\n      jump\t// out\n        /* \"#utility.yul\":2038:2177   */\n    tag_95:\n        /* \"#utility.yul\":2084:2089   */\n      0x00\n        /* \"#utility.yul\":2122:2128   */\n      dup2\n        /* \"#utility.yul\":2109:2129   */\n      calldataload\n        /* \"#utility.yul\":2100:2129   */\n      swap1\n      pop\n        /* \"#utility.yul\":2138:2171   */\n      tag_137\n        /* \"#utility.yul\":2165:2170   */\n      dup2\n        /* \"#utility.yul\":2138:2171   */\n      tag_94\n      jump\t// in\n    tag_137:\n        /* \"#utility.yul\":2038:2177   */\n      swap3\n      swap2\n      pop\n      pop\n      jump\t// out\n        /* \"#utility.yul\":2183:2512   */\n    tag_20:\n        /* \"#utility.yul\":2242:2248   */\n      0x00\n        /* \"#utility.yul\":2291:2293   */\n      0x20\n        /* \"#utility.yul\":2279:2288   */\n      dup3\n        /* \"#utility.yul\":2270:2277   */\n      dup5\n        /* \"#utility.yul\":2266:2289   */\n      sub\n        /* \"#utility.yul\":2262:2294   */\n      slt\n        /* \"#utility.yul\":2259:2378   */\n      iszero\n      tag_139\n      jumpi\n        /* \"#utility.yul\":2297:2376   */\n      tag_140\n      tag_90\n      jump\t// in\n    tag_140:\n        /* \"#utility.yul\":2259:2378   */\n    tag_139:\n        /* \"#utility.yul\":2417:2418   */\n      0x00\n        /* \"#utility.yul\":2442:2495   */\n      tag_141\n        /* \"#utility.yul\":2487:2494   */\n      dup5\n        /* \"#utility.yul\":2478:2484   */\n      dup3\n        /* \"#utility.yul\":2467:2476   */\n      dup6\n        /* \"#utility.yul\":2463:2485   */\n      add\n        /* \"#utility.yul\":2442:2495   */\n      tag_95\n      jump\t// in\n    tag_141:\n        /* \"#utility.yul\":2432:2495   */\n      swap2\n      pop\n        /* \"#utility.yul\":2388:2505   */\n      pop\n        /* \"#utility.yul\":2183:2512   */\n      swap3\n      swap2\n      pop\n      pop\n      jump\t// out\n        /* \"#utility.yul\":2518:2608   */\n    tag_96:\n        /* \"#utility.yul\":2552:2559   */\n      0x00\n        /* \"#utility.yul\":2595:2600   */\n      dup2\n        /* \"#utility.yul\":2588:2601   */\n      iszero\n        /* \"#utility.yul\":2581:2602   */\n      iszero\n        /* \"#utility.yul\":2570:2602   */\n      swap1\n      pop\n        /* \"#utility.yul\":2518:2608   */\n      swap2\n      swap1\n      pop\n      jump\t// out\n        /* \"#utility.yul\":2614:2723   */\n    tag_97:\n        /* \"#utility.yul\":2695:2716   */\n      tag_144\n        /* \"#utility.yul\":2710:2715   */\n      dup2\n        /* \"#utility.yul\":2695:2716   */\n      tag_96\n      jump\t// in\n    tag_144:\n        /* \"#utility.yul\":2690:2693   */\n      dup3\n        /* \"#utility.yul\":2683:2717   */\n      mstore\n        /* \"#utility.yul\":2614:2723   */\n      pop\n      pop\n      jump\t// out\n        /* \"#utility.yul\":2729:2939   */\n    tag_26:\n        /* \"#utility.yul\":2816:2820   */\n      0x00\n        /* \"#utility.yul\":2854:2856   */\n      0x20\n        /* \"#utility.yul\":2843:2852   */\n      dup3\n        /* \"#utility.yul\":2839:2857   */\n      add\n        /* \"#utility.yul\":2831:2857   */\n      swap1\n      pop\n        /* \"#utility.yul\":2867:2932   */\n      tag_146\n        /* \"#utility.yul\":2929:2930   */\n      0x00\n        /* \"#utility.yul\":2918:2927   */\n      dup4\n        /* \"#utility.yul\":2914:2931   */\n      add\n        /* \"#utility.yul\":2905:2911   */\n      dup5\n        /* \"#utility.yul\":2867:2932   */\n      tag_97\n      jump\t// in\n    tag_146:\n        /* \"#utility.yul\":2729:2939   */\n      swap3\n      swap2\n      pop\n      pop\n      jump\t// out\n        /* \"#utility.yul\":2945:3022   */\n    tag_98:\n        /* \"#utility.yul\":2982:2989   */\n      0x00\n        /* \"#utility.yul\":3011:3016   */\n      dup2\n        /* \"#utility.yul\":3000:3016   */\n      swap1\n      pop\n        /* \"#utility.yul\":2945:3022   */\n      swap2\n      swap1\n      pop\n      jump\t// out\n        /* \"#utility.yul\":3028:3146   */\n    tag_99:\n        /* \"#utility.yul\":3115:3139   */\n      tag_149\n        /* \"#utility.yul\":3133:3138   */\n      dup2\n        /* \"#utility.yul\":3115:3139   */\n      tag_98\n      jump\t// in\n    tag_149:\n        /* \"#utility.yul\":3110:3113   */\n      dup3\n        /* \"#utility.yul\":3103:3140   */\n      mstore\n        /* \"#utility.yul\":3028:3146   */\n      pop\n      pop\n      jump\t// out\n        /* \"#utility.yul\":3152:3374   */\n    tag_31:\n        /* \"#utility.yul\":3245:3249   */\n      0x00\n        /* \"#utility.yul\":3283:3285   */\n      0x20\n        /* \"#utility.yul\":3272:3281   */\n      dup3\n        /* \"#utility.yul\":3268:3286   */\n      add\n        /* \"#utility.yul\":3260:3286   */\n      swap1\n      pop\n        /* \"#utility.yul\":3296:3367   */\n      tag_151\n        /* \"#utility.yul\":3364:3365   */\n      0x00\n        /* \"#utility.yul\":3353:3362   */\n      dup4\n        /* \"#utility.yul\":3349:3366   */\n      add\n        /* \"#utility.yul\":3340:3346   */\n      dup5\n        /* \"#utility.yul\":3296:3367   */\n      tag_99\n      jump\t// in\n    tag_151:\n        /* \"#utility.yul\":3152:3374   */\n      swap3\n      swap2\n      pop\n      pop\n      jump\t// out\n        /* \"#utility.yul\":3380:3498   */\n    tag_100:\n        /* \"#utility.yul\":3467:3491   */\n      tag_153\n        /* \"#utility.yul\":3485:3490   */\n      dup2\n        /* \"#utility.yul\":3467:3491   */\n      tag_93\n      jump\t// in\n    tag_153:\n        /* \"#utility.yul\":3462:3465   */\n      dup3\n        /* \"#utility.yul\":3455:3492   */\n      mstore\n        /* \"#utility.yul\":3380:3498   */\n      pop\n      pop\n      jump\t// out\n        /* \"#utility.yul\":3504:3726   */\n    tag_36:\n        /* \"#utility.yul\":3597:3601   */\n      0x00\n        /* \"#utility.yul\":3635:3637   */\n      0x20\n        /* \"#utility.yul\":3624:3633   */\n      dup3\n        /* \"#utility.yul\":3620:3638   */\n      add\n        /* \"#utility.yul\":3612:3638   */\n      swap1\n      pop\n        /* \"#utility.yul\":3648:3719   */\n      tag_155\n        /* \"#utility.yul\":3716:3717   */\n      0x00\n        /* \"#utility.yul\":3705:3714   */\n      dup4\n        /* \"#utility.yul\":3701:3718   */\n      add\n        /* \"#utility.yul\":3692:3698   */\n      dup5\n        /* \"#utility.yul\":3648:3719   */\n      tag_100\n      jump\t// in\n    tag_155:\n        /* \"#utility.yul\":3504:3726   */\n      swap3\n      swap2\n      pop\n      pop\n      jump\t// out\n        /* \"#utility.yul\":3732:3912   */\n    tag_101:\n        /* \"#utility.yul\":3780:3857   */\n      0x4e487b7100000000000000000000000000000000000000000000000000000000\n        /* \"#utility.yul\":3777:3778   */\n      0x00\n        /* \"#utility.yul\":3770:3858   */\n      mstore\n        /* \"#utility.yul\":3877:3881   */\n      0x22\n        /* \"#utility.yul\":3874:3875   */\n      0x04\n        /* \"#utility.yul\":3867:3882   */\n      mstore\n        /* \"#utility.yul\":3901:3905   */\n      0x24\n        /* \"#utility.yul\":3898:3899   */\n      0x00\n        /* \"#utility.yul\":3891:3906   */\n      revert\n        /* \"#utility.yul\":3918:4238   */\n    tag_52:\n        /* \"#utility.yul\":3962:3968   */\n      0x00\n        /* \"#utility.yul\":3999:4000   */\n      0x02\n        /* \"#utility.yul\":3993:3997   */\n      dup3\n        /* \"#utility.yul\":3989:4001   */\n      div\n        /* \"#utility.yul\":3979:4001   */\n      swap1\n      pop\n        /* \"#utility.yul\":4046:4047   */\n      0x01\n        /* \"#utility.yul\":4040:4044   */\n      dup3\n        /* \"#utility.yul\":4036:4048   */\n      and\n        /* \"#utility.yul\":4067:4085   */\n      dup1\n        /* \"#utility.yul\":4057:4138   */\n      tag_158\n      jumpi\n        /* \"#utility.yul\":4123:4127   */\n      0x7f\n        /* \"#utility.yul\":4115:4121   */\n      dup3\n        /* \"#utility.yul\":4111:4128   */\n      and\n        /* \"#utility.yul\":4101:4128   */\n      swap2\n      pop\n        /* \"#utility.yul\":4057:4138   */\n    tag_158:\n        /* \"#utility.yul\":4185:4187   */\n      0x20\n        /* \"#utility.yul\":4177:4183   */\n      dup3\n        /* \"#utility.yul\":4174:4188   */\n      lt\n        /* \"#utility.yul\":4154:4172   */\n      dup2\n        /* \"#utility.yul\":4151:4189   */\n      sub\n        /* \"#utility.yul\":4148:4232   */\n      tag_159\n      jumpi\n        /* \"#utility.yul\":4204:4222   */\n      tag_160\n      tag_101\n      jump\t// in\n    tag_160:\n        /* \"#utility.yul\":4148:4232   */\n    tag_159:\n        /* \"#utility.yul\":3969:4238   */\n      pop\n        /* \"#utility.yul\":3918:4238   */\n      swap2\n      swap1\n      pop\n      jump\t// out\n        /* \"#utility.yul\":4244:4479   */\n    tag_102:\n        /* \"#utility.yul\":4384:4418   */\n      0x4f6e6c79206f776e6572206f66207468697320646f6e6174696f6e2063616e20\n        /* \"#utility.yul\":4380:4381   */\n      0x00\n        /* \"#utility.yul\":4372:4378   */\n      dup3\n        /* \"#utility.yul\":4368:4382   */\n      add\n        /* \"#utility.yul\":4361:4419   */\n      mstore\n        /* \"#utility.yul\":4453:4471   */\n      0x77697468647261772066726f6d20697400000000000000000000000000000000\n        /* \"#utility.yul\":4448:4450   */\n      0x20\n        /* \"#utility.yul\":4440:4446   */\n      dup3\n        /* \"#utility.yul\":4436:4451   */\n      add\n        /* \"#utility.yul\":4429:4472   */\n      mstore\n        /* \"#utility.yul\":4244:4479   */\n      pop\n      jump\t// out\n        /* \"#utility.yul\":4485:4851   */\n    tag_103:\n        /* \"#utility.yul\":4627:4630   */\n      0x00\n        /* \"#utility.yul\":4648:4715   */\n      tag_163\n        /* \"#utility.yul\":4712:4714   */\n      0x30\n        /* \"#utility.yul\":4707:4710   */\n      dup4\n        /* \"#utility.yul\":4648:4715   */\n      tag_85\n      jump\t// in\n    tag_163:\n        /* \"#utility.yul\":4641:4715   */\n      swap2\n      pop\n        /* \"#utility.yul\":4724:4817   */\n      tag_164\n        /* \"#utility.yul\":4813:4816   */\n      dup3\n        /* \"#utility.yul\":4724:4817   */\n      tag_102\n      jump\t// in\n    tag_164:\n        /* \"#utility.yul\":4842:4844   */\n      0x40\n        /* \"#utility.yul\":4837:4840   */\n      dup3\n        /* \"#utility.yul\":4833:4845   */\n      add\n        /* \"#utility.yul\":4826:4845   */\n      swap1\n      pop\n        /* \"#utility.yul\":4485:4851   */\n      swap2\n      swap1\n      pop\n      jump\t// out\n        /* \"#utility.yul\":4857:5276   */\n    tag_60:\n        /* \"#utility.yul\":5023:5027   */\n      0x00\n        /* \"#utility.yul\":5061:5063   */\n      0x20\n        /* \"#utility.yul\":5050:5059   */\n      dup3\n        /* \"#utility.yul\":5046:5064   */\n      add\n        /* \"#utility.yul\":5038:5064   */\n      swap1\n      pop\n        /* \"#utility.yul\":5110:5119   */\n      dup2\n        /* \"#utility.yul\":5104:5108   */\n      dup2\n        /* \"#utility.yul\":5100:5120   */\n      sub\n        /* \"#utility.yul\":5096:5097   */\n      0x00\n        /* \"#utility.yul\":5085:5094   */\n      dup4\n        /* \"#utility.yul\":5081:5098   */\n      add\n        /* \"#utility.yul\":5074:5121   */\n      mstore\n        /* \"#utility.yul\":5138:5269   */\n      tag_166\n        /* \"#utility.yul\":5264:5268   */\n      dup2\n        /* \"#utility.yul\":5138:5269   */\n      tag_103\n      jump\t// in\n    tag_166:\n        /* \"#utility.yul\":5130:5269   */\n      swap1\n      pop\n        /* \"#utility.yul\":4857:5276   */\n      swap2\n      swap1\n      pop\n      jump\t// out\n        /* \"#utility.yul\":5282:5429   */\n    tag_104:\n        /* \"#utility.yul\":5383:5394   */\n      0x00\n        /* \"#utility.yul\":5420:5423   */\n      dup2\n        /* \"#utility.yul\":5405:5423   */\n      swap1\n      pop\n        /* \"#utility.yul\":5282:5429   */\n      swap3\n      swap2\n      pop\n      pop\n      jump\t// out\n        /* \"#utility.yul\":5435:5549   */\n    tag_105:\n      pop\n      jump\t// out\n        /* \"#utility.yul\":5555:5953   */\n    tag_106:\n        /* \"#utility.yul\":5714:5717   */\n      0x00\n        /* \"#utility.yul\":5735:5818   */\n      tag_170\n        /* \"#utility.yul\":5816:5817   */\n      0x00\n        /* \"#utility.yul\":5811:5814   */\n      dup4\n        /* \"#utility.yul\":5735:5818   */\n      tag_104\n      jump\t// in\n    tag_170:\n        /* \"#utility.yul\":5728:5818   */\n      swap2\n      pop\n        /* \"#utility.yul\":5827:5920   */\n      tag_171\n        /* \"#utility.yul\":5916:5919   */\n      dup3\n        /* \"#utility.yul\":5827:5920   */\n      tag_105\n      jump\t// in\n    tag_171:\n        /* \"#utility.yul\":5945:5946   */\n      0x00\n        /* \"#utility.yul\":5940:5943   */\n      dup3\n        /* \"#utility.yul\":5936:5947   */\n      add\n        /* \"#utility.yul\":5929:5947   */\n      swap1\n      pop\n        /* \"#utility.yul\":5555:5953   */\n      swap2\n      swap1\n      pop\n      jump\t// out\n        /* \"#utility.yul\":5959:6338   */\n    tag_62:\n        /* \"#utility.yul\":6143:6146   */\n      0x00\n        /* \"#utility.yul\":6165:6312   */\n      tag_173\n        /* \"#utility.yul\":6308:6311   */\n      dup3\n        /* \"#utility.yul\":6165:6312   */\n      tag_106\n      jump\t// in\n    tag_173:\n        /* \"#utility.yul\":6158:6312   */\n      swap2\n      pop\n        /* \"#utility.yul\":6329:6332   */\n      dup2\n        /* \"#utility.yul\":6322:6332   */\n      swap1\n      pop\n        /* \"#utility.yul\":5959:6338   */\n      swap2\n      swap1\n      pop\n      jump\t// out\n        /* \"#utility.yul\":6344:6568   */\n    tag_107:\n        /* \"#utility.yul\":6484:6518   */\n      0x596f752063616e6e6f7420646f6e6174652062656c6f7720247b5f6d696e416d\n        /* \"#utility.yul\":6480:6481   */\n      0x00\n        /* \"#utility.yul\":6472:6478   */\n      dup3\n        /* \"#utility.yul\":6468:6482   */\n      add\n        /* \"#utility.yul\":6461:6519   */\n      mstore\n        /* \"#utility.yul\":6553:6560   */\n      0x6f756e747d000000000000000000000000000000000000000000000000000000\n        /* \"#utility.yul\":6548:6550   */\n      0x20\n        /* \"#utility.yul\":6540:6546   */\n      dup3\n        /* \"#utility.yul\":6536:6551   */\n      add\n        /* \"#utility.yul\":6529:6561   */\n      mstore\n        /* \"#utility.yul\":6344:6568   */\n      pop\n      jump\t// out\n        /* \"#utility.yul\":6574:6940   */\n    tag_108:\n        /* \"#utility.yul\":6716:6719   */\n      0x00\n        /* \"#utility.yul\":6737:6804   */\n      tag_176\n        /* \"#utility.yul\":6801:6803   */\n      0x25\n        /* \"#utility.yul\":6796:6799   */\n      dup4\n        /* \"#utility.yul\":6737:6804   */\n      tag_85\n      jump\t// in\n    tag_176:\n        /* \"#utility.yul\":6730:6804   */\n      swap2\n      pop\n        /* \"#utility.yul\":6813:6906   */\n      tag_177\n        /* \"#utility.yul\":6902:6905   */\n      dup3\n        /* \"#utility.yul\":6813:6906   */\n      tag_107\n      jump\t// in\n    tag_177:\n        /* \"#utility.yul\":6931:6933   */\n      0x40\n        /* \"#utility.yul\":6926:6929   */\n      dup3\n        /* \"#utility.yul\":6922:6934   */\n      add\n        /* \"#utility.yul\":6915:6934   */\n      swap1\n      pop\n        /* \"#utility.yul\":6574:6940   */\n      swap2\n      swap1\n      pop\n      jump\t// out\n        /* \"#utility.yul\":6946:7365   */\n    tag_77:\n        /* \"#utility.yul\":7112:7116   */\n      0x00\n        /* \"#utility.yul\":7150:7152   */\n      0x20\n        /* \"#utility.yul\":7139:7148   */\n      dup3\n        /* \"#utility.yul\":7135:7153   */\n      add\n        /* \"#utility.yul\":7127:7153   */\n      swap1\n      pop\n        /* \"#utility.yul\":7199:7208   */\n      dup2\n        /* \"#utility.yul\":7193:7197   */\n      dup2\n        /* \"#utility.yul\":7189:7209   */\n      sub\n        /* \"#utility.yul\":7185:7186   */\n      0x00\n        /* \"#utility.yul\":7174:7183   */\n      dup4\n        /* \"#utility.yul\":7170:7187   */\n      add\n        /* \"#utility.yul\":7163:7210   */\n      mstore\n        /* \"#utility.yul\":7227:7358   */\n      tag_179\n        /* \"#utility.yul\":7353:7357   */\n      dup2\n        /* \"#utility.yul\":7227:7358   */\n      tag_108\n      jump\t// in\n    tag_179:\n        /* \"#utility.yul\":7219:7358   */\n      swap1\n      pop\n        /* \"#utility.yul\":6946:7365   */\n      swap2\n      swap1\n      pop\n      jump\t// out\n        /* \"#utility.yul\":7371:7551   */\n    tag_109:\n        /* \"#utility.yul\":7419:7496   */\n      0x4e487b7100000000000000000000000000000000000000000000000000000000\n        /* \"#utility.yul\":7416:7417   */\n      0x00\n        /* \"#utility.yul\":7409:7497   */\n      mstore\n        /* \"#utility.yul\":7516:7520   */\n      0x11\n        /* \"#utility.yul\":7513:7514   */\n      0x04\n        /* \"#utility.yul\":7506:7521   */\n      mstore\n        /* \"#utility.yul\":7540:7544   */\n      0x24\n        /* \"#utility.yul\":7537:7538   */\n      0x00\n        /* \"#utility.yul\":7530:7545   */\n      revert\n        /* \"#utility.yul\":7557:7748   */\n    tag_80:\n        /* \"#utility.yul\":7597:7600   */\n      0x00\n        /* \"#utility.yul\":7616:7636   */\n      tag_182\n        /* \"#utility.yul\":7634:7635   */\n      dup3\n        /* \"#utility.yul\":7616:7636   */\n      tag_98\n      jump\t// in\n    tag_182:\n        /* \"#utility.yul\":7611:7636   */\n      swap2\n      pop\n        /* \"#utility.yul\":7650:7670   */\n      tag_183\n        /* \"#utility.yul\":7668:7669   */\n      dup4\n        /* \"#utility.yul\":7650:7670   */\n      tag_98\n      jump\t// in\n    tag_183:\n        /* \"#utility.yul\":7645:7670   */\n      swap3\n      pop\n        /* \"#utility.yul\":7693:7694   */\n      dup3\n        /* \"#utility.yul\":7690:7691   */\n      dup3\n        /* \"#utility.yul\":7686:7695   */\n      add\n        /* \"#utility.yul\":7679:7695   */\n      swap1\n      pop\n        /* \"#utility.yul\":7714:7717   */\n      dup1\n        /* \"#utility.yul\":7711:7712   */\n      dup3\n        /* \"#utility.yul\":7708:7718   */\n      gt\n        /* \"#utility.yul\":7705:7741   */\n      iszero\n      tag_184\n      jumpi\n        /* \"#utility.yul\":7721:7739   */\n      tag_185\n      tag_109\n      jump\t// in\n    tag_185:\n        /* \"#utility.yul\":7705:7741   */\n    tag_184:\n        /* \"#utility.yul\":7557:7748   */\n      swap3\n      swap2\n      pop\n      pop\n      jump\t// out\n        /* \"#utility.yul\":7754:7983   */\n    tag_110:\n        /* \"#utility.yul\":7894:7928   */\n      0x596f757220646f6e6174696f6e2077696c6c2063726f73732074686520616d6f\n        /* \"#utility.yul\":7890:7891   */\n      0x00\n        /* \"#utility.yul\":7882:7888   */\n      dup3\n        /* \"#utility.yul\":7878:7892   */\n      add\n        /* \"#utility.yul\":7871:7929   */\n      mstore\n        /* \"#utility.yul\":7963:7975   */\n      0x756e74206e656564656400000000000000000000000000000000000000000000\n        /* \"#utility.yul\":7958:7960   */\n      0x20\n        /* \"#utility.yul\":7950:7956   */\n      dup3\n        /* \"#utility.yul\":7946:7961   */\n      add\n        /* \"#utility.yul\":7939:7976   */\n      mstore\n        /* \"#utility.yul\":7754:7983   */\n      pop\n      jump\t// out\n        /* \"#utility.yul\":7989:8355   */\n    tag_111:\n        /* \"#utility.yul\":8131:8134   */\n      0x00\n        /* \"#utility.yul\":8152:8219   */\n      tag_188\n        /* \"#utility.yul\":8216:8218   */\n      0x2a\n        /* \"#utility.yul\":8211:8214   */\n      dup4\n        /* \"#utility.yul\":8152:8219   */\n      tag_85\n      jump\t// in\n    tag_188:\n        /* \"#utility.yul\":8145:8219   */\n      swap2\n      pop\n        /* \"#utility.yul\":8228:8321   */\n      tag_189\n        /* \"#utility.yul\":8317:8320   */\n      dup3\n        /* \"#utility.yul\":8228:8321   */\n      tag_110\n      jump\t// in\n    tag_189:\n        /* \"#utility.yul\":8346:8348   */\n      0x40\n        /* \"#utility.yul\":8341:8344   */\n      dup3\n        /* \"#utility.yul\":8337:8349   */\n      add\n        /* \"#utility.yul\":8330:8349   */\n      swap1\n      pop\n        /* \"#utility.yul\":7989:8355   */\n      swap2\n      swap1\n      pop\n      jump\t// out\n        /* \"#utility.yul\":8361:8780   */\n    tag_83:\n        /* \"#utility.yul\":8527:8531   */\n      0x00\n        /* \"#utility.yul\":8565:8567   */\n      0x20\n        /* \"#utility.yul\":8554:8563   */\n      dup3\n        /* \"#utility.yul\":8550:8568   */\n      add\n        /* \"#utility.yul\":8542:8568   */\n      swap1\n      pop\n        /* \"#utility.yul\":8614:8623   */\n      dup2\n        /* \"#utility.yul\":8608:8612   */\n      dup2\n        /* \"#utility.yul\":8604:8624   */\n      sub\n        /* \"#utility.yul\":8600:8601   */\n      0x00\n        /* \"#utility.yul\":8589:8598   */\n      dup4\n        /* \"#utility.yul\":8585:8602   */\n      add\n        /* \"#utility.yul\":8578:8625   */\n      mstore\n        /* \"#utility.yul\":8642:8773   */\n      tag_191\n        /* \"#utility.yul\":8768:8772   */\n      dup2\n        /* \"#utility.yul\":8642:8773   */\n      tag_111\n      jump\t// in\n    tag_191:\n        /* \"#utility.yul\":8634:8773   */\n      swap1\n      pop\n        /* \"#utility.yul\":8361:8780   */\n      swap2\n      swap1\n      pop\n      jump\t// out\n\n    auxdata: 0xa2646970667358221220d932a2dc7c8ca02c46bf51bfcd9e84756646dcf1f31de25abbf85b2841f3891e64736f6c63430008110033\n}\n",
				"bytecode": {
					"linkReferences": {},
					"object": "60806040523480156200001157600080fd5b50604051620011033803806200110383398181016040528101906200003791906200032d565b846000908162000048919062000615565b508360018190555082600360006101000a81548160ff0219169083151502179055508160028190555080600360016101000a81548173ffffffffffffffffffffffffffffffffffffffff021916908373ffffffffffffffffffffffffffffffffffffffff1602179055505050505050620006fc565b6000604051905090565b600080fd5b600080fd5b600080fd5b600080fd5b6000601f19601f8301169050919050565b7f4e487b7100000000000000000000000000000000000000000000000000000000600052604160045260246000fd5b6200012682620000db565b810181811067ffffffffffffffff82111715620001485762000147620000ec565b5b80604052505050565b60006200015d620000bd565b90506200016b82826200011b565b919050565b600067ffffffffffffffff8211156200018e576200018d620000ec565b5b6200019982620000db565b9050602081019050919050565b60005b83811015620001c6578082015181840152602081019050620001a9565b60008484015250505050565b6000620001e9620001e38462000170565b62000151565b905082815260208101848484011115620002085762000207620000d6565b5b62000215848285620001a6565b509392505050565b600082601f830112620002355762000234620000d1565b5b815162000247848260208601620001d2565b91505092915050565b6000819050919050565b620002658162000250565b81146200027157600080fd5b50565b60008151905062000285816200025a565b92915050565b60008115159050919050565b620002a2816200028b565b8114620002ae57600080fd5b50565b600081519050620002c28162000297565b92915050565b600073ffffffffffffffffffffffffffffffffffffffff82169050919050565b6000620002f582620002c8565b9050919050565b6200030781620002e8565b81146200031357600080fd5b50565b6000815190506200032781620002fc565b92915050565b600080600080600060a086880312156200034c576200034b620000c7565b5b600086015167ffffffffffffffff8111156200036d576200036c620000cc565b5b6200037b888289016200021d565b95505060206200038e8882890162000274565b9450506040620003a188828901620002b1565b9350506060620003b48882890162000274565b9250506080620003c78882890162000316565b9150509295509295909350565b600081519050919050565b7f4e487b7100000000000000000000000000000000000000000000000000000000600052602260045260246000fd5b600060028204905060018216806200042757607f821691505b6020821081036200043d576200043c620003df565b5b50919050565b60008190508160005260206000209050919050565b60006020601f8301049050919050565b600082821b905092915050565b600060088302620004a77fffffffffffffffffffffffffffffffffffffffffffffffffffffffffffffffff8262000468565b620004b3868362000468565b95508019841693508086168417925050509392505050565b6000819050919050565b6000620004f6620004f0620004ea8462000250565b620004cb565b62000250565b9050919050565b6000819050919050565b6200051283620004d5565b6200052a6200052182620004fd565b84845462000475565b825550505050565b600090565b6200054162000532565b6200054e81848462000507565b505050565b5b8181101562000576576200056a60008262000537565b60018101905062000554565b5050565b601f821115620005c5576200058f8162000443565b6200059a8462000458565b81016020851015620005aa578190505b620005c2620005b98562000458565b83018262000553565b50505b505050565b600082821c905092915050565b6000620005ea60001984600802620005ca565b1980831691505092915050565b6000620006058383620005d7565b9150826002028217905092915050565b6200062082620003d4565b67ffffffffffffffff8111156200063c576200063b620000ec565b5b6200064882546200040e565b620006558282856200057a565b600060209050601f8311600181146200068d576000841562000678578287015190505b620006848582620005f7565b865550620006f4565b601f1984166200069d8662000443565b60005b82811015620006c757848901518255600182019150602085019450602081019050620006a0565b86831015620006e75784890151620006e3601f891682620005d7565b8355505b6001600288020188555050505b505050505050565b6109f7806200070c6000396000f3fe6080604052600436106100865760003560e01c8063893d20e811610059578063893d20e814610135578063b383bf2d14610160578063eae3f7641461018b578063ed11f46a146101b6578063ed88c68e146101e157610086565b8063354ecc851461008b57806351cff8d9146100b6578063798be230146100df57806380fdef1b1461010a575b600080fd5b34801561009757600080fd5b506100a06101eb565b6040516100ad91906105bc565b60405180910390f35b3480156100c257600080fd5b506100dd60048036038101906100d89190610641565b610279565b005b3480156100eb57600080fd5b506100f4610397565b6040516101019190610689565b60405180910390f35b34801561011657600080fd5b5061011f6103aa565b60405161012c91906106bd565b60405180910390f35b34801561014157600080fd5b5061014a6103b0565b60405161015791906106e7565b60405180910390f35b34801561016c57600080fd5b506101756103da565b60405161018291906106bd565b60405180910390f35b34801561019757600080fd5b506101a06103e0565b6040516101ad91906105bc565b60405180910390f35b3480156101c257600080fd5b506101cb610472565b6040516101d891906106bd565b60405180910390f35b6101e961047a565b005b600080546101f890610731565b80601f016020809104026020016040519081016040528092919081815260200182805461022490610731565b80156102715780601f1061024657610100808354040283529160200191610271565b820191906000526020600020905b81548152906001019060200180831161025457829003601f168201915b505050505081565b8073ffffffffffffffffffffffffffffffffffffffff16600360019054906101000a900473ffffffffffffffffffffffffffffffffffffffff1673ffffffffffffffffffffffffffffffffffffffff1614610309576040517f08c379a0000000000000000000000000000000000000000000000000000000008152600401610300906107d4565b60405180910390fd5b600360019054906101000a900473ffffffffffffffffffffffffffffffffffffffff1673ffffffffffffffffffffffffffffffffffffffff164760405161034f90610825565b60006040518083038185875af1925050503d806000811461038c576040519150601f19603f3d011682016040523d82523d6000602084013e610391565b606091505b50505050565b600360009054906101000a900460ff1681565b60025481565b6000600360019054906101000a900473ffffffffffffffffffffffffffffffffffffffff16905090565b60015481565b6060600080546103ef90610731565b80601f016020809104026020016040519081016040528092919081815260200182805461041b90610731565b80156104685780601f1061043d57610100808354040283529160200191610468565b820191906000526020600020905b81548152906001019060200180831161044b57829003601f168201915b5050505050905090565b600047905090565b6001543410156104bf576040517f08c379a00000000000000000000000000000000000000000000000000000000081526004016104b6906108ac565b60405180910390fd5b600360009054906101000a900460ff1661052a57600047905060025434826104e791906108fb565b1115610528576040517f08c379a000000000000000000000000000000000000000000000000000000000815260040161051f906109a1565b60405180910390fd5b505b565b600081519050919050565b600082825260208201905092915050565b60005b8381101561056657808201518184015260208101905061054b565b60008484015250505050565b6000601f19601f8301169050919050565b600061058e8261052c565b6105988185610537565b93506105a8818560208601610548565b6105b181610572565b840191505092915050565b600060208201905081810360008301526105d68184610583565b905092915050565b600080fd5b600073ffffffffffffffffffffffffffffffffffffffff82169050919050565b600061060e826105e3565b9050919050565b61061e81610603565b811461062957600080fd5b50565b60008135905061063b81610615565b92915050565b600060208284031215610657576106566105de565b5b60006106658482850161062c565b91505092915050565b60008115159050919050565b6106838161066e565b82525050565b600060208201905061069e600083018461067a565b92915050565b6000819050919050565b6106b7816106a4565b82525050565b60006020820190506106d260008301846106ae565b92915050565b6106e181610603565b82525050565b60006020820190506106fc60008301846106d8565b92915050565b7f4e487b7100000000000000000000000000000000000000000000000000000000600052602260045260246000fd5b6000600282049050600182168061074957607f821691505b60208210810361075c5761075b610702565b5b50919050565b7f4f6e6c79206f776e6572206f66207468697320646f6e6174696f6e2063616e2060008201527f77697468647261772066726f6d20697400000000000000000000000000000000602082015250565b60006107be603083610537565b91506107c982610762565b604082019050919050565b600060208201905081810360008301526107ed816107b1565b9050919050565b600081905092915050565b50565b600061080f6000836107f4565b915061081a826107ff565b600082019050919050565b600061083082610802565b9150819050919050565b7f596f752063616e6e6f7420646f6e6174652062656c6f7720247b5f6d696e416d60008201527f6f756e747d000000000000000000000000000000000000000000000000000000602082015250565b6000610896602583610537565b91506108a18261083a565b604082019050919050565b600060208201905081810360008301526108c581610889565b9050919050565b7f4e487b7100000000000000000000000000000000000000000000000000000000600052601160045260246000fd5b6000610906826106a4565b9150610911836106a4565b9250828201905080821115610929576109286108cc565b5b92915050565b7f596f757220646f6e6174696f6e2077696c6c2063726f73732074686520616d6f60008201527f756e74206e656564656400000000000000000000000000000000000000000000602082015250565b600061098b602a83610537565b91506109968261092f565b604082019050919050565b600060208201905081810360008301526109ba8161097e565b905091905056fea2646970667358221220d932a2dc7c8ca02c46bf51bfcd9e84756646dcf1f31de25abbf85b2841f3891e64736f6c63430008110033",
					"opcodes": "PUSH1 0x80 PUSH1 0x40 MSTORE CALLVALUE DUP1 ISZERO PUSH3 0x11 JUMPI PUSH1 0x0 DUP1 REVERT JUMPDEST POP PUSH1 0x40 MLOAD PUSH3 0x1103 CODESIZE SUB DUP1 PUSH3 0x1103 DUP4 CODECOPY DUP2 DUP2 ADD PUSH1 0x40 MSTORE DUP2 ADD SWAP1 PUSH3 0x37 SWAP2 SWAP1 PUSH3 0x32D JUMP JUMPDEST DUP5 PUSH1 0x0 SWAP1 DUP2 PUSH3 0x48 SWAP2 SWAP1 PUSH3 0x615 JUMP JUMPDEST POP DUP4 PUSH1 0x1 DUP2 SWAP1 SSTORE POP DUP3 PUSH1 0x3 PUSH1 0x0 PUSH2 0x100 EXP DUP2 SLOAD DUP2 PUSH1 0xFF MUL NOT AND SWAP1 DUP4 ISZERO ISZERO MUL OR SWAP1 SSTORE POP DUP2 PUSH1 0x2 DUP2 SWAP1 SSTORE POP DUP1 PUSH1 0x3 PUSH1 0x1 PUSH2 0x100 EXP DUP2 SLOAD DUP2 PUSH20 0xFFFFFFFFFFFFFFFFFFFFFFFFFFFFFFFFFFFFFFFF MUL NOT AND SWAP1 DUP4 PUSH20 0xFFFFFFFFFFFFFFFFFFFFFFFFFFFFFFFFFFFFFFFF AND MUL OR SWAP1 SSTORE POP POP POP POP POP POP PUSH3 0x6FC JUMP JUMPDEST PUSH1 0x0 PUSH1 0x40 MLOAD SWAP1 POP SWAP1 JUMP JUMPDEST PUSH1 0x0 DUP1 REVERT JUMPDEST PUSH1 0x0 DUP1 REVERT JUMPDEST PUSH1 0x0 DUP1 REVERT JUMPDEST PUSH1 0x0 DUP1 REVERT JUMPDEST PUSH1 0x0 PUSH1 0x1F NOT PUSH1 0x1F DUP4 ADD AND SWAP1 POP SWAP2 SWAP1 POP JUMP JUMPDEST PUSH32 0x4E487B7100000000000000000000000000000000000000000000000000000000 PUSH1 0x0 MSTORE PUSH1 0x41 PUSH1 0x4 MSTORE PUSH1 0x24 PUSH1 0x0 REVERT JUMPDEST PUSH3 0x126 DUP3 PUSH3 0xDB JUMP JUMPDEST DUP2 ADD DUP2 DUP2 LT PUSH8 0xFFFFFFFFFFFFFFFF DUP3 GT OR ISZERO PUSH3 0x148 JUMPI PUSH3 0x147 PUSH3 0xEC JUMP JUMPDEST JUMPDEST DUP1 PUSH1 0x40 MSTORE POP POP POP JUMP JUMPDEST PUSH1 0x0 PUSH3 0x15D PUSH3 0xBD JUMP JUMPDEST SWAP1 POP PUSH3 0x16B DUP3 DUP3 PUSH3 0x11B JUMP JUMPDEST SWAP2 SWAP1 POP JUMP JUMPDEST PUSH1 0x0 PUSH8 0xFFFFFFFFFFFFFFFF DUP3 GT ISZERO PUSH3 0x18E JUMPI PUSH3 0x18D PUSH3 0xEC JUMP JUMPDEST JUMPDEST PUSH3 0x199 DUP3 PUSH3 0xDB JUMP JUMPDEST SWAP1 POP PUSH1 0x20 DUP2 ADD SWAP1 POP SWAP2 SWAP1 POP JUMP JUMPDEST PUSH1 0x0 JUMPDEST DUP4 DUP2 LT ISZERO PUSH3 0x1C6 JUMPI DUP1 DUP3 ADD MLOAD DUP2 DUP5 ADD MSTORE PUSH1 0x20 DUP2 ADD SWAP1 POP PUSH3 0x1A9 JUMP JUMPDEST PUSH1 0x0 DUP5 DUP5 ADD MSTORE POP POP POP POP JUMP JUMPDEST PUSH1 0x0 PUSH3 0x1E9 PUSH3 0x1E3 DUP5 PUSH3 0x170 JUMP JUMPDEST PUSH3 0x151 JUMP JUMPDEST SWAP1 POP DUP3 DUP2 MSTORE PUSH1 0x20 DUP2 ADD DUP5 DUP5 DUP5 ADD GT ISZERO PUSH3 0x208 JUMPI PUSH3 0x207 PUSH3 0xD6 JUMP JUMPDEST JUMPDEST PUSH3 0x215 DUP5 DUP3 DUP6 PUSH3 0x1A6 JUMP JUMPDEST POP SWAP4 SWAP3 POP POP POP JUMP JUMPDEST PUSH1 0x0 DUP3 PUSH1 0x1F DUP4 ADD SLT PUSH3 0x235 JUMPI PUSH3 0x234 PUSH3 0xD1 JUMP JUMPDEST JUMPDEST DUP2 MLOAD PUSH3 0x247 DUP5 DUP3 PUSH1 0x20 DUP7 ADD PUSH3 0x1D2 JUMP JUMPDEST SWAP2 POP POP SWAP3 SWAP2 POP POP JUMP JUMPDEST PUSH1 0x0 DUP2 SWAP1 POP SWAP2 SWAP1 POP JUMP JUMPDEST PUSH3 0x265 DUP2 PUSH3 0x250 JUMP JUMPDEST DUP2 EQ PUSH3 0x271 JUMPI PUSH1 0x0 DUP1 REVERT JUMPDEST POP JUMP JUMPDEST PUSH1 0x0 DUP2 MLOAD SWAP1 POP PUSH3 0x285 DUP2 PUSH3 0x25A JUMP JUMPDEST SWAP3 SWAP2 POP POP JUMP JUMPDEST PUSH1 0x0 DUP2 ISZERO ISZERO SWAP1 POP SWAP2 SWAP1 POP JUMP JUMPDEST PUSH3 0x2A2 DUP2 PUSH3 0x28B JUMP JUMPDEST DUP2 EQ PUSH3 0x2AE JUMPI PUSH1 0x0 DUP1 REVERT JUMPDEST POP JUMP JUMPDEST PUSH1 0x0 DUP2 MLOAD SWAP1 POP PUSH3 0x2C2 DUP2 PUSH3 0x297 JUMP JUMPDEST SWAP3 SWAP2 POP POP JUMP JUMPDEST PUSH1 0x0 PUSH20 0xFFFFFFFFFFFFFFFFFFFFFFFFFFFFFFFFFFFFFFFF DUP3 AND SWAP1 POP SWAP2 SWAP1 POP JUMP JUMPDEST PUSH1 0x0 PUSH3 0x2F5 DUP3 PUSH3 0x2C8 JUMP JUMPDEST SWAP1 POP SWAP2 SWAP1 POP JUMP JUMPDEST PUSH3 0x307 DUP2 PUSH3 0x2E8 JUMP JUMPDEST DUP2 EQ PUSH3 0x313 JUMPI PUSH1 0x0 DUP1 REVERT JUMPDEST POP JUMP JUMPDEST PUSH1 0x0 DUP2 MLOAD SWAP1 POP PUSH3 0x327 DUP2 PUSH3 0x2FC JUMP JUMPDEST SWAP3 SWAP2 POP POP JUMP JUMPDEST PUSH1 0x0 DUP1 PUSH1 0x0 DUP1 PUSH1 0x0 PUSH1 0xA0 DUP7 DUP9 SUB SLT ISZERO PUSH3 0x34C JUMPI PUSH3 0x34B PUSH3 0xC7 JUMP JUMPDEST JUMPDEST PUSH1 0x0 DUP7 ADD MLOAD PUSH8 0xFFFFFFFFFFFFFFFF DUP2 GT ISZERO PUSH3 0x36D JUMPI PUSH3 0x36C PUSH3 0xCC JUMP JUMPDEST JUMPDEST PUSH3 0x37B DUP9 DUP3 DUP10 ADD PUSH3 0x21D JUMP JUMPDEST SWAP6 POP POP PUSH1 0x20 PUSH3 0x38E DUP9 DUP3 DUP10 ADD PUSH3 0x274 JUMP JUMPDEST SWAP5 POP POP PUSH1 0x40 PUSH3 0x3A1 DUP9 DUP3 DUP10 ADD PUSH3 0x2B1 JUMP JUMPDEST SWAP4 POP POP PUSH1 0x60 PUSH3 0x3B4 DUP9 DUP3 DUP10 ADD PUSH3 0x274 JUMP JUMPDEST SWAP3 POP POP PUSH1 0x80 PUSH3 0x3C7 DUP9 DUP3 DUP10 ADD PUSH3 0x316 JUMP JUMPDEST SWAP2 POP POP SWAP3 SWAP6 POP SWAP3 SWAP6 SWAP1 SWAP4 POP JUMP JUMPDEST PUSH1 0x0 DUP2 MLOAD SWAP1 POP SWAP2 SWAP1 POP JUMP JUMPDEST PUSH32 0x4E487B7100000000000000000000000000000000000000000000000000000000 PUSH1 0x0 MSTORE PUSH1 0x22 PUSH1 0x4 MSTORE PUSH1 0x24 PUSH1 0x0 REVERT JUMPDEST PUSH1 0x0 PUSH1 0x2 DUP3 DIV SWAP1 POP PUSH1 0x1 DUP3 AND DUP1 PUSH3 0x427 JUMPI PUSH1 0x7F DUP3 AND SWAP2 POP JUMPDEST PUSH1 0x20 DUP3 LT DUP2 SUB PUSH3 0x43D JUMPI PUSH3 0x43C PUSH3 0x3DF JUMP JUMPDEST JUMPDEST POP SWAP2 SWAP1 POP JUMP JUMPDEST PUSH1 0x0 DUP2 SWAP1 POP DUP2 PUSH1 0x0 MSTORE PUSH1 0x20 PUSH1 0x0 KECCAK256 SWAP1 POP SWAP2 SWAP1 POP JUMP JUMPDEST PUSH1 0x0 PUSH1 0x20 PUSH1 0x1F DUP4 ADD DIV SWAP1 POP SWAP2 SWAP1 POP JUMP JUMPDEST PUSH1 0x0 DUP3 DUP3 SHL SWAP1 POP SWAP3 SWAP2 POP POP JUMP JUMPDEST PUSH1 0x0 PUSH1 0x8 DUP4 MUL PUSH3 0x4A7 PUSH32 0xFFFFFFFFFFFFFFFFFFFFFFFFFFFFFFFFFFFFFFFFFFFFFFFFFFFFFFFFFFFFFFFF DUP3 PUSH3 0x468 JUMP JUMPDEST PUSH3 0x4B3 DUP7 DUP4 PUSH3 0x468 JUMP JUMPDEST SWAP6 POP DUP1 NOT DUP5 AND SWAP4 POP DUP1 DUP7 AND DUP5 OR SWAP3 POP POP POP SWAP4 SWAP3 POP POP POP JUMP JUMPDEST PUSH1 0x0 DUP2 SWAP1 POP SWAP2 SWAP1 POP JUMP JUMPDEST PUSH1 0x0 PUSH3 0x4F6 PUSH3 0x4F0 PUSH3 0x4EA DUP5 PUSH3 0x250 JUMP JUMPDEST PUSH3 0x4CB JUMP JUMPDEST PUSH3 0x250 JUMP JUMPDEST SWAP1 POP SWAP2 SWAP1 POP JUMP JUMPDEST PUSH1 0x0 DUP2 SWAP1 POP SWAP2 SWAP1 POP JUMP JUMPDEST PUSH3 0x512 DUP4 PUSH3 0x4D5 JUMP JUMPDEST PUSH3 0x52A PUSH3 0x521 DUP3 PUSH3 0x4FD JUMP JUMPDEST DUP5 DUP5 SLOAD PUSH3 0x475 JUMP JUMPDEST DUP3 SSTORE POP POP POP POP JUMP JUMPDEST PUSH1 0x0 SWAP1 JUMP JUMPDEST PUSH3 0x541 PUSH3 0x532 JUMP JUMPDEST PUSH3 0x54E DUP2 DUP5 DUP5 PUSH3 0x507 JUMP JUMPDEST POP POP POP JUMP JUMPDEST JUMPDEST DUP2 DUP2 LT ISZERO PUSH3 0x576 JUMPI PUSH3 0x56A PUSH1 0x0 DUP3 PUSH3 0x537 JUMP JUMPDEST PUSH1 0x1 DUP2 ADD SWAP1 POP PUSH3 0x554 JUMP JUMPDEST POP POP JUMP JUMPDEST PUSH1 0x1F DUP3 GT ISZERO PUSH3 0x5C5 JUMPI PUSH3 0x58F DUP2 PUSH3 0x443 JUMP JUMPDEST PUSH3 0x59A DUP5 PUSH3 0x458 JUMP JUMPDEST DUP2 ADD PUSH1 0x20 DUP6 LT ISZERO PUSH3 0x5AA JUMPI DUP2 SWAP1 POP JUMPDEST PUSH3 0x5C2 PUSH3 0x5B9 DUP6 PUSH3 0x458 JUMP JUMPDEST DUP4 ADD DUP3 PUSH3 0x553 JUMP JUMPDEST POP POP JUMPDEST POP POP POP JUMP JUMPDEST PUSH1 0x0 DUP3 DUP3 SHR SWAP1 POP SWAP3 SWAP2 POP POP JUMP JUMPDEST PUSH1 0x0 PUSH3 0x5EA PUSH1 0x0 NOT DUP5 PUSH1 0x8 MUL PUSH3 0x5CA JUMP JUMPDEST NOT DUP1 DUP4 AND SWAP2 POP POP SWAP3 SWAP2 POP POP JUMP JUMPDEST PUSH1 0x0 PUSH3 0x605 DUP4 DUP4 PUSH3 0x5D7 JUMP JUMPDEST SWAP2 POP DUP3 PUSH1 0x2 MUL DUP3 OR SWAP1 POP SWAP3 SWAP2 POP POP JUMP JUMPDEST PUSH3 0x620 DUP3 PUSH3 0x3D4 JUMP JUMPDEST PUSH8 0xFFFFFFFFFFFFFFFF DUP2 GT ISZERO PUSH3 0x63C JUMPI PUSH3 0x63B PUSH3 0xEC JUMP JUMPDEST JUMPDEST PUSH3 0x648 DUP3 SLOAD PUSH3 0x40E JUMP JUMPDEST PUSH3 0x655 DUP3 DUP3 DUP6 PUSH3 0x57A JUMP JUMPDEST PUSH1 0x0 PUSH1 0x20 SWAP1 POP PUSH1 0x1F DUP4 GT PUSH1 0x1 DUP2 EQ PUSH3 0x68D JUMPI PUSH1 0x0 DUP5 ISZERO PUSH3 0x678 JUMPI DUP3 DUP8 ADD MLOAD SWAP1 POP JUMPDEST PUSH3 0x684 DUP6 DUP3 PUSH3 0x5F7 JUMP JUMPDEST DUP7 SSTORE POP PUSH3 0x6F4 JUMP JUMPDEST PUSH1 0x1F NOT DUP5 AND PUSH3 0x69D DUP7 PUSH3 0x443 JUMP JUMPDEST PUSH1 0x0 JUMPDEST DUP3 DUP2 LT ISZERO PUSH3 0x6C7 JUMPI DUP5 DUP10 ADD MLOAD DUP3 SSTORE PUSH1 0x1 DUP3 ADD SWAP2 POP PUSH1 0x20 DUP6 ADD SWAP5 POP PUSH1 0x20 DUP2 ADD SWAP1 POP PUSH3 0x6A0 JUMP JUMPDEST DUP7 DUP4 LT ISZERO PUSH3 0x6E7 JUMPI DUP5 DUP10 ADD MLOAD PUSH3 0x6E3 PUSH1 0x1F DUP10 AND DUP3 PUSH3 0x5D7 JUMP JUMPDEST DUP4 SSTORE POP JUMPDEST PUSH1 0x1 PUSH1 0x2 DUP9 MUL ADD DUP9 SSTORE POP POP POP JUMPDEST POP POP POP POP POP POP JUMP JUMPDEST PUSH2 0x9F7 DUP1 PUSH3 0x70C PUSH1 0x0 CODECOPY PUSH1 0x0 RETURN INVALID PUSH1 0x80 PUSH1 0x40 MSTORE PUSH1 0x4 CALLDATASIZE LT PUSH2 0x86 JUMPI PUSH1 0x0 CALLDATALOAD PUSH1 0xE0 SHR DUP1 PUSH4 0x893D20E8 GT PUSH2 0x59 JUMPI DUP1 PUSH4 0x893D20E8 EQ PUSH2 0x135 JUMPI DUP1 PUSH4 0xB383BF2D EQ PUSH2 0x160 JUMPI DUP1 PUSH4 0xEAE3F764 EQ PUSH2 0x18B JUMPI DUP1 PUSH4 0xED11F46A EQ PUSH2 0x1B6 JUMPI DUP1 PUSH4 0xED88C68E EQ PUSH2 0x1E1 JUMPI PUSH2 0x86 JUMP JUMPDEST DUP1 PUSH4 0x354ECC85 EQ PUSH2 0x8B JUMPI DUP1 PUSH4 0x51CFF8D9 EQ PUSH2 0xB6 JUMPI DUP1 PUSH4 0x798BE230 EQ PUSH2 0xDF JUMPI DUP1 PUSH4 0x80FDEF1B EQ PUSH2 0x10A JUMPI JUMPDEST PUSH1 0x0 DUP1 REVERT JUMPDEST CALLVALUE DUP1 ISZERO PUSH2 0x97 JUMPI PUSH1 0x0 DUP1 REVERT JUMPDEST POP PUSH2 0xA0 PUSH2 0x1EB JUMP JUMPDEST PUSH1 0x40 MLOAD PUSH2 0xAD SWAP2 SWAP1 PUSH2 0x5BC JUMP JUMPDEST PUSH1 0x40 MLOAD DUP1 SWAP2 SUB SWAP1 RETURN JUMPDEST CALLVALUE DUP1 ISZERO PUSH2 0xC2 JUMPI PUSH1 0x0 DUP1 REVERT JUMPDEST POP PUSH2 0xDD PUSH1 0x4 DUP1 CALLDATASIZE SUB DUP2 ADD SWAP1 PUSH2 0xD8 SWAP2 SWAP1 PUSH2 0x641 JUMP JUMPDEST PUSH2 0x279 JUMP JUMPDEST STOP JUMPDEST CALLVALUE DUP1 ISZERO PUSH2 0xEB JUMPI PUSH1 0x0 DUP1 REVERT JUMPDEST POP PUSH2 0xF4 PUSH2 0x397 JUMP JUMPDEST PUSH1 0x40 MLOAD PUSH2 0x101 SWAP2 SWAP1 PUSH2 0x689 JUMP JUMPDEST PUSH1 0x40 MLOAD DUP1 SWAP2 SUB SWAP1 RETURN JUMPDEST CALLVALUE DUP1 ISZERO PUSH2 0x116 JUMPI PUSH1 0x0 DUP1 REVERT JUMPDEST POP PUSH2 0x11F PUSH2 0x3AA JUMP JUMPDEST PUSH1 0x40 MLOAD PUSH2 0x12C SWAP2 SWAP1 PUSH2 0x6BD JUMP JUMPDEST PUSH1 0x40 MLOAD DUP1 SWAP2 SUB SWAP1 RETURN JUMPDEST CALLVALUE DUP1 ISZERO PUSH2 0x141 JUMPI PUSH1 0x0 DUP1 REVERT JUMPDEST POP PUSH2 0x14A PUSH2 0x3B0 JUMP JUMPDEST PUSH1 0x40 MLOAD PUSH2 0x157 SWAP2 SWAP1 PUSH2 0x6E7 JUMP JUMPDEST PUSH1 0x40 MLOAD DUP1 SWAP2 SUB SWAP1 RETURN JUMPDEST CALLVALUE DUP1 ISZERO PUSH2 0x16C JUMPI PUSH1 0x0 DUP1 REVERT JUMPDEST POP PUSH2 0x175 PUSH2 0x3DA JUMP JUMPDEST PUSH1 0x40 MLOAD PUSH2 0x182 SWAP2 SWAP1 PUSH2 0x6BD JUMP JUMPDEST PUSH1 0x40 MLOAD DUP1 SWAP2 SUB SWAP1 RETURN JUMPDEST CALLVALUE DUP1 ISZERO PUSH2 0x197 JUMPI PUSH1 0x0 DUP1 REVERT JUMPDEST POP PUSH2 0x1A0 PUSH2 0x3E0 JUMP JUMPDEST PUSH1 0x40 MLOAD PUSH2 0x1AD SWAP2 SWAP1 PUSH2 0x5BC JUMP JUMPDEST PUSH1 0x40 MLOAD DUP1 SWAP2 SUB SWAP1 RETURN JUMPDEST CALLVALUE DUP1 ISZERO PUSH2 0x1C2 JUMPI PUSH1 0x0 DUP1 REVERT JUMPDEST POP PUSH2 0x1CB PUSH2 0x472 JUMP JUMPDEST PUSH1 0x40 MLOAD PUSH2 0x1D8 SWAP2 SWAP1 PUSH2 0x6BD JUMP JUMPDEST PUSH1 0x40 MLOAD DUP1 SWAP2 SUB SWAP1 RETURN JUMPDEST PUSH2 0x1E9 PUSH2 0x47A JUMP JUMPDEST STOP JUMPDEST PUSH1 0x0 DUP1 SLOAD PUSH2 0x1F8 SWAP1 PUSH2 0x731 JUMP JUMPDEST DUP1 PUSH1 0x1F ADD PUSH1 0x20 DUP1 SWAP2 DIV MUL PUSH1 0x20 ADD PUSH1 0x40 MLOAD SWAP1 DUP2 ADD PUSH1 0x40 MSTORE DUP1 SWAP3 SWAP2 SWAP1 DUP2 DUP2 MSTORE PUSH1 0x20 ADD DUP3 DUP1 SLOAD PUSH2 0x224 SWAP1 PUSH2 0x731 JUMP JUMPDEST DUP1 ISZERO PUSH2 0x271 JUMPI DUP1 PUSH1 0x1F LT PUSH2 0x246 JUMPI PUSH2 0x100 DUP1 DUP4 SLOAD DIV MUL DUP4 MSTORE SWAP2 PUSH1 0x20 ADD SWAP2 PUSH2 0x271 JUMP JUMPDEST DUP3 ADD SWAP2 SWAP1 PUSH1 0x0 MSTORE PUSH1 0x20 PUSH1 0x0 KECCAK256 SWAP1 JUMPDEST DUP2 SLOAD DUP2 MSTORE SWAP1 PUSH1 0x1 ADD SWAP1 PUSH1 0x20 ADD DUP1 DUP4 GT PUSH2 0x254 JUMPI DUP3 SWAP1 SUB PUSH1 0x1F AND DUP3 ADD SWAP2 JUMPDEST POP POP POP POP POP DUP2 JUMP JUMPDEST DUP1 PUSH20 0xFFFFFFFFFFFFFFFFFFFFFFFFFFFFFFFFFFFFFFFF AND PUSH1 0x3 PUSH1 0x1 SWAP1 SLOAD SWAP1 PUSH2 0x100 EXP SWAP1 DIV PUSH20 0xFFFFFFFFFFFFFFFFFFFFFFFFFFFFFFFFFFFFFFFF AND PUSH20 0xFFFFFFFFFFFFFFFFFFFFFFFFFFFFFFFFFFFFFFFF AND EQ PUSH2 0x309 JUMPI PUSH1 0x40 MLOAD PUSH32 0x8C379A000000000000000000000000000000000000000000000000000000000 DUP2 MSTORE PUSH1 0x4 ADD PUSH2 0x300 SWAP1 PUSH2 0x7D4 JUMP JUMPDEST PUSH1 0x40 MLOAD DUP1 SWAP2 SUB SWAP1 REVERT JUMPDEST PUSH1 0x3 PUSH1 0x1 SWAP1 SLOAD SWAP1 PUSH2 0x100 EXP SWAP1 DIV PUSH20 0xFFFFFFFFFFFFFFFFFFFFFFFFFFFFFFFFFFFFFFFF AND PUSH20 0xFFFFFFFFFFFFFFFFFFFFFFFFFFFFFFFFFFFFFFFF AND SELFBALANCE PUSH1 0x40 MLOAD PUSH2 0x34F SWAP1 PUSH2 0x825 JUMP JUMPDEST PUSH1 0x0 PUSH1 0x40 MLOAD DUP1 DUP4 SUB DUP2 DUP6 DUP8 GAS CALL SWAP3 POP POP POP RETURNDATASIZE DUP1 PUSH1 0x0 DUP2 EQ PUSH2 0x38C JUMPI PUSH1 0x40 MLOAD SWAP2 POP PUSH1 0x1F NOT PUSH1 0x3F RETURNDATASIZE ADD AND DUP3 ADD PUSH1 0x40 MSTORE RETURNDATASIZE DUP3 MSTORE RETURNDATASIZE PUSH1 0x0 PUSH1 0x20 DUP5 ADD RETURNDATACOPY PUSH2 0x391 JUMP JUMPDEST PUSH1 0x60 SWAP2 POP JUMPDEST POP POP POP POP JUMP JUMPDEST PUSH1 0x3 PUSH1 0x0 SWAP1 SLOAD SWAP1 PUSH2 0x100 EXP SWAP1 DIV PUSH1 0xFF AND DUP2 JUMP JUMPDEST PUSH1 0x2 SLOAD DUP2 JUMP JUMPDEST PUSH1 0x0 PUSH1 0x3 PUSH1 0x1 SWAP1 SLOAD SWAP1 PUSH2 0x100 EXP SWAP1 DIV PUSH20 0xFFFFFFFFFFFFFFFFFFFFFFFFFFFFFFFFFFFFFFFF AND SWAP1 POP SWAP1 JUMP JUMPDEST PUSH1 0x1 SLOAD DUP2 JUMP JUMPDEST PUSH1 0x60 PUSH1 0x0 DUP1 SLOAD PUSH2 0x3EF SWAP1 PUSH2 0x731 JUMP JUMPDEST DUP1 PUSH1 0x1F ADD PUSH1 0x20 DUP1 SWAP2 DIV MUL PUSH1 0x20 ADD PUSH1 0x40 MLOAD SWAP1 DUP2 ADD PUSH1 0x40 MSTORE DUP1 SWAP3 SWAP2 SWAP1 DUP2 DUP2 MSTORE PUSH1 0x20 ADD DUP3 DUP1 SLOAD PUSH2 0x41B SWAP1 PUSH2 0x731 JUMP JUMPDEST DUP1 ISZERO PUSH2 0x468 JUMPI DUP1 PUSH1 0x1F LT PUSH2 0x43D JUMPI PUSH2 0x100 DUP1 DUP4 SLOAD DIV MUL DUP4 MSTORE SWAP2 PUSH1 0x20 ADD SWAP2 PUSH2 0x468 JUMP JUMPDEST DUP3 ADD SWAP2 SWAP1 PUSH1 0x0 MSTORE PUSH1 0x20 PUSH1 0x0 KECCAK256 SWAP1 JUMPDEST DUP2 SLOAD DUP2 MSTORE SWAP1 PUSH1 0x1 ADD SWAP1 PUSH1 0x20 ADD DUP1 DUP4 GT PUSH2 0x44B JUMPI DUP3 SWAP1 SUB PUSH1 0x1F AND DUP3 ADD SWAP2 JUMPDEST POP POP POP POP POP SWAP1 POP SWAP1 JUMP JUMPDEST PUSH1 0x0 SELFBALANCE SWAP1 POP SWAP1 JUMP JUMPDEST PUSH1 0x1 SLOAD CALLVALUE LT ISZERO PUSH2 0x4BF JUMPI PUSH1 0x40 MLOAD PUSH32 0x8C379A000000000000000000000000000000000000000000000000000000000 DUP2 MSTORE PUSH1 0x4 ADD PUSH2 0x4B6 SWAP1 PUSH2 0x8AC JUMP JUMPDEST PUSH1 0x40 MLOAD DUP1 SWAP2 SUB SWAP1 REVERT JUMPDEST PUSH1 0x3 PUSH1 0x0 SWAP1 SLOAD SWAP1 PUSH2 0x100 EXP SWAP1 DIV PUSH1 0xFF AND PUSH2 0x52A JUMPI PUSH1 0x0 SELFBALANCE SWAP1 POP PUSH1 0x2 SLOAD CALLVALUE DUP3 PUSH2 0x4E7 SWAP2 SWAP1 PUSH2 0x8FB JUMP JUMPDEST GT ISZERO PUSH2 0x528 JUMPI PUSH1 0x40 MLOAD PUSH32 0x8C379A000000000000000000000000000000000000000000000000000000000 DUP2 MSTORE PUSH1 0x4 ADD PUSH2 0x51F SWAP1 PUSH2 0x9A1 JUMP JUMPDEST PUSH1 0x40 MLOAD DUP1 SWAP2 SUB SWAP1 REVERT JUMPDEST POP JUMPDEST JUMP JUMPDEST PUSH1 0x0 DUP2 MLOAD SWAP1 POP SWAP2 SWAP1 POP JUMP JUMPDEST PUSH1 0x0 DUP3 DUP3 MSTORE PUSH1 0x20 DUP3 ADD SWAP1 POP SWAP3 SWAP2 POP POP JUMP JUMPDEST PUSH1 0x0 JUMPDEST DUP4 DUP2 LT ISZERO PUSH2 0x566 JUMPI DUP1 DUP3 ADD MLOAD DUP2 DUP5 ADD MSTORE PUSH1 0x20 DUP2 ADD SWAP1 POP PUSH2 0x54B JUMP JUMPDEST PUSH1 0x0 DUP5 DUP5 ADD MSTORE POP POP POP POP JUMP JUMPDEST PUSH1 0x0 PUSH1 0x1F NOT PUSH1 0x1F DUP4 ADD AND SWAP1 POP SWAP2 SWAP1 POP JUMP JUMPDEST PUSH1 0x0 PUSH2 0x58E DUP3 PUSH2 0x52C JUMP JUMPDEST PUSH2 0x598 DUP2 DUP6 PUSH2 0x537 JUMP JUMPDEST SWAP4 POP PUSH2 0x5A8 DUP2 DUP6 PUSH1 0x20 DUP7 ADD PUSH2 0x548 JUMP JUMPDEST PUSH2 0x5B1 DUP2 PUSH2 0x572 JUMP JUMPDEST DUP5 ADD SWAP2 POP POP SWAP3 SWAP2 POP POP JUMP JUMPDEST PUSH1 0x0 PUSH1 0x20 DUP3 ADD SWAP1 POP DUP2 DUP2 SUB PUSH1 0x0 DUP4 ADD MSTORE PUSH2 0x5D6 DUP2 DUP5 PUSH2 0x583 JUMP JUMPDEST SWAP1 POP SWAP3 SWAP2 POP POP JUMP JUMPDEST PUSH1 0x0 DUP1 REVERT JUMPDEST PUSH1 0x0 PUSH20 0xFFFFFFFFFFFFFFFFFFFFFFFFFFFFFFFFFFFFFFFF DUP3 AND SWAP1 POP SWAP2 SWAP1 POP JUMP JUMPDEST PUSH1 0x0 PUSH2 0x60E DUP3 PUSH2 0x5E3 JUMP JUMPDEST SWAP1 POP SWAP2 SWAP1 POP JUMP JUMPDEST PUSH2 0x61E DUP2 PUSH2 0x603 JUMP JUMPDEST DUP2 EQ PUSH2 0x629 JUMPI PUSH1 0x0 DUP1 REVERT JUMPDEST POP JUMP JUMPDEST PUSH1 0x0 DUP2 CALLDATALOAD SWAP1 POP PUSH2 0x63B DUP2 PUSH2 0x615 JUMP JUMPDEST SWAP3 SWAP2 POP POP JUMP JUMPDEST PUSH1 0x0 PUSH1 0x20 DUP3 DUP5 SUB SLT ISZERO PUSH2 0x657 JUMPI PUSH2 0x656 PUSH2 0x5DE JUMP JUMPDEST JUMPDEST PUSH1 0x0 PUSH2 0x665 DUP5 DUP3 DUP6 ADD PUSH2 0x62C JUMP JUMPDEST SWAP2 POP POP SWAP3 SWAP2 POP POP JUMP JUMPDEST PUSH1 0x0 DUP2 ISZERO ISZERO SWAP1 POP SWAP2 SWAP1 POP JUMP JUMPDEST PUSH2 0x683 DUP2 PUSH2 0x66E JUMP JUMPDEST DUP3 MSTORE POP POP JUMP JUMPDEST PUSH1 0x0 PUSH1 0x20 DUP3 ADD SWAP1 POP PUSH2 0x69E PUSH1 0x0 DUP4 ADD DUP5 PUSH2 0x67A JUMP JUMPDEST SWAP3 SWAP2 POP POP JUMP JUMPDEST PUSH1 0x0 DUP2 SWAP1 POP SWAP2 SWAP1 POP JUMP JUMPDEST PUSH2 0x6B7 DUP2 PUSH2 0x6A4 JUMP JUMPDEST DUP3 MSTORE POP POP JUMP JUMPDEST PUSH1 0x0 PUSH1 0x20 DUP3 ADD SWAP1 POP PUSH2 0x6D2 PUSH1 0x0 DUP4 ADD DUP5 PUSH2 0x6AE JUMP JUMPDEST SWAP3 SWAP2 POP POP JUMP JUMPDEST PUSH2 0x6E1 DUP2 PUSH2 0x603 JUMP JUMPDEST DUP3 MSTORE POP POP JUMP JUMPDEST PUSH1 0x0 PUSH1 0x20 DUP3 ADD SWAP1 POP PUSH2 0x6FC PUSH1 0x0 DUP4 ADD DUP5 PUSH2 0x6D8 JUMP JUMPDEST SWAP3 SWAP2 POP POP JUMP JUMPDEST PUSH32 0x4E487B7100000000000000000000000000000000000000000000000000000000 PUSH1 0x0 MSTORE PUSH1 0x22 PUSH1 0x4 MSTORE PUSH1 0x24 PUSH1 0x0 REVERT JUMPDEST PUSH1 0x0 PUSH1 0x2 DUP3 DIV SWAP1 POP PUSH1 0x1 DUP3 AND DUP1 PUSH2 0x749 JUMPI PUSH1 0x7F DUP3 AND SWAP2 POP JUMPDEST PUSH1 0x20 DUP3 LT DUP2 SUB PUSH2 0x75C JUMPI PUSH2 0x75B PUSH2 0x702 JUMP JUMPDEST JUMPDEST POP SWAP2 SWAP1 POP JUMP JUMPDEST PUSH32 0x4F6E6C79206F776E6572206F66207468697320646F6E6174696F6E2063616E20 PUSH1 0x0 DUP3 ADD MSTORE PUSH32 0x77697468647261772066726F6D20697400000000000000000000000000000000 PUSH1 0x20 DUP3 ADD MSTORE POP JUMP JUMPDEST PUSH1 0x0 PUSH2 0x7BE PUSH1 0x30 DUP4 PUSH2 0x537 JUMP JUMPDEST SWAP2 POP PUSH2 0x7C9 DUP3 PUSH2 0x762 JUMP JUMPDEST PUSH1 0x40 DUP3 ADD SWAP1 POP SWAP2 SWAP1 POP JUMP JUMPDEST PUSH1 0x0 PUSH1 0x20 DUP3 ADD SWAP1 POP DUP2 DUP2 SUB PUSH1 0x0 DUP4 ADD MSTORE PUSH2 0x7ED DUP2 PUSH2 0x7B1 JUMP JUMPDEST SWAP1 POP SWAP2 SWAP1 POP JUMP JUMPDEST PUSH1 0x0 DUP2 SWAP1 POP SWAP3 SWAP2 POP POP JUMP JUMPDEST POP JUMP JUMPDEST PUSH1 0x0 PUSH2 0x80F PUSH1 0x0 DUP4 PUSH2 0x7F4 JUMP JUMPDEST SWAP2 POP PUSH2 0x81A DUP3 PUSH2 0x7FF JUMP JUMPDEST PUSH1 0x0 DUP3 ADD SWAP1 POP SWAP2 SWAP1 POP JUMP JUMPDEST PUSH1 0x0 PUSH2 0x830 DUP3 PUSH2 0x802 JUMP JUMPDEST SWAP2 POP DUP2 SWAP1 POP SWAP2 SWAP1 POP JUMP JUMPDEST PUSH32 0x596F752063616E6E6F7420646F6E6174652062656C6F7720247B5F6D696E416D PUSH1 0x0 DUP3 ADD MSTORE PUSH32 0x6F756E747D000000000000000000000000000000000000000000000000000000 PUSH1 0x20 DUP3 ADD MSTORE POP JUMP JUMPDEST PUSH1 0x0 PUSH2 0x896 PUSH1 0x25 DUP4 PUSH2 0x537 JUMP JUMPDEST SWAP2 POP PUSH2 0x8A1 DUP3 PUSH2 0x83A JUMP JUMPDEST PUSH1 0x40 DUP3 ADD SWAP1 POP SWAP2 SWAP1 POP JUMP JUMPDEST PUSH1 0x0 PUSH1 0x20 DUP3 ADD SWAP1 POP DUP2 DUP2 SUB PUSH1 0x0 DUP4 ADD MSTORE PUSH2 0x8C5 DUP2 PUSH2 0x889 JUMP JUMPDEST SWAP1 POP SWAP2 SWAP1 POP JUMP JUMPDEST PUSH32 0x4E487B7100000000000000000000000000000000000000000000000000000000 PUSH1 0x0 MSTORE PUSH1 0x11 PUSH1 0x4 MSTORE PUSH1 0x24 PUSH1 0x0 REVERT JUMPDEST PUSH1 0x0 PUSH2 0x906 DUP3 PUSH2 0x6A4 JUMP JUMPDEST SWAP2 POP PUSH2 0x911 DUP4 PUSH2 0x6A4 JUMP JUMPDEST SWAP3 POP DUP3 DUP3 ADD SWAP1 POP DUP1 DUP3 GT ISZERO PUSH2 0x929 JUMPI PUSH2 0x928 PUSH2 0x8CC JUMP JUMPDEST JUMPDEST SWAP3 SWAP2 POP POP JUMP JUMPDEST PUSH32 0x596F757220646F6E6174696F6E2077696C6C2063726F73732074686520616D6F PUSH1 0x0 DUP3 ADD MSTORE PUSH32 0x756E74206E656564656400000000000000000000000000000000000000000000 PUSH1 0x20 DUP3 ADD MSTORE POP JUMP JUMPDEST PUSH1 0x0 PUSH2 0x98B PUSH1 0x2A DUP4 PUSH2 0x537 JUMP JUMPDEST SWAP2 POP PUSH2 0x996 DUP3 PUSH2 0x92F JUMP JUMPDEST PUSH1 0x40 DUP3 ADD SWAP1 POP SWAP2 SWAP1 POP JUMP JUMPDEST PUSH1 0x0 PUSH1 0x20 DUP3 ADD SWAP1 POP DUP2 DUP2 SUB PUSH1 0x0 DUP4 ADD MSTORE PUSH2 0x9BA DUP2 PUSH2 0x97E JUMP JUMPDEST SWAP1 POP SWAP2 SWAP1 POP JUMP INVALID LOG2 PUSH5 0x6970667358 0x22 SLT KECCAK256 0xD9 ORIGIN LOG2 0xDC PUSH29 0x8CA02C46BF51BFCD9E84756646DCF1F31DE25ABBF85B2841F3891E6473 PUSH16 0x6C634300081100330000000000000000 "
				},
				"gasEstimates": {
					"creation": {
						"codeDepositCost": "510200",
						"executionCost": "infinite",
						"totalCost": "infinite"
					},
					"external": {
						"_donationName()": "infinite",
						"acceptPaymentAfterAmountMet()": "2516",
						"donate()": "infinite",
						"donationAmountNeeded()": "2496",
						"donationBalance()": "405",
						"donationMinAmount()": "2451",
						"getDonationName()": "infinite",
						"getOwner()": "2572",
						"withdraw(address)": "infinite"
					}
				},
				"methodIdentifiers": {
					"_donationName()": "354ecc85",
					"acceptPaymentAfterAmountMet()": "798be230",
					"donate()": "ed88c68e",
					"donationAmountNeeded()": "80fdef1b",
					"donationBalance()": "ed11f46a",
					"donationMinAmount()": "b383bf2d",
					"getDonationName()": "eae3f764",
					"getOwner()": "893d20e8",
					"withdraw(address)": "51cff8d9"
				}
			},
			"storageLayout": {
				"storage": [
					{
						"astId": 158,
						"contract": "Donation.sol:Donation",
						"label": "_donationName",
						"offset": 0,
						"slot": "0",
						"type": "t_string_storage"
					},
					{
						"astId": 160,
						"contract": "Donation.sol:Donation",
						"label": "donationMinAmount",
						"offset": 0,
						"slot": "1",
						"type": "t_uint256"
					},
					{
						"astId": 162,
						"contract": "Donation.sol:Donation",
						"label": "donationAmountNeeded",
						"offset": 0,
						"slot": "2",
						"type": "t_uint256"
					},
					{
						"astId": 164,
						"contract": "Donation.sol:Donation",
						"label": "acceptPaymentAfterAmountMet",
						"offset": 0,
						"slot": "3",
						"type": "t_bool"
					},
					{
						"astId": 166,
						"contract": "Donation.sol:Donation",
						"label": "_owner",
						"offset": 1,
						"slot": "3",
						"type": "t_address"
					}
				],
				"types": {
					"t_address": {
						"encoding": "inplace",
						"label": "address",
						"numberOfBytes": "20"
					},
					"t_bool": {
						"encoding": "inplace",
						"label": "bool",
						"numberOfBytes": "1"
					},
					"t_string_storage": {
						"encoding": "bytes",
						"label": "string",
						"numberOfBytes": "32"
					},
					"t_uint256": {
						"encoding": "inplace",
						"label": "uint256",
						"numberOfBytes": "32"
					}
				}
			},
			"userdoc": {
				"kind": "user",
				"methods": {},
				"version": 1
			}
		}
	}
}