{
	"data": {
		"bytecode": {
			"linkReferences": {},
			"object": "608060405234801561001057600080fd5b50611e44806100206000396000f3fe6080604052600436106200007a5760003560e01c8063a3e8f2601162000055578063a3e8f2601462000127578063a6b03633146200016b578063e5482153146200019b578063f4139c5814620001c9576200007a565b806317cfc652146200007f578063767d78b214620000c35780637c6abc821462000107575b600080fd5b3480156200008c57600080fd5b50620000ab6004803603810190620000a59190620007b8565b6200020d565b604051620000ba91906200088e565b60405180910390f35b348015620000d057600080fd5b50620000ef6004803603810190620000e99190620008dc565b620002c2565b604051620000fe91906200091f565b60405180910390f35b6200012560048036038101906200011f9190620008dc565b62000342565b005b3480156200013457600080fd5b506200015360048036038101906200014d9190620008dc565b620003ae565b6040516200016291906200088e565b60405180910390f35b3480156200017857600080fd5b50620001836200042e565b60405162000192919062000a64565b60405180910390f35b348015620001a857600080fd5b50620001c76004803603810190620001c19190620008dc565b620004be565b005b348015620001d657600080fd5b50620001f56004803603810190620001ef9190620008dc565b62000536565b60405162000204919062000b11565b60405180910390f35b60008085838587336040516200022390620005bc565b6200023395949392919062000b46565b604051809103906000f08015801562000250573d6000803e3d6000fd5b5090506000819080600181540180825580915050600190039060005260206000200160009091909190916101000a81548173ffffffffffffffffffffffffffffffffffffffff021916908373ffffffffffffffffffffffffffffffffffffffff16021790555080915050949350505050565b6000808290508073ffffffffffffffffffffffffffffffffffffffff1663ed11f46a6040518163ffffffff1660e01b8152600401602060405180830381865afa15801562000314573d6000803e3d6000fd5b505050506040513d601f19601f820116820180604052508101906200033a919062000bc1565b915050919050565b60008190508073ffffffffffffffffffffffffffffffffffffffff1663ed88c68e346040518263ffffffff1660e01b81526004016000604051808303818588803b1580156200039057600080fd5b505af1158015620003a5573d6000803e3d6000fd5b50505050505050565b6000808290508073ffffffffffffffffffffffffffffffffffffffff1663893d20e86040518163ffffffff1660e01b8152600401602060405180830381865afa15801562000400573d6000803e3d6000fd5b505050506040513d601f19601f8201168201806040525081019062000426919062000c0a565b915050919050565b60606000805480602002602001604051908101604052809291908181526020018280548015620004b457602002820191906000526020600020905b8160009054906101000a900473ffffffffffffffffffffffffffffffffffffffff1673ffffffffffffffffffffffffffffffffffffffff168152602001906001019080831162000469575b5050505050905090565b60008190508073ffffffffffffffffffffffffffffffffffffffff166351cff8d9336040518263ffffffff1660e01b8152600401620004fe91906200088e565b600060405180830381600087803b1580156200051957600080fd5b505af11580156200052e573d6000803e3d6000fd5b505050505050565b606060008290508073ffffffffffffffffffffffffffffffffffffffff1663eae3f7646040518163ffffffff1660e01b8152600401600060405180830381865afa15801562000589573d6000803e3d6000fd5b505050506040513d6000823e3d601f19601f82011682018060405250810190620005b4919062000cba565b915050919050565b6111038062000d0c83390190565b6000604051905090565b600080fd5b600080fd5b600080fd5b600080fd5b6000601f19601f8301169050919050565b7f4e487b7100000000000000000000000000000000000000000000000000000000600052604160045260246000fd5b6200063382620005e8565b810181811067ffffffffffffffff82111715620006555762000654620005f9565b5b80604052505050565b60006200066a620005ca565b905062000678828262000628565b919050565b600067ffffffffffffffff8211156200069b576200069a620005f9565b5b620006a682620005e8565b9050602081019050919050565b82818337600083830152505050565b6000620006d9620006d3846200067d565b6200065e565b905082815260208101848484011115620006f857620006f7620005e3565b5b62000705848285620006b3565b509392505050565b600082601f830112620007255762000724620005de565b5b813562000737848260208601620006c2565b91505092915050565b6000819050919050565b620007558162000740565b81146200076157600080fd5b50565b60008135905062000775816200074a565b92915050565b60008115159050919050565b62000792816200077b565b81146200079e57600080fd5b50565b600081359050620007b28162000787565b92915050565b60008060008060808587031215620007d557620007d4620005d4565b5b600085013567ffffffffffffffff811115620007f657620007f5620005d9565b5b62000804878288016200070d565b9450506020620008178782880162000764565b93505060406200082a87828801620007a1565b92505060606200083d8782880162000764565b91505092959194509250565b600073ffffffffffffffffffffffffffffffffffffffff82169050919050565b6000620008768262000849565b9050919050565b620008888162000869565b82525050565b6000602082019050620008a560008301846200087d565b92915050565b620008b68162000869565b8114620008c257600080fd5b50565b600081359050620008d681620008ab565b92915050565b600060208284031215620008f557620008f4620005d4565b5b60006200090584828501620008c5565b91505092915050565b620009198162000740565b82525050565b60006020820190506200093660008301846200090e565b92915050565b600081519050919050565b600082825260208201905092915050565b6000819050602082019050919050565b6000819050919050565b6000620009936200098d620009878462000849565b62000968565b62000849565b9050919050565b6000620009a78262000972565b9050919050565b6000620009bb826200099a565b9050919050565b620009cd81620009ae565b82525050565b6000620009e18383620009c2565b60208301905092915050565b6000602082019050919050565b600062000a07826200093c565b62000a13818562000947565b935062000a208362000958565b8060005b8381101562000a5757815162000a3b8882620009d3565b975062000a4883620009ed565b92505060018101905062000a24565b5085935050505092915050565b6000602082019050818103600083015262000a808184620009fa565b905092915050565b600081519050919050565b600082825260208201905092915050565b60005b8381101562000ac457808201518184015260208101905062000aa7565b60008484015250505050565b600062000add8262000a88565b62000ae9818562000a93565b935062000afb81856020860162000aa4565b62000b0681620005e8565b840191505092915050565b6000602082019050818103600083015262000b2d818462000ad0565b905092915050565b62000b40816200077b565b82525050565b600060a082019050818103600083015262000b62818862000ad0565b905062000b7360208301876200090e565b62000b82604083018662000b35565b62000b9160608301856200090e565b62000ba060808301846200087d565b9695505050505050565b60008151905062000bbb816200074a565b92915050565b60006020828403121562000bda5762000bd9620005d4565b5b600062000bea8482850162000baa565b91505092915050565b60008151905062000c0481620008ab565b92915050565b60006020828403121562000c235762000c22620005d4565b5b600062000c338482850162000bf3565b91505092915050565b600062000c5362000c4d846200067d565b6200065e565b90508281526020810184848401111562000c725762000c71620005e3565b5b62000c7f84828562000aa4565b509392505050565b600082601f83011262000c9f5762000c9e620005de565b5b815162000cb184826020860162000c3c565b91505092915050565b60006020828403121562000cd35762000cd2620005d4565b5b600082015167ffffffffffffffff81111562000cf45762000cf3620005d9565b5b62000d028482850162000c87565b9150509291505056fe60806040523480156200001157600080fd5b50604051620011033803806200110383398181016040528101906200003791906200032d565b846000908162000048919062000615565b508360018190555082600360006101000a81548160ff0219169083151502179055508160028190555080600360016101000a81548173ffffffffffffffffffffffffffffffffffffffff021916908373ffffffffffffffffffffffffffffffffffffffff1602179055505050505050620006fc565b6000604051905090565b600080fd5b600080fd5b600080fd5b600080fd5b6000601f19601f8301169050919050565b7f4e487b7100000000000000000000000000000000000000000000000000000000600052604160045260246000fd5b6200012682620000db565b810181811067ffffffffffffffff82111715620001485762000147620000ec565b5b80604052505050565b60006200015d620000bd565b90506200016b82826200011b565b919050565b600067ffffffffffffffff8211156200018e576200018d620000ec565b5b6200019982620000db565b9050602081019050919050565b60005b83811015620001c6578082015181840152602081019050620001a9565b60008484015250505050565b6000620001e9620001e38462000170565b62000151565b905082815260208101848484011115620002085762000207620000d6565b5b62000215848285620001a6565b509392505050565b600082601f830112620002355762000234620000d1565b5b815162000247848260208601620001d2565b91505092915050565b6000819050919050565b620002658162000250565b81146200027157600080fd5b50565b60008151905062000285816200025a565b92915050565b60008115159050919050565b620002a2816200028b565b8114620002ae57600080fd5b50565b600081519050620002c28162000297565b92915050565b600073ffffffffffffffffffffffffffffffffffffffff82169050919050565b6000620002f582620002c8565b9050919050565b6200030781620002e8565b81146200031357600080fd5b50565b6000815190506200032781620002fc565b92915050565b600080600080600060a086880312156200034c576200034b620000c7565b5b600086015167ffffffffffffffff8111156200036d576200036c620000cc565b5b6200037b888289016200021d565b95505060206200038e8882890162000274565b9450506040620003a188828901620002b1565b9350506060620003b48882890162000274565b9250506080620003c78882890162000316565b9150509295509295909350565b600081519050919050565b7f4e487b7100000000000000000000000000000000000000000000000000000000600052602260045260246000fd5b600060028204905060018216806200042757607f821691505b6020821081036200043d576200043c620003df565b5b50919050565b60008190508160005260206000209050919050565b60006020601f8301049050919050565b600082821b905092915050565b600060088302620004a77fffffffffffffffffffffffffffffffffffffffffffffffffffffffffffffffff8262000468565b620004b3868362000468565b95508019841693508086168417925050509392505050565b6000819050919050565b6000620004f6620004f0620004ea8462000250565b620004cb565b62000250565b9050919050565b6000819050919050565b6200051283620004d5565b6200052a6200052182620004fd565b84845462000475565b825550505050565b600090565b6200054162000532565b6200054e81848462000507565b505050565b5b8181101562000576576200056a60008262000537565b60018101905062000554565b5050565b601f821115620005c5576200058f8162000443565b6200059a8462000458565b81016020851015620005aa578190505b620005c2620005b98562000458565b83018262000553565b50505b505050565b600082821c905092915050565b6000620005ea60001984600802620005ca565b1980831691505092915050565b6000620006058383620005d7565b9150826002028217905092915050565b6200062082620003d4565b67ffffffffffffffff8111156200063c576200063b620000ec565b5b6200064882546200040e565b620006558282856200057a565b600060209050601f8311600181146200068d576000841562000678578287015190505b620006848582620005f7565b865550620006f4565b601f1984166200069d8662000443565b60005b82811015620006c757848901518255600182019150602085019450602081019050620006a0565b86831015620006e75784890151620006e3601f891682620005d7565b8355505b6001600288020188555050505b505050505050565b6109f7806200070c6000396000f3fe6080604052600436106100865760003560e01c8063893d20e811610059578063893d20e814610135578063b383bf2d14610160578063eae3f7641461018b578063ed11f46a146101b6578063ed88c68e146101e157610086565b8063354ecc851461008b57806351cff8d9146100b6578063798be230146100df57806380fdef1b1461010a575b600080fd5b34801561009757600080fd5b506100a06101eb565b6040516100ad91906105bc565b60405180910390f35b3480156100c257600080fd5b506100dd60048036038101906100d89190610641565b610279565b005b3480156100eb57600080fd5b506100f4610397565b6040516101019190610689565b60405180910390f35b34801561011657600080fd5b5061011f6103aa565b60405161012c91906106bd565b60405180910390f35b34801561014157600080fd5b5061014a6103b0565b60405161015791906106e7565b60405180910390f35b34801561016c57600080fd5b506101756103da565b60405161018291906106bd565b60405180910390f35b34801561019757600080fd5b506101a06103e0565b6040516101ad91906105bc565b60405180910390f35b3480156101c257600080fd5b506101cb610472565b6040516101d891906106bd565b60405180910390f35b6101e961047a565b005b600080546101f890610731565b80601f016020809104026020016040519081016040528092919081815260200182805461022490610731565b80156102715780601f1061024657610100808354040283529160200191610271565b820191906000526020600020905b81548152906001019060200180831161025457829003601f168201915b505050505081565b8073ffffffffffffffffffffffffffffffffffffffff16600360019054906101000a900473ffffffffffffffffffffffffffffffffffffffff1673ffffffffffffffffffffffffffffffffffffffff1614610309576040517f08c379a0000000000000000000000000000000000000000000000000000000008152600401610300906107d4565b60405180910390fd5b600360019054906101000a900473ffffffffffffffffffffffffffffffffffffffff1673ffffffffffffffffffffffffffffffffffffffff164760405161034f90610825565b60006040518083038185875af1925050503d806000811461038c576040519150601f19603f3d011682016040523d82523d6000602084013e610391565b606091505b50505050565b600360009054906101000a900460ff1681565b60025481565b6000600360019054906101000a900473ffffffffffffffffffffffffffffffffffffffff16905090565b60015481565b6060600080546103ef90610731565b80601f016020809104026020016040519081016040528092919081815260200182805461041b90610731565b80156104685780601f1061043d57610100808354040283529160200191610468565b820191906000526020600020905b81548152906001019060200180831161044b57829003601f168201915b5050505050905090565b600047905090565b6001543410156104bf576040517f08c379a00000000000000000000000000000000000000000000000000000000081526004016104b6906108ac565b60405180910390fd5b600360009054906101000a900460ff1661052a57600047905060025434826104e791906108fb565b1115610528576040517f08c379a000000000000000000000000000000000000000000000000000000000815260040161051f906109a1565b60405180910390fd5b505b565b600081519050919050565b600082825260208201905092915050565b60005b8381101561056657808201518184015260208101905061054b565b60008484015250505050565b6000601f19601f8301169050919050565b600061058e8261052c565b6105988185610537565b93506105a8818560208601610548565b6105b181610572565b840191505092915050565b600060208201905081810360008301526105d68184610583565b905092915050565b600080fd5b600073ffffffffffffffffffffffffffffffffffffffff82169050919050565b600061060e826105e3565b9050919050565b61061e81610603565b811461062957600080fd5b50565b60008135905061063b81610615565b92915050565b600060208284031215610657576106566105de565b5b60006106658482850161062c565b91505092915050565b60008115159050919050565b6106838161066e565b82525050565b600060208201905061069e600083018461067a565b92915050565b6000819050919050565b6106b7816106a4565b82525050565b60006020820190506106d260008301846106ae565b92915050565b6106e181610603565b82525050565b60006020820190506106fc60008301846106d8565b92915050565b7f4e487b7100000000000000000000000000000000000000000000000000000000600052602260045260246000fd5b6000600282049050600182168061074957607f821691505b60208210810361075c5761075b610702565b5b50919050565b7f4f6e6c79206f776e6572206f66207468697320646f6e6174696f6e2063616e2060008201527f77697468647261772066726f6d20697400000000000000000000000000000000602082015250565b60006107be603083610537565b91506107c982610762565b604082019050919050565b600060208201905081810360008301526107ed816107b1565b9050919050565b600081905092915050565b50565b600061080f6000836107f4565b915061081a826107ff565b600082019050919050565b600061083082610802565b9150819050919050565b7f596f752063616e6e6f7420646f6e6174652062656c6f7720247b5f6d696e416d60008201527f6f756e747d000000000000000000000000000000000000000000000000000000602082015250565b6000610896602583610537565b91506108a18261083a565b604082019050919050565b600060208201905081810360008301526108c581610889565b9050919050565b7f4e487b7100000000000000000000000000000000000000000000000000000000600052601160045260246000fd5b6000610906826106a4565b9150610911836106a4565b9250828201905080821115610929576109286108cc565b5b92915050565b7f596f757220646f6e6174696f6e2077696c6c2063726f73732074686520616d6f60008201527f756e74206e656564656400000000000000000000000000000000000000000000602082015250565b600061098b602a83610537565b91506109968261092f565b604082019050919050565b600060208201905081810360008301526109ba8161097e565b905091905056fea2646970667358221220d932a2dc7c8ca02c46bf51bfcd9e84756646dcf1f31de25abbf85b2841f3891e64736f6c63430008110033a26469706673582212207f6da14ef08521b45c5ea4e38ae8ffd970e171a010848e05675940830463633f64736f6c63430008110033",
			"opcodes": "PUSH1 0x80 PUSH1 0x40 MSTORE CALLVALUE DUP1 ISZERO PUSH2 0x10 JUMPI PUSH1 0x0 DUP1 REVERT JUMPDEST POP PUSH2 0x1E44 DUP1 PUSH2 0x20 PUSH1 0x0 CODECOPY PUSH1 0x0 RETURN INVALID PUSH1 0x80 PUSH1 0x40 MSTORE PUSH1 0x4 CALLDATASIZE LT PUSH3 0x7A JUMPI PUSH1 0x0 CALLDATALOAD PUSH1 0xE0 SHR DUP1 PUSH4 0xA3E8F260 GT PUSH3 0x55 JUMPI DUP1 PUSH4 0xA3E8F260 EQ PUSH3 0x127 JUMPI DUP1 PUSH4 0xA6B03633 EQ PUSH3 0x16B JUMPI DUP1 PUSH4 0xE5482153 EQ PUSH3 0x19B JUMPI DUP1 PUSH4 0xF4139C58 EQ PUSH3 0x1C9 JUMPI PUSH3 0x7A JUMP JUMPDEST DUP1 PUSH4 0x17CFC652 EQ PUSH3 0x7F JUMPI DUP1 PUSH4 0x767D78B2 EQ PUSH3 0xC3 JUMPI DUP1 PUSH4 0x7C6ABC82 EQ PUSH3 0x107 JUMPI JUMPDEST PUSH1 0x0 DUP1 REVERT JUMPDEST CALLVALUE DUP1 ISZERO PUSH3 0x8C JUMPI PUSH1 0x0 DUP1 REVERT JUMPDEST POP PUSH3 0xAB PUSH1 0x4 DUP1 CALLDATASIZE SUB DUP2 ADD SWAP1 PUSH3 0xA5 SWAP2 SWAP1 PUSH3 0x7B8 JUMP JUMPDEST PUSH3 0x20D JUMP JUMPDEST PUSH1 0x40 MLOAD PUSH3 0xBA SWAP2 SWAP1 PUSH3 0x88E JUMP JUMPDEST PUSH1 0x40 MLOAD DUP1 SWAP2 SUB SWAP1 RETURN JUMPDEST CALLVALUE DUP1 ISZERO PUSH3 0xD0 JUMPI PUSH1 0x0 DUP1 REVERT JUMPDEST POP PUSH3 0xEF PUSH1 0x4 DUP1 CALLDATASIZE SUB DUP2 ADD SWAP1 PUSH3 0xE9 SWAP2 SWAP1 PUSH3 0x8DC JUMP JUMPDEST PUSH3 0x2C2 JUMP JUMPDEST PUSH1 0x40 MLOAD PUSH3 0xFE SWAP2 SWAP1 PUSH3 0x91F JUMP JUMPDEST PUSH1 0x40 MLOAD DUP1 SWAP2 SUB SWAP1 RETURN JUMPDEST PUSH3 0x125 PUSH1 0x4 DUP1 CALLDATASIZE SUB DUP2 ADD SWAP1 PUSH3 0x11F SWAP2 SWAP1 PUSH3 0x8DC JUMP JUMPDEST PUSH3 0x342 JUMP JUMPDEST STOP JUMPDEST CALLVALUE DUP1 ISZERO PUSH3 0x134 JUMPI PUSH1 0x0 DUP1 REVERT JUMPDEST POP PUSH3 0x153 PUSH1 0x4 DUP1 CALLDATASIZE SUB DUP2 ADD SWAP1 PUSH3 0x14D SWAP2 SWAP1 PUSH3 0x8DC JUMP JUMPDEST PUSH3 0x3AE JUMP JUMPDEST PUSH1 0x40 MLOAD PUSH3 0x162 SWAP2 SWAP1 PUSH3 0x88E JUMP JUMPDEST PUSH1 0x40 MLOAD DUP1 SWAP2 SUB SWAP1 RETURN JUMPDEST CALLVALUE DUP1 ISZERO PUSH3 0x178 JUMPI PUSH1 0x0 DUP1 REVERT JUMPDEST POP PUSH3 0x183 PUSH3 0x42E JUMP JUMPDEST PUSH1 0x40 MLOAD PUSH3 0x192 SWAP2 SWAP1 PUSH3 0xA64 JUMP JUMPDEST PUSH1 0x40 MLOAD DUP1 SWAP2 SUB SWAP1 RETURN JUMPDEST CALLVALUE DUP1 ISZERO PUSH3 0x1A8 JUMPI PUSH1 0x0 DUP1 REVERT JUMPDEST POP PUSH3 0x1C7 PUSH1 0x4 DUP1 CALLDATASIZE SUB DUP2 ADD SWAP1 PUSH3 0x1C1 SWAP2 SWAP1 PUSH3 0x8DC JUMP JUMPDEST PUSH3 0x4BE JUMP JUMPDEST STOP JUMPDEST CALLVALUE DUP1 ISZERO PUSH3 0x1D6 JUMPI PUSH1 0x0 DUP1 REVERT JUMPDEST POP PUSH3 0x1F5 PUSH1 0x4 DUP1 CALLDATASIZE SUB DUP2 ADD SWAP1 PUSH3 0x1EF SWAP2 SWAP1 PUSH3 0x8DC JUMP JUMPDEST PUSH3 0x536 JUMP JUMPDEST PUSH1 0x40 MLOAD PUSH3 0x204 SWAP2 SWAP1 PUSH3 0xB11 JUMP JUMPDEST PUSH1 0x40 MLOAD DUP1 SWAP2 SUB SWAP1 RETURN JUMPDEST PUSH1 0x0 DUP1 DUP6 DUP4 DUP6 DUP8 CALLER PUSH1 0x40 MLOAD PUSH3 0x223 SWAP1 PUSH3 0x5BC JUMP JUMPDEST PUSH3 0x233 SWAP6 SWAP5 SWAP4 SWAP3 SWAP2 SWAP1 PUSH3 0xB46 JUMP JUMPDEST PUSH1 0x40 MLOAD DUP1 SWAP2 SUB SWAP1 PUSH1 0x0 CREATE DUP1 ISZERO DUP1 ISZERO PUSH3 0x250 JUMPI RETURNDATASIZE PUSH1 0x0 DUP1 RETURNDATACOPY RETURNDATASIZE PUSH1 0x0 REVERT JUMPDEST POP SWAP1 POP PUSH1 0x0 DUP2 SWAP1 DUP1 PUSH1 0x1 DUP2 SLOAD ADD DUP1 DUP3 SSTORE DUP1 SWAP2 POP POP PUSH1 0x1 SWAP1 SUB SWAP1 PUSH1 0x0 MSTORE PUSH1 0x20 PUSH1 0x0 KECCAK256 ADD PUSH1 0x0 SWAP1 SWAP2 SWAP1 SWAP2 SWAP1 SWAP2 PUSH2 0x100 EXP DUP2 SLOAD DUP2 PUSH20 0xFFFFFFFFFFFFFFFFFFFFFFFFFFFFFFFFFFFFFFFF MUL NOT AND SWAP1 DUP4 PUSH20 0xFFFFFFFFFFFFFFFFFFFFFFFFFFFFFFFFFFFFFFFF AND MUL OR SWAP1 SSTORE POP DUP1 SWAP2 POP POP SWAP5 SWAP4 POP POP POP POP JUMP JUMPDEST PUSH1 0x0 DUP1 DUP3 SWAP1 POP DUP1 PUSH20 0xFFFFFFFFFFFFFFFFFFFFFFFFFFFFFFFFFFFFFFFF AND PUSH4 0xED11F46A PUSH1 0x40 MLOAD DUP2 PUSH4 0xFFFFFFFF AND PUSH1 0xE0 SHL DUP2 MSTORE PUSH1 0x4 ADD PUSH1 0x20 PUSH1 0x40 MLOAD DUP1 DUP4 SUB DUP2 DUP7 GAS STATICCALL ISZERO DUP1 ISZERO PUSH3 0x314 JUMPI RETURNDATASIZE PUSH1 0x0 DUP1 RETURNDATACOPY RETURNDATASIZE PUSH1 0x0 REVERT JUMPDEST POP POP POP POP PUSH1 0x40 MLOAD RETURNDATASIZE PUSH1 0x1F NOT PUSH1 0x1F DUP3 ADD AND DUP3 ADD DUP1 PUSH1 0x40 MSTORE POP DUP2 ADD SWAP1 PUSH3 0x33A SWAP2 SWAP1 PUSH3 0xBC1 JUMP JUMPDEST SWAP2 POP POP SWAP2 SWAP1 POP JUMP JUMPDEST PUSH1 0x0 DUP2 SWAP1 POP DUP1 PUSH20 0xFFFFFFFFFFFFFFFFFFFFFFFFFFFFFFFFFFFFFFFF AND PUSH4 0xED88C68E CALLVALUE PUSH1 0x40 MLOAD DUP3 PUSH4 0xFFFFFFFF AND PUSH1 0xE0 SHL DUP2 MSTORE PUSH1 0x4 ADD PUSH1 0x0 PUSH1 0x40 MLOAD DUP1 DUP4 SUB DUP2 DUP6 DUP9 DUP1 EXTCODESIZE ISZERO DUP1 ISZERO PUSH3 0x390 JUMPI PUSH1 0x0 DUP1 REVERT JUMPDEST POP GAS CALL ISZERO DUP1 ISZERO PUSH3 0x3A5 JUMPI RETURNDATASIZE PUSH1 0x0 DUP1 RETURNDATACOPY RETURNDATASIZE PUSH1 0x0 REVERT JUMPDEST POP POP POP POP POP POP POP JUMP JUMPDEST PUSH1 0x0 DUP1 DUP3 SWAP1 POP DUP1 PUSH20 0xFFFFFFFFFFFFFFFFFFFFFFFFFFFFFFFFFFFFFFFF AND PUSH4 0x893D20E8 PUSH1 0x40 MLOAD DUP2 PUSH4 0xFFFFFFFF AND PUSH1 0xE0 SHL DUP2 MSTORE PUSH1 0x4 ADD PUSH1 0x20 PUSH1 0x40 MLOAD DUP1 DUP4 SUB DUP2 DUP7 GAS STATICCALL ISZERO DUP1 ISZERO PUSH3 0x400 JUMPI RETURNDATASIZE PUSH1 0x0 DUP1 RETURNDATACOPY RETURNDATASIZE PUSH1 0x0 REVERT JUMPDEST POP POP POP POP PUSH1 0x40 MLOAD RETURNDATASIZE PUSH1 0x1F NOT PUSH1 0x1F DUP3 ADD AND DUP3 ADD DUP1 PUSH1 0x40 MSTORE POP DUP2 ADD SWAP1 PUSH3 0x426 SWAP2 SWAP1 PUSH3 0xC0A JUMP JUMPDEST SWAP2 POP POP SWAP2 SWAP1 POP JUMP JUMPDEST PUSH1 0x60 PUSH1 0x0 DUP1 SLOAD DUP1 PUSH1 0x20 MUL PUSH1 0x20 ADD PUSH1 0x40 MLOAD SWAP1 DUP2 ADD PUSH1 0x40 MSTORE DUP1 SWAP3 SWAP2 SWAP1 DUP2 DUP2 MSTORE PUSH1 0x20 ADD DUP3 DUP1 SLOAD DUP1 ISZERO PUSH3 0x4B4 JUMPI PUSH1 0x20 MUL DUP3 ADD SWAP2 SWAP1 PUSH1 0x0 MSTORE PUSH1 0x20 PUSH1 0x0 KECCAK256 SWAP1 JUMPDEST DUP2 PUSH1 0x0 SWAP1 SLOAD SWAP1 PUSH2 0x100 EXP SWAP1 DIV PUSH20 0xFFFFFFFFFFFFFFFFFFFFFFFFFFFFFFFFFFFFFFFF AND PUSH20 0xFFFFFFFFFFFFFFFFFFFFFFFFFFFFFFFFFFFFFFFF AND DUP2 MSTORE PUSH1 0x20 ADD SWAP1 PUSH1 0x1 ADD SWAP1 DUP1 DUP4 GT PUSH3 0x469 JUMPI JUMPDEST POP POP POP POP POP SWAP1 POP SWAP1 JUMP JUMPDEST PUSH1 0x0 DUP2 SWAP1 POP DUP1 PUSH20 0xFFFFFFFFFFFFFFFFFFFFFFFFFFFFFFFFFFFFFFFF AND PUSH4 0x51CFF8D9 CALLER PUSH1 0x40 MLOAD DUP3 PUSH4 0xFFFFFFFF AND PUSH1 0xE0 SHL DUP2 MSTORE PUSH1 0x4 ADD PUSH3 0x4FE SWAP2 SWAP1 PUSH3 0x88E JUMP JUMPDEST PUSH1 0x0 PUSH1 0x40 MLOAD DUP1 DUP4 SUB DUP2 PUSH1 0x0 DUP8 DUP1 EXTCODESIZE ISZERO DUP1 ISZERO PUSH3 0x519 JUMPI PUSH1 0x0 DUP1 REVERT JUMPDEST POP GAS CALL ISZERO DUP1 ISZERO PUSH3 0x52E JUMPI RETURNDATASIZE PUSH1 0x0 DUP1 RETURNDATACOPY RETURNDATASIZE PUSH1 0x0 REVERT JUMPDEST POP POP POP POP POP POP JUMP JUMPDEST PUSH1 0x60 PUSH1 0x0 DUP3 SWAP1 POP DUP1 PUSH20 0xFFFFFFFFFFFFFFFFFFFFFFFFFFFFFFFFFFFFFFFF AND PUSH4 0xEAE3F764 PUSH1 0x40 MLOAD DUP2 PUSH4 0xFFFFFFFF AND PUSH1 0xE0 SHL DUP2 MSTORE PUSH1 0x4 ADD PUSH1 0x0 PUSH1 0x40 MLOAD DUP1 DUP4 SUB DUP2 DUP7 GAS STATICCALL ISZERO DUP1 ISZERO PUSH3 0x589 JUMPI RETURNDATASIZE PUSH1 0x0 DUP1 RETURNDATACOPY RETURNDATASIZE PUSH1 0x0 REVERT JUMPDEST POP POP POP POP PUSH1 0x40 MLOAD RETURNDATASIZE PUSH1 0x0 DUP3 RETURNDATACOPY RETURNDATASIZE PUSH1 0x1F NOT PUSH1 0x1F DUP3 ADD AND DUP3 ADD DUP1 PUSH1 0x40 MSTORE POP DUP2 ADD SWAP1 PUSH3 0x5B4 SWAP2 SWAP1 PUSH3 0xCBA JUMP JUMPDEST SWAP2 POP POP SWAP2 SWAP1 POP JUMP JUMPDEST PUSH2 0x1103 DUP1 PUSH3 0xD0C DUP4 CODECOPY ADD SWAP1 JUMP JUMPDEST PUSH1 0x0 PUSH1 0x40 MLOAD SWAP1 POP SWAP1 JUMP JUMPDEST PUSH1 0x0 DUP1 REVERT JUMPDEST PUSH1 0x0 DUP1 REVERT JUMPDEST PUSH1 0x0 DUP1 REVERT JUMPDEST PUSH1 0x0 DUP1 REVERT JUMPDEST PUSH1 0x0 PUSH1 0x1F NOT PUSH1 0x1F DUP4 ADD AND SWAP1 POP SWAP2 SWAP1 POP JUMP JUMPDEST PUSH32 0x4E487B7100000000000000000000000000000000000000000000000000000000 PUSH1 0x0 MSTORE PUSH1 0x41 PUSH1 0x4 MSTORE PUSH1 0x24 PUSH1 0x0 REVERT JUMPDEST PUSH3 0x633 DUP3 PUSH3 0x5E8 JUMP JUMPDEST DUP2 ADD DUP2 DUP2 LT PUSH8 0xFFFFFFFFFFFFFFFF DUP3 GT OR ISZERO PUSH3 0x655 JUMPI PUSH3 0x654 PUSH3 0x5F9 JUMP JUMPDEST JUMPDEST DUP1 PUSH1 0x40 MSTORE POP POP POP JUMP JUMPDEST PUSH1 0x0 PUSH3 0x66A PUSH3 0x5CA JUMP JUMPDEST SWAP1 POP PUSH3 0x678 DUP3 DUP3 PUSH3 0x628 JUMP JUMPDEST SWAP2 SWAP1 POP JUMP JUMPDEST PUSH1 0x0 PUSH8 0xFFFFFFFFFFFFFFFF DUP3 GT ISZERO PUSH3 0x69B JUMPI PUSH3 0x69A PUSH3 0x5F9 JUMP JUMPDEST JUMPDEST PUSH3 0x6A6 DUP3 PUSH3 0x5E8 JUMP JUMPDEST SWAP1 POP PUSH1 0x20 DUP2 ADD SWAP1 POP SWAP2 SWAP1 POP JUMP JUMPDEST DUP3 DUP2 DUP4 CALLDATACOPY PUSH1 0x0 DUP4 DUP4 ADD MSTORE POP POP POP JUMP JUMPDEST PUSH1 0x0 PUSH3 0x6D9 PUSH3 0x6D3 DUP5 PUSH3 0x67D JUMP JUMPDEST PUSH3 0x65E JUMP JUMPDEST SWAP1 POP DUP3 DUP2 MSTORE PUSH1 0x20 DUP2 ADD DUP5 DUP5 DUP5 ADD GT ISZERO PUSH3 0x6F8 JUMPI PUSH3 0x6F7 PUSH3 0x5E3 JUMP JUMPDEST JUMPDEST PUSH3 0x705 DUP5 DUP3 DUP6 PUSH3 0x6B3 JUMP JUMPDEST POP SWAP4 SWAP3 POP POP POP JUMP JUMPDEST PUSH1 0x0 DUP3 PUSH1 0x1F DUP4 ADD SLT PUSH3 0x725 JUMPI PUSH3 0x724 PUSH3 0x5DE JUMP JUMPDEST JUMPDEST DUP2 CALLDATALOAD PUSH3 0x737 DUP5 DUP3 PUSH1 0x20 DUP7 ADD PUSH3 0x6C2 JUMP JUMPDEST SWAP2 POP POP SWAP3 SWAP2 POP POP JUMP JUMPDEST PUSH1 0x0 DUP2 SWAP1 POP SWAP2 SWAP1 POP JUMP JUMPDEST PUSH3 0x755 DUP2 PUSH3 0x740 JUMP JUMPDEST DUP2 EQ PUSH3 0x761 JUMPI PUSH1 0x0 DUP1 REVERT JUMPDEST POP JUMP JUMPDEST PUSH1 0x0 DUP2 CALLDATALOAD SWAP1 POP PUSH3 0x775 DUP2 PUSH3 0x74A JUMP JUMPDEST SWAP3 SWAP2 POP POP JUMP JUMPDEST PUSH1 0x0 DUP2 ISZERO ISZERO SWAP1 POP SWAP2 SWAP1 POP JUMP JUMPDEST PUSH3 0x792 DUP2 PUSH3 0x77B JUMP JUMPDEST DUP2 EQ PUSH3 0x79E JUMPI PUSH1 0x0 DUP1 REVERT JUMPDEST POP JUMP JUMPDEST PUSH1 0x0 DUP2 CALLDATALOAD SWAP1 POP PUSH3 0x7B2 DUP2 PUSH3 0x787 JUMP JUMPDEST SWAP3 SWAP2 POP POP JUMP JUMPDEST PUSH1 0x0 DUP1 PUSH1 0x0 DUP1 PUSH1 0x80 DUP6 DUP8 SUB SLT ISZERO PUSH3 0x7D5 JUMPI PUSH3 0x7D4 PUSH3 0x5D4 JUMP JUMPDEST JUMPDEST PUSH1 0x0 DUP6 ADD CALLDATALOAD PUSH8 0xFFFFFFFFFFFFFFFF DUP2 GT ISZERO PUSH3 0x7F6 JUMPI PUSH3 0x7F5 PUSH3 0x5D9 JUMP JUMPDEST JUMPDEST PUSH3 0x804 DUP8 DUP3 DUP9 ADD PUSH3 0x70D JUMP JUMPDEST SWAP5 POP POP PUSH1 0x20 PUSH3 0x817 DUP8 DUP3 DUP9 ADD PUSH3 0x764 JUMP JUMPDEST SWAP4 POP POP PUSH1 0x40 PUSH3 0x82A DUP8 DUP3 DUP9 ADD PUSH3 0x7A1 JUMP JUMPDEST SWAP3 POP POP PUSH1 0x60 PUSH3 0x83D DUP8 DUP3 DUP9 ADD PUSH3 0x764 JUMP JUMPDEST SWAP2 POP POP SWAP3 SWAP6 SWAP2 SWAP5 POP SWAP3 POP JUMP JUMPDEST PUSH1 0x0 PUSH20 0xFFFFFFFFFFFFFFFFFFFFFFFFFFFFFFFFFFFFFFFF DUP3 AND SWAP1 POP SWAP2 SWAP1 POP JUMP JUMPDEST PUSH1 0x0 PUSH3 0x876 DUP3 PUSH3 0x849 JUMP JUMPDEST SWAP1 POP SWAP2 SWAP1 POP JUMP JUMPDEST PUSH3 0x888 DUP2 PUSH3 0x869 JUMP JUMPDEST DUP3 MSTORE POP POP JUMP JUMPDEST PUSH1 0x0 PUSH1 0x20 DUP3 ADD SWAP1 POP PUSH3 0x8A5 PUSH1 0x0 DUP4 ADD DUP5 PUSH3 0x87D JUMP JUMPDEST SWAP3 SWAP2 POP POP JUMP JUMPDEST PUSH3 0x8B6 DUP2 PUSH3 0x869 JUMP JUMPDEST DUP2 EQ PUSH3 0x8C2 JUMPI PUSH1 0x0 DUP1 REVERT JUMPDEST POP JUMP JUMPDEST PUSH1 0x0 DUP2 CALLDATALOAD SWAP1 POP PUSH3 0x8D6 DUP2 PUSH3 0x8AB JUMP JUMPDEST SWAP3 SWAP2 POP POP JUMP JUMPDEST PUSH1 0x0 PUSH1 0x20 DUP3 DUP5 SUB SLT ISZERO PUSH3 0x8F5 JUMPI PUSH3 0x8F4 PUSH3 0x5D4 JUMP JUMPDEST JUMPDEST PUSH1 0x0 PUSH3 0x905 DUP5 DUP3 DUP6 ADD PUSH3 0x8C5 JUMP JUMPDEST SWAP2 POP POP SWAP3 SWAP2 POP POP JUMP JUMPDEST PUSH3 0x919 DUP2 PUSH3 0x740 JUMP JUMPDEST DUP3 MSTORE POP POP JUMP JUMPDEST PUSH1 0x0 PUSH1 0x20 DUP3 ADD SWAP1 POP PUSH3 0x936 PUSH1 0x0 DUP4 ADD DUP5 PUSH3 0x90E JUMP JUMPDEST SWAP3 SWAP2 POP POP JUMP JUMPDEST PUSH1 0x0 DUP2 MLOAD SWAP1 POP SWAP2 SWAP1 POP JUMP JUMPDEST PUSH1 0x0 DUP3 DUP3 MSTORE PUSH1 0x20 DUP3 ADD SWAP1 POP SWAP3 SWAP2 POP POP JUMP JUMPDEST PUSH1 0x0 DUP2 SWAP1 POP PUSH1 0x20 DUP3 ADD SWAP1 POP SWAP2 SWAP1 POP JUMP JUMPDEST PUSH1 0x0 DUP2 SWAP1 POP SWAP2 SWAP1 POP JUMP JUMPDEST PUSH1 0x0 PUSH3 0x993 PUSH3 0x98D PUSH3 0x987 DUP5 PUSH3 0x849 JUMP JUMPDEST PUSH3 0x968 JUMP JUMPDEST PUSH3 0x849 JUMP JUMPDEST SWAP1 POP SWAP2 SWAP1 POP JUMP JUMPDEST PUSH1 0x0 PUSH3 0x9A7 DUP3 PUSH3 0x972 JUMP JUMPDEST SWAP1 POP SWAP2 SWAP1 POP JUMP JUMPDEST PUSH1 0x0 PUSH3 0x9BB DUP3 PUSH3 0x99A JUMP JUMPDEST SWAP1 POP SWAP2 SWAP1 POP JUMP JUMPDEST PUSH3 0x9CD DUP2 PUSH3 0x9AE JUMP JUMPDEST DUP3 MSTORE POP POP JUMP JUMPDEST PUSH1 0x0 PUSH3 0x9E1 DUP4 DUP4 PUSH3 0x9C2 JUMP JUMPDEST PUSH1 0x20 DUP4 ADD SWAP1 POP SWAP3 SWAP2 POP POP JUMP JUMPDEST PUSH1 0x0 PUSH1 0x20 DUP3 ADD SWAP1 POP SWAP2 SWAP1 POP JUMP JUMPDEST PUSH1 0x0 PUSH3 0xA07 DUP3 PUSH3 0x93C JUMP JUMPDEST PUSH3 0xA13 DUP2 DUP6 PUSH3 0x947 JUMP JUMPDEST SWAP4 POP PUSH3 0xA20 DUP4 PUSH3 0x958 JUMP JUMPDEST DUP1 PUSH1 0x0 JUMPDEST DUP4 DUP2 LT ISZERO PUSH3 0xA57 JUMPI DUP2 MLOAD PUSH3 0xA3B DUP9 DUP3 PUSH3 0x9D3 JUMP JUMPDEST SWAP8 POP PUSH3 0xA48 DUP4 PUSH3 0x9ED JUMP JUMPDEST SWAP3 POP POP PUSH1 0x1 DUP2 ADD SWAP1 POP PUSH3 0xA24 JUMP JUMPDEST POP DUP6 SWAP4 POP POP POP POP SWAP3 SWAP2 POP POP JUMP JUMPDEST PUSH1 0x0 PUSH1 0x20 DUP3 ADD SWAP1 POP DUP2 DUP2 SUB PUSH1 0x0 DUP4 ADD MSTORE PUSH3 0xA80 DUP2 DUP5 PUSH3 0x9FA JUMP JUMPDEST SWAP1 POP SWAP3 SWAP2 POP POP JUMP JUMPDEST PUSH1 0x0 DUP2 MLOAD SWAP1 POP SWAP2 SWAP1 POP JUMP JUMPDEST PUSH1 0x0 DUP3 DUP3 MSTORE PUSH1 0x20 DUP3 ADD SWAP1 POP SWAP3 SWAP2 POP POP JUMP JUMPDEST PUSH1 0x0 JUMPDEST DUP4 DUP2 LT ISZERO PUSH3 0xAC4 JUMPI DUP1 DUP3 ADD MLOAD DUP2 DUP5 ADD MSTORE PUSH1 0x20 DUP2 ADD SWAP1 POP PUSH3 0xAA7 JUMP JUMPDEST PUSH1 0x0 DUP5 DUP5 ADD MSTORE POP POP POP POP JUMP JUMPDEST PUSH1 0x0 PUSH3 0xADD DUP3 PUSH3 0xA88 JUMP JUMPDEST PUSH3 0xAE9 DUP2 DUP6 PUSH3 0xA93 JUMP JUMPDEST SWAP4 POP PUSH3 0xAFB DUP2 DUP6 PUSH1 0x20 DUP7 ADD PUSH3 0xAA4 JUMP JUMPDEST PUSH3 0xB06 DUP2 PUSH3 0x5E8 JUMP JUMPDEST DUP5 ADD SWAP2 POP POP SWAP3 SWAP2 POP POP JUMP JUMPDEST PUSH1 0x0 PUSH1 0x20 DUP3 ADD SWAP1 POP DUP2 DUP2 SUB PUSH1 0x0 DUP4 ADD MSTORE PUSH3 0xB2D DUP2 DUP5 PUSH3 0xAD0 JUMP JUMPDEST SWAP1 POP SWAP3 SWAP2 POP POP JUMP JUMPDEST PUSH3 0xB40 DUP2 PUSH3 0x77B JUMP JUMPDEST DUP3 MSTORE POP POP JUMP JUMPDEST PUSH1 0x0 PUSH1 0xA0 DUP3 ADD SWAP1 POP DUP2 DUP2 SUB PUSH1 0x0 DUP4 ADD MSTORE PUSH3 0xB62 DUP2 DUP9 PUSH3 0xAD0 JUMP JUMPDEST SWAP1 POP PUSH3 0xB73 PUSH1 0x20 DUP4 ADD DUP8 PUSH3 0x90E JUMP JUMPDEST PUSH3 0xB82 PUSH1 0x40 DUP4 ADD DUP7 PUSH3 0xB35 JUMP JUMPDEST PUSH3 0xB91 PUSH1 0x60 DUP4 ADD DUP6 PUSH3 0x90E JUMP JUMPDEST PUSH3 0xBA0 PUSH1 0x80 DUP4 ADD DUP5 PUSH3 0x87D JUMP JUMPDEST SWAP7 SWAP6 POP POP POP POP POP POP JUMP JUMPDEST PUSH1 0x0 DUP2 MLOAD SWAP1 POP PUSH3 0xBBB DUP2 PUSH3 0x74A JUMP JUMPDEST SWAP3 SWAP2 POP POP JUMP JUMPDEST PUSH1 0x0 PUSH1 0x20 DUP3 DUP5 SUB SLT ISZERO PUSH3 0xBDA JUMPI PUSH3 0xBD9 PUSH3 0x5D4 JUMP JUMPDEST JUMPDEST PUSH1 0x0 PUSH3 0xBEA DUP5 DUP3 DUP6 ADD PUSH3 0xBAA JUMP JUMPDEST SWAP2 POP POP SWAP3 SWAP2 POP POP JUMP JUMPDEST PUSH1 0x0 DUP2 MLOAD SWAP1 POP PUSH3 0xC04 DUP2 PUSH3 0x8AB JUMP JUMPDEST SWAP3 SWAP2 POP POP JUMP JUMPDEST PUSH1 0x0 PUSH1 0x20 DUP3 DUP5 SUB SLT ISZERO PUSH3 0xC23 JUMPI PUSH3 0xC22 PUSH3 0x5D4 JUMP JUMPDEST JUMPDEST PUSH1 0x0 PUSH3 0xC33 DUP5 DUP3 DUP6 ADD PUSH3 0xBF3 JUMP JUMPDEST SWAP2 POP POP SWAP3 SWAP2 POP POP JUMP JUMPDEST PUSH1 0x0 PUSH3 0xC53 PUSH3 0xC4D DUP5 PUSH3 0x67D JUMP JUMPDEST PUSH3 0x65E JUMP JUMPDEST SWAP1 POP DUP3 DUP2 MSTORE PUSH1 0x20 DUP2 ADD DUP5 DUP5 DUP5 ADD GT ISZERO PUSH3 0xC72 JUMPI PUSH3 0xC71 PUSH3 0x5E3 JUMP JUMPDEST JUMPDEST PUSH3 0xC7F DUP5 DUP3 DUP6 PUSH3 0xAA4 JUMP JUMPDEST POP SWAP4 SWAP3 POP POP POP JUMP JUMPDEST PUSH1 0x0 DUP3 PUSH1 0x1F DUP4 ADD SLT PUSH3 0xC9F JUMPI PUSH3 0xC9E PUSH3 0x5DE JUMP JUMPDEST JUMPDEST DUP2 MLOAD PUSH3 0xCB1 DUP5 DUP3 PUSH1 0x20 DUP7 ADD PUSH3 0xC3C JUMP JUMPDEST SWAP2 POP POP SWAP3 SWAP2 POP POP JUMP JUMPDEST PUSH1 0x0 PUSH1 0x20 DUP3 DUP5 SUB SLT ISZERO PUSH3 0xCD3 JUMPI PUSH3 0xCD2 PUSH3 0x5D4 JUMP JUMPDEST JUMPDEST PUSH1 0x0 DUP3 ADD MLOAD PUSH8 0xFFFFFFFFFFFFFFFF DUP2 GT ISZERO PUSH3 0xCF4 JUMPI PUSH3 0xCF3 PUSH3 0x5D9 JUMP JUMPDEST JUMPDEST PUSH3 0xD02 DUP5 DUP3 DUP6 ADD PUSH3 0xC87 JUMP JUMPDEST SWAP2 POP POP SWAP3 SWAP2 POP POP JUMP INVALID PUSH1 0x80 PUSH1 0x40 MSTORE CALLVALUE DUP1 ISZERO PUSH3 0x11 JUMPI PUSH1 0x0 DUP1 REVERT JUMPDEST POP PUSH1 0x40 MLOAD PUSH3 0x1103 CODESIZE SUB DUP1 PUSH3 0x1103 DUP4 CODECOPY DUP2 DUP2 ADD PUSH1 0x40 MSTORE DUP2 ADD SWAP1 PUSH3 0x37 SWAP2 SWAP1 PUSH3 0x32D JUMP JUMPDEST DUP5 PUSH1 0x0 SWAP1 DUP2 PUSH3 0x48 SWAP2 SWAP1 PUSH3 0x615 JUMP JUMPDEST POP DUP4 PUSH1 0x1 DUP2 SWAP1 SSTORE POP DUP3 PUSH1 0x3 PUSH1 0x0 PUSH2 0x100 EXP DUP2 SLOAD DUP2 PUSH1 0xFF MUL NOT AND SWAP1 DUP4 ISZERO ISZERO MUL OR SWAP1 SSTORE POP DUP2 PUSH1 0x2 DUP2 SWAP1 SSTORE POP DUP1 PUSH1 0x3 PUSH1 0x1 PUSH2 0x100 EXP DUP2 SLOAD DUP2 PUSH20 0xFFFFFFFFFFFFFFFFFFFFFFFFFFFFFFFFFFFFFFFF MUL NOT AND SWAP1 DUP4 PUSH20 0xFFFFFFFFFFFFFFFFFFFFFFFFFFFFFFFFFFFFFFFF AND MUL OR SWAP1 SSTORE POP POP POP POP POP POP PUSH3 0x6FC JUMP JUMPDEST PUSH1 0x0 PUSH1 0x40 MLOAD SWAP1 POP SWAP1 JUMP JUMPDEST PUSH1 0x0 DUP1 REVERT JUMPDEST PUSH1 0x0 DUP1 REVERT JUMPDEST PUSH1 0x0 DUP1 REVERT JUMPDEST PUSH1 0x0 DUP1 REVERT JUMPDEST PUSH1 0x0 PUSH1 0x1F NOT PUSH1 0x1F DUP4 ADD AND SWAP1 POP SWAP2 SWAP1 POP JUMP JUMPDEST PUSH32 0x4E487B7100000000000000000000000000000000000000000000000000000000 PUSH1 0x0 MSTORE PUSH1 0x41 PUSH1 0x4 MSTORE PUSH1 0x24 PUSH1 0x0 REVERT JUMPDEST PUSH3 0x126 DUP3 PUSH3 0xDB JUMP JUMPDEST DUP2 ADD DUP2 DUP2 LT PUSH8 0xFFFFFFFFFFFFFFFF DUP3 GT OR ISZERO PUSH3 0x148 JUMPI PUSH3 0x147 PUSH3 0xEC JUMP JUMPDEST JUMPDEST DUP1 PUSH1 0x40 MSTORE POP POP POP JUMP JUMPDEST PUSH1 0x0 PUSH3 0x15D PUSH3 0xBD JUMP JUMPDEST SWAP1 POP PUSH3 0x16B DUP3 DUP3 PUSH3 0x11B JUMP JUMPDEST SWAP2 SWAP1 POP JUMP JUMPDEST PUSH1 0x0 PUSH8 0xFFFFFFFFFFFFFFFF DUP3 GT ISZERO PUSH3 0x18E JUMPI PUSH3 0x18D PUSH3 0xEC JUMP JUMPDEST JUMPDEST PUSH3 0x199 DUP3 PUSH3 0xDB JUMP JUMPDEST SWAP1 POP PUSH1 0x20 DUP2 ADD SWAP1 POP SWAP2 SWAP1 POP JUMP JUMPDEST PUSH1 0x0 JUMPDEST DUP4 DUP2 LT ISZERO PUSH3 0x1C6 JUMPI DUP1 DUP3 ADD MLOAD DUP2 DUP5 ADD MSTORE PUSH1 0x20 DUP2 ADD SWAP1 POP PUSH3 0x1A9 JUMP JUMPDEST PUSH1 0x0 DUP5 DUP5 ADD MSTORE POP POP POP POP JUMP JUMPDEST PUSH1 0x0 PUSH3 0x1E9 PUSH3 0x1E3 DUP5 PUSH3 0x170 JUMP JUMPDEST PUSH3 0x151 JUMP JUMPDEST SWAP1 POP DUP3 DUP2 MSTORE PUSH1 0x20 DUP2 ADD DUP5 DUP5 DUP5 ADD GT ISZERO PUSH3 0x208 JUMPI PUSH3 0x207 PUSH3 0xD6 JUMP JUMPDEST JUMPDEST PUSH3 0x215 DUP5 DUP3 DUP6 PUSH3 0x1A6 JUMP JUMPDEST POP SWAP4 SWAP3 POP POP POP JUMP JUMPDEST PUSH1 0x0 DUP3 PUSH1 0x1F DUP4 ADD SLT PUSH3 0x235 JUMPI PUSH3 0x234 PUSH3 0xD1 JUMP JUMPDEST JUMPDEST DUP2 MLOAD PUSH3 0x247 DUP5 DUP3 PUSH1 0x20 DUP7 ADD PUSH3 0x1D2 JUMP JUMPDEST SWAP2 POP POP SWAP3 SWAP2 POP POP JUMP JUMPDEST PUSH1 0x0 DUP2 SWAP1 POP SWAP2 SWAP1 POP JUMP JUMPDEST PUSH3 0x265 DUP2 PUSH3 0x250 JUMP JUMPDEST DUP2 EQ PUSH3 0x271 JUMPI PUSH1 0x0 DUP1 REVERT JUMPDEST POP JUMP JUMPDEST PUSH1 0x0 DUP2 MLOAD SWAP1 POP PUSH3 0x285 DUP2 PUSH3 0x25A JUMP JUMPDEST SWAP3 SWAP2 POP POP JUMP JUMPDEST PUSH1 0x0 DUP2 ISZERO ISZERO SWAP1 POP SWAP2 SWAP1 POP JUMP JUMPDEST PUSH3 0x2A2 DUP2 PUSH3 0x28B JUMP JUMPDEST DUP2 EQ PUSH3 0x2AE JUMPI PUSH1 0x0 DUP1 REVERT JUMPDEST POP JUMP JUMPDEST PUSH1 0x0 DUP2 MLOAD SWAP1 POP PUSH3 0x2C2 DUP2 PUSH3 0x297 JUMP JUMPDEST SWAP3 SWAP2 POP POP JUMP JUMPDEST PUSH1 0x0 PUSH20 0xFFFFFFFFFFFFFFFFFFFFFFFFFFFFFFFFFFFFFFFF DUP3 AND SWAP1 POP SWAP2 SWAP1 POP JUMP JUMPDEST PUSH1 0x0 PUSH3 0x2F5 DUP3 PUSH3 0x2C8 JUMP JUMPDEST SWAP1 POP SWAP2 SWAP1 POP JUMP JUMPDEST PUSH3 0x307 DUP2 PUSH3 0x2E8 JUMP JUMPDEST DUP2 EQ PUSH3 0x313 JUMPI PUSH1 0x0 DUP1 REVERT JUMPDEST POP JUMP JUMPDEST PUSH1 0x0 DUP2 MLOAD SWAP1 POP PUSH3 0x327 DUP2 PUSH3 0x2FC JUMP JUMPDEST SWAP3 SWAP2 POP POP JUMP JUMPDEST PUSH1 0x0 DUP1 PUSH1 0x0 DUP1 PUSH1 0x0 PUSH1 0xA0 DUP7 DUP9 SUB SLT ISZERO PUSH3 0x34C JUMPI PUSH3 0x34B PUSH3 0xC7 JUMP JUMPDEST JUMPDEST PUSH1 0x0 DUP7 ADD MLOAD PUSH8 0xFFFFFFFFFFFFFFFF DUP2 GT ISZERO PUSH3 0x36D JUMPI PUSH3 0x36C PUSH3 0xCC JUMP JUMPDEST JUMPDEST PUSH3 0x37B DUP9 DUP3 DUP10 ADD PUSH3 0x21D JUMP JUMPDEST SWAP6 POP POP PUSH1 0x20 PUSH3 0x38E DUP9 DUP3 DUP10 ADD PUSH3 0x274 JUMP JUMPDEST SWAP5 POP POP PUSH1 0x40 PUSH3 0x3A1 DUP9 DUP3 DUP10 ADD PUSH3 0x2B1 JUMP JUMPDEST SWAP4 POP POP PUSH1 0x60 PUSH3 0x3B4 DUP9 DUP3 DUP10 ADD PUSH3 0x274 JUMP JUMPDEST SWAP3 POP POP PUSH1 0x80 PUSH3 0x3C7 DUP9 DUP3 DUP10 ADD PUSH3 0x316 JUMP JUMPDEST SWAP2 POP POP SWAP3 SWAP6 POP SWAP3 SWAP6 SWAP1 SWAP4 POP JUMP JUMPDEST PUSH1 0x0 DUP2 MLOAD SWAP1 POP SWAP2 SWAP1 POP JUMP JUMPDEST PUSH32 0x4E487B7100000000000000000000000000000000000000000000000000000000 PUSH1 0x0 MSTORE PUSH1 0x22 PUSH1 0x4 MSTORE PUSH1 0x24 PUSH1 0x0 REVERT JUMPDEST PUSH1 0x0 PUSH1 0x2 DUP3 DIV SWAP1 POP PUSH1 0x1 DUP3 AND DUP1 PUSH3 0x427 JUMPI PUSH1 0x7F DUP3 AND SWAP2 POP JUMPDEST PUSH1 0x20 DUP3 LT DUP2 SUB PUSH3 0x43D JUMPI PUSH3 0x43C PUSH3 0x3DF JUMP JUMPDEST JUMPDEST POP SWAP2 SWAP1 POP JUMP JUMPDEST PUSH1 0x0 DUP2 SWAP1 POP DUP2 PUSH1 0x0 MSTORE PUSH1 0x20 PUSH1 0x0 KECCAK256 SWAP1 POP SWAP2 SWAP1 POP JUMP JUMPDEST PUSH1 0x0 PUSH1 0x20 PUSH1 0x1F DUP4 ADD DIV SWAP1 POP SWAP2 SWAP1 POP JUMP JUMPDEST PUSH1 0x0 DUP3 DUP3 SHL SWAP1 POP SWAP3 SWAP2 POP POP JUMP JUMPDEST PUSH1 0x0 PUSH1 0x8 DUP4 MUL PUSH3 0x4A7 PUSH32 0xFFFFFFFFFFFFFFFFFFFFFFFFFFFFFFFFFFFFFFFFFFFFFFFFFFFFFFFFFFFFFFFF DUP3 PUSH3 0x468 JUMP JUMPDEST PUSH3 0x4B3 DUP7 DUP4 PUSH3 0x468 JUMP JUMPDEST SWAP6 POP DUP1 NOT DUP5 AND SWAP4 POP DUP1 DUP7 AND DUP5 OR SWAP3 POP POP POP SWAP4 SWAP3 POP POP POP JUMP JUMPDEST PUSH1 0x0 DUP2 SWAP1 POP SWAP2 SWAP1 POP JUMP JUMPDEST PUSH1 0x0 PUSH3 0x4F6 PUSH3 0x4F0 PUSH3 0x4EA DUP5 PUSH3 0x250 JUMP JUMPDEST PUSH3 0x4CB JUMP JUMPDEST PUSH3 0x250 JUMP JUMPDEST SWAP1 POP SWAP2 SWAP1 POP JUMP JUMPDEST PUSH1 0x0 DUP2 SWAP1 POP SWAP2 SWAP1 POP JUMP JUMPDEST PUSH3 0x512 DUP4 PUSH3 0x4D5 JUMP JUMPDEST PUSH3 0x52A PUSH3 0x521 DUP3 PUSH3 0x4FD JUMP JUMPDEST DUP5 DUP5 SLOAD PUSH3 0x475 JUMP JUMPDEST DUP3 SSTORE POP POP POP POP JUMP JUMPDEST PUSH1 0x0 SWAP1 JUMP JUMPDEST PUSH3 0x541 PUSH3 0x532 JUMP JUMPDEST PUSH3 0x54E DUP2 DUP5 DUP5 PUSH3 0x507 JUMP JUMPDEST POP POP POP JUMP JUMPDEST JUMPDEST DUP2 DUP2 LT ISZERO PUSH3 0x576 JUMPI PUSH3 0x56A PUSH1 0x0 DUP3 PUSH3 0x537 JUMP JUMPDEST PUSH1 0x1 DUP2 ADD SWAP1 POP PUSH3 0x554 JUMP JUMPDEST POP POP JUMP JUMPDEST PUSH1 0x1F DUP3 GT ISZERO PUSH3 0x5C5 JUMPI PUSH3 0x58F DUP2 PUSH3 0x443 JUMP JUMPDEST PUSH3 0x59A DUP5 PUSH3 0x458 JUMP JUMPDEST DUP2 ADD PUSH1 0x20 DUP6 LT ISZERO PUSH3 0x5AA JUMPI DUP2 SWAP1 POP JUMPDEST PUSH3 0x5C2 PUSH3 0x5B9 DUP6 PUSH3 0x458 JUMP JUMPDEST DUP4 ADD DUP3 PUSH3 0x553 JUMP JUMPDEST POP POP JUMPDEST POP POP POP JUMP JUMPDEST PUSH1 0x0 DUP3 DUP3 SHR SWAP1 POP SWAP3 SWAP2 POP POP JUMP JUMPDEST PUSH1 0x0 PUSH3 0x5EA PUSH1 0x0 NOT DUP5 PUSH1 0x8 MUL PUSH3 0x5CA JUMP JUMPDEST NOT DUP1 DUP4 AND SWAP2 POP POP SWAP3 SWAP2 POP POP JUMP JUMPDEST PUSH1 0x0 PUSH3 0x605 DUP4 DUP4 PUSH3 0x5D7 JUMP JUMPDEST SWAP2 POP DUP3 PUSH1 0x2 MUL DUP3 OR SWAP1 POP SWAP3 SWAP2 POP POP JUMP JUMPDEST PUSH3 0x620 DUP3 PUSH3 0x3D4 JUMP JUMPDEST PUSH8 0xFFFFFFFFFFFFFFFF DUP2 GT ISZERO PUSH3 0x63C JUMPI PUSH3 0x63B PUSH3 0xEC JUMP JUMPDEST JUMPDEST PUSH3 0x648 DUP3 SLOAD PUSH3 0x40E JUMP JUMPDEST PUSH3 0x655 DUP3 DUP3 DUP6 PUSH3 0x57A JUMP JUMPDEST PUSH1 0x0 PUSH1 0x20 SWAP1 POP PUSH1 0x1F DUP4 GT PUSH1 0x1 DUP2 EQ PUSH3 0x68D JUMPI PUSH1 0x0 DUP5 ISZERO PUSH3 0x678 JUMPI DUP3 DUP8 ADD MLOAD SWAP1 POP JUMPDEST PUSH3 0x684 DUP6 DUP3 PUSH3 0x5F7 JUMP JUMPDEST DUP7 SSTORE POP PUSH3 0x6F4 JUMP JUMPDEST PUSH1 0x1F NOT DUP5 AND PUSH3 0x69D DUP7 PUSH3 0x443 JUMP JUMPDEST PUSH1 0x0 JUMPDEST DUP3 DUP2 LT ISZERO PUSH3 0x6C7 JUMPI DUP5 DUP10 ADD MLOAD DUP3 SSTORE PUSH1 0x1 DUP3 ADD SWAP2 POP PUSH1 0x20 DUP6 ADD SWAP5 POP PUSH1 0x20 DUP2 ADD SWAP1 POP PUSH3 0x6A0 JUMP JUMPDEST DUP7 DUP4 LT ISZERO PUSH3 0x6E7 JUMPI DUP5 DUP10 ADD MLOAD PUSH3 0x6E3 PUSH1 0x1F DUP10 AND DUP3 PUSH3 0x5D7 JUMP JUMPDEST DUP4 SSTORE POP JUMPDEST PUSH1 0x1 PUSH1 0x2 DUP9 MUL ADD DUP9 SSTORE POP POP POP JUMPDEST POP POP POP POP POP POP JUMP JUMPDEST PUSH2 0x9F7 DUP1 PUSH3 0x70C PUSH1 0x0 CODECOPY PUSH1 0x0 RETURN INVALID PUSH1 0x80 PUSH1 0x40 MSTORE PUSH1 0x4 CALLDATASIZE LT PUSH2 0x86 JUMPI PUSH1 0x0 CALLDATALOAD PUSH1 0xE0 SHR DUP1 PUSH4 0x893D20E8 GT PUSH2 0x59 JUMPI DUP1 PUSH4 0x893D20E8 EQ PUSH2 0x135 JUMPI DUP1 PUSH4 0xB383BF2D EQ PUSH2 0x160 JUMPI DUP1 PUSH4 0xEAE3F764 EQ PUSH2 0x18B JUMPI DUP1 PUSH4 0xED11F46A EQ PUSH2 0x1B6 JUMPI DUP1 PUSH4 0xED88C68E EQ PUSH2 0x1E1 JUMPI PUSH2 0x86 JUMP JUMPDEST DUP1 PUSH4 0x354ECC85 EQ PUSH2 0x8B JUMPI DUP1 PUSH4 0x51CFF8D9 EQ PUSH2 0xB6 JUMPI DUP1 PUSH4 0x798BE230 EQ PUSH2 0xDF JUMPI DUP1 PUSH4 0x80FDEF1B EQ PUSH2 0x10A JUMPI JUMPDEST PUSH1 0x0 DUP1 REVERT JUMPDEST CALLVALUE DUP1 ISZERO PUSH2 0x97 JUMPI PUSH1 0x0 DUP1 REVERT JUMPDEST POP PUSH2 0xA0 PUSH2 0x1EB JUMP JUMPDEST PUSH1 0x40 MLOAD PUSH2 0xAD SWAP2 SWAP1 PUSH2 0x5BC JUMP JUMPDEST PUSH1 0x40 MLOAD DUP1 SWAP2 SUB SWAP1 RETURN JUMPDEST CALLVALUE DUP1 ISZERO PUSH2 0xC2 JUMPI PUSH1 0x0 DUP1 REVERT JUMPDEST POP PUSH2 0xDD PUSH1 0x4 DUP1 CALLDATASIZE SUB DUP2 ADD SWAP1 PUSH2 0xD8 SWAP2 SWAP1 PUSH2 0x641 JUMP JUMPDEST PUSH2 0x279 JUMP JUMPDEST STOP JUMPDEST CALLVALUE DUP1 ISZERO PUSH2 0xEB JUMPI PUSH1 0x0 DUP1 REVERT JUMPDEST POP PUSH2 0xF4 PUSH2 0x397 JUMP JUMPDEST PUSH1 0x40 MLOAD PUSH2 0x101 SWAP2 SWAP1 PUSH2 0x689 JUMP JUMPDEST PUSH1 0x40 MLOAD DUP1 SWAP2 SUB SWAP1 RETURN JUMPDEST CALLVALUE DUP1 ISZERO PUSH2 0x116 JUMPI PUSH1 0x0 DUP1 REVERT JUMPDEST POP PUSH2 0x11F PUSH2 0x3AA JUMP JUMPDEST PUSH1 0x40 MLOAD PUSH2 0x12C SWAP2 SWAP1 PUSH2 0x6BD JUMP JUMPDEST PUSH1 0x40 MLOAD DUP1 SWAP2 SUB SWAP1 RETURN JUMPDEST CALLVALUE DUP1 ISZERO PUSH2 0x141 JUMPI PUSH1 0x0 DUP1 REVERT JUMPDEST POP PUSH2 0x14A PUSH2 0x3B0 JUMP JUMPDEST PUSH1 0x40 MLOAD PUSH2 0x157 SWAP2 SWAP1 PUSH2 0x6E7 JUMP JUMPDEST PUSH1 0x40 MLOAD DUP1 SWAP2 SUB SWAP1 RETURN JUMPDEST CALLVALUE DUP1 ISZERO PUSH2 0x16C JUMPI PUSH1 0x0 DUP1 REVERT JUMPDEST POP PUSH2 0x175 PUSH2 0x3DA JUMP JUMPDEST PUSH1 0x40 MLOAD PUSH2 0x182 SWAP2 SWAP1 PUSH2 0x6BD JUMP JUMPDEST PUSH1 0x40 MLOAD DUP1 SWAP2 SUB SWAP1 RETURN JUMPDEST CALLVALUE DUP1 ISZERO PUSH2 0x197 JUMPI PUSH1 0x0 DUP1 REVERT JUMPDEST POP PUSH2 0x1A0 PUSH2 0x3E0 JUMP JUMPDEST PUSH1 0x40 MLOAD PUSH2 0x1AD SWAP2 SWAP1 PUSH2 0x5BC JUMP JUMPDEST PUSH1 0x40 MLOAD DUP1 SWAP2 SUB SWAP1 RETURN JUMPDEST CALLVALUE DUP1 ISZERO PUSH2 0x1C2 JUMPI PUSH1 0x0 DUP1 REVERT JUMPDEST POP PUSH2 0x1CB PUSH2 0x472 JUMP JUMPDEST PUSH1 0x40 MLOAD PUSH2 0x1D8 SWAP2 SWAP1 PUSH2 0x6BD JUMP JUMPDEST PUSH1 0x40 MLOAD DUP1 SWAP2 SUB SWAP1 RETURN JUMPDEST PUSH2 0x1E9 PUSH2 0x47A JUMP JUMPDEST STOP JUMPDEST PUSH1 0x0 DUP1 SLOAD PUSH2 0x1F8 SWAP1 PUSH2 0x731 JUMP JUMPDEST DUP1 PUSH1 0x1F ADD PUSH1 0x20 DUP1 SWAP2 DIV MUL PUSH1 0x20 ADD PUSH1 0x40 MLOAD SWAP1 DUP2 ADD PUSH1 0x40 MSTORE DUP1 SWAP3 SWAP2 SWAP1 DUP2 DUP2 MSTORE PUSH1 0x20 ADD DUP3 DUP1 SLOAD PUSH2 0x224 SWAP1 PUSH2 0x731 JUMP JUMPDEST DUP1 ISZERO PUSH2 0x271 JUMPI DUP1 PUSH1 0x1F LT PUSH2 0x246 JUMPI PUSH2 0x100 DUP1 DUP4 SLOAD DIV MUL DUP4 MSTORE SWAP2 PUSH1 0x20 ADD SWAP2 PUSH2 0x271 JUMP JUMPDEST DUP3 ADD SWAP2 SWAP1 PUSH1 0x0 MSTORE PUSH1 0x20 PUSH1 0x0 KECCAK256 SWAP1 JUMPDEST DUP2 SLOAD DUP2 MSTORE SWAP1 PUSH1 0x1 ADD SWAP1 PUSH1 0x20 ADD DUP1 DUP4 GT PUSH2 0x254 JUMPI DUP3 SWAP1 SUB PUSH1 0x1F AND DUP3 ADD SWAP2 JUMPDEST POP POP POP POP POP DUP2 JUMP JUMPDEST DUP1 PUSH20 0xFFFFFFFFFFFFFFFFFFFFFFFFFFFFFFFFFFFFFFFF AND PUSH1 0x3 PUSH1 0x1 SWAP1 SLOAD SWAP1 PUSH2 0x100 EXP SWAP1 DIV PUSH20 0xFFFFFFFFFFFFFFFFFFFFFFFFFFFFFFFFFFFFFFFF AND PUSH20 0xFFFFFFFFFFFFFFFFFFFFFFFFFFFFFFFFFFFFFFFF AND EQ PUSH2 0x309 JUMPI PUSH1 0x40 MLOAD PUSH32 0x8C379A000000000000000000000000000000000000000000000000000000000 DUP2 MSTORE PUSH1 0x4 ADD PUSH2 0x300 SWAP1 PUSH2 0x7D4 JUMP JUMPDEST PUSH1 0x40 MLOAD DUP1 SWAP2 SUB SWAP1 REVERT JUMPDEST PUSH1 0x3 PUSH1 0x1 SWAP1 SLOAD SWAP1 PUSH2 0x100 EXP SWAP1 DIV PUSH20 0xFFFFFFFFFFFFFFFFFFFFFFFFFFFFFFFFFFFFFFFF AND PUSH20 0xFFFFFFFFFFFFFFFFFFFFFFFFFFFFFFFFFFFFFFFF AND SELFBALANCE PUSH1 0x40 MLOAD PUSH2 0x34F SWAP1 PUSH2 0x825 JUMP JUMPDEST PUSH1 0x0 PUSH1 0x40 MLOAD DUP1 DUP4 SUB DUP2 DUP6 DUP8 GAS CALL SWAP3 POP POP POP RETURNDATASIZE DUP1 PUSH1 0x0 DUP2 EQ PUSH2 0x38C JUMPI PUSH1 0x40 MLOAD SWAP2 POP PUSH1 0x1F NOT PUSH1 0x3F RETURNDATASIZE ADD AND DUP3 ADD PUSH1 0x40 MSTORE RETURNDATASIZE DUP3 MSTORE RETURNDATASIZE PUSH1 0x0 PUSH1 0x20 DUP5 ADD RETURNDATACOPY PUSH2 0x391 JUMP JUMPDEST PUSH1 0x60 SWAP2 POP JUMPDEST POP POP POP POP JUMP JUMPDEST PUSH1 0x3 PUSH1 0x0 SWAP1 SLOAD SWAP1 PUSH2 0x100 EXP SWAP1 DIV PUSH1 0xFF AND DUP2 JUMP JUMPDEST PUSH1 0x2 SLOAD DUP2 JUMP JUMPDEST PUSH1 0x0 PUSH1 0x3 PUSH1 0x1 SWAP1 SLOAD SWAP1 PUSH2 0x100 EXP SWAP1 DIV PUSH20 0xFFFFFFFFFFFFFFFFFFFFFFFFFFFFFFFFFFFFFFFF AND SWAP1 POP SWAP1 JUMP JUMPDEST PUSH1 0x1 SLOAD DUP2 JUMP JUMPDEST PUSH1 0x60 PUSH1 0x0 DUP1 SLOAD PUSH2 0x3EF SWAP1 PUSH2 0x731 JUMP JUMPDEST DUP1 PUSH1 0x1F ADD PUSH1 0x20 DUP1 SWAP2 DIV MUL PUSH1 0x20 ADD PUSH1 0x40 MLOAD SWAP1 DUP2 ADD PUSH1 0x40 MSTORE DUP1 SWAP3 SWAP2 SWAP1 DUP2 DUP2 MSTORE PUSH1 0x20 ADD DUP3 DUP1 SLOAD PUSH2 0x41B SWAP1 PUSH2 0x731 JUMP JUMPDEST DUP1 ISZERO PUSH2 0x468 JUMPI DUP1 PUSH1 0x1F LT PUSH2 0x43D JUMPI PUSH2 0x100 DUP1 DUP4 SLOAD DIV MUL DUP4 MSTORE SWAP2 PUSH1 0x20 ADD SWAP2 PUSH2 0x468 JUMP JUMPDEST DUP3 ADD SWAP2 SWAP1 PUSH1 0x0 MSTORE PUSH1 0x20 PUSH1 0x0 KECCAK256 SWAP1 JUMPDEST DUP2 SLOAD DUP2 MSTORE SWAP1 PUSH1 0x1 ADD SWAP1 PUSH1 0x20 ADD DUP1 DUP4 GT PUSH2 0x44B JUMPI DUP3 SWAP1 SUB PUSH1 0x1F AND DUP3 ADD SWAP2 JUMPDEST POP POP POP POP POP SWAP1 POP SWAP1 JUMP JUMPDEST PUSH1 0x0 SELFBALANCE SWAP1 POP SWAP1 JUMP JUMPDEST PUSH1 0x1 SLOAD CALLVALUE LT ISZERO PUSH2 0x4BF JUMPI PUSH1 0x40 MLOAD PUSH32 0x8C379A000000000000000000000000000000000000000000000000000000000 DUP2 MSTORE PUSH1 0x4 ADD PUSH2 0x4B6 SWAP1 PUSH2 0x8AC JUMP JUMPDEST PUSH1 0x40 MLOAD DUP1 SWAP2 SUB SWAP1 REVERT JUMPDEST PUSH1 0x3 PUSH1 0x0 SWAP1 SLOAD SWAP1 PUSH2 0x100 EXP SWAP1 DIV PUSH1 0xFF AND PUSH2 0x52A JUMPI PUSH1 0x0 SELFBALANCE SWAP1 POP PUSH1 0x2 SLOAD CALLVALUE DUP3 PUSH2 0x4E7 SWAP2 SWAP1 PUSH2 0x8FB JUMP JUMPDEST GT ISZERO PUSH2 0x528 JUMPI PUSH1 0x40 MLOAD PUSH32 0x8C379A000000000000000000000000000000000000000000000000000000000 DUP2 MSTORE PUSH1 0x4 ADD PUSH2 0x51F SWAP1 PUSH2 0x9A1 JUMP JUMPDEST PUSH1 0x40 MLOAD DUP1 SWAP2 SUB SWAP1 REVERT JUMPDEST POP JUMPDEST JUMP JUMPDEST PUSH1 0x0 DUP2 MLOAD SWAP1 POP SWAP2 SWAP1 POP JUMP JUMPDEST PUSH1 0x0 DUP3 DUP3 MSTORE PUSH1 0x20 DUP3 ADD SWAP1 POP SWAP3 SWAP2 POP POP JUMP JUMPDEST PUSH1 0x0 JUMPDEST DUP4 DUP2 LT ISZERO PUSH2 0x566 JUMPI DUP1 DUP3 ADD MLOAD DUP2 DUP5 ADD MSTORE PUSH1 0x20 DUP2 ADD SWAP1 POP PUSH2 0x54B JUMP JUMPDEST PUSH1 0x0 DUP5 DUP5 ADD MSTORE POP POP POP POP JUMP JUMPDEST PUSH1 0x0 PUSH1 0x1F NOT PUSH1 0x1F DUP4 ADD AND SWAP1 POP SWAP2 SWAP1 POP JUMP JUMPDEST PUSH1 0x0 PUSH2 0x58E DUP3 PUSH2 0x52C JUMP JUMPDEST PUSH2 0x598 DUP2 DUP6 PUSH2 0x537 JUMP JUMPDEST SWAP4 POP PUSH2 0x5A8 DUP2 DUP6 PUSH1 0x20 DUP7 ADD PUSH2 0x548 JUMP JUMPDEST PUSH2 0x5B1 DUP2 PUSH2 0x572 JUMP JUMPDEST DUP5 ADD SWAP2 POP POP SWAP3 SWAP2 POP POP JUMP JUMPDEST PUSH1 0x0 PUSH1 0x20 DUP3 ADD SWAP1 POP DUP2 DUP2 SUB PUSH1 0x0 DUP4 ADD MSTORE PUSH2 0x5D6 DUP2 DUP5 PUSH2 0x583 JUMP JUMPDEST SWAP1 POP SWAP3 SWAP2 POP POP JUMP JUMPDEST PUSH1 0x0 DUP1 REVERT JUMPDEST PUSH1 0x0 PUSH20 0xFFFFFFFFFFFFFFFFFFFFFFFFFFFFFFFFFFFFFFFF DUP3 AND SWAP1 POP SWAP2 SWAP1 POP JUMP JUMPDEST PUSH1 0x0 PUSH2 0x60E DUP3 PUSH2 0x5E3 JUMP JUMPDEST SWAP1 POP SWAP2 SWAP1 POP JUMP JUMPDEST PUSH2 0x61E DUP2 PUSH2 0x603 JUMP JUMPDEST DUP2 EQ PUSH2 0x629 JUMPI PUSH1 0x0 DUP1 REVERT JUMPDEST POP JUMP JUMPDEST PUSH1 0x0 DUP2 CALLDATALOAD SWAP1 POP PUSH2 0x63B DUP2 PUSH2 0x615 JUMP JUMPDEST SWAP3 SWAP2 POP POP JUMP JUMPDEST PUSH1 0x0 PUSH1 0x20 DUP3 DUP5 SUB SLT ISZERO PUSH2 0x657 JUMPI PUSH2 0x656 PUSH2 0x5DE JUMP JUMPDEST JUMPDEST PUSH1 0x0 PUSH2 0x665 DUP5 DUP3 DUP6 ADD PUSH2 0x62C JUMP JUMPDEST SWAP2 POP POP SWAP3 SWAP2 POP POP JUMP JUMPDEST PUSH1 0x0 DUP2 ISZERO ISZERO SWAP1 POP SWAP2 SWAP1 POP JUMP JUMPDEST PUSH2 0x683 DUP2 PUSH2 0x66E JUMP JUMPDEST DUP3 MSTORE POP POP JUMP JUMPDEST PUSH1 0x0 PUSH1 0x20 DUP3 ADD SWAP1 POP PUSH2 0x69E PUSH1 0x0 DUP4 ADD DUP5 PUSH2 0x67A JUMP JUMPDEST SWAP3 SWAP2 POP POP JUMP JUMPDEST PUSH1 0x0 DUP2 SWAP1 POP SWAP2 SWAP1 POP JUMP JUMPDEST PUSH2 0x6B7 DUP2 PUSH2 0x6A4 JUMP JUMPDEST DUP3 MSTORE POP POP JUMP JUMPDEST PUSH1 0x0 PUSH1 0x20 DUP3 ADD SWAP1 POP PUSH2 0x6D2 PUSH1 0x0 DUP4 ADD DUP5 PUSH2 0x6AE JUMP JUMPDEST SWAP3 SWAP2 POP POP JUMP JUMPDEST PUSH2 0x6E1 DUP2 PUSH2 0x603 JUMP JUMPDEST DUP3 MSTORE POP POP JUMP JUMPDEST PUSH1 0x0 PUSH1 0x20 DUP3 ADD SWAP1 POP PUSH2 0x6FC PUSH1 0x0 DUP4 ADD DUP5 PUSH2 0x6D8 JUMP JUMPDEST SWAP3 SWAP2 POP POP JUMP JUMPDEST PUSH32 0x4E487B7100000000000000000000000000000000000000000000000000000000 PUSH1 0x0 MSTORE PUSH1 0x22 PUSH1 0x4 MSTORE PUSH1 0x24 PUSH1 0x0 REVERT JUMPDEST PUSH1 0x0 PUSH1 0x2 DUP3 DIV SWAP1 POP PUSH1 0x1 DUP3 AND DUP1 PUSH2 0x749 JUMPI PUSH1 0x7F DUP3 AND SWAP2 POP JUMPDEST PUSH1 0x20 DUP3 LT DUP2 SUB PUSH2 0x75C JUMPI PUSH2 0x75B PUSH2 0x702 JUMP JUMPDEST JUMPDEST POP SWAP2 SWAP1 POP JUMP JUMPDEST PUSH32 0x4F6E6C79206F776E6572206F66207468697320646F6E6174696F6E2063616E20 PUSH1 0x0 DUP3 ADD MSTORE PUSH32 0x77697468647261772066726F6D20697400000000000000000000000000000000 PUSH1 0x20 DUP3 ADD MSTORE POP JUMP JUMPDEST PUSH1 0x0 PUSH2 0x7BE PUSH1 0x30 DUP4 PUSH2 0x537 JUMP JUMPDEST SWAP2 POP PUSH2 0x7C9 DUP3 PUSH2 0x762 JUMP JUMPDEST PUSH1 0x40 DUP3 ADD SWAP1 POP SWAP2 SWAP1 POP JUMP JUMPDEST PUSH1 0x0 PUSH1 0x20 DUP3 ADD SWAP1 POP DUP2 DUP2 SUB PUSH1 0x0 DUP4 ADD MSTORE PUSH2 0x7ED DUP2 PUSH2 0x7B1 JUMP JUMPDEST SWAP1 POP SWAP2 SWAP1 POP JUMP JUMPDEST PUSH1 0x0 DUP2 SWAP1 POP SWAP3 SWAP2 POP POP JUMP JUMPDEST POP JUMP JUMPDEST PUSH1 0x0 PUSH2 0x80F PUSH1 0x0 DUP4 PUSH2 0x7F4 JUMP JUMPDEST SWAP2 POP PUSH2 0x81A DUP3 PUSH2 0x7FF JUMP JUMPDEST PUSH1 0x0 DUP3 ADD SWAP1 POP SWAP2 SWAP1 POP JUMP JUMPDEST PUSH1 0x0 PUSH2 0x830 DUP3 PUSH2 0x802 JUMP JUMPDEST SWAP2 POP DUP2 SWAP1 POP SWAP2 SWAP1 POP JUMP JUMPDEST PUSH32 0x596F752063616E6E6F7420646F6E6174652062656C6F7720247B5F6D696E416D PUSH1 0x0 DUP3 ADD MSTORE PUSH32 0x6F756E747D000000000000000000000000000000000000000000000000000000 PUSH1 0x20 DUP3 ADD MSTORE POP JUMP JUMPDEST PUSH1 0x0 PUSH2 0x896 PUSH1 0x25 DUP4 PUSH2 0x537 JUMP JUMPDEST SWAP2 POP PUSH2 0x8A1 DUP3 PUSH2 0x83A JUMP JUMPDEST PUSH1 0x40 DUP3 ADD SWAP1 POP SWAP2 SWAP1 POP JUMP JUMPDEST PUSH1 0x0 PUSH1 0x20 DUP3 ADD SWAP1 POP DUP2 DUP2 SUB PUSH1 0x0 DUP4 ADD MSTORE PUSH2 0x8C5 DUP2 PUSH2 0x889 JUMP JUMPDEST SWAP1 POP SWAP2 SWAP1 POP JUMP JUMPDEST PUSH32 0x4E487B7100000000000000000000000000000000000000000000000000000000 PUSH1 0x0 MSTORE PUSH1 0x11 PUSH1 0x4 MSTORE PUSH1 0x24 PUSH1 0x0 REVERT JUMPDEST PUSH1 0x0 PUSH2 0x906 DUP3 PUSH2 0x6A4 JUMP JUMPDEST SWAP2 POP PUSH2 0x911 DUP4 PUSH2 0x6A4 JUMP JUMPDEST SWAP3 POP DUP3 DUP3 ADD SWAP1 POP DUP1 DUP3 GT ISZERO PUSH2 0x929 JUMPI PUSH2 0x928 PUSH2 0x8CC JUMP JUMPDEST JUMPDEST SWAP3 SWAP2 POP POP JUMP JUMPDEST PUSH32 0x596F757220646F6E6174696F6E2077696C6C2063726F73732074686520616D6F PUSH1 0x0 DUP3 ADD MSTORE PUSH32 0x756E74206E656564656400000000000000000000000000000000000000000000 PUSH1 0x20 DUP3 ADD MSTORE POP JUMP JUMPDEST PUSH1 0x0 PUSH2 0x98B PUSH1 0x2A DUP4 PUSH2 0x537 JUMP JUMPDEST SWAP2 POP PUSH2 0x996 DUP3 PUSH2 0x92F JUMP JUMPDEST PUSH1 0x40 DUP3 ADD SWAP1 POP SWAP2 SWAP1 POP JUMP JUMPDEST PUSH1 0x0 PUSH1 0x20 DUP3 ADD SWAP1 POP DUP2 DUP2 SUB PUSH1 0x0 DUP4 ADD MSTORE PUSH2 0x9BA DUP2 PUSH2 0x97E JUMP JUMPDEST SWAP1 POP SWAP2 SWAP1 POP JUMP INVALID LOG2 PUSH5 0x6970667358 0x22 SLT KECCAK256 0xD9 ORIGIN LOG2 0xDC PUSH29 0x8CA02C46BF51BFCD9E84756646DCF1F31DE25ABBF85B2841F3891E6473 PUSH16 0x6C63430008110033A264697066735822 SLT KECCAK256 PUSH32 0x6DA14EF08521B45C5EA4E38AE8FFD970E171A010848E05675940830463633F64 PUSH20 0x6F6C634300081100330000000000000000000000 "
		},
		"gasEstimates": {
			"creation": {
				"codeDepositCost": "1549600",
				"executionCost": "1624",
				"totalCost": "1551224"
			},
			"external": {
				"createDonation(string,uint256,bool,uint256)": "infinite",
				"donateToCampaign(address)": "infinite",
				"getCampaigns()": "infinite",
				"getCampainBalance(address)": "infinite",
				"getCampainName(address)": "infinite",
				"getCampainOwner(address)": "infinite",
				"withdrawFromCampaign(address)": "infinite"
			}
		},
		"methodIdentifiers": {
			"createDonation(string,uint256,bool,uint256)": "17cfc652",
			"donateToCampaign(address)": "7c6abc82",
			"getCampaigns()": "a6b03633",
			"getCampainBalance(address)": "767d78b2",
			"getCampainName(address)": "f4139c58",
			"getCampainOwner(address)": "a3e8f260",
			"withdrawFromCampaign(address)": "e5482153"
		}
	},
	"abi": [
		{
			"inputs": [
				{
					"internalType": "string",
					"name": "name",
					"type": "string"
				},
				{
					"internalType": "uint256",
					"name": "amountNeeded",
					"type": "uint256"
				},
				{
					"internalType": "bool",
					"name": "accept",
					"type": "bool"
				},
				{
					"internalType": "uint256",
					"name": "minAMount",
					"type": "uint256"
				}
			],
			"name": "createDonation",
			"outputs": [
				{
					"internalType": "address",
					"name": "",
					"type": "address"
				}
			],
			"stateMutability": "nonpayable",
			"type": "function"
		},
		{
			"inputs": [
				{
					"internalType": "address",
					"name": "campaignAddress",
					"type": "address"
				}
			],
			"name": "donateToCampaign",
			"outputs": [],
			"stateMutability": "payable",
			"type": "function"
		},
		{
			"inputs": [],
			"name": "getCampaigns",
			"outputs": [
				{
					"internalType": "contract Donation[]",
					"name": "",
					"type": "address[]"
				}
			],
			"stateMutability": "view",
			"type": "function"
		},
		{
			"inputs": [
				{
					"internalType": "address",
					"name": "campaignAddress",
					"type": "address"
				}
			],
			"name": "getCampainBalance",
			"outputs": [
				{
					"internalType": "uint256",
					"name": "",
					"type": "uint256"
				}
			],
			"stateMutability": "view",
			"type": "function"
		},
		{
			"inputs": [
				{
					"internalType": "address",
					"name": "campaignAddress",
					"type": "address"
				}
			],
			"name": "getCampainName",
			"outputs": [
				{
					"internalType": "string",
					"name": "",
					"type": "string"
				}
			],
			"stateMutability": "view",
			"type": "function"
		},
		{
			"inputs": [
				{
					"internalType": "address",
					"name": "campaignAddress",
					"type": "address"
				}
			],
			"name": "getCampainOwner",
			"outputs": [
				{
					"internalType": "address",
					"name": "",
					"type": "address"
				}
			],
			"stateMutability": "view",
			"type": "function"
		},
		{
			"inputs": [
				{
					"internalType": "address",
					"name": "campaignAddress",
					"type": "address"
				}
			],
			"name": "withdrawFromCampaign",
			"outputs": [],
			"stateMutability": "nonpayable",
			"type": "function"
		}
	]
}